:020000021000EC
:1060000000400020E1E3010029E4010079B501002E
:106010000000000000000000000000000000000080
:106020000000000000000000000000002DE401005E
:1060300000000000000000002FE4010031E4010036
:1060400033E4010033E4010033E4010033E40100F0
:1060500033E401000000000095DF010033E401009B
:1060600033E4010033E40100A198010033E40100AE
:1060700033E4010033E4010033E4010033E40100C0
:1060800033E40100A5C7010033E4010033E401005B
:1060900045C8010033E4010071C0010033E4010090
:1060A00033E4010033E401000000000000000000C0
:1060B00000000000000000000000000000000000E0
:1060C000164B002B00D1144B9D46402292029A1A87
:1060D000924600218B460F461348144A121A0BF0C1
:1060E000ABFD0F4B002B00D098470E4B002B00D080
:1060F00098470020002104000D000D48002802D020
:106100000C4800E000BF0BF059FD2000290005F00D
:10611000F7FB0BF03DFDC0460000080000400020EA
:10612000000000000000000038210020643700203B
:10613000000000000000000077DF704778DF704744
:106140007ADF70477CDF704760DF704768DF704739
:10615000A023EF220321DB05D20030B5A120995006
:106160008022C000D2051A500C2204250B4C1A5173
:106170000B4C1D510B4C1A51043C19518024E40066
:106180001C50E320C0001A5010381A5006481A500C
:10619000E222D2009950054A995030BD54070000C0
:1061A000240700002C0700000C0700001C0700005B
:1061B000A023EE210322DB05C9005A5005495A509D
:1061C000A1228021D200490599508021890599504A
:1061D0007047C04674070000002307B502200093F3
:1061E0000A2115221A4B06F0EBFC002803D03D21B2
:1061F000184A05F073F918480121184A06F040FDC5
:10620000002803D04021134A05F068F91448012101
:10621000144A06F035FD002803D041210D4A05F04F
:106220005DF911480121114A06F02AFD002803D02A
:106230004221084A05F052F90D4801210D4A06F0A5
:106240001FFD002803D04321024A05F047F907BD8E
:10625000382100209C2402001837002095B8010046
:10626000403300209D77010048330020EDB8010045
:10627000BC33002029B10100164910B50420583163
:1062800007F0D4FE002803D04B21134A05F026F96D
:10629000C122124992008858114B124C0340C02071
:1062A000000403438B501049201C0A1C0F4B07F0BD
:1062B000F1FE002803D05021074A05F00FF920789D
:1062C00007F00CFF002803D05221034A05F006F91D
:1062D00010BDC046B82800209C24020000E100E068
:1062E000FFFF00FF44330020400820003577010005
:1062F0001FB5012202AC23781F4993432370082065
:1063000028314F32002305F083FE002803D061219D
:106310001A4A05F0E3F8002301A80370FFF714FF01
:10632000002803D06921154A05F0D8F8144805F073
:106330008BFE002803D06D21104A05F0CFF81148DC
:1063400005F08CFE002803D070210C4A05F0C6F839
:106350000420FFF7F1FE002803D07321074A05F05F
:10636000BDF80120211CFFF7F1FE002803D07621A3
:10637000024A05F0B3F81FBD382900209C24020012
:106380003DB7010061B70100064A08B50820142195
:10639000783207F013FF002803D07D21024A05F070
:1063A0009DF808BD382900209C2402001FB506F086
:1063B0003BFF002803D08A21194A05F08FF8A22359
:1063C000A022DB00D205D2580123920893436A46EB
:1063D0006846137007F02CFB002803D09021104A68
:1063E00005F07CF80A200021684406220BF024FC0A
:1063F0001E2301ACE380113B2372063B6372093319
:10640000A372084B084801930123211C237107F054
:106410007DFB002803D09F21014A05F05FF81FBDD6
:106420009C24020025B701004D3300201FB5002336
:1064300001A8134905220370FFF784FE002803D04A
:10644000B021104A05F04AF80020FFF777FE002837
:1064500003D0B3210B4A05F041F8002302A84360A2
:1064600050330380503343802833C380FFF768FEE6
:10647000002803D0BD21034A05F030F805B000BD67
:10648000A62402009C24020030B5204D95B001AC3A
:106490000021C022281C0BF0CFFB00210C22201C65
:1064A0000BF0CAFB1A4BF12201930123281C237124
:1064B000211CEF336271A2712372E2716372A372C5
:1064C000E37204F051FA002803D0F221114A05F0DA
:1064D00005F84022002104A80BF0AEFB04A80E49E9
:1064E00005F032FD112213AB1A704D2300226B44CC
:1064F00004A81A7005F05AFC002804D08021054A2F
:10650000490004F0EBFF15B030BDC046C033002099
:1065100069B701009C240200AC24020030B59FB092
:106520006B46DD1D062302AC00213822201C2B7097
:106530000BF082FB02230021237010A8013B3822BC
:10654000A370A380A5600BF077FB201C10A905F0B9
:1065500093FF002804D08D21024A490004F0BEFFB9
:106560001FB030BD9C24020010B588B001AC201CC7
:1065700000211C220BF060FB0C4B201C6360A0234D
:10658000DB02A36005232373043B2374084B636180
:10659000084BA36106F014F8002804D09821064A9D
:1065A000490004F09BFF08B010BDC04655D500005F
:1065B00011B6010001B601009C24020008B501F0EB
:1065C00075F8002804D03821214AFF3104F086FFF5
:1065D00002F034FF002804D09D211D4A490004F038
:1065E0007DFF05F0A7FA002805D19F211948490031
:1065F000174A04F073FF362001F0ACF9002804D0EC
:106600004221134AFF3104F069FF342002F068FD93
:10661000002804D0A2210E4A490004F05FFF732035
:1066200001F048FA002804D04821094AFF3104F05B
:1066300055FF762004F060F8002804D0A521044A14
:10664000490004F04BFF682003F046FB08BDC0463C
:106650009C24020001100000FA2010B5C00007F0D1
:1066600089FD404C201C00F0F3FC002804D062217E
:106670003D4AFF3104F032FF00F004FD002804D051
:10668000B121394A490004F029FF201C00F012F919
:10669000002804D0B321344A490004F01FFF00F061
:1066A00023F9002804D068212F4AFF3104F016FF97
:1066B000201C00F0B1FD002804D06C212A4AFF31D3
:1066C00004F00CFF00F0C2FD002804D0B621264AD9
:1066D000490004F003FF201C00F004FA002804D055
:1066E0007621214AFF3104F0F9FE00F013FA002868
:1066F00004D0BB211C4A490004F0F0FE201C00F02D
:10670000D9F9002804D0BD21174A490004F0E6FE5B
:10671000201C00F0C5FA002804D08021124AFF3165
:1067200004F0DCFE201C00F0ADF9002804D0842128
:106730000D4AFF3104F0D2FE00240C4B201C1C70CB
:1067400001F07AF8A0210A4B09031868221C06F010
:10675000BDFAA04204D0C621034A490004F0BEFE9F
:1067600010BDC046C03300209C2402004C330020E2
:10677000403300200122FA2008B50D490D4B0004DA
:106780005A500D495850A120C000195811431950B2
:106790001A600A4B0A491868002206F097FA002886
:1067A00004D0CB21074A490004F098FE08BDC0463A
:1067B0000C050000000001400405000048330020E3
:1067C00055D500009C24020000B5174BA1B01A7EDD
:1067D000164B1B7E1343164A127E1343154A127E34
:1067E0001343154A127E1343144A127E134303D1F6
:1067F000134B1B7E002B14D0124B0B211868002268
:1068000006F064FA002804D0E5210F4A490004F09C
:1068100065FE0E4968460BF0E9FA0020694602F071
:10682000D9FC21B000BDC046703300208034002068
:1068300098330020F836002050330020A034002088
:1068400020330020183700209C240200B6240200C8
:1068500000B50B4BA1B0186806F080FA002804D0F0
:10686000EB21084A490004F039FE684606490BF05E
:10687000BDFA6946002002F0ADFC21B000BDC04663
:10688000183700209C240200E1240200014B186804
:106890007047C0460C2B0020014B18607047C04663
:1068A0000C2B0020024A1368013313607047C04666
:1068B0000C2B002010B5A0B0041C094968460BF051
:1068C00095FA6946002002F085FC00200021012293
:1068D000044B186159611C601A7620B010BDC04687
:1068E0004B2502007033002030B5A1B01D49684629
:1068F0000BF07CFA0020694602F06CFC1A4C002276
:106900002368251C36331878002322616361012334
:10691000034023764009042813D808F0DFFE03055E
:106920000B0D0F00114800E0114805F003F8A860B6
:10693000E9600BE00F48F8E70F48F6E7FA2080001F
:10694000F3E70E4804F0F6FFA060E16068460C49EA
:106950000BF04CFA6946002002F03CFC002021B00C
:1069600030BDC04658250200703300208096980044
:1069700040420F00A086010010270000C0D4010093
:106980007B25020030B5A9B002A803F00BFF041E5E
:1069900008D008A815490BF029FA08A9002002F030
:1069A00019FC20E0029DFFF771FF022301220190F4
:1069B0000F49009503A80BF0F7F90E4903A805F05D
:1069C0000BF8029A0C4908A80BF0EEF908A9201C54
:1069D00002F000FC094B02A918680422012304F00C
:1069E00079FA04F0A9FF201C29B030BD97250200D8
:1069F000BC250200CA250200D32502007033002006
:106A000030B51D4BA1B01A7E002A01D100242FE021
:106A100001201C695D69002100196941DA6818616B
:106A200059618A4207D802D19A68824203D800206D
:106A30000021186159611A69012AE7D15A69002AAF
:106A4000E4D10E490C78002C0DD1FFF79BFF051EF9
:106A50000ED00B4968460BF0C9F9201C694602F0BC
:106A6000B9FB2C1C04E000200021141C18615961A2
:106A7000201C21B030BDC046703300204C330020B4
:106A8000E225020010B5A0B0041C084968460BF0CE
:106A9000ADF96946002002F09DFB00200021044B67
:106AA000186159611C60187620B010BD4B26020099
:106AB0002033002010B5A0B0041C084968460BF034
:106AC00095F96946002002F085FB00200021044B67
:106AD000186159611C60187620B010BDFA260200BA
:106AE0005033002010B5A0B0041C084968460BF0D4
:106AF0007DF96946002002F06DFB00200021044B67
:106B0000186159611C60187620B010BD7A27020008
:106B1000F836002030B5A1B01B4968460BF066F985
:106B20000020694602F056FB184C00222368251C01
:106B300062331878002322616361012303402376C6
:106B4000400903280FD808F0C9FD02040A0C1048B8
:106B500000E0104804F0EEFEA860E96009E00E488D
:106B6000F8E70E48F6E7FA20C00004F0E3FEA06064
:106B7000E16068460A490BF039F96946002002F0E5
:106B800029FB002021B030BD88270200F836002004
:106B90008096980040420F00A08601001027000058
:106BA000AD27020010B5A6B002A800F011FA041E2D
:106BB00008D006A814490BF019F906A9002002F024
:106BC00009FB1EE0029B01220093019005230F495F
:106BD00003A80BF0E9F80E4903A804F0FDFE029AA1
:106BE0000C4906A80BF0E0F806A9201C02F0F2FA06
:106BF000094B02A918680422032304F06BF904F07E
:106C00009BFE201C26B010BDCA270200BC25020036
:106C1000CA250200F9270200F836002030B51D4BC6
:106C2000A1B01A7E002A01D100242FE001201C69A6
:106C30005D69002100196941DA68186159618A4269
:106C400007D802D19A68824203D800200021186137
:106C500059611A69012AE7D15A69002AE4D10E491B
:106C60000C78002C0DD1FFF79DFF051E0ED00B49AF
:106C700068460BF0BBF8201C694602F0ABFA2C1CEE
:106C800004E000200021141C18615961201C21B06F
:106C900030BDC046F83600204C3300200A280200E0
:106CA00010B5A0B0041C094968460BF09FF869466E
:106CB000002002F08FFA002000210122044B18610D
:106CC00059611C601A7620B010BDC04676280200BB
:106CD000A0340020F0B5A5B00F1C0390111C181CA7
:106CE0001C1C151C08F004FD0290381C0AF020FD45
:106CF000021C0B1C0020704909F056FA061C0F1CE0
:106D0000281C0AF015FD321C3B1C09F08BFE08F014
:106D1000CFFE0090201C0AF00BFD3B1C321C09F03A
:106D200081FE08F0C5FE039B041C002B03D1009BD1
:106D300004011B01009302980AF0FAFC00225F4B49
:106D4000061C0F1C08F06CFE051E2ED000980AF0E1
:106D5000EFFC5B4A041C0D1C301C391C594B07F01E
:106D600069FB594A00900191584B201C291C09F0DD
:106D700059FE574A061C0F1C564B201C291C09F0B3
:106D800051FE009A019B09F04DFE021C0B1C301CA9
:106D9000391C0AF0E1F808F08BFE2A9B4E49186076
:106DA00004A80BF023F8002027E0301C391C4B4AC4
:106DB0004B4B08F035FE0290002822D000980AF0D4
:106DC000B7FC484A484B09F02DFE061C201C0F1C3E
:106DD0000AF0AEFC3E4A454B09F024FE0B1C021C97
:106DE000391C301C0AF0B8F808F062FE2A9B4049B2
:106DF000186004A80AF0FAFF281C04A902F0EAF9B6
:106E000056E0301C391C3B4A3B4B08F009FE051E7E
:106E10001FD000980AF08CFC384A394B09F002FE6A
:106E2000061C201C0F1C0AF083FC364A364B09F066
:106E3000F9FD021C0B1C301C391C0AF08DF808F0FF
:106E400037FE2A9B3149186004A80AF0CFFF029848
:106E5000D3E7391C301C2E4A2E4B08F0E1FD071EEB
:106E60001CD000980AF064FC2B4A2C4B09F0DAFD88
:106E7000061C201C0F1C0AF05BFC294A294B09F058
:106E8000D1FD0B1C021C391C301C0AF065F808F0FF
:106E90000FFE2A9B2449186004A8ABE7234904A8E5
:106EA0000AF0A4FF381C04A902F094F92A9B1F6081
:106EB000012025B0F0BDC046002079400000E03F31
:106EC000666666666666F63FC58F31772D219F3F01
:106ED0005839B4C876BEAF3FF228020085EB51B8EE
:106EE0001E85E33FC7BAB88D06F0963F76BE9F3F3A
:106EF000FD2802009A9999999999E93F2D431CEB35
:106F0000E2368A3F4BC8073D9B558F3F0929020057
:106F1000CDCCCCCCCCCCF43FB2632310AFEB573FFD
:106F2000D2FBC6D79E59523F142902001F290200E6
:106F300037B5064D069CAA4201D0AB4202D10020D3
:106F4000206002E00094FFF7C5FE3EBDFFFF000099
:106F500073B56B460D1CD91D0F230122114E18402D
:106F6000B378184308703078131C4000C0B204F0A6
:106F70001BFE0D4C002803D1FF23002023700FE0DF
:106F800000231420237007F0F5F801233078291C22
:106F900040001843C0B2022204F006FE0028EBD0E5
:106FA00076BDC04600200020C034002038B5031C48
:106FB000064C0D1C607B191CFFF7CAFF002803D08C
:106FC000A07B291CFFF7C4FF38BDC046002000206D
:106FD000F0B50024A5B0164D164E0390164904A82E
:106FE0002C7034700AF002FF04A9201C02F0F2F8A1
:106FF000301C291CFFF7DAFF071EA74209D10F49F1
:1070000004A80AF0F3FE381C04A902F0E3F80C48C7
:107010000CE00C4B0399187832782B7800910A49D0
:107020008968FFF785FF094B9870201C25B0F0BDDB
:107030001C3700201E3700207C2902009D290200F9
:10704000252000001F37002000200020102B0020EA
:1070500010B5A0B0041C094968460AF0C7FE69468D
:10706000002002F0B7F8002000210122044B186133
:1070700059611C601A7620B010BDC046AC290200D0
:107080008034002030B5A1B01B4968460AF0AEFE3E
:107090000020694602F09EF8184C00222368251C47
:1070A0000133D87F002322616361012303402376EB
:1070B000400903280FD808F011FB02040A0C1048FD
:1070C00000E0104804F036FCA860E96008E00E48D3
:1070D000F8E70E48F6E70E4804F02CFCA060E160EB
:1070E00068460C490AF082FE6946002002F072F8F8
:1070F000002021B030BDC0465B2602008034002055
:107100008096980040420F00A086010010270000E2
:10711000C0D40100BB29020030B5A9B002A803F019
:1071200025FB041E08D008A815490AF05FFE08A92F
:10713000002002F04FF820E0029DFFF7A7FB01229C
:107140000190131C0F49009503A80AF02DFE0E496B
:1071500003A804F041FC029A0C4908A80AF024FE96
:1071600008A9201C02F036F8094B02A9186804226D
:10717000231C03F0AFFE04F0DFFB201C29B030BD60
:10718000D9290200BC250200CA250200032A0200F8
:107190008034002030B51D4BA1B01A7E002A01D1E9
:1071A00000242FE001201C695D690021001969415C
:1071B000DA68186159618A4207D802D19A68824216
:1071C00003D800200021186159611A69012AE7D10A
:1071D0005A69002AE4D10E490C78002C0DD1FFF732
:1071E0009BFF051E0ED00B4968460AF0FFFD201CD0
:1071F000694601F0EFFF2C1C04E000200021141C64
:1072000018615961201C21B030BDC0468034002077
:107210004C330020142A020010B5A0B0041C094908
:1072200068460AF0E3FD6946002001F0D3FF002024
:1072300000210122044B186159611C601A7620B0AC
:1072400010BDC046832A02009833002030B5A1B09B
:107250001B4968460AF0CAFD0020694601F0BAFFE2
:10726000184C00222368251C4C3318780023226117
:107270006361012303402376400903280FD808F0F7
:107280002DFA02040A0C104800E0104804F052FBEA
:10729000A860E96008E00E48F8E70E48F6E70E48F7
:1072A00004F048FBA060E16068460C490AF09EFDCE
:1072B0006946002001F08EFF002021B030BDC0469D
:1072C000912A0200983300208096980040420F00D7
:1072D000A086010010270000C0D40100B42A0200DB
:1072E00030B5A9B002A803F079FA041E08D008A8A6
:1072F00015490AF07BFD08A9002001F06BFF20E092
:10730000029DFFF7C3FA0323012201900F49009564
:1073100003A80AF049FD0E4903A804F05DFB029A98
:107320000C4908A80AF040FD08A9201C01F052FFF2
:10733000094B02A918680422022303F0CBFD04F0D4
:10734000FBFA201C29B030BDD12A0200BC25020066
:10735000CA250200F72A02009833002030B51D4BE1
:10736000A1B01A7E002A01D100242FE001201C695F
:107370005D69002100196941DA68186159618A4222
:1073800007D802D19A68824203D8002000211861F0
:1073900059611A69012AE7D15A69002AE4D10E49D4
:1073A0000C78002C0DD1FFF79BFF051E0ED00B496A
:1073B00068460AF01BFD201C694601F00BFF2C1CDF
:1073C00004E000200021141C18615961201C21B028
:1073D00030BDC046983300204C330020062B0200FD
:1073E0000123C046C046C046C046C046C046C0464F
:1073F000C046C046C046C046C046C046C046013B27
:10740000002BEED170470000002008B5011C021CC3
:1074100003F000FA064BEC221860A0230321DB05E1
:10742000D20099508021A1224904D200995008BD70
:10743000142B002080B5021C6846CB1DDB08DB0046
:10744000C31A00AF9D46044B89B218686B4603F01F
:107450003DFABD4680BDC046142B0020B0B5031CCC
:107460006846CA1DD208D200821A00AF95460C1C8D
:1074700068466C44A04203D0FF2505700130F9E74F
:10748000034889B2006803F021FABD46B0BDC0468A
:10749000142B002037B5094C6B46DD1D281C01213B
:1074A000FFF7DCFF2B78FF2B04D0013CFFF798FFA0
:1074B000002CF1D1601E8441E0B23EBD20A1070046
:1074C00007B5A1238021A0224904DB00D205D150B9
:1074D0006B460121D81DFFF7C1FF07BD13B5A022E0
:1074E0008021094BD2054904D1506B460121D81D9A
:1074F000FFF7B4FFFFF7CEFF041E02D1FFF7E0FF56
:1075000000E00124201C16BD0C050000F7B5071C87
:107510000E1C0F4D01AC201C0121FFF79FFF2378AB
:10752000FF2B0DD023780020FE2B0FD1381C311CEF
:10753000FFF794FF201C0221FFF790FF012005E0D8
:10754000013DFFF74DFF002DE4D1EBE7FEBDC04646
:10755000A0860100F7B5071C0E1CFFF79BFF041E59
:107560001CD001AD281C01212E700124FFF762FF01
:10757000FD2E13D08021381C8900FFF75BFF281CEB
:107580000221FFF76BFF211C281CFFF767FF1F2359
:107590002C781C40053C63425C41E4B2201CFEBDDB
:1075A00030B543B285B0041C0D1C002B07DA372020
:1075B0000021FFF7F5FF01283AD87F231C400C2C4F
:1075C0000ED1402302A8234303702B0E43702B0CD3
:1075D00083702B0AC37005719523002C0FD00AE02D
:1075E000002CEED0FFF76CFFFFF778FF031CFF20A5
:1075F000002B1DD0E5E78723082C00D0863B062111
:107600004371FFF717FF6B46DD1D0C2C03D1281CBF
:107610000121FFF723FF0A24281C0121FFF71EFF89
:10762000287843B2002B03DA013CE4B2002CF3D1FA
:1076300005B030BD00B5A1B068460A490AF0D6FBD6
:107640006946002001F0C6FD0122074B03211A7094
:107650000022064B1D201A70803201F053FF21B02A
:1076600000BDC046722B0200182B0020B83300204A
:1076700000B5A1B068460A490AF0B8FB6946002087
:1076800001F0A8FD0122074B03215A700022064B8E
:107690001D201A70803201F035FF21B000BDC046B8
:1076A0008A2B0200182B0020B83300200020012272
:1076B000024B1870024B1A707047C046B833002056
:1076C0009033002010B5041CA0B0002802D0FFF7B2
:1076D000B1FF0CE0074968460AF088FB201C6946A8
:1076E00001F078FD044B1D201C7001F0D7FE20B086
:1076F00010BDC0469E2B0200182B002010B5041CA4
:10770000A0B0002802D0FFF7B3FF0CE0074968469D
:107710000AF06CFB201C694601F05CFD044B1D2047
:107720005C7001F0BBFE20B010BDC046B72B02005C
:10773000182B002070B580252D01A0B0061C0C1C54
:10774000284202D00020FFF7BDFF2C4201D0FFF7F6
:1077500071FF8025AD032E4202D00020FFF7CEFF3F
:107760002C4201D0FFF784FF630610D50949684613
:107770000AF03CFB0020694601F02CFD684600F051
:1077800041F9002803D04A21034A03F0A7FE20B0A4
:1077900070BDC046CC2B0200E52B0200012070B565
:1077A000A026A225011CF605ED001E4C7259237877
:1077B000D20AA2B09143994202D05840FFF782FF0B
:1077C0000120011C72596378520D9143994202D0F5
:1077D0005840FFF793FF144B1D78002D20D113491B
:1077E00002A80AF003FB281C02A901AD01F0F2FC7B
:1077F000281C00F0FBF800280ED121786A780123BC
:10780000002900D1637802A809490AF0CDFA02A93B
:10781000002001F0DFFC03E06421064A03F05EFE75
:1078200022B070BD182B00204C330020282C020001
:10783000432C0200E52B0200002809D08021A1235F
:10784000A022DB00D205C905D1500122014B1A70DC
:107850007047C04690330020B0B5131C6C46083307
:10786000DB08DB00E31A00AF9D466C460023207066
:10787000D8B2904204D2CD5CE01845700133F7E7EE
:10788000064B211C1878012304F08EF9002801D042
:10789000002000E00248BD46B0BDC0461A2B0020C3
:1078A0000140000073B56B46141C0122154ED971BE
:1078B0000733051C191C3078131C04F075F90028D7
:1078C0001BD001233078291C1843221C04F06CF9CA
:1078D000002814D00423C046C046C046C046C04657
:1078E000C046C046C046C046C046C046C046C04668
:1078F000C046013B181EEED102E0034800E00348F9
:1079000076BDC0461A2B0020014000000240000056
:1079100013B501AC201C0C210222FFF7C3FF002885
:1079200001D00B4813E0202263780C209343211CE4
:107930001E3A6370FFF790FF0028F2D1207060704C
:10794000211C1A300222FFF787FF0028E9D116BD5B
:107950000440000037B5234B400001AC18701821DB
:10796000201C0222FFF79EFF002801D01E4837E0AE
:10797000201C08210222FFF795FF0028F6D1207075
:107980006070211C06300222FFF766FF0028EDD14F
:1079900020706070211C0A300222FFF75DFF002872
:1079A000E4D17C23FF251830211C0222237065704E
:1079B000FFF752FF0028D9D197230C302370211CE8
:1079C0003B3B02226370FFF747FF0028CED12070B7
:1079D000211C143002226570FFF73EFF0028C5D13C
:1079E0003EBDC0461A2B00200340000008B504210C
:1079F0000222FFF757FF002800D0014808BDC0460B
:107A00000540000037B501AD041C1A21281C0222D4
:107A1000FFF748FF00281CD101222B78134201D028
:107A2000207013E002210B420AD10422134201D03C
:107A300021700BE0190701D5032306E0D90601D513
:107A4000227003E09B0601D505232370FFF760FF3A
:107A500000E001483EBDC046064000000423C04689
:107A6000C046C046C046C046C046C046C046C046E6
:107A7000C046C046C046C046C046013B002BEED1C2
:107A80007047000007B5094A01AB187059701078AB
:107A9000191C0222012304F087F8002803D0FFF705
:107AA000DDFF002000E002480EBDC0461B2B002079
:107AB0001640000010B50F4C6378002B17D1FF2142
:107AC000400020700320A170FFF7DCFF011E01D0F1
:107AD00009480DE00220FFF7D5FF011EF8D1012073
:107AE000FFF7D0FF0028F3D10123637000E00348C3
:107AF00010BDC0461B2B00200740000006400000C0
:107B0000002310B5934203D0CC5CC4540133F9E791
:107B100010BD8218904202D001700130FAE7704720
:107B200010B503681A1E10D0117820290BD93A29F4
:107B300001D00132F8E7591C1C788A4205D1302C5B
:107B400003D102330360002001E00120404210BD58
:107B500010B50923002810D00268002A0DD0117832
:107B600000290AD0D48881888C4206D1507801F04F
:107B700035F90323C007C0170340181C10BDCB7E86
:107B8000021C887E1B021843032A05D14B7D0A7D07
:107B90001B0213431B0418437047F8B5071CC56A42
:107BA00030370123041C391C40782A1C01F0D8F915
:107BB0000123002814D1236AA2692071EB1A934291
:107BC00001D300230CE0E678012EFAD9A36960788E
:107BD000ED18391C2A1C012301F0C2F9013EF3E71C
:107BE000181CF8BD08B5031C02790020824202D09F
:107BF000181CFFF7D2FF08BDF8B5041CFFF7F2FF11
:107C0000051E53D12378032B48D16779012F45D125
:107C1000261C80223036301C291C9200FFF779FF89
:107C20005522234B4121E254224B9218E254221C4C
:107C3000DE3BFF3B313233701370231C6122323341
:107C400085201A7059707223800023541A482354D7
:107C50001A4BE1541A4BE2542369B832FF32A35451
:107C6000184A190AA154184A190CA154174A1B0E94
:107C7000A354E3680132A354154A190AA154154AC2
:107C8000190CA154144A1B0EA354E36960785A1CC2
:107C9000E262311C3B1C01F063F9657100216078E0
:107CA0000A1C01F0A9F9431E9841C0B2F8BDC046B4
:107CB0002E0200002F020000150200001602000034
:107CC00017020000190200001A0200001B02000047
:107CD0001D0200001E0200001F02000070B5C36AF2
:107CE000041C0E1C0025994210D0FFF77BFF051ED7
:107CF0000CD1211C60783031321C012301F0F6F8E0
:107D0000002802D0012601357642E662281C70BDAB
:107D1000002310B50371013BC362041CFFF7DEFFB3
:107D2000011C0320002939D11D4B1E4AE35CA25CD3
:107D30001B0213431C4A1BB2013893422ED1231C51
:107D400069331B78081C1A06231C68331B781B0434
:107D50001343221C663212781343221C67321278B6
:107D600012021343114A1B021B0A934216D0231C12
:107D700085331878013B1B7800061B041843231C2D
:107D800082331B788334184323781B021843000284
:107D9000074B000AC018431E9841C0B210BDC04630
:107DA0002F0200002E02000055AAFFFF464154009A
:107DB000BABEABFF0023F0B5036089B0071C081CF6
:107DC000161CFFF7ADFE0B23051E00DA8FE1C94B31
:107DD0008200D4580C23002C00D188E13C60237829
:107DE000002B0DD0607800F0F9FF0123034007D18C
:107DF000002E00D17BE1420700D478E10A2376E12E
:107E00000023E8B22370607000F0F2FF0323C20782
:107E100000D56CE1002E01D04307EFD4201C0021D7
:107E2000FFF776FF012828D1231C0020F333FF330E
:107E300000221978914209D0DA7911069A79120450
:107E40000A4319790A43597909020A43810004ADAA
:107E500001304A5110330428EAD1002504AB5E59A1
:107E60000220002E05D0201C311CFFF751FF0028F6
:107E70000CD00435102DF1D135E100260123032863
:107E800000D134E1B04201D00D2330E1231C221C8B
:107E90003C331B783B3212781B02134380221BB207
:107EA00092009342F0D1231C221C47331B784632A8
:107EB00012781B02134311D1231C57331B781A0667
:107EC000231C56331B781B041343221C5432127894
:107ED0001343221C55321278120213430093009B65
:107EE000A361231C40331A78531EE270012BCBD8B8
:107EF000231C3D331978A1700029C5D04B1E1942AF
:107F0000C2D1231C42331F78013B1B783F021F4321
:107F100027813B07B8D1231C44331878013B1B78D9
:107F20000002184310D1231C53331878013B1B78EF
:107F300000061B041843231C50331B781843231CD2
:107F400051331B781B021843231C251C3F331B781D
:107F50003E352D781B021D43019595D0009B534360
:107F60000393039A3B095B199B18029398428BD3A6
:107F7000C01A07F0BDFB002886D05F4B0125984250
:107F800004D95E4D8542AD416D420235019B029A96
:107F90000230F31892196061E6612362A262032D38
:107FA00017D1002F00D06FE7231C5F331B788000B0
:107FB0001A06231C5E331B781B041343221C5C32FD
:107FC00012781343221C5D3212781202134363624B
:107FD0000FE0002F00D157E7039AD3186362022DF8
:107FE00001D1400005E003230122434310405B0818
:107FF0001818434BC018009B400A834200D243E745
:1080000001235B422361E36081336371032D61D1FE
:10801000231C221C61331B78603212781B0213432D
:10802000012B57D1711C201CFFF758FE002851D19D
:10803000344B6071344AE35CA25C1B021343334A45
:108040001BB2934246D1231C33331B781A06231CE0
:1080500032331B781B041343221C30321278134333
:10806000221C3132127812021343294A934231D131
:10807000284BE35C1A06284BE35C1B041343852260
:108080009200A25C1343254AA25C12021343244AC5
:1080900093421FD1234BE35C1A06234BE35C1B0482
:1080A000134386229200A25C1343204AA25C120270
:1080B000134323611E4BE35C1A061E4BE35C1B0457
:1080C000134387229200A25C13431B4AA25C120254
:1080D0001343E360074A2570938801339BB2938072
:1080E000E380002303E00123032800D0CCE6181C22
:1080F00009B0F0BD202B0020F50F0000F5FF0000B7
:10810000FF0100002F0200002E02000055AAFFFF11
:1081100052526141170200001602000015020000D1
:10812000727241611B0200001A0200001902000075
:108130001F0200001E0200001D02000043690239F8
:108140009A1E0023914203D28378826A59438B1886
:10815000181C7047F7B50124A14265D943699942BB
:1081600062D203780E1C051C022B2DD0032B3FD0AE
:10817000A34259D14F087F18036A790AC918FFF73B
:10818000ADFD002802D0012464424DE07B1CFF05B8
:10819000590A0193FF0D2B6AEF193037C918281CB3
:1081A0003F78FFF79BFD0028EDD1019BD805C00D5E
:1081B0002D1830352B781B021F43264201D03C0975
:1081C00032E03F053C0D2FE0036A090AC918FFF7AA
:1081D00085FD0028D7D1FF2376005B001E40AB1938
:1081E0003036AD1930336C781B7824021C431BE009
:1081F000036AC909C918FFF771FD0028C3D1FD3012
:10820000B600FF300640321C3032AA189478D3787A
:1082100024041B061C435378AE191B0230361C4342
:1082200033781C4324012409201CFEBDF8B5051C2D
:10823000E98084680E1C012C01D1022038E003681B
:108240005A699442F9D2002C0BD11A78032A02D130
:108250005A6A002A04D11A899642EED2586A17E067
:10826000141C211C9F783F01BE420DD32868FFF7E4
:1082700071FF011C431C1AD00128DED92B685B69F1
:108280009842DAD2F61BEFE728680C1CFFF756FF7E
:10829000EC600028D1D00F21330931401818490172
:1082A0002B683031591828616961002000E00120F5
:1082B000F8BDF7B5041C0E1C151C022001297DD940
:1082C000636999427AD22778874245D0032F57D0E5
:1082D000012F73D14B085B18590A0093236A201CA5
:1082E000C918FFF7FBFC002868D1009B3E40013312
:1082F0000193009BEAB2DB05DB0DE318002E08D0EA
:108300001A1C303211780F220A40E9B209010A43DF
:10831000D2B230331A7001232371019B201C590AF9
:10832000236AC918FFF7DAFC002847D1019BDB0557
:10833000DB0DE218002E02D02D09EDB208E0131C6F
:10834000303319780F232D0A99432B4019430D1C04
:10835000131C30331D702FE0236A090AC918201C32
:10836000FFF7BCFC002829D1FF2376005B001E40EC
:10837000A319303330361D70A6192D0A75701BE015
:10838000236AC909C918201CFFF7A8FC002815D1C9
:10839000FE23B6005B001E40331C3033E318DA784E
:1083A000A6191209120715432A0A303635705A7079
:1083B0002A0C2D0E9A70DD7001232371FEBD000082
:1083C000F8B5051C0E1E06D1C768002F13D04369EF
:1083D0009F4211D30FE0FFF7BDFE0124A04242D916
:1083E000431C02D1012464423DE06B69041C371C2C
:1083F000984201D237E001273C1C6B6901349C4252
:1084000004D3012F01D800242DE00224281C211CB4
:10841000FFF7A0FE002808D0431C01D0012801D19D
:10842000041C20E0BC42E8D1EDE7281C211C0F4AC7
:10843000FFF73FFF002813D1002E0AD12B69EC6013
:108440005A1C10D00122013B2B616B7913436B71D5
:1084500009E0281C311C221CFFF72BFF0028EDD05F
:108460000128BFD00124201CF8BDC046FFFFFF0F2C
:10847000F7B5C6880136B3B2002B01D104206AE0FB
:108480000369002BFAD00F2232400F1C041C01920A
:10849000002A58D1C168013303610068002903D163
:1084A00003899E42EAD24EE082783309013A1A42A9
:1084B00049D1FFF74FFE051E012D01D802204AE0E9
:1084C000431C01D1012046E0206843699D4234D31A
:1084D000002FD3D0E168FFF773FF051C0720002DA4
:1084E00039D0012DEAD06B1CECD02068FFF77AFB65
:1084F0000090031EE6D180222068191C30309200C3
:10850000FFF707FB2768291C381CFFF717FEF862E6
:10851000009F23689A7897420CD201221A71206832
:10852000FFF760FB0028CDD122680137D36A013301
:10853000D362EEE7DA6AD71BDF62E5602068291CA8
:10854000FFF7FCFD20610020019B22685B013033B6
:10855000D318E6806361FEBDF0B50B7885B0041CCE
:108560000D1C2F2B01D05C2B00D101350026A660FD
:108570002B781F2B06D8201C311CFFF757FE666195
:10858000D5E001352B782F2BFBD05C2BF9D0A669D9
:1085900020210B22301CFFF7BCFA002108230A1C03
:1085A00000910193009B01330293009BEB5C202B15
:1085B00043D92F2B41D05C2B3FD02E2B00D19BE0F9
:1085C0000198814200D395E058B2002801DA0320D7
:1085D00002437F2084469C4460466F46F873F87BD4
:1085E0001E2807D9202084469C446046F873F87BF7
:1085F0001C2819D800980230844602982F5C381C39
:1086000040383E2803D94038C0B27C2872D801983F
:10861000013881426ED273546346481C375402318C
:108620000293029B0093BDE700274248C05D0028EB
:108630006BD001379842F8D15CE0029820272D18C2
:1086400000209F4240418300002953D03178E52922
:1086500001D1E03931700199082901D19200D2B2DB
:1086600003211140012902D10F310B43DBB20C2150
:108670000A40042A02D104321343DBB2F372201CF5
:108680000021FFF7D3FD00281CD120682169FFF7E6
:1086900025FB002816D161690B78002B11D0082327
:1086A000CA7A1A4008D1A6698B5CB05C0132181AEC
:1086B00002D10B2AF8D105E0201C0021FFF7D8FEDB
:1086C000E1E70420A369DB7A002805D004282ED135
:1086D00003422CD101302AE05B0728D46169CB7AB0
:1086E000DB0605D523681878FFF749FAA06049E74B
:1086F00005201CE006201AE0019B082BFAD10B2371
:1087000092000199D2B201938BE71F1C413F192FB0
:1087100002D802273A4307E01F1C613F192F03D8F4
:108720000127203B3A43DBB27354013179E705B0AE
:10873000F0BDC0466D2C020038B50021051CFFF7C6
:1087400075FD041E10D128682969FFF7C7FA041EB9
:108750000AD16B691B78E52B0AD0002B08D0281CA6
:108760000121FFF785FEECE7042C14D1033412E05D
:1087700028682969FFF7B2FA041E0CD16869211C28
:108780002022FFF7C6F90B226869A969FFF7B8F93B
:1087900001222B681A71201C38BD70B5041C0D1EF7
:1087A000012D01D8022024E043699942FAD263697D
:1087B0009D4205D2201C291CFFF7CCFC061E01D1CE
:1087C000002016E00128EDD0431C11D0201C291CEC
:1087D0000022FFF76EFD00280BD123695A1C05D03B
:1087E000012201332361637913436371351CDEE792
:1087F000012070BD1FB5019003A8141C00910391C6
:10880000FFF78EF90B22002817DB0D4B8000C258B2
:10881000002A01D000211170019A002A01D0002104
:108820001170019919500A1E07D00022012C04D1A1
:1088300001A86946FFF7BEFA021C101C04B010BD67
:10884000202B0020F0B58FB0051C03910920002DCE
:1088500000D18CE0161C00231E222B60324007A89A
:1088600003A9FFF7A7FA002800D080E004AB07A80F
:1088700003990D93FFF770FE0C9C002802D1002C89
:1088800000D106301F271C2337401E4242D000284B
:108890000AD0042802D107A8FFF74EFF08230C9C3A
:1088A0001F43002807D062E01123E27A1A425DD10B
:1088B000082073075BD43B0736D54A230026237470
:1088C000043B6374079BA673E673E67226776677AC
:1088D000A677E6771878211C0193FFF750F901235A
:1088E000019AA676E6762675667502901371B042F7
:1088F0001AD0101C0299D66AFFF74FFF002836D114
:10890000029B0798013BC360311CFFF7E7F9002881
:108910000AD02CE000282AD1E37A0420DA0626D4F3
:10892000B20701D5DB0721D43B0701D520231F4324
:10893000079E211CF36AAF710027EB612C62EF7177
:108940003078FFF71CF92861E37F381C1A06A37FF3
:108950001B041343227F1343627FAF601202134351
:10896000EB60AF612E60F388AB8000E007200FB0B2
:10897000F0BDF0B51F1C002385B03B60051C0091C5
:10898000161CFFF7E5F8002800D08BE0E8790028F6
:1089900000D087E0AB790730DB0700D482E0EB68DA
:1089A000AA68341C9B1A9E423BD91C1C39E0AA6859
:1089B000D3055BD12868530A8678013E3340DBB289
:1089C0000193002B30D02B686969181C0293FFF7C4
:1089D000B5FB002831D0019B660AC3180393002E13
:1089E00042D0029B019A9B78B2189A4201D9019A0F
:1089F0009E1A029B00995878039A331C00F076FA6D
:108A000000281ED129680B79002B1FD17602009B0C
:108A1000A41B9B190093AB689B19AB603B689B1927
:108A20003B60002CC3D13CE0002A01D1286902E060
:108A30006969FFF78FFB012801D8022002E0431C7F
:108A400002D10120E8712DE06861BCE7CB6A039A8E
:108A5000981AB042DAD28022009B400218183031B6
:108A60009200FFF74DF8D1E7039BAB618022AB6822
:108A70009200DB05DB0DD31A261E9E4200D91E1C78
:108A80002868A969FFF72AF90028DAD1AB680098AD
:108A9000D905C90D2B6830315918321CFFF730F851
:108AA000B5E7201C05B0F0BDF0B51F1C002385B054
:108AB0003B60041C0191151CFFF74AF8002800D008
:108AC000B1E0E379181E00D0ADE0A279072092074B
:108AD00000D4A8E0A268A91891425B415B421D4006
:108AE000002D16D0A268D30570D12068530A817872
:108AF00001390B40DBB20293002B1FD1002A03D1B6
:108B0000216900290CD100E06169FFF759FC011EC1
:108B100006D1A368E268934200D87FE0E3607DE07D
:108B2000012901D1022002E04B1C02D10120E07199
:108B300079E023696161002B00D121612068A2697D
:108B4000C36A934203D1FFF74DF80028EED126689F
:108B50006169301CFFF7F2FA0028E3D0029BC318CA
:108B600003936B0A009323D0009A0299B3785218AA
:108B70009A4201D95B1A009370780199039A009B7D
:108B800000F0EEF9061ED1D12068039AC36A991A43
:108B9000009B994209D28022019B4902591830302A
:108BA0009200FEF7ADFF23681E71009B5E022AE073
:108BB000A368E268934207D3301CFFF713F800283C
:108BC000B4D12368039ADA62039BA3618022A3686D
:108BD0009200DB05DB0DD31A2E1E9E4200D91E1C0F
:108BE0002068A169FFF77AF800289FD1A368321C9A
:108BF000D805C00D2368303018180199FEF780FFA2
:108C0000012322681371019BAD1B9B190193A3687B
:108C10009B19A3603B689B193B6061E72022002001
:108C2000A3791343A37105B0F0BD38B5041CFEF75A
:108C30008FFF002830D12025A3792B422CD020682B
:108C4000E169FFF74BF8002826D1236ADA7A2A4334
:108C5000DA72227B1A77627B5A77E268120C9A7773
:108C6000E268120EDA77226998759A76110A120C68
:108C70001A75120A5A754A221A76043AD976D875A4
:108C80005A769874D874A3792268AB43A3710123F0
:108C900013712068FEF7B0FF38BD10B5041CFFF754
:108CA000C4FF002805D1201CFEF752FF002800D188
:108CB000206010BDF7B5041C0D1CFEF749FF00280D
:108CC00077D1E079002874D1E3689D4203D9A27975
:108CD000920700D41D1C0022A368A260954201D116
:108CE000002056E02768BE787602002B14D0013BA6
:108CF000311C681E009306F0FBFC311C01900098AB
:108D000006F0F6FC019B834206D3009A73421A4098
:108D1000A260AD1A616911E0216900290DD1381CEA
:108D2000FFF74EFB011E012901D1022002E0431C86
:108D300002D10120E0713CE0206161610029CFD0C7
:108D4000B5421AD9A37920689B0704D5FFF738FBF1
:108D5000011E03D110E0FFF7FDF9011C4B1CE8D008
:108D60000129E2D923685B699942DED2A368616177
:108D70009B19A360AD1BE3E7351CA3685B19A360D7
:108D8000EB05ADD02068FFF7D9F90028CDD06D0AEA
:108D90004019A368DA0503D0A269904200D0A0610F
:108DA000E2680020934204D92022E360A3791343B0
:108DB000A371FEBDFA239B00C046C046C046C04614
:108DC000C046C046C046C046C046C046C046C04673
:108DD000C046C046013B002BEED17047012300285E
:108DE00001D1024B1B78181C7047C046132000208D
:108DF00073B50324002872D10A3005F0BBF9FEF7E1
:108E000003FB073401AD013C281C0121E4B2FEF74D
:108E100025FB002CF6D1201C211CFEF7C1FB061EF1
:108E2000012E01D0002446E0D52108204900FEF79C
:108E3000B7FB012818D1281C0421FEF70FFBAB78E3
:108E4000012BEFD1EB78AA2BECD1FA24A4008021DE
:108E5000A920C905FEF7A4FB011E1ED0013CFFF7A7
:108E6000A9FF002CF3D1DDE7A920211CFEF798FB18
:108E7000012802D9351C341C01E0A9250224FA2658
:108E8000B600281C0021FEF78BFB00281DD0013EF8
:108E9000FFF790FF002EF4D1C4E73A20FEF780FBE5
:108EA0000028BFD1281C0421FEF7D8FA2B780C2407
:108EB0005B0600D404240B4B1C70604244410A4BF7
:108EC000E4B21C70FEF7FCFA09E080211020890052
:108ED000FEF766FB4342584140420440EBE7201C4A
:108EE00076BDC046262B00201320002070B51D1C27
:108EF00001230E1C191C002801D1174909780320F1
:108F0000194228D1154B1B781B0700D452020124AB
:108F1000AC42A44164421134201C111CFEF740FBFA
:108F2000002812D18021301C8900FEF7EFFA0028BA
:108F300005D08023013D9B00F618002DF2D1122CA4
:108F400003D10C200021FEF72BFBFEF7B9FA2B1CF6
:108F50005D1EAB41D8B270BD13200020262B00202F
:108F600070B51C1C0123161C0D1C1A1C002801D1F5
:108F70001F4A127803201A4238D11E4B1B781A0759
:108F800000D47602012C0CD11820311CFEF708FB0E
:108F9000002826D1281CFE21FEF7DCFA4442444179
:108FA0001FE00622134203D09720211CFEF7F8FA97
:108FB0001920311CFEF7F4FA002812D1281CFC21DC
:108FC000FEF7C8FA002805D08023013C9B00ED186D
:108FD000002CF3D10020FD21FEF7BCFA002800D1BF
:108FE0000124601E8441FEF76BFAE0B270BDC046FA
:108FF00013200020262B00200123F0B51C1C85B077
:10900000002801D12B4804781C400326002C4ED1A7
:10901000151C01290CD0002904D0B14243D1802372
:10902000136041E0FEF75AFA44424441E4B23BE0A7
:10903000211C0920FEF7B4FA041E01D0012433E0FC
:1090400068461021FEF762FA0028F7D06B466A46A0
:109050001878517A8009DB79127A012808D13E30DC
:1090600003401E04120201368A18B118890218E062
:109070009B009209D2186B469B79314033409B028A
:10908000D3186A4657790F2217406A46927A4E00E3
:10909000D0093A1802329119C9B2093901338B400B
:1090A000191C296000E00424FEF70AFA261C301C73
:1090B00005B0F0BD1320002008B5031C0A1C0649AA
:1090C0000878191C012302F06FFD002801D0002050
:1090D00000E0024808BDC046272B002001300000F8
:1090E00007B5074B400018706B46D81D822301213D
:1090F0000370FFF7E1FF002800D002480EBDC04614
:10910000272B002003300000F0B5161C1822071C86
:10911000424303202E4B85B09A18D36A039118401E
:1091200002280DD0111C2031936A49685B1A013B5B
:1091300001D5126A9B189E4202DD002845D01E1CF4
:109140000020864241D001901822101C7843204B09
:109150001818011C2031846A4968641A191C013CE2
:1091600001D5036AE4187A438A18101C136A203068
:109170000293536A029AD31A9C4201DB4468141B7F
:10918000B44200DD341C18231D1C781C43437D436E
:10919000CB184D196A6A586803998018221C08F088
:1091A00042FD019B361B1B190193039B029A1B195D
:1091B00003936B6A20351C196C606B68934201D174
:1091C00000236B60002EBFD1019805B0F0BDC046F2
:1091D0001420002010B50A1E06D00B1C1C785A1A49
:1091E000002C01D00133F9E7FFF78EFF10BD00001E
:1091F000002170B500781F4BCAB25C1865781C1C42
:10920000854200D1101C01310429F4D1421CD10047
:10921000635C012B08D161184B78002B01D1CB780E
:1092200000E000234B701EE0022B21D163189D78D3
:109230005978002D06D0DE780431B14208DB5E702B
:10924000002103E0042903DC01215D7099700AE02C
:10925000D300E31859780426002D00D1F836D30046
:109260007118E3185970D200A318597800F0C0FAA9
:1092700070BDC0468C200020F8B50023234CDDB221
:10928000E21852785F1C82423CD1061C002000F09C
:10929000CBFAFB00E318586803F060FD032D0DD0F6
:1092A000691C63185B7865196B704B1CCA00DB0086
:1092B000A218E31821CB21C2CDB2EFE7FF2300258E
:1092C0000121201C2371631CDD77A31CDD77E31CC7
:1092D000D977231DDD770E4A243003F0D1FC2378A3
:1092E000201C013B237000F07FF92B1C221C38321C
:1092F000995CB14202D1FF21D15406E00133042B25
:10930000F4D102E03B1E042BB8D1F8BD8C20002024
:10931000F1910100F0B5051CA5B0019103921E1C4E
:10932000FFF7AAFF2B1CA0220321C133FF33D20574
:109330009B0099500123AB40002739495350394CC9
:109340007A1CE3195B780292FF2B62D1012E04D1C3
:109350003220019B4343019308E06420019B584362
:10936000039B9908490006F053FA0190002000F091
:109370005BFA6A46E7197D702378127B013323700C
:10938000029BDB00E654E318DA700023221C38321B
:10939000995CDFB2FF2901D1D55403E00133042BDE
:1093A000F4D11F1C201C00F01FF9002804D0281C39
:1093B000FFF762FF1C4C30E0029B0199DB00E318D1
:1093C000CA0302934B0C00211848383480185941C5
:1093D000174A002306F04CFB029B011CE219586857
:1093E00003F074FC041EE2D12B1C1C3B012B02D8A1
:1093F0000120FEF721FA012000F016FA04A80D4919
:109400002A1C331C08F0D0FC04A90020FFF7E2FE60
:1094100003E0029F042F92D1074C201C25B0F0BD21
:109420000C0500008C20002005600000DC05000019
:10943000B80B0000B92C02000360000038B5094BDE
:109440001D1C2C331C1C0C35281C0121064A03F062
:1094500017FC002803D10835A542F5D100E00348E8
:1094600038BDC0468C200020F1910100046000004E
:1094700010B5041CFFF700FF0120FEF7DDF9231CE7
:10948000A02203210120C133FF33D2059B00995054
:10949000A123A040DB00D050002010BD10B5041C5B
:1094A000FFF7EAFE0020FEF7C7F90120231CA022E7
:1094B0000321A040C133FF33D2059B009950024BDA
:1094C000D050002010BDC0460C05000070B5041C33
:1094D0000E1C151CFFF7D0FE231CA0220321C13354
:1094E000FF33D2059B0099500123181CA04004496A
:1094F0005050311C2A1C201CFFF70CFF70BDC046C9
:109500000C05000070B5041C0E1C151CFFF7B4FE02
:10951000231CA0220321C133FF33D2059B009950A5
:109520000123A3400549201C53500A2171432A1CE2
:10953000C9B20223FFF7EEFE70BDC0460C05000065
:1095400045DF704747DF70474EDF704750DF704799
:1095500010B50C4B041C1B6899420AD800208C42A1
:109560000FD3094A1268D31A59188C4280414042DD
:1095700007E0CB1A01209C4203D300238C425B41BD
:10958000D8B210BDC82000203C2F002010B5041E0A
:109590000F2C06D8C0B2FFF7D5FF0120A040FFF77F
:1095A000CFFF10BD012230B5151CA123A0248D4092
:1095B000DB00E405E550094B8000C018A223084CED
:1095C000DB00C450C046C046C0460260054A0902DE
:1095D0001143C150C046C046C04630BD0060004087
:1095E000031F010003001300F7B50378041C013BBF
:1095F000032B00D9D7E0031C34331878052800D991
:10960000D1E0A222694FD200694B06F067F803054A
:10961000070C1012092107E009210BE00621B950BF
:10962000FA22920008E00321B950642204E00121EB
:1096300000E00021B950FF221A60A222D200BA58DD
:109640005C49895C5C4A116022785A60002301926F
:10965000019A934217D2E118554D4A78980008357F
:109660004251A0250326C132FF329200ED0556512A
:1096700000254F4A3031183285504D4A097828323A
:1096800099540133E4E7A12200230125D200FD60B3
:10969000BB50474A802611680420D162A922D2001B
:1096A000B9509446454AB600BB50454AB851136577
:1096B000D36493645364019A022A13D9414AD56052
:1096C000A125ED005351654651513C4953503E4947
:1096D00090510B65CB648B644B64A2233349DB0050
:1096E000C958D150019B002B2ED0314D374B283516
:1096F0002E783749B600F618231C28331878321C08
:10970000FFF744FF231C29331878321C3149FFF737
:109710003DFF0023264E30363370019B012B13D0C2
:109720006D782A4BAD00ED18231C2A3318782A498E
:109730002A1CFFF72BFF231C2B33187825492A1CE2
:10974000FFF724FF0023737002252C34019B9D42F8
:1097500018D2174B20782833EE5C1C4BB600F61855
:109760001E4B321CE9188900FFF710FF6078321C8D
:109770001B49FFF70BFF00220D4B02343033EA5434
:109780000135E3E71748FFF7DFFE0123164A002003
:109790001360074A3B605268022A06D9134A1360D5
:1097A000084A136001E001204042FEBD00A00040D5
:1097B0003C2F0020D82C0200C82000200405000007
:1097C000FCA0004000900040FC9000400060004081
:1097D00040A1004048A1004044A100404E24001098
:1097E00048910040BD9A01000CAC00400C9C004028
:1097F0001FB50B4B82009A185163012230331A5463
:1098000000236A4613701371FA2202926A4653715A
:10981000044B68460393FFF799FE05B000BDC046B0
:109820003C2F0020A086010070B517490123174A7C
:10983000002806D00B605268022A24D9144A13600B
:1098400021E04B605068022801D911494B60002388
:10985000834218D0111C2831595C0E4D45310E4CF5
:10986000FF3189000D51111C9C0008316558012100
:10987000A026A940094DF6057151111C002518318B
:1098800065500133E4E770BD00A000403C2F00208C
:1098900000900040001F0300006000400C05000025
:1098A000A922F0B57E4C7F49E36AD20023608B5039
:1098B000606885B00291022801D97B498B50002352
:1098C0006364666C63689E4200D3E6E0231C303319
:1098D0009A5D002A00D1DDE00022B50065199A5595
:1098E0006B6B0193934212D1231C28339B5D6F490C
:1098F00045336F4AFF339B0099500123AA68A0218A
:1099000093406C4AC9058B50019BAB61C2E0019B3F
:1099100021688B4212D3231C28339B5D6348453357
:109920006349FF339B0058500123A968A0208B4056
:10993000A121C005C9004350AA61ABE0019BA3640B
:10994000012E54D8331C5133FF33029A9B00D35855
:10995000544F0393E364AB69002B18D1231C2833C5
:109960009E5DA968301CFFF71DFE0123524AAB61C2
:10997000FB64BA5801998A4231D94D4AB600B350B6
:109980002DE078590199FFF7E3FD00280CD1012360
:10999000029A494DD364029B03995859414FFFF7EE
:1099A000D7FD0028F3D0ECE77B59039A934203D309
:1099B0007B59019A93420BD33F4A029B9B58039ACF
:1099C00093420CD2374A3C4BD358019A934206D368
:1099D000231C012128339B5D354A9B009950636C01
:1099E000029A5133FF33A16C9B00D15052E0331CDB
:1099F0004F332D4FFF339B00DB590393E364AB6977
:109A0000002B19D1231C28339E5DA968301CFFF759
:109A1000C9FD0123284AAB61FB64BA5801998A4207
:109A200032D9234AB600B3502EE01F4B0199585942
:109A3000FFF78EFD00280BD101231B4A1E4DD36476
:109A4000131C03995859FFF783FD0028F4D0ECE765
:109A5000154B039A5B59934204D3134B019A5B59FC
:109A600093420AD3144B039AFB5893420CD20E4AEA
:109A7000114BD358019A934206D3231C012128335A
:109A80009B5D0B4A9B009950636CA26C4F33FF3374
:109A90009B00FA50636C013312E705B0F0BDC0467D
:109AA0003C2F002000A0004000900040001F030059
:109AB000006000400C0500004C050000064B022130
:109AC0001A1C503210B511701C1C002801D1FFF770
:109AD000E7FE201C503010BD3C2F0020F7B56B4630
:109AE000141C0122184F0D1CD91D08703878131C46
:109AF0004000C0B202F058F8061E01D13C210CE033
:109B000001233878E2B240001843C0B2291C02F0A9
:109B10004BF80423061E04D142210C4A01F0DEFC5E
:109B200010E0C046C046C046C046C046C046C0461B
:109B3000C046C046C046C046C046C046C046013BBF
:109B4000002BEED1301CFEBD20370020E22C02009D
:109B500008B50122FFF7C2FF08BD000098B5131C2D
:109B60006C460833DB08DB00E31A00AF18709D4633
:109B70000020904204DA0130441E0C5D1C54F8E7CA
:109B8000094901320878D2B24000191CC0B2012341
:109B900002F00AF8041E03D18621044A01F09EFC5B
:109BA000BD46201C98BDC04620370020E22C020094
:109BB00007B56B46D9710733191C0122FFF7CEFF99
:109BC0000EBDF0B585B0019302ABDD1D00230C1C6A
:109BD000291C061C171C2B70FFF7BAFF002810D099
:109BE0000121B940E41B019B01340139A340A1408C
:109BF0002F78DCB28F4321403943301C2970FFF7A6
:109C0000D7FF05B0F0BD08B5131C0122FFF7D9FF3F
:109C100008BD08B56B2007210122FFF7F4FF08BD3E
:109C200008B5021C04216B20FFF7EDFF08BD08B545
:109C3000021C05216B20FFF7E6FF08BD08B50021D7
:109C4000031C04221E20FFF7BCFF08BD08B5021C40
:109C500005216C20FFF7D7FF08BD08B5021C0421C1
:109C60006C20FFF7D0FF08BD08B5021C03216C2053
:109C7000FFF7C9FF08BD08B5021C02216C20FFF7E1
:109C8000C2FF08BD08B5021C01216C20FFF7BBFF15
:109C900008BD08B5021C00216C20FFF7B4FF08BD09
:109CA00008B50221031C03221D20FFF78AFF08BD0F
:109CB00008B5021C03211D20FFF7A5FF08BD08B54C
:109CC00038204021FFF774FF08BD08B51F200F2181
:109CD000FFF76EFF08BD000008B5184B1870FFF7BE
:109CE00098FF142004F046FA0020FFF7A0FF0020A0
:109CF000FFF796FF0020FFF7A9FF0020FFF7ADFF59
:109D00000020FFF7B1FF0120FFF7B5FF0120FFF7AB
:109D1000B9FF0120FFF7BDFF0120FFF7C9FF0120B8
:109D2000FFF7BEFFFFF7CBFFFFF7CFFF0320FFF7E3
:109D300085FF0120FFF77BFF08BDC04620370020CC
:109D4000F0B585B000AF7A60F973002B0CD1012219
:109D50000F334000F918C0B2131C01F025FF012396
:109D600058404042C0B224E069466C465B00B9608E
:109D7000D91DC908C900611A8D460024FE7B9C428A
:109D80000BDA6508AA190A550A1994467A6802344A
:109D9000555D6246E4B25570F1E74000DAB2C0B2F8
:109DA000012301F001FF01235840BB6840429D465A
:109DB000C0B2BD4640B205B0F0BD08B504F0DAF956
:109DC00008BDF8B5161C00221D1C131C041CFFF74F
:109DD000B7FF00281DD1012764003C433B1CE0B2C3
:109DE000311C2A1C01F0E0FE042378404042C0B23E
:109DF000C046C046C046C046C046C046C046C04633
:109E0000C046C046C046C046C046C046013B002BC7
:109E1000EED140B2F8BD0000002373B501AC237051
:109E20006370A3700C4B1A688123002A12D0131C94
:109E30002933051C566B1878221C0323FA21B047DE
:109E400063781A0123781B031343A2781209134382
:109E50002B60031C58B276BD942F002010B50D4B1B
:109E600002111968C0100C88121B6400001B022428
:109E70000B5F5843131C534304240A5F1B135343C3
:109E8000C0129B13C31805205843803000124B6248
:109E900010BDC046942F0020002373B501AC237081
:109EA0006370A3700C4B1A688123002A12D0131C14
:109EB0002933051C566B1878221C0323F721B04761
:109EC00063781A0123781B031343A2781209134302
:109ED0002B60031C58B276BD942F002070B5274B21
:109EE000274A1C684042636A5B109B1899104943DB
:109EF0001025625FCE1256430E25625F49135A4306
:109F0000550072190A26A55F921069430826A55FBD
:109F1000C9106B435B10CB1880219B1409025B189E
:109F2000E18859430C25635FC9131B04D21812132F
:109F3000144B801A5843144B0025C01805D4A9426D
:109F40001AD0400005F0D4FB04E0A94214D005F07B
:109F5000CFFB4000C3085B431621625E5B0B53439B
:109F60001421625E850855431B136D131221625E36
:109F70005B199B181B11C518281C70BD942F00205D
:109F80000006FFFF350C0000000050C3002373B52E
:109F900001AC237063700B4B1A688123002A0ED02A
:109FA000131C2933051C566B1878221C0223FD2133
:109FB000B047237862781B0213432B60031C58B20E
:109FC00076BDC046942F0020F0B51D4B1D4A1D687C
:109FD00086036B6A1F219F181E23EA5E287F1205E5
:109FE000B41A2023EA5E80237A43DB01A21AD21836
:109FF000EB1C5956802378431B02C012C0188023E3
:10A000007943891241439B038912C9181A23EC5ED4
:10A01000802361439B01CB189B13D2135A43D31364
:10A020005B43287EDB1143431B11D31AD843C8225C
:10A03000C01703405205934200DD131C1813F0BDF6
:10A04000942F002000D4FEFFF0B589B001AC201C95
:10A0500000211A2207F0F0FD3F4D81202B68002BD4
:10A0600000D175E01A1C29325E6B10788821221C01
:10A070001A23B047627821782B6812020A431A80AB
:10A080000322A256A17812020A435A800522A25640
:10A09000217912020A439A80E279A17912020A43D5
:10A0A000DA800922A256217A12020A431A810B226F
:10A0B000A256A17A12020A435A810D22A256217B8E
:10A0C00012020A439A810F22A256A17B12020A436E
:10A0D000DA811122A256217C12020A431A8213222B
:10A0E000A256A17C12020A435A821522A256217D51
:10A0F00012020A439A821722A256A17D12020A4333
:10A10000DA82627E061C1A761A1C293210785F6B7E
:10A11000E121221C0723B8470122A256217812020E
:10A120000A4303212B6880195A83A278C0B21A7798
:10A13000615622790D010F2111402943D983052150
:10A140006156120909010A431A84A2790333DA77A6
:10A1500040B209B0F0BDC046942F002073B56A46E6
:10A16000D51D00222A70021C031C094E29323060C2
:10A170005C6BD021107801232A1CA04733682A7811
:10A1800028331A70041CFFF75FFF001940B276BD38
:10A19000942F002073B56B46DD1D00232B700A4BF6
:10A1A0001A688123002A0DD0131C2933041C566B16
:10A1B00018782A1C0123F421B04703232A7813407E
:10A1C0002370031C58B276BD942F002013B56B4644
:10A1D000DA1DB6231370074B81201B68002B06D0B5
:10A1E000191C293108781C6BE0210123A04740B2DB
:10A1F00016BDC046942F002038B5084B041C1D68BE
:10A200008120002D07D0281C2930131C00780A1C3F
:10A21000211C2C6BA04740B238BDC046942F0020B3
:10A2200038B5084B041C1D688120002D07D0281C60
:10A230002930131C00780A1C211C6C6BA04740B20B
:10A2400038BDC046942F00200023F0B5364C85B0B1
:10A2500002AA571D5371961D9371D371226803ADE5
:10A2600001902B7081209A425BD0019B2E325901C4
:10A2700013781F221A400B1C381C13432B70FFF756
:10A2800089FF3B78002B1ED0FFF7A0FF2368032037
:10A290009B6B9847236802AA2F331B78D11DD3717B
:10A2A000F5200122FFF7A8FF2368311C2D331B780E
:10A2B0000122F2203370FFF79FFF291C0122F420B6
:10A2C000FFF79AFF08E02368F4211A1C293210785E
:10A2D0001E6B2A1C0123B0476A46236812792A3371
:10A2E0001A70291C0122F420FFF79AFF23682A78AC
:10A2F0002E33061C1A70291C0122F220FFF790FF52
:10A3000023682A782D3380191A70C6B20122F520ED
:10A31000291CFFF785FF23682A7830182F331A701D
:10A32000C0B240B205B0F0BD942F00200023F0B5BC
:10A33000374C85B002AA571D5371961D9371D37186
:10A34000226803AD01902B7081209A425CD0019B62
:10A3500065389B000340191C2E32137883430B434E
:10A36000381C2B70FFF716FF3B78002B1ED0FFF731
:10A370002DFF236803209B6B9847236802AA2F3385
:10A380001B78D11DD371F5200122FFF735FF23681B
:10A39000311C2D331B780122F2203370FFF72CFF84
:10A3A000291C0122F420FFF727FF08E02368F4218D
:10A3B0001A1C293210781E6B2A1C0123B0476A46EA
:10A3C000236812792B331A70291C0122F420FFF71D
:10A3D00027FF23682A782E33061C1A70291C0122B5
:10A3E000F220FFF71DFF23682A782D3380191A7099
:10A3F000C6B20122F520291CFFF712FF23682A7834
:10A4000030182F331A70C0B240B205B0F0BDC0464C
:10A41000942F00200023F0B5434C85B002AA551DAF
:10A420009371D71DD371226803AE009033702B70E7
:10A4300081209A4275D02D32137800997A380140E4
:10A4400083430B43381C3370FFF7A4FE3B78019025
:10A45000002B27D0FFF7BAFE2368071C9B6B032055
:10A460009847236802AA2F331B78911D9371F5201A
:10A470000122FFF7C1FE019B311C3F180122F2208F
:10A48000FF18FFF7B9FE2368FFB22E331B783F1881
:10A49000291CF42001222B70FFF7AEFEFFB23F18FB
:10A4A000FEB216E02368F2211A1C293210781F6BC5
:10A4B000321C0123B8472368061C2E331B78F42076
:10A4C000291C01222B70FFF797FE019B3618F61806
:10A4D000F6B26A46144C1278236803AD2C331A7016
:10A4E000291C0122F420FFF79BFE23682A782E33D3
:10A4F0001A708619291C0122F220FFF791FE2368A9
:10A500002A78F6B22D3330181A70C6B20122F5201F
:10A51000291CFFF785FE23682A7830182F331A701C
:10A52000C0B240B205B0F0BD942F0020F7B56B4625
:10A530006A46DE1C0023334C53719371D51D22688B
:10A5400001AF33703B702B708133002A57D07D33BD
:10A55000032854D82E3213780322934318433070C3
:10A56000381CFFF717FE3B78002B1FD0FFF72EFE9D
:10A57000236803209B6B98476A462368911D2F33FD
:10A580001B78F52093710122FFF736FE6A46236897
:10A59000511D2D331B78F22053710122FFF72CFE41
:10A5A000311C0122F420FFF727FE08E02368F42184
:10A5B0001A1C293210781F6B321C0123B847291C42
:10A5C0000122F420FFF72CFE23682A782E331A701C
:10A5D000061C291C0122F220FFF722FE23682A789C
:10A5E0002D331A708619291C0122F520FFF718FE59
:10A5F0002268F6B2297833182F321170DBB258B2C4
:10A60000FEBDC046942F00200023F0B5394D85B023
:10A6100002AA53719371D371971DD61D2A6803AC9A
:10A6200023708133002A62D01C212F3213788000DE
:10A630008B43084018432070381CFFF7ABFD3B7874
:10A640000190002B27D0FFF7C1FD2B68071C9B6BE7
:10A6500003209847211C0122F520FFF7CDFD019B27
:10A660003F18FF182B68311C2D331B780122F22074
:10A670003370FFF7C1FD2B6802AA2E331B78FFB29F
:10A680003F185371511DF4200122FFF7B5FDFFB2B1
:10A690003F18FFB209E02B68F5211A1C2932107807
:10A6A0001D6B221C0123A847071C211C0122F4203A
:10A6B000FFF7B6FD0F4D22782B68C7192E331A709D
:10A6C000211C0122F220FFF7ABFD2B6822782D33ED
:10A6D000FFB21A703F18211C0122F520FFF7A0FDE0
:10A6E0002A68FFB221783B182F321170DBB258B2C2
:10A6F00005B0F0BD942F002008B5174A174B1A6318
:10A70000174A5A631A1C29321070164A181C9A6389
:10A71000FFF724FD002801D013481BE00320FFF7BA
:10A7200005FF0028F8D1FFF76FFF0028F4D10130B2
:10A73000FFF770FE0028EFD10130FFF7F7FD00288A
:10A74000EAD10130FFF780FD0028E5D1FFF7EEFEEA
:10A750000028E1D108BDC046419D010024370020FA
:10A76000C39D0100BB9D010003200000002313B521
:10A77000041C036001A80193FFF74EFB00280AD1D7
:10A780000198FFF76BFB20600120FFF7CFFE002848
:10A7900002D0024800E0024816BDC0460120000079
:10A7A00002200000002313B5041C036001A80193DC
:10A7B000FFF772FB00280AD10198FFF78FFB20609A
:10A7C0000120FFF7B3FE002802D0024800E0024853
:10A7D00016BDC0460120000002200000002313B572
:10A7E000041C036001A80193FFF7D0FB00280AD1E5
:10A7F0000198FFF7E9FB20600120FFF797FE002892
:10A8000002D0024800E0024816BDC0460120000008
:10A8100002200000A02370B5DB050324234D00288F
:10A8200030D1234E9C510C3E9C51224E9851EC202D
:10A83000C0001C50A12419261F48E4000651033E05
:10A840004651A2250136ED00465180256D041D516B
:10A8500080241A4B0139E405C9B2C45000230229EF
:10A8600001D8174B5B5C1749002A01D00122134322
:10A870004350031C0022FC33DA60A0230132DB00CA
:10A88000C25070BDEF200026C0001C501C501E504E
:10A89000A1261C501E240C48F60084514451A225C8
:10A8A000ED0044518024E4059C51D1E70C050000E3
:10A8B000640700005C070000003000402405000031
:10A8C000362D02005405000000400040F7B51D4C35
:10A8D000009101931821A04200D006310125A02447
:10A8E0008D401949E405655000210E1C009B8CB277
:10A8F0009C4220D2575C154C0751071CFC37FC6862
:10A90000002C0BD0C02300249B019E420BD1A1231D
:10A91000A022DB00D205D550201C12E00C4CA64230
:10A92000F0D80136E9E7FC60A324E4000459019B58
:10A930005C540131DAE7A123A0220120DB00D2051B
:10A94000D550FEBD003000400C0500001C05000085
:10A95000FF2F0000A0DF7047A2DF7047A4DF704721
:10A96000A6DF704763DF7047F0B50B68041C036017
:10A9700001235B4203810A7903778272FF22837786
:10A980004277C3774879621CD077313213705370A5
:10A990009370D37088799375D3751376537610714D
:10A9A000C879163210719375D37513765376231CBC
:10A9B0000A7A62331A70221CADB074322833FF2039
:10A9C000107001329A42FAD14A7A251C1A70221C60
:10A9D000A8359C32FF2010700132AA42FAD18A7A3F
:10A9E00010261A70221CBA3210705070CA7A1CA835
:10A9F0001A70F049321C07F016F9A11D1CA8FFF7C8
:10AA0000B1FF002800D05FE2A3791AA98B708923D7
:10AA1000221D5B0101300B80FFF79CFF031E00D05D
:10AA200052E2A57A002D07D0311C013317AA194331
:10AA3000013311705170937025AE00211C22301C1F
:10AA400007F0FAF8012102222940681E8541090118
:10AA5000114331706D4217A929407161002116A878
:10AA600001811023012016AD184328720320A8721B
:10AA7000023818432873012003436B73AA7320AD77
:10AA80001232281C07F0D8F8A3791BAFBB70CA4B51
:10AA9000311C3B8018AB6B6004232B810423AB81FA
:10AAA000231C1C332B610193A088103B2A1C209788
:10AAB0000293FFF751FF002800D005E2A379082296
:10AAC000BB70BE4B68813B8019AB6B6001232B814F
:10AAD0000123AB81231C20332B613378311C1343BA
:10AAE000043A13433370231CA08814332A1C209784
:10AAF0000393FFF731FF002800D0E5E1A379082296
:10AB0000BB70AF4B2F603B8018AB6B6004232B8175
:10AB10000423AB81231C32332B6104933378688187
:10AB20009343043A93433370231CA0882233311C8F
:10AB30002A1C0593FFF710FF002800D0C4E1A37979
:10AB40000822BB709F4B2F603B8019AB6B600123C9
:10AB50002B810123AB81231C36332B613378688131
:10AB60001343043A13433370231CA0882A33311C47
:10AB70002A1C0693FFF7F0FE002800D0A4E1A37979
:10AB80000822BB70904B2F603B8018AB6B60042396
:10AB90002B810423AB81231C48332B61079333782B
:10ABA00068819343043A93433370231CA08838335D
:10ABB000311C2A1C0893FFF7CFFE002800D083E148
:10ABC000A3790822BB70814B2F603B8019AB6B606F
:10ABD00001232B810123AB81231C4C332B61337860
:10ABE00068811343043A13433370231CA088403315
:10ABF000311C2A1C0993FFF7AFFE002800D063E147
:10AC0000A3790822BB70724B2F603B8018AB6B603E
:10AC100004232B810423AB81231C5E332B610A9315
:10AC2000337868819343043A93433370231CA0889C
:10AC30004E33311C2A1C0B93FFF78EFE002800D0E8
:10AC400042E1A3790822BB708A235B013B8019ABE8
:10AC50006B6001232B810123AB81231C62332B61A9
:10AC600033782F601343043A13433370231C6881F5
:10AC70005633A088311C2A1C0C93FFF76DFE002868
:10AC800000D021E1A3790822BB70524B2F603B809A
:10AC900018AB6B6016232B81AB81231C74332B61A3
:10ACA0000D93337868819343043A93433370231CA4
:10ACB000A0886433311C2A1C0E93FFF74DFE002838
:10ACC00000D001E1A3790822BB70434B2F603B8089
:10ACD00019AB6B6001232B810123AB81231C8A33C9
:10ACE0002B61337868811343043A13433370231C78
:10ACF000A0886C33311C2A1C0F93FFF72DFE00280F
:10AD000000D0E1E0A3791BAFBB70344B20AD3B809A
:10AD100018AB6B6008232B8100236B810833AB8158
:10AD2000231C08229C3325AE2B6110933378311CF1
:10AD30009343043A93433370231CA0888C332A1C1A
:10AD400020971193FFF708FE002800D0BCE0A379FC
:10AD50000822BB70224B68813B8019AB6B600C23CF
:10AD60002B81AB81231CA8332B613378311C134317
:10AD7000043A13433370231CA08894332A1C209771
:10AD80001293FFF7E9FD002800D09DE0A379082287
:10AD9000BB70144B2F603B8018AB6B6002232B8180
:10ADA0000223AB81231CBA332B6113933378688160
:10ADB0001AE0C046392D02003311000034110000A2
:10ADC0003511000036110000371100003811000065
:10ADD000391100004311000044110000451100002A
:10ADE00046110000471100009343043A9343337027
:10ADF000231CA088AA33311C2A1C1493FFF7ACFD36
:10AE0000002861D1A3790822BB70304B2F603B80B2
:10AE100019AB6B60231CBC332B61337801271343C0
:10AE2000043A13433370231C2F816881AF81B233FE
:10AE3000A088311C2A1C1593FFF78EFD002843D1F2
:10AE40000221234B029A18705A60039A1F749A6069
:10AE5000019ADA60059A5A61069A9A61049ADA614F
:10AE6000DA19D177089A03215A62099A9A62079AE5
:10AE7000DA621A1C303211700B9AC9195A630C9A93
:10AE80009A630A9ADA631A1C403211701A1C05215F
:10AE9000503211700E9AC9195A650F9A9A650D9A17
:10AEA000DA651A1C60321170119AC9195A66129A21
:10AEB0009A66109ADA661A1C70321170149A5A67E0
:10AEC000159A9A67139ADA672DB0F0BD4811000001
:10AED000982F0020F0B50D1C041C002189B02048DB
:10AEE0000E01375C01909F4234D102ABDA8000231F
:10AEF000934209DAEF5C0198BC460F01C71960461E
:10AF0000FF68F8540133F3E7019B00219819476863
:10AF100002AB9A1D38882B1CFFF720FD011E1DD1A6
:10AF20002689104B08309E4218D0A37A002B15D0EA
:10AF300004AC201C102206F07FFE3B88301C2380CE
:10AF40000123A37002AB0633211CA360E560FFF769
:10AF500007FD03E001310829C1D1052009B0F0BD8A
:10AF6000982F0020FFFF0000F0B5051C3F48B1B04E
:10AF70000778002F67D13E4C0122211CFDF73AFCD7
:10AF8000061C10A8002E59D13A4906F02FFF10A92F
:10AF9000301CFEF71FF907A837490122FDF752FCC4
:10AFA00000280FD010A8354906F020FF301C57E0CC
:10AFB000281C01A916220523FFF78CFFFA20800028
:10AFC00003F0D8F86B4601A9162207A8FDF7D1FCBB
:10AFD0002B49009A10A806F0E7FE002010A9FEF702
:10AFE000F9F8009E152EE3D8264F002E0BD001A9AC
:10AFF00016220523281CFFF76DFF10A8391C06F048
:10B00000F5FE00200EE0204901A806F0EFFE01A9A0
:10B0100016220523281CFFF75DFF10A8391C06F037
:10B02000E5FE301C10A9FEF7D5F807A8FDF735FEA0
:10B03000211C01220020FDF7DDFB0CE0134906F086
:10B04000D5FE381C04E010A8114906F0CFFE002000
:10B0500010A9FEF7BFF810A80E4906F0C7FE0020A1
:10B0600010A9FEF7B7F8002031B0F0BDC4340020BD
:10B07000D02A0200492D02005B2D0200642D02003F
:10B08000742D0200812D0200982D0200AC2D0200CB
:10B09000BE2D0200CE2D020030B585B06B46041CDB
:10B0A0000733101C0E22197001216A4411800728F1
:10B0B00036D804F013FB0409131A3520352E1878FE
:10B0C000611CC877A08A04E0211C1878363108700A
:10B0D000608D0021FFF742FC051C22E0211C18783E
:10B0E0004C3108700234E08FF3E7211C187862318C
:10B0F0000870563412E0211C18788A3108701E3905
:10B1000008880021FFF72AFC051C201CFFF72CFFF4
:10B1100007E0211C1878BC310870B2342088D8E7C9
:10B120000025281C05B030BD00B5A1B0FBF7BAFB67
:10B13000FBF7ACFB0549021C684606F035FE694684
:10B140000020FEF747F821B000BDC046DA2D02000E
:10B15000F0B5A5B0131C6A460824023214800027FB
:10B16000062B3DD1031C0C78A8331C7000240D5D08
:10B1700002ABE5540134082CF9D1251C0F5D01AE5A
:10B18000083D013477550C2CF7D10C1C011C94316F
:10B19000051C08880021FFF7E1FB3278737812065E
:10B1A0001B04D218B378F6781B02D3189E19321CF0
:10B1B0000D49071C04A806F0F7FD04A90020FEF7BE
:10B1C00009F8301CFBF768FB084B09491868002296
:10B1D00001F07CFD281C211C08220623FFF77AFEC3
:10B1E000381C25B0F0BDC046F22D0200BC33002053
:10B1F000AB2A000073B50B88112B06D0502B08D05A
:10B20000102B00D0AAE08B8801E001235B42038170
:10B21000A4E0CA88838A0D1C041C8E1D9A4210D19A
:10B22000338B012B0DD10368002B0AD06B46002213
:10B2300001911A70B17EFFF72FFF201C6946236829
:10B240009847EA88638D9A4210D1328B012A0DD13A
:10B250002368002B0AD06B4601951A70B17E201C22
:10B26000FFF71AFF201C694623689847A31CEA8849
:10B27000DB8F9A4211D1338B012B0ED12368002B27
:10B280000BD06B46022201951A70B17E201CFFF78D
:10B2900003FF201C694623689847231C5633EA881D
:10B2A0001B889A4211D1338B012B0ED12368002BBE
:10B2B0000BD06B46032201951A70B17E201CFFF75C
:10B2C000EBFE201C694623689847231C6C33EA88F0
:10B2D0001B889A4211D1338B012B0ED12368002B8E
:10B2E0000BD06B46052201951A70B17E201CFFF72A
:10B2F000D3FE201C694623689847231C9433EA88B0
:10B300001B889A4212D1338B0C2B0FD12368002B50
:10B310000CD0291C6B4606222031201C1A70019586
:10B32000FFF716FF201C694623689847231CB23399
:10B33000EA881B889A4211D1338B012B0ED12368E6
:10B34000002B0BD06B46072201951A70B17E201C92
:10B35000FFF7A2FE2368201C6946984773BD73DF80
:10B36000704740DF7047000000B5A1B0FAF7F0FE6B
:10B3700068464B4906F03AFD69460020FDF72AFF72
:10B38000FAF716FF6846474906F030FD6946002087
:10B39000FDF720FFFAF720FF6846434906F026FD37
:10B3A00069460020FDF716FFFBF7E4F968463F49C0
:10B3B00006F01CFD69460020FDF70CFFFAF75CFF64
:10B3C00068463B4906F012FD69460020FDF702FF82
:10B3D000FAF78EFF6846374906F008FD69460020F7
:10B3E000FDF7F8FEFAF7D0FF6846334906F0FEFC99
:10B3F00069460020FDF7EEFEFAF7D8FF68462F49B0
:10B4000006F0F4FC69460020FDF7E4FEFBF70EF8B9
:10B4100068462B4906F0EAFC69460020FDF7DAFE93
:10B42000FBF732F86846274906F0E0FC6946002041
:10B43000FDF7D0FEFBF772F86846234906F0D6FC0C
:10B4400069460020FDF7C6FEFBF78EF868461F49E7
:10B4500006F0CCFC69460020FDF7BCFEFBF7AEF819
:10B4600068461B4906F0C2FC69460020FDF7B2FEA3
:10B47000FBF7F2F86846174906F0B8FC6946002069
:10B48000FDF7A8FEA0228021134BD2054905D1501B
:10B4900080218905D1500020FCF780F921B000BD42
:10B4A0000A2E02001B2E0200262E0200332E02005E
:10B4B000472E0200542E0200642E0200792E020054
:10B4C0008A2E0200A42E0200B32E0200C52E020016
:10B4D000D72E0200EA2E02000C05000070B5051CF4
:10B4E0000C1C161CA2B0231C2A1C1D4902A806F025
:10B4F0005BFC02A90020FDF76DFE321C194902A871
:10B5000006F052FC02A90020FDF764FE231C009601
:10B5100002A815492A1C06F047FC14480378002BA2
:10B5200014D1134C0122211CFDF764F9051E15D11D
:10B5300002A806F063FC02A9021C0E4800F020FAE3
:10B54000281C211C0122FDF755F907E002A806F08E
:10B5500055FC02A9021C074800F012FA22B070BD87
:10B56000FD2E02004A2F0200242F0200C4340020C6
:10B57000D02A02004E2F020000B5A1B0684609494A
:10B5800006F034FC69460020FDF724FE064802F070
:10B59000F1FDBFF34F8F054A054BDA60BFF34F8FC4
:10B5A000FEE7C0465A2F0200881300000400FA0587
:10B5B00000ED00E0031C00B50A1CA1B0191C0B48EB
:10B5C000FFF78CFF68460A4906F010FC6946002028
:10B5D000FDF700FE074802F0CDFDBFF34F8F064A8E
:10B5E000064BDA60BFF34F8FFEE7C046EFBEADDE1D
:10B5F000842F0200881300000400FA0500ED00E02B
:10B6000008B55121014AFFF769FF08BDBD2F0200AF
:10B6100010B50478A0B0002C07D10549684606F0A3
:10B62000E5FB201C6946FDF7D5FD20B010BDC046E6
:10B63000C72F020010B5A6B001ACFAF76FFF201CAF
:10B640000021142206F0F8FAA023201C2382FFF721
:10B6500086FE041E04D07721094AFFF73FFF0CE065
:10B66000084906A806F0C2FB06A9201CFDF7B2FD9A
:10B670001D200A21FF22FDF729FF26B010BDC0467C
:10B68000BD2F02000830020010B5041C0088A0B0D5
:10B69000103809283AD804F021F80517313939391A
:10B6A000393939281A49684606F0A0FB6946002056
:10B6B000FDF790FD1D20FDF7F1FE1D20FDF7D8FEE2
:10B6C000A288144B1A8021E06846134906F08EFBCD
:10B6D00069460020FDF77EFD1D20FDF7DFFE0020FE
:10B6E000FCF7AAF8FFF7A6FF10E0A479002C0DD113
:10B6F00068460A4906F07AFB201C04E068460849BF
:10B7000006F074FB00206946FDF764FD20B010BD13
:10B7100019300200CC200020323002004E300200EE
:10B720007330020008B5002A04D0101CF721024A29
:10B73000FFF7D4FE002008BDBD2F020010B5041C89
:10B7400002F038FA201CFFF79FFF201C00F068FF72
:10B750000248211CFFF74EFD10BDC046C03300203B
:10B7600008B501F0EBFC08BD10B50C1CA0B03E49BB
:10B77000684606F03BFB69460020FDF72BFDFBF712
:10B7800067F82078072865D803F0A8FF04153C2A3D
:10B79000644D5359354B36490133DA7F684606F01C
:10B7A00003FB69460020FDF715FDFBF76BFC9A21B2
:10B7B00000284FD024E02D4B2E4936331A786846A6
:10B7C00006F0F2FA69460020FDF704FDFBF78CF85D
:10B7D00000283FD03C21FF31274AFFF77FFE39E0A8
:10B7E000224B264962331A78684606F0DDFA69462C
:10B7F0000020FDF7EFFCFBF78DF900282AD0A121EE
:10B800004900E9E7194B1E494C331A78684606F09F
:10B81000CBFA69460020FDF7DDFCFBF717FDA821F8
:10B82000002817D0ECE7114B68468A331A7815497F
:10B830000AE00E4B6846A8331A78134904E06846BC
:10B840000A4B1249BC331A7806F0AEFA002069465A
:10B85000FDF7C0FC0020FBF7EFFF00200C4A011CA5
:10B8600002F0C2FC20B010BD28310200C03300201D
:10B870003931020064310200BD2F02008D31020017
:10B88000B7310200E13102000A3202003532020013
:10B89000C967010008B5FBF77DFC002804D08421AE
:10B8A000114AFF31FFF71AFEFBF7AAF8002804D06F
:10B8B000C4210D4A4900FFF711FEFBF7AFF900283C
:10B8C00004D08E21084AFF31FFF708FEFBF746FD42
:10B8D000002804D0C921044A4900FFF7FFFD0020D9
:10B8E000FBF7AAFF08BDC046BD2F0200C0230249D6
:10B8F000024ADB00D15070473546526E00000140CD
:10B9000008B5FFF731FDFFF795FE0020074A011C3F
:10B9100002F06AFC02F0FEFCFFF723FD0028F9D0DC
:10B92000D621034A4900FFF7D9FDF3E7C9670100B3
:10B93000BD2F02000021704700B50D4BA1B0984209
:10B9400008D168460B4906F051FA69460020FDF718
:10B9500041FC0AE00823021C9A4306D0064B984299
:10B9600003D01421054AFFF7B9FD21B000BDC04640
:10B970000430000061320200013400007B3202001A
:10B9800070B5041C8AB00E1C151C01A8211C1222C3
:10B99000FCF758FF002806D101A80499FDF78AF9A1
:10B9A000002815D107E001A8211C0222FCF74AFF5C
:10B9B0000028F1D00CE00090311C01A82A1C6B4635
:10B9C000FDF772F8002803D101A8FDF766F901E040
:10B9D000802040020AB070BD031C70B5C0B00D1CC1
:10B9E0006846191C06F0E0F915480378002B1CD1B5
:10B9F000144E0122311CFCF7FDFE041E1DD120A8AF
:10BA0000114906F0F3F920A9201CFDF7E3FB684675
:10BA100006F0F4F96946021C281CFFF7B1FF201C50
:10BA2000311C0122FCF7E6FE07E0684606F0E6F965
:10BA30006946021C281CFFF7A3FF002040B070BD20
:10BA4000C4340020D02A0200492D020082B00190A7
:10BA5000C046C046C046C046C046C046C046C046B6
:10BA6000C046C046C046C046C046C046019B013BDA
:10BA70000193002BECD102B070470000A023F0B579
:10BA8000284FDB00FA5885B00092A0240022264EF1
:10BA9000FA50E405A359254A0193E023A251DB00A3
:10BAA000E15801250291E2500222F93BFF3BE550AB
:10BAB0000420E250FFF7CAFFA223DB00E2580397FD
:10BAC000371C2A4206D0E3581324EB402B4202D005
:10BAD000012018E01324013C002C13D0A0250226DD
