:020000021000EC
:106000000040002031E9010079E9010089760100B2
:106010000000000000000000000000000000000080
:106020000000000000000000000000007DE9010009
:1060300000000000000000007FE9010081E901008C
:1060400083E9010083E9010083E9010083E901009C
:1060500083E9010000000000E5E4010083E901009C
:1060600083E9010083E90100CD9B010083E9010080
:1060700083E9010083E9010083E9010083E901006C
:1060800083E90100F5CC010083E9010083E9010007
:1060900095CD010083E90100C1C5010083E901003C
:1060A00083E9010083E90100000000000000000016
:1060B00000000000000000000000000000000000E0
:1060C000164B002B00D1144B9D46402292029A1A87
:1060D000924600218B460F461348144A121A0CF0C0
:1060E00053F80F4B002B00D098470E4B002B00D0DD
:1060F00098470020002104000D000D48002802D020
:106100000C4800E000BF0CF001F82000290001F06D
:106110009BFC0BF0E5FFC04600000800004000209B
:10612000000000000000000038210020943700200B
:10613000000000000000000077DF704778DF704744
:106140007ADF70477CDF704760DF704768DF704739
:10615000A023EF220321DB05D20030B5A120995006
:106160008022C000D2051A500C2204250B4C1A5173
:106170000B4C1D510B4C1A51043C19518024E40066
:106180001C50E320C0001A5010381A5006481A500C
:1061900040191A50054A995030BDC04654070000B6
:1061A000240700002C0700000C0700001C0700005B
:1061B000A023EE210322DB05C9005A5005495A509D
:1061C000A1228021D200490599508021890599504A
:1061D0007047C04674070000002307B502200093F3
:1061E0000A211522204B06F093FF002803D03E2100
:1061F0001E4A01F021FA1E4801211E4A06F0E8FF5E
:10620000002803D04121194A01F016FA1A48012149
:106210001A4A06F0DDFF002803D04221134A01F09C
:106220000BFA17480121174A06F0D2FF002803D0C5
:1062300043210E4A01F000FA13480121134A06F0E7
:10624000C7FF002803D04421084A01F0F5F910489F
:106250000121104A06F0BCFF002803D04521034A63
:1062600001F0EAF907BDC04638210020E033020002
:1062700020370020CD790100503300204D8E0100E1
:1062800080330020357A0100D4330020DB73010015
:106290007C330020E9710100164910B50420583103
:1062A00008F06CF9002803D04D21134A01F0C4F91D
:1062B000C122124992008858114B124C0340C02051
:1062C000000403438B501049201C0A1C0F4B08F09C
:1062D00089F9002803D05221074A01F0ADF920784E
:1062E00008F0A4F9002803D05421034A01F0A4F9CE
:1062F00010BDC046B8280020E033020000E100E0F5
:10630000FFFF00FF7833002040082000E58D0100EA
:106310001FB5012202AC23781F4993432370082044
:1063200028314F32002306F01BF9002803D06321E7
:106330001A4A01F081F9002301A80370FFF704FF56
:10634000002803D06B21154A01F076F9144806F0B5
:1063500023F9002803D06F21104A01F06DF911488C
:1063600006F024F9002803D072210C4A01F064F9E8
:106370000420FFF7E1FE002803D07521074A01F051
:106380005BF90120211CFFF7E1FE002803D07821F2
:10639000024A01F051F91FBD38290020E033020004
:1063A0004D78010071780100064A08B508201421D3
:1063B000783208F0ABF9002803D07F21024A01F0BF
:1063C0003BF908BD38290020E03302001FB507F073
:1063D000D3F9002803D08C21194A01F02DF9A2230A
:1063E000A022DB00D205D2580123920893436A46CB
:1063F0006846137007F0C4FD002803D09221104AAC
:1064000001F01AF90A200021684406220BF0BCFEB4
:106410001E2301ACE380113B2372063B63720933F8
:10642000A372084B084801930123211C237107F034
:1064300015FE002803D0A121014A01F0FDF81FBD7F
:10644000E033020035780100853300201FB50023BA
:1064500001A8134905220370FFF774FE002803D03A
:10646000B221104A01F0E8F80020FFF767FE00288B
:1064700003D0B5210B4A01F0DFF8002302A84360E6
:1064800050330380503343802833C380FFF758FED6
:10649000002803D0BF21034A01F0CEF805B000BDAB
:1064A000EA330200E033020030B51F4D95B0002101
:1064B000D022281C0BF068FE0021102268460BF049
:1064C00063FE1A4B6A4600930123F0241371281CC3
:1064D000F03369465371D37193711372537294728E
:1064E00000F026FB002803D0211C114A01F0A4F87B
:1064F0004022002104A80BF047FE04A80D4905F036
:10650000CBFF112213AB1A704D2300226B4404A859
:106510001A7005F0F3FE002803D0FE21044A01F0B2
:106520008BF815B030BDC046D83300207978010013
:10653000E0330200F033020030B59FB06B46DD1D42
:10654000062302AC00213822201C2B700BF01CFE0D
:1065500002230021237010A8013B3822A370A380DE
:10656000A5600BF011FE201C10A906F02DFA0028E2
:1065700004D08C21024A490001F05EF81FB030BD02
:10658000E033020010B588B001AC201C00211C22B1
:106590000BF0FAFD0C4B201C6360A023DB02A36010
:1065A00005232373043B2374084B6361084BA361E9
:1065B00006F0AEFA002804D09721064A490001F0FF
:1065C0003BF808B010BDC04655D50000217701004A
:1065D00011770100E033020008B502F0BFFB00288C
:1065E00004D03621214AFF3101F026F803F0BCF82F
:1065F000002804D09C211D4A490001F01DF805F037
:106600003BFD002805D19E2119484900174A01F099
:1066100013F8362002F0ACFE002804D04021134AC3
:10662000FF3101F009F8342002F0ACFC002804D05E
:10663000A1210E4A490000F0FFFF732002F048FF3D
:10664000002804D04621094AFF3100F0F5FF7620EA
:1066500004F03CF8002804D0A421044A490000F0CA
:10666000EBFF682002F0CCFD08BDC046E03302001D
:1066700001100000FA2010B5C00008F023F83A4CD1
:10668000201C01F09BFF002804D06021374AFF3115
:1066900000F0D2FF01F0ACFF002804D0B021334A53
:1066A000490000F0C9FF201C02F054F9002804D072
:1066B0006A212E4AFF3100F0BFFF02F065F9002881
:1066C00004D0B521294A490000F0B6FF201C02F091
:1066D00023FA002804D0B721244A490000F0ACFF77
:1066E00002F034FA002804D07021204AFF3100F073
:1066F000A3FF201C02F04CF8002804D074211B4A90
:10670000FF3100F099FF02F05DF8002804D0BA21B3
:10671000164A490000F090FF201C01F079FE002885
:1067200004D0BC21114A490000F086FF01F08AFE26
:10673000002804D07A210D4AFF3100F07DFF0024AB
:106740000B4B201C1C7002F0D3FBA021094B09034A
:106750001868221C06F062FDA04204D0C121034A41
:10676000490000F069FF10BDD8330020E03302007B
:1067700084330020503300200122FA2008B50D494F
:106780000D4B00045A500D495850A120C000195813
:10679000114319501A600A4B0A491868002206F082
:1067A0003DFD002804D0C621074A490000F044FFFF
:1067B00008BDC0460C0500000000014004050000B3
:1067C0008033002055D50000E033020000B5144BA3
:1067D000A1B01A7E134B1B7E1343134A127E134340
:1067E000124A127E134303D1114B1B7E002B14D08F
:1067F000104B0B211868002206F010FD002804D071
:10680000DC210D4A490000F017FF0C4968460BF0E7
:10681000B9FD0020694604F031F821B000BDC04642
:10682000B0330020A8340020583300200037002067
:106830008833002020370020E0330200FA330200C2
:1068400000B50B4BA1B0186806F030FD002804D04D
:10685000E221084A490000F0EFFE684606490BF0C5
:1068600091FD6946002004F009F821B000BDC04642
:1068700020370020E0330200253402000021704759
:1068800000B50D4BA1B0984208D168460B490BF0FA
:1068900079FD6946002003F0F1FF0AE00823021C9D
:1068A0009A4306D0064B984203D01921054A00F0BE
:1068B000C3FE21B000BDC046043000008F3402008A
:1068C00001340000A9340200021C08B5081C0F495D
:1068D000092A17DD0E49632A14DD0E4B0E499A4230
:1068E00010DD0E4B0E499A420CDD0E4B0E499A42BA
:1068F00008DD0E4B0E499A4204DD0E4B0E499A42BA
:1069000000DD0E490BF012FD08BDC046E334020065
:10691000E4340200E7030000E53402000F27000022
:10692000E63402009F860100E73402003F420F0078
:10693000E83402007F969800E9340200633B0200CD
:10694000F0B5071CADB00E1C151C03A8391C122293
:1069500004F044FE002809D003A8391C022204F0E8
:106960003DFE002802D00CA8324911E0EC220023A1
:10697000314CFF3221680293914200DD236003A86D
:10698000216805F063F80190002805D02B490CA878
:106990000BF0F8FC002037E02368381C28496360BE
:1069A0000BF0E6FC002807D026490CA80BF0EAFC07
:1069B00001980CA903F062FF321C23490CA80BF0CC
:1069C000B5FC0CA9002003F059FF381C1C490BF042
:1069D000CFFC041E22D1182D20DC002E1ED0301C2E
:1069E0000BF0D8FC182819D83378002B16D003A840
:1069F000311C2A1C02AB04F023FF00280AD00CA88B
:106A000012490BF0BFFC201C0CA903F037FF8020BB
:106A100040020DE0084B1A6855191D60064B596875
:106A20001A68521A282A00DD196003A805F001F837
:106A30002DB0F0BDED3402000C2B0020F634020026
:106A4000FF3402000C350200213502002B35020014
:106A5000031C70B5C0B00D1C6846191C0BF066FC19
:106A600015480378002B1CD1144E0122311C04F070
:106A70008DFD041E1DD120A811490BF083FC20A917
:106A8000201C03F0FBFE68460BF084FC6946021CE8
:106A9000281CFFF755FF201C311C012204F076FD55
:106AA00007E068460BF076FC6946021C281CFFF7DD
:106AB00047FF002040B070BDCC340020463E0200AD
:106AC00034350200014B18687047C046142B002073
:106AD000014B58687047C046142B0020014B986842
:106AE0007047C046142B0020014B18607047C04609
:106AF000142B0020014B58607047C046142B002017
:106B0000014B98607047C046142B0020024A13685E
:106B1000013313607047C046142B0020A0DF70477C
:106B2000A2DF7047A4DF7047A6DF704763DF7047BE
:106B3000F0B50B68041C036001235B4203810A79F2
:106B400003778272FF2283774277C3774879621C8A
:106B5000D0773132137053709370D37088799375F6
:106B6000D375137653761071087A163210719375B7
:106B7000D37513765376C879163210719375D37521
:106B800013765376231C4A7A78331A70221CAFB0DE
:106B90008A322633FF20107001329A42FAD18A7A63
:106BA000251C1A70221CBC35B032FF201070013237
:106BB000AA42FAD1CA7A10261A70221CCE3210705C
:106BC0000A7B1EA81A70F049321C0BF0D4FAA11DE2
:106BD0001EA8FFF7ABFF002800D0B0E2A3791CA9E4
:106BE0008B708923221D5B0101300B80FFF796FF1C
:106BF000031E00D0A3E2A57A002D07D0311C01337B
:106C000019AA1943013311705170937027AE0021F6
:106C10001C22301C0BF0B8FA012102222940681E08
:106C200085410901114331706D4219A929407161F3
:106C3000002118A801811023012018AD18432872E3
:106C40000320A872023818432873012003436B7392
:106C5000AA7322AD1232281C0BF096FAA3791DAF4D
:106C6000BB70CA4B311C3B801AAB6B6004232B8179
:106C70000423AB81231C1C332B610193A088103BA0
:106C80002A1C22970293FFF74BFF002800D056E200
:106C9000A3790822BB70BE4B68813B801BAB6B6045
:106CA00001232B810123AB81231C20332B613378FB
:106CB000311C1343043A13433370231CA08814334C
:106CC0002A1C22970393FFF72BFF002800D036E2FF
:106CD000A3790822BB70AF4B2F603B801AAB6B606F
:106CE00004232B810423AB81231C32332B610493B7
:106CF000337868819343043A93433370231CA0880C
:106D00002233311C2A1C0593FFF70AFF002800D00C
:106D100015E2A3790822BB709F4B2F603B801BAB11
:106D20006B6001232B810123AB81231C36332B6144
:106D3000337868811343043A13433370231CA088CB
:106D40002A33311C2A1C0693FFF7EAFE002800D0E4
:106D5000F5E1A3790822BB70904B2F603B801AAB02
:106D60006B6004232B810423AB81231C48332B61EC
:106D70000793337868819343043A93433370231C19
:106D8000A0883833311C2A1C0893FFF7C9FE00285D
:106D900000D0D4E1A3790822BB70814B2F603B80E7
:106DA0001BAB6B6001232B810123AB81231C4C3374
:106DB0002B61337868811343043A13433370231CE7
:106DC000A0884033311C2A1C0993FFF7A9FE002834
:106DD00000D0B4E1A3790822BB70724B2F603B80D6
:106DE0001AAB6B6004232B810423AB81231C5E331D
:106DF0002B610A93337868819343043A9343337049
:106E0000231CA0884E33311C2A1C0B93FFF788FEED
:106E1000002800D093E1A3790822BB708A235B018C
:106E20003B801BAB6B6001232B810123AB81231CB7
:106E300062332B6133782F601343043A134333706A
:106E4000231C68815633A088311C2A1C0C93FFF741
:106E500067FE002800D072E1A3790822BB70524B74
:106E60002F603B801AAB6B6004232B810423AB8122
:106E7000231C74332B610D93337868819343043A58
:106E800093433370231CA0886433311C2A1C0E9357
:106E9000FFF746FE002800D051E1A3790822BB701D
:106EA000424B2F603B801BAB6B6001232B81012386
:106EB000AB81231C78332B61337868811343043A08
:106EC00013433370231CA0886C33311C2A1C0F938E
:106ED000FFF726FE002800D031E1A3791DAFBB707B
:106EE000334B22AD3B801AAB6B6014232B81AB81FB
:106EF000231C00228A3327AE2B61109333786A81DA
:106F000008329343043A93433370231CA0887A33A6
:106F1000311C2A1C22971193FFF702FE002800D093
:106F20000DE1A3790822BB70224B68813B801BAB2B
:106F30006B6001232B810123AB81231C9E332B61CA
:106F40003378311C1343043A13433370231CA08855
:106F500082332A1C22971293FFF7E2FD002800D00B
:106F6000EDE0A3790822BB70134B2F603B801AAB76
:106F70006B6008232B810823AB81231CB0332B616A
:106F8000139333781AE0C046D13502003311000064
:106F900034110000371100003811000041110000C9
:106FA0004211000039110000491100005011000089
:106FB0004311000044110000451100006881934313
:106FC000043A93433370231CA088A033311C2A1C3D
:106FD0001493FFF7A5FD002800D0B0E0A3790822A4
:106FE000BB70584B2F603B801BAB6B600C232B811D
:106FF000AB81231CBC332B61337868811343043A83
:1070000013433370231CA088A833311C2A1C15930A
:10701000FFF786FD002800D091E0A3790822BB701D
:10702000494B2F603B801AAB6B6001232B810123FE
:10703000AB81231CCE332B61169333786881934345
:10704000043A93433370231CA088BE33311C2A1C9E
:107050001793FFF765FD002871D1A3790822BB7053
:107060003A4B2F603B801BAB6B6001232B810123CC
:10707000AB81231C271CCF332B61337868811343EA
:10708000043A13433370C637A088311C2A1C3B1CBA
:10709000FFF746FD002852D12D4B029A02215A607B
:1070A000039A18709A60019ADA6001221A745A1CC5
:1070B000D177059A01315A62069A9A62049ADA6285
:1070C0001A1C303211700B9A01315A630C9A9A6370
:1070D0000A9ADA631A1C40321170089A05215A6420
:1070E000099A9A64079ADA641A1C50321170119A3C
:1070F00001315A65129A9F679A65109ADA651A1CCF
:1071000060321170149A01315A66159A9A66139A70
:10711000DA661A1C70321170179A01315A67169A82
:10712000DA671A1C803211701A1C0E990832D16766
:107130001A1C0F99883211600D9A8C331A602FB087
:10714000F0BDC04646110000471100004811000084
:10715000202B0020F0B50D1C041C002189B0204814
:107160000E01375C01909F4234D102ABDA800023DC
:10717000934209DAEF5C0198BC460F01C7196046DB
:10718000FF68F8540133F3E7019B00219819476821
:1071900002AB9A1D38882B1CFFF7C4FC011E1DD1C1
:1071A0002689104B08309E4218D0A37A002B15D0A8
:1071B00004AC201C10220AF0E7FF3B88301C23801F
:1071C0000123A37002AB0633211CA360E560FFF727
:1071D000ABFC03E001310A29C1D1052009B0F0BDA3
:1071E000202B0020FFFF000010B5144CA6B06B460A
:1071F00001A91422201C04F088FA009A104906A85C
:107200000BF094F806A9002003F038FB0D4B01A900
:10721000186814220523FFF79DFF009B132B0BD842
:10722000094B186806F042F8201C04F002FC00200C
:107230000649012204F0AAF926B010BD2437002027
:10724000E1350200483700207C330020463E020032
:1072500070B5061C1F48A0B00578002D27D11E4927
:10726000012204F093F9041E68461BD11B490BF060
:1072700089F86946201C03F001FB012218481949CE
:1072800004F0ACF9021E05D0684617490BF07AF8F5
:10729000201C19E0154B16491E60164B186805F0A6
:1072A000BDFF0CE014490BF06DF8281C04E06846A3
:1072B00012490BF067F80020694603F0DFFA6846D0
:1072C0000F490BF05FF80020694603F0D7FA002061
:1072D00020B070BDCC340020463E020034350200A0
:1072E00024370020463502004F3502004837002081
:1072F000220200007C330020EE35020079350200C6
:10730000FF3502007FB56B46041C0733101C0E22AC
:10731000197001216A44118008285AD808F086FCA7
:1073200005590A1B1428593621001878611CC877A2
:10733000A08A04E0211C187836310870608D002185
:10734000FFF7F0FB051C45E0211C18784C31087054
:107350000234E08FF3E7211C18786231087056344C
:1073600004E0211C1878783108706C342088E6E736
:10737000211C18789E3108701C3908880021FFF7FD
:10738000D1FB051C201CFFF763FF23E0211C1878AC
:10739000CF310870093908880D260021FFF7C2FB9C
:1073A00000236E443370051CFFF792FB3070FFF72B
:1073B00095FBC0B2002802D03378803B3370201C8C
:1073C000311C01220723FFF7C5FE0020FFF798FBC1
:1073D00000E00025281C04B070BD08B5FFF796FB3F
:1073E00008BD0000F0B5A5B0131C6A46082402329F
:1073F00014800027062B42D1031C0C78BC331C7070
:1074000000240D5D02ABE5540134082CF9D1251C94
:107410000F5D01AE083D013477550C2CF7D10C1CE3
:10742000011CA831051C08880021FFF77BFB32787E
:10743000737812061B04D218B378F6781B02D3189F
:107440009E19321C0F49071C04A80AF06FFF04A9FB
:10745000002003F013FA301CFFF746FB0A4B0B49E0
:107460001868002205F0DAFE0020094A011C07F026
:1074700063F9281C211C08220623FFF76BFE381C29
:1074800025B0F0BD0B360200D4330020AB2A00003B
:10749000CD67010073B50B88112B06D0502B08D097
:1074A000102B00D0C3E08B8801E001235B420381F5
:1074B000BDE0CA88838A0D1C041C8E1D9A4210D11F
:1074C000338B012B0DD10368002B0AD06B460022B1
:1074D00001911A70B17EFFF715FF201C69462368E1
:1074E0009847EA88638D9A4211D1338B012B0ED1D4
:1074F0002368002B0BD06B46022201951A70B17ED7
:10750000201CFFF7FFFE201C694623689847A31C38
:10751000EA88DB8F9A4211D1338B012B0ED123687D
:10752000002B0BD06B46042201951A70B17E201CF3
:10753000FFF7E8FE201C694623689847231C563352
:10754000EA881B889A4211D1338B012B0ED1236814
:10755000002B0BD06B46032201951A70B17E201CC4
:10756000FFF7D0FE201C694623689847231C6C3324
:10757000EA881B889A4211D1338B012B0ED12368E4
:10758000002B0BD06B46082201951A70B17E201C8F
:10759000FFF7B8FE201C694623689847231C8233F6
:1075A000EA881B889A4211D1338B012B0ED12368B4
:1075B000002B0BD06B46052201951A70B17E201C62
:1075C000FFF7A0FE201C694623689847231CA833B8
:1075D000EA881B889A4212D1338B0C2B0FD1236877
:1075E000002B0CD0291C6B4606222031201C1A705F
:1075F0000195FFF7F7FE201C694623689847231C76
:10760000C633EA881B889A4211D1338B012B0ED1E5
:107610002368002B0BD06B46072201951A70B17EB0
:10762000201CFFF76FFE2368201C6946984773BD36
:1076300073DF704740DF704770B5051C0C1C161CCB
:10764000A2B0231C2A1C02A80C490AF06FFE02A952
:10765000002003F013F9321C02A809490AF066FE63
:1076600002A9002003F00AF9009602A805492A1C85
:10767000231C0AF05BFE22B070BDC0462336020018
:10768000273502004A36020000B5A1B06846094914
:107690000AF078FE6946002003F0F0F8064807F08B
:1076A00011F8BFF34F8F054A054BDA60BFF34F8FD8
:1076B000FEE7C04674360200881300000400FA0595
:1076C00000ED00E0031C00B50A1CA1B0191C0B481A
:1076D000FFF7B2FF68460A490AF054FE69460020E7
:1076E00003F0CCF8074806F0EDFFBFF34F8F064AD2
:1076F000064BDA60BFF34F8FFEE7C046EFBEADDE4C
:107700009E360200881300000400FA0500ED00E038
:1077100008B54F21014AFFF78FFF08BDD736020099
:1077200010B50478A0B0002C07D1054968460AF0CE
:1077300029FE201C694603F0A1F820B010BDC04608
:10774000E136020010B5A6B001ACFEF7F5FE201C34
:10775000002114220AF018FDA023201C2382FFF729
:1077600067FF041E04D07521094AFFF765FF0CE08E
:10777000084906A80AF006FE06A9201C03F07EF8B8
:107780001D200A21FF2202F037F826B010BDC046A6
:10779000D73602002237020010B5041C0088A0B0C2
:1077A000103809283AD808F041FA05173139393923
:1077B000393939281A4968460AF0E4FD694600203B
:1077C00003F05CF81D2001F0FFFF1D2001F0E6FF33
:1077D000A288144B1A8021E0684613490AF0D2FDB2
:1077E0006946002003F04AF81D2001F0EDFF00205B
:1077F00001F07EFBFFF7A6FF10E0A479002C0DD16D
:1078000068460A490AF0BEFD201C04E068460849A3
:107810000AF0B8FD0020694603F030F820B010BD32
:1078200033370200002000204C3702006837020086
:107830008D37020008B5002A04D0101CFC21024A32
:10784000FFF7FAFE002008BDD736020010B5041C71
:1078500006F058FC201CFFF79FFF201C05F088F95C
:107860000248211CFFF716FE10BDC046D833002089
:1078700008B505F00BFF08BD10B50C1CA0B04749BA
:1078800068460AF07FFD6946002002F0F7FFFEF728
:10789000D7FF2078082877D808F0C8F905764D1664
:1078A0002B5F656B3C003E4B3E490133DA7F6846F7
:1078B0000AF03CFD6946002002F0E0FF00F098FE6F
:1078C0003A21002860D00FE0354B374962331A78EF
:1078D00068460AF02BFD6946002002F0CFFF00F059
:1078E00071FF002850D04821FF31304AFFF7A4FE35
:1078F0004AE02B4B2E494C331A7868460AF016FDA5
:107900006946002002F0BAFF01F020F9A721002803
:107910003AD020E0224B274978331A7868460AF09B
:1079200005FD6946002002F0A9FF00F08BFD5621FD
:10793000002829D0D8E71A4B1F4936331A786846F1
:107940000AF0F4FC6946002002F098FF01F01CF8F0
:10795000002819D0AE214900C7E7114B68469E3375
:107960001A7816490AE00E4B6846BC331A78144957
:1079700004E068460A4B1349CF331A780AF0D6FC64
:107980000020694602F07AFF002001F0B1FA0020E1
:107990000D4A011C06F0D0FE20B010BDE2370200F7
:1079A000D8330020F33702001E380200D736020019
:1079B0004838020076380200A1380200CB380200B5
:1079C000F43802001F390200CD67010008B500F04D
:1079D0009DFE002804D09021154AFF31FFF72CFEB0
:1079E00000F076FF002804D09A21114AFF31FFF7FA
:1079F00023FE01F04FF8002804D0CF210C4A4900A3
:107A0000FFF71AFE01F02CF9002804D0A421084A3F
:107A1000FF31FFF711FE00F08FFD002804D0D421C4
:107A2000034A4900FFF708FE002001F061FA08BD93
:107A3000D7360200C0230249024ADB00D15070470A
:107A40003546526E0000014030B5A1B0FEF780FB14
:107A5000674968460AF096FC6946002002F00EFF6E
:107A6000FEF7A6FB634968460AF08CFC69460020D5
:107A700002F004FFFEF7B0FB5F4968460AF082FCA3
:107A80006946002002F0FAFEFEF776FE5B49684682
:107A90000AF078FC6946002002F0F0FEFEF7FCFBDD
:107AA000574968460AF06EFC6946002002F0E6FE7F
:107AB000FEF72EFC534968460AF064FC6946002034
:107AC00002F0DCFEFEF770FC4F4968460AF05AFCF3
:107AD0006946002002F0D2FEFEF778FC4B4968466A
:107AE0000AF050FC6946002002F0C8FEFEF7AEFC2A
:107AF000474968460AF046FC6946002002F0BEFE8F
:107B0000FEF7D2FC434968460AF03CFC6946002077
:107B100002F0B4FEFEF710FD3F4968460AF032FC61
:107B20006946002002F0AAFEFEF72CFD3B4968469C
:107B30000AF028FC6946002002F0A0FEFEF74CFD8A
:107B4000374968460AF01EFC6946002002F096FE9E
:107B5000FEF790FD334968460AF014FC69460020A0
:107B600002F08CFEA02280212F4BD2054905D15076
:107B700080218905D150002001F068F92B4C2C4858
:107B8000211C012203F002FD051E07D12949684688
:107B90000AF0F8FB281C694602F070FE211C012245
:107BA000002003F0F3FCFFF7CDFD06F05BFEFFF7CE
:107BB00041FD002804D0BE211F4AFF31FFF73CFDE4
:107BC00001F052FB041E3C2CEFDD01F0B6FA6820F8
:107BD00001F016FB0F20FEF793FF68461749221CA1
:107BE0000AF0A4FB6946002002F048FEDDE7C0462B
:107BF0004B3902005C390200673902007439020017
:107C00008839020095390200A5390200BA3902000C
:107C1000CB390200E5390200F4390200063A0200CD
:107C2000183A02002B3A02000C050000463E020002
:107C3000CC34002034350200D73602003E3A020030
:107C40000123C046C046C046C046C046C046C046E6
:107C5000C046C046C046C046C046C046C046013BBE
:107C6000002BEED170470000002008B5011C021C5B
:107C700004F0EEF8064BEC221860A0230321DB058C
:107C8000D20099508021A1224904D200995008BD08
:107C9000C02B002080B5021C6846CB1DDB08DB0032
:107CA000C31A00AF9D46044B89B218686B4604F0B6
:107CB0002BF9BD4680BDC046C02B0020B0B5031CCB
:107CC0006846CA1DD208D200821A00AF95460C1C25
:107CD00068466C44A04203D0FF2505700130F9E7E7
:107CE000034889B2006804F00FF9BD46B0BDC04634
:107CF000C02B002037B5094C6B46DD1D281C012127
:107D0000FFF7DCFF2B78FF2B04D0013CFFF798FF37
:107D1000002CF1D1601E8441E0B23EBD20A10700DD
:107D200007B5A1238021A0224904DB00D205D15050
:107D30006B460121D81DFFF7C1FF07BD13B5A02277
:107D40008021094BD2054904D1506B460121D81D31
:107D5000FFF7B4FFFFF7CEFF041E02D1FFF7E0FFED
:107D600000E00124201C16BD0C050000F7B5071C1F
:107D70000E1C0F4D01AC201C0121FFF79FFF237843
:107D8000FF2B0DD023780020FE2B0FD1381C311C87
:107D9000FFF794FF201C0221FFF790FF012005E070
:107DA000013DFFF74DFF002DE4D1EBE7FEBDC046DE
:107DB000A0860100F7B5071C0E1CFFF79BFF041EF1
:107DC0001CD001AD281C01212E700124FFF762FF99
:107DD000FD2E13D08021381C8900FFF75BFF281C83
:107DE0000221FFF76BFF211C281CFFF767FF1F23F1
:107DF0002C781C40053C63425C41E4B2201CFEBD73
:107E000030B543B285B0041C0D1C002B07DA3720B7
:107E10000021FFF7F5FF01283AD87F231C400C2CE6
:107E20000ED1402302A8234303702B0E43702B0C6A
:107E300083702B0AC37005719523002C0FD00AE0C4
:107E4000002CEED0FFF76CFFFFF778FF031CFF203C
:107E5000002B1DD0E5E78723082C00D0863B0621A8
:107E60004371FFF717FF6B46DD1D0C2C03D1281C57
:107E70000121FFF723FF0A24281C0121FFF71EFF21
:107E8000287843B2002B03DA013CE4B2002CF3D192
:107E900005B030BD08B5044B1A78044B1A7004F0D5
:107EA000EBF8012008BDC0460420002079330020F3
:107EB000F0B5594C85B0A24201D0A34203D10020B5
:107EC0000A9B1860A6E00E1C0390111C181C1C1CB9
:107ED000151C07F0B5FE0290301C09F0D1FE021C03
:107EE0000B1C00204D4908F007FC00900191281C54
:107EF00009F0C6FE009A019B09F03CF808F080F8F2
:107F0000061C201C09F0BCFE009A019B09F032F807
:107F100008F076F8039B071C002B01D136010701FE
:107F2000029809F0ADFE00223D4B041C0D1C08F028
:107F30001FF800281DD0301C09F0A2FE394A061C8B
:107F40000F1C201C291C384B06F01CFD374A0090E2
:107F50000191374B301C391C09F00CF8354A364B6F
:107F6000041C0D1C301C391C09F004F8009A019BFC
:107F700043E0201C291C314A314B07F0F9FF00284F
:107F80000ED0301C09F07CFE2E4A2F4B08F0F2FF79
:107F9000041C381C0D1C09F073FE264A2B4B2CE0E8
:107FA000201C291C2A4A2B4B07F0E2FF00280ED088
:107FB000301C09F065FE284A284B08F0DBFF041C42
:107FC000381C0D1C09F05CFE254A264B15E0201CD0
:107FD000291C254A254B07F0CBFF002817D0301C61
:107FE00009F04EFE224A234B08F0C4FF041C381C43
:107FF0000D1C09F045FE204A204B08F0BBFF021C77
:108000000B1C201C291C09F04FFA07F0F9FF0A9BF2
:108010001860012005B0F0BDFFFF0000002079408E
:108020000000E03F666666666666F63FC58F31779C
:108030002D219F3F5839B4C876BEAF3F85EB51B86C
:108040001E85E33FC7BAB88D06F0963F76BE9F3FC8
:108050009A9999999999E93F2D431CEBE2368A3F09
:108060004BC8073D9B558F3FCDCCCCCCCCCCF43FFF
:10807000B2632310AFEB573FD2FBC6D79E59523F96
:1080800037B56B460C1CD91D0F23012218400F4B2E
:108090000F4D9B78184308702878131C4000C0B21D
:1080A00004F024F8002804D1FF220A4B00201A70A3
:1080B0000AE001232878211C40001843C0B21A1C92
:1080C00004F014F80028EFD03EBDC0460420002084
:1080D00079330020C834002008B5034B011CD87840
:1080E000FFF7CEFF08BDC046042000200F2210B5C8
:1080F0001040104AA2B0927801AB10430E4A18709B
:10810000107859704000191CC0B20222012303F0FC
:10811000EDFF041E0AD1FF22084B094902A81A707C
:108120000AF030F9201C02A902F0A8FB201C22B0A2
:1081300010BDC0460420002079330020C834002040
:10814000493A020008B5034B03211878FFF7CEFF28
:1081500008BDC046C42B0020F7B56B460F4DDC1D93
:10816000071C0E1C2879211CFFF78AFF002814D059
:1081700023781022002F01D0134300E09343032201
:1081800023702378164093431E430520267006F083
:1081900099FA28792178FFF7A9FFFEBD0420002075
:1081A00008B56523012908D00E23002905D002292E
:1081B00002D1C9235B0000E000231360FFF7CCFF6E
:1081C00008BD000070B50024A0B0274968460AF039
:1081D000D9F86946002002F051FB244D2C70FFF7BE
:1081E00059FE052006F06EFA2148FFF775FF061EBE
:1081F000A64209D11F4968460AF0C4F8301C6946F6
:1082000002F03CFB1C482DE0052006F05BFAFFF76E
:1082100099FF061E09D1194968460AF0B3F8301CC7
:10822000694602F02BFB16481CE0052006F04AFACE
:108230002878144A431E9841134BC0B2597808322B
:10824000FFF7AEFF051E09D1104968460AF09AF8FB
:10825000281C694602F012FB0D4803E0052006F0D9
:1082600031FA201C20B070BD5A3A02004F3700206E
:108270004D370020703A0200222000007D3A0200B3
:108280002320000004200020C42B00208B3A020091
:108290002420000073B56B460D1CD91D0F2301224D
:1082A000114E1840B378184308703078131C400002
:1082B000C0B203F01BFF0D4C002803D1FF230020A8
:1082C00023700FE000231420237006F0FBF9012334
:1082D0003078291C40001843C0B2022203F006FF88
:1082E0000028EBD076BDC04604200020C834002012
:1082F00038B5031C064C0D1C607B191CFFF7CAFF28
:10830000002803D0A07B291CFFF7C4FF38BDC0465E
:1083100004200020F0B50024A5B00390FFF752FF21
:10832000154D164E164904A82C7034700AF02AF820
:1083300004A9201C02F0A2FA301C291CFFF7D8FF68
:10834000071EA74209D10F4904A80AF01BF8381CE0
:1083500004A902F093FA0C480CE00C4B039918782E
:1083600032782B7800910A498968FFF7A1FD094B03
:108370009870201C25B0F0BD4C3700204E370020EF
:108380009B3A0200BC3A0200252000004F37002033
:1083900004200020C42B0020002337B5051C01ACAD
:1083A000211C03206370237000F000FE62782178A6
:1083B000074809F08FFF61780648297009F08AFFA5
:1083C000052006F07FF900202856C043C00F3EBDAF
:1083D000CB3A0200F33A020073B5002401AE051C4B
:1083E000311C02207470347000F0E0FD0F227178AF
:1083F00006480B01317811401943298009B209F070
:1084000069FF052006F05EF9201C76BD043B0200E2
:1084100010B5A0B0041C0949684609F0B3FF6946CD
:10842000002002F02BFA002000210122044B1861E9
:1084300059611C601A7620B010BDC046163B020080
:108440008833002030B5A1B01B49684609F09AFF77
:108450000020694602F012FA184C00222368251CFD
:108460007833187800232261636101230340237667
:10847000400903280FD807F0D9FB02040A0C104862
:1084800000E01048FEF7FAF9A860E96008E00E483D
:10849000F8E70E48F6E70E48FEF7F0F9A060E16055
:1084A00068460C4909F06EFF6946002002F0E6F9C3
:1084B000002021B030BDC046253B0200883300209B
:1084C0008096980040420F00A0860100102700000F
:1084D000C0D40100443B020010B5A6B06B46DC1DC1
:1084E000201CFFF759FF1049021C029003A809F055
:1084F0001DFF03A80D49FEF7ABFA2378029A06A8E0
:108500000B4909F013FF06A9002002F0B7F9094B47
:1085100002A9042218680823FEF71CFE0290FEF749
:10852000AFF9002026B010BD623B0200FF3402000C
:10853000663B02008833002030B51D4BA1B01A7E87
:10854000002A01D100242FE001201C695D6900216F
:1085500000196941DA68186159618A4207D802D165
:108560009A68824203D800200021186159611A6973
:10857000012AE7D15A69002AE4D10E490C78002C6F
:108580000DD1FFF7A9FF051E0ED00B49684609F073
:10859000F9FE201C694602F071F92C1C04E0002051
:1085A0000021141C18615961201C21B030BDC04647
:1085B00088330020843300207D3B020010B5A0B03A
:1085C000041C0949684609F0DDFE6946002002F0F6
:1085D00055F9002000210122044B186159611C60EB
:1085E0001A7620B010BDC046EC3B0200A834002033
:1085F00030B5A1B01B49684609F0C4FE00206946A9
:1086000002F03CF9184C00222368251C0133D87F66
:10861000002322616361012303402376400903287C
:108620000FD807F003FB02040A0C104800E01048C2
:10863000FEF724F9A860E96008E00E48F8E70E4864
:10864000F6E70E48FEF71AF9A060E16068460C49AB
:1086500009F098FE6946002002F010F9002021B0D0
:1086600030BDC046FB3B0200A83400208096980035
:1086700040420F00A086010010270000C0D4010076
:108680002A3C020030B5B3B002A802F059F8041E2B
:1086900008D012A8184909F075FE12A9002002F0AE
:1086A000EDF826E003AD291C0298FEF70DF9FEF760
:1086B00009FA08A9FEF708F908AB02220F4900954C
:1086C0000DA809F033FE0E490DA8FEF7C1F9029A74
:1086D0000C4912A809F02AFE12A9201C02F0CEF8BB
:1086E000094B02A918680422231CFEF733FDFEF78C
:1086F000C7F8201C33B030BD483C0200723C020079
:10870000FF3402007D3C0200A834002030B51D4B30
:10871000A1B01A7E002A01D100242FE001201C699B
:108720005D69002100196941DA68186159618A425E
:1087300007D802D19A68824203D80020002118612C
:1087400059611A69012AE7D15A69002AE4D10E4910
:108750000C78002C0DD1FFF795FF051E0ED00B49AC
:10876000684609F00FFE201C694602F087F82C1CB1
:1087700004E000200021141C18615961201C21B064
:1087800030BDC046A8340020843300208E3C020057
:1087900010B5A0B0041C0949684609F0F3FD69460C
:1087A000002002F06BF8002000210122044B186128
:1087B00059611C601A7620B010BDC046FD3C020015
:1087C0000037002030B5A1B01B49684609F0DAFD3A
:1087D0000020694602F052F8184C00222368251C3C
:1087E00062331878002322616361012303402376FA
:1087F000400903280FD807F019FA02040A0C1048A0
:1088000000E01048FEF73AF8A860E96008E00E487A
:10881000F8E70E48F6E70E48FEF730F8A060E16092
:1088200068460C4909F0AEFD6946002002F026F8C2
:10883000002021B030BDC0460B3D020000370020B3
:108840008096980040420F00A0860100102700008B
:10885000C0D40100303D020010B5ACB001A8FFF754
:1088600059FD041E08D00CA8144909F08BFD0CA971
:10887000002002F003F81EE0019802A9FEF724F898
:1088800002AA0F4907A809F051FD0E4907A8FEF7F3
:10889000DFF8019A0C490CA809F048FD0CA9201C2E
:1088A00001F0ECFF094B01A9186804220323FEF72D
:1088B00051FCFDF7E5FF201C2CB010BD4D3D020022
:1088C000793C0200FF3402007C3D020000370020AA
:1088D00030B51D4BA1B01A7E002A01D100242FE033
:1088E00001201C695D69002100196941DA6818617D
:1088F00059618A4207D802D19A68824203D800207F
:108900000021186159611A69012AE7D15A69002AC0
:10891000E4D10E490C78002C0DD1FFF79DFF051E08
:108920000ED00B49684609F02DFD201C694601F068
:10893000A5FF2C1C04E000200021141C18615961C3
:10894000201C21B030BDC0460037002084330020F9
:108950008D3D020010B5A0B0041C0949684609F01D
:1089600011FD6946002001F089FF0020002101224D
:10897000044B186159611C601A7620B010BDC046C6
:10898000F93D0200B033002030B5A1B01B49684664
:1089900009F0F8FC0020694601F070FF184C002235
:1089A0002368251C36331878002322616361012374
:1089B00003402376400903280FD807F037F9020453
:1089C0000A0C104800E01048FDF758FFA860E96065
:1089D00008E00E48F8E70E48F6E70E48FDF74EFFB0
:1089E000A060E16068460C4909F0CCFC69460020B3
:1089F00001F044FF002021B030BDC046073E020018
:108A0000B03300208096980040420F00A0860100FD
:108A100010270000C0D401002A3E020010B5ACB0FF
:108A200001A801F0A9FE041E08D00CA8144909F001
:108A3000A9FC0CA9002001F021FF1EE0019802A969
:108A4000FDF742FF02AA0F4907A809F06FFC0E4983
:108A500007A8FDF7FDFF019A0C490CA809F066FC78
:108A60000CA9201C01F00AFF094B01A91868042277
:108A70000223FEF76FFBFDF703FF201C2CB010BD97
:108A8000473E0200793C0200FF3402006D3E0200C6
:108A9000B033002030B51D4BA1B01A7E002A01D1A1
:108AA00000242FE001201C695D6900210019694143
:108AB000DA68186159618A4207D802D19A688242FD
:108AC00003D800200021186159611A69012AE7D1F1
:108AD0005A69002AE4D10E490C78002C0DD1FFF719
:108AE0009DFF051E0ED00B49684609F04BFC201C6B
:108AF000694601F0C3FE2C1C04E000200021141C78
:108B000018615961201C21B030BDC046B03300202F
:108B1000843300207C3E020010B5A0B0041C09493B
:108B2000684609F02FFC6946002001F0A7FE0020EE
:108B300000210122044B186159611C601A7620B093
:108B400010BDC046E83E02005833002030B5A1B049
:108B50001B49684609F016FC0020694601F08EFEAC
:108B6000184C00222368251C4C33187800232261FE
:108B70006361012303402376400903280FD807F0DF
:108B800055F802040A0C104800E01048FDF776FE84
:108B9000A860E96008E00E48F8E70E48F6E70E48DE
:108BA000FDF76CFEA060E16068460C4909F0EAFB45
:108BB0006946002001F062FE002021B030BDC046B1
:108BC000FA3E0200583300208096980040420F0081
:108BD000A086010010270000C0D40100223F02003F
:108BE00030B5ADB06B469D1D281CFFF7F5FB041E8C
:108BF00009D016490CA809F0C5FB00200CA901F00A
:108C00003DFE01201FE0288802A9FDF75DFE02AAB3
:108C10000F4907A809F08AFB0E4907A8FDF718FFBE
:108C20002A880D490CA809F081FB0CA9201C01F031
:108C300025FE0422094B291C1868131CFEF78AFA2A
:108C4000FDF71EFE201C2DB030BDC046433F020084
:108C5000793C0200FF3402006C3F020058330020D0
:108C600030B51D4BA1B01A7E002A01D100242FE09F
:108C700001201C695D69002100196941DA681861E9
:108C800059618A4207D802D19A68824203D80020EB
:108C90000021186159611A69012AE7D15A69002A2D
:108CA000E4D10E490C78002C0DD1FFF799FF051E79
:108CB0000ED00B49684609F065FB201C694601F09F
:108CC000DDFD2C1C04E000200021141C18615961FA
:108CD000201C21B030BDC046583300208433002012
:108CE000803F020000B5A1B068460A4909F04AFB7E
:108CF0006946002001F0C2FD0122074B03211A70D2
:108D00000022064B1D201A70803200F091FD21B028
:108D100000BDC046F83F0200C82B0020D033002021
:108D200000B5A1B068460A4909F02CFB694600204D
:108D300001F0A4FD0122074B03215A700022064BCB
:108D40001D201A70803200F073FD21B000BDC046B6
:108D500010400200C82B0020D03300200020012248
:108D6000024B1870024B1A707047C046D033002077
:108D7000A833002010B5041CA0B0002802D0FFF7D3
:108D8000B1FF0CE00749684609F0FCFA201C69466F
:108D900001F074FD044B1D201C7000F015FD20B087
:108DA00010BDC04624400200C82B002010B5041C92
:108DB000A0B0002802D0FFF7B3FF0CE007496846D7
:108DC00009F0E0FA201C694601F058FD044B1D2013
:108DD0005C7000F0F9FC20B010BDC0463D400200C0
:108DE000C82B002070B580252D01A0B0061C0C1CDE
:108DF000284202D00020FFF7BDFF2C4201D0FFF730
:108E000071FF8025AD032E4202D00020FFF7CEFF78
:108E10002C4201D0FFF784FF630610D5094968464C
:108E200009F0B0FA0020694601F028FD684600F01C
:108E3000F7FA002803D04B21034AFEF7FDFB20B0D0
:108E400070BDC046524002006B400200012070B568
:108E5000A026A225011CF605ED00204C72592378AE
:108E6000D20AA2B09143994202D05840FFF782FF44
:108E70000120011C72596378520D9143994202D02E
:108E80005840FFF793FF164B1D78002D23D115494D
:108E900002A809F077FA281C02A901AD01F0EEFC46
:108EA000281C00F0B1FA002811D12878FDF722FE25
:108EB00021782A780123002900D1637802A80A4981
:108EC00009F034FA02A9002001F0D8FC03E068217F
:108ED000064AFEF7B1FB22B070BDC046C82B002089
:108EE00084330020AA400200C54002006B4002000B
:108EF000002809D08021A123A022DB00D205C905CA
:108F0000D1500122014B1A707047C046A83300208F
:108F100008B5031C0A1C06490878191C012303F034
:108F2000E5F8002801D0002000E0024808BDC04656
:108F3000CA2B00200130000010B5104B041C18781B
:108F400001230A1C1843211C03F0D0F8002812D07A
:108F50000423C046C046C046C046C046C046C046C0
:108F6000C046C046C046C046C046C046C046013B9B
:108F7000181EEED100E0024810BDC046CA2B0020EA
:108F80000230000007B5074B400018706B46D81D33
:108F9000822301210370FFF7BBFF002800D00248A5
:108FA0000EBDC046CA2B00200330000013B50B28AD
:108FB00018D86A46031CD01D1F225B00524213437F
:108FC0009E320C1C134001210370FFF7A1FF002803
:108FD00001D0054807E0201C0221FFF7ADFF002863
:108FE000F7D100E0014816BD053000000430000054
:108FF000F7B56B46141C0122184F0D1CD91D0870C3
:109000003878131C4000C0B203F070F8061E01D17E
:109010003C210CE001233878E2B240001843C0B292
:10902000291C03F063F80423061E04D142210C4AD4
:10903000FEF702FB10E0C046C046C046C046C04630
:10904000C046C046C046C046C046C046C046C046F0
:10905000C046013B002BEED1301CFEBD5037002036
:10906000EF40020008B50122FFF7C2FF08BD13B5AB
:109070006B46DC1D0023211C2370FFF7F3FF00204B
:10908000205616BD98B5131C6C460833DB08DB0070
:10909000E31A00AF18709D460020904204DA0130B8
:1090A000441E0C5D1C54F8E7094901320878D2B21D
:1090B0004000191CC0B2012303F018F8041E03D1AC
:1090C0008621044AFEF7B8FABD46201C98BDC0466A
:1090D00050370020EF40020007B56B46D9710733C7
:1090E000191C0122FFF7CEFF0EBDF0B585B001932C
:1090F00002ABDD1D00230C1C291C061C171C2B7049
:10910000FFF7B0FF002810D00121B940E41B019BFC
:1091100001340139A340A1402F78DCB28F432140B4
:109120003943301C2970FFF7D7FF05B0F0BD08B5F3
:10913000131C0122FFF7D9FF08BD08B56B200721DA
:109140000122FFF7F4FF08BD08B5021C04216B20C3
:10915000FFF7EDFF08BD08B5021C05216B20FFF7E6
:10916000E6FF08BD08B50021031C04221E20FFF7FE
:10917000BCFF08BD08B5021C05216C20FFF7D7FF16
:1091800008BD08B5021C04216C20FFF7D0FF08BD04
:1091900008B5021C03216C20FFF7C9FF08BD08B504
:1091A000021C02216C20FFF7C2FF08BD08B5021C9B
:1091B00001216C20FFF7BBFF08BD08B5021C002190
:1091C0006C20FFF7B4FF08BD08B50221031C032281
:1091D0001D20FFF78AFF08BD08B5021C03211D20D2
:1091E000FFF7A5FF08BD08B538204021FFF774FF41
:1091F00008BD08B51F200F21FFF76EFF08BD000056
:1092000008B5184B1870FFF798FF142005F05AFAAC
:109210000020FFF7A0FF0020FFF796FF0020FFF7D8
:10922000A9FF0020FFF7ADFF0020FFF7B1FF0120ED
:10923000FFF7B5FF0120FFF7B9FF0120FFF7BDFFE2
:109240000120FFF7C9FF0120FFF7BEFFFFF7CBFFAB
:10925000FFF7CFFF0320FFF785FF0120FFF77BFF1C
:1092600008BDC0465037002008B53A20FFF7FFFE82
:10927000C0B208BDB0B5131C6C460833DB08DB0078
:10928000E31A00AF9D466C4600232070D8B290428E
:1092900004D2CD5CE01845700133F7E7064B211C82
:1092A0001878012302F022FF002801D0002000E0FE
:1092B0000248BD46B0BDC046CB2B00200140000097
:1092C00073B56B46141C0122154ED9710733051C6A
:1092D000191C3078131C02F009FF00281BD0012351
:1092E0003078291C1843221C02F000FF002814D0FB
:1092F0000423C046C046C046C046C046C046C0461D
:10930000C046C046C046C046C046C046C046013BF7
:10931000181EEED102E0034800E0034876BDC046C7
:10932000CB2B0020014000000240000013B501AC2F
:10933000201C0C210222FFF7C3FF002801D00B489C
:1093400013E0202263780C209343211C1E3A6370A3
:10935000FFF790FF0028F2D120706070211C1A30B6
:109360000222FFF787FF0028E9D116BD0440000064
:1093700037B5234B400001AC18701821201C022285
:10938000FFF79EFF002801D01E4837E0201C08216F
:109390000222FFF795FF0028F6D120706070211C93
:1093A00006300222FFF766FF0028EDD120706070C2
:1093B000211C0A300222FFF75DFF0028E4D17C2344
:1093C000FF251830211C022223706570FFF752FF21
:1093D0000028D9D197230C302370211C3B3B02225B
:1093E0006370FFF747FF0028CED12070211C143096
:1093F00002226570FFF73EFF0028C5D13EBDC04682
:10940000CB2B00200340000008B504210222FFF707
:1094100057FF002800D0014808BDC04605400000A5
:1094200037B501AD041C1A21281C0222FFF748FFA2
:1094300000281CD101222B78134201D0207013E0A8
:1094400002210B420AD10422134201D021700BE009
:10945000190701D5032306E0D90601D5227003E0E0
:109460009B0601D505232370FFF760FF00E001484C
:109470003EBDC046064000000423C046C046C0466C
:10948000C046C046C046C046C046C046C046C046AC
:10949000C046C046C046013B002BEED170470000DD
:1094A00007B5094A01AB187059701078191C0222CF
:1094B000012302F01BFE002803D0FFF7DDFF002090
:1094C00000E002480EBDC046CC2B00201640000034
:1094D00010B50F4C6378002B17D1FF21400020708E
:1094E0000320A170FFF7DCFF011E01D009480DE049
:1094F0000220FFF7D5FF011EF8D10120FFF7D0FFB2
:109500000028F3D10123637000E0034810BDC0467A
:10951000CC2B00200740000006400000002170B561
:1095200000781F4BCAB25C1865781C1C854200D1BC
:10953000101C01310429F4D1421CD100635C012BC1
:1095400008D161184B78002B01D1CB7800E00023C3
:109550004B701EE0022B21D163189D785978002DA5
:1095600006D0DE780431B14208DB5E70002103E0F2
:10957000042903DC01215D7099700AE0D300E3182F
:1095800059780426002D00D1F836D3007118E3185D
:109590005970D200A318597800F0C0FA70BDC046C7
:1095A00018200020F8B50023234CDDB2E2185278D1
:1095B0005F1C82423CD1061C002000F0CBFAFB006D
:1095C000E318586803F072FE032D0DD0691C631870
:1095D0005B7865196B704B1CCA00DB00A218E3189E
:1095E00021CB21C2CDB2EFE7FF2300250121201CB2
:1095F0002371631CDD77A31CDD77E31CD977231D62
:10960000DD770E4A243003F0E3FD2378201C013B74
:10961000237000F07FF92B1C221C3832995CB14278
:1096200002D1FF21D15406E00133042BF4D102E032
:109630003B1E042BB8D1F8BD182000201D95010059
:10964000F0B5051CA5B0019103921E1CFFF7AAFFFF
:109650002B1CA0220321C133FF33D2059B0099505C
:109660000123AB40002739495350394C7A1CE31988
:109670005B780292FF2B62D1012E04D13220019B34
:109680004343019308E06420019B5843039B9908DE
:10969000490006F065FB0190002000F05BFA6A4685
:1096A000E7197D702378127B01332370029BDB0066
:1096B000E654E318DA700023221C3832995CDFB2DA
:1096C000FF2901D1D55403E00133042BF4D11F1C31
:1096D000201C00F01FF9002804D0281CFFF762FFAF
:1096E0001C4C30E0029B0199DB00E318CA03029393
:1096F0004B0C00211848383480185941174A002370
:1097000006F05EFC029B011CE219586803F086FD1E
:10971000041EE2D12B1C1C3B012B02D80120FFF7B9
:10972000E7FB012000F016FA04A80D492A1C331C9F
:1097300008F0FCFD04A9002001F0A0F803E0029F5E
:10974000042F92D1074C201C25B0F0BD0C05000061
:109750001820002005600000DC050000B80B0000A8
:109760003F4102000360000038B5094B1D1C2C333B
:109770001C1C0C35281C0121064A03F029FD002879
:1097800003D10835A542F5D100E0034838BDC046F5
:10979000182000201D9501000460000010B5041C75
:1097A000FFF700FF0120FFF7A3FB231CA0220321EA
:1097B0000120C133FF33D2059B009950A123A04063
:1097C000DB00D050002010BD10B5041CFFF7EAFEEE
:1097D0000020FFF78DFB0120231CA0220321A040C5
:1097E000C133FF33D2059B009950024BD05000206B
:1097F00010BDC0460C05000070B5041C0E1C151CE5
:10980000FFF7D0FE231CA0220321C133FF33D20572
:109810009B0099500123181CA04004495050311C52
:109820002A1C201CFFF70CFF70BDC0460C05000071
:1098300070B5041C0E1C151CFFF7B4FE231CA022DF
:109840000321C133FF33D2059B0099500123A3406C
:109850000549201C53500A2171432A1CC9B2022316
:10986000FFF7EEFE70BDC0460C05000045DF7047F7
:1098700047DF70474EDF704750DF704710B50C4B25
:10988000041C1B6899420AD800208C420FD3094A55
:109890001268D31A59188C428041404207E0CB1A13
:1098A00001209C4203D300238C425B41D8B210BDFF
:1098B00054200020D02B002010B5041E0F2C06D8F9
:1098C000C0B2FFF7D5FF0120A040FFF7CFFF10BDCA
:1098D000012230B5151CA123A0248D40DB00E40536
:1098E000E550094B8000C018A223084CDB00C4508F
:1098F000C046C046C0460260054A09021143C15035
:10990000C046C046C04630BD00600040031F010095
:1099100003001300F7B50378041C013B032B00D9A7
:10992000D7E0031C34331878052800D9D1E0A222EF
:10993000694FD200694B06F079F90305070C101244
:10994000092107E009210BE00621B950FA22920013
:1099500008E00321B950642204E0012100E0002165
:10996000B950FF221A60A222D200BA585C49895C21
:109970005C4A116022785A6000230192019A934256
:1099800017D2E118554D4A78980008354251A02564
:109990000326C132FF329200ED05565100254F4A91
:1099A0003031183285504D4A0978283299540133A4
:1099B000E4E7A12200230125D200FD60BB50474A05
:1099C000802611680420D162A922D200B9509446A1
:1099D000454AB600BB50454AB8511365D3649364F9
:1099E0005364019A022A13D9414AD560A125ED009A
:1099F0005351654651513C4953503E4990510B6576
:109A0000CB648B644B64A2233349DB00C958D1502B
:109A1000019B002B2ED0314D374B28352E783749FE
:109A2000B600F618231C28331878321CFFF744FFC1
:109A3000231C29331878321C3149FFF73DFF0023DE
:109A4000264E30363370019B012B13D06D782A4B94
:109A5000AD00ED18231C2A3318782A492A1CFFF779
:109A60002BFF231C2B33187825492A1CFFF724FFD2
:109A70000023737002252C34019B9D4218D2174B92
:109A800020782833EE5C1C4BB600F6181E4B321CB7
:109A9000E9188900FFF710FF6078321C1B49FFF7B7
:109AA0000BFF00220D4B02343033EA540135E3E75B
:109AB0001748FFF7DFFE0123164A00201360074A0C
:109AC0003B605268022A06D9134A1360084A1360A1
:109AD00001E001204042FEBD00A00040D02B00204C
:109AE0005E4102005420002004050000FCA000405C
:109AF00000900040FC9000400060004040A1004009
:109B000048A1004044A100404E240010489100406C
:109B1000E99D01000CAC00400C9C00401FB50B4BB4
:109B200082009A185163012230331A5400236A4686
:109B300013701371FA2202926A465371044B6846FD
:109B40000393FFF799FE05B000BDC046D02B00205F
:109B5000A086010070B517490123174A002806D0D6
:109B60000B605268022A24D9144A136021E04B602A
:109B70005068022801D911494B600023834218D054
:109B8000111C2831595C0E4D45310E4CFF318900B6
:109B90000D51111C9C00083165580121A026A940D7
:109BA000094DF6057151111C00251831655001331E
:109BB000E4E770BD00A00040D02B002000900040E2
:109BC000001F0300006000400C050000A922F0B552
:109BD0007E4C7F49E36AD20023608B50606885B079
:109BE0000291022801D97B498B5000236364666C83
:109BF00063689E4200D3E6E0231C30339A5D002A5E
:109C000000D1DDE00022B50065199A556B6B019318
:109C1000934212D1231C28339B5D6F4945336F4A11
:109C2000FF339B0099500123AA68A02193406C4AFE
:109C3000C9058B50019BAB61C2E0019B21688B423F
:109C400012D3231C28339B5D634845336349FF339C
:109C50009B0058500123A968A0208B40A121C0057A
:109C6000C9004350AA61ABE0019BA364012E54D804
:109C7000331C5133FF33029A9B00D358544F039344
:109C8000E364AB69002B18D1231C28339E5DA968BF
:109C9000301CFFF71DFE0123524AAB61FB64BA582A
:109CA00001998A4231D94D4AB600B3502DE0785916
:109CB0000199FFF7E3FD00280CD10123029A494DD9
:109CC000D364029B03995859414FFFF7D7FD0028F1
:109CD000F3D0ECE77B59039A934203D37B59019A63
:109CE00093420BD33F4A029B9B58039A93420CD258
:109CF000374A3C4BD358019A934206D3231C012187
:109D000028339B5D354A9B009950636C029A51330E
:109D1000FF33A16C9B00D15052E0331C4F332D4FC9
:109D2000FF339B00DB590393E364AB69002B19D12C
:109D3000231C28339E5DA968301CFFF7C9FD012351
:109D4000284AAB61FB64BA5801998A4232D9234A46
:109D5000B600B3502EE01F4B01995859FFF78EFD06
:109D600000280BD101231B4A1E4DD364131C0399F9
:109D70005859FFF783FD0028F4D0ECE7154B039A00
:109D80005B59934204D3134B019A5B5993420AD314
:109D9000144B039AFB5893420CD20E4A114BD358E2
:109DA000019A934206D3231C012128339B5D0B4A61
:109DB0009B009950636CA26C4F33FF339B00FA50A9
:109DC000636C013312E705B0F0BDC046D02B002014
:109DD00000A0004000900040001F03000060004011
:109DE0000C0500004C050000064B02211A1C5032E5
:109DF00010B511701C1C002801D1FFF7E7FE201CD4
:109E0000503010BDD02B0020F0B585B000AF7A6087
:109E1000F973002B0CD101220F334000F918C0B2A6
:109E2000131C02F063F9012358404042C0B224E001
:109E300069466C465B00B960D91DC908C900611A42
:109E40008D460024FE7B9C420BDA6508AA190A5550
:109E50000A1994467A680234555D6246E4B2557038
:109E6000F1E74000DAB2C0B2012302F03FF901236A
:109E70005840BB6840429D46C0B2BD4640B205B0A6
:109E8000F0BD08B504F01EFC08BDF8B5161C002294
:109E90001D1C131C041CFFF7B7FF00281DD1012750
:109EA00064003C433B1CE0B2311C2A1C02F01EF94A
:109EB000042378404042C0B2C046C046C046C046B7
:109EC000C046C046C046C046C046C046C046C04662
:109ED000C046C046013B002BEED140B2F8BD0000A9
:109EE000002373B501AC23706370A3700C4B1A6828
:109EF0008123002A12D0131C2933051C566B1878B5
:109F0000221C0323FA21B04763781A0123781B032C
:109F10001343A278120913432B60031C58B276BD79
:109F2000282C002010B50D4B02111968C0100C88A8
:109F3000121B6400001B02240B5F5843131C534385
:109F400004240A5F1B135343C0129B13C31805203C
:109F50005843803000124B6210BDC046282C0020B0
:109F6000002373B501AC237063700B4B1A68812317
:109F7000002A0ED0131C2933051C566B1878221C9E
:109F80000223FD21B047237862781B0213432B6024
:109F9000031C58B276BDC046282C0020F0B51D4BDE
:109FA0001D4A1D6886036B6A1F219F181E23EA5EE7
:109FB000287F1205B41A2023EA5E80237A43DB014E
:109FC000A21AD218EB1C5956802378431B02C012E8
:109FD000C01880237943891241439B038912C91811
:109FE0001A23EC5E802361439B01CB189B13D21391
:109FF0005A43D3135B43287EDB1143431B11D31A0F
:10A00000D843C822C01703405205934200DD131CF9
:10A010001813F0BD282C002000D4FEFFF0B589B045
:10A0200001AC201C00211A2208F0AEF83F4D81201F
:10A030002B68002B00D175E01A1C29325E6B10785A
:10A040008821221C1A23B047627821782B681202DB
:10A050000A431A800322A256A17812020A435A80A8
:10A060000522A256217912020A439A80E279A17947
:10A0700012020A43DA800922A256217A12020A4306
:10A080001A810B22A256A17A12020A435A810D228A
:10A09000A256217B12020A439A810F22A256A17B6B
:10A0A00012020A43DA811122A256217C12020A43CB
:10A0B0001A821322A256A17C12020A435A82152246
:10A0C000A256217D12020A439A821722A256A17D2E
:10A0D00012020A43DA82627E061C1A761A1C2932A0
:10A0E00010785F6BE121221C0723B8470122A2569A
:10A0F000217812020A4303212B6880195A83A2781F
:10A10000C0B21A77615622790D010F2111402943FF
:10A11000D98305216156120909010A431A84A279DB
:10A120000333DA7740B209B0F0BDC046282C0020D6
:10A1300073B56A46D51D00222A70021C031C094E05
:10A14000293230605C6BD021107801232A1CA04793
:10A1500033682A7828331A70041CFFF75FFF001950
:10A1600040B276BD282C002073B56B46DD1D002360
:10A170002B700A4B1A688123002A0DD0131C293337
:10A18000041C566B18782A1C0123F421B0470323C2
:10A190002A7813402370031C58B276BD282C002067
:10A1A00013B56B46DA1DB6231370074B81201B686D
:10A1B000002B06D0191C293108781C6BE0210123E3
:10A1C000A04740B216BDC046282C002038B5084B29
:10A1D000041C1D688120002D07D0281C2930131C69
:10A1E00000780A1C211C2C6BA04740B238BDC04629
:10A1F000282C002038B5084B041C1D688120002D38
:10A2000007D0281C2930131C00780A1C211C6C6BF9
:10A21000A04740B238BDC046282C00200023F0B52E
:10A22000364C85B002AA571D5371961D9371D37198
:10A23000226803AD01902B7081209A425BD0019B74
:10A240002E32590113781F221A400B1C381C13435D
:10A250002B70FFF789FF3B78002B1ED0FFF7A0FF84
:10A26000236803209B6B9847236802AA2F331B782F
:10A27000D11DD371F5200122FFF7A8FF2368311CFF
:10A280002D331B780122F2203370FFF79FFF291C2A
:10A290000122F420FFF79AFF08E02368F4211A1C3A
:10A2A000293210781E6B2A1C0123B0476A462368A6
:10A2B00012792A331A70291C0122F420FFF79AFF21
:10A2C00023682A782E33061C1A70291C0122F220DA
:10A2D000FFF790FF23682A782D3380191A70C6B2D1
:10A2E0000122F520291CFFF785FF23682A78301802
:10A2F0002F331A70C0B240B205B0F0BD282C002038
:10A300000023F0B5374C85B002AA571D5371961D36
:10A310009371D371226803AD01902B7081209A4212
:10A320005CD0019B65389B000340191C2E321378CA
:10A3300083430B43381C2B70FFF716FF3B78002B31
:10A340001ED0FFF72DFF236803209B6B98472368DF
:10A3500002AA2F331B78D11DD371F5200122FFF7FC
:10A3600035FF2368311C2D331B780122F220337016
:10A37000FFF72CFF291C0122F420FFF727FF08E03C
:10A380002368F4211A1C293210781E6B2A1C012321
:10A39000B0476A46236812792B331A70291C0122B0
:10A3A000F420FFF727FF23682A782E33061C1A7043
:10A3B000291C0122F220FFF71DFF23682A782D3384
:10A3C00080191A70C6B20122F520291CFFF712FF6E
:10A3D00023682A7830182F331A70C0B240B205B003
:10A3E000F0BDC046282C00200023F0B5434C85B0BA
:10A3F00002AA551D9371D71DD371226803AE009038
:10A4000033702B7081209A4275D02D3213780099C9
:10A410007A38014083430B43381C3370FFF7A4FEA6
:10A420003B780190002B27D0FFF7BAFE2368071C6A
:10A430009B6B03209847236802AA2F331B78911D3A
:10A440009371F5200122FFF7C1FE019B311C3F18DB
:10A450000122F220FF18FFF7B9FE2368FFB22E3366
:10A460001B783F18291CF42001222B70FFF7AEFE49
:10A47000FFB23F18FEB216E02368F2211A1C2932FF
:10A4800010781F6B321C0123B8472368061C2E333B
:10A490001B78F420291C01222B70FFF797FE019BEB
:10A4A0003618F618F6B26A46144C1278236803ADD3
:10A4B0002C331A70291C0122F420FFF79BFE23681D
:10A4C0002A782E331A708619291C0122F220FFF7F0
:10A4D00091FE23682A78F6B22D3330181A70C6B26E
:10A4E0000122F520291CFFF785FE23682A78301801
:10A4F0002F331A70C0B240B205B0F0BD282C002036
:10A50000F7B56B466A46DE1C0023334C53719371DA
:10A51000D51D226801AF33703B702B708133002A48
:10A5200057D07D33032854D82E3213780322934317
:10A5300018433070381CFFF717FE3B78002B1FD0F4
:10A54000FFF72EFE236803209B6B98476A4623681B
:10A55000911D2F331B78F52093710122FFF736FEF2
:10A560006A462368511D2D331B78F2205371012256
:10A57000FFF72CFE311C0122F420FFF727FE08E034
:10A580002368F4211A1C293210781F6B321C012316
:10A59000B847291C0122F420FFF72CFE23682A78F3
:10A5A0002E331A70061C291C0122F220FFF722FE0E
:10A5B00023682A782D331A708619291C0122F52068
:10A5C000FFF718FE2268F6B2297833182F3211707F
:10A5D000DBB258B2FEBDC046282C00200023F0B5E7
:10A5E000394D85B002AA53719371D371971DD61D51
:10A5F0002A6803AC23708133002A62D01C212F32D9
:10A60000137880008B43084018432070381CFFF7F4
:10A61000ABFD3B780190002B27D0FFF7C1FD2B68E5
:10A62000071C9B6B03209847211C0122F520FFF794
:10A63000CDFD019B3F18FF182B68311C2D331B7873
:10A640000122F2203370FFF7C1FD2B6802AA2E33DE
:10A650001B78FFB23F185371511DF4200122FFF700
:10A66000B5FDFFB23F18FFB209E02B68F5211A1CB7
:10A67000293210781D6B221C0123A847071C211CBE
:10A680000122F420FFF7B6FD0F4D22782B68C71981
:10A690002E331A70211C0122F220FFF7ABFD2B682C
:10A6A00022782D33FFB21A703F18211C0122F520A9
:10A6B000FFF7A0FD2A68FFB221783B182F321170F6
:10A6C000DBB258B205B0F0BD282C002008B5174AFF
:10A6D000174B1A63174A5A631A1C29321070164A0C
:10A6E000181C9A63FFF724FD002801D013481BE0D3
:10A6F0000320FFF705FF0028F8D1FFF76FFF0028C0
:10A70000F4D10130FFF770FE0028EFD10130FFF7E0
:10A71000F7FD0028EAD10130FFF780FD0028E5D1E0
:10A72000FFF7EEFE0028E1D108BDC046099E0100FA
:10A73000543700208B9E0100839E010003200000FF
:10A74000002313B5041C036001A80193FFF7C8FBA5
:10A7500000280AD10198FFF7E5FB20600120FFF7F0
:10A76000CFFE002802D0024800E0024816BDC046D5
:10A770000120000002200000002313B5041C036028
:10A7800001A80193FFF7ECFB00280AD10198FFF71D
:10A7900005FC20600120FFF7B3FE002802D002482C
:10A7A00000E0024816BDC046012000000220000063
:10A7B000F0B5161C1822071C424303202E4B85B00F
:10A7C0009A18D36A0391184002280DD0111C203129
:10A7D000936A49685B1A013B01D5126A9B189E4235
:10A7E00002DD002845D01E1C0020864241D0019089
:10A7F0001822101C7843204B1818011C2031846A41
:10A800004968641A191C013C01D5036AE4187A43AB
:10A810008A18101C136A20300293536A029AD31AC2
:10A820009C4201DB4468141BB44200DD341C182335
:10A830001D1C781C43437D43CB184D196A6A586828
:10A8400003998018221C07F096FC019B361B1B19EC
:10A850000193039B029A1B1903936B6A20351C1901
:10A860006C606B68934201D100236B60002EBFD1F6
:10A87000019805B0F0BDC0465820002010B50A1E52
:10A8800006D00B1C1C785A1A002C01D00133F9E7B2
:10A89000FFF78EFF10BD002310B5934203D0CC5CB0
:10A8A000C4540133F9E710BD8218904202D0017000
:10A8B0000130FAE7704710B503681A1E10D01178FE
:10A8C00020290BD93A2901D00132F8E7591C1C780C
:10A8D0008A4205D1302C03D102330360002001E00D
:10A8E0000120404210BD10B50923002810D0026895
:10A8F000002A0DD0117800290AD0D48881888C4292
:10A9000006D1507801F036F90323C007C017034081
:10A91000181C10BDCB7E021C887E1B021843032A24
:10A9200005D14B7D0A7D1B0213431B04184370475E
:10A93000F8B5071CC56A30370123041C391C407860
:10A940002A1C01F0D9F90123002814D1236AA26935
:10A950002071EB1A934201D300230CE0E678012E1C
:10A96000FAD9A3696078ED18391C2A1C012301F07B
:10A97000C3F9013EF3E7181CF8BD08B5031C0279C2
:10A980000020824202D0181CFFF7D2FF08BD000051
:10A99000F8B5041CFFF7F1FF051E53D12378032BF4
:10A9A00048D16779012F45D1261C80223036301CD2
:10A9B000291C9200FFF778FF5522234B4121E254D6
:10A9C000224B9218E254221CDE3BFF3B31323370A3
:10A9D0001370231C6122323385201A705970722340
:10A9E000800023541A4823541A4BE1541A4BE25462
:10A9F0002369B832FF32A354184A190AA154184ADD
:10AA0000190CA154174A1B0EA354E3680132A35436
:10AA1000154A190AA154154A190CA154144A1B0EBF
:10AA2000A354E36960785A1CE262311C3B1C01F0BC
:10AA300063F96571002160780A1C01F0A9F9431ED1
:10AA40009841C0B2F8BDC0462E0200002F0200009F
:10AA50001502000016020000170200001902000093
:10AA60001A0200001B0200001D0200001E0200006E
:10AA70001F02000070B5C36A041C0E1C0025994219
:10AA800010D0FFF77AFF051E0CD1211C6078303101
:10AA9000321C012301F0F6F8002802D0012601350E
:10AAA0007642E662281C70BD002310B50371013B9D
:10AAB000C362041CFFF7DEFF011C0320002939D10B
:10AAC0001D4B1E4AE35CA25C1B0213431C4A1BB2D3
:10AAD000013893422ED1231C69331B78081C1A06B7
:10AAE000231C68331B781B041343221C6632127824
:10AAF0001343221C6732127812021343114A1B02BD
:10AB00001B0A934216D0231C85331878013B1B780F
:10AB100000061B041843231C82331B78833418431C
:10AB200023781B0218430002074B000AC018431E7B
:10AB30009841C0B210BDC0462F0200002E02000096
:10AB400055AAFFFF46415400BABEABFF0023F0B543
:10AB5000036089B0071C081C161CFFF7ACFE0B2312
:10AB6000051E00DA8FE1C94B8200D4580C23002C5B
:10AB700000D188E13C602378002B0DD0607800F094
:10AB8000F9FF0123034007D1002E00D17BE14207EA
:10AB900000D478E10A2376E10023E8B223706070E4
:10ABA00000F0F2FF0323C20700D56CE1002E01D0B4
:10ABB0004307EFD4201C0021FFF776FF012828D19E
:10ABC000231C0020F333FF3300221978914209D06F
:10ABD000DA7911069A7912040A4319790A435979E4
:10ABE00009020A43810004AD01304A5110330428A0
:10ABF000EAD1002504AB5E590220002E05D0201CAE
:10AC0000311CFFF751FF00280CD00435102DF1D175
:10AC100035E100260123032800D134E1B04201D000
:10AC20000D2330E1231C221C3C331B783B3212786D
:10AC30001B02134380221BB292009342F0D1231CCB
:10AC4000221C47331B78463212781B02134311D162
:10AC5000231C57331B781A06231C56331B781B04FE
:10AC60001343221C543212781343221C553212789B
:10AC7000120213430093009BA361231C40331A78F4
:10AC8000531EE270012BCBD8231C3D331978A170E1
:10AC90000029C5D04B1E1942C2D1231C42331F7854
:10ACA000013B1B783F021F4327813B07B8D1231C80
:10ACB00044331878013B1B780002184310D1231C41
:10ACC00053331878013B1B7800061B041843231CE0
:10ACD00050331B781843231C51331B781B02184335
:10ACE000231C251C3F331B783E352D781B021D434A
:10ACF000019595D0009B53430393039A3B095B193D
:10AD00009B18029398428BD3C01A04F099FF002835
:10AD100086D05F4B0125984204D95E4D8542AD41F6
:10AD20006D420235019B029A0230F318921960615C
:10AD3000E6612362A262032D17D1002F00D06FE7D6
:10AD4000231C5F331B7880001A06231C5E331B789C
:10AD50001B041343221C5C3212781343221C5D3205
:10AD600012781202134363620FE0002F00D157E7FD
:10AD7000039AD3186362022D01D1400005E003233A
:10AD80000122434310405B081818434BC018009B36
:10AD9000400A834200D243E701235B422361E36020
:10ADA00081336371032D61D1231C221C61331B7815
:10ADB000603212781B021343012B57D1711C201CE7
:10ADC000FFF758FE002851D1344B6071344AE35CE0
:10ADD000A25C1B021343334A1BB2934246D1231C8D
:10ADE00033331B781A06231C32331B781B0413439E
:10ADF000221C303212781343221C31321278120294
:10AE00001343294A934231D1284BE35C1A06284B5D
:10AE1000E35C1B04134385229200A25C1343254A82
:10AE2000A25C12021343244A93421FD1234BE35CDA
:10AE30001A06234BE35C1B04134386229200A25C98
:10AE40001343204AA25C1202134323611E4BE35CAE
:10AE50001A061E4BE35C1B04134387229200A25C7C
:10AE600013431B4AA25C12021343E360074A257096
:10AE7000938801339BB29380E380002303E0012396
:10AE8000032800D0CCE6181C09B0F0BD40300020EB
:10AE9000F50F0000F5FF0000FF0100002F02000089
:10AEA0002E02000055AAFFFF525261411702000016
:10AEB0001602000015020000727241611B020000C0
:10AEC0001A020000190200001F0200001E0200000A
:10AED0001D020000436902399A1E0023914203D2E9
:10AEE0008378826A59438B18181C7047F7B5012480
:10AEF000A14265D94369994262D203780E1C051CB0
:10AF0000022B2DD0032B3FD0A34259D14F087F18DD
:10AF1000036A790AC918FFF7ADFD002802D00124A1
:10AF200064424DE07B1CFF05590A0193FF0D2B6A1B
:10AF3000EF193037C918281C3F78FFF79BFD002810
:10AF4000EDD1019BD805C00D2D1830352B781B0293
:10AF50001F43264201D03C0932E03F053C0D2FE063
:10AF6000036A090AC918FFF785FD0028D7D1FF2316
:10AF700076005B001E40AB193036AD1930336C786B
:10AF80001B7824021C431BE0036AC909C918FFF798
:10AF900071FD0028C3D1FD30B600FF300640321CE1
:10AFA0003032AA189478D37824041B061C435378B3
:10AFB000AE191B0230361C4333781C43240124098C
:10AFC000201CFEBDF8B5051CE98084680E1C012C10
:10AFD00001D1022038E003685A699442F9D2002C6A
:10AFE0000BD11A78032A02D15A6A002A04D11A898D
:10AFF0009642EED2586A17E0141C211C9F783F013C
:10B00000BE420DD32868FFF771FF011C431C1AD004
:10B010000128DED92B685B699842DAD2F61BEFE78C
:10B0200028680C1CFFF756FFEC600028D1D00F21D8
:10B0300033093140181849012B68303159182861FB
:10B040006961002000E00120F8BDF7B5041C0E1C6A
:10B05000151C022001297DD9636999427AD227788B
:10B06000874245D0032F57D0012F73D14B085B186F
:10B07000590A0093236A201CC918FFF7FBFC00281B
:10B0800068D1009B3E4001330193009BEAB2DB058F
:10B09000DB0DE318002E08D01A1C303211780F2275
:10B0A0000A40E9B209010A43D2B230331A700123CF
:10B0B0002371019B201C590A236AC918FFF7DAFC87
:10B0C000002847D1019BDB05DB0DE218002E02D0E2
:10B0D0002D09EDB208E0131C303319780F232D0A27
:10B0E00099432B4019430D1C131C30331D702FE066
:10B0F000236A090AC918201CFFF7BCFC002829D1C3
:10B10000FF2376005B001E40A319303330361D70DC
:10B11000A6192D0A75701BE0236AC909C918201CDD
:10B12000FFF7A8FC002815D1FE23B6005B001E40E7
:10B13000331C3033E318DA78A619120912071543C5
:10B140002A0A303635705A702A0C2D0E9A70DD702E
:10B1500001232371FEBD0000F8B5051C0E1E06D1AB
:10B16000C768002F13D043699F4211D30FE0FFF748
:10B17000BDFE0124A04242D9431C02D101246442F5
:10B180003DE06B69041C371C984201D237E001276F
:10B190003C1C6B6901349C4204D3012F01D800246C
:10B1A0002DE00224281C211CFFF7A0FE002808D057
:10B1B000431C01D0012801D1041C20E0BC42E8D18D
:10B1C000EDE7281C211C0F4AFFF73FFF002813D191
:10B1D000002E0AD12B69EC605A1C10D00122013BD1
:10B1E0002B616B7913436B7109E0281C311C221C05
:10B1F000FFF72BFF0028EDD00128BFD00124201C31
:10B20000F8BDC046FFFFFF0FF7B5C6880136B3B2E1
:10B21000002B01D104206AE00369002BFAD00F2231
:10B2200032400F1C041C0192002A58D1C16801331E
:10B2300003610068002903D103899E42EAD24EE0EF
:10B2400082783309013A1A4249D1FFF74FFE051EB1
:10B25000012D01D802204AE0431C01D1012046E023
:10B26000206843699D4234D3002FD3D0E168FFF7B3
:10B2700073FF051C0720002D39D0012DEAD06B1C6F
:10B28000ECD02068FFF779FB0090031EE6D1802206
:10B290002068191C30309200FFF706FB2768291C34
:10B2A000381CFFF717FEF862009F23689A789742D0
:10B2B0000CD201221A712068FFF75FFB0028CDD164
:10B2C00022680137D36A0133D362EEE7DA6AD71B0B
:10B2D000DF62E5602068291CFFF7FCFD206100208B
:10B2E000019B22685B013033D318E6806361FEBDA9
:10B2F000F0B50B7885B0041C0D1C2F2B01D05C2BF6
:10B3000000D101350026A6602B781F2B06D8201C03
:10B31000311CFFF757FE6661D5E001352B782F2BE6
:10B32000FBD05C2BF9D0A66920210B22301CFFF743
:10B33000BBFA002108230A1C00910193009B0133F2
:10B340000293009BEB5C202B43D92F2B41D05C2B2D
:10B350003FD02E2B00D19BE00198814200D395E095
:10B3600058B2002801DA032002437F2084469C441F
:10B3700060466F46F873F87B1E2807D92020844664
:10B380009C446046F873F87B1C2819D8009802305A
:10B39000844602982F5C381C40383E2803D9403838
:10B3A000C0B27C2872D80198013881426ED27354A1
:10B3B0006346481C375402310293029B0093BDE759
:10B3C00000274248C05D00286BD001379842F8D171
:10B3D0005CE0029820272D1800209F424041830006
:10B3E000002953D03178E52901D1E0393170019934
:10B3F000082901D19200D2B203211140012902D1C2
:10B400000F310B43DBB20C210A40042A02D1043273
:10B410001343DBB2F372201C0021FFF7D3FD002899
:10B420001CD120682169FFF725FB002816D161692E
:10B430000B78002B11D00823CA7A1A4008D1A669CC
:10B440008B5CB05C0132181A02D10B2AF8D105E0EE
:10B45000201C0021FFF7D8FEE1E70420A369DB7A76
:10B46000002805D004282ED103422CD101302AE037
:10B470005B0728D46169CB7ADB0605D52368187889
:10B48000FFF748FAA06049E705201CE006201AE013
:10B49000019B082BFAD10B2392000199D2B20193A0
:10B4A0008BE71F1C413F192F02D802273A4307E0C0
:10B4B0001F1C613F192F03D80127203B3A43DBB201
:10B4C0007354013179E705B0F0BDC0467141020007
:10B4D00038B50021051CFFF775FD041E10D1286842
:10B4E0002969FFF7C7FA041E0AD16B691B78E52B9F
:10B4F0000AD0002B08D0281C0121FFF785FEECE7BD
:10B50000042C14D1033412E028682969FFF7B2FA39
:10B51000041E0CD16869211C2022FFF7C5F90B22FB
:10B520006869A969FFF7B7F901222B681A71201C15
:10B5300038BD70B5041C0D1E012D01D8022024E079
:10B5400043699942FAD263699D4205D2201C291CA5
:10B55000FFF7CCFC061E01D1002016E00128EDD03B
:10B56000431C11D0201C291C0022FFF76EFD00286F
:10B570000BD123695A1C05D0012201332361637961
:10B5800013436371351CDEE7012070BD1FB50190C8
:10B5900003A8141C00910391FFF78DF90B220028DA
:10B5A00017DB0D4B8000C258002A01D0002111701A
:10B5B000019A002A01D000211170019919500A1E28
:10B5C00007D00022012C04D101A86946FFF7BEFA7A
:10B5D000021C101C04B010BD40300020F0B58FB02C
:10B5E000051C03910920002D00D18CE0161C0023BE
:10B5F0001E222B60324007A803A9FFF7A7FA0028F4
:10B6000000D080E004AB07A803990D93FFF770FE0C
:10B610000C9C002802D1002C00D106301F271C23CF
:10B6200037401E4242D000280AD0042802D107A881
:10B63000FFF74EFF08230C9C1F43002807D062E051
:10B640001123E27A1A425DD1082073075BD43B07CD
:10B6500036D54A2300262374043B6374079BA673E4
:10B66000E673E67226776677A677E6771878211C68
:10B670000193FFF74FF90123019AA676E676267526
:10B68000667502901371B0421AD0101C0299D66AE6
:10B69000FFF74FFF002836D1029B0798013BC3609C
:10B6A000311CFFF7E7F900280AD02CE000282AD146
:10B6B000E37A0420DA0626D4B20701D5DB0721D4C9
:10B6C0003B0701D520231F43079E211CF36AAF715E
:10B6D0000027EB612C62EF713078FFF71BF92861CE
:10B6E000E37F381C1A06A37F1B041343227F1343F6
:10B6F000627FAF6012021343EB60AF612E60F3888C
:10B70000AB8000E007200FB0F0BDF0B51F1C002398
:10B7100085B03B60051C0091161CFFF7E4F800287B
:10B7200000D08BE0E879002800D087E0AB790730C3
:10B73000DB0700D482E0EB68AA68341C9B1A9E42A7
:10B740003BD91C1C39E0AA68D3055BD12868530A91
:10B750008678013E3340DBB20193002B30D02B685A
:10B760006969181C0293FFF7B5FB002831D0019BD3
:10B77000660AC3180393002E42D0029B019A9B785D
:10B78000B2189A4201D9019A9E1A029B00995878E0
:10B79000039A331C00F076FA00281ED129680B7931
:10B7A000002B1FD17602009BA41B9B190093AB6852
:10B7B0009B19AB603B689B193B60002CC3D13CE0FC
:10B7C000002A01D1286902E06969FFF78FFB01288F
:10B7D00001D8022002E0431C02D10120E8712DE0D3
:10B7E0006861BCE7CB6A039A981AB042DAD2802229
:10B7F000009B4002181830319200FFF74CF8D1E757
:10B80000039BAB618022AB689200DB05DB0DD31A92
:10B81000261E9E4200D91E1C2868A969FFF72AF936
:10B820000028DAD1AB680098D905C90D2B683031F2
:10B830005918321CFFF72FF8B5E7201C05B0F0BDF2
:10B84000F0B51F1C002385B03B60041C0191151C42
:10B85000FFF749F8002800D0B1E0E379181E00D0C6
:10B86000ADE0A2790720920700D4A8E0A268A91849
:10B8700091425B415B421D40002D16D0A268D3056A
:10B8800070D12068530A817801390B40DBB20293F2
:10B89000002B1FD1002A03D1216900290CD100E01F
:10B8A0006169FFF759FC011E06D1A368E268934263
:10B8B00000D87FE0E3607DE0012901D1022002E0B1
:10B8C0004B1C02D10120E07179E023696161002BFA
:10B8D00000D121612068A269C36A934203D1FFF7B6
:10B8E0004CF80028EED126686169301CFFF7F2FAA7
:10B8F0000028E3D0029BC31803936B0A009323D064
:10B90000009A0299B37852189A4201D95B1A0093AF
:10B9100070780199039A009B00F0EEF9061ED1D1D0
:10B920002068039AC36A991A009B994209D280221F
:10B93000019B4902591830309200FEF7ACFF236892
:10B940001E71009B5E022AE0A368E268934207D35F
:10B95000301CFFF712F80028B4D12368039ADA628A
:10B96000039BA3618022A3689200DB05DB0DD31A41
:10B970002E1E9E4200D91E1C2068A169FFF77AF88E
:10B9800000289FD1A368321CD805C00D2368303031
:10B9900018180199FEF77FFF012322681371019B9C
:10B9A000AD1B9B190193A3689B19A3603B689B196E
:10B9B0003B6061E720220020A3791343A37105B007
:10B9C000F0BD38B5041CFEF78EFF002830D12025CD
:10B9D000A3792B422CD02068E169FFF74BF80028AF
:10B9E00026D1236ADA7A2A43DA72227B1A77627BBB
:10B9F0005A77E268120C9A77E268120EDA772269B7
:10BA000098759A76110A120C1A75120A5A754A22FA
:10BA10001A76043AD976D8755A769874D874A37978
:10BA20002268AB43A371012313712068FEF7B0FFB6
:10BA300038BD10B5041CFFF7C4FF002805D1201C39
:10BA4000FEF751FF002800D1206010BDF7B5041C9F
:10BA50000D1CFEF748FF002877D1E079002874D14B
:10BA6000E3689D4203D9A279920700D41D1C0022ED
:10BA7000A368A260954201D1002056E02768BE78F5
:10BA80007602002B14D0013B311C681E009304F099
:10BA9000D7F8311C0190009804F0D2F8019B834242
:10BAA00006D3009A73421A40A260AD1A616911E090
:10BAB000216900290DD1381CFFF74EFB011E012919
:10BAC00001D1022002E0431C02D10120E0713CE0E0
:10BAD000206161610029CFD0B5421AD9A3792068CD
