:020000021000EC
:106000000040002099E40100E1E4010015B6010020
:106010000000000000000000000000000000000080
:10602000000000000000000000000000E5E40100A6
:106030000000000000000000E7E40100E9E40100C6
:10604000EBE40100EBE40100EBE40100EBE4010010
:10605000EBE40100000000004DE00100EBE4010072
:10606000EBE40100EBE4010095980100EBE4010092
:10607000EBE40100EBE40100EBE40100EBE40100E0
:10608000EBE401005DC80100EBE40100EBE401007A
:10609000FDC80100EBE4010029C10100EBE40100AF
:1060A000EBE40100EBE40100000000000000000050
:1060B00000000000000000000000000000000000E0
:1060C000164B002B00D1144B9D46402292029A1A87
:1060D000924600218B460F461348144A121A0BF0C1
:1060E00007FE0F4B002B00D098470E4B002B00D023
:1060F00098470020002104000D000D48002802D020
:106100000C4800E000BF0BF0B5FD2000290005F0B1
:1061100049FC0BF099FDC04600000800004000203B
:106120000000000000000000382100206C37002033
:10613000000000000000000077DF704778DF704744
:106140007ADF70477CDF704760DF704768DF704739
:10615000A023EF220321DB05D20030B5A120995006
:106160008022C000D2051A500C2204250B4C1A5173
:106170000B4C1D510B4C1A51043C19518024E40066
:106180001C50E320C0001A5010381A5006481A500C
:10619000E222D2009950054A995030BD54070000C0
:1061A000240700002C0700000C0700001C0700005B
:1061B000A023EE210322DB05C9005A5005495A509D
:1061C000A1228021D200490599508021890599504A
:1061D0007047C04674070000002307B502200093F3
:1061E0000A2115221A4B06F047FD002803D03D2155
:1061F000184A05F0C1F918480121184A06F09CFD1B
:10620000002803D04021134A05F0B6F914480121B3
:10621000144A06F091FD002803D041210D4A05F0F3
:10622000ABF911480121114A06F086FD002803D080
:106230004221084A05F0A0F90D4801210D4A06F057
:106240007BFD002803D04321024A05F095F907BDE4
:1062500038210020542502002037002031B90100E8
:1062600048330020917701005033002089B90100A4
:10627000C43300209DB90100164910B504205831DF
:1062800007F030FF002803D04B21134A05F074F9C2
:10629000C122124992008858114B124C0340C02071
:1062A000000403438B501049201C0A1C0F4B07F0BD
:1062B0004DFF002803D05021074A05F05DF92078F2
:1062C00007F068FF002803D05221034A05F054F973
:1062D00010BDC046B82800205425020000E100E0AF
:1062E000FFFF00FF4C330020400820002977010009
:1062F0001FB5012202AC23781F4993432370082065
:1063000028314F32002305F0DFFE002803D0612141
:106310001A4A05F031F9002301A80370FFF714FFB2
:10632000002803D06921154A05F026F9144805F024
:10633000E7FE002803D06D21104A05F01DF9114831
:1063400005F0E8FE002803D070210C4A05F014F98E
:106350000420FFF7F1FE002803D07321074A05F05F
:106360000BF90120211CFFF7F1FE002803D0762154
:10637000024A05F001F91FBD38290020542502000A
:10638000D9B70100FDB70100064A08B5082014215D
:10639000783207F06FFF002803D07D21024A05F014
:1063A000EBF808BD38290020542502001FB506F07F
:1063B00097FF002803D08A21194A05F0DDF8A223AF
:1063C000A022DB00D205D2580123920893436A46EB
:1063D0006846137007F088FB002803D09021104A0C
:1063E00005F0CAF80A200021684406220BF080FC60
:1063F0001E2301ACE380113B2372063B6372093319
:10640000A372084B084801930123211C237107F054
:10641000D9FB002803D09F21014A05F0ADF81FBD2C
:1064200054250200C1B70100553300201FB50023D9
:1064300001A8134905220370FFF784FE002803D04A
:10644000B021104A05F098F80020FFF777FE0028E9
:1064500003D0B3210B4A05F08FF8002302A8436054
:1064600050330380503343802833C380FFF768FEE6
:10647000002803D0BD21034A05F07EF805B000BD19
:106480005E2502005425020030B5204D95B001ACC8
:106490000021BC22281C0BF02BFC00210C22201C0C
:1064A0000BF026FC1A4BF12201930123281C2371C7
:1064B000211CEF336271A2712372E2716372A372C5
:1064C000E37204F04BFA002803D0F221114A05F0E0
:1064D00053F84022002104A80BF00AFC04A80E493E
:1064E00005F08EFD112213AB1A704D2300226B4470
:1064F00004A81A7005F0B6FC002804D08021054AD3
:10650000490005F039F815B030BDC046C833002049
:1065100005B80100542502006425020030B59FB083
:106520006B46DD1D062302AC00213822201C2B7097
:106530000BF0DEFB02230021237010A8013B382260
:10654000A370A380A5600BF0D3FB201C10A905F05D
:10655000EFFF002804D08D21024A490005F00CF815
:106560001FB030BD5425020010B588B001AC201C0E
:1065700000211C220BF0BCFB0C4B201C6360A023F1
:10658000DB02A36005232373043B2374084B636180
:10659000084BA36106F070F8002804D09821064A41
:1065A000490004F0E9FF08B010BDC04655D5000011
:1065B000ADB601009DB601005425020008B501F0FA
:1065C0006FF8002804D03821214AFF3104F0D4FFAD
:1065D00002F02EFF002804D09D211D4A490004F03E
:1065E000CBFF05F003FB002805D19F211948490086
:1065F000174A04F0C1FF362001F0A6F9002804D0A4
:106600004221134AFF3104F0B7FF342002F062FD4B
:10661000002804D0A2210E4A490004F0ADFF7320E7
:1066200001F042FA002804D04821094AFF3104F061
:10663000A3FF762004F05AF8002804D0A521044ACC
:10664000490004F099FF682003F040FB08BDC046F4
:106650005425020001100000FA2010B5C00007F018
:10666000E5FD404C201C00F0EDFC002804D0622128
:106670003D4AFF3104F080FF00F0FEFC002804D00A
:10668000B121394A490004F077FF201C00F00CF9D1
:10669000002804D0B321344A490004F06DFF00F013
:1066A0001DF9002804D068212F4AFF3104F064FF4F
:1066B000201C00F0ABFD002804D06C212A4AFF31D9
:1066C00004F05AFF00F0BCFD002804D0B621264A91
:1066D000490004F051FF201C00F0FEF9002804D00E
:1066E0007621214AFF3104F047FF00F00DFA00281F
:1066F00004D0BB211C4A490004F03EFF201C00F0DE
:10670000D3F9002804D0BD21174A490004F034FF12
:10671000201C00F0BFFA002804D08021124AFF316B
:1067200004F02AFF201C00F0A7F9002804D08421DF
:106730000D4AFF3104F020FF00240C4B201C1C707C
:1067400001F074F8A0210A4B09031868221C06F016
:1067500019FBA04204D0C621034A490004F00CFFF3
:1067600010BDC046C8330020542502005433002019
:10677000483300200122A02008B50D490D4BC0026E
:106780005A500D495850A120C000195811431950B2
:106790001A600A4B0A491868002206F0F3FA00282A
:1067A00004D0CB21074A490004F0E6FE08BDC046EC
:1067B0000C050000000001400405000050330020DB
:1067C00055D500005425020000B5174BA1B01A7E24
:1067D000164B1B7E1343164A127E1343154A127E34
:1067E0001343154A127E1343144A127E134303D1F6
:1067F000134B1B7E002B14D0124B0B211868002268
:1068000006F0C0FA002804D0E5210F4A490004F040
:10681000B3FE0E4968460BF045FB0020694602F0C6
:10682000D3FC21B000BDC04678330020883400205E
:10683000A03300200037002058330020A834002067
:106840002833002020370020542502006E25020046
:1068500000B50B4BA1B0186806F0DCFA002804D094
:10686000EB21084A490004F087FE684606490BF010
:1068700019FB6946002002F0A7FC21B000BDC0460C
:10688000203700205425020099250200014B18688A
:106890007047C0460C2B0020024A13680133136076
:1068A0007047C0460C2B002010B5A0B0041C09494D
:1068B00068460BF0F7FA6946002002F085FC0020DC
:1068C00000210122044B186159611C601A7620B026
:1068D00010BDC046032602007833002030B5A1B0B9
:1068E0001D4968460BF0DEFA0020694602F06CFC98
:1068F0001A4C00222368251C3633187800232261A5
:1069000063610123034023764009042813D808F06B
:1069100041FF03050B0D0F00114800E0114805F081
:1069200065F8A860E9600BE00F48F8E70F48F6E764
:10693000FA208000F3E70E4805F058F8A060E16007
:1069400068460C490BF0AEFA6946002002F03CFCA8
:10695000002021B030BDC046102602007833002050
:106960008096980040420F00A0860100102700008A
:10697000C0D401003326020030B5A9B002A803F04C
:106980000BFF041E08D008A815490BF08BFA08A9C4
:10699000002002F019FC20E0029DFFF777FF0223A0
:1069A000012201900F49009503A80BF059FA0E49F6
:1069B00003A805F06DF8029A0C4908A80BF050FAEC
:1069C00008A9201C02F000FC094B02A91868042247
:1069D000012304F07BFA05F00BF8201C29B030BD30
:1069E0004F26020074260200822602008B26020037
:1069F0007833002030B51D4BA1B01A7E002A01D19A
:106A000000242FE001201C695D6900210019694103
:106A1000DA68186159618A4207D802D19A688242BD
:106A200003D800200021186159611A69012AE7D1B1
:106A30005A69002AE4D10E490C78002C0DD1FFF7D9
:106A40009BFF051E0ED00B4968460BF02BFA201C4D
:106A5000694602F0B9FB2C1C04E000200021141C44
:106A600018615961201C21B030BDC0467833002028
:106A7000543300209A26020010B5A0B0041C084927
:106A800068460BF00FFA6946002002F09DFB0020DB
:106A90000021044B186159611C60187620B010BDAC
:106AA000032702002833002010B5A0B0041C0849B9
:106AB00068460BF0F7F96946002002F085FB0020DC
:106AC0000021044B186159611C60187620B010BD7C
:106AD000B22702005833002010B5A0B0041C0849AA
:106AE00068460BF0DFF96946002002F06DFB0020DC
:106AF0000021044B186159611C60187620B010BD4C
:106B0000322802000037002030B5A1B01B4968468A
:106B10000BF0C8F90020694602F056FB184C002221
:106B20002368251C623318780023226163610123E6
:106B300003402376400903280FD808F02BFE0204F7
:106B40000A0C104800E0104804F050FFA860E9600B
:106B500009E00E48F8E70E48F6E7FA20C00004F016
:106B600045FFA060E16068460A490BF09BF9694661
:106B7000002002F029FB002021B030BD4028020097
:106B8000003700208096980040420F00A086010048
:106B9000102700006528020010B5A6B002A800F07A
:106BA00011FA041E08D006A814490BF07BF906A9B7
:106BB000002002F009FB1EE0029B012200930190DD
:106BC00005230F4903A80BF04BF90E4903A804F065
:106BD0005FFF029A0C4906A80BF042F906A9201C97
:106BE00002F0F2FA094B02A918680422032304F008
:106BF0006DF904F0FDFE201C26B010BD82280200B5
:106C00007426020082260200B1280200003700200C
:106C100030B51D4BA1B01A7E002A01D100242FE00F
:106C200001201C695D69002100196941DA68186159
:106C300059618A4207D802D19A68824203D800205B
:106C40000021186159611A69012AE7D15A69002A9D
:106C5000E4D10E490C78002C0DD1FFF79DFF051EE5
:106C60000ED00B4968460BF01DF9201C694602F056
:106C7000ABFA2C1C04E000200021141C186159619F
:106C8000201C21B030BDC046003700205433002006
:106C9000C228020010B5A0B0041C094968460BF0D8
:106CA00001F96946002002F08FFA0020002101223C
:106CB000044B186159611C601A7620B010BDC046A3
:106CC0002E290200A8340020F0B5A5B00F1C0390B7
:106CD000111C181C1C1C151C08F066FD0290381CA9
:106CE0000AF082FD021C0B1C0020704909F0B8FA62
:106CF000061C0F1C281C0AF077FD321C3B1C09F0F7
:106D0000EDFE08F031FF0090201C0AF06DFD3B1CE9
:106D1000321C09F0E3FE08F027FF039B041C002B44
:106D200003D1009B04011B01009302980AF05CFD53
:106D300000225F4B061C0F1C08F0CEFE051E2ED055
:106D400000980AF051FD5B4A041C0D1C301C391CD4
:106D5000594B07F0CBFB594A00900191584B201C2E
:106D6000291C09F0BBFE574A061C0F1C564B201C61
:106D7000291C09F0B3FE009A019B09F0AFFE021C2A
:106D80000B1C301C391C0AF043F908F0EDFE2A9B5D
:106D90004E49186004A80BF085F8002027E0301C4D
:106DA000391C4B4A4B4B08F097FE0290002822D02A
:106DB00000980AF019FD484A484B09F08FFE061C5E
:106DC000201C0F1C0AF010FD3E4A454B09F086FEC0
:106DD0000B1C021C391C301C0AF01AF908F0C4FE06
:106DE0002A9B4049186004A80BF05CF8281C04A9F1
:106DF00002F0EAF956E0301C391C3B4A3B4B08F0E4
:106E00006BFE051E1FD000980AF0EEFC384A394B85
:106E100009F064FE061C201C0F1C0AF0E5FC364A33
:106E2000364B09F05BFE021C0B1C301C391C0AF0AF
:106E3000EFF808F099FE2A9B3149186004A80BF07E
:106E400031F80298D3E7391C301C2E4A2E4B08F03B
:106E500043FE071E1CD000980AF0C6FC2B4A2C4BA0
:106E600009F03CFE061C201C0F1C0AF0BDFC294A40
:106E7000294B09F033FE0B1C021C391C301C0AF094
:106E8000C7F808F071FE2A9B2449186004A8ABE7F4
:106E9000234904A80BF006F8381C04A902F094F961
:106EA0002A9B1F60012025B0F0BDC046002079401C
:106EB0000000E03F666666666666F63FC58F31771E
:106EC0002D219F3F5839B4C876BEAF3FAA29020092
:106ED00085EB51B81E85E33FC7BAB88D06F0963FE3
:106EE00076BE9F3FB52902009A9999999999E93FF1
:106EF0002D431CEBE2368A3F4BC8073D9B558F3F25
:106F0000C1290200CDCCCCCCCCCCF43FB263231051
:106F1000AFEB573FD2FBC6D79E59523FCC29020058
:106F2000D729020037B5064D069CAA4201D0AB42D4
:106F300002D10020206002E00094FFF7C5FE3EBDB4
:106F4000FFFF000073B56B460D1CD91D0F230122F6
:106F5000114E1840B378184308703078131C400065
:106F6000C0B204F07DFE0D4C002803D1FF230020A9
:106F700023700FE000231420237007F057F901233A
:106F80003078291C40001843C0B2022204F068FE89
:106F90000028EBD076BDC04600200020C834002079
:106FA00038B5031C064C0D1C607B191CFFF7CAFF8B
:106FB000002803D0A07B291CFFF7C4FF38BDC046C2
:106FC00000200020F0B50024A5B0164D164E039009
:106FD000164904A82C7034700AF064FF04A9201C20
:106FE00002F0F2F8301C291CFFF7DAFF071EA74257
:106FF00009D10F4904A80AF055FF381C04A902F072
:10700000E3F80C480CE00C4B0399187832782B7895
:1070100000910A498968FFF785FF094B9870201C89
:1070200025B0F0BD2437002026370020342A020086
:10703000552A0200252000002737002000200020CC
:10704000142B002010B5A0B0041C094968460AF0B2
:1070500029FF6946002002F0B7F800200021012234
:10706000044B186159611C601A7620B010BDC046EF
:10707000642A02008834002030B5A1B01B4968465C
:107080000AF010FF0020694602F09EF8184C00221A
:107090002368251C0133D87F00232261636101230B
:1070A00003402376400903280FD808F073FB02043D
:1070B0000A0C104800E0104804F098FCA860E96051
:1070C00008E00E48F8E70E48F6E70E4804F08EFC9C
:1070D000A060E16068460C490AF0E4FE69460020C1
:1070E00002F072F8002021B030BDC0461327020024
:1070F000883400208096980040420F00A08601004E
:1071000010270000C0D40100732A020030B5A9B0D6
:1071100002A803F025FB041E08D008A815490AF0B0
:10712000C1FE08A9002002F04FF820E0029DFFF701
:10713000ADFB01220190131C0F49009503A80AF032
:107140008FFE0E4903A804F0A3FC029A0C4908A87C
:107150000AF086FE08A9201C02F036F8094B02A9A5
:1071600018680422231C03F0B1FE04F041FC201C2B
:1071700029B030BD912A0200742602008226020046
:10718000BB2A02008834002030B51D4BA1B01A7E06
:10719000002A01D100242FE001201C695D69002133
:1071A00000196941DA68186159618A4207D802D129
:1071B0009A68824203D800200021186159611A6937
:1071C000012AE7D15A69002AE4D10E490C78002C33
:1071D0000DD1FFF79BFF051E0ED00B4968460AF044
:1071E00061FE201C694601F0EFFF2C1C04E000202A
:1071F0000021141C18615961201C21B030BDC0460B
:107200008834002054330020CC2A020010B5A0B0EE
:10721000041C094968460AF045FE6946002001F051
:10722000D3FF002000210122044B186159611C602A
:107230001A7620B010BDC0463B2B0200A0330020C0
:1072400030B5A1B01B4968460AF02CFE0020694603
:1072500001F0BAFF184C00222368251C4C33187823
:107260000023226163610123034023764009032840
:107270000FD808F08FFA02040A0C104800E01048FA
:1072800004F0B4FBA860E96008E00E48F8E70E4897
:10729000F6E70E4804F0AAFBA060E16068460C49DE
:1072A0000AF000FE6946002001F08EFF002021B0A8
:1072B00030BDC046492B0200A033002080969800C4
:1072C00040420F00A086010010270000C0D401003A
:1072D0006C2B020030B5A9B002A803F079FA041EA5
:1072E00008D008A815490AF0DDFD08A9002001F022
:1072F0006BFF20E0029DFFF7C9FA032301220190F2
:107300000F49009503A80AF0ABFD0E4903A804F04D
:10731000BFFB029A0C4908A80AF0A2FD08A9201C8C
:1073200001F052FF094B02A918680422022303F05E
:10733000CDFD04F05DFB201C29B030BD892B02007F
:107340007426020082260200AF2B0200A033002028
:1073500030B51D4BA1B01A7E002A01D100242FE0C8
:1073600001201C695D69002100196941DA68186112
:1073700059618A4207D802D19A68824203D8002014
:107380000021186159611A69012AE7D15A69002A56
:10739000E4D10E490C78002C0DD1FFF79BFF051EA0
:1073A0000ED00B4968460AF07DFD201C694601F0AD
:1073B0000BFF2C1C04E000200021141C18615961F3
:1073C000201C21B030BDC046A03300205433002023
:1073D000BE2B02000123C046C046C046C046C04680
:1073E000C046C046C046C046C046C046C046C0466D
:1073F000C046013B002BEED170470000002008B5CD
:10740000011C021C03F000FA064BEC221860A023BA
:107410000321DB05D20099508021A1224904D2002A
:10742000995008BD182B002080B5021C6846CB1D62
:10743000DB08DB00C31A00AF9D46044B89B2186815
:107440006B4603F03DFABD4680BDC046182B0020B8
:10745000B0B5031C6846CA1DD208D200821A00AF1C
:1074600095460C1C68466C44A04203D0FF2505706D
:107470000130F9E7034889B2006803F021FABD46FC
:10748000B0BDC046182B002037B5094C6B46DD1D3A
:10749000281C0121FFF7DCFF2B78FF2B04D0013CD7
:1074A000FFF798FF002CF1D1601E8441E0B23EBD91
:1074B00020A1070007B5A1238021A0224904DB00F9
:1074C000D205D1506B460121D81DFFF7C1FF07BD82
:1074D00013B5A0228021094BD2054904D1506B4637
:1074E0000121D81DFFF7B4FFFFF7CEFF041E02D124
:1074F000FFF7E0FF00E00124201C16BD0C05000092
:10750000F7B5071C0E1C0F4D01AC201C0121FFF725
:107510009FFF2378FF2B0DD023780020FE2B0FD167
:10752000381C311CFFF794FF201C0221FFF790FF4D
:10753000012005E0013DFFF74DFF002DE4D1EBE711
:10754000FEBDC046A0860100F7B5071C0E1CFFF764
:107550009BFF041E1CD001AD281C01212E700124AC
:10756000FFF762FFFD2E13D08021381C8900FFF742
:107570005BFF281C0221FFF76BFF211C281CFFF773
:1075800067FF1F232C781C40053C63425C41E4B23A
:10759000201CFEBD30B543B285B0041C0D1C002B71
:1075A00007DA37200021FFF7F5FF01283AD87F23BB
:1075B0001C400C2C0ED1402302A8234303702B0E39
:1075C00043702B0C83702B0AC37005719523002C1C
:1075D0000FD00AE0002CEED0FFF76CFFFFF778FF2A
:1075E000031CFF20002B1DD0E5E78723082C00D0CB
:1075F000863B06214371FFF717FF6B46DD1D0C2C00
:1076000003D1281C0121FFF723FF0A24281C012194
:10761000FFF71EFF287843B2002B03DA013CE4B2E7
:10762000002CF3D105B030BD00B5A1B068460A49C1
:107630000AF038FC6946002001F0C6FD0122074B24
:1076400003211A700022064B1D201A70803201F0AF
:1076500053FF21B000BDC0462A2C02001C2B002085
:10766000C033002000B5A1B068460A490AF01AFCF0
:107670006946002001F0A8FD0122074B03215A7042
:107680000022064B1D201A70803201F035FF21B018
:1076900000BDC046422C02001C2B0020C03300203D
:1076A00000200122024B1870024B1A707047C0462E
:1076B000C03300209833002010B5041CA0B000286F
:1076C00002D0FFF7B1FF0CE0074968460AF0EAFB79
:1076D000201C694601F078FD044B1D201C7001F050
:1076E000D7FE20B010BDC046562C02001C2B002037
:1076F00010B5041CA0B0002802D0FFF7B3FF0CE0C7
:10770000074968460AF0CEFB201C694601F05CFD83
:10771000044B1D205C7001F0BBFE20B010BDC046C4
:107720006F2C02001C2B002070B580252D01A0B00D
:10773000061C0C1C284202D00020FFF7BDFF2C4283
:1077400001D0FFF771FF8025AD032E4202D000204B
:10775000FFF7CEFF2C4201D0FFF784FF630610D560
:10776000094968460AF09EFB0020694601F02CFD9D
:10777000684600F041F9002803D04A21034A03F08B
:10778000FBFE20B070BDC046842C02009D2C020080
:10779000012070B5A026A225011CF605ED001E4CA7
:1077A00072592378D20AA2B09143994202D058402C
:1077B000FFF782FF0120011C72596378520D91433B
:1077C000994202D05840FFF793FF144B1D78002DCB
:1077D00020D1134902A80AF065FB281C02A901ADBB
:1077E00001F0F2FC281C00F0FBF800280ED12178F3
:1077F0006A780123002900D1637802A809490AF0B8
:107800002FFB02A9002001F0DFFC03E06421064AFF
:1078100003F0B2FE22B070BD1C2B002054330020B8
:10782000E02C0200FB2C02009D2C0200002809D055
:107830008021A123A022DB00D205C905D15001225D
:10784000014B1A707047C04698330020B0B5131C26
:107850006C460833DB08DB00E31A00AF9D466C463C
:1078600000232070D8B2904204D2CD5CE01845705D
:107870000133F7E7064B211C1878012304F0F0F9D7
:10788000002801D0002000E00248BD46B0BDC0463F
:107890001E2B00200140000073B56B46141C012212
:1078A000154ED9710733051C191C3078131C04F0D0
:1078B000D7F900281BD001233078291C1843221C3B
:1078C00004F0CEF9002814D00423C046C046C046B8
:1078D000C046C046C046C046C046C046C046C04678
:1078E000C046C046C046013B181EEED102E0034828
:1078F00000E0034876BDC0461E2B0020014000007A
:107900000240000013B501AC201C0C210222FFF73D
:10791000C3FF002801D00B4813E0202263780C201D
:107920009343211C1E3A6370FFF790FF0028F2D1A9
:1079300020706070211C1A300222FFF787FF002898
:10794000E9D116BD0440000037B5234B400001AC1F
:1079500018701821201C0222FFF79EFF002801D07A
:107960001E4837E0201C08210222FFF795FF00285F
:10797000F6D120706070211C06300222FFF766FFEE
:107980000028EDD120706070211C0A300222FFF720
:107990005DFF0028E4D17C23FF251830211C022242
:1079A00023706570FFF752FF0028D9D197230C3060
:1079B0002370211C3B3B02226370FFF747FF002826
:1079C000CED12070211C143002226570FFF73EFFDB
:1079D0000028C5D13EBDC0461E2B0020034000003C
:1079E00008B504210222FFF757FF002800D0014804
:1079F00008BDC0460540000037B501AD041C1A2182
:107A0000281C0222FFF748FF00281CD101222B78F6
:107A1000134201D0207013E002210B420AD104224C
:107A2000134201D021700BE0190701D5032306E0B2
:107A3000D90601D5227003E09B0601D505232370EA
:107A4000FFF760FF00E001483EBDC0460640000071
:107A50000423C046C046C046C046C046C046C046D5
:107A6000C046C046C046C046C046C046C046013BB0
:107A7000002BEED17047000007B5094A01AB187022
:107A800059701078191C0222012304F0E9F800282B
:107A900003D0FFF7DDFF002000E002480EBDC04626
:107AA0001F2B00201640000010B50F4C6378002BF0
:107AB00017D1FF21400020700320A170FFF7DCFFE9
:107AC000011E01D009480DE00220FFF7D5FF011E7D
:107AD000F8D10120FFF7D0FF0028F3D10123637014
:107AE00000E0034810BDC0461F2B002007400000E7
:107AF00006400000002310B5934203D0CC5CC45470
:107B00000133F9E710BD8218904202D001700130B4
:107B1000FAE7704710B503681A1E10D011782029B3
:107B20000BD93A2901D00132F8E7591C1C788A4256
:107B300005D1302C03D102330360002001E0012085
:107B4000404210BD10B50923002810D00268002A59
:107B50000DD0117800290AD0D48881888C4206D1B2
:107B6000507801F035F90323C007C0170340181CF3
:107B700010BDCB7E021C887E1B021843032A05D150
:107B80004B7D0A7D1B0213431B0418437047F8B555
:107B9000071CC56A30370123041C391C40782A1C95
:107BA00001F0D8F90123002814D1236AA2692071B9
:107BB000EB1A934201D300230CE0E678012EFAD9A8
:107BC000A3696078ED18391C2A1C012301F0C2F961
:107BD000013EF3E7181CF8BD08B5031C027900202C
:107BE000824202D0181CFFF7D2FF08BDF8B5041C72
:107BF000FFF7F2FF051E53D12378032B48D1677995
:107C0000012F45D1261C80223036301C291C9200C1
:107C1000FFF779FF5522234B4121E254224B921862
:107C2000E254221CDE3BFF3B313233701370231CC5
:107C30006122323385201A705970722380002354D8
:107C40001A4823541A4BE1541A4BE2542369B832B0
:107C5000FF32A354184A190AA154184A190CA15406
:107C6000174A1B0EA354E3680132A354154A190A9C
:107C7000A154154A190CA154144A1B0EA354E369CC
:107C800060785A1CE262311C3B1C01F063F965719B
:107C9000002160780A1C01F0A9F9431E9841C0B286
:107CA000F8BDC0462E0200002F02000015020000A1
:107CB0001602000017020000190200001A0200005C
:107CC0001B0200001D0200001E0200001F02000037
:107CD00070B5C36A041C0E1C0025994210D0FFF732
:107CE0007BFF051E0CD1211C60783031321C012332
:107CF00001F0F6F8002802D0012601357642E6624E
:107D0000281C70BD002310B50371013BC362041C25
:107D1000FFF7DEFF011C0320002939D11D4B1E4A4D
:107D2000E35CA25C1B0213431C4A1BB20138934262
:107D30002ED1231C69331B78081C1A06231C6833B8
:107D40001B781B041343221C663212781343221C37
:107D50006732127812021343114A1B021B0A934224
:107D600016D0231C85331878013B1B7800061B04B2
:107D70001843231C82331B788334184323781B0257
:107D800018430002074B000AC018431E9841C0B2B6
:107D900010BDC0462F0200002E02000055AAFFFFB2
:107DA00046415400BABEABFF0023F0B5036089B072
:107DB000071C081C161CFFF7ADFE0B23051E00DA7E
:107DC0008FE1C94B8200D4580C23002C00D188E1EC
:107DD0003C602378002B0DD0607800F0F9FF012380
:107DE000034007D1002E00D17BE1420700D478E1A7
:107DF0000A2376E10023E8B22370607000F0F2FFFE
:107E00000323C20700D56CE1002E01D04307EFD455
:107E1000201C0021FFF776FF012828D1231C002019
:107E2000F333FF3300221978914209D0DA79110631
:107E30009A7912040A4319790A43597909020A43C3
:107E4000810004AD01304A5110330428EAD10025E5
:107E500004AB5E590220002E05D0201C311CFFF718
:107E600051FF00280CD00435102DF1D135E100264A
:107E70000123032800D134E1B04201D00D2330E1C9
:107E8000231C221C3C331B783B3212781B02134309
:107E900080221BB292009342F0D1231C221C473354
:107EA0001B78463212781B02134311D1231C57331F
:107EB0001B781A06231C56331B781B041343221C01
:107EC000543212781343221C553212781202134393
:107ED0000093009BA361231C40331A78531EE27069
:107EE000012BCBD8231C3D331978A1700029C5D0B4
:107EF0004B1E1942C2D1231C42331F78013B1B7811
:107F00003F021F4327813B07B8D1231C4433187815
:107F1000013B1B780002184310D1231C53331878FF
:107F2000013B1B7800061B041843231C50331B78AD
:107F30001843231C51331B781B021843231C251C98
:107F40003F331B783E352D781B021D43019595D09C
:107F5000009B53430393039A3B095B199B180293BD
:107F600098428BD3C01A07F01FFC002886D05F4BC5
:107F70000125984204D95E4D8542AD416D420235DE
:107F8000019B029A0230F31892196061E661236244
:107F9000A262032D17D1002F00D06FE7231C5F339F
:107FA0001B7880001A06231C5E331B781B041343C6
:107FB000221C5C3212781343221C5D3212781202AA
:107FC000134363620FE0002F00D157E7039AD318E1
:107FD0006362022D01D1400005E0032301224343E7
:107FE00010405B081818434BC018009B400A83429E
:107FF00000D243E701235B422361E3608133637175
:10800000032D61D1231C221C61331B78603212784E
:108010001B021343012B57D1711C201CFFF758FE84
:10802000002851D1344B6071344AE35CA25C1B02DE
:108030001343334A1BB2934246D1231C33331B787C
:108040001A06231C32331B781B041343221C3032C4
:1080500012781343221C3132127812021343294A38
:10806000934231D1284BE35C1A06284BE35C1B0496
:10807000134385229200A25C1343254AA25C12029C
:108080001343244A93421FD1234BE35C1A06234B2C
:10809000E35C1B04134386229200A25C1343204A34
:1080A000A25C1202134323611E4BE35C1A061E4BB3
:1080B000E35C1B04134387229200A25C13431B4A18
:1080C000A25C12021343E360074A257093880133D0
:1080D0009BB29380E380002303E00123032800D0B8
:1080E000CCE6181C09B0F0BD242B0020F50F0000D1
:1080F000F5FF0000FF0100002F0200002E0200002B
:1081000055AAFFFF525261411702000016020000FB
:1081100015020000727241611B0200001A02000089
:10812000190200001F0200001E0200001D020000D4
:10813000436902399A1E0023914203D28378826AEE
:1081400059438B18181C7047F7B50124A14265D913
:108150004369994262D203780E1C051C022B2DD074
:10816000032B3FD0A34259D14F087F18036A790AE5
:10817000C918FFF7ADFD002802D0012464424DE08C
:108180007B1CFF05590A0193FF0D2B6AEF1930374D
:10819000C918281C3F78FFF79BFD0028EDD1019BF3
:1081A000D805C00D2D1830352B781B021F432642F1
:1081B00001D03C0932E03F053C0D2FE0036A090A7B
:1081C000C918FFF785FD0028D7D1FF2376005B0093
:1081D0001E40AB193036AD1930336C781B78240251
:1081E0001C431BE0036AC909C918FFF771FD002889
:1081F000C3D1FD30B600FF300640321C3032AA1821
:108200009478D37824041B061C435378AE191B02C0
:1082100030361C4333781C4324012409201CFEBD46
:10822000F8B5051CE98084680E1C012C01D10220E0
:1082300038E003685A699442F9D2002C0BD11A78BD
:10824000032A02D15A6A002A04D11A899642EED230
:10825000586A17E0141C211C9F783F01BE420DD3C1
:108260002868FFF771FF011C431C1AD00128DED9D2
:108270002B685B699842DAD2F61BEFE728680C1C82
:10828000FFF756FFEC600028D1D00F2133093140B1
:10829000181849012B68303159182861696100208C
:1082A00000E00120F8BDF7B5041C0E1C151C0220CF
:1082B00001297DD9636999427AD22778874245D0CE
:1082C000032F57D0012F73D14B085B18590A009325
:1082D000236A201CC918FFF7FBFC002868D1009B0B
:1082E0003E4001330193009BEAB2DB05DB0DE3184E
:1082F000002E08D01A1C303211780F220A40E9B241
:1083000009010A43D2B230331A7001232371019B51
:10831000201C590A236AC918FFF7DAFC002847D144
:10832000019BDB05DB0DE218002E02D02D09EDB21A
:1083300008E0131C303319780F232D0A99432B4082
:1083400019430D1C131C30331D702FE0236A090ADA
:10835000C918201CFFF7BCFC002829D1FF23760098
:108360005B001E40A319303330361D70A6192D0A4C
:1083700075701BE0236AC909C918201CFFF7A8FC07
:10838000002815D1FE23B6005B001E40331C30339D
:10839000E318DA78A6191209120715432A0A3036AB
:1083A00035705A702A0C2D0E9A70DD7001232371DE
:1083B000FEBD0000F8B5051C0E1E06D1C768002FD3
:1083C00013D043699F4211D30FE0FFF7BDFE012494
:1083D000A04242D9431C02D1012464423DE06B69B2
:1083E000041C371C984201D237E001273C1C6B6902
:1083F00001349C4204D3012F01D800242DE0022433
:10840000281C211CFFF7A0FE002808D0431C01D027
:10841000012801D1041C20E0BC42E8D1EDE7281C72
:10842000211C0F4AFFF73FFF002813D1002E0AD16D
:108430002B69EC605A1C10D00122013B2B616B7937
:1084400013436B7109E0281C311C221CFFF72BFF22
:108450000028EDD00128BFD00124201CF8BDC04663
:10846000FFFFFF0FF7B5C6880136B3B2002B01D16D
:1084700004206AE00369002BFAD00F2232400F1C5F
:10848000041C0192002A58D1C168013303610068BD
:10849000002903D103899E42EAD24EE08278330953
:1084A000013A1A4249D1FFF74FFE051E012D01D8AE
:1084B00002204AE0431C01D1012046E020684369C4
:1084C0009D4234D3002FD3D0E168FFF773FF051C22
:1084D0000720002D39D0012DEAD06B1CECD020688C
:1084E000FFF77AFB0090031EE6D180222068191C5A
:1084F00030309200FFF707FB2768291C381CFFF774
:1085000017FEF862009F23689A7897420CD20122E6
:108510001A712068FFF760FB0028CDD1226801376F
:10852000D36A0133D362EEE7DA6AD71BDF62E56014
:108530002068291CFFF7FCFD20610020019B2268B8
:108540005B013033D318E6806361FEBDF0B50B7874
:1085500085B0041C0D1C2F2B01D05C2B00D10135E4
:108560000026A6602B781F2B06D8201C311CFFF795
:1085700057FE6661D5E001352B782F2BFBD05C2BA5
:10858000F9D0A66920210B22301CFFF7BCFA00218C
:1085900008230A1C00910193009B01330293009B66
:1085A000EB5C202B43D92F2B41D05C2B3FD02E2BC3
:1085B00000D19BE00198814200D395E058B2002899
:1085C00001DA032002437F2084469C4460466F46C4
:1085D000F873F87B1E2807D9202084469C44604607
:1085E000F873F87B1C2819D800980230844602984A
:1085F0002F5C381C40383E2803D94038C0B27C2854
:1086000072D80198013881426ED273546346481C77
:10861000375402310293029B0093BDE70027424882
:10862000C05D00286BD001379842F8D15CE0029819
:1086300020272D1800209F4240418300002953D05D
:108640003178E52901D1E03931700199082901D14A
:108650009200D2B203211140012902D10F310B4304
:10866000DBB20C210A40042A02D104321343DBB2EC
:10867000F372201C0021FFF7D3FD00281CD12068D5
:108680002169FFF725FB002816D161690B78002BC3
:1086900011D00823CA7A1A4008D1A6698B5CB05C55
:1086A0000132181A02D10B2AF8D105E0201C002152
:1086B000FFF7D8FEE1E70420A369DB7A002805D0A4
:1086C00004282ED103422CD101302AE05B0728D4A4
:1086D0006169CB7ADB0605D523681878FFF749FA7C
:1086E000A06049E705201CE006201AE0019B082B4A
:1086F000FAD10B2392000199D2B201938BE71F1C90
:10870000413F192F02D802273A4307E01F1C613F5F
:10871000192F03D80127203B3A43DBB273540131B0
:1087200079E705B0F0BDC046252D020038B500211F
:10873000051CFFF775FD041E10D128682969FFF795
:10874000C7FA041E0AD16B691B78E52B0AD0002BEF
:1087500008D0281C0121FFF785FEECE7042C14D17A
:10876000033412E028682969FFF7B2FA041E0CD11D
:108770006869211C2022FFF7C6F90B226869A969E4
:10878000FFF7B8F901222B681A71201C38BD70B5AB
:10879000041C0D1E012D01D8022024E043699942DA
:1087A000FAD263699D4205D2201C291CFFF7CCFC3C
:1087B000061E01D1002016E00128EDD0431C11D087
:1087C000201C291C0022FFF76EFD00280BD1236915
:1087D0005A1C05D00122013323616379134363716D
:1087E000351CDEE7012070BD1FB5019003A8141CE5
:1087F00000910391FFF78EF90B22002817DB0D4B38
:108800008000C258002A01D000211170019A002A6C
:1088100001D000211170019919500A1E07D00022C1
:10882000012C04D101A86946FFF7BEFA021C101CF6
:1088300004B010BD242B0020F0B58FB0051C0391AF
:108840000920002D00D18CE0161C00231E222B6075
:10885000324007A803A9FFF7A7FA002800D080E05C
:1088600004AB07A803990D93FFF770FE0C9C00283A
:1088700002D1002C00D106301F271C2337401E4296
:1088800042D000280AD0042802D107A8FFF74EFFE3
:1088900008230C9C1F43002807D062E01123E27AD2
:1088A0001A425DD1082073075BD43B0736D54A23B3
:1088B00000262374043B6374079BA673E673E67279
:1088C00026776677A677E6771878211C0193FFF75D
:1088D00050F90123019AA676E67626756675029010
:1088E0001371B0421AD0101C0299D66AFFF74FFFDD
:1088F000002836D1029B0798013BC360311CFFF76B
:10890000E7F900280AD02CE000282AD1E37A0420D5
:10891000DA0626D4B20701D5DB0721D43B0701D5FF
:1089200020231F43079E211CF36AAF710027EB61D0
:108930002C62EF713078FFF71CF92861E37F381C57
:108940001A06A37F1B041343227F1343627FAF6089
:1089500012021343EB60AF612E60F388AB8000E03E
:1089600007200FB0F0BDF0B51F1C002385B03B60A1
:10897000051C0091161CFFF7E5F8002800D08BE0DD
:10898000E879002800D087E0AB790730DB0700D416
:1089900082E0EB68AA68341C9B1A9E423BD91C1CDF
:1089A00039E0AA68D3055BD12868530A8678013E6E
:1089B0003340DBB20193002B30D02B686969181C5F
:1089C0000293FFF7B5FB002831D0019B660AC3185C
:1089D0000393002E42D0029B019A9B78B2189A42D0
:1089E00001D9019A9E1A029B00995878039A331C68
:1089F00000F076FA00281ED129680B79002B1FD1D0
:108A00007602009BA41B9B190093AB689B19AB607B
:108A10003B689B193B60002CC3D13CE0002A01D18C
:108A2000286902E06969FFF78FFB012801D802205D
:108A300002E0431C02D10120E8712DE06861BCE72F
:108A4000CB6A039A981AB042DAD28022009B400285
:108A5000181830319200FFF74DF8D1E7039BAB6156
:108A60008022AB689200DB05DB0DD31A261E9E42E6
:108A700000D91E1C2868A969FFF72AF90028DAD155
:108A8000AB680098D905C90D2B6830315918321CD4
:108A9000FFF730F8B5E7201C05B0F0BDF0B51F1C9E
:108AA000002385B03B60041C0191151CFFF74AF8B8
:108AB000002800D0B1E0E379181E00D0ADE0A27923
:108AC0000720920700D4A8E0A268A91891425B4150
:108AD0005B421D40002D16D0A268D30570D12068DE
:108AE000530A817801390B40DBB20293002B1FD16E
:108AF000002A03D1216900290CD100E06169FFF748
:108B000059FC011E06D1A368E268934200D87FE0B9
:108B1000E3607DE0012901D1022002E04B1C02D17B
:108B20000120E07179E023696161002B00D12161AE
:108B30002068A269C36A934203D1FFF74DF8002869
:108B4000EED126686169301CFFF7F2FA0028E3D005
:108B5000029BC31803936B0A009323D0009A0299D7
:108B6000B37852189A4201D95B1A00937078019930
:108B7000039A009B00F0EEF9061ED1D12068039AFB
:108B8000C36A991A009B994209D28022019B49022B
:108B9000591830309200FEF7ADFF23681E71009B1C
:108BA0005E022AE0A368E268934207D3301CFFF715
:108BB00013F80028B4D12368039ADA62039BA361F7
:108BC0008022A3689200DB05DB0DD31A2E1E9E4285
:108BD00000D91E1C2068A169FFF77AF800289FD1F0
:108BE000A368321CD805C00D2368303018180199CD
:108BF000FEF780FF012322681371019BAD1B9B19B7
:108C00000193A3689B19A3603B689B193B6061E7D4
:108C100020220020A3791343A37105B0F0BD38B51D
:108C2000041CFEF78FFF002830D12025A3792B42AA
:108C30002CD02068E169FFF74BF8002826D1236A81
:108C4000DA7A2A43DA72227B1A77627B5A77E268F1
:108C5000120C9A77E268120EDA77226998759A7682
:108C6000110A120C1A75120A5A754A221A76043A17
:108C7000D976D8755A769874D874A3792268AB439C
:108C8000A371012313712068FEF7B0FF38BD10B542
:108C9000041CFFF7C4FF002805D1201CFEF752FF7B
:108CA000002800D1206010BDF7B5041C0D1CFEF794
:108CB00049FF002877D1E079002874D1E3689D420C
:108CC00003D9A279920700D41D1C0022A368A260D8
:108CD000954201D1002056E02768BE787602002B2D
:108CE00014D0013B311C681E009306F05DFD311C61
:108CF0000190009806F058FD019B834206D3009A2C
:108D000073421A40A260AD1A616911E0216900291D
:108D10000DD1381CFFF74EFB011E012901D10220A5
:108D200002E0431C02D10120E0713CE0206161615E
:108D30000029CFD0B5421AD9A37920689B0704D562
:108D4000FFF738FB011E03D110E0FFF7FDF9011C0E
:108D50004B1CE8D00129E2D923685B699942DED235
:108D6000A36861619B19A360AD1BE3E7351CA36891
:108D70005B19A360EB05ADD02068FFF7D9F9002897
:108D8000CDD06D0A4019A368DA0503D0A2699042DC
:108D900000D0A061E2680020934204D92022E36061
:108DA000A3791343A371FEBDFA239B00C046C046BE
:108DB000C046C046C046C046C046C046C046C04683
:108DC000C046C046C046C046013B002BEED17047AE
:108DD0000123002801D1024B1B78181C7047C046A4
:108DE0001320002073B50324002872D10A3005F047
:108DF0001DFAFEF703FB073401AD013C281C0121DD
:108E0000E4B2FEF725FB002CF6D1201C211CFEF756
:108E1000C1FB061E012E01D0002446E0D52108200A
:108E20004900FEF7B7FB012818D1281C0421FEF7E2
:108E30000FFBAB78012BEFD1EB78AA2BECD1FA2406
:108E4000A4008021A920C905FEF7A4FB011E1ED0A5
:108E5000013CFFF7A9FF002CF3D1DDE7A920211C7D
:108E6000FEF798FB012802D9351C341C01E0A92526
:108E70000224FA26B600281C0021FEF78BFB0028EE
:108E80001DD0013EFFF790FF002EF4D1C4E73A2039
:108E9000FEF780FB0028BFD1281C0421FEF7D8FA7A
:108EA0002B780C245B0600D404240B4B1C7060420E
:108EB00044410A4BE4B21C70FEF7FCFA09E0802141
:108EC00010208900FEF766FB4342584140420440AF
:108ED000EBE7201C76BDC0462A2B00201320002083
:108EE00070B51D1C01230E1C191C002801D1174947
:108EF00009780320194228D1154B1B781B0700D491
:108F000052020124AC42A44164421134201C111CC1
:108F1000FEF740FB002812D18021301C8900FEF7AB
:108F2000EFFA002805D08023013D9B00F618002DA4
:108F3000F2D1122C03D10C200021FEF72BFBFEF7FF
:108F4000B9FA2B1C5D1EAB41D8B270BD13200020B6
:108F50002A2B002070B51C1C0123161C0D1C1A1C8A
:108F6000002801D11F4A127803201A4238D11E4B23
:108F70001B781A0700D47602012C0CD11820311C62
:108F8000FEF708FB002826D1281CFE21FEF7DCFA9C
:108F9000444244411FE00622134203D09720211C83
:108FA000FEF7F8FA1920311CFEF7F4FA002812D166
:108FB000281CFC21FEF7C8FA002805D08023013CBC
:108FC0009B00ED18002CF3D10020FD21FEF7BCFA28
:108FD000002800D10124601E8441FEF76BFAE0B244
:108FE00070BDC046132000202A2B00200123F0B5BD
:108FF0001C1C85B0002801D12B4804781C40032696
:10900000002C4ED1151C01290CD0002904D0B142EE
:1090100043D18023136041E0FEF75AFA44424441B1
:10902000E4B23BE0211C0920FEF7B4FA041E01D093
:10903000012433E068461021FEF762FA0028F7D0D9
:109040006B466A461878517A8009DB79127A0128D2
:1090500008D13E3003401E04120201368A18B118AE
:10906000890218E09B009209D2186B469B79314027
:1090700033409B02D3186A4657790F2217406A463D
:10908000927A4E00D0093A1802329119C9B20939C0
:1090900001338B40191C296000E00424FEF70AFA12
:1090A000261C301C05B0F0BD1320002008B5031CA1
:1090B0000A1C06490878191C012302F0D1FD00287A
:1090C00001D0002000E0024808BDC0462B2B002044
:1090D0000130000007B5074B400018706B46D81DE3
:1090E000822301210370FFF7E1FF002800D002482E
:1090F0000EBDC0462B2B002003300000F0B5161C1F
:109100001822071C424303202E4B85B09A18D36ABD
:109110000391184002280DD0111C2031936A496830
:109120005B1A013B01D5126A9B189E4202DD0028A2
:1091300045D01E1C0020864241D001901822101CF0
:109140007843204B1818011C2031846A4968641A3E
:10915000191C013C01D5036AE4187A438A18101CD3
:10916000136A20300293536A029AD31A9C4201DB9D
:109170004468141BB44200DD341C18231D1C781CE9
:1091800043437D43CB184D196A6A58680399801888
:10919000221C08F0A4FD019B361B1B190193039BA5
:1091A000029A1B1903936B6A20351C196C606B685B
:1091B000934201D100236B60002EBFD1019805B00E
:1091C000F0BDC0461420002010B50A1E06D00B1CAE
:1091D0001C785A1A002C01D00133F9E7FFF78EFFF3
:1091E00010BD0000002170B500781F4BCAB25C189A
:1091F00065781C1C854200D1101C01310429F4D172
:10920000421CD100635C012B08D161184B78002B04
:1092100001D1CB7800E000234B701EE0022B21D15E
:1092200063189D785978002D06D0DE780431B1425C
:1092300008DB5E70002103E0042903DC01215D707E
:1092400099700AE0D300E31859780426002D00D164
:10925000F836D3007118E3185970D200A318597862
:1092600000F0C0FA70BDC0468C200020F8B5002385
:10927000234CDDB2E21852785F1C82423CD1061CBE
:10928000002000F0CBFAFB00E318586803F0C2FDA1
:10929000032D0DD0691C63185B7865196B704B1C2E
:1092A000CA00DB00A218E31821CB21C2CDB2EFE740
:1092B000FF2300250121201C2371631CDD77A31CE3
:1092C000DD77E31CD977231DDD770E4A243003F0C8
:1092D00033FD2378201C013B237000F07FF92B1C09
:1092E000221C3832995CB14202D1FF21D15406E0F0
:1092F0000133042BF4D102E03B1E042BB8D1F8BD9E
:109300008C200020E5910100F0B5051CA5B001916D
:1093100003921E1CFFF7AAFF2B1CA0220321C133BE
:10932000FF33D2059B0099500123AB4000273949F8
:109330005350394C7A1CE3195B780292FF2B62D1AF
:10934000012E04D13220019B4343019308E06420A5
:10935000019B5843039B9908490006F0B5FA019018
:10936000002000F05BFA6A46E7197D702378127BD3
:1093700001332370029BDB00E654E318DA7000230C
:10938000221C3832995CDFB2FF2901D1D55403E0A9
:109390000133042BF4D11F1C201C00F01FF90028FE
:1093A00004D0281CFFF762FF1C4C30E0029B01999F
:1093B000DB00E318CA0302934B0C00211848383431
:1093C00080185941174A002306F0AEFB029B011C8E
:1093D000E219586803F0D6FC041EE2D12B1C1C3B9A
:1093E000012B02D80120FEF721FA012000F016FA25
:1093F00004A80D492A1C331C08F032FD04A90020E2
:10940000FFF7E2FE03E0029F042F92D1074C201CDD
:1094100025B0F0BD0C0500008C2000200560000088
:10942000DC050000B80B0000712D02000360000095
:1094300038B5094B1D1C2C331C1C0C35281C012174
:10944000064A03F079FC002803D10835A542F5D17E
:1094500000E0034838BDC0468C200020E5910100A3
:109460000460000010B5041CFFF700FF0120FEF7A8
:10947000DDF9231CA02203210120C133FF33D205D3
:109480009B009950A123A040DB00D050002010BDCC
:1094900010B5041CFFF7EAFE0020FEF7C7F9012013
:1094A000231CA0220321A040C133FF33D2059B001F
:1094B0009950024BD050002010BDC0460C05000052
:1094C00070B5041C0E1C151CFFF7D0FE231CA02237
:1094D0000321C133FF33D2059B0099500123181C8F
:1094E000A04004495050311C2A1C201CFFF70CFFDF
:1094F00070BDC0460C05000070B5041C0E1C151C88
:10950000FFF7B4FE231CA0220321C133FF33D20591
:109510009B0099500123A3400549201C53500A2168
:1095200071432A1CC9B20223FFF7EEFE70BDC0468C
:109530000C05000045DF704747DF70474EDF70477E
:1095400050DF704710B50C4B041C1B6899420AD8B9
:1095500000208C420FD3094A1268D31A59188C4242
:109560008041404207E0CB1A01209C4203D30023F4
:109570008C425B41D8B210BDC8200020402F002093
:1095800010B5041E0F2C06D8C0B2FFF7D5FF01207E
:10959000A040FFF7CFFF10BD012230B5151CA1235D
:1095A000A0248D40DB00E405E550094B8000C01885
:1095B000A223084CDB00C450C046C046C04602602F
:1095C000054A09021143C150C046C046C04630BDDD
:1095D00000600040031F010003001300F7B503788B
:1095E000041C013B032B00D9D7E0031C343318784B
:1095F000052800D9D1E0A222694FD200694B06F0BC
:10960000C9F80305070C1012092107E009210BE036
:109610000621B950FA22920008E00321B9506422D1
:1096200004E0012100E00021B950FF221A60A222CB
:10963000D200BA585C49895C5C4A116022785A6051
:1096400000230192019A934217D2E118554D4A78AE
:10965000980008354251A0250326C132FF329200FE
:10966000ED05565100254F4A3031183285504D4A8C
:109670000978283299540133E4E7A1220023012517
:10968000D200FD60BB50474A802611680420D16299
:10969000A922D200B9509446454AB600BB50454A6B
:1096A000B8511365D36493645364019A022A13D9A1
:1096B000414AD560A125ED005351654651513C49C1
:1096C00053503E4990510B65CB648B644B64A2238D
:1096D0003349DB00C958D150019B002B2ED0314DAE
:1096E000374B28352E783749B600F618231C283317
:1096F0001878321CFFF744FF231C29331878321CDA
:109700003149FFF73DFF0023264E30363370019B71
:10971000012B13D06D782A4BAD00ED18231C2A3392
:1097200018782A492A1CFFF72BFF231C2B331878A3
:1097300025492A1CFFF724FF0023737002252C34CF
:10974000019B9D4218D2174B20782833EE5C1C4BAE
:10975000B600F6181E4B321CE9188900FFF710FFFF
:109760006078321C1B49FFF70BFF00220D4B0234BF
:109770003033EA540135E3E71748FFF7DFFE0123F2
:10978000164A00201360074A3B605268022A06D935
:10979000134A1360084A136001E001204042FEBDF5
:1097A00000A00040402F0020902D0200C820002083
:1097B00004050000FCA0004000900040FC90004028
:1097C0000060004040A1004048A1004044A100408A
:1097D0004E24001048910040B19A01000CAC0040AA
:1097E0000C9C00401FB50B4B82009A18516301225C
:1097F00030331A5400236A4613701371FA2202920E
:109800006A465371044B68460393FFF799FE05B00F
:1098100000BDC046402F0020A086010070B517494A
:109820000123174A002806D00B605268022A24D967
:10983000144A136021E04B605068022801D9114995
:109840004B600023834218D0111C2831595C0E4D07
:1098500045310E4CFF3189000D51111C9C0008311F
:1098600065580121A026A940094DF6057151111C2A
:109870000025183165500133E4E770BD00A00040B9
:10988000402F002000900040001F030000600040B7
:109890000C050000A922F0B57E4C7F49E36AD20096
:1098A00023608B50606885B00291022801D97B4902
:1098B0008B5000236364666C63689E4200D3E6E0CD
:1098C000231C30339A5D002A00D1DDE00022B50070
:1098D00065199A556B6B0193934212D1231C28335F
:1098E0009B5D6F4945336F4AFF339B0099500123BD
:1098F000AA68A02193406C4AC9058B50019BAB61BB
:10990000C2E0019B21688B4212D3231C28339B5D4C
:10991000634845336349FF339B0058500123A968CE
:10992000A0208B40A121C005C9004350AA61ABE033
:10993000019BA364012E54D8331C5133FF33029A88
:109940009B00D358544F0393E364AB69002B18D1A9
:10995000231C28339E5DA968301CFFF71DFE0123E0
:10996000524AAB61FB64BA5801998A4231D94D4AD7
:10997000B600B3502DE078590199FFF7E3FD0028B8
:109980000CD10123029A494DD364029B0399585983
:10999000414FFFF7D7FD0028F3D0ECE77B59039A3E
:1099A000934203D37B59019A93420BD33F4A029BC4
:1099B0009B58039A93420CD2374A3C4BD358019A96
:1099C000934206D3231C012128339B5D354A9B001B
:1099D0009950636C029A5133FF33A16C9B00D150B4
:1099E00052E0331C4F332D4FFF339B00DB59039361
:1099F000E364AB69002B19D1231C28339E5DA96851
:109A0000301CFFF7C9FD0123284AAB61FB64BA583B
:109A100001998A4232D9234AB600B3502EE01F4B37
:109A200001995859FFF78EFD00280BD101231B4ADD
:109A30001E4DD364131C03995859FFF783FD00286A
:109A4000F4D0ECE7154B039A5B59934204D3134BC4
:109A5000019A5B5993420AD3144B039AFB589342E1
:109A60000CD20E4A114BD358019A934206D3231CB1
:109A7000012128339B5D0B4A9B009950636CA26CBB
:109A80004F33FF339B00FA50636C013312E705B08C
:109A9000F0BDC046402F002000A0004000900040D4
:109AA000001F0300006000400C0500004C05000092
:109AB000064B02211A1C503210B511701C1C0028D4
:109AC00001D1FFF7E7FE201C503010BD402F0020D1
:109AD000F7B56B46141C0122184F0D1CD91D0870D8
:109AE0003878131C4000C0B202F0BAF8061E01D14B
:109AF0003C210CE001233878E2B240001843C0B2A8
:109B0000291C02F0ADF80423061E04D142210C4AA0
:109B100001F032FD10E0C046C046C046C046C04617
:109B2000C046C046C046C046C046C046C046C04605
:109B3000C046013B002BEED1301CFEBD2837002073
:109B40009A2D020008B50122FFF7C2FF08BD0000F0
:109B500098B5131C6C460833DB08DB00E31A00AF32
:109B600018709D460020904204DA0130441E0C5DBE
:109B70001C54F8E7094901320878D2B24000191C98
:109B8000C0B2012302F06CF8041E03D18621044AFE
:109B900001F0F2FCBD46201C98BDC04628370020CD
:109BA0009A2D020007B56B46D9710733191C0122A3
:109BB000FFF7CEFF0EBDF0B585B0019302ABDD1D02
:109BC00000230C1C291C061C171C2B70FFF7BAFF66
:109BD000002810D00121B940E41B019B0134013958
:109BE000A340A1402F78DCB28F4321403943301C81
:109BF0002970FFF7D7FF05B0F0BD08B5131C01228F
:109C0000FFF7D9FF08BD08B56B2007210122FFF738
:109C1000F4FF08BD08B5021C04216B20FFF7EDFF1F
:109C200008BD08B5021C05216B20FFF7E6FF08BD43
:109C300008B50021031C04221E20FFF7BCFF08BD4D
:109C400008B5021C05216C20FFF7D7FF08BD08B539
:109C5000021C04216C20FFF7D0FF08BD08B5021CD0
:109C600003216C20FFF7C9FF08BD08B5021C0221C3
:109C70006C20FFF7C2FF08BD08B5021C01216C2053
:109C8000FFF7BBFF08BD08B5021C00216C20FFF7E1
:109C9000B4FF08BD08B50221031C03221D20FFF7F5
:109CA0008AFF08BD08B5021C03211D20FFF7A5FF90
:109CB00008BD08B538204021FFF774FF08BD08B57E
:109CC0001F200F21FFF76EFF08BD000008B5184BDD
:109CD0001870FFF798FF142004F0A8FA0020FFF78F
:109CE000A0FF0020FFF796FF0020FFF7A9FF00204C
:109CF000FFF7ADFF0020FFF7B1FF0120FFF7B5FF31
:109D00000120FFF7B9FF0120FFF7BDFF0120FFF79A
:109D1000C9FF0120FFF7BEFFFFF7CBFFFFF7CFFF23
:109D20000320FFF785FF0120FFF77BFF08BDC0463A
:109D300028370020F0B585B000AF7A60F973002BAA
:109D40000CD101220F334000F918C0B2131C01F0EE
:109D500087FF012358404042C0B224E069466C4668
:109D60005B00B960D91DC908C900611A8D4600247D
:109D7000FE7B9C420BDA6508AA190A550A1994461B
:109D80007A680234555D6246E4B25570F1E74000EE
:109D9000DAB2C0B2012301F063FF01235840BB686F
:109DA00040429D46C0B2BD4640B205B0F0BD08B5C8
:109DB00004F03CFA08BDF8B5161C00221D1C131C4B
:109DC000041CFFF7B7FF00281DD1012764003C43A6
:109DD0003B1CE0B2311C2A1C01F042FF04237840F6
:109DE0004042C0B2C046C046C046C046C046C0465B
:109DF000C046C046C046C046C046C046C046C04633
:109E0000013B002BEED140B2F8BD0000002373B53A
:109E100001AC23706370A3700C4B1A688123002A75
:109E200012D0131C2933051C566B1878221C0323EF
:109E3000FA21B04763781A0123781B031343A278F1
:109E4000120913432B60031C58B276BD982F0020D3
:109E500010B50D4B02111968C0100C88121B64005C
:109E6000001B02240B5F5843131C534304240A5F56
:109E70001B135343C0129B13C31805205843803053
:109E800000124B6210BDC046982F0020002373B50E
:109E900001AC23706370A3700C4B1A688123002AF5
:109EA00012D0131C2933051C566B1878221C03236F
:109EB000F721B04763781A0123781B031343A27874
:109EC000120913432B60031C58B276BD982F002053
:109ED00070B5274B274A1C684042636A5B109B1889
:109EE000991049431025625FCE1256430E25625FDA
:109EF00049135A43550072190A26A55F9210694307
:109F00000826A55FC9106B435B10CB1880219B14FA
:109F100009025B18E18859430C25635FC9131B04D0
:109F2000D2181213144B801A5843144B0025C01832
:109F300005D4A9421AD0400005F036FC04E0A9423D
:109F400014D005F031FC4000C3085B431621625E6B
:109F50005B0B53431421625E850855431B136D133D
:109F60001221625E5B199B181B11C518281C70BD5D
:109F7000982F00200006FFFF350C0000000050C3A2
:109F8000002373B501AC237063700B4B1A688123F7
:109F9000002A0ED0131C2933051C566B1878221C7E
:109FA0000223FD21B047237862781B0213432B6004
:109FB000031C58B276BDC046982F0020F0B51D4B4B
:109FC0001D4A1D6886036B6A1F219F181E23EA5EC7
:109FD000287F1205B41A2023EA5E80237A43DB012E
:109FE000A21AD218EB1C5956802378431B02C012C8
:109FF000C01880237943891241439B038912C918F1
:10A000001A23EC5E802361439B01CB189B13D21370
:10A010005A43D3135B43287EDB1143431B11D31AEE
:10A02000D843C822C01703405205934200DD131CD9
:10A030001813F0BD982F002000D4FEFFF0B589B0B2
:10A0400001AC201C00211A2207F052FE3F4D812056
:10A050002B68002B00D175E01A1C29325E6B10783A
:10A060008821221C1A23B047627821782B681202BB
:10A070000A431A800322A256A17812020A435A8088
:10A080000522A256217912020A439A80E279A17927
:10A0900012020A43DA800922A256217A12020A43E6
:10A0A0001A810B22A256A17A12020A435A810D226A
:10A0B000A256217B12020A439A810F22A256A17B4B
:10A0C00012020A43DA811122A256217C12020A43AB
:10A0D0001A821322A256A17C12020A435A82152226
:10A0E000A256217D12020A439A821722A256A17D0E
:10A0F00012020A43DA82627E061C1A761A1C293280
:10A1000010785F6BE121221C0723B8470122A25679
:10A11000217812020A4303212B6880195A83A278FE
:10A12000C0B21A77615622790D010F2111402943DF
:10A13000D98305216156120909010A431A84A279BB
:10A140000333DA7740B209B0F0BDC046982F002043
:10A1500073B56A46D51D00222A70021C031C094EE5
:10A16000293230605C6BD021107801232A1CA04773
:10A1700033682A7828331A70041CFFF75FFF001930
:10A1800040B276BD982F002073B56B46DD1D0023CD
:10A190002B700A4B1A688123002A0DD0131C293317
:10A1A000041C566B18782A1C0123F421B0470323A2
:10A1B0002A7813402370031C58B276BD982F0020D4
:10A1C00013B56B46DA1DB6231370074B81201B684D
:10A1D000002B06D0191C293108781C6BE0210123C3
:10A1E000A04740B216BDC046982F002038B5084B96
:10A1F000041C1D688120002D07D0281C2930131C49
:10A2000000780A1C211C2C6BA04740B238BDC04608
:10A21000982F002038B5084B041C1D688120002DA4
:10A2200007D0281C2930131C00780A1C211C6C6BD9
:10A23000A04740B238BDC046982F00200023F0B59B
:10A24000364C85B002AA571D5371961D9371D37178
:10A25000226803AD01902B7081209A425BD0019B54
:10A260002E32590113781F221A400B1C381C13433D
:10A270002B70FFF789FF3B78002B1ED0FFF7A0FF64
:10A28000236803209B6B9847236802AA2F331B780F
:10A29000D11DD371F5200122FFF7A8FF2368311CDF
:10A2A0002D331B780122F2203370FFF79FFF291C0A
:10A2B0000122F420FFF79AFF08E02368F4211A1C1A
:10A2C000293210781E6B2A1C0123B0476A46236886
:10A2D00012792A331A70291C0122F420FFF79AFF01
:10A2E00023682A782E33061C1A70291C0122F220BA
:10A2F000FFF790FF23682A782D3380191A70C6B2B1
:10A300000122F520291CFFF785FF23682A783018E1
:10A310002F331A70C0B240B205B0F0BD982F0020A4
:10A320000023F0B5374C85B002AA571D5371961D16
:10A330009371D371226803AD01902B7081209A42F2
:10A340005CD0019B65389B000340191C2E321378AA
:10A3500083430B43381C2B70FFF716FF3B78002B11
:10A360001ED0FFF72DFF236803209B6B98472368BF
:10A3700002AA2F331B78D11DD371F5200122FFF7DC
:10A3800035FF2368311C2D331B780122F2203370F6
:10A39000FFF72CFF291C0122F420FFF727FF08E01C
:10A3A0002368F4211A1C293210781E6B2A1C012301
:10A3B000B0476A46236812792B331A70291C012290
:10A3C000F420FFF727FF23682A782E33061C1A7023
:10A3D000291C0122F220FFF71DFF23682A782D3364
:10A3E00080191A70C6B20122F520291CFFF712FF4E
:10A3F00023682A7830182F331A70C0B240B205B0E3
:10A40000F0BDC046982F00200023F0B5434C85B026
:10A4100002AA551D9371D71DD371226803AE009017
:10A4200033702B7081209A4275D02D3213780099A9
:10A430007A38014083430B43381C3370FFF7A4FE86
:10A440003B780190002B27D0FFF7BAFE2368071C4A
:10A450009B6B03209847236802AA2F331B78911D1A
:10A460009371F5200122FFF7C1FE019B311C3F18BB
:10A470000122F220FF18FFF7B9FE2368FFB22E3346
:10A480001B783F18291CF42001222B70FFF7AEFE29
:10A49000FFB23F18FEB216E02368F2211A1C2932DF
:10A4A00010781F6B321C0123B8472368061C2E331B
:10A4B0001B78F420291C01222B70FFF797FE019BCB
:10A4C0003618F618F6B26A46144C1278236803ADB3
:10A4D0002C331A70291C0122F420FFF79BFE2368FD
:10A4E0002A782E331A708619291C0122F220FFF7D0
:10A4F00091FE23682A78F6B22D3330181A70C6B24E
:10A500000122F520291CFFF785FE23682A783018E0
:10A510002F331A70C0B240B205B0F0BD982F0020A2
:10A52000F7B56B466A46DE1C0023334C53719371BA
:10A53000D51D226801AF33703B702B708133002A28
:10A5400057D07D33032854D82E32137803229343F7
:10A5500018433070381CFFF717FE3B78002B1FD0D4
:10A56000FFF72EFE236803209B6B98476A462368FB
:10A57000911D2F331B78F52093710122FFF736FED2
:10A580006A462368511D2D331B78F2205371012236
:10A59000FFF72CFE311C0122F420FFF727FE08E014
:10A5A0002368F4211A1C293210781F6B321C0123F6
:10A5B000B847291C0122F420FFF72CFE23682A78D3
:10A5C0002E331A70061C291C0122F220FFF722FEEE
:10A5D00023682A782D331A708619291C0122F52048
:10A5E000FFF718FE2268F6B2297833182F3211705F
:10A5F000DBB258B2FEBDC046982F00200023F0B554
:10A60000394D85B002AA53719371D371971DD61D30
:10A610002A6803AC23708133002A62D01C212F32B8
:10A62000137880008B43084018432070381CFFF7D4
:10A63000ABFD3B780190002B27D0FFF7C1FD2B68C5
:10A64000071C9B6B03209847211C0122F520FFF774
:10A65000CDFD019B3F18FF182B68311C2D331B7853
:10A660000122F2203370FFF7C1FD2B6802AA2E33BE
:10A670001B78FFB23F185371511DF4200122FFF7E0
:10A68000B5FDFFB23F18FFB209E02B68F5211A1C97
:10A69000293210781D6B221C0123A847071C211C9E
:10A6A0000122F420FFF7B6FD0F4D22782B68C71961
:10A6B0002E331A70211C0122F220FFF7ABFD2B680C
:10A6C00022782D33FFB21A703F18211C0122F52089
:10A6D000FFF7A0FD2A68FFB221783B182F321170D6
:10A6E000DBB258B205B0F0BD982F002008B5174A6C
:10A6F000174B1A63174A5A631A1C29321070164AEC
:10A70000181C9A63FFF724FD002801D013481BE0B2
:10A710000320FFF705FF0028F8D1FFF76FFF00289F
:10A72000F4D10130FFF770FE0028EFD10130FFF7C0
:10A73000F7FD0028EAD10130FFF780FD0028E5D1C0
:10A74000FFF7EEFE0028E1D108BDC046359D0100AF
:10A750002C370020B79D0100AF9D010003200000B1
:10A76000002313B5041C036001A80193FFF74EFBFF
:10A7700000280AD10198FFF76BFB20600120FFF74A
:10A78000CFFE002802D0024800E0024816BDC046B5
:10A790000120000002200000002313B5041C036008
:10A7A00001A80193FFF772FB00280AD10198FFF777
:10A7B0008FFB20600120FFF7B3FE002802D0024883
:10A7C00000E0024816BDC046012000000220000043
:10A7D000002313B5041C036001A80193FFF7D0FB0D
:10A7E00000280AD10198FFF7E9FB20600120FFF75C
:10A7F00097FE002802D0024800E0024816BDC0467D
:10A800000120000002200000A02370B5DB05032416
:10A81000234D002830D1234E9C510C3E9C51224E9A
:10A820009851EC20C0001C50A12419261F48E400B8
:10A830000651033E4651A2250136ED0046518025C2
:10A840006D041D5180241A4B0139E405C9B2C4506E
:10A850000023022901D8174B5B5C1749002A01D05D
:10A86000012213434350031C0022FC33DA60A0236F
:10A870000132DB00C25070BDEF200026C0001C502A
:10A880001C501E50A1261C501E240C48F60084515A
:10A890004451A225ED0044518024E4059C51D1E7A8
:10A8A0000C050000640700005C0700000030004059
:10A8B00024050000EE2D0200540500000040004079
:10A8C000F7B51D4C009101931821A04200D006312C
:10A8D0000125A0248D401949E405655000210E1C76
:10A8E000009B8CB29C4220D2575C154C0751071C30
:10A8F000FC37FC68002C0BD0C02300249B019E4237
:10A900000BD1A123A022DB00D205D550201C12E0E0
:10A910000C4CA642F0D80136E9E7FC60A324E40021
:10A920000459019B5C540131DAE7A123A0220120E4
:10A93000DB00D205D550FEBD003000400C05000004
:10A940001C050000FF2F0000A0DF7047A2DF70474A
:10A95000A4DF7047A6DF704763DF7047F0B50B6870
:10A96000041C036001235B4203810A79037782722E
:10A97000FF2283774277C3774879621CD0773132E0
:10A98000137053709370D37088799375D375137661
:10A9900053761071C879163210719375D37513768A
:10A9A0005376231C0A7A62331A70221CADB07432BB
:10A9B0002633FF20107001329A42FAD14A7A251CC0
:10A9C0001A70221CA4359A32FF2010700132AA425C
:10A9D000FAD18A7A10261A70221CB6321070507082
:10A9E000CA7A1CA81A70F049321C07F078F9A11D28
:10A9F0001CA8FFF7B1FF002800D061E2A3791AA9D3
:10AA00008B708923221D5B0101300B80FFF79CFFB7
:10AA1000031E00D054E2A57A002D07D0311C01336B
:10AA200017AA1943013311705170937025AE00219C
:10AA30001C22301C07F05CF9012102222940681E0B
:10AA400085410901114331706D4217A92940716197
:10AA5000002116A801811023012016AD1843287289
:10AA60000320A872023818432873012003436B7334
:10AA7000AA7320AD1232281C07F03AF9A3791BAF54
:10AA8000BB70CA4B311C3B8018AB6B6004232B811D
:10AA90000423AB81231C1C332B610193A088103B42
:10AAA0002A1C20970293FFF751FF002800D007E2ED
:10AAB000A3790822BB70BE4B68813B8019AB6B60E9
:10AAC00001232B810123AB81231C20332B6133789D
:10AAD000311C1343043A13433370231CA0881433EE
:10AAE0002A1C20970393FFF731FF002800D0E7E1ED
:10AAF000A3790822BB70AF4B2F603B8018AB6B6013
:10AB000004232B810423AB81231C32332B61049358
:10AB1000337868819343043A93433370231CA088AD
:10AB20002233311C2A1C0593FFF710FF002800D0A8
:10AB3000C6E1A3790822BB709F4B2F603B8019AB05
:10AB40006B6001232B810123AB81231C36332B61E6
:10AB5000337868811343043A13433370231CA0886D
:10AB60002A33311C2A1C0693FFF7F0FE002800D080
:10AB7000A6E1A3790822BB70904B2F603B8018ABF5
:10AB80006B6004232B810423AB81231C48332B618E
:10AB90000793337868819343043A93433370231CBB
:10ABA000A0883833311C2A1C0893FFF7CFFE0028F9
:10ABB00000D085E1A3790822BB70814B2F603B80D8
:10ABC00019AB6B6001232B810123AB81231C4C3318
:10ABD0002B61337868811343043A13433370231C89
:10ABE000A0884033311C2A1C0993FFF7AFFE0028D0
:10ABF00000D065E1A3790822BB70724B2F603B80C7
:10AC000018AB6B6004232B810423AB81231C5E33C0
:10AC10002B610A93337868819343043A93433370EA
:10AC2000231CA0884E33311C2A1C0B93FFF78EFE89
:10AC3000002800D044E1A3790822BB708A235B017D
:10AC40003B8019AB6B6001232B810123AB81231C5B
:10AC500062332B6133782F601343043A134333700C
:10AC6000231C68815633A088311C2A1C0C93FFF7E3
:10AC70006DFE002800D023E1A3790822BB70524B5F
:10AC80002F603B8018AB6B6014232B811423AB81A6
:10AC9000231C74332B610D93337868819343043AFA
:10ACA00093433370231CA0886433311C2A1C0E93F9
:10ACB000FFF74CFE002800D002E1A3790822BB7008
:10ACC000424B2F603B8019AB6B6001232B8101232A
:10ACD000AB81231C88332B61337868811343043A9A
:10ACE00013433370231CA0886C33311C2A1C0F9330
:10ACF000FFF72CFE002800D0E2E0A3791BAFBB7069
:10AD0000334B20AD3B8018AB6B600A232B810023B3
:10AD10006B810A33AB81231C08229A3325AE2B6149
:10AD200010933378311C9343043A93433370231CBC
:10AD3000A0888A332A1C20971193FFF707FE00286A
:10AD400000D0BDE0A3790822BB70224B68813B8014
:10AD500019AB6B600A232B810A23AB81231CA4331C
:10AD60002B613378311C1343043A13433370231C93
:10AD7000A08892332A1C20971293FFF7E7FD002842
:10AD800000D09DE0A3790822BB70134B2F603B805D
:10AD900018AB6B6002232B810223AB81231CB633DB
:10ADA0002B6113931AE0C046F12D0200331100000D
:10ADB0003411000035110000361100003711000079
:10ADC0003811000039110000431100004411000047
:10ADD00045110000461100004711000033786881DA
:10ADE0009343043A93433370231CA088A633311C49
:10ADF0002A1C1493FFF7AAFD002861D1A379082229
:10AE0000BB70304B2F603B8019AB6B60231CB83399
:10AE10002B61337801271343043A13433370231C07
:10AE20002F816881AF81AE33A088311C2A1C159315
:10AE3000FFF78CFD002843D10221234B029A1870A2
:10AE40005A60039A1F749A60019ADA60059A5A61EF
:10AE5000069A9A61049ADA61DA19D177089A03217D
:10AE60005A62099A9A62079ADA621A1C3032117091
:10AE70000B9AC9195A630C9A9A630A9ADA631A1CD4
:10AE8000403211701A1C0521503211700E9AC919E6
:10AE90005A650F9A9A650D9ADA651A1C603211701C
:10AEA000119AC9195A66129A9A66109ADA661A1C89
:10AEB00070321170149A5A67159A9A67139ADA6762
:10AEC0002DB0F0BD481100009C2F0020F0B50024EB
:10AED000A9B002900391049205930134039A631E72
:10AEE000D35C414908A8221C06F0BAFF002008A93B
:10AEF000FEF76AF90A2CF0D100253C4E2F0108AC70
:10AF0000BB5D2A1C3A49201C06F0AAFF0020211C28
:10AF1000FEF75AF9BB5D059A93425ED13549201C74
:10AF200006F09EFF0020211CFEF74EF90E2304AA16
:10AF30009B186A46128A1A800023049A934208DA00
:10AF4000039A2A48D15C2A018218D268D15401336D
:10AF5000F3E7F619736804AA18880E239B181A1CC5
:10AF60000021039BFFF7F4FC051C071E39D1029B4F
:10AF700021491A899B7A201C0093204B06F070FF10
:10AF8000281C211CFEF720F9029B1C4A1B8908354E
:10AF9000934226D0029B9B7A002B22D01849201C7A
:10AFA00006F080FF211C381CFEF70EF9391C102218
:10AFB000201C06F09DFE736804AA1B88211C2380B8
:10AFC0000123A3700D339B18A360039BE360029BD6
:10AFD0001889FFF7BFFC051C03E00135082D8CD153
:10AFE000033D281C29B0F0BD012E02009C2F00203B
:10AFF0000F2E02002D2E0200422E0200FFFF000045
:10B000009D2E0200F0B5B3B0019058480478002C92
:10B0100000D097E056490122FDF7E6FB051C12A877
:10B02000002D00D089E0534906F03CFF12A9281CEE
:10B03000FEF7CAF809A850490122FDF7FDFB041EDE
:10B0400005D012A84D4906F02DFF281C87E04C4E74
:10B050004C49326812A806F003FF12A9201CFEF723
:10B06000B3F804AD316809A8FDF71EFE03AB291C37
:10B07000142209A8FDF777FC4349039A12A806F0A9
:10B08000EFFE201C12A9FEF79FF8039B371C0093CC
:10B09000132B22D834603D4E002B0BD0291C1422D8
:10B0A00005230198FFF712FF12A8311C06F0FAFEE3
:10B0B000201C0EE03649281C06F0F4FE291C142240
:10B0C00005230198FFF702FF12A8311C06F0EAFEE3
:10B0D000009812A9FEF778F826E02E4E12A8311C2F
:10B0E00006F0E0FE201C12A9FEF76EF82A5D2A4940
:10B0F00012A806F0B5FE002012A9FEF765F8039B22
:10B1000001349C42F2D9311C12A806F0CBFE12A9E0
:10B110000020FEF759F83B68019814333B60291C66
:10B1200014220523FFF7D2FE09A8FDF7B0FD104950
:10B1300001220020FDF758FB0CE0184906F0B2FE92
:10B14000201C04E012A8164906F0ACFE002012A94B
:10B15000FEF73AF812A8134906F0A4FE002012A93F
:10B16000FEF732F8002033B0F0BDC046CC340020EA
:10B17000882B0200AE2E0200C02E0200C92E020053
:10B180001C300020D92E0200E22E0200F12E020017
:10B19000082F0200872B02001C2F02001F2F020025
:10B1A000312F0200412F020030B585B06B46041CE0
:10B1B0000733101C0E22197001216A4411800728E0
:10B1C00036D804F0E7FA0409131A3520352E18781A
:10B1D000611CC877A08A04E0211C187836310870F9
:10B1E000608D0021FFF7B4FB051C22E0211C1878BC
:10B1F0004C3108700234E08FF3E7211C187862317B
:10B200000870563412E0211C1878883108701C39F7
:10B2100008880021FFF79CFB051C201CFFF7F2FEAD
:10B2200007E0211C1878B8310870AE342088D8E7C0
:10B230000025281C05B030BDF0B50A27A5B002AB2B
:10B24000DF8000260633062A1CD10192021C0C1C4A
:10B250000978A4321170123A051C002110881A1CBA
:10B26000231CFFF775FB211C3A1C019B061C281CA4
:10B27000FFF72CFE054904A806F014FE002004A9DF
:10B28000FDF7A2FF301C25B0F0BDC0464D2F0200D7
:10B2900073B50B88112B06D0502B08D0102B00D083
:10B2A000AAE08B8801E001235B420381A4E0CA8805
:10B2B000838A0D1C041C8E1D9A4210D1338B012BE6
:10B2C0000DD10368002B0AD06B46002201911A7041
:10B2D000B17EFFF769FF201C694623689847EA881A
:10B2E000638D9A4210D1328B012A0DD12368002B35
:10B2F0000AD06B4601951A70B17E201CFFF754FFEF
:10B30000201C694623689847A31CEA88DB8F9A4271
:10B3100011D1338B012B0ED12368002B0BD06B4640
:10B32000022201951A70B17E201CFFF73DFF201C00
:10B33000694623689847231C5633EA881B889A423B
:10B3400011D1338B012B0ED12368002B0BD06B4610
:10B35000032201951A70B17E201CFFF725FF201CE7
:10B36000694623689847231C6C33EA881B889A42F5
:10B3700011D1338B012B0ED12368002B0BD06B46E0
:10B38000052201951A70B17E201CFFF70DFF201CCD
:10B39000694623689847231C9233EA881B889A429F
:10B3A00012D1338B0A2B0FD12368002B0CD0291C10
:10B3B0006B4606222031201C1A700195FFF73CFFD6
:10B3C000201C694623689847231CAE33EA881B88F3
:10B3D0009A4211D1338B012B0ED12368002B0BD055
:10B3E0006B46072201951A70B17E201CFFF7DCFE28
:10B3F0002368201C6946984773BD73DF704740DFA0
:10B400007047000000B5A1B0FAF7A2FE68464B49AC
:10B4100006F048FD69460020FDF7D6FEFAF7C8FEA3
:10B420006846474906F03EFD69460020FDF7CCFE20
:10B43000FAF7D2FE6846434906F034FD694600201B
:10B44000FDF7C2FEFBF796F968463F4906F02AFD74
:10B4500069460020FDF7B8FEFAF70EFF68463B4943
:10B4600006F020FD69460020FDF7AEFEFAF740FF2A
:10B470006846374906F016FD69460020FDF7A4FE30
:10B48000FAF782FF6846334906F00CFD6946002052
:10B49000FDF79AFEFAF78AFF68462F4906F002FD8B
:10B4A00069460020FDF790FEFAF7C0FF68462B4979
:10B4B00006F0F8FC69460020FDF786FEFAF7E4FF87
:10B4C0006846274906F0EEFC69460020FDF77CFE41
:10B4D000FBF724F86846234906F0E4FC694600209F
:10B4E000FDF772FEFBF740F868461F4906F0DAFCEC
:10B4F00069460020FDF768FEFBF760F868461B49C7
:10B5000006F0D0FC69460020FDF75EFEFBF7A4F8CC
:10B510006846174906F0C6FC69460020FDF754FE50
:10B52000A0228021134BD2054905D15080218905E5
:10B53000D1500020FCF72CF921B000BD5E2F020095
:10B540006F2F02007A2F0200872F02009B2F02002C
:10B55000A82F0200B82F0200CD2F0200DE2F02001C
:10B56000F82F020007300200193002002B300200D1
:10B570003E3002000C05000070B5051C0C1C161CAA
:10B58000A2B0231C2A1C1D4902A806F069FC02A9CE
:10B590000020FDF719FE321C194902A806F060FCD4
:10B5A00002A90020FDF710FE231C009602A81549F1
:10B5B0002A1C06F055FC14480378002B14D1134CB8
:10B5C0000122211CFDF710F9051E15D102A806F075
:10B5D00071FC02A9021C0E4800F02EFA281C211C46
:10B5E0000122FDF701F907E002A806F063FC02A9B9
:10B5F000021C074800F020FA22B070BD5130020052
:10B600009E30020078300200CC340020882B0200EB
:10B61000A230020000B5A1B06846094906F042FC1C
:10B6200069460020FDF7D0FD064802F0FFFDBFF39C
:10B630004F8F054A054BDA60BFF34F8FFEE7C046D8
:10B64000AE300200881300000400FA0500ED00E0AF
:10B65000031C00B50A1CA1B0191C0B48FFF78CFF96
:10B6600068460A4906F01EFC69460020FDF7ACFD5D
:10B67000074802F0DBFDBFF34F8F064A064BDA6046
:10B68000BFF34F8FFEE7C046EFBEADDED8300200FD
:10B69000881300000400FA0500ED00E008B5512110
:10B6A000014AFFF769FF08BD1131020010B50478A7
:10B6B000A0B0002C07D10549684606F0F3FB201C1A
:10B6C0006946FDF781FD20B010BDC0461B31020068
:10B6D00010B5A6B001ACFAF721FF201C00211422FE
:10B6E00006F006FBA023201C2382FFF786FE041E23
:10B6F00004D07721094AFFF73FFF0CE0084906A86C
:10B7000006F0D0FB06A9201CFDF75EFD1D200A21D6
:10B71000FF22FDF7D5FE26B010BDC0461131020054
:10B720005C31020010B5041C0088A0B01038092854
:10B730003AD804F02FF80517313939393939392811
:10B740001A49684606F0AEFB69460020FDF73CFD4D
:10B750001D20FDF79DFE1D20FDF784FEA288144BE1
:10B760001A8021E06846134906F09CFB69460020D8
:10B77000FDF72AFD1D20FDF78BFE0020FCF756F893
:10B78000FFF7A6FF10E0A479002C0DD168460A4906
:10B7900006F088FB201C04E06846084906F082FB9E
:10B7A00000206946FDF710FD20B010BD6D3102008C
:10B7B000CC20002086310200A2310200C7310200F5
:10B7C00008B5002A04D0101CF721024AFFF7D4FE66
:10B7D000002008BD1131020010B5041C02F046FA29
:10B7E000201CFFF79FFF201C00F076FF0248211C61
:10B7F000FFF74EFD10BDC046C833002008B501F06C
:10B80000F9FC08BD10B50C1CA0B03E49684606F016
:10B8100049FB69460020FDF7D7FCFBF719F82078B3
:10B82000072865D803F0B6FF04153C2A644D535928
:10B83000354B36490133DA7F684606F011FB69461D
:10B840000020FDF7C1FCFBF717FC9A2100284FD020
:10B8500024E02D4B2E4936331A78684606F000FB5B
:10B8600069460020FDF7B0FCFBF738F800283FD010
:10B870003C21FF31274AFFF77FFE39E0224B264962
:10B8800062331A78684606F0EBFA69460020FDF745
:10B890009BFCFBF739F900282AD0A1214900E9E7F0
:10B8A000194B1E494C331A78684606F0D9FA694696
:10B8B0000020FDF789FCFBF7C3FCA821002817D066
:10B8C000ECE7114B684688331A7815490AE00E4BAD
:10B8D0006846A4331A78134904E068460A4B1249B3
:10B8E000B8331A7806F0BCFA00206946FDF76CFC04
:10B8F0000020FBF79BFF00200C4A011C02F0D0FC4B
:10B9000020B010BD7C320200C83300208D3202000E
:10B91000B832020011310200E13202000B330200A2
:10B92000353302005E33020089330200C96701002B
:10B9300008B5FBF729FC002804D08421114AFF3107
:10B94000FFF71AFEFBF756F8002804D0C4210D4A71
:10B950004900FFF711FEFBF75BF9002804D08E21A8
:10B96000084AFF31FFF708FEFBF7F2FC002804D07D
:10B97000C921044A4900FFF7FFFD0020FBF756FFED
:10B9800008BDC04611310200C0230249024ADB0053
:10B99000D15070473546526E0000014008B5FAF7A5
:10B9A0007BFF08BD08B5FFF72DFDFFF791FE0020D6
:10B9B0000A4A011C02F074FC094B0A49186800226B
:10B9C00001F0E0F902F002FDFFF719FD0028F9D0BF
:10B9D000B621054AFF31FFF7CFFDF3E7C967010044
:10B9E000C4330020AB2A000011310200002170474F
:10B9F00000B50D4BA1B0984208D168460B4906F03E
:10BA000051FA69460020FDF7DFFB0AE00823021C1B
:10BA10009A4306D0064B984203D01421054AFFF7FB
:10BA2000ABFD21B000BDC04604300000B5330200BC
:10BA300001340000CF33020070B5041C8AB00E1C24
:10BA4000151C01A8211C1222FCF7F6FE002806D1C5
:10BA500001A80499FDF728F9002815D107E001A8ED
:10BA6000211C0222FCF7E8FE0028F1D00CE0009037
:10BA7000311C01A82A1C6B46FDF710F8002803D1E1
:10BA800001A8FDF704F901E0802040020AB070BD72
:10BA9000031C70B5C0B00D1C6846191C06F0E0F917
:10BAA00015480378002B1CD1144E0122311CFCF7E1
:10BAB0009BFE041E1DD120A8114906F0F3F920A910
:10BAC000201CFDF781FB684606F0F4F96946021C6C
:10BAD000281CFFF7B1FF201C311C0122FCF784FE5B
