:020000021000EC
:10600000004000201DED010065ED0100C576010096
:106010000000000000000000000000000000000080
:1060200000000000000000000000000069ED010019
:1060300000000000000000006BED01006DED0100AC
:106040006FED01006FED01006FED01006FED0100DC
:106050006FED010000000000D1E801006FED0100CC
:106060006FED01006FED01008D9E01006FED0100ED
:106070006FED01006FED01006FED01006FED0100AC
:106080006FED0100E1D001006FED01006FED010047
:1060900081D101006FED0100ADC901006FED01007C
:1060A0006FED01006FED0100000000000000000036
:1060B00000000000000000000000000000000000E0
:1060C000164B002B00D1144B9D46402292029A1A87
:1060D000924600218B460F461348144A121A0CF0C0
:1060E00049FA0F4B002B00D098470E4B002B00D0E5
:1060F00098470020002104000D000D48002802D020
:106100000C4800E000BF0CF0F7F92000290001F076
:10611000EBFC0CF0DBF9C04600000800004000205A
:10612000000000000000000038210020A4370020FB
:10613000000000000000000077DF704778DF704744
:106140007ADF70477CDF704760DF704768DF704739
:10615000A023EF220321DB05D20030B5A120995006
:106160008022C000D2051A500C2204250B4C1A5173
:106170000B4C1D510B4C1A51043C19518024E40066
:106180001C50E320C0001A5010381A5006481A500C
:10619000E222D2009950054A995030BD54070000C0
:1061A000240700002C0700000C0700001C0700005B
:1061B000A023EE210322DB05C9005A5005495A509D
:1061C000A1228021D200490599508021890599504A
:1061D0007047C04674070000002307B502200093F3
:1061E0000A2115221A4B07F089F9002803D03D2116
:1061F000184A01F019FA18480121184A07F0DEF987
:10620000002803D04021134A01F00EFA144801215E
:10621000144A07F0D3F9002803D041210D4A01F0B8
:1062200003FA11480121114A07F0C8F9002803D0E8
:106230004221084A01F0F8F90D4801210D4A07F002
:10624000BDF9002803D04321024A01F0EDF907BD52
:1062500038210020B837020058370020417A010069
:10626000283300203591010054330020CD7A0100FD
:10627000EC330020E17A0100164910B504205831B2
:1062800008F072FB002803D04B21134A01F0CCF92F
:10629000C122124992008858114B124C0340C02071
:1062A000000403438B501049201C0A1C0F4B08F0BC
:1062B0008FFB002803D05021074A01F0B5F9207860
:1062C00008F0AAFB002803D05221034A01F0ACF9E0
:1062D00010BDC046B8280020B837020000E100E039
:1062E000FFFF00FF5033002040082000CD90010048
:1062F0001FB5012202AC23781F4993432370082065
:1063000028314F32002306F021FB002803D0612101
:106310001A4A01F089F9002301A80370FFF714FF5E
:10632000002803D06921154A01F07EF9144806F0CF
:1063300029FB002803D06D21104A01F075F911489E
:1063400006F02AFB002803D070210C4A01F06CF9FA
:106350000420FFF7F1FE002803D07321074A01F063
:1063600063F90120211CFFF7F1FE002803D07621FC
:10637000024A01F059F91FBD38290020B837020040
:10638000A1780100C5780100064A08B5082014214B
:10639000783208F0B1FB002803D07D21024A01F0D9
:1063A00043F908BD38290020B83702001FB507F0AF
:1063B000D9FB002803D08A21194A01F035F9A2231C
:1063C000A022DB00D205D2580123920893436A46EB
:1063D0006846137007F0CAFF002803D09021104AC6
:1063E00001F022F90A200021684406220CF0C2F8CC
:1063F0001E2301ACE380113B2372063B6372093319
:10640000A372084B084801930123211C237108F053
:106410001BF8002803D09F21014A01F005F91FBD98
:10642000B837020085780100593300201FB50023DA
:1064300001A8134905220370FFF784FE002803D04A
:10644000B021104A01F0F0F80020FFF777FE002895
:1064500003D0B3210B4A01F0E7F8002302A8436000
:1064600050330380503343802833C380FFF768FEE6
:10647000002803D0BD21034A01F0D6F805B000BDC5
:10648000C2370200B837020010B5204C94B000218A
:10649000CC22201C0CF06EF80021102268460CF073
:1064A00069F81B4B6A46009301231371F033537153
:1064B00093711372D37153729372D372201C013B88
:1064C0006946137300F0AEFA002803D0F221114A96
:1064D00001F0AAF84022002104A80CF04BF804A80F
:1064E0000D4906F0CFF9112213AB1A704D2300228B
:1064F0006B4404A81A7006F0F7F8002804D0802135
:10650000044A490001F090F814B010BDF0330020A7
:10651000CD780100B8370200C837020030B59FB00F
:106520006B46DD1D062302AC00213822201C2B7097
:106530000CF020F802230021237010A8013B382220
:10654000A370A380A5600CF015F8201C10A906F01C
:1065500031FC002804D08D21024A490001F064F882
:106560001FB030BDB837020010B588B001AC201C98
:1065700000211C220BF0FEFF0C4B201C6360A023AB
:10658000DB02A36005232373043B2374084B636180
:10659000084BA36106F0B2FC002804D09821064AFB
:1065A000490001F041F808B010BDC04655D50000C3
:1065B0005D7701004D770100B837020008B502F0A1
:1065C00041FD002804D03821214AFF3101F02CF888
:1065D00003F02AFA002804D09D211D4A490001F049
:1065E00023F805F03FFF002805D19F2119484900F5
:1065F000174A01F019F8362003F01AF8002804D0E1
:106600004221134AFF3101F00FF8342002F02AFE34
:10661000002804D0A2210E4A490001F005F8732099
:1066200003F0B6F8002804D04821094AFF3100F0F1
:10663000FBFF762004F024FA002804D0A521044AA8
:10664000490000F0F1FF682002F040FF08BDC0469D
:10665000B837020001100000FA2010B5C00008F0A1
:1066600027FA524C201C02F01DF8002804D06221A9
:106670004F4AFF3100F0D8FF02F02EF8002804D076
:10668000B1214B4A490000F0CFFF201C02F0EAF98B
:10669000002804D0B321464A490000F0C5FF02F0AB
:1066A000FBF9002804D06821414AFF3100F0BCFF0B
:1066B000201C02F0BFFA002804D06C213C4AFF31B4
:1066C00000F0B2FF02F0D0FA002804D0B621384A18
:1066D000490000F0A9FF201C02F090FB002804D024
:1066E000B821334A490000F09FFF02F0A1FB0028C7
:1066F00004D072212E4AFF3100F096FF201C02F0D8
:10670000B5F8002804D07621294AFF3100F08CFF2B
:1067100002F0C6F8002804D0BB21254A490000F049
:1067200083FF201C01F00CFE002804D0BD21204A6C
:10673000490000F079FF01F01DFE002804D07C2103
:106740001B4AFF3100F070FF201C01F0D3FE00282F
:1067500004D08021164AFF3100F066FF01F0E4FE0C
:10676000002804D0C021124A490000F05DFF201C1F
:1067700002F060F9002804D0C2210D4A490000F05F
:1067800053FF00240B4B201C1C7002F021FDA021A4
:10679000094B09031868221C06F036FFA04204D0FA
:1067A000C721034A490000F03FFF10BDF03300202D
:1067B000B837020058330020283300200122A020DF
:1067C00008B50D490D4BC0025A500D495850A12033
:1067D000C0001958114319501A600A4B0A49186829
:1067E000002206F011FF002804D0CC21074A4900FE
:1067F00000F01AFF08BDC0460C0500000000014073
:10680000040500005433002055D50000B8370200BD
:1068100000B5184BA1B01A7E174B1B7E1343174AC5
:10682000127E1343164A127E1343164A127E1343F6
:10683000154A127E1343154A127E134303D1144B9B
:106840001B7E002B14D0134B0B211868002206F07E
:10685000DBFE002804D0E6210F4A490000F0E4FEE8
:106860000E4968460BF07AFF0020694604F0FCF9F7
:1068700021B000BDA0330020C0340020C833002068
:10688000303300203837002060330020E834002007
:106890008033002058370020B8370200D23702007A
:1068A00000B50B4BA1B0186806F0F6FE002804D026
:1068B000EC21084A490000F0B7FE684606490BF093
:1068C0004DFF6946002004F0CFF921B000BDC0465D
:1068D00058370020B8370200FD370200002170470A
:1068E00000B50D4BA1B0984208D168460B490BF09A
:1068F00035FF6946002004F0B7F90AE00823021CBE
:106900009A4306D0064B984203D01421054A00F062
:106910008BFE21B000BDC046043000006738020085
:10692000013400008138020070B5041C8AB00E1CCE
:10693000151C01A8211C122205F046F8002806D1DA
:1069400001A8049905F078FA002815D107E001A8FC
:10695000211C022205F038F80028F1D00CE000904C
:10696000311C01A82A1C6B4605F060F9002803D1F0
:1069700001A805F054FA01E0802040020AB070BD81
:10698000031C70B5C0B00D1C6846191C0BF0C4FE8A
:1069900015480378002B1CD1144E0122311C04F041
:1069A000EBFF041E1DD120A811490BF0D7FE20A932
:1069B000201C04F059F968460BF0D8FE6946021C09
:1069C000281CFFF7B1FF201C311C012204F0D4FF6A
:1069D00007E068460BF0CAFE6946021C281CFFF758
:1069E000A3FF002040B070BD0835002060440200C5
:1069F000D0380200014B18687047C0460C2B0020AD
:106A0000024A1368013313607047C0460C2B002004
:106A1000A0DF7047A2DF7047A4DF7047A6DF704792
:106A200063DF7047F0B50B68041C036001235B4211
:106A300003810A7903778272FF2283774277C377D3
:106A40004879621CD0773132137053709370D370D1
:106A500088799375D375137653761071C879163289
:106A600010719375D37513765376487A1632107178
:106A70009375D37513765376087A16321071937521
:106A8000D37513765376887A163210719375D37551
:106A900013765376231CCA7AA4331A70221CAFB023
:106AA0001233CA32FF20187001339342FAD11026F4
:106AB0000A7B1EA81A70F049321C0BF052FDA11D72
:106AC0001EA8FFF7ADFF002800D0A8E2A3791CA9FB
:106AD0008B708923221D5B0101300B80FFF798FF2B
:106AE000031E00D09BE2A57A002D07D0311C013394
:106AF00019AA1943013311705170937027AE002108
:106B00001C22301C0BF036FD012102222940681E98
:106B100085410901114331706D4219A92940716104
:106B2000002118A801811023012018AD18432872F4
:106B30000320A872023818432873012003436B73A3
:106B4000AA7322AD1232281C0BF014FDA3791DAFDD
:106B5000BB70CA4B311C3B801AAB6B6004232B818A
:106B60000423AB81231C1C332B610193A088103BB1
:106B70002A1C22970293FFF74DFF002800D04EE217
:106B8000A3790822BB70BE4B68813B801BAB6B6056
:106B900001232B810123AB81231C20332B6133780C
:106BA000311C1343043A13433370231CA08814335D
:106BB0002A1C22970393FFF72DFF002800D02EE216
:106BC000A3790822BB70AF4B2F603B801AAB6B6080
:106BD00004232B810423AB81231C32332B610493C8
:106BE000337868819343043A93433370231CA0881D
:106BF0002233311C2A1C0593FFF70CFF002800D01C
:106C00000DE2A3790822BB709F4B2F603B801BAB2A
:106C10006B6001232B810123AB81231C36332B6155
:106C2000337868811343043A13433370231CA088DC
:106C30002A33311C2A1C0693FFF7ECFE002800D0F3
:106C4000EDE1A3790822BB70904B2F603B801AAB1B
:106C50006B6004232B810423AB81231C48332B61FD
:106C60000793337868819343043A93433370231C2A
:106C7000A0883833311C2A1C0893FFF7CBFE00286C
:106C800000D0CCE1A3790822BB70814B2F603B8000
:106C90001BAB6B6001232B810123AB81231C4C3385
:106CA0002B61337868811343043A13433370231CF8
:106CB000A0884033311C2A1C0993FFF7ABFE002843
:106CC00000D0ACE1A3790822BB70724B2F603B80EF
:106CD0001AAB6B6004232B810423AB81231C5E332E
:106CE0002B610A93337868819343043A934333705A
:106CF000231CA0884E33311C2A1C0B93FFF78AFEFD
:106D0000002800D08BE1A3790822BB70624B2F6072
:106D10003B801BAB6B6001232B810123AB81231CC8
:106D200062332B61337868811343043A1343337021
:106D3000231CA0885633311C2A1C0C93FFF76AFED3
:106D4000002800D06BE1A3790822BB70534B2F6061
:106D50003B801AAB6B6004232B810423AB81231C83
:106D600074332B610D93337868819343043A9343D2
:106D70003370231CA0886433311C2A1C0E93FFF748
:106D800049FE002800D04AE1A3790822BB708A237B
:106D90005B013B801BAB6B6001232B810123AB812B
:106DA000231C78332B6133782F601343043A134349
:106DB0003370231C68816C33A088311C2A1C0F930C
:106DC000FFF728FE002800D029E1A3791DAFBB7092
:106DD000334B22AD3B801AAB6B6004232B81002325
:106DE0006B810433AB81231C08228A3327AE2B61CD
:106DF00010933378311C9343043A93433370231C2C
:106E0000A0887A332A1C22971193FFF703FE0028EB
:106E100000D004E1A3790822BB70224B68813B803B
:106E20001BAB6B6001232B810123AB81231C8E33B1
:106E30002B613378311C1343043A13433370231C02
:106E4000A08882332A1C22971293FFF7E3FD0028C3
:106E500000D0E4E0A3790822BB70134B2F603B8085
:106E60001AAB6B6004232B810423AB81231CA0335A
:106E70002B6113931AE0C0466D39020033110000F4
:106E800034110000351100003611000037110000E8
:106E900038110000411100004211000039110000BA
:106EA0005011000051110000521100003378688128
:106EB0009343043A93433370231CA0889033311CCE
:106EC0002A1C1493FFF7A6FD002800D0A7E0A379A1
:106ED0000822BB70534B2F603B801BAB6B600123C0
:106EE0002B810123AB81231CA4332B613378688170
:106EF0001343043A13433370231CA0889833311C86
:106F00002A1C1593FFF786FD002800D087E0A3799F
:106F10000822BB70444B2F603B801AAB6B6014237C
:106F20002B81AB81231CB6332B6116933378688198
:106F30009343043A93433370231CA088A633311C37
:106F40002A1C1793FFF766FD002868D1A379082251
:106F5000BB70364B2F603B801BAB6B6001232B81DA
:106F60000123AB81231C271CCA332B613378688132
:106F70001343043A13433370AE37A088311C2A1CE4
:106F80003B1CFFF747FD002849D1294B029A0221FB
:106F90005A60039A18709A60019ADA6001221A7492
:106FA000059A5A61069A9A61049ADA615A1CD17755
:106FB000089A01315A62099A9A62079ADA621A1C8F
:106FC000303211700E9A01315A630F9A9A630D9AFA
:106FD000DA631A1C403211700B9A05215A640C9A1C
:106FE0009A640A9A9F65DA641A1C50321170179AD3
:106FF00001315A65169ADA651A1C60321170119ABD
:1070000001315A66129A9A66109ADA661A1C703220
:107010001170149A5A67159A9A67139ADA672FB003
:10702000F0BDC046531100004311000044110000A0
:10703000142B0020F0B50D1C041C002189B0204841
:107040000E01375C01909F4234D102ABDA800023FD
:10705000934209DAEF5C0198BC460F01C7196046FC
:10706000FF68F8540133F3E7019B00219819476842
:1070700002AB9A1D38882B1CFFF7CEFC011E1DD1D8
:107080002689104B08309E4218D0A37A002B15D0C9
:1070900004AC201C10220BF06DFA3B88301C2380BE
:1070A0000123A37002AB0633211CA360E560FFF748
:1070B000B5FC03E001310829C1D1052009B0F0BDBC
:1070C000142B0020FFFF0000F0B5B3B0019058482A
:1070D0000478002C00D097E05649012204F04CFCC3
:1070E000051C12A8002D00D089E053490BF036FB97
:1070F00012A9281C03F0B8FD09A85049012204F088
:1071000063FC041E05D012A84D490BF027FB281C78
:1071100087E04C4E4C49326812A80BF0FDFA12A9D8
:10712000201C03F0A1FD04AD316809A804F084FE21
:1071300003AB291C142209A804F0DDFC4349039A7F
:1071400012A80BF0E9FA201C12A903F08DFD039B95
:10715000371C0093132B22D834603D4E002B0BD0EC
:10716000291C142205230198FFF764FF12A8311C83
:107170000BF0F4FA201C0EE03649281C0BF0EEFA56
:10718000291C142205230198FFF754FF12A8311C73
:107190000BF0E4FA009812A903F066FD26E02E4EEB
:1071A00012A8311C0BF0DAFA201C12A903F05CFDC6
:1071B0002A5D2A4912A80BF0AFFA002012A903F0A9
:1071C00053FD039B01349C42F2D9311C12A80BF0F1
:1071D000C5FA12A9002003F047FD3B68019814335B
:1071E0003B60291C14220523FFF724FF09A804F0A3
:1071F00016FE10490122002004F0BEFB0CE01849E5
:107200000BF0ACFA201C04E012A816490BF0A6FA09
:10721000002012A903F028FD12A813490BF09EFAD2
:10722000002012A903F020FD002033B0F0BDC046BD
:107230000835002060440200D0380200E238020025
:10724000EB380200942B00207D39020086390200C1
:10725000FE380200953902005F440200FB3802004C
:10726000A939020015390200BB39020030B585B0DA
:107270006B46041C0733101C0E22197001216A444E
:1072800011800025072841D808F0C6FE0409132004
:107290001A33262C1878611CC877A08A04E0211CB8
:1072A000187836310870608D0021FFF7B5FB051C9A
:1072B0002CE0211C18784C3108700234E08FF3E781
:1072C000211C187862310870563410E0211C18789F
:1072D000783108706C340AE0211C18788E310870FF
:1072E000823404E0211C1878A43108709834208876
:1072F000DAE7211C1878CA3108701C390888002187
:10730000FFF78AFB051C201CFFF7DEFE281C05B0DA
:1073100030BD73B50B88112B06D0502B08D0102B25
:1073200000D0C1E08B8801E001235B420381BBE018
:10733000CA88838A0D1C041C8E1D9A4210D1338B7F
:10734000012B0DD10368002B0AD06B46002201915E
:107350001A70B17EFFF78AFF201C694623689847A0
:10736000EA88638D9A4210D1328B012A0DD12368AD
:10737000002B0AD06B4601951A70B17E201CFFF7D6
:1073800075FF201C694623689847A31CEA88DB8F99
:107390009A4211D1338B012B0ED12368002B0BD0D5
:1073A0006B46022201951A70B17E201CFFF75EFF2A
:1073B000201C694623689847231C5633EA881B889B
:1073C0009A4211D1338B012B0ED12368002B0BD0A5
:1073D0006B46042201951A70B17E201CFFF746FF10
:1073E000201C694623689847231C6C33EA881B8855
:1073F0009A4211D1338B012B0ED12368002B0BD075
:107400006B46032201951A70B17E201CFFF72EFFF8
:10741000201C694623689847231C8233EA881B880E
:107420009A4211D1338B012B0ED12368002B0BD044
:107430006B46062201951A70B17E201CFFF716FFDD
:10744000201C694623689847231C9833EA881B88C8
:107450009A4211D1338B012B0ED12368002B0BD014
:107460006B46072201951A70B17E201CFFF7FEFEC5
:10747000201C694623689847231CAE33EA881B8882
:107480009A4211D1338B012B0ED12368002B0BD0E4
:107490006B46052201951A70B17E201CFFF7E6FEAF
:1074A0002368201C6946984773BD73DF704740DF2F
:1074B0007047000000B5A1B0FEF74AFE68464B4990
:1074C0000BF04CF96946002003F0CEFBFEF770FE8E
:1074D000684647490BF042F96946002003F0C4FBB7
:1074E000FEF77AFE684643490BF038F969460020FA
:1074F00003F0BAFBFFF762F968463F490BF02EF93B
:107500006946002003F0B0FBFEF7B6FE68463B4933
:107510000BF024F96946002003F0A6FBFEF7E8FE15
:10752000684637490BF01AF96946002003F09CFBC6
:10753000FEF72AFF684633490BF010F96946002030
:1075400003F092FBFEF732FF68462F490BF006F975
:107550006946002003F088FBFEF768FF68462B4968
:107560000BF0FCF86946002003F07EFBFEF78CFF71
:10757000684627490BF0F2F86946002003F074FBD7
:10758000FEF7CCFF684623490BF0E8F86946002077
:1075900003F06AFBFEF7E8FF68461F490BF0DEF8D0
:1075A0006946002003F060FBFFF708F868461B49B6
:1075B0000BF0D4F86946002003F056FBFFF74CF8B7
:1075C000684617490BF0CAF86946002003F04CFBE7
:1075D000A0228021134BD2054905D1508021890575
:1075E000D150002001F0A6FD21B000BDC739020036
:1075F000D8390200E3390200F0390200043A0200EF
:10760000113A0200213A0200363A0200473A0200DB
:10761000613A0200703A0200823A0200943A020093
:10762000A73A02000C05000070B5051C0C1C161CC6
:10763000A2B0231C2A1C1D4902A80BF06DF802A958
:10764000002003F011FB321C194902A80BF064F86A
:1076500002A9002003F008FB231C009602A815498C
:107660002A1C0BF059F814480378002B14D1134C42
:107670000122211C04F080F9051E15D102A80BF08F
:1076800075F802A9021C0E48FFF74EF9281C211CB0
:10769000012204F071F907E002A80BF067F802A9D3
:1076A000021C0748FFF740F922B070BDBA3A020049
:1076B000073B0200E13A0200083500206044020066
:1076C0000B3B020000B5A1B0684609490BF046F833
:1076D0006946002003F0C8FA064807F0E9F9BFF34D
:1076E0004F8F054A054BDA60BFF34F8FFEE7C04668
:1076F000173B0200881300000400FA0500ED00E0CB
:10770000031C00B50A1CA1B0191C0B48FFF78CFF25
:1077100068460A490BF022F86946002003F0A4FAF3
:10772000074807F0C5F9BFF34F8F064A064BDA60EA
:10773000BFF34F8FFEE7C046EFBEADDE413B020018
:10774000881300000400FA0500ED00E008B552219E
:10775000014AFFF769FF08BD7A3B020010B50478C3
:10776000A0B0002C07D1054968460AF0F7FF201C9D
:10777000694603F079FA20B010BDC046843B020090
:1077800010B5A6B001ACFEF7C9FE201C00211422E2
:107790000AF0F0FEA023201C2382FFF786FE041EC1
:1077A00004D07821094AFFF73FFF0CE0084906A8FA
:1077B0000AF0D4FF06A9201C03F056FA1D200A2166
:1077C000FF2202F079F926B010BDC0467A3B0200D4
:1077D000C53B020010B5041C0088A0B01038092871
:1077E00041D808F019FC0517384040404040402F70
:1077F0001E4968460AF0B2FF6946002003F034FAD9
:107800001D2002F041F91D2002F028F9A288184B32
:107810001A8028E00123164C5B42684615492380F4
:107820000AF09CFF6946002003F01EFA1D2002F0BA
:107830002BF92288104B00201A8101F0C9FCFFF7B8
:107840009FFF10E0A479002C0DD168460B490AF087
:1078500085FF201C04E0684609490AF07FFF0020EC
:10786000694603F001FA20B010BDC046D63B0200C5
:1078700000200020EF3B0200F03300200B3C020010
:10788000303C020008B5002A05D08021101C4900B8
:10789000024AFFF7C9FE002008BDC0467A3B02003D
:1078A00010B5041C06F024FE201CFFF793FF201CDB
:1078B00005F054FB0248211CFFF72BFD10BDC0460C
:1078C000F033002008B506F0D7F808BD10B50C1C41
:1078D000A0B04F4968460AF041FF6946002003F016
:1078E000C3F9FEF7DDFF2078072800D985E0494B72
:1078F00008F092FB04146828387948580133DA7F7D
:10790000454968460AF008FF6946002003F0ACF9D3
:1079100000F0E2FE9E2100286FD062E036331A7834
:107920003E4968460AF0F8FE6946002003F09CF9DB
:1079300001F0B2F8002860D04421FF31384AFFF747
:1079400073FE5AE078331A78364968460AF0E4FE46
:107950006946002003F088F900F0A2FFA521002865
:107960004BD03EE062331A782F4968460AF0D4FEC5
:107970006946002003F078F901F05AFA52210028F4
:107980003BD0DAE78E331A78284968460AF0C4FEFD
:107990006946002003F068F900F0ECFCAC210028F7
:1079A0002BD01EE0A4331A78214968460AF0B4FEB1
:1079B0006946002003F058F900F0B6FD6021002868
:1079C0001BD0BAE74C331A781A4968460AF0A4FE6D
:1079D0006946002003F048F901F046F900280CD070
:1079E000B3214900AAE7CA3313491A7868460AF056
:1079F00093FE0020694603F037F9002001F0E8FB10
:107A000000200E4A011C07F08DF820B010BDC046C2
:107A1000E53C0200F0330020F63C0200213D02006C
:107A20007A3B02004A3D0200743D0200A23D020082
:107A3000CD3D0200F63D0200203E0200116801002B
:107A400008B500F0D1FE002804D08C211E4AFF3179
:107A5000FFF7EAFD01F0ACF8002804D0C8211A4A6B
:107A60004900FFF7E1FD00F0A3FF002804D09621B4
:107A7000154AFF31FFF7D8FD01F07EF9002804D048
:107A8000CD21114A4900FFF7CFFD01F05DFA002832
:107A900004D0A0210C4AFF31FFF7C6FD00F0E8FC3E
:107AA000002804D0D221084A4900FFF7BDFD00F0AC
:107AB000B7FD002804D0AA21034AFF31FFF7B4FD27
:107AC000002001F085FB08BD7A3B0200C02302497B
:107AD000024ADB00D15070473546526E000001402B
:107AE00008B5FEF78DFF08BD08B5FFF7E3FCFFF70B
:107AF00047FE00200A4A011C07F014F8094B0A4906
:107B00001868002205F080FD07F0A2F8FFF7CFFC0F
:107B10000028F9D0C821054AFF31FFF785FDF3E7BA
:107B200011680100EC330020AB2A00007A3B020010
:107B30000123C046C046C046C046C046C046C046F7
:107B4000C046C046C046C046C046C046C046013BCF
:107B5000002BEED170470000002008B5011C021C6C
:107B600004F06CFB064BEC221860A0230321DB051C
:107B7000D20099508021A1224904D200995008BD19
:107B8000982B002080B5021C6846CB1DDB08DB006B
:107B9000C31A00AF9D46044B89B218686B4604F0C7
:107BA000A9FBBD4680BDC046982B0020B0B5031C84
:107BB0006846CA1DD208D200821A00AF95460C1C36
:107BC00068466C44A04203D0FF2505700130F9E7F8
:107BD000034889B2006804F08DFBBD46B0BDC046C5
:107BE000982B002037B5094C6B46DD1D281C012160
:107BF000FFF7DCFF2B78FF2B04D0013CFFF798FF49
:107C0000002CF1D1601E8441E0B23EBD20A10700EE
:107C100007B5A1238021A0224904DB00D205D15061
:107C20006B460121D81DFFF7C1FF07BD13B5A02288
:107C30008021094BD2054904D1506B460121D81D42
:107C4000FFF7B4FFFFF7CEFF041E02D1FFF7E0FFFE
:107C500000E00124201C16BD0C050000F7B5071C30
:107C60000E1C0F4D01AC201C0121FFF79FFF237854
:107C7000FF2B0DD023780020FE2B0FD1381C311C98
:107C8000FFF794FF201C0221FFF790FF012005E081
:107C9000013DFFF74DFF002DE4D1EBE7FEBDC046EF
:107CA000A0860100F7B5071C0E1CFFF79BFF041E02
:107CB0001CD001AD281C01212E700124FFF762FFAA
:107CC000FD2E13D08021381C8900FFF75BFF281C94
:107CD0000221FFF76BFF211C281CFFF767FF1F2302
:107CE0002C781C40053C63425C41E4B2201CFEBD84
:107CF00030B543B285B0041C0D1C002B07DA3720C9
:107D00000021FFF7F5FF01283AD87F231C400C2CF7
:107D10000ED1402302A8234303702B0E43702B0C7B
:107D200083702B0AC37005719523002C0FD00AE0D5
:107D3000002CEED0FFF76CFFFFF778FF031CFF204D
:107D4000002B1DD0E5E78723082C00D0863B0621B9
:107D50004371FFF717FF6B46DD1D0C2C03D1281C68
:107D60000121FFF723FF0A24281C0121FFF71EFF32
:107D7000287843B2002B03DA013CE4B2002CF3D1A3
:107D800005B030BD08B5044B1A78044B1A7004F0E6
:107D900069FB012008BDC0460420002051330020AB
:107DA000F0B5594C85B0A24201D0A34203D10020C6
:107DB0000A9B1860A6E00E1C0390111C181C1C1CCA
:107DC000151C08F033F90290301C0AF04FF9021C20
:107DD0000B1C00204D4908F085FE00900191281CE5
:107DE0000AF044F9009A019B09F0BAFA08F0FEFA89
:107DF000061C201C0AF03AF9009A019B09F0B0FA1F
:107E000008F0F4FA039B071C002B01D1360107018F
:107E100002980AF02BF900223D4B041C0D1C08F0BF
:107E20009DFA00281DD0301C0AF020F9394A061CA2
:107E30000F1C201C291C384B06F09AFF374A009073
:107E40000191374B301C391C09F08AFA354A364B00
:107E5000041C0D1C301C391C09F082FA009A019B8D
:107E600043E0201C291C314A314B08F077FA0028E6
:107E70000ED0301C0AF0FAF82E4A2F4B09F070FA97
:107E8000041C381C0D1C0AF0F1F8264A2B4B2CE080
:107E9000201C291C2A4A2B4B08F060FA00280ED01F
:107EA000301C0AF0E3F8284A284B09F059FA041C60
:107EB000381C0D1C0AF0DAF8254A264B15E0201C68
:107EC000291C254A254B08F049FA002817D0301CF8
:107ED0000AF0CCF8224A234B09F042FA041C381C61
:107EE0000D1C0AF0C3F8204A204B09F039FA021C95
:107EF0000B1C201C291C09F0CDFC08F077FA0A9B0A
:107F00001860012005B0F0BDFFFF0000002079409F
:107F10000000E03F666666666666F63FC58F3177AD
:107F20002D219F3F5839B4C876BEAF3F85EB51B87D
:107F30001E85E33FC7BAB88D06F0963F76BE9F3FD9
:107F40009A9999999999E93F2D431CEBE2368A3F1A
:107F50004BC8073D9B558F3FCDCCCCCCCCCCF43F10
:107F6000B2632310AFEB573FD2FBC6D79E59523FA7
:107F700037B56B460C1CD91D0F23012218400F4B3F
:107F80000F4D9B78184308702878131C4000C0B22E
:107F900004F0A2FA002804D1FF220A4B00201A7034
:107FA0000AE001232878211C40001843C0B21A1CA3
:107FB00004F092FA0028EFD03EBDC0460420002015
:107FC00051330020E034002008B5034B011CD87861
:107FD000FFF7CEFF08BDC046042000200F2210B5D9
:107FE0001040104AA2B0927801AB10430E4A1870AC
:107FF000107859704000191CC0B20222012304F00D
:108000006BFA041E0AD1FF22084B094902A81A7014
:108010000AF0A4FB201C02A902F026FE201C22B0BC
:1080200010BDC0460420002051330020E034002061
:10803000493E020008B5034B03211878FFF7CEFF35
:1080400008BDC0469C2B0020F7B56B460F4DDC1DCC
:10805000071C0E1C2879211CFFF78AFF002814D06A
:1080600023781022002F01D0134300E09343032212
:1080700023702378164093431E430520267006F094
:1080800017FD28792178FFF7A9FFFEBD0420002005
:1080900008B56523012908D00E23002905D002293F
:1080A00002D1C9235B0000E000231360FFF7CCFF7F
:1080B00008BD000070B50024A0B0274968460AF04A
:1080C0004DFB6946002002F0CFFD244D2C70FFF7D8
:1080D00059FE052006F0ECFC2148FFF775FF061E4F
:1080E000A64209D11F4968460AF038FB301C694690
:1080F00002F0BAFD1C482DE0052006F0D9FCFFF780
:1081000099FF061E09D1194968460AF027FB301C61
:10811000694602F0A9FD16481CE0052006F0C8FCDF
:108120002878144A431E9841134BC0B2597808323C
:10813000FFF7AEFF051E09D1104968460AF00EFB95
:10814000281C694602F090FD0D4803E0052006F06A
:10815000AFFC201C20B070BD5A3E02005F370020EB
:108160005D370020703E0200222000007D3E0200AC
:1081700023200000042000209C2B00208B3E0200C6
:108180002420000073B56B460D1CD91D0F2301225E
:10819000114E1840B378184308703078131C400013
:1081A000C0B204F099F90D4C002803D1FF23002040
:1081B00023700FE000231420237006F079FC0123C4
:1081C0003078291C40001843C0B2022204F084F920
:1081D0000028EBD076BDC04604200020E03400200B
:1081E00038B5031C064C0D1C607B191CFFF7CAFF39
:1081F000002803D0A07B291CFFF7C4FF38BDC04670
:1082000004200020F0B50024A5B00390FFF752FF32
:10821000154D164E164904A82C7034700AF09EFABB
:1082200004A9201C02F020FD301C291CFFF7D8FFF8
:10823000071EA74209D10F4904A80AF08FFA381C7B
:1082400004A902F011FD0C480CE00C4B03991878BE
:1082500032782B7800910A498968FFF7A1FD094B14
:108260009870201C25B0F0BD5C3700205E370020E0
:108270009B3E0200BC3E0200252000005F3700202C
:10828000042000209C2B0020002337B5051C01ACE6
:10829000211C03206370237000F0F8FF62782178BE
:1082A00007480AF00DFA6178064829700AF008FAC2
:1082B000052006F0FDFB00202856C043C00F3EBD40
:1082C000CB3E0200F33E020073B5002401AE051C54
:1082D000311C02207470347000F0D8FF0F227178C6
:1082E00006480B01317811401943298009B20AF080
:1082F000E7F9052006F0DCFB201C76BD043F0200F8
:10830000002337B5051C01AC211C012063702370CC
:1083100000F0BCFF6278217807480AF0D1F9617853
:10832000064829700AF0CCF9052006F0C1FB287830
:10833000C043C0B2C0093EBDCB3E0200F33E0200C6
:1083400010B5A0B0041C094968460AF007FA69464E
:10835000002002F089FC002000210122044B18615A
:1083600059611C601A7620B010BDC0460F3F020054
:108370006033002030B5A1B01B4968460AF0EEF921
:108380000020694602F070FC184C00222368251C6E
:108390008E33187800232261636101230340237622
:1083A000400903280FD807F037FE02040A0C1048D2
:1083B00000E01048FEF792FAA860E96008E00E4875
:1083C000F8E70E48F6E70E48FEF788FAA060E1608D
:1083D00068460C490AF0C2F96946002002F044FCE4
:1083E000002021B030BDC0461E3F02006033002097
:1083F0008096980040420F00A086010010270000E0
:10840000C0D401003F3F020030B50B24A9B06C443A
:10841000201CFFF739FF051CFEF7ECFA062301903C
:108420000122009503A80E490AF076F903A80D4928
:10843000FEF7A6FA227808A80B490AF06DF908A9F8
:10844000002002F011FC094B211C042218680623AD
:10845000FEF7F0FDFEF744FA002029B030BDC0461B
:108460005D3F02006B3F0200743F0200603300205A
:1084700030B51D4BA1B01A7E002A01D100242FE097
:1084800001201C695D69002100196941DA681861E1
:1084900059618A4207D802D19A68824203D80020E3
:1084A0000021186159611A69012AE7D15A69002A25
:1084B000E4D10E490C78002C0DD1FFF7A5FF051E65
:1084C0000ED00B4968460AF049F9201C694602F0B3
:1084D000CBFB2C1C04E000200021141C1861596106
:1084E000201C21B030BDC04660330020583300202E
:1084F0007F3F020010B5A0B0041C094968460AF08D
:108500002DF96946002002F0AFFB00200021012276
:10851000044B186159611C601A7620B010BDC0462A
:10852000EE3F0200E834002030B5A1B01B49684698
:108530000AF014F90020694602F096FB184C00225C
:108540002368251CA433187800232261636101236A
:1085500003402376400903280FD807F05DFD02048D
:108560000A0C104800E01048FEF7B8F9A860E9606E
:1085700009E00E48F8E70E48F6E7FA20C000FEF7DB
:10858000ADF9A060E16068460A490AF0E7F869467B
:10859000002002F069FB002021B030BDFB3F02004B
:1085A000E83400208096980040420F00A086010029
:1085B000102700001A40020030B50B24A9B06C440B
:1085C000201CFFF79DFE2578FEF714FA0723019083
:1085D0000122009503A80E490AF09EF803A80D4950
:1085E000FEF7CEF9227808A80B490AF095F808A9F9
:1085F000002002F039FB094B211C042218680723D4
:10860000FEF718FDFEF76CF9002029B030BDC0461A
:108610005D3F02006B3F020036400200E83400205C
:1086200030B51D4BA1B01A7E002A01D100242FE0E5
:1086300001201C695D69002100196941DA6818612F
:1086400059618A4207D802D19A68824203D8002031
:108650000021186159611A69012AE7D15A69002A73
:10866000E4D10E490C78002C0DD1FFF7A5FF051EB3
:108670000ED00B4968460AF071F8201C694602F0DA
:10868000F3FA2C1C04E000200021141C186159612D
:10869000201C21B030BDC046E834002058330020F3
:1086A0003F40020010B5A0B0041C094968460AF01A
:1086B00055F86946002002F0D7FA00200021012277
:1086C000044B186159611C601A7620B010BDC04679
:1086D000A8400200C034002030B5A1B01B49684654
:1086E0000AF03CF80020694602F0BEFA184C00225D
:1086F0002368251C0133D87F002322616361012395
:1087000003402376400903280FD807F085FC0204B4
:108710000A0C104800E01048FEF7E0F8A860E96095
:1087200008E00E48F8E70E48F6E70E48FEF7D6F8E0
:10873000A060E16068460C490AF010F86946002024
:1087400002F092FA002021B030BDC046B7400200CE
:10875000C03400208096980040420F00A08601009F
:1087600010270000C0D40100E640020030B5A9B0D7
:1087700002A802F0BFF9041E08D008A8154909F0A4
:10878000EDFF08A9002002F06FFA20E0029DFEF73D
:1087900031F901220190131C0F49009503A809F03B
:1087A000BBFF0E4903A8FEF7EBF8029A0C4908A894
:1087B00009F0B2FF08A9201C02F056FA094B02A9E1
:1087C00018680422231CFEF735FCFEF789F8201CEC
:1087D00029B030BD044102005D3F02006B3F020042
:1087E0002E410200C034002030B51D4BA1B01A7ECE
:1087F000002A01D100242FE001201C695D690021BD
:1088000000196941DA68186159618A4207D802D1B2
:108810009A68824203D800200021186159611A69C0
:10882000012AE7D15A69002AE4D10E490C78002CBC
:108830000DD1FFF79BFF051E0ED00B49684609F0CE
:108840008DFF201C694602F00FFA2C1C04E000206A
:108850000021141C18615961201C21B030BDC04694
:10886000C0340020583300203F41020010B5A0B0B2
:10887000041C0949684609F071FF6946002002F0AE
:10888000F3F9002000210122044B186159611C609A
:108890001A7620B010BDC046AE4102003837002025
:1088A00030B5A1B01B49684609F058FF0020694661
:1088B00002F0DAF9184C00222368251C7833187866
:1088C00000232261636101230340237640090328CA
:1088D0000FD807F0A1FB02040A0C104800E0104872
:1088E000FDF7FCFFA860E96008E00E48F8E70E48D5
:1088F000F6E70E48FDF7F2FFA060E16068460C491C
:1089000009F02CFF6946002002F0AEF9002021B0EA
:1089100030BDC046BC410200383700208096980028
:1089200040420F00A086010010270000C0D40100C3
:10893000E141020030B5A9B002A8FFF763FC041EB4
:1089400008D008A8154909F009FF08A9002002F07D
:108950008BF920E0029DFEF74DF8052301220190DE
:108960000F49009503A809F0D7FE0E4903A8FEF7AA
:1089700007F8029A0C4908A809F0CEFE08A9201CA5
:1089800002F072F9094B02A9186804220323FEF7CA
:1089900051FBFDF7A5FF201C29B030BDFE410200B0
:1089A0005D3F02006B3F02002D420200383700207D
:1089B00030B51D4BA1B01A7E002A01D100242FE052
:1089C00001201C695D69002100196941DA6818619C
:1089D00059618A4207D802D19A68824203D800209E
:1089E0000021186159611A69012AE7D15A69002AE0
:1089F000E4D10E490C78002C0DD1FFF79BFF051E2A
:108A00000ED00B49684609F0A9FE201C694602F009
:108A10002BF92C1C04E000200021141C1861596162
:108A2000201C21B030BDC04638370020583300200C
:108A30003E42020010B5A0B0041C0849684609F087
:108A40008DFE6946002002F00FF900200021044B42
:108A5000186159611C60187620B010BDAA4202004E
:108A60008033002010B5A0B0041C0949684609F005
:108A700075FE6946002002F0F7F80020002101226F
:108A8000044B186159611C601A7620B010BDC046B5
:108A90002A430200A033002030B5A1B01D4968462A
:108AA00009F05CFE0020694602F0DEF81A4C002254
:108AB0002368251C36331878002322616361012363
:108AC000034023764009042813D807F0A5FA0305CC
:108AD0000B0D0F00114800E01148FDF7FFFEA860E4
:108AE000E9600BE00F48F8E70F48F6E7FA2080004E
:108AF000F3E70E48FDF7F2FEA060E16068460C491E
:108B000009F02CFE6946002002F0AEF8002021B0EA
:108B100030BDC04637430200A03300208096980045
:108B200040420F00A086010010270000C0D40100C1
:108B30005A43020030B5A9B002A801F0F7FF041EA5
:108B400008D008A8154909F009FE08A9002002F07C
:108B50008BF820E0029DFDF74DFF022301220190DA
:108B60000F49009503A809F0D7FD0E4903A8FDF7AA
:108B700007FF029A0C4908A809F0CEFD08A9201C9D
:108B800002F072F8094B02A9186804220123FEF7CB
:108B900051FAFDF7A5FE201C29B030BD7643020036
:108BA0005D3F02006B3F02009B430200A0330020A8
:108BB00030B51D4BA1B01A7E002A01D100242FE050
:108BC00001201C695D69002100196941DA6818619A
:108BD00059618A4207D802D19A68824203D800209C
:108BE0000021186159611A69012AE7D15A69002ADE
:108BF000E4D10E490C78002C0DD1FFF79BFF051E28
:108C00000ED00B49684609F0A9FD201C694602F008
:108C10002BF82C1C04E000200021141C1861596161
:108C2000201C21B030BDC046A033002058330020A6
:108C3000AA43020010B5A0B0041C0949684609F017
:108C40008DFD6946002002F00FF80020002101226E
:108C5000044B186159611C601A7620B010BDC046E3
:108C600013440200C833002030B5A1B01B49684648
:108C700009F074FD0020694601F0F6FF184C00224F
:108C80002368251C4C33187800232261636101237B
:108C900003402376400903280FD807F0BDF90204EA
:108CA0000A0C104800E01048FDF718FEA860E960C3
:108CB00008E00E48F8E70E48F6E70E48FDF70EFE0E
:108CC000A060E16068460C4909F048FD6946002053
:108CD00001F0CAFF002021B030BDC046214402008F
:108CE000C83300208096980040420F00A086010003
:108CF00010270000C0D401004444020030B5A9B0E0
:108D000002A801F02FFF041E08D008A8154909F099
:108D100025FD08A9002001F0A7FF20E0029DFDF736
:108D200069FE0323012201900F49009503A809F071
:108D3000F3FC0E4903A8FDF723FE029A0C4908A88C
:108D400009F0EAFC08A9201C01F08EFF094B02A9DA
:108D5000186804220223FEF76DF9FDF7C1FD201CFF
:108D600029B030BD614402005D3F02006B3F02004C
:108D700087440200C833002030B51D4BA1B01A7ED5
:108D8000002A01D100242FE001201C695D69002127
:108D900000196941DA68186159618A4207D802D11D
:108DA0009A68824203D800200021186159611A692B
:108DB000012AE7D15A69002AE4D10E490C78002C27
:108DC0000DD1FFF79BFF051E0ED00B49684609F039
:108DD000C5FC201C694601F047FF2C1C04E0002064
:108DE0000021141C18615961201C21B030BDC046FF
:108DF000C8330020583300209644020010B5A0B0BC
:108E0000041C0949684609F0A9FC6946002001F0E4
:108E10002BFF002000210122044B186159611C60C6
:108E20001A7620B010BDC046024502003033002043
:108E300030B5A1B01B49684609F090FC0020694696
:108E400001F012FF184C00222368251C62331878A9
:108E50000023226163610123034023764009032834
:108E60000FD807F0D9F802040A0C104800E01048A7
:108E7000FDF734FDA860E96008E00E48F8E70E4809
:108E8000F6E70E48FDF72AFDA060E16068460C4950
:108E900009F064FC6946002001F0E6FE002021B0E4
:108EA00030BDC04614450200303300208096980043
:108EB00040420F00A086010010270000C0D401002E
:108EC0003C45020070B50A25A8B06D44281CFFF788
:108ED000FBF9041E09D0174908A809F03FFC00203F
:108EE00008A901F0C1FE012021E02E88FDF782FDD6
:108EF0000423012201901049009603A809F00CFCFC
:108F00000E4903A8FDF73CFD2A880D4908A809F081
:108F100003FC08A9201C01F0A7FE0422094B291C10
:108F20001868131CFEF786F8FDF7DAFC201C28B041
:108F300070BDC0465D4502005D3F02006B3F020010
:108F4000864502003033002030B51D4BA1B01A7E9B
:108F5000002A01D100242FE001201C695D69002155
:108F600000196941DA68186159618A4207D802D14B
:108F70009A68824203D800200021186159611A6959
:108F8000012AE7D15A69002AE4D10E490C78002C55
:108F90000DD1FFF797FF051E0ED00B49684609F06B
:108FA000DDFB201C694601F05FFE2C1C04E0002064
:108FB0000021141C18615961201C21B030BDC0462D
:108FC00030330020583300209A45020000B5A1B08C
:108FD00068460A4909F0C2FB6946002001F044FED8
:108FE0000122074B03211A700022064B1D201A7024
:108FF000803200F07DFD21B000BDC0461246020067
:10900000A02B0020E833002000B5A1B068460A4933
:1090100009F0A4FB6946002001F026FE0122074B5F
:1090200003215A700022064B1D201A70803200F076
:109030005FFD21B000BDC0462A460200A02B0020E3
:10904000E833002000200122024B1870024B1A70F6
:109050007047C046E8330020C033002010B5041C20
:10906000A0B0002802D0FFF7B1FF0CE00749684626
:1090700009F074FB201C694601F0F6FD044B1D202D
:109080001C7000F001FD20B010BDC0463E4602003D
:10909000A02B002010B5041CA0B0002802D0FFF7C0
:1090A000B3FF0CE00749684609F058FB201C6946ED
:1090B00001F0DAFD044B1D205C7000F0E5FC20B0EF
:1090C00010BDC04657460200A02B002070B5802579
:1090D0002D01A0B0061C0C1C284202D00020FFF776
:1090E000BDFF2C4201D0FFF771FF8025AD032E425A
:1090F00002D00020FFF7CEFF2C4201D0FFF784FF03
:10910000630610D50949684609F028FB0020694626
:1091100001F0AAFD684600F0E3FA002803D04A21D6
:10912000034AFEF781FA20B070BDC0466C460200CB
:1091300085460200012070B5A026A225011CF60577
:10914000ED001E4C72592378D20AA2B09143994285
:1091500002D05840FFF782FF0120011C725963784A
:10916000520D9143994202D05840FFF793FF144BA0
:109170001D78002D20D1134902A809F0EFFA281C10
:1091800002A901AD01F070FD281C00F09DFA002835
:109190000ED121786A780123002900D1637802A8D2
:1091A000094909F0B9FA02A9002001F05DFD03E0C8
:1091B0006421064AFEF738FA22B070BDA02B0020C9
:1091C00058330020D9460200F446020085460200CA
:1091D000002809D08021A123A022DB00D205C905E7
:1091E000D1500122014B1A707047C046C033002095
:1091F00008B5031C0A1C06490878191C012303F052
:109200006BF9002801D0002000E0024808BDC046EC
:10921000A22B00200130000010B5104B041C187860
:1092200001230A1C1843211C03F056F9002812D010
:109230000423C046C046C046C046C046C046C046DD
:10924000C046C046C046C046C046C046C046013BB8
:10925000181EEED100E0024810BDC046A22B00202F
:109260000230000007B5074B400018706B46D81D50
:10927000822301210370FFF7BBFF002800D00248C2
:109280000EBDC046A22B00200330000013B50B28F2
:1092900018D86A46031CD01D1F225B00524213439C
:1092A0009E320C1C134001210370FFF7A1FF002820
:1092B00001D0054807E0201C0221FFF7ADFF002880
:1092C000F7D100E0014816BD053000000430000071
:1092D000F7B56B46141C0122184F0D1CD91D0870E0
:1092E0003878131C4000C0B203F0F6F8061E01D116
:1092F0003C210CE001233878E2B240001843C0B2B0
:10930000291C03F0E9F80423061E04D142210C4A6B
:10931000FEF78AF910E0C046C046C046C046C046C7
:10932000C046C046C046C046C046C046C046C0460D
:10933000C046013B002BEED1301CFEBD6037002043
:109340001E47020008B50122FFF7C2FF08BD00005A
:1093500098B5131C6C460833DB08DB00E31A00AF3A
:1093600018709D460020904204DA0130441E0C5DC6
:109370001C54F8E7094901320878D2B24000191CA0
:10938000C0B2012303F0A8F8041E03D18621044AC9
:10939000FEF74AF9BD46201C98BDC0466037002044
:1093A0001E47020007B56B46D9710733191C01220D
:1093B000FFF7CEFF0EBDF0B585B0019302ABDD1D0A
:1093C00000230C1C291C061C171C2B70FFF7BAFF6E
:1093D000002810D00121B940E41B019B0134013960
:1093E000A340A1402F78DCB28F4321403943301C89
:1093F0002970FFF7D7FF05B0F0BD08B5131C012297
:10940000FFF7D9FF08BD08B56B2007210122FFF740
:10941000F4FF08BD08B5021C04216B20FFF7EDFF27
:1094200008BD08B5021C05216B20FFF7E6FF08BD4B
:1094300008B50021031C04221E20FFF7BCFF08BD55
:1094400008B5021C05216C20FFF7D7FF08BD08B541
:10945000021C04216C20FFF7D0FF08BD08B5021CD8
:1094600003216C20FFF7C9FF08BD08B5021C0221CB
:109470006C20FFF7C2FF08BD08B5021C01216C205B
:10948000FFF7BBFF08BD08B5021C00216C20FFF7E9
:10949000B4FF08BD08B50221031C03221D20FFF7FD
:1094A0008AFF08BD08B5021C03211D20FFF7A5FF98
:1094B00008BD08B538204021FFF774FF08BD08B586
:1094C0001F200F21FFF76EFF08BD000008B5184BE5
:1094D0001870FFF798FF142005F0EAFA0020FFF754
:1094E000A0FF0020FFF796FF0020FFF7A9FF002054
:1094F000FFF7ADFF0020FFF7B1FF0120FFF7B5FF39
:109500000120FFF7B9FF0120FFF7BDFF0120FFF7A2
:10951000C9FF0120FFF7BEFFFFF7CBFFFFF7CFFF2B
:109520000320FFF785FF0120FFF77BFF08BDC04642
:1095300060370020B0B5131C6C460833DB08DB0035
:10954000E31A00AF9D466C4600232070D8B29042CB
:1095500004D2CD5CE01845700133F7E7064B211CBF
:109560001878012302F0B8FF002801D0002000E0A5
:109570000248BD46B0BDC046A32B002001400000FC
:1095800073B56B46141C0122154ED9710733051CA7
:10959000191C3078131C02F09FFF00281BD00123F8
:1095A0003078291C1843221C02F096FF002814D0A2
:1095B0000423C046C046C046C046C046C046C0465A
:1095C000C046C046C046C046C046C046C046013B35
:1095D000181EEED102E0034800E0034876BDC04605
:1095E000A32B0020014000000240000013B501AC95
:1095F000201C0C210222FFF7C3FF002801D00B48DA
:1096000013E0202263780C209343211C1E3A6370E0
:10961000FFF790FF0028F2D120706070211C1A30F3
:109620000222FFF787FF0028E9D116BD04400000A1
:1096300037B5234B400001AC18701821201C0222C2
:10964000FFF79EFF002801D01E4837E0201C0821AC
:109650000222FFF795FF0028F6D120706070211CD0
:1096600006300222FFF766FF0028EDD120706070FF
:10967000211C0A300222FFF75DFF0028E4D17C2381
:10968000FF251830211C022223706570FFF752FF5E
:109690000028D9D197230C302370211C3B3B022298
:1096A0006370FFF747FF0028CED12070211C1430D3
:1096B00002226570FFF73EFF0028C5D13EBDC046BF
:1096C000A32B00200340000008B504210222FFF76D
:1096D00057FF002800D0014808BDC04605400000E3
:1096E00037B501AD041C1A21281C0222FFF748FFE0
:1096F00000281CD101222B78134201D0207013E0E6
:1097000002210B420AD10422134201D021700BE046
:10971000190701D5032306E0D90601D5227003E01D
:109720009B0601D505232370FFF760FF00E0014889
:109730003EBDC046064000000423C046C046C046A9
:10974000C046C046C046C046C046C046C046C046E9
:10975000C046C046C046013B002BEED1704700001A
:1097600007B5094A01AB187059701078191C02220C
:10977000012302F0B1FE002803D0FFF7DDFF002037
:1097800000E002480EBDC046A42B00201640000099
:1097900010B50F4C6378002B17D1FF2140002070CB
:1097A0000320A170FFF7DCFF011E01D009480DE086
:1097B0000220FFF7D5FF011EF8D10120FFF7D0FFEF
:1097C0000028F3D10123637000E0034810BDC046B8
:1097D000A42B00200740000006400000002170B5C7
:1097E00000781F4BCAB25C1865781C1C854200D1FA
:1097F000101C01310429F4D1421CD100635C012BFF
:1098000008D161184B78002B01D1CB7800E0002300
:109810004B701EE0022B21D163189D785978002DE2
:1098200006D0DE780431B14208DB5E70002103E02F
:10983000042903DC01215D7099700AE0D300E3186C
:1098400059780426002D00D1F836D3007118E3189A
:109850005970D200A318597800F0C0FA70BDC04604
:1098600018200020F8B50023234CDDB2E21852780E
:109870005F1C82423CD1061C002000F0CBFAFB00AA
:10988000E318586803F008FF032D0DD0691C631816
:109890005B7865196B704B1CCA00DB00A218E318DB
:1098A00021CB21C2CDB2EFE7FF2300250121201CEF
:1098B0002371631CDD77A31CDD77E31CD977231D9F
:1098C000DD770E4A243003F079FE2378201C013B1B
:1098D000237000F07FF92B1C221C3832995CB142B6
:1098E00002D1FF21D15406E00133042BF4D102E070
:1098F0003B1E042BB8D1F8BD18200020DD970100D5
:10990000F0B5051CA5B0019103921E1CFFF7AAFF3C
:109910002B1CA0220321C133FF33D2059B00995099
:109920000123AB40002739495350394C7A1CE319C5
:109930005B780292FF2B62D1012E04D13220019B71
:109940004343019308E06420019B5843039B99081B
:10995000490006F0FBFB0190002000F05BFA6A462C
:10996000E7197D702378127B01332370029BDB00A3
:10997000E654E318DA700023221C3832995CDFB217
:10998000FF2901D1D55403E00133042BF4D11F1C6E
:10999000201C00F01FF9002804D0281CFFF762FFEC
:1099A0001C4C30E0029B0199DB00E318CA030293D0
:1099B0004B0C00211848383480185941174A0023AD
:1099C00006F0F4FC029B011CE219586803F01CFE2F
:1099D000041EE2D12B1C1C3B012B02D80120FFF7F7
:1099E000F7FB012000F016FA04A80D492A1C331CCD
:1099F00008F092FE04A9002001F036F903E0029F6E
:109A0000042F92D1074C201C25B0F0BD0C0500009E
:109A10001820002005600000DC050000B80B0000E5
:109A2000834702000360000038B5094B1D1C2C332E
:109A30001C1C0C35281C0121064A03F0BFFD002820
:109A400003D10835A542F5D100E0034838BDC04632
:109A500018200020DD9701000460000010B5041CF0
:109A6000FFF700FF0120FFF7B3FB231CA022032117
:109A70000120C133FF33D2059B009950A123A040A0
:109A8000DB00D050002010BD10B5041CFFF7EAFE2B
:109A90000020FFF79DFB0120231CA0220321A040F2
:109AA000C133FF33D2059B009950024BD0500020A8
:109AB00010BDC0460C05000070B5041C0E1C151C22
:109AC000FFF7D0FE231CA0220321C133FF33D205B0
:109AD0009B0099500123181CA04004495050311C90
:109AE0002A1C201CFFF70CFF70BDC0460C050000AF
:109AF00070B5041C0E1C151CFFF7B4FE231CA0221D
:109B00000321C133FF33D2059B0099500123A340A9
:109B10000549201C53500A2171432A1CC9B2022353
:109B2000FFF7EEFE70BDC0460C05000045DF704734
:109B300047DF70474EDF704750DF704710B50C4B62
:109B4000041C1B6899420AD800208C420FD3094A92
:109B50001268D31A59188C428041404207E0CB1A50
:109B600001209C4203D300238C425B41D8B210BD3C
:109B700054200020A82B002010B5041E0F2C06D85E
:109B8000C0B2FFF7D5FF0120A040FFF7CFFF10BD07
:109B9000012230B5151CA123A0248D40DB00E40573
:109BA000E550094B8000C018A223084CDB00C450CC
:109BB000C046C046C0460260054A09021143C15072
:109BC000C046C046C04630BD00600040031F0100D3
:109BD00003001300F7B50378041C013B032B00D9E5
:109BE000D7E0031C34331878052800D9D1E0A2222D
:109BF000694FD200694B06F00FFA0305070C1012EB
:109C0000092107E009210BE00621B950FA22920050
:109C100008E00321B950642204E0012100E00021A2
:109C2000B950FF221A60A222D200BA585C49895C5E
:109C30005C4A116022785A6000230192019A934293
:109C400017D2E118554D4A78980008354251A025A1
:109C50000326C132FF329200ED05565100254F4ACE
:109C60003031183285504D4A0978283299540133E1
:109C7000E4E7A12200230125D200FD60BB50474A42
:109C8000802611680420D162A922D200B9509446DE
:109C9000454AB600BB50454AB8511365D364936436
:109CA0005364019A022A13D9414AD560A125ED00D7
:109CB0005351654651513C4953503E4990510B65B3
:109CC000CB648B644B64A2233349DB00C958D15069
:109CD000019B002B2ED0314D374B28352E7837493C
:109CE000B600F618231C28331878321CFFF744FFFF
:109CF000231C29331878321C3149FFF73DFF00231C
:109D0000264E30363370019B012B13D06D782A4BD1
:109D1000AD00ED18231C2A3318782A492A1CFFF7B6
:109D20002BFF231C2B33187825492A1CFFF724FF0F
:109D30000023737002252C34019B9D4218D2174BCF
:109D400020782833EE5C1C4BB600F6181E4B321CF4
:109D5000E9188900FFF710FF6078321C1B49FFF7F4
:109D60000BFF00220D4B02343033EA540135E3E798
:109D70001748FFF7DFFE0123164A00201360074A49
:109D80003B605268022A06D9134A1360084A1360DE
:109D900001E001204042FEBD00A00040A82B0020B1
:109DA000A24702005420002004050000FCA000404F
:109DB00000900040FC9000400060004040A1004046
:109DC00048A1004044A100404E24001048910040AA
:109DD000A9A001000CAC00400C9C00401FB50B4B2F
:109DE00082009A185163012230331A5400236A46C4
:109DF00013701371FA2202926A465371044B68463B
:109E00000393FFF799FE05B000BDC046A82B0020C4
:109E1000A086010070B517490123174A002806D013
:109E20000B605268022A24D9144A136021E04B6067
:109E30005068022801D911494B600023834218D091
:109E4000111C2831595C0E4D45310E4CFF318900F3
:109E50000D51111C9C00083165580121A026A94014
:109E6000094DF6057151111C00251831655001335B
:109E7000E4E770BD00A00040A82B00200090004047
:109E8000001F0300006000400C050000A922F0B58F
:109E90007E4C7F49E36AD20023608B50606885B0B6
:109EA0000291022801D97B498B5000236364666CC0
:109EB00063689E4200D3E6E0231C30339A5D002A9B
:109EC00000D1DDE00022B50065199A556B6B019356
:109ED000934212D1231C28339B5D6F4945336F4A4F
:109EE000FF339B0099500123AA68A02193406C4A3C
:109EF000C9058B50019BAB61C2E0019B21688B427D
:109F000012D3231C28339B5D634845336349FF33D9
:109F10009B0058500123A968A0208B40A121C005B7
:109F2000C9004350AA61ABE0019BA364012E54D841
:109F3000331C5133FF33029A9B00D358544F039381
:109F4000E364AB69002B18D1231C28339E5DA968FC
:109F5000301CFFF71DFE0123524AAB61FB64BA5867
:109F600001998A4231D94D4AB600B3502DE0785953
:109F70000199FFF7E3FD00280CD10123029A494D16
:109F8000D364029B03995859414FFFF7D7FD00282E
:109F9000F3D0ECE77B59039A934203D37B59019AA0
:109FA00093420BD33F4A029B9B58039A93420CD295
:109FB000374A3C4BD358019A934206D3231C0121C4
:109FC00028339B5D354A9B009950636C029A51334C
:109FD000FF33A16C9B00D15052E0331C4F332D4F07
:109FE000FF339B00DB590393E364AB69002B19D16A
:109FF000231C28339E5DA968301CFFF7C9FD01238F
:10A00000284AAB61FB64BA5801998A4232D9234A83
:10A01000B600B3502EE01F4B01995859FFF78EFD43
:10A0200000280BD101231B4A1E4DD364131C039936
:10A030005859FFF783FD0028F4D0ECE7154B039A3D
:10A040005B59934204D3134B019A5B5993420AD351
:10A05000144B039AFB5893420CD20E4A114BD3581F
:10A06000019A934206D3231C012128339B5D0B4A9E
:10A070009B009950636CA26C4F33FF339B00FA50E6
:10A08000636C013312E705B0F0BDC046A82B002079
:10A0900000A0004000900040001F0300006000404E
:10A0A0000C0500004C050000064B02211A1C503222
:10A0B00010B511701C1C002801D1FFF7E7FE201C11
:10A0C000503010BDA82B0020F0B585B000AF7A60ED
:10A0D000F973002B0CD101220F334000F918C0B2E4
:10A0E000131C02F0F9F9012358404042C0B224E0A9
:10A0F00069466C465B00B960D91DC908C900611A80
:10A100008D460024FE7B9C420BDA6508AA190A558D
:10A110000A1994467A680234555D6246E4B2557075
:10A12000F1E74000DAB2C0B2012302F0D5F9012311
:10A130005840BB6840429D46C0B2BD4640B205B0E3
:10A14000F0BD08B504F0B4FC08BDF8B5161C00223B
:10A150001D1C131C041CFFF7B7FF00281DD101278D
:10A1600064003C433B1CE0B2311C2A1C02F0B4F9F1
:10A17000042378404042C0B2C046C046C046C046F4
:10A18000C046C046C046C046C046C046C046C0469F
:10A19000C046C046013B002BEED140B2F8BD0000E6
:10A1A000002373B501AC23706370A3700C4B1A6865
:10A1B0008123002A12D0131C2933051C566B1878F2
:10A1C000221C0323FA21B04763781A0123781B036A
:10A1D0001343A278120913432B60031C58B276BDB7
:10A1E000002C002010B50D4B02111968C0100C880E
:10A1F000121B6400001B02240B5F5843131C5343C3
:10A2000004240A5F1B135343C0129B13C318052079
:10A210005843803000124B6210BDC046002C002015
:10A22000002373B501AC23706370A3700C4B1A68E4
:10A230008123002A12D0131C2933051C566B187871
:10A24000221C0323F721B04763781A0123781B03EC
:10A250001343A278120913432B60031C58B276BD36
:10A26000002C002070B5274B274A1C684042636AC7
:10A270005B109B18991049431025625FCE1256431C
:10A280000E25625F49135A43550072190A26A55FCD
:10A29000921069430826A55FC9106B435B10CB1869
:10A2A00080219B1409025B18E18859430C25635FE8
:10A2B000C9131B04D2181213144B801A5843144BA1
:10A2C0000025C01805D4A9421AD0400005F0AEFE02
:10A2D00004E0A94214D005F0A9FE4000C3085B4386
:10A2E0001621625E5B0B53431421625E8508554361
:10A2F0001B136D131221625E5B199B181B11C5188D
:10A30000281C70BD002C00200006FFFF350C00004B
:10A31000000050C3002373B501AC237063700B4B76
:10A320001A688123002A0ED0131C2933051C566B92
:10A330001878221C0223FD21B047237862781B0283
:10A3400013432B60031C58B276BDC046002C00207E
:10A35000F0B51D4B1D4A1D6886036B6A1F219F18AF
:10A360001E23EA5E287F1205B41A2023EA5E8023AA
:10A370007A43DB01A21AD218EB1C5956802378438A
:10A380001B02C012C01880237943891241439B03EA
:10A390008912C9181A23EC5E802361439B01CB18F4
:10A3A0009B13D2135A43D3135B43287EDB114343E1
:10A3B0001B11D31AD843C822C01703405205934239
:10A3C00000DD131C1813F0BD002C002000D4FEFF8C
:10A3D000F0B589B001AC201C00211A2208F0CAF89F
:10A3E0003F4D81202B68002B00D175E01A1C2932CB
:10A3F0005E6B10788821221C1A23B047627821787E
:10A400002B6812020A431A800322A256A178120274
:10A410000A435A800522A256217912020A439A80E1
:10A42000E279A17912020A43DA800922A256217A3E
:10A4300012020A431A810B22A256A17A12020A437F
:10A440005A810D22A256217B12020A439A810F22C1
:10A45000A256A17B12020A43DA811122A256217C64
:10A4600012020A431A821322A256A17C12020A4344
:10A470005A821522A256217D12020A439A8217227D
:10A48000A256A17D12020A43DA82627E061C1A7667
:10A490001A1C293210785F6BE121221C0723B84770
:10A4A0000122A256217812020A4303212B68801947
:10A4B0005A83A278C0B21A77615622790D010F2112
:10A4C00011402943D98305216156120909010A4324
:10A4D0001A84A2790333DA7740B209B0F0BDC046DE
:10A4E000002C002073B56A46D51D00222A70021C7C
:10A4F000031C094E293230605C6BD0211078012397
:10A500002A1CA04733682A7828331A70041CFFF7E6
:10A510005FFF001940B276BD002C002073B56B467A
:10A52000DD1D00232B700A4B1A688123002A0DD0F1
:10A53000131C2933041C566B18782A1C0123F421A0
:10A54000B04703232A7813402370031C58B276BD0A
:10A55000002C002013B56B46DA1DB6231370074B91
:10A5600081201B68002B06D0191C293108781C6B30
:10A57000E0210123A04740B216BDC046002C0020B8
:10A5800038B5084B041C1D688120002D07D0281CFD
:10A590002930131C00780A1C211C2C6BA04740B2E8
:10A5A00038BDC046002C002038B5084B041C1D687F
:10A5B0008120002D07D0281C2930131C00780A1C8C
:10A5C000211C6C6BA04740B238BDC046002C002057
:10A5D0000023F0B5364C85B002AA571D5371961D65
:10A5E0009371D371226803AD01902B7081209A4240
:10A5F0005BD0019B2E32590113781F221A400B1C8D
:10A60000381C13432B70FFF789FF3B78002B1ED0BB
:10A61000FFF7A0FF236803209B6B9847236802AADB
:10A620002F331B78D11DD371F5200122FFF7A8FF2E
:10A630002368311C2D331B780122F2203370FFF781
:10A640009FFF291C0122F420FFF79AFF08E02368EE
:10A65000F4211A1C293210781E6B2A1C0123B047E2
:10A660006A46236812792A331A70291C0122F420C1
:10A67000FFF79AFF23682A782E33061C1A70291CCC
:10A680000122F220FFF790FF23682A782D338019EA
:10A690001A70C6B20122F520291CFFF785FF236836
:10A6A0002A7830182F331A70C0B240B205B0F0BD0E
:10A6B000002C00200023F0B5374C85B002AA571DAE
:10A6C0005371961D9371D371226803AD01902B7065
:10A6D00081209A425CD0019B65389B000340191C85
:10A6E0002E32137883430B43381C2B70FFF716FF71
:10A6F0003B78002B1ED0FFF72DFF236803209B6BB8
:10A700009847236802AA2F331B78D11DD371F520F7
:10A710000122FFF735FF2368311C2D331B780122FE
:10A72000F2203370FFF72CFF291C0122F420FFF7E1
:10A7300027FF08E02368F4211A1C293210781E6BC9
:10A740002A1C0123B0476A46236812792B331A70FA
:10A75000291C0122F420FFF727FF23682A782E33D3
:10A76000061C1A70291C0122F220FFF71DFF236826
:10A770002A782D3380191A70C6B20122F520291CBF
:10A78000FFF712FF23682A7830182F331A70C0B2EF
:10A7900040B205B0F0BDC046002C00200023F0B54B
:10A7A000434C85B002AA551D9371D71DD371226801
:10A7B00003AE009033702B7081209A4275D02D32F9
:10A7C000137800997A38014083430B43381C337067
:10A7D000FFF7A4FE3B780190002B27D0FFF7BAFECD
:10A7E0002368071C9B6B03209847236802AA2F331A
:10A7F0001B78911D9371F5200122FFF7C1FE019B8B
:10A80000311C3F180122F220FF18FFF7B9FE236820
:10A81000FFB22E331B783F18291CF42001222B7025
:10A82000FFF7AEFEFFB23F18FEB216E02368F2213A
:10A830001A1C293210781F6B321C0123B847236879
:10A84000061C2E331B78F420291C01222B70FFF7E5
:10A8500097FE019B3618F618F6B26A46144C127829
:10A86000236803AD2C331A70291C0122F420FFF752
:10A870009BFE23682A782E331A708619291C012220
:10A88000F220FFF791FE23682A78F6B22D333018B4
:10A890001A70C6B20122F520291CFFF785FE236835
:10A8A0002A7830182F331A70C0B240B205B0F0BD0C
:10A8B000002C0020F7B56B466A46DE1C0023334CA3
:10A8C00053719371D51D226801AF33703B702B70AB
:10A8D0008133002A57D07D33032854D82E32137881
:10A8E0000322934318433070381CFFF717FE3B7860
:10A8F000002B1FD0FFF72EFE236803209B6B984789
:10A900006A462368911D2F331B78F520937101222D
:10A91000FFF736FE6A462368511D2D331B78F2205F
:10A9200053710122FFF72CFE311C0122F420FFF7A6
:10A9300027FE08E02368F4211A1C293210781F6BC7
:10A94000321C0123B847291C0122F420FFF72CFEFA
:10A9500023682A782E331A70061C291C0122F22043
:10A96000FFF722FE23682A782D331A708619291CD6
:10A970000122F520FFF718FE2268F6B22978331875
:10A980002F321170DBB258B2FEBDC046002C002041
:10A990000023F0B5394D85B002AA53719371D3717C
:10A9A000971DD61D2A6803AC23708133002A62D01C
:10A9B0001C212F32137880008B43084018432070ED
:10A9C000381CFFF7ABFD3B780190002B27D0FFF739
:10A9D000C1FD2B68071C9B6B03209847211C01229B
:10A9E000F520FFF7CDFD019B3F18FF182B68311CA8
:10A9F0002D331B780122F2203370FFF7C1FD2B6845
:10AA000002AA2E331B78FFB23F185371511DF42058
:10AA10000122FFF7B5FDFFB23F18FFB209E02B6836
:10AA2000F5211A1C293210781D6B221C0123A8471E
:10AA3000071C211C0122F420FFF7B6FD0F4D2278E0
:10AA40002B68C7192E331A70211C0122F220FFF740
:10AA5000ABFD2B6822782D33FFB21A703F18211CF2
:10AA60000122F520FFF7A0FD2A68FFB221783B18EC
:10AA70002F321170DBB258B205B0F0BD002C0020AF
:10AA800008B5174A174B1A63174A5A631A1C29321A
:10AA90001070164A181C9A63FFF724FD002801D095
:10AAA00013481BE00320FFF705FF0028F8D1FFF74C
:10AAB0006FFF0028F4D10130FFF770FE0028EFD1BE
:10AAC0000130FFF7F7FD0028EAD10130FFF780FDE4
:10AAD0000028E5D1FFF7EEFE0028E1D108BDC04611
:10AAE000C9A00100643700204BA1010043A101006F
:10AAF00003200000002313B5041C036001A8019388
:10AB0000FFF74EFB00280AD10198FFF76BFB20608E
:10AB10000120FFF7CFFE002802D0024800E00248E3
:10AB200016BDC0460120000002200000002313B51E
:10AB3000041C036001A80193FFF772FB00280AD1EF
:10AB40000198FFF78FFB20600120FFF7B3FE00287C
:10AB500002D0024800E0024816BDC04601200000B5
:10AB600002200000002313B5041C036001A8019318
:10AB7000FFF7D0FB00280AD10198FFF7E9FB20601E
:10AB80000120FFF797FE002802D0024800E00248AB
:10AB900016BDC0460120000002200000F0B5161CC2
:10ABA0001822071C424303202E4B85B09A18D36A03
:10ABB0000391184002280DD0111C2031936A496876
:10ABC0005B1A013B01D5126A9B189E4202DD0028E8
:10ABD00045D01E1C0020864241D001901822101C36
:10ABE0007843204B1818011C2031846A4968641A84
:10ABF000191C013C01D5036AE4187A438A18101C19
:10AC0000136A20300293536A029AD31A9C4201DBE2
:10AC10004468141BB44200DD341C18231D1C781C2E
:10AC200043437D43CB184D196A6A586803998018CD
:10AC3000221C07F096FC019B361B1B190193039BFA
:10AC4000029A1B1903936B6A20351C196C606B68A0
:10AC5000934201D100236B60002EBFD1019805B053
:10AC6000F0BDC0465820002010B50A1E06D00B1CAF
:10AC70001C785A1A002C01D00133F9E7FFF78EFF38
:10AC800010BD002310B5934203D0CC5CC4540133F3
:10AC9000F9E710BD8218904202D001700130FAE746
:10ACA000704710B503681A1E10D0117820290BD9EF
:10ACB0003A2901D00132F8E7591C1C788A4205D1A3
:10ACC000302C03D102330360002001E00120404218
:10ACD00010BD10B50923002810D00268002A0DD03D
:10ACE000117800290AD0D48881888C4206D1507806
:10ACF00001F036F90323C007C0170340181C10BD2C
:10AD0000CB7E021C887E1B021843032A05D14B7D93
:10AD10000A7D1B0213431B0418437047F8B5071C38
:10AD2000C56A30370123041C391C40782A1C01F005
:10AD3000D9F90123002814D1236AA2692071EB1AE2
:10AD4000934201D300230CE0E678012EFAD9A369DF
:10AD50006078ED18391C2A1C012301F0C3F9013E6B
:10AD6000F3E7181CF8BD08B5031C027900208242E5
:10AD700002D0181CFFF7D2FF08BD0000F8B5041C74
:10AD8000FFF7F1FF051E53D12378032B48D16779D4
:10AD9000012F45D1261C80223036301C291C920000
:10ADA000FFF778FF5522234B4121E254224B9218A2
:10ADB000E254221CDE3BFF3B313233701370231C04
:10ADC0006122323385201A70597072238000235417
:10ADD0001A4823541A4BE1541A4BE2542369B832EF
:10ADE000FF32A354184A190AA154184A190CA15445
:10ADF000174A1B0EA354E3680132A354154A190ADB
:10AE0000A154154A190CA154144A1B0EA354E3690A
:10AE100060785A1CE262311C3B1C01F063F96571D9
:10AE2000002160780A1C01F0A9F9431E9841C0B2C4
:10AE3000F8BDC0462E0200002F02000015020000DF
:10AE40001602000017020000190200001A0200009A
:10AE50001B0200001D0200001E0200001F02000075
:10AE600070B5C36A041C0E1C0025994210D0FFF770
:10AE70007AFF051E0CD1211C60783031321C012371
:10AE800001F0F6F8002802D0012601357642E6628C
:10AE9000281C70BD002310B50371013BC362041C64
:10AEA000FFF7DEFF011C0320002939D11D4B1E4A8C
:10AEB000E35CA25C1B0213431C4A1BB201389342A1
:10AEC0002ED1231C69331B78081C1A06231C6833F7
:10AED0001B781B041343221C663212781343221C76
:10AEE0006732127812021343114A1B021B0A934263
:10AEF00016D0231C85331878013B1B7800061B04F1
:10AF00001843231C82331B788334184323781B0295
:10AF100018430002074B000AC018431E9841C0B2F4
:10AF200010BDC0462F0200002E02000055AAFFFFF0
:10AF300046415400BABEABFF0023F0B5036089B0B0
:10AF4000071C081C161CFFF7ACFE0B23051E00DABD
:10AF50008FE1C94B8200D4580C23002C00D188E12A
:10AF60003C602378002B0DD0607800F0F9FF0123BE
:10AF7000034007D1002E00D17BE1420700D478E1E5
:10AF80000A2376E10023E8B22370607000F0F2FF3C
:10AF90000323C20700D56CE1002E01D04307EFD494
:10AFA000201C0021FFF776FF012828D1231C002058
:10AFB000F333FF3300221978914209D0DA79110670
:10AFC0009A7912040A4319790A43597909020A4302
:10AFD000810004AD01304A5110330428EAD1002524
:10AFE00004AB5E590220002E05D0201C311CFFF757
:10AFF00051FF00280CD00435102DF1D135E1002689
:10B000000123032800D134E1B04201D00D2330E107
:10B01000231C221C3C331B783B3212781B02134347
:10B0200080221BB292009342F0D1231C221C473392
:10B030001B78463212781B02134311D1231C57335D
:10B040001B781A06231C56331B781B041343221C3F
:10B05000543212781343221C5532127812021343D1
:10B060000093009BA361231C40331A78531EE270A7
:10B07000012BCBD8231C3D331978A1700029C5D0F2
:10B080004B1E1942C2D1231C42331F78013B1B784F
:10B090003F021F4327813B07B8D1231C4433187854
:10B0A000013B1B780002184310D1231C533318783E
:10B0B000013B1B7800061B041843231C50331B78EC
:10B0C0001843231C51331B781B021843231C251CD7
:10B0D0003F331B783E352D781B021D43019595D0DB
:10B0E000009B53430393039A3B095B199B180293FC
:10B0F00098428BD3C01A04F099FF002886D05F4B8A
:10B100000125984204D95E4D8542AD416D4202351C
:10B11000019B029A0230F31892196061E661236282
:10B12000A262032D17D1002F00D06FE7231C5F33DD
:10B130001B7880001A06231C5E331B781B04134304
:10B14000221C5C3212781343221C5D3212781202E8
:10B15000134363620FE0002F00D157E7039AD3181F
:10B160006362022D01D1400005E003230122434325
:10B1700010405B081818434BC018009B400A8342DC
:10B1800000D243E701235B422361E36081336371B3
:10B19000032D61D1231C221C61331B78603212788D
:10B1A0001B021343012B57D1711C201CFFF758FEC3
:10B1B000002851D1344B6071344AE35CA25C1B021D
:10B1C0001343334A1BB2934246D1231C33331B78BB
:10B1D0001A06231C32331B781B041343221C303203
:10B1E00012781343221C3132127812021343294A77
:10B1F000934231D1284BE35C1A06284BE35C1B04D5
:10B20000134385229200A25C1343254AA25C1202DA
:10B210001343244A93421FD1234BE35C1A06234B6A
:10B22000E35C1B04134386229200A25C1343204A72
:10B23000A25C1202134323611E4BE35C1A061E4BF1
:10B24000E35C1B04134387229200A25C13431B4A56
:10B25000A25C12021343E360074A2570938801330E
:10B260009BB29380E380002303E00123032800D0F6
:10B27000CCE6181C09B0F0BD18300020F50F000016
:10B28000F5FF0000FF0100002F0200002E02000069
:10B2900055AAFFFF5252614117020000160200003A
:10B2A00015020000727241611B0200001A020000C8
:10B2B000190200001F0200001E0200001D02000013
:10B2C000436902399A1E0023914203D28378826A2D
:10B2D00059438B18181C7047F7B50124A14265D952
:10B2E0004369994262D203780E1C051C022B2DD0B3
:10B2F000032B3FD0A34259D14F087F18036A790A24
:10B30000C918FFF7ADFD002802D0012464424DE0CA
:10B310007B1CFF05590A0193FF0D2B6AEF1930378B
:10B32000C918281C3F78FFF79BFD0028EDD1019B31
:10B33000D805C00D2D1830352B781B021F4326422F
:10B3400001D03C0932E03F053C0D2FE0036A090AB9
:10B35000C918FFF785FD0028D7D1FF2376005B00D1
:10B360001E40AB193036AD1930336C781B7824028F
:10B370001C431BE0036AC909C918FFF771FD0028C7
:10B38000C3D1FD30B600FF300640321C3032AA185F
:10B390009478D37824041B061C435378AE191B02FF
:10B3A00030361C4333781C4324012409201CFEBD85
:10B3B000F8B5051CE98084680E1C012C01D102201F
:10B3C00038E003685A699442F9D2002C0BD11A78FC
:10B3D000032A02D15A6A002A04D11A899642EED26F
:10B3E000586A17E0141C211C9F783F01BE420DD300
:10B3F0002868FFF771FF011C431C1AD00128DED911
:10B400002B685B699842DAD2F61BEFE728680C1CC0
:10B41000FFF756FFEC600028D1D00F2133093140EF
:10B42000181849012B6830315918286169610020CA
:10B4300000E00120F8BDF7B5041C0E1C151C02200D
:10B4400001297DD9636999427AD22778874245D00C
:10B45000032F57D0012F73D14B085B18590A009363
:10B46000236A201CC918FFF7FBFC002868D1009B49
:10B470003E4001330193009BEAB2DB05DB0DE3188C
:10B48000002E08D01A1C303211780F220A40E9B27F
:10B4900009010A43D2B230331A7001232371019B90
:10B4A000201C590A236AC918FFF7DAFC002847D183
:10B4B000019BDB05DB0DE218002E02D02D09EDB259
:10B4C00008E0131C303319780F232D0A99432B40C1
:10B4D00019430D1C131C30331D702FE0236A090A19
:10B4E000C918201CFFF7BCFC002829D1FF237600D7
:10B4F0005B001E40A319303330361D70A6192D0A8B
:10B5000075701BE0236AC909C918201CFFF7A8FC45
:10B51000002815D1FE23B6005B001E40331C3033DB
:10B52000E318DA78A6191209120715432A0A3036E9
:10B5300035705A702A0C2D0E9A70DD70012323711C
:10B54000FEBD0000F8B5051C0E1E06D1C768002F11
:10B5500013D043699F4211D30FE0FFF7BDFE0124D2
:10B56000A04242D9431C02D1012464423DE06B69F0
:10B57000041C371C984201D237E001273C1C6B6940
:10B5800001349C4204D3012F01D800242DE0022471
:10B59000281C211CFFF7A0FE002808D0431C01D066
:10B5A000012801D1041C20E0BC42E8D1EDE7281CB1
:10B5B000211C0F4AFFF73FFF002813D1002E0AD1AC
:10B5C0002B69EC605A1C10D00122013B2B616B7976
:10B5D00013436B7109E0281C311C221CFFF72BFF61
:10B5E0000028EDD00128BFD00124201CF8BDC046A2
:10B5F000FFFFFF0FF7B5C6880136B3B2002B01D1AC
:10B6000004206AE00369002BFAD00F2232400F1C9D
:10B61000041C0192002A58D1C168013303610068FB
:10B62000002903D103899E42EAD24EE08278330991
:10B63000013A1A4249D1FFF74FFE051E012D01D8EC
:10B6400002204AE0431C01D1012046E02068436902
:10B650009D4234D3002FD3D0E168FFF773FF051C60
:10B660000720002D39D0012DEAD06B1CECD02068CA
:10B67000FFF779FB0090031EE6D180222068191C99
:10B6800030309200FFF706FB2768291C381CFFF7B3
:10B6900017FEF862009F23689A7897420CD2012225
:10B6A0001A712068FFF75FFB0028CDD122680137AF
:10B6B000D36A0133D362EEE7DA6AD71BDF62E56053
:10B6C0002068291CFFF7FCFD20610020019B2268F7
:10B6D0005B013033D318E6806361FEBDF0B50B78B3
:10B6E00085B0041C0D1C2F2B01D05C2B00D1013523
:10B6F0000026A6602B781F2B06D8201C311CFFF7D4
:10B7000057FE6661D5E001352B782F2BFBD05C2BE3
:10B71000F9D0A66920210B22301CFFF7BBFA0021CB
:10B7200008230A1C00910193009B01330293009BA4
:10B73000EB5C202B43D92F2B41D05C2B3FD02E2B01
:10B7400000D19BE00198814200D395E058B20028D7
:10B7500001DA032002437F2084469C4460466F4602
:10B76000F873F87B1E2807D9202084469C44604645
:10B77000F873F87B1C2819D8009802308446029888
:10B780002F5C381C40383E2803D94038C0B27C2892
:10B7900072D80198013881426ED273546346481CB6
:10B7A000375402310293029B0093BDE700274248C1
:10B7B000C05D00286BD001379842F8D15CE0029858
:10B7C00020272D1800209F4240418300002953D09C
:10B7D0003178E52901D1E03931700199082901D189
:10B7E0009200D2B203211140012902D10F310B4343
:10B7F000DBB20C210A40042A02D104321343DBB22B
:10B80000F372201C0021FFF7D3FD00281CD1206813
:10B810002169FFF725FB002816D161690B78002B01
:10B8200011D00823CA7A1A4008D1A6698B5CB05C93
:10B830000132181A02D10B2AF8D105E0201C002190
:10B84000FFF7D8FEE1E70420A369DB7A002805D0E2
:10B8500004282ED103422CD101302AE05B0728D4E2
:10B860006169CB7ADB0605D523681878FFF748FABB
:10B87000A06049E705201CE006201AE0019B082B88
:10B88000FAD10B2392000199D2B201938BE71F1CCE
:10B89000413F192F02D802273A4307E01F1C613F9E
:10B8A000192F03D80127203B3A43DBB273540131EF
:10B8B00079E705B0F0BDC046B547020038B50021B4
:10B8C000051CFFF775FD041E10D128682969FFF7D4
:10B8D000C7FA041E0AD16B691B78E52B0AD0002B2E
:10B8E00008D0281C0121FFF785FEECE7042C14D1B9
:10B8F000033412E028682969FFF7B2FA041E0CD15C
:10B900006869211C2022FFF7C5F90B226869A96923
:10B91000FFF7B7F901222B681A71201C38BD70B5EA
:10B92000041C0D1E012D01D8022024E04369994218
:10B93000FAD263699D4205D2201C291CFFF7CCFC7A
:10B94000061E01D1002016E00128EDD0431C11D0C5
:10B95000201C291C0022FFF76EFD00280BD1236953
:10B960005A1C05D0012201332361637913436371AB
:10B97000351CDEE7012070BD1FB5019003A8141C23
:10B9800000910391FFF78DF90B22002817DB0D4B77
:10B990008000C258002A01D000211170019A002AAB
:10B9A00001D000211170019919500A1E07D0002200
:10B9B000012C04D101A86946FFF7BEFA021C101C35
:10B9C00004B010BD18300020F0B58FB0051C0391F5
:10B9D0000920002D00D18CE0161C00231E222B60B4
:10B9E000324007A803A9FFF7A7FA002800D080E09B
:10B9F00004AB07A803990D93FFF770FE0C9C002879
:10BA000002D1002C00D106301F271C2337401E42D4
:10BA100042D000280AD0042802D107A8FFF74EFF21
:10BA200008230C9C1F43002807D062E01123E27A10
:10BA30001A425DD1082073075BD43B0736D54A23F1
:10BA400000262374043B6374079BA673E673E672B7
:10BA500026776677A677E6771878211C0193FFF79B
:10BA60004FF90123019AA676E6762675667502904F
:10BA70001371B0421AD0101C0299D66AFFF74FFF1B
:10BA8000002836D1029B0798013BC360311CFFF7A9
:10BA9000E7F900280AD02CE000282AD1E37A042014
:10BAA000DA0626D4B20701D5DB0721D43B0701D53E
:10BAB00020231F43079E211CF36AAF710027EB610F
:10BAC0002C62EF713078FFF71BF92861E37F381C97
:10BAD0001A06A37F1B041343227F1343627FAF60C8
