:020000021000EC
:1060000000400020EDE4010035E501007976010053
:106010000000000000000000000000000000000080
:1060200000000000000000000000000039E5010051
:1060300000000000000000003BE501003DE501001C
:106040003FE501003FE501003FE501003FE50100BC
:106050003FE5010000000000A1E001003FE5010074
:106060003FE501003FE501005D9601003FE50100CD
:106070003FE501003FE501003FE501003FE501008C
:106080003FE50100B1C801003FE501003FE5010027
:1060900051C901003FE501007DC101003FE501005C
:1060A0003FE501003FE501000000000000000000A6
:1060B00000000000000000000000000000000000E0
:1060C000164B002B00D1144B9D46402292029A1A87
:1060D000924600218B460F461348144A121A0BF0C1
:1060E00031FE0F4B002B00D098470E4B002B00D0F9
:1060F00098470020002104000D000D48002802D020
:106100000C4800E000BF0BF0DFFD2000290001F08B
:106110007BFC0BF0C3FDC0460000080000400020DF
:106120000000000000000000382100206C37002033
:10613000000000000000000077DF704778DF704744
:106140007ADF70477CDF704760DF704768DF704739
:10615000A023EF220321DB05D20030B5A120995006
:106160008022C000D2051A500C2204250B4C1A5173
:106170000B4C1D510B4C1A51043C19518024E40066
:106180001C50E320C0001A5010381A5006481A500C
:10619000E222D2009950054A995030BD54070000C0
:1061A000240700002C0700000C0700001C0700005B
:1061B000A023EE210322DB05C9005A5005495A509D
:1061C000A1228021D200490599508021890599504A
:1061D0007047C04674070000002307B502200093F3
:1061E0000A2115221A4B06F071FD002803D03D212B
:1061F000184A01F0F3F918480121184A06F0C6FDC3
:10620000002803D04021134A01F0E8F91448012185
:10621000144A06F0BBFD002803D041210D4A01F0CD
:10622000DDF911480121114A06F0B0FD002803D024
:106230004221084A01F0D2F90D4801210D4A06F029
:10624000A5FD002803D04321024A01F0C7F907BD8C
:1062500038210020A8250200203700209579010070
:10626000503300206D89010058330020ED79010082
:10627000CC330020017A0100164910B504205831B2
:1062800007F05AFF002803D04B21134A01F0A6F96A
:10629000C122124992008858114B124C0340C02071
:1062A000000403438B501049201C0A1C0F4B07F0BD
:1062B00077FF002803D05021074A01F08FF920789A
:1062C00007F092FF002803D05221034A01F086F91B
:1062D00010BDC046B8280020A825020000E100E05B
:1062E000FFFF00FF54330020400820000589010013
:1062F0001FB5012202AC23781F4993432370082065
:1063000028314F32002305F009FF002803D0612116
:106310001A4A01F063F9002301A80370FFF714FF84
:10632000002803D06921154A01F058F9144805F0F6
:1063300011FF002803D06D21104A01F04FF91148D8
:1063400005F012FF002803D070210C4A01F046F935
:106350000420FFF7F1FE002803D07321074A01F063
:106360003DF90120211CFFF7F1FE002803D0762122
:10637000024A01F033F91FBD38290020A825020088
:106380003D78010061780100064A08B50820142113
:10639000783207F099FF002803D07D21024A01F0EE
:1063A0001DF908BD38290020A82502001FB506F0F8
:1063B000C1FF002803D08A21194A01F00FF9A22356
:1063C000A022DB00D205D2580123920893436A46EB
:1063D0006846137007F0B2FB002803D09021104AE2
:1063E00001F0FCF80A200021684406220BF0AAFC08
:1063F0001E2301ACE380113B2372063B6372093319
:10640000A372084B084801930123211C237107F054
:1064100003FC002803D09F21014A01F0DFF81FBDD3
:10642000A8250200257801005D3300201FB5002358
:1064300001A8134905220370FFF784FE002803D04A
:10644000B021104A01F0CAF80020FFF777FE0028BB
:1064500003D0B3210B4A01F0C1F8002302A8436026
:1064600050330380503343802833C380FFF768FEE6
:10647000002803D0BD21034A01F0B0F805B000BDEB
:10648000B2250200A825020030B5204D95B001AC20
:106490000021B822281C0BF055FC00210C22201CE6
:1064A0000BF050FC1A4BF12201930123281C23719D
:1064B000211CEF336271A2712372E2716372A372C5
:1064C000E37200F09FFA002803D0F221114A01F094
:1064D00085F84022002104A80BF034FC04A80E49E2
:1064E00005F0B8FD112213AB1A704D2300226B4446
:1064F00004A81A7005F0E0FC002804D08021054AA9
:10650000490001F06BF815B030BDC046D033002013
:1065100069780100A8250200B825020030B59FB0B7
:106520006B46DD1D062302AC00213822201C2B7097
:106530000BF008FC02230021237010A8013B382235
:10654000A370A380A5600BF0FDFB201C10A906F032
:1065500019F8002804D08D21024A490001F03EF8C4
:106560001FB030BDA825020010B588B001AC201CBA
:1065700000211C220BF0E6FB0C4B201C6360A023C7
:10658000DB02A36005232373043B2374084B636180
:10659000084BA36106F09AF8002804D09821064A17
:1065A000490001F01BF808B010BDC04655D50000E9
:1065B0001177010001770100A825020008B502F05B
:1065C0005DF9002804D03821214AFF3101F006F896
:1065D00002F012FE002804D09D211D4A490000F05F
:1065E000FDFF05F027FB002805D19F211948490030
:1065F000174A00F0F3FF362002F002FC002804D016
:106600004221134AFF3100F0E9FF342002F024FA5E
:10661000002804D0A2210E4A490000F0DFFF7320B9
:1066200002F09EFC002804D04821094AFF3100F006
:10663000D5FF762003F00CFE002804D0A521044AE3
:10664000490000F0CBFF682002F022FB08BDC046E5
:10665000A825020001100000FA2010B5C00007F0C4
:106660000FFE404C201C01F0F5FC002804D06221F4
:106670003D4AFF3100F0B2FF01F006FD002804D0D2
:10668000B121394A490000F0A9FF201C01F0D6FED3
:10669000002804D0B321344A490000F09FFF01F0E4
:1066A000E7FE002804D068212F4AFF3100F096FF52
:1066B000201C01F0C3FF002804D06C212A4AFF31BE
:1066C00000F08CFF01F0D4FF002804D0B621264A48
:1066D000490000F083FF201C01F0BAFD002804D01F
:1066E0007621214AFF3100F079FF01F0C9FD002831
:1066F00004D0BB211C4A490000F070FF201C01F0AF
:1067000085FE002804D0BD21174A490000F066FF2D
:10671000201C01F083FD002804D08021124AFF31A3
:1067200000F05CFF201C01F071FF002804D08421E0
:106730000D4AFF3100F052FF00240C4B201C1C704E
:1067400002F066F9A0210A4B09031868221C06F022
:1067500043FBA04204D0C621034A490000F03EFF9B
:1067600010BDC046D0330020A82502005C330020B5
:10677000503300200122A02008B50D490D4BC00266
:106780005A500D495850A120C000195811431950B2
:106790001A600A4B0A491868002206F01DFB0028FF
:1067A00004D0CB21074A490000F018FF08BDC046BD
:1067B0000C050000000001400405000058330020D3
:1067C00055D50000A825020000B5174BA1B01A7ED0
:1067D000164B1B7E1343164A127E1343154A127E34
:1067E0001343154A127E1343144A127E134303D1F6
:1067F000134B1B7E002B14D0124B0B211868002268
:1068000006F0EAFA002804D0E5210F4A490000F01A
:10681000E5FE0E4968460BF06FFB0020694603F069
:106820000BFE21B000BDC04680330020883400201C
:10683000A83300200037002060330020A834002057
:106840003033002020370020A8250200C225020096
:1068500000B50B4BA1B0186806F006FB002804D069
:10686000EB21084A490000F0B9FE684606490BF0E2
:1068700043FB6946002003F0DFFD21B000BDC046A8
:1068800020370020A8250200ED25020000217047D6
:1068900000B50D4BA1B0984208D168460B490BF0EA
:1068A0002BFB6946002003F0C7FD0AE00823021C09
:1068B0009A4306D0064B984203D01421054A00F0B3
:1068C0008DFE21B000BDC0460430000057260200F6
:1068D000013400007126020070B5041C8AB00E1C41
:1068E000151C01A8211C122204F056FC002806D118
:1068F00001A8049904F088FE002815D107E001A83A
:10690000211C022204F048FC0028F1D00CE0009089
:10691000311C01A82A1C6B4604F070FD002803D12D
:1069200001A804F064FE01E0802040020AB070BDBE
:10693000031C70B5C0B00D1C6846191C0BF0BAFAE8
:1069400015480378002B1CD1144E0122311C04F091
:10695000FBFB041E1DD120A811490BF0CDFA20A984
:10696000201C03F069FD68460BF0CEFA6946021C54
:10697000281CFFF7B1FF201C311C012204F0E4FBAE
:1069800007E068460BF0C0FA6946021C281CFFF7B6
:10699000A3FF002040B070BDCC340020B431020011
:1069A000AC260200014B18687047C0460C2B002033
:1069B000014B58687047C0460C2B0020014B98686B
:1069C0007047C0460C2B0020014B58607047C046F2
:1069D0000C2B0020014B98607047C0460C2B002008
:1069E000024A1368013313607047C0460C2B002025
:1069F000A0DF7047A2DF7047A4DF7047A6DF7047B3
:106A000063DF7047F0B50B68041C036001235B4231
:106A100003810A7903778272FF2283774277C377F3
:106A20004879621CD0773132137053709370D370F1
:106A300088799375D375137653761071C8791632A9
:106A400010719375D37513765376231C0A7A6233CB
:106A50001A70221CABB074322633FF201070013242
:106A60009A42FAD14A7A251C1A70221CA4359A320D
:106A7000FF2010700132AA42FAD18A7A10261A70C9
:106A8000221CB6321070CA7A1AA81A70EF49321C4A
:106A90000BF04FF9A11D1AA8FFF7B2FF002800D094
:106AA00061E2A37918A98B708923221D5B01013053
:106AB0000B80FFF79DFF031E00D054E2A57A002D46
:106AC00007D0311C013315AA1943013311705170DD
:106AD000937023AE00211C22301C0BF033F90121EE
:106AE00002222940681E85410901114331706D421F
:106AF00015A929407161002114A8018110230120EA
:106B000014AD184328720320A87202381843287362
:106B1000012003436B73AA731EAD1232281C0BF0C5
:106B200011F9A37919AFBB70C94B311C3B8016AB6F
:106B30006B6004232B810423AB81231C1C332B614A
:106B40000093A088103B2A1C1E970193FFF752FF69
:106B5000002800D007E2A3790822BB70BD4B6881F2
:106B60003B8017AB6B6001232B810123AB81231C7E
:106B700020332B613378311C1343043A13433370B1
:106B8000231CA08814332A1C1E970293FFF732FFA0
:106B9000002800D0E7E1A3790822BB70AE4B2F603C
:106BA0003B8016AB6B6004232B810423AB81231C39
:106BB00032332B610393337868819343043A9343D0
:106BC0003370231CA0882233311C2A1C0493FFF746
:106BD00011FF002800D0C6E1A3790822BB709F4BAB
:106BE0002F603B8017AB6B6001232B810123AB81AE
:106BF000231C36332B61337868811343043A1343E3
:106C00003370231CA0882A33311C2A1C0593FFF7FC
:106C1000F1FE002800D0A6E1A3790822BB70904BBA
:106C20002F603B8016AB6B6004232B810423AB8168
:106C3000231C48332B610693337868819343043ACD
:106C400093433370231CA0883833311C2A1C0793CC
:106C5000FFF7D0FE002800D085E1A3790822BB70A1
:106C6000804B2F603B8017AB6B6001232B8101238E
:106C7000AB81231C4C332B61337868811343043A76
:106C800013433370231CA0884033311C2A1C089303
:106C9000FFF7B0FE002800D065E1A3790822BB70A1
:106CA000714B2F603B8016AB6B6004232B81042358
:106CB000AB81231C5E332B61099333786881934346
:106CC000043A93433370231CA0884E33311C2A1C92
:106CD0000A93FFF78FFE002800D044E1A379082231
:106CE000BB708A235B013B8017AB6B6001232B8158
:106CF0000123AB81231C62332B6133782F60134354
:106D0000043A13433370231C68815633A088311C26
:106D10002A1C0B93FFF76EFE002800D023E1A37915
:106D20000822BB70514B2F603B8016AB6B60142365
:106D30002B811423AB81231C74332B610C93337888
:106D400068819343043A93433370231CA0886433CF
:106D5000311C2A1C0D93FFF74DFE002800D002E1E4
:106D6000A3790822BB70424B2F603B8017AB6B604E
:106D700001232B810123AB81231C88332B613378C2
:106D800068811343043A13433370231CA0886C3387
:106D9000311C2A1C0E93FFF72DFE002800D0E2E0E4
:106DA000A37919AFBB70334B1EAD3B8016AB6B6044
:106DB0000A232B8100236B810A33AB81231C082219
:106DC0009A3323AE2B610F933378311C9343043AEB
:106DD00093433370231CA0888A332A1C1E97109378
:106DE000FFF708FE002800D0BDE0A3790822BB70A1
:106DF000214B68813B8017AB6B600A232B810A23F0
:106E0000AB81231CA4332B613378311C1343043A28
:106E100013433370231CA08892332A1C1E971193AE
:106E2000FFF7E8FD002800D09DE0A3790822BB70A1
:106E3000124B2F603B8016AB6B6001232B8101232B
:106E4000AB81231CB6332B61129319E04927020052
:106E5000331100003411000035110000361100001C
:106E600037110000381100003911000043110000F3
:106E700044110000451100004611000047110000B8
:106E8000337868819343043A93433370231CA0887A
:106E9000A633311C2A1C1393FFF7ACFD002862D1E6
:106EA000A3790822BB70314B2F603B8017AB6B601E
:106EB00001232B810123AB81231C271CB7332B61BA
:106EC000337868811343043A13433370AE37A08894
:106ED000311C2A1C3B1CFFF78DFD002843D1244B9D
:106EE000019A02215A60029A18709A60009ADA6038
:106EF00001221A74049A5A61059A9A61039ADA6116
:106F00005A1CD177079A01315A62089A9A62069AF6
:106F1000DA621A1C303211700A9A01315A630B9AE4
:106F20009A63099ADA631A1C403211701A1C0521FF
:106F3000503211700D9A01315A650E9A9F679A6509
:106F40000C9ADA651A1C60321170109A01315A6677
:106F5000119A9A660F9ADA661A1C70321170139A97
:106F60005A67129ADA672BB0F0BDC046481100008C
:106F70001C2B0020F0B50D1C041C002189B02048FA
:106F80000E01375C01909F4234D102ABDA800023BE
:106F9000934209DAEF5C0198BC460F01C7196046BD
:106FA000FF68F8540133F3E7019B00219819476803
:106FB00002AB9A1D38882B1CFFF71EFD011E1DD148
:106FC0002689104B08309E4218D0A37A002B15D08A
:106FD00004AC201C10220AF0B5FE3B88301C238034
:106FE0000123A37002AB0633211CA360E560FFF709
:106FF00005FD03E001310829C1D1052009B0F0BD2C
:107000001C2B0020FFFF0000F0B5B3B001905848E2
:107010000478002C00D097E05649012204F094F83F
:10702000051C12A8002D00D089E053490AF064FF26
:1070300012A9281C03F000FA09A85049012204F003
:10704000ABF8041E05D012A84D490AF055FF281CC4
:1070500087E04C4E4C49326812A80AF02BFF12A967
:10706000201C03F0E9F904AD316809A804F0CCFA5A
:1070700003AB291C142209A804F025F94349039AFB
:1070800012A80AF017FF201C12A903F0D5F9039BE0
:10709000371C0093132B22D834603D4E002B0BD0AD
:1070A000291C142205230198FFF764FF12A8311C44
:1070B0000AF022FF201C0EE03649281C0AF01CFFB3
:1070C000291C142205230198FFF754FF12A8311C34
:1070D0000AF012FF009812A903F0AEF926E02E4E36
:1070E00012A8311C0AF008FF201C12A903F0A4F911
:1070F0002A5D2A4912A80AF0DDFE002012A903F039
:107100009BF9039B01349C42F2D9311C12A80AF06E
:10711000F3FE12A9002003F08FF93B6801981433A5
:107120003B60291C14220523FFF724FF09A804F063
:107130005EFA10490122002004F006F80CE018491C
:107140000AF0DAFE201C04E012A816490AF0D4FE68
:10715000002012A903F070F912A813490AF0CCFE1E
:10716000002012A903F068F9002033B0F0BDC0463A
:10717000CC340020B4310200AC260200BE2602004E
:10718000C72602009C2B002059270200622702001C
:10719000DA26020071270200B3310200D72602006E
:1071A00085270200F1260200972702000F23F0B581
:1071B000A7B0041C6B44101C1622197001216A44EC
:1071C000118007286DD808F00FFB0409131A6C21F1
:1071D0006C2F1878611CC877A08A04E0211C1878ED
:1071E00036310870608D0021FFF706FC051C59E060
:1071F000211C18784C3108700234E08FF3E7211C11
:1072000018786231087056342088ECE7211C187811
:10721000883108701C3908880021FFF7EDFB051C38
:10722000201CFFF7F1FE3DE0211C1878B7310870F3
:107230000939088815260021FFF7DEFB00276E4478
:10724000051C3770FFF7B4FB1849C2B2307006A8AE
:107250000AF030FE06A9381C03F0EEF8FFF7AEFB8B
:10726000C0B2B84202D03378803B33703778FFF732
:107270009FFB0290FFF7A2FB3A1C029B00900C4977
:1072800006A80AF017FE06A9002003F0D5F8201C76
:10729000311C01220723FFF76DFE0020FFF79AFB48
:1072A00000E00025281C27B0F0BDC046A32702003F
:1072B000B2270200F0B50A2785B002ABDF800026B6
:1072C0000633062A14D10192021C0C1C0978A43240
:1072D0001170123A051C002110881A1C231CFFF79C
:1072E0008BFB211C061C3A1C281C019BFFF742FE4D
:1072F000301C05B0F0BD73B50B88112B06D0502B98
:1073000008D0102B00D0AAE08B8801E001235B425B
:107310000381A4E0CA88838A0D1C041C8E1D9A4236
:1073200010D1338B012B0DD10368002B0AD06B4693
:10733000002201911A70B17EFFF738FF201C6946C8
:1073400023689847EA88638D9A4210D1328B012ACC
:107350000DD12368002B0AD06B4601951A70B17EBF
:10736000201CFFF723FF201C694623689847A31CB5
:10737000EA88DB8F9A4211D1338B012B0ED123681F
:10738000002B0BD06B46022201951A70B17E201C97
:10739000FFF70CFF201C694623689847231C5633CF
:1073A000EA881B889A4211D1338B012B0ED12368B6
:1073B000002B0BD06B46032201951A70B17E201C66
:1073C000FFF7F4FE201C694623689847231C6C33A2
:1073D000EA881B889A4211D1338B012B0ED1236886
:1073E000002B0BD06B46052201951A70B17E201C34
:1073F000FFF7DCFE201C694623689847231C923364
:10740000EA881B889A4212D1338B0A2B0FD123684A
:10741000002B0CD0291C6B4606222031201C1A7030
:107420000195FFF747FF201C694623689847231CF6
:10743000AE33EA881B889A4211D1338B012B0ED1CF
:107440002368002B0BD06B46072201951A70B17E82
:10745000201CFFF7ABFE2368201C6946984773BDCC
:1074600073DF704740DF704700B5A1B0FEF770FED4
:1074700068464B490AF040FD6946002002F0DCFFF7
:10748000FEF796FE684647490AF036FD6946002039
:1074900002F0D2FFFEF7A0FE684643490AF02CFD39
:1074A0006946002002F0C8FFFFF764F968463F49CB
:1074B0000AF022FD6946002002F0BEFFFEF7DCFE66
:1074C00068463B490AF018FD6946002002F0B4FF07
:1074D000FEF70EFF684637490AF00EFD69460020A8
:1074E00002F0AAFFFEF750FF684633490AF004FD98
:1074F0006946002002F0A0FFFEF758FF68462F49BA
:107500000AF0FAFC6946002002F096FFFEF78EFFB3
:1075100068462B490AF0F0FC6946002002F08CFF17
:10752000FEF7B2FF684627490AF0E6FC69460020EC
:1075300002F082FFFEF7F2FF684623490AF0DCFC06
:107540006946002002F078FFFFF70EF868461F49F1
:107550000AF0D2FC6946002002F06EFFFFF72EF819
:1075600068461B490AF0C8FC6946002002F064FF27
:10757000FFF772F8684617490AF0BEFC694600201A
:1075800002F05AFFA0228021134BD2054905D150A9
:1075900080218905D150002001F0E8F921B000BD1B
:1075A000CD270200DE270200E9270200F6270200AD
:1075B0000A28020017280200272802003C2802009F
:1075C0004D28020067280200762802008828020061
:1075D0009A280200AD2802000C05000070B5051CB9
:1075E0000C1C161CA2B0231C2A1C1D4902A80AF060
:1075F00061FC02A9002002F01FFF321C194902A8F9
:107600000AF058FC02A9002002F016FF231C009685
:1076100002A815492A1C0AF04DFC14480378002BD7
:1076200014D1134C0122211C03F08EFD051E15D12F
:1076300002A80AF069FC02A9021C0E48FFF74CF9E7
:10764000281C211C012203F07FFD07E002A80AF09C
:107650005BFC02A9021C0748FFF73EF922B070BD8F
:10766000C02802000D290200E7280200CC340020C7
:10767000B43102001129020000B5A1B068460949E1
:107680000AF03AFC6946002002F0D6FE064806F0F1
:10769000F7FDBFF34F8F054A054BDA60BFF34F8FFD
:1076A000FEE7C0461D290200881300000400FA0509
:1076B00000ED00E0031C00B50A1CA1B0191C0B482A
:1076C000FFF78CFF68460A490AF016FC694600205D
:1076D00002F0B2FE074806F0D3FDBFF34F8F064A13
:1076E000064BDA60BFF34F8FFEE7C046EFBEADDE5C
:1076F00047290200881300000400FA0500ED00E0AD
:1077000008B55121014AFFF769FF08BD8029020031
:1077100010B50478A0B0002C07D1054968460AF0DE
:10772000EBFB201C694602F087FE20B010BDC0466E
:107730008A29020010B5A6B001ACFEF7EFFE201CAE
:10774000002114220AF0FEFAA023201C2382FFF756
:1077500087FE041E04D07721094AFFF73FFF0CE0A3
:10776000084906A80AF0C8FB06A9201C02F064FE1E
:107770001D200A21FF2201F087FD26B010BDC04662
:1077800080290200CB29020010B5041C0088A0B09B
:10779000103809283AD808F027F80517313939394F
:1077A000393939281A4968460AF0A6FB694600208B
:1077B00002F042FE1D2001F04FFD1D2001F036FDBC
:1077C000A288144B1A8021E0684613490AF094FB02
:1077D0006946002002F030FE1D2001F03DFD002032
:1077E00001F016F9FFF7A6FF10E0A479002C0DD1E7
:1077F00068460A490AF080FB201C04E068460849F4
:107800000AF07AFB0020694602F016FE20B010BD97
:10781000DC29020000200020F5290200112A0200C4
:10782000362A020008B5002A04D0101CF921024AA9
:10783000FFF7D4FE002008BD8029020010B5041C0B
:1078400006F03EFA201CFFF79FFF201C04F06EFF9D
:107850000248211CFFF74FFD10BDC046D033002069
:1078600008B505F0F1FC08BD10B50C1CA0B03E49F0
:1078700068460AF041FB6946002002F0DDFDFEF794
:10788000E7FF2078072865D807F0AEFF04153C2AEB
:10789000644D5359354B36490133DA7F68460AF057
:1078A00009FB6946002002F0C7FD00F0EDFB9B21BB
:1078B00000284FD024E02D4B2E4936331A786846E5
:1078C0000AF0F8FA6946002002F0B6FD00F0D0FD9B
:1078D00000283FD03E21FF31274AFFF77FFE39E0E5
:1078E000224B264962331A7868460AF0E3FA694661
:1078F000002002F0A1FD00F0C3FC00282AD0A22144
:107900004900E9E7194B1E494C331A7868460AF0DA
:10791000D1FA6946002002F08FFD00F0A9FEA921EE
:10792000002817D0ECE7114B684688331A781549C0
:107930000AE00E4B6846A4331A78134904E06846FF
:107940000A4B1249B7331A780AF0B4FA0020694694
:1079500002F072FD002001F05BF800200C4A011CCF
:1079600006F0C8FC20B010BDEB2A0200D033002086
:10797000FC2A0200272B020080290200502B020063
:107980007A2B0200A42B0200CD2B0200F82B020060
:10799000C967010008B500F0FFFB002804D086216C
:1079A000114AFF31FFF71AFE00F0EEFD002804D067
:1079B000C5210D4A4900FFF711FE00F0E5FC002843
:1079C00004D09021084AFF31FFF708FE00F0D8FEEE
:1079D000002804D0CA21044A4900FFF7FFFD002017
:1079E00001F016F808BDC04680290200C0230249F4
:1079F000024ADB00D15070473546526E000001400C
:107A000008B5FEF7EDFF08BD10B5A0B0FFF72CFDDF
:107A1000FFF790FE0020164A011C06F06BFC154B88
:107A200015491868002205F0D7F906F0F9FCFFF7B0
:107A300019FD002804D0B821104AFF31FFF7CEFD10
:107A400001F05AF9041E3C2CEFDD01F0BEF868206D
:107A500001F01EF90F20FEF7BDFF68460849221C01
:107A60000AF028FA6946002002F0E6FCDDE7C0468D
:107A7000C9670100CC330020AB2A00008029020036
:107A8000242C02000123C046C046C046C046C04662
:107A9000C046C046C046C046C046C046C046C046B6
:107AA000C046013B002BEED170470000002008B516
:107AB000011C021C03F0AAFF064BEC221860A02355
:107AC0000321DB05D20099508021A1224904D20074
:107AD000995008BDA02B002080B5021C6846CB1D24
:107AE000DB08DB00C31A00AF9D46044B89B218685F
:107AF0006B4603F0E7FFBD4680BDC046A02B0020CB
:107B0000B0B5031C6846CA1DD208D200821A00AF65
:107B100095460C1C68466C44A04203D0FF250570B6
:107B20000130F9E7034889B2006803F0CBFFBD4696
:107B3000B0BDC046A02B002037B5094C6B46DD1DFB
:107B4000281C0121FFF7DCFF2B78FF2B04D0013C20
:107B5000FFF798FF002CF1D1601E8441E0B23EBDDA
:107B600020A1070007B5A1238021A0224904DB0042
:107B7000D205D1506B460121D81DFFF7C1FF07BDCB
:107B800013B5A0228021094BD2054904D1506B4680
:107B90000121D81DFFF7B4FFFFF7CEFF041E02D16D
:107BA000FFF7E0FF00E00124201C16BD0C050000DB
:107BB000F7B5071C0E1C0F4D01AC201C0121FFF76F
:107BC0009FFF2378FF2B0DD023780020FE2B0FD1B1
:107BD000381C311CFFF794FF201C0221FFF790FF97
:107BE000012005E0013DFFF74DFF002DE4D1EBE75B
:107BF000FEBDC046A0860100F7B5071C0E1CFFF7AE
:107C00009BFF041E1CD001AD281C01212E700124F5
:107C1000FFF762FFFD2E13D08021381C8900FFF78B
:107C20005BFF281C0221FFF76BFF211C281CFFF7BC
:107C300067FF1F232C781C40053C63425C41E4B283
:107C4000201CFEBD30B543B285B0041C0D1C002BBA
:107C500007DA37200021FFF7F5FF01283AD87F2304
:107C60001C400C2C0ED1402302A8234303702B0E82
:107C700043702B0C83702B0AC37005719523002C65
:107C80000FD00AE0002CEED0FFF76CFFFFF778FF73
:107C9000031CFF20002B1DD0E5E78723082C00D014
:107CA000863B06214371FFF717FF6B46DD1D0C2C49
:107CB00003D1281C0121FFF723FF0A24281C0121DE
:107CC000FFF71EFF287843B2002B03DA013CE4B231
:107CD000002CF3D105B030BDF0B5A5B00F1C03905A
:107CE000111C181C1C1C151C07F088FD0290381C68
:107CF00009F0A4FD021C0B1C0020704908F0DAFA00
:107D0000061C0F1C281C09F099FD321C3B1C08F0B6
:107D10000FFF07F053FF0090201C09F08FFD3B1C64
:107D2000321C08F005FF07F049FF039B041C002BE1
:107D300003D1009B04011B010093029809F07EFD12
:107D400000225F4B061C0F1C07F0F0FE051E2ED014
:107D5000009809F073FD5B4A041C0D1C301C391C93
:107D6000594B06F0EDFB594A00900191584B201CED
:107D7000291C08F0DDFE574A061C0F1C564B201C20
:107D8000291C08F0D5FE009A019B08F0D1FE021CC8
:107D90000B1C301C391C09F065F907F00FFF2A9BFA
:107DA0004E49186004A80AF0A7F8002027E0301C0C
:107DB000391C4B4A4B4B07F0B9FE0290002822D0E9
:107DC000009809F03BFD484A484B08F0B1FE061CFC
:107DD000201C0F1C09F032FD3E4A454B08F0A8FE5E
:107DE0000B1C021C391C301C09F03CF907F0E6FEA4
:107DF0002A9B4049186004A80AF07EF8281C04A9B0
:107E000002F01AFB56E0301C391C3B4A3B4B07F092
:107E10008DFE051E1FD0009809F010FD384A394B21
:107E200008F086FE061C201C0F1C09F007FD364AD0
:107E3000364B08F07DFE021C0B1C301C391C09F06F
:107E400011F907F0BBFE2A9B3149186004A80AF01B
:107E500053F80298D3E7391C301C2E4A2E4B07F0FA
:107E600065FE071E1CD0009809F0E8FC2B4A2C4B3D
:107E700008F05EFE061C201C0F1C09F0DFFC294ADE
:107E8000294B08F055FE0B1C021C391C301C09F054
:107E9000E9F807F093FE2A9B2449186004A8ABE791
:107EA000234904A80AF028F8381C04A902F0C4FAEF
:107EB0002A9B1F60012025B0F0BDC04600207940FC
:107EC0000000E03F666666666666F63FC58F3177FE
:107ED0002D219F3F5839B4C876BEAF3F2F2C0200EA
:107EE00085EB51B81E85E33FC7BAB88D06F0963FC3
:107EF00076BE9F3F3A2C02009A9999999999E93F49
:107F00002D431CEBE2368A3F4BC8073D9B558F3F04
:107F1000462C0200CDCCCCCCCCCCF43FB2632310A9
:107F2000AFEB573FD2FBC6D79E59523F512C0200B0
:107F30005C2C020037B5064D069CAA4201D0AB422C
:107F400002D10020206002E00094FFF7C5FE3EBD94
:107F5000FFFF000073B56B460D1CD91D0F230122D6
:107F6000114E1840B378184308703078131C400045
:107F7000C0B203F099FE0D4C002803D1FF2300206E
:107F800023700FE000231420237006F079F90123F9
:107F90003078291C40001843C0B2022203F084FE4E
:107FA0000028EBD076BDC04604200020C834002055
:107FB00038B5031C064C0D1C607B191CFFF7CAFF6B
:107FC000002803D0A07B291CFFF7C4FF38BDC046A2
:107FD00004200020F0B50024A5B0164D164E0390E5
:107FE000164904A82C70347009F086FF04A9201CDF
:107FF00002F022FA301C291CFFF7DAFF071EA74205
:1080000009D10F4904A809F077FF381C04A902F030
:1080100013FA0C480CE00C4B0399187832782B7843
:1080200000910A498968FFF785FF094B9870201C69
:1080300025B0F0BD2437002026370020B92C0200DF
:10804000DA2C020025200000273700200420002021
:10805000A42B002010B5A0B0041C0949684609F003
:108060004BFF6946002002F0E7F9002000210122C1
:10807000044B186159611C601A7620B010BDC046CF
:10808000E92C02008834002030B5A1B01B496846B5
:1080900009F032FF0020694602F0CEF9184C0022A8
:1080A0002368251C0133D87F0023226163610123EB
:1080B00003402376400903280FD807F095FB0204FC
:1080C0000A0C104800E01048FEF7E0FBA860E960E9
:1080D00008E00E48F8E70E48F6E70E48FEF7D6FB34
:1080E000A060E16068460C4909F006FF694600207F
:1080F00002F0A2F9002021B030BDC046F82C0200E9
:10810000883400208096980040420F00A08601002D
:1081100010270000C0D40100272D020030B5A9B0FF
:1081200002A802F0CFF8041E08D008A8154909F0EB
:10813000E3FE08A9002002F07FF920E0029DFEF78F
:1081400031FC01220190131C0F49009503A809F08E
:10815000B1FE0E4903A8FEF7EBFB029A0C4908A8F2
:1081600009F0A8FE08A9201C02F066F9094B02A933
:1081700018680422231CFEF7FDFEFEF789FB201C75
:1081800029B030BD452D02006F2D02007D2D02006B
:10819000862D02008834002030B51D4BA1B01A7E18
:1081A000002A01D100242FE001201C695D69002113
:1081B00000196941DA68186159618A4207D802D109
:1081C0009A68824203D800200021186159611A6917
:1081D000012AE7D15A69002AE4D10E490C78002C13
:1081E0000DD1FFF79BFF051E0ED00B49684609F025
:1081F00083FE201C694602F01FF92C1C04E00020BD
:108200000021141C18615961201C21B030BDC046EA
:10821000883400205C330020972D020010B5A0B0F8
:10822000041C0949684609F067FE6946002002F00F
:1082300003F9002000210122044B186159611C60E0
:108240001A7620B010BDC046062E0200A8340020C9
:1082500010B5A0B0041C0849684609F04DFE6946F7
:10826000002002F0E9F800200021044B1861596158
:108270001C60187620B010BD822E0200003700204E
:1082800030B5A1B01B49684609F036FE00206946AA
:1082900002F0D2F8184C00222368251C62331878AB
:1082A00000232261636101230340237640090328F0
:1082B0000FD807F099FA02040A0C104800E01048A1
:1082C000FEF7E4FAA860E96009E00E48F8E70E4816
:1082D000F6E7FA20C000FEF7D9FAA060E160684630
:1082E0000A4909F009FE6946002002F0A5F80020BD
:1082F00021B030BD902E02000037002080969800FB
:1083000040420F00A086010010270000B52E020099
:1083100010B5A6B002A8FFF75DFE041E08D006A89F
:10832000144909F0E9FD06A9002002F085F81EE0D5
:10833000029B01220093019005230F4903A809F035
:10834000B9FD0E4903A8FEF7F3FA029A0C4906A8F4
:1083500009F0B0FD06A9201C02F06EF8094B02A935
:10836000186804220323FEF705FEFEF791FA201C8D
:1083700026B010BDD22E02006F2D02007D2D02000E
:10838000012F02000037002030B51D4BA1B01A7E2E
:10839000002A01D100242FE001201C695D69002121
:1083A00000196941DA68186159618A4207D802D117
:1083B0009A68824203D800200021186159611A6925
:1083C000012AE7D15A69002AE4D10E490C78002C21
:1083D0000DD1FFF79DFF051E0ED00B49684609F031
:1083E0008BFD201C694602F027F82C1C04E00020BD
:1083F0000021141C18615961201C21B030BDC046F9
:10840000003700205C330020122F020010B5A0B00E
:10841000041C0849684609F06FFD6946002002F017
:108420000BF800200021044B186159611C6018767C
:1084300020B010BD7E2F02006033002010B5A0B028
:10844000041C0949684609F057FD6946002001F0FF
:10845000F3FF002000210122044B186159611C60C8
:108460001A7620B010BDC046FE2F020080330020D7
:1084700030B5A1B01D49684609F03EFD00206946AF
:1084800001F0DAFF1A4C00222368251C36331878D5
:1084900000232261636101230340237640090428FD
:1084A00013D807F0A1F903050B0D0F00114800E0E8
:1084B0001148FEF7EBF9A860E9600BE00F48F8E718
:1084C0000F48F6E7FA208000F3E70E48FEF7DEF9E2
:1084D000A060E16068460C4909F00EFD6946002085
:1084E00001F0AAFF002021B030BDC0460B300200D1
:1084F000803300208096980040420F00A086010043
:1085000010270000C0D401002E30020030B5A9B001
:1085100002A801F0F3FE041E08D008A8154909F0CE
:10852000EBFC08A9002001F087FF20E0029DFEF788
:1085300039FA0223012201900F49009503A809F09E
:10854000B9FC0E4903A8FEF7F3F9029A0C4908A8F2
:1085500009F0B0FC08A9201C01F06EFF094B02A92C
:10856000186804220123FEF705FDFEF791F9201C8F
:1085700029B030BD4A3002006F2D02007D2D02006F
:108580006F3002008033002030B51D4BA1B01A7E41
:10859000002A01D100242FE001201C695D6900211F
:1085A00000196941DA68186159618A4207D802D115
:1085B0009A68824203D800200021186159611A6923
:1085C000012AE7D15A69002AE4D10E490C78002C1F
:1085D0000DD1FFF79BFF051E0ED00B49684609F031
:1085E0008BFC201C694601F027FF2C1C04E00020B6
:1085F0000021141C18615961201C21B030BDC046F7
:10860000803300205C3300207E30020010B5A0B023
:10861000041C0849684609F06FFC6946002001F017
:108620000BFF00200021044B186159611C60187673
:1086300020B010BDE73002003033002010B5A0B0EC
:10864000041C0949684609F057FC6946002001F0FE
:10865000F3FE002000210122044B186159611C60C7
:108660001A7620B010BDC04667310200A833002042
:1086700030B5A1B01B49684609F03EFC00206946B0
:1086800001F0DAFE184C00222368251C4C331878C0
:1086900000232261636101230340237640090328FC
:1086A0000FD807F0A1F802040A0C104800E01048A7
:1086B000FEF7ECF8A860E96008E00E48F8E70E481D
:1086C000F6E70E48FEF7E2F8A060E16068460C4964
:1086D00009F012FC6946002001F0AEFE002021B036
:1086E00030BDC04675310200A83300208096980046
:1086F00040420F00A086010010270000C0D40100F6
:108700009831020030B5A9B002A801F013FE041E92
:1087100008D008A8154909F0EFFB08A9002001F0CE
:108720008BFE20E0029DFEF73DF90323012201901C
:108730000F49009503A809F0BDFB0E4903A8FEF7F9
:10874000F7F8029A0C4908A809F0B4FB08A9201C04
:1087500001F072FE094B02A9186804220223FEF7F9
:1087600009FCFEF795F8201C29B030BDB531020098
:108770006F2D02007D2D0200DB310200A8330020A6
:1087800030B51D4BA1B01A7E002A01D100242FE084
:1087900001201C695D69002100196941DA681861CE
:1087A00059618A4207D802D19A68824203D80020D0
:1087B0000021186159611A69012AE7D15A69002A12
:1087C000E4D10E490C78002C0DD1FFF79BFF051E5C
:1087D0000ED00B49684609F08FFB201C694601F05A
:1087E0002BFE2C1C04E000200021141C1861596190
:1087F000201C21B030BDC046A83300205C330020CF
:10880000EA31020000B5A1B068460A4909F074FBDC
:108810006946002001F010FE0122074B03211A7067
:108820000022064B1D201A70803200F049FD21B055
:1088300000BDC04656320200A82B0020C8330020DD
:1088400000B5A1B068460A4909F056FB6946002008
:1088500001F0F2FD0122074B03215A700022064B62
:108860001D201A70803200F02BFD21B000BDC046E3
:108870006E320200A82B0020C83300200020012205
:10888000024B1870024B1A707047C046C833002064
:10889000A033002010B5041CA0B0002802D0FFF7C0
:1088A000B1FF0CE00749684609F026FB201C694629
:1088B00001F0C2FD044B1D201C7000F0CDFC20B067
:1088C00010BDC04682320200A82B002010B5041C47
:1088D000A0B0002802D0FFF7B3FF0CE007496846BC
:1088E00009F00AFB201C694601F0A6FD044B1D207F
:1088F0005C7000F0B1FC20B010BDC0469B3202009D
:10890000A82B002070B580252D01A0B0061C0C1CE2
:10891000284202D00020FFF7BDFF2C4201D0FFF714
:1089200071FF8025AD032E4202D00020FFF7CEFF5D
:108930002C4201D0FFF784FF630610D50949684631
:1089400009F0DAFA0020694601F076FD684600F089
:10895000AFFA002803D04B21034AFEF73FFE20B0B8
:1089600070BDC046B0320200C9320200012070B5AD
:10897000A026A225011CF605ED00204C7259237893
:10898000D20AA2B09143994202D05840FFF782FF29
:108990000120011C72596378520D9143994202D013
:1089A0005840FFF793FF164B1D78002D23D1154932
:1089B00002A809F0A1FA281C02A901AD01F03CFDB2
:1089C000281C00F069FA002811D12878FDF7FCFF77
:1089D00021782A780123002900D1637802A80A4966
:1089E00009F068FA02A9002001F026FD03E06821E1
:1089F000064AFEF7F3FD22B070BDC046A82B00204A
:108A00005C3300200933020024330200C932020023
:108A1000002809D08021A123A022DB00D205C905AE
:108A2000D1500122014B1A707047C046A03300207C
:108A300008B5031C0A1C06490878191C012303F019
:108A400033F9002801D0002000E0024808BDC046EC
:108A5000AA2B00200130000007B5074B400018701A
:108A60006B46D81D822301210370FFF7E1FF002828
:108A700000D002480EBDC046AA2B002003300000E3
:108A8000F7B56B46141C0122184F0D1CD91D087038
:108A90003878131C4000C0B203F006F9061E01D15D
:108AA0003C210CE001233878E2B240001843C0B208
:108AB000291C03F0F9F80423061E04D142210C4AB4
:108AC000FEF78CFD10E0C046C046C046C046C0461A
:108AD000C046C046C046C046C046C046C046C04666
:108AE000C046013B002BEED1301CFEBD28370020D4
:108AF0004E33020008B50122FFF7C2FF08BD13B5CF
:108B00006B46DC1D0023211C2370FFF7F3FF0020C0
:108B1000205616BD98B5131C6C460833DB08DB00E5
:108B2000E31A00AF18709D460020904204DA01302D
:108B3000441E0C5D1C54F8E7094901320878D2B292
:108B40004000191CC0B2012303F0AEF8041E03D18B
:108B50008621044AFEF742FDBD46201C98BDC04652
:108B6000283700204E33020007B56B46D971073312
:108B7000191C0122FFF7CEFF0EBDF0B585B00193A1
:108B800002ABDD1D00230C1C291C061C171C2B70BE
:108B9000FFF7B0FF002810D00121B940E41B019B72
:108BA00001340139A340A1402F78DCB28F4321402A
:108BB0003943301C2970FFF7D7FF05B0F0BD08B569
:108BC000131C0122FFF7D9FF08BD08B56B20072150
:108BD0000122FFF7F4FF08BD08B5021C04216B2039
:108BE000FFF7EDFF08BD08B5021C05216B20FFF75C
:108BF000E6FF08BD08B50021031C04221E20FFF774
:108C0000BCFF08BD08B5021C05216C20FFF7D7FF8B
:108C100008BD08B5021C04216C20FFF7D0FF08BD79
:108C200008B5021C03216C20FFF7C9FF08BD08B579
:108C3000021C02216C20FFF7C2FF08BD08B5021C10
:108C400001216C20FFF7BBFF08BD08B5021C002105
:108C50006C20FFF7B4FF08BD08B50221031C0322F6
:108C60001D20FFF78AFF08BD08B5021C03211D2047
:108C7000FFF7A5FF08BD08B538204021FFF774FFB6
:108C800008BD08B51F200F21FFF76EFF08BD0000CB
:108C900008B5184B1870FFF798FF142005F0F0FA8C
:108CA0000020FFF7A0FF0020FFF796FF0020FFF74E
:108CB000A9FF0020FFF7ADFF0020FFF7B1FF012063
:108CC000FFF7B5FF0120FFF7B9FF0120FFF7BDFF58
:108CD0000120FFF7C9FF0120FFF7BEFFFFF7CBFF21
:108CE000FFF7CFFF0320FFF785FF0120FFF77BFF92
:108CF00008BDC0462837002008B53A20FFF7FFFE20
:108D0000C0B208BDB0B5131C6C460833DB08DB00ED
:108D1000E31A00AF9D466C4600232070D8B2904203
:108D200004D2CD5CE01845700133F7E7064B211CF7
:108D30001878012302F0B8FF002801D0002000E0DD
:108D40000248BD46B0BDC046AB2B0020014000002C
:108D500073B56B46141C0122154ED9710733051CDF
:108D6000191C3078131C02F09FFF00281BD0012330
:108D70003078291C1843221C02F096FF002814D0DA
:108D80000423C046C046C046C046C046C046C04692
:108D9000C046C046C046C046C046C046C046013B6D
:108DA000181EEED102E0034800E0034876BDC0463D
:108DB000AB2B0020014000000240000013B501ACC5
:108DC000201C0C210222FFF7C3FF002801D00B4812
:108DD00013E0202263780C209343211C1E3A637019
:108DE000FFF790FF0028F2D120706070211C1A302C
:108DF0000222FFF787FF0028E9D116BD04400000DA
:108E000037B5234B400001AC18701821201C0222FA
:108E1000FFF79EFF002801D01E4837E0201C0821E4
:108E20000222FFF795FF0028F6D120706070211C08
:108E300006300222FFF766FF0028EDD12070607037
:108E4000211C0A300222FFF75DFF0028E4D17C23B9
:108E5000FF251830211C022223706570FFF752FF96
:108E60000028D9D197230C302370211C3B3B0222D0
:108E70006370FFF747FF0028CED12070211C14300B
:108E800002226570FFF73EFF0028C5D13EBDC046F7
:108E9000AB2B00200340000008B504210222FFF79D
:108EA00057FF002800D0014808BDC046054000001B
:108EB00037B501AD041C1A21281C0222FFF748FF18
:108EC00000281CD101222B78134201D0207013E01E
:108ED00002210B420AD10422134201D021700BE07F
:108EE000190701D5032306E0D90601D5227003E056
:108EF0009B0601D505232370FFF760FF00E00148C2
:108F00003EBDC046064000000423C046C046C046E1
:108F1000C046C046C046C046C046C046C046C04621
:108F2000C046C046C046013B002BEED17047000052
:108F300007B5094A01AB187059701078191C022244
:108F4000012302F0B1FE002803D0FFF7DDFF00206F
:108F500000E002480EBDC046AC2B002016400000C9
:108F600010B50F4C6378002B17D1FF214000207003
:108F70000320A170FFF7DCFF011E01D009480DE0BE
:108F80000220FFF7D5FF011EF8D10120FFF7D0FF27
:108F90000028F3D10123637000E0034810BDC046F0
:108FA000AC2B00200740000006400000002170B5F7
:108FB00000781F4BCAB25C1865781C1C854200D132
:108FC000101C01310429F4D1421CD100635C012B37
:108FD00008D161184B78002B01D1CB7800E0002339
:108FE0004B701EE0022B21D163189D785978002D1B
:108FF00006D0DE780431B14208DB5E70002103E068
:10900000042903DC01215D7099700AE0D300E318A4
:1090100059780426002D00D1F836D3007118E318D2
:109020005970D200A318597800F0C0FA70BDC0463C
:1090300018200020F8B50023234CDDB2E218527846
:109040005F1C82423CD1061C002000F0CBFAFB00E2
:10905000E318586803F008FF032D0DD0691C63184E
:109060005B7865196B704B1CCA00DB00A218E31813
:1090700021CB21C2CDB2EFE7FF2300250121201C27
:109080002371631CDD77A31CDD77E31CD977231DD7
:10909000DD770E4A243003F079FE2378201C013B53
:1090A000237000F07FF92B1C221C3832995CB142EE
:1090B00002D1FF21D15406E00133042BF4D102E0A8
:1090C0003B1E042BB8D1F8BD18200020AD8F010045
:1090D000F0B5051CA5B0019103921E1CFFF7AAFF75
:1090E0002B1CA0220321C133FF33D2059B009950D2
:1090F0000123AB40002739495350394C7A1CE319FE
:109100005B780292FF2B62D1012E04D13220019BA9
:109110004343019308E06420019B5843039B990853
:10912000490006F0FBFB0190002000F05BFA6A4664
:10913000E7197D702378127B01332370029BDB00DB
:10914000E654E318DA700023221C3832995CDFB24F
:10915000FF2901D1D55403E00133042BF4D11F1CA6
:10916000201C00F01FF9002804D0281CFFF762FF24
:109170001C4C30E0029B0199DB00E318CA03029308
:109180004B0C00211848383480185941174A0023E5
:1091900006F0F4FC029B011CE219586803F01CFE67
:1091A000041EE2D12B1C1C3B012B02D80120FFF72F
:1091B0002FFC012000F016FA04A80D492A1C331CCC
:1091C00008F078FE04A9002001F036F903E0029FC0
:1091D000042F92D1074C201C25B0F0BD0C050000D7
:1091E0001820002005600000DC050000B80B00001E
:1091F0009F3302000360000038B5094B1D1C2C335F
:109200001C1C0C35281C0121064A03F0BFFD002858
:1092100003D10835A542F5D100E0034838BDC0466A
:1092200018200020AD8F01000460000010B5041C60
:10923000FFF700FF0120FFF7EBFB231CA022032117
:109240000120C133FF33D2059B009950A123A040D8
:10925000DB00D050002010BD10B5041CFFF7EAFE63
:109260000020FFF7D5FB0120231CA0220321A040F2
:10927000C133FF33D2059B009950024BD0500020E0
:1092800010BDC0460C05000070B5041C0E1C151C5A
:10929000FFF7D0FE231CA0220321C133FF33D205E8
:1092A0009B0099500123181CA04004495050311CC8
:1092B0002A1C201CFFF70CFF70BDC0460C050000E7
:1092C00070B5041C0E1C151CFFF7B4FE231CA02255
:1092D0000321C133FF33D2059B0099500123A340E2
:1092E0000549201C53500A2171432A1CC9B202238C
:1092F000FFF7EEFE70BDC0460C05000045DF70476D
:1093000047DF70474EDF704750DF704710B50C4B9A
:10931000041C1B6899420AD800208C420FD3094ACA
:109320001268D31A59188C428041404207E0CB1A88
:1093300001209C4203D300238C425B41D8B210BD74
:1093400054200020B02B002010B5041E0F2C06D88E
:10935000C0B2FFF7D5FF0120A040FFF7CFFF10BD3F
:10936000012230B5151CA123A0248D40DB00E405AB
:10937000E550094B8000C018A223084CDB00C45004
:10938000C046C046C0460260054A09021143C150AA
:10939000C046C046C04630BD00600040031F01000B
:1093A00003001300F7B50378041C013B032B00D91D
:1093B000D7E0031C34331878052800D9D1E0A22265
:1093C000694FD200694B06F00FFA0305070C101223
:1093D000092107E009210BE00621B950FA22920089
:1093E00008E00321B950642204E0012100E00021DB
:1093F000B950FF221A60A222D200BA585C49895C97
:109400005C4A116022785A6000230192019A9342CB
:1094100017D2E118554D4A78980008354251A025D9
:109420000326C132FF329200ED05565100254F4A06
:109430003031183285504D4A097828329954013319
:10944000E4E7A12200230125D200FD60BB50474A7A
:10945000802611680420D162A922D200B950944616
:10946000454AB600BB50454AB8511365D36493646E
:109470005364019A022A13D9414AD560A125ED000F
:109480005351654651513C4953503E4990510B65EB
:10949000CB648B644B64A2233349DB00C958D150A1
:1094A000019B002B2ED0314D374B28352E78374974
:1094B000B600F618231C28331878321CFFF744FF37
:1094C000231C29331878321C3149FFF73DFF002354
:1094D000264E30363370019B012B13D06D782A4B0A
:1094E000AD00ED18231C2A3318782A492A1CFFF7EF
:1094F0002BFF231C2B33187825492A1CFFF724FF48
:109500000023737002252C34019B9D4218D2174B07
:1095100020782833EE5C1C4BB600F6181E4B321C2C
:10952000E9188900FFF710FF6078321C1B49FFF72C
:109530000BFF00220D4B02343033EA540135E3E7D0
:109540001748FFF7DFFE0123164A00201360074A81
:109550003B605268022A06D9134A1360084A136016
:1095600001E001204042FEBD00A00040B02B0020E1
:10957000BE3302005420002004050000FCA000407F
:1095800000900040FC9000400060004040A100407E
:1095900048A1004044A100404E24001048910040E2
:1095A000799801000CAC00400C9C00401FB50B4B9F
:1095B00082009A185163012230331A5400236A46FC
:1095C00013701371FA2202926A465371044B684673
:1095D0000393FFF799FE05B000BDC046B02B0020F5
:1095E000A086010070B517490123174A002806D04C
:1095F0000B605268022A24D9144A136021E04B60A0
:109600005068022801D911494B600023834218D0C9
:10961000111C2831595C0E4D45310E4CFF3189002B
:109620000D51111C9C00083165580121A026A9404C
:10963000094DF6057151111C002518316550013393
:10964000E4E770BD00A00040B02B00200090004077
:10965000001F0300006000400C050000A922F0B5C7
:109660007E4C7F49E36AD20023608B50606885B0EE
:109670000291022801D97B498B5000236364666CF8
:1096800063689E4200D3E6E0231C30339A5D002AD3
:1096900000D1DDE00022B50065199A556B6B01938E
:1096A000934212D1231C28339B5D6F4945336F4A87
:1096B000FF339B0099500123AA68A02193406C4A74
:1096C000C9058B50019BAB61C2E0019B21688B42B5
:1096D00012D3231C28339B5D634845336349FF3312
:1096E0009B0058500123A968A0208B40A121C005F0
:1096F000C9004350AA61ABE0019BA364012E54D87A
:10970000331C5133FF33029A9B00D358544F0393B9
:10971000E364AB69002B18D1231C28339E5DA96834
:10972000301CFFF71DFE0123524AAB61FB64BA589F
:1097300001998A4231D94D4AB600B3502DE078598B
:109740000199FFF7E3FD00280CD10123029A494D4E
:10975000D364029B03995859414FFFF7D7FD002866
:10976000F3D0ECE77B59039A934203D37B59019AD8
:1097700093420BD33F4A029B9B58039A93420CD2CD
:10978000374A3C4BD358019A934206D3231C0121FC
:1097900028339B5D354A9B009950636C029A513384
:1097A000FF33A16C9B00D15052E0331C4F332D4F3F
:1097B000FF339B00DB590393E364AB69002B19D1A2
:1097C000231C28339E5DA968301CFFF7C9FD0123C7
:1097D000284AAB61FB64BA5801998A4232D9234ABC
:1097E000B600B3502EE01F4B01995859FFF78EFD7C
:1097F00000280BD101231B4A1E4DD364131C03996F
:109800005859FFF783FD0028F4D0ECE7154B039A75
:109810005B59934204D3134B019A5B5993420AD389
:10982000144B039AFB5893420CD20E4A114BD35857
:10983000019A934206D3231C012128339B5D0B4AD6
:109840009B009950636CA26C4F33FF339B00FA501E
:10985000636C013312E705B0F0BDC046B02B0020A9
:1098600000A0004000900040001F03000060004086
:109870000C0500004C050000064B02211A1C50325A
:1098800010B511701C1C002801D1FFF7E7FE201C49
:10989000503010BDB02B0020F0B585B000AF7A601D
:1098A000F973002B0CD101220F334000F918C0B21C
:1098B000131C02F0F9F9012358404042C0B224E0E1
:1098C00069466C465B00B960D91DC908C900611AB8
:1098D0008D460024FE7B9C420BDA6508AA190A55C6
:1098E0000A1994467A680234555D6246E4B25570AE
:1098F000F1E74000DAB2C0B2012302F0D5F901234A
:109900005840BB6840429D46C0B2BD4640B205B01B
:10991000F0BD08B504F0B4FC08BDF8B5161C002273
:109920001D1C131C041CFFF7B7FF00281DD10127C5
:1099300064003C433B1CE0B2311C2A1C02F0B4F929
:10994000042378404042C0B2C046C046C046C0462C
:10995000C046C046C046C046C046C046C046C046D7
:10996000C046C046013B002BEED140B2F8BD00001E
:10997000002373B501AC23706370A3700C4B1A689D
:109980008123002A12D0131C2933051C566B18782A
:10999000221C0323FA21B04763781A0123781B03A2
:1099A0001343A278120913432B60031C58B276BDEF
:1099B000082C002010B50D4B02111968C0100C883E
:1099C000121B6400001B02240B5F5843131C5343FB
:1099D00004240A5F1B135343C0129B13C3180520B2
:1099E0005843803000124B6210BDC046082C002046
:1099F000002373B501AC23706370A3700C4B1A681D
:109A00008123002A12D0131C2933051C566B1878A9
:109A1000221C0323F721B04763781A0123781B0324
:109A20001343A278120913432B60031C58B276BD6E
:109A3000082C002070B5274B274A1C684042636AF7
:109A40005B109B18991049431025625FCE12564354
:109A50000E25625F49135A43550072190A26A55F05
:109A6000921069430826A55FC9106B435B10CB18A1
:109A700080219B1409025B18E18859430C25635F20
:109A8000C9131B04D2181213144B801A5843144BD9
:109A90000025C01805D4A9421AD0400005F0AEFE3A
:109AA00004E0A94214D005F0A9FE4000C3085B43BE
:109AB0001621625E5B0B53431421625E8508554399
:109AC0001B136D131221625E5B199B181B11C518C5
:109AD000281C70BD082C00200006FFFF350C00007C
:109AE000000050C3002373B501AC237063700B4BAF
:109AF0001A688123002A0ED0131C2933051C566BCB
:109B00001878221C0223FD21B047237862781B02BB
:109B100013432B60031C58B276BDC046082C0020AE
:109B2000F0B51D4B1D4A1D6886036B6A1F219F18E7
:109B30001E23EA5E287F1205B41A2023EA5E8023E2
:109B40007A43DB01A21AD218EB1C595680237843C2
:109B50001B02C012C01880237943891241439B0322
:109B60008912C9181A23EC5E802361439B01CB182C
:109B70009B13D2135A43D3135B43287EDB11434319
:109B80001B11D31AD843C822C01703405205934271
:109B900000DD131C1813F0BD082C002000D4FEFFBC
:109BA000F0B589B001AC201C00211A2208F0CAF8D7
:109BB0003F4D81202B68002B00D175E01A1C293203
:109BC0005E6B10788821221C1A23B04762782178B6
:109BD0002B6812020A431A800322A256A1781202AD
:109BE0000A435A800522A256217912020A439A801A
:109BF000E279A17912020A43DA800922A256217A77
:109C000012020A431A810B22A256A17A12020A43B7
:109C10005A810D22A256217B12020A439A810F22F9
:109C2000A256A17B12020A43DA811122A256217C9C
:109C300012020A431A821322A256A17C12020A437C
:109C40005A821522A256217D12020A439A821722B5
:109C5000A256A17D12020A43DA82627E061C1A769F
:109C60001A1C293210785F6BE121221C0723B847A8
:109C70000122A256217812020A4303212B6880197F
:109C80005A83A278C0B21A77615622790D010F214A
:109C900011402943D98305216156120909010A435C
:109CA0001A84A2790333DA7740B209B0F0BDC04616
:109CB000082C002073B56A46D51D00222A70021CAC
:109CC000031C094E293230605C6BD02110780123CF
:109CD0002A1CA04733682A7828331A70041CFFF71F
:109CE0005FFF001940B276BD082C002073B56B46AB
:109CF000DD1D00232B700A4B1A688123002A0DD02A
:109D0000131C2933041C566B18782A1C0123F421D8
:109D1000B04703232A7813402370031C58B276BD42
:109D2000082C002013B56B46DA1DB6231370074BC1
:109D300081201B68002B06D0191C293108781C6B68
:109D4000E0210123A04740B216BDC046082C0020E8
:109D500038B5084B041C1D688120002D07D0281C35
:109D60002930131C00780A1C211C2C6BA04740B220
:109D700038BDC046082C002038B5084B041C1D68AF
:109D80008120002D07D0281C2930131C00780A1CC4
:109D9000211C6C6BA04740B238BDC046082C002087
:109DA0000023F0B5364C85B002AA571D5371961D9D
:109DB0009371D371226803AD01902B7081209A4278
:109DC0005BD0019B2E32590113781F221A400B1CC5
:109DD000381C13432B70FFF789FF3B78002B1ED0F4
:109DE000FFF7A0FF236803209B6B9847236802AA14
:109DF0002F331B78D11DD371F5200122FFF7A8FF67
:109E00002368311C2D331B780122F2203370FFF7B9
:109E10009FFF291C0122F420FFF79AFF08E0236826
:109E2000F4211A1C293210781E6B2A1C0123B0471A
:109E30006A46236812792A331A70291C0122F420F9
:109E4000FFF79AFF23682A782E33061C1A70291C04
:109E50000122F220FFF790FF23682A782D33801922
:109E60001A70C6B20122F520291CFFF785FF23686E
:109E70002A7830182F331A70C0B240B205B0F0BD46
:109E8000082C00200023F0B5374C85B002AA571DDE
:109E90005371961D9371D371226803AD01902B709D
:109EA00081209A425CD0019B65389B000340191CBD
:109EB0002E32137883430B43381C2B70FFF716FFA9
:109EC0003B78002B1ED0FFF72DFF236803209B6BF0
:109ED0009847236802AA2F331B78D11DD371F52030
:109EE0000122FFF735FF2368311C2D331B78012237
:109EF000F2203370FFF72CFF291C0122F420FFF71A
:109F000027FF08E02368F4211A1C293210781E6B01
:109F10002A1C0123B0476A46236812792B331A7032
:109F2000291C0122F420FFF727FF23682A782E330B
:109F3000061C1A70291C0122F220FFF71DFF23685E
:109F40002A782D3380191A70C6B20122F520291CF7
:109F5000FFF712FF23682A7830182F331A70C0B227
:109F600040B205B0F0BDC046082C00200023F0B57B
:109F7000434C85B002AA551D9371D71DD371226839
:109F800003AE009033702B7081209A4275D02D3231
:109F9000137800997A38014083430B43381C33709F
:109FA000FFF7A4FE3B780190002B27D0FFF7BAFE05
:109FB0002368071C9B6B03209847236802AA2F3352
:109FC0001B78911D9371F5200122FFF7C1FE019BC3
:109FD000311C3F180122F220FF18FFF7B9FE236859
:109FE000FFB22E331B783F18291CF42001222B705E
:109FF000FFF7AEFEFFB23F18FEB216E02368F22173
:10A000001A1C293210781F6B321C0123B8472368B1
:10A01000061C2E331B78F420291C01222B70FFF71D
:10A0200097FE019B3618F618F6B26A46144C127861
:10A03000236803AD2C331A70291C0122F420FFF78A
:10A040009BFE23682A782E331A708619291C012258
:10A05000F220FFF791FE23682A78F6B22D333018EC
:10A060001A70C6B20122F520291CFFF785FE23686D
:10A070002A7830182F331A70C0B240B205B0F0BD44
:10A08000082C0020F7B56B466A46DE1C0023334CD3
:10A0900053719371D51D226801AF33703B702B70E3
:10A0A0008133002A57D07D33032854D82E321378B9
:10A0B0000322934318433070381CFFF717FE3B7898
:10A0C000002B1FD0FFF72EFE236803209B6B9847C1
:10A0D0006A462368911D2F331B78F5209371012266
:10A0E000FFF736FE6A462368511D2D331B78F22098
:10A0F00053710122FFF72CFE311C0122F420FFF7DF
:10A1000027FE08E02368F4211A1C293210781F6BFF
:10A11000321C0123B847291C0122F420FFF72CFE32
:10A1200023682A782E331A70061C291C0122F2207B
:10A13000FFF722FE23682A782D331A708619291C0E
:10A140000122F520FFF718FE2268F6B229783318AD
:10A150002F321170DBB258B2FEBDC046082C002071
:10A160000023F0B5394D85B002AA53719371D371B4
:10A17000971DD61D2A6803AC23708133002A62D054
:10A180001C212F32137880008B4308401843207025
:10A19000381CFFF7ABFD3B780190002B27D0FFF771
:10A1A000C1FD2B68071C9B6B03209847211C0122D3
:10A1B000F520FFF7CDFD019B3F18FF182B68311CE0
:10A1C0002D331B780122F2203370FFF7C1FD2B687D
:10A1D00002AA2E331B78FFB23F185371511DF42091
:10A1E0000122FFF7B5FDFFB23F18FFB209E02B686F
:10A1F000F5211A1C293210781D6B221C0123A84757
:10A20000071C211C0122F420FFF7B6FD0F4D227818
:10A210002B68C7192E331A70211C0122F220FFF778
:10A22000ABFD2B6822782D33FFB21A703F18211C2A
:10A230000122F520FFF7A0FD2A68FFB221783B1824
:10A240002F321170DBB258B205B0F0BD082C0020DF
:10A2500008B5174A174B1A63174A5A631A1C293252
:10A260001070164A181C9A63FFF724FD002801D0CD
:10A2700013481BE00320FFF705FF0028F8D1FFF784
:10A280006FFF0028F4D10130FFF770FE0028EFD1F6
:10A290000130FFF7F7FD0028EAD10130FFF780FD1C
:10A2A0000028E5D1FFF7EEFE0028E1D108BDC04649
:10A2B000999801002C3700201B9901001399010087
:10A2C00003200000002313B5041C036001A80193C0
:10A2D000FFF74EFB00280AD10198FFF76BFB2060C7
:10A2E0000120FFF7CFFE002802D0024800E002481C
:10A2F00016BDC0460120000002200000002313B557
:10A30000041C036001A80193FFF772FB00280AD127
:10A310000198FFF78FFB20600120FFF7B3FE0028B4
:10A3200002D0024800E0024816BDC04601200000ED
:10A3300002200000002313B5041C036001A8019350
:10A34000FFF7D0FB00280AD10198FFF7E9FB206056
:10A350000120FFF797FE002802D0024800E00248E3
:10A3600016BDC0460120000002200000F0B5161CFA
:10A370001822071C424303202E4B85B09A18D36A3B
:10A380000391184002280DD0111C2031936A4968AE
:10A390005B1A013B01D5126A9B189E4202DD002820
:10A3A00045D01E1C0020864241D001901822101C6E
:10A3B0007843204B1818011C2031846A4968641ABC
:10A3C000191C013C01D5036AE4187A438A18101C51
:10A3D000136A20300293536A029AD31A9C4201DB1B
:10A3E0004468141BB44200DD341C18231D1C781C67
:10A3F00043437D43CB184D196A6A58680399801806
:10A40000221C07F096FC019B361B1B190193039B32
:10A41000029A1B1903936B6A20351C196C606B68D8
:10A42000934201D100236B60002EBFD1019805B08B
:10A43000F0BDC0465820002010B50A1E06D00B1CE7
:10A440001C785A1A002C01D00133F9E7FFF78EFF70
:10A4500010BD002310B5934203D0CC5CC45401332B
:10A46000F9E710BD8218904202D001700130FAE77E
:10A47000704710B503681A1E10D0117820290BD927
:10A480003A2901D00132F8E7591C1C788A4205D1DB
:10A49000302C03D102330360002001E00120404250
:10A4A00010BD10B50923002810D00268002A0DD075
:10A4B000117800290AD0D48881888C4206D150783E
:10A4C00001F036F90323C007C0170340181C10BD64
:10A4D000CB7E021C887E1B021843032A05D14B7DCC
:10A4E0000A7D1B0213431B0418437047F8B5071C71
:10A4F000C56A30370123041C391C40782A1C01F03E
:10A50000D9F90123002814D1236AA2692071EB1A1A
:10A51000934201D300230CE0E678012EFAD9A36917
:10A520006078ED18391C2A1C012301F0C3F9013EA3
:10A53000F3E7181CF8BD08B5031C0279002082421D
:10A5400002D0181CFFF7D2FF08BD0000F8B5041CAC
:10A55000FFF7F1FF051E53D12378032B48D167790C
:10A56000012F45D1261C80223036301C291C920038
:10A57000FFF778FF5522234B4121E254224B9218DA
:10A58000E254221CDE3BFF3B313233701370231C3C
:10A590006122323385201A7059707223800023544F
:10A5A0001A4823541A4BE1541A4BE2542369B83227
:10A5B000FF32A354184A190AA154184A190CA1547D
:10A5C000174A1B0EA354E3680132A354154A190A13
:10A5D000A154154A190CA154144A1B0EA354E36943
:10A5E00060785A1CE262311C3B1C01F063F9657112
:10A5F000002160780A1C01F0A9F9431E9841C0B2FD
:10A60000F8BDC0462E0200002F0200001502000017
:10A610001602000017020000190200001A020000D2
:10A620001B0200001D0200001E0200001F020000AD
:10A6300070B5C36A041C0E1C0025994210D0FFF7A8
:10A640007AFF051E0CD1211C60783031321C0123A9
:10A6500001F0F6F8002802D0012601357642E662C4
:10A66000281C70BD002310B50371013BC362041C9C
:10A67000FFF7DEFF011C0320002939D11D4B1E4AC4
:10A68000E35CA25C1B0213431C4A1BB201389342D9
:10A690002ED1231C69331B78081C1A06231C68332F
:10A6A0001B781B041343221C663212781343221CAE
:10A6B0006732127812021343114A1B021B0A93429B
:10A6C00016D0231C85331878013B1B7800061B0429
:10A6D0001843231C82331B788334184323781B02CE
:10A6E00018430002074B000AC018431E9841C0B22D
:10A6F00010BDC0462F0200002E02000055AAFFFF29
:10A7000046415400BABEABFF0023F0B5036089B0E8
:10A71000071C081C161CFFF7ACFE0B23051E00DAF5
:10A720008FE1C94B8200D4580C23002C00D188E162
:10A730003C602378002B0DD0607800F0F9FF0123F6
:10A74000034007D1002E00D17BE1420700D478E11D
:10A750000A2376E10023E8B22370607000F0F2FF74
:10A760000323C20700D56CE1002E01D04307EFD4CC
:10A77000201C0021FFF776FF012828D1231C002090
:10A78000F333FF3300221978914209D0DA791106A8
:10A790009A7912040A4319790A43597909020A433A
:10A7A000810004AD01304A5110330428EAD100255C
:10A7B00004AB5E590220002E05D0201C311CFFF78F
:10A7C00051FF00280CD00435102DF1D135E10026C1
:10A7D0000123032800D134E1B04201D00D2330E140
:10A7E000231C221C3C331B783B3212781B02134380
:10A7F00080221BB292009342F0D1231C221C4733CB
:10A800001B78463212781B02134311D1231C573395
:10A810001B781A06231C56331B781B041343221C77
:10A82000543212781343221C553212781202134309
:10A830000093009BA361231C40331A78531EE270DF
:10A84000012BCBD8231C3D331978A1700029C5D02A
:10A850004B1E1942C2D1231C42331F78013B1B7887
:10A860003F021F4327813B07B8D1231C443318788C
:10A87000013B1B780002184310D1231C5333187876
:10A88000013B1B7800061B041843231C50331B7824
:10A890001843231C51331B781B021843231C251C0F
:10A8A0003F331B783E352D781B021D43019595D013
:10A8B000009B53430393039A3B095B199B18029334
:10A8C00098428BD3C01A04F099FF002886D05F4BC2
:10A8D0000125984204D95E4D8542AD416D42023555
:10A8E000019B029A0230F31892196061E6612362BB
:10A8F000A262032D17D1002F00D06FE7231C5F3316
:10A900001B7880001A06231C5E331B781B0413433C
:10A91000221C5C3212781343221C5D321278120220
:10A92000134363620FE0002F00D157E7039AD31857
:10A930006362022D01D1400005E00323012243435D
:10A9400010405B081818434BC018009B400A834214
:10A9500000D243E701235B422361E36081336371EB
:10A96000032D61D1231C221C61331B7860321278C5
:10A970001B021343012B57D1711C201CFFF758FEFB
:10A98000002851D1344B6071344AE35CA25C1B0255
:10A990001343334A1BB2934246D1231C33331B78F3
:10A9A0001A06231C32331B781B041343221C30323B
:10A9B00012781343221C3132127812021343294AAF
:10A9C000934231D1284BE35C1A06284BE35C1B040D
:10A9D000134385229200A25C1343254AA25C120213
:10A9E0001343244A93421FD1234BE35C1A06234BA3
:10A9F000E35C1B04134386229200A25C1343204AAB
:10AA0000A25C1202134323611E4BE35C1A061E4B29
:10AA1000E35C1B04134387229200A25C13431B4A8E
:10AA2000A25C12021343E360074A25709388013346
:10AA30009BB29380E380002303E00123032800D02E
:10AA4000CCE6181C09B0F0BD20300020F50F000046
:10AA5000F5FF0000FF0100002F0200002E020000A1
:10AA600055AAFFFF52526141170200001602000072
:10AA700015020000727241611B0200001A02000000
:10AA8000190200001F0200001E0200001D0200004B
:10AA9000436902399A1E0023914203D28378826A65
:10AAA00059438B18181C7047F7B50124A14265D98A
:10AAB0004369994262D203780E1C051C022B2DD0EB
:10AAC000032B3FD0A34259D14F087F18036A790A5C
:10AAD000C918FFF7ADFD002802D0012464424DE003
:10AAE0007B1CFF05590A0193FF0D2B6AEF193037C4
:10AAF000C918281C3F78FFF79BFD0028EDD1019B6A
:10AB0000D805C00D2D1830352B781B021F43264267
:10AB100001D03C0932E03F053C0D2FE0036A090AF1
:10AB2000C918FFF785FD0028D7D1FF2376005B0009
:10AB30001E40AB193036AD1930336C781B782402C7
:10AB40001C431BE0036AC909C918FFF771FD0028FF
:10AB5000C3D1FD30B600FF300640321C3032AA1897
:10AB60009478D37824041B061C435378AE191B0237
:10AB700030361C4333781C4324012409201CFEBDBD
:10AB8000F8B5051CE98084680E1C012C01D1022057
:10AB900038E003685A699442F9D2002C0BD11A7834
:10ABA000032A02D15A6A002A04D11A899642EED2A7
:10ABB000586A17E0141C211C9F783F01BE420DD338
:10ABC0002868FFF771FF011C431C1AD00128DED949
:10ABD0002B685B699842DAD2F61BEFE728680C1CF9
:10ABE000FFF756FFEC600028D1D00F213309314028
:10ABF000181849012B683031591828616961002003
:10AC000000E00120F8BDF7B5041C0E1C151C022045
:10AC100001297DD9636999427AD22778874245D044
:10AC2000032F57D0012F73D14B085B18590A00939B
:10AC3000236A201CC918FFF7FBFC002868D1009B81
:10AC40003E4001330193009BEAB2DB05DB0DE318C4
:10AC5000002E08D01A1C303211780F220A40E9B2B7
:10AC600009010A43D2B230331A7001232371019BC8
:10AC7000201C590A236AC918FFF7DAFC002847D1BB
:10AC8000019BDB05DB0DE218002E02D02D09EDB291
:10AC900008E0131C303319780F232D0A99432B40F9
:10ACA00019430D1C131C30331D702FE0236A090A51
:10ACB000C918201CFFF7BCFC002829D1FF2376000F
:10ACC0005B001E40A319303330361D70A6192D0AC3
:10ACD00075701BE0236AC909C918201CFFF7A8FC7E
:10ACE000002815D1FE23B6005B001E40331C303314
:10ACF000E318DA78A6191209120715432A0A303622
:10AD000035705A702A0C2D0E9A70DD700123237154
:10AD1000FEBD0000F8B5051C0E1E06D1C768002F49
:10AD200013D043699F4211D30FE0FFF7BDFE01240A
:10AD3000A04242D9431C02D1012464423DE06B6928
:10AD4000041C371C984201D237E001273C1C6B6978
:10AD500001349C4204D3012F01D800242DE00224A9
:10AD6000281C211CFFF7A0FE002808D0431C01D09E
:10AD7000012801D1041C20E0BC42E8D1EDE7281CE9
:10AD8000211C0F4AFFF73FFF002813D1002E0AD1E4
:10AD90002B69EC605A1C10D00122013B2B616B79AE
:10ADA00013436B7109E0281C311C221CFFF72BFF99
:10ADB0000028EDD00128BFD00124201CF8BDC046DA
:10ADC000FFFFFF0FF7B5C6880136B3B2002B01D1E4
:10ADD00004206AE00369002BFAD00F2232400F1CD6
:10ADE000041C0192002A58D1C16801330361006834
:10ADF000002903D103899E42EAD24EE082783309CA
:10AE0000013A1A4249D1FFF74FFE051E012D01D824
:10AE100002204AE0431C01D1012046E0206843693A
:10AE20009D4234D3002FD3D0E168FFF773FF051C98
:10AE30000720002D39D0012DEAD06B1CECD0206802
:10AE4000FFF779FB0090031EE6D180222068191CD1
:10AE500030309200FFF706FB2768291C381CFFF7EB
:10AE600017FEF862009F23689A7897420CD201225D
:10AE70001A712068FFF75FFB0028CDD122680137E7
:10AE8000D36A0133D362EEE7DA6AD71BDF62E5608B
:10AE90002068291CFFF7FCFD20610020019B22682F
:10AEA0005B013033D318E6806361FEBDF0B50B78EB
:10AEB00085B0041C0D1C2F2B01D05C2B00D101355B
:10AEC0000026A6602B781F2B06D8201C311CFFF70C
:10AED00057FE6661D5E001352B782F2BFBD05C2B1C
:10AEE000F9D0A66920210B22301CFFF7BBFA002104
:10AEF00008230A1C00910193009B01330293009BDD
:10AF0000EB5C202B43D92F2B41D05C2B3FD02E2B39
:10AF100000D19BE00198814200D395E058B200280F
:10AF200001DA032002437F2084469C4460466F463A
:10AF3000F873F87B1E2807D9202084469C4460467D
:10AF4000F873F87B1C2819D80098023084460298C0
:10AF50002F5C381C40383E2803D94038C0B27C28CA
:10AF600072D80198013881426ED273546346481CEE
:10AF7000375402310293029B0093BDE700274248F9
:10AF8000C05D00286BD001379842F8D15CE0029890
:10AF900020272D1800209F4240418300002953D0D4
:10AFA0003178E52901D1E03931700199082901D1C1
:10AFB0009200D2B203211140012902D10F310B437B
:10AFC000DBB20C210A40042A02D104321343DBB263
:10AFD000F372201C0021FFF7D3FD00281CD120684C
:10AFE0002169FFF725FB002816D161690B78002B3A
:10AFF00011D00823CA7A1A4008D1A6698B5CB05CCC
:10B000000132181A02D10B2AF8D105E0201C0021C8
:10B01000FFF7D8FEE1E70420A369DB7A002805D01A
:10B0200004282ED103422CD101302AE05B0728D41A
:10B030006169CB7ADB0605D523681878FFF748FAF3
:10B04000A06049E705201CE006201AE0019B082BC0
:10B05000FAD10B2392000199D2B201938BE71F1C06
:10B06000413F192F02D802273A4307E01F1C613FD6
:10B07000192F03D80127203B3A43DBB27354013127
:10B0800079E705B0F0BDC046D133020038B50021E4
:10B09000051CFFF775FD041E10D128682969FFF70C
:10B0A000C7FA041E0AD16B691B78E52B0AD0002B66
:10B0B00008D0281C0121FFF785FEECE7042C14D1F1
:10B0C000033412E028682969FFF7B2FA041E0CD194
:10B0D0006869211C2022FFF7C5F90B226869A9695C
:10B0E000FFF7B7F901222B681A71201C38BD70B523
:10B0F000041C0D1E012D01D8022024E04369994251
:10B10000FAD263699D4205D2201C291CFFF7CCFCB2
:10B11000061E01D1002016E00128EDD0431C11D0FD
:10B12000201C291C0022FFF76EFD00280BD123698B
:10B130005A1C05D0012201332361637913436371E3
:10B14000351CDEE7012070BD1FB5019003A8141C5B
:10B1500000910391FFF78DF90B22002817DB0D4BAF
:10B160008000C258002A01D000211170019A002AE3
:10B1700001D000211170019919500A1E07D0002238
:10B18000012C04D101A86946FFF7BEFA021C101C6D
:10B1900004B010BD20300020F0B58FB0051C039125
:10B1A0000920002D00D18CE0161C00231E222B60EC
:10B1B000324007A803A9FFF7A7FA002800D080E0D3
:10B1C00004AB07A803990D93FFF770FE0C9C0028B1
:10B1D00002D1002C00D106301F271C2337401E420D
:10B1E00042D000280AD0042802D107A8FFF74EFF5A
:10B1F00008230C9C1F43002807D062E01123E27A49
:10B200001A425DD1082073075BD43B0736D54A2329
:10B2100000262374043B6374079BA673E673E672EF
:10B2200026776677A677E6771878211C0193FFF7D3
:10B230004FF90123019AA676E67626756675029087
:10B240001371B0421AD0101C0299D66AFFF74FFF53
:10B25000002836D1029B0798013BC360311CFFF7E1
:10B26000E7F900280AD02CE000282AD1E37A04204C
:10B27000DA0626D4B20701D5DB0721D43B0701D576
:10B2800020231F43079E211CF36AAF710027EB6147
:10B290002C62EF713078FFF71BF92861E37F381CCF
:10B2A0001A06A37F1B041343227F1343627FAF6000
:10B2B00012021343EB60AF612E60F388AB8000E0B5
:10B2C00007200FB0F0BDF0B51F1C002385B03B6018
:10B2D000051C0091161CFFF7E4F8002800D08BE055
:10B2E000E879002800D087E0AB790730DB0700D48D
:10B2F00082E0EB68AA68341C9B1A9E423BD91C1C56
:10B3000039E0AA68D3055BD12868530A8678013EE4
:10B310003340DBB20193002B30D02B686969181CD5
:10B320000293FFF7B5FB002831D0019B660AC318D2
:10B330000393002E42D0029B019A9B78B2189A4246
:10B3400001D9019A9E1A029B00995878039A331CDE
:10B3500000F076FA00281ED129680B79002B1FD146
:10B360007602009BA41B9B190093AB689B19AB60F2
:10B370003B689B193B60002CC3D13CE0002A01D103
:10B38000286902E06969FFF78FFB012801D80220D4
:10B3900002E0431C02D10120E8712DE06861BCE7A6
:10B3A000CB6A039A981AB042DAD28022009B4002FC
:10B3B000181830319200FFF74CF8D1E7039BAB61CE
:10B3C0008022AB689200DB05DB0DD31A261E9E425D
:10B3D00000D91E1C2868A969FFF72AF90028DAD1CC
:10B3E000AB680098D905C90D2B6830315918321C4B
:10B3F000FFF72FF8B5E7201C05B0F0BDF0B51F1C16
:10B40000002385B03B60041C0191151CFFF749F82F
:10B41000002800D0B1E0E379181E00D0ADE0A27999
:10B420000720920700D4A8E0A268A91891425B41C6
:10B430005B421D40002D16D0A268D30570D1206854
:10B44000530A817801390B40DBB20293002B1FD1E4
:10B45000002A03D1216900290CD100E06169FFF7BE
:10B4600059FC011E06D1A368E268934200D87FE030
:10B47000E3607DE0012901D1022002E04B1C02D1F2
:10B480000120E07179E023696161002B00D1216125
:10B490002068A269C36A934203D1FFF74CF80028E1
:10B4A000EED126686169301CFFF7F2FA0028E3D07C
:10B4B000029BC31803936B0A009323D0009A02994E
:10B4C000B37852189A4201D95B1A009370780199A7
:10B4D000039A009B00F0EEF9061ED1D12068039A72
:10B4E000C36A991A009B994209D28022019B4902A2
:10B4F000591830309200FEF7ACFF23681E71009B94
:10B500005E022AE0A368E268934207D3301CFFF78B
:10B5100012F80028B4D12368039ADA62039BA3616E
:10B520008022A3689200DB05DB0DD31A2E1E9E42FB
:10B5300000D91E1C2068A169FFF77AF800289FD166
:10B54000A368321CD805C00D236830301818019943
:10B55000FEF77FFF012322681371019BAD1B9B192E
:10B560000193A3689B19A3603B689B193B6061E74B
:10B5700020220020A3791343A37105B0F0BD38B594
:10B58000041CFEF78EFF002830D12025A3792B4222
:10B590002CD02068E169FFF74BF8002826D1236AF8
:10B5A000DA7A2A43DA72227B1A77627B5A77E26868
:10B5B000120C9A77E268120EDA77226998759A76F9
:10B5C000110A120C1A75120A5A754A221A76043A8E
:10B5D000D976D8755A769874D874A3792268AB4313
:10B5E000A371012313712068FEF7B0FF38BD10B5B9
:10B5F000041CFFF7C4FF002805D1201CFEF751FFF3
:10B60000002800D1206010BDF7B5041C0D1CFEF70A
:10B6100048FF002877D1E079002874D1E3689D4283
:10B6200003D9A279920700D41D1C0022A368A2604E
:10B63000954201D1002056E02768BE787602002BA3
:10B6400014D0013B311C681E009304F0D7F8311C64
:10B650000190009804F0D2F8019B834206D3009A2F
:10B6600073421A40A260AD1A616911E02169002994
:10B670000DD1381CFFF74EFB011E012901D102201C
:10B6800002E0431C02D10120E0713CE020616161D5
:10B690000029CFD0B5421AD9A37920689B0704D5D9
:10B6A000FFF738FB011E03D110E0FFF7FDF9011C85
:10B6B0004B1CE8D00129E2D923685B699942DED2AC
:10B6C000A36861619B19A360AD1BE3E7351CA36808
:10B6D0005B19A360EB05ADD02068FFF7D9F900280E
:10B6E000CDD06D0A4019A368DA0503D0A269904253
:10B6F00000D0A061E2680020934204D92022E360D8
:10B70000A3791343A371FEBDFA239B00C046C04634
:10B71000C046C046C046C046C046C046C046C046F9
:10B72000C046C046C046C046013B002BEED1704724
:10B730000123002801D1024B1B78181C7047C0461A
:10B74000D020002073B50324002872D10A3002F003
:10B7500097FDFCF7ABF9073401AD013C281C012132
:10B76000E4B2FCF7CDF9002CF6D1201C211CFCF72B
:10B7700069FA061E012E01D0002446E0D5210820DA
:10B780004900FCF75FFA012818D1281C0421FCF7B6
:10B79000B7F9AB78012BEFD1EB78AA2BECD1FA24D7
:10B7A000A4008021A920C905FCF74CFA011E1ED077
:10B7B000013CFFF7A9FF002CF3D1DDE7A920211CF4
:10B7C000FCF740FA012802D9351C341C01E0A925F8
:10B7D0000224FA26B600281C0021FCF733FA0028C0
:10B7E0001DD0013EFFF790FF002EF4D1C4E73A20B0
:10B7F000FCF728FA0028BFD1281C0421FCF780F9A7
:10B800002B780C245B0600D404240B4B1C70604284
:10B8100044410A4BE4B21C70FCF7A4F909E0802112
:10B8200010208900FCF70EFA434258414042044080
:10B83000EBE7201C76BDC04626300020D02000203B
:10B8400070B51D1C01230E1C191C002801D11749BD
:10B8500009780320194228D1154B1B781B0700D407
:10B8600052020124AC42A44164421134201C111C38
:10B87000FCF7E8F9002812D18021301C8900FCF780
:10B8800097F9002805D08023013D9B00F618002D74
:10B89000F2D1122C03D10C200021FCF7D3F9FCF7D4
:10B8A00061F92B1C5D1EAB41D8B270BDD0200020C9
:10B8B0002630002070B51C1C0123161C0D1C1A1C00
:10B8C000002801D11F4A127803201A4238D11E4B9A
:10B8D0001B781A0700D47602012C0CD11820311CD9
:10B8E000FCF7B0F9002826D1281CFE21FCF784F9CA
:10B8F000444244411FE00622134203D09720211CFA
:10B90000FCF7A0F91920311CFCF79CF9002812D192
:10B91000281CFC21FCF770F9002805D08023013C8D
:10B920009B00ED18002CF3D10020FD21FCF764F9F9
:10B93000002800D10124601E8441FCF713F9E0B215
:10B9400070BDC046D0200020263000200123F0B575
:10B950001C1C85B0002801D12B4804781C4003260C
:10B96000002C4ED1151C01290CD0002904D0B14265
:10B9700043D18023136041E0FCF702F94442444183
:10B98000E4B23BE0211C0920FCF75CF9041E01D065
:10B99000012433E068461021FCF70AF90028F7D0AB
:10B9A0006B466A461878517A8009DB79127A012849
:10B9B00008D13E3003401E04120201368A18B11825
:10B9C000890218E09B009209D2186B469B7931409E
:10B9D00033409B02D3186A4657790F2217406A46B4
:10B9E000927A4E00D0093A1802329119C9B2093937
:10B9F00001338B40191C296000E00424FCF7B2F8E5
:10BA0000261C301C05B0F0BDD0200020A02370B54E
:10BA1000DB050324234D002830D1234E9C510C3EDE
:10BA20009C51224E9851EC20C0001C50A124192694
:10BA30001F48E4000651033E4651A2250136ED00A1
:10BA4000465180256D041D5180241A4B0139E405AF
:10BA5000C9B2C4500023022901D8174B5B5C1749B7
:10BA6000002A01D0012213434350031C0022FC335F
:10BA7000DA60A0230132DB00C25070BDEF20002647
:10BA8000C0001C501C501E50A1261C501E240C48E7
:10BA9000F60084514451A225ED0044518024E40570
:10BAA0009C51D1E70C050000640700005C07000012
:10BAB000003000402405000014340200540500004A
:10BAC00000400040F7B51D4C009101931821A042A1
:10BAD00000D006310125A0248D401949E4056550A8
