:020000021000EC
:1060000000400020B9E6010001E70100957701009A
:106010000000000000000000000000000000000080
:1060200000000000000000000000000005E7010083
:10603000000000000000000007E7010009E7010080
:106040000BE701000BE701000BE701000BE7010084
:106050000BE70100000000006DE201000BE701000A
:106060000BE701000BE70100559901000BE7010068
:106070000BE701000BE701000BE701000BE7010054
:106080000BE701007DCA01000BE701000BE70100EF
:106090001DCB01000BE7010049C301000BE7010024
:1060A0000BE701000BE7010000000000000000000A
:1060B00000000000000000000000000000000000E0
:1060C000164B002B00D1144B9D46402292029A1A87
:1060D000924600218B460F461348144A121A0BF0C1
:1060E00017FF0F4B002B00D098470E4B002B00D012
:1060F00098470020002104000D000D48002802D020
:106100000C4800E000BF0BF0C5FE2000290001F0A4
:1061100043FD0BF0A9FEC04600000800004000202F
:106120000000000000000000402100209C370020FB
:10613000000000000000000077DF704778DF704744
:106140007ADF70477CDF704760DF704768DF704739
:10615000A023EF220321DB05D20030B5A120995006
:106160008022C000D2051A500C2204250B4C1A5173
:106170000B4C1D510B4C1A51043C19518024E40066
:106180001C50E320C0001A5010381A5006481A500C
:1061900040191A50054A995030BDC04654070000B6
:1061A000240700002C0700000C0700001C0700005B
:1061B000A023EE210322DB05C9005A5005495A509D
:1061C000A1228021D200490599508021890599504A
:1061D0007047C04674070000002307B502200093F3
:1061E0000A211522254B06F057FE002803D03E2138
:1061F000234A01F0A7FA23480121234A06F0ACFE06
:10620000002803D041211E4A01F09CFA1F480121B9
:106210001F4A06F0A1FE002803D04221184A01F0CF
:1062200091FA1C4801211C4A06F096FE002803D072
:106230004321134A01F086FA18480121184A06F052
:106240008BFE002803D044210D4A01F07BFA15484B
:106250000121154A06F080FE002803D04521084A96
:1062600001F070FA11480121114A06F075FE00286C
:1062700003D04621024A01F065FA07BD4021002003
:1062800068310200283700205D7B0100D0340020F7
:10629000C97A010058330020D58B010088330020D3
:1062A000857B0100DC3300208374010084330020EF
:1062B00045720100164910B50420583108F022F843
:1062C000002803D04E21134A01F03CFAC1221249A2
:1062D00092008858114B124C0340C0200004034325
:1062E0008B501049201C0A1C0F4B08F03FF8002867
:1062F00003D05321074A01F025FA207808F05AF814
:10630000002803D05521034A01F01CFA10BDC046F5
:10631000C02800206831020000E100E0FFFF00FF1C
:1063200080330020400820006D8B01001FB5012242
:1063300002AC23781F4993432370082028314F3241
:10634000002305F0D1FF002803D064211A4A01F090
:10635000F9F9002301A80370FFF7F6FE002803D027
:106360006C21154A01F0EEF9144805F0D9FF002818
:1063700003D07021104A01F0E5F9114805F0DAFF69
:10638000002803D073210C4A01F0DCF90420FFF748
:10639000D3FE002803D07621074A01F0D3F901206B
:1063A000211CFFF7D3FE002803D07921024A01F017
:1063B000C9F91FBD40290020683102005979010048
:1063C0007D790100064A08B508201421783208F0CA
:1063D00061F8002803D08021024A01F0B3F908BD1A
:1063E00040290020683102001FB507F089F8002815
:1063F00003D08D21194A01F0A5F9A223A022DB00C8
:10640000D205D2580123920893436A466846137016
:1064100007F07AFC002803D09321104A01F092F98A
:106420000A200021684406220BF072FD1E2301ACF5
:10643000E380113B2372063B63720933A372084B5E
:10644000084801930123211C237107F0CBFC00288D
:1064500003D0A221014A01F075F91FBD6831020085
:10646000417901008D3300201FB5002301A8134995
:1064700005220370FFF766FE002803D0B321104AFF
:1064800001F060F90020FFF759FE002803D0B62183
:106490000B4A01F057F9002302A8436050330380F0
:1064A000503343802833C380FFF74AFE002803D0CF
:1064B000C021034A01F046F905B000BD7231020067
:1064C0006831020030B51F4D95B00021D022281C44
:1064D0000BF01EFD0021102268460BF019FD1A4B2F
:1064E0006A4600930123F1241371F023281C6946A6
:1064F0005471D471947114725472937200F046FB0B
:10650000002803D0211C114A01F01CF9402200216F
:1065100004A80BF0FDFC04A80D4905F081FE112232
:1065200013AB1A704D2300226B4404A81A7005F0B7
:10653000A9FD002803D0FF21044A01F003F915B09A
:1065400030BDC046E033002085790100683102008B
:106550007831020030B59FB06B46DD1D062302ACDA
:1065600000213822201C2B700BF0D2FC02230021CA
:10657000237010A8013B3822A370A380A5600BF004
:10658000C7FC201C10A906F0E3F8002804D01A214B
:10659000024AFF3101F0D6F81FB030BD6831020069
:1065A00010B588B001AC201C00211C220BF0B0FCFF
:1065B0000C4B201C6360A023DB02A3600523237324
:1065C000043B2374084B6361084BA36106F064F934
:1065D000002804D03021064AFF3101F0B3F808B09A
:1065E00010BDC04655D500002D7801001D78010072
:1065F0006831020008B502F075FA002804D09B212A
:10660000214A490001F09EF802F072FF002804D0F0
:106610003A211D4AFF3101F095F805F0F1FB002801
:1066200005D13E211948FF31174A01F08BF8362079
:1066300002F062FD002804D0A021134A490001F0B5
:1066400081F8342002F062FB002804D044210E4A75
:10665000FF3101F077F8732002F0FEFD002804D02E
:10666000A321094A490001F06DF8762003F0F2FEFB
:10667000002804D04A21044AFF3101F063F8682061
:1066800002F082FC08BDC046683102000110000023
:10669000FA2010B5C00007F0D9FE3A4C201C01F0DA
:1066A000CFFF002804D0B021374A490001F04AF852
:1066B00001F0E0FF002804D06221334AFF3101F0ED
:1066C00041F8201C02F0D4F8002804D0B5212E4A4D
:1066D000490001F037F802F0E5F8002804D06C21F9
:1066E000294AFF3101F02EF8201C02F041F9002860
:1066F00004D07021244AFF3101F024F802F052F94D
:10670000002804D0B821204A490001F01BF8201CC1
:1067100002F026F8002804D0BA211B4A490001F0F3
:1067200011F802F037F8002804D07621164AFF311C
:1067300001F008F8201C01F0FFFE002804D07A21A7
:10674000114AFF3100F0FEFF01F010FF002804D0D5
:10675000BD210D4A490000F0F5FF00240B4B201C21
:106760001C7002F089FAA021094B09031868221C49
:1067700006F018FCA04204D08421034AFF3100F047
:10678000E1FF10BDE0330020683102008C330020AF
:10679000583300200122FA2008B50D490D4B0004A2
:1067A0005A500D495850A120C00019581143195092
:1067B0001A600A4B0A491868002206F0F3FB002809
:1067C00004D08E21074AFF3100F0BCFF08BDC0464F
:1067D0000C05000000000140040500008833002083
:1067E00055D500006831020000B5144BA1B01A7EE7
:1067F000134B1B7E1343134A127E1343124A127E1D
:10680000134303D1114B1B7E002B15D0A021104B3D
:10681000C9021868002206F0C5FB002804D0BA217E
:106820000C4AFF3100F08EFF0B4968460BF06EFCFE
:106830000020694603F0E6FE21B000BDB833002019
:10684000B03400206033002008370020903300204F
:1068500028370020683102008231020008B5024961
:1068600009F0B2F8002108BD3075000000B50D4BED
:10687000A1B0984208D168460B490BF047FC694625
:10688000002003F0BFFE0AE00823021C9A4306D052
:10689000064B984203D01921054A00F053FF21B05E
:1068A00000BDC04604300000173202000134000071
:1068B00031320200021C08B5081C1349092A1FDDE9
:1068C0001249632A1CDD124B12499A4218DD124B01
:1068D00012499A4214DD124B12499A4210DD124BB2
:1068E00012499A420CDD124B12499A4208DD124BB2
:1068F00012499A4204DD124B12499A4200DD1249B4
:106900000BF0D8FB08BDC0466B3202006C320200AF
:10691000E70300006D3202000F2700006E32020014
:106920009F8601006F3202003F420F00703202006A
:106930007F96980071320200FFE0F5057232020086
:10694000FFC99A3B7332020074320200021C08B580
:10695000081C0F49092A17DD0E49632A14DD0E4B66
:106960000E499A4210DD0E4B0E499A420CDD0E4B39
:106970000E499A4208DD0E4B0E499A4204DD0E4B39
:106980000E499A4200DD0E490BF094FB08BDC0464B
:106990007732020078320200E70300007932020009
:1069A0000F2700007A3202009F8601007B3202002E
:1069B0003F420F007C3202007F9698007D32020039
:1069C000D6380200F0B5071CB3B00E1C151C09A880
:1069D000391C122204F0C6FC002809D100230193BF
:1069E000314B324A196891420ADD14221A6007E0DD
:1069F00009A8391C022204F0B5FC0028EED04EE0B4
:106A000009A8002104F0E6FE002848D102A90C984C
:106A1000FFF750FF02A80BF081FB02A9021C01AB9B
:106A200009A804F0D1FD002839D11F4C09A821681C
:106A300004F0D0FE002832D11D4B2268381C1D49BD
:106A40001A600BF059FB1A4F00281ED1182D1CDCC0
:106A5000002E1AD0301C0BF061FB182815D83378A3
:106A6000002B12D0311C09A82A1C01AB04F0ACFD8C
:106A7000061E14D1104912A80BF048FB301C12A9B5
:106A800003F0C0FD23685D1925603A6823689B1AEE
:106A9000282B00DD226009A804F08FFE01E0802091
:106AA000400233B0F0BDC046002000208302000049
:106AB000142B0020813202008E320200031C70B5BC
:106AC000A0B00D1C6846191C0BF0F4FA1248134CC8
:106AD0000378002B0FD1211C012204F01BFC061EA1
:106AE00016D168460BF01AFB6946021C281CFFF7FA
:106AF00069FF301C08E068460BF010FB6946021C79
:106B0000281CFFF75FFF0020211C012204F002FC7B
:106B1000002020B070BDC046D8340020273B0200C2
:106B2000014B18687047C046182B0020014B58686D
:106B30007047C046182B0020014B98687047C0462C
:106B4000182B0020014B18607047C046182B0020FE
:106B5000014B58607047C046182B0020014B9860CD
:106B60007047C046182B0020024A13680133136097
:106B70007047C046182B0020A0DF7047A2DF704787
:106B8000A4DF7047A6DF704763DF7047F0B50B687E
:106B9000041C036001235B4203810A79037782723C
:106BA000FF2283774277C3774879621CD0773132EE
:106BB000137053709370D37088799375D37513766F
:106BC00053761071087A163210719375D375137657
:106BD0005376C879163210719375D3751376537640
:106BE000231C4A7A78331A70221CAFB08A322633BB
:106BF000FF20107001329A42FAD18A7A251C1A704D
:106C0000221CBC35B032FF2010700132AA42FAD1EA
:106C1000CA7A10261A70221CCE3210700A7B1EA867
:106C20001A70F049321C0BF06AF9A11D1EA8FFF77B
:106C3000ABFF002800D0B0E2A3791CA98B70892398
:106C4000221D5B0101300B80FFF796FF031E00D071
:106C5000A3E2A57A002D07D0311C013319AA1943EC
:106C6000013311705170937027AE00211C22301C2B
:106C70000BF04EF9012102222940681E85410901CD
:106C8000114331706D4219A929407161002118A882
:106C900001811023012018AD184328720320A87227
:106CA000023818432873012003436B73AA7322AD83
:106CB0001232281C0BF02CF9A3791DAFBB70CA4B04
:106CC000311C3B801AAB6B6004232B810423AB8106
:106CD000231C1C332B610193A088103B2A1C229794
:106CE0000293FFF74BFF002800D056E2A379082259
:106CF000BB70BE4B68813B801BAB6B6001232B815B
:106D00000123AB81231C20332B613378311C1343C7
:106D1000043A13433370231CA08814332A1C22978F
:106D20000393FFF72BFF002800D036E2A379082257
:106D3000BB70AF4B2F603B801AAB6B6004232B8181
:106D40000423AB81231C32332B6104933378688195
:106D50009343043A93433370231CA0882233311C9D
:106D60002A1C0593FFF70AFF002800D015E2A3793B
:106D70000822BB709F4B2F603B801BAB6B600123D5
:106D80002B810123AB81231C36332B61337868813F
:106D90001343043A13433370231CA0882A33311C55
:106DA0002A1C0693FFF7EAFE002800D0F5E1A3793C
:106DB0000822BB70904B2F603B801AAB6B600423A2
:106DC0002B810423AB81231C48332B610793337839
:106DD00068819343043A93433370231CA08838336B
:106DE000311C2A1C0893FFF7C9FE002800D0D4E10B
:106DF000A3790822BB70814B2F603B801BAB6B607B
:106E000001232B810123AB81231C4C332B6133786D
:106E100068811343043A13433370231CA088403322
:106E2000311C2A1C0993FFF7A9FE002800D0B4E109
:106E3000A3790822BB70724B2F603B801AAB6B604A
:106E400004232B810423AB81231C5E332B610A9323
:106E5000337868819343043A93433370231CA088AA
:106E60004E33311C2A1C0B93FFF788FE002800D0FC
:106E700093E1A3790822BB708A235B013B801BABA3
:106E80006B6001232B810123AB81231C62332B61B7
:106E900033782F601343043A13433370231C688103
:106EA0005633A088311C2A1C0C93FFF767FE00287C
:106EB00000D072E1A3790822BB70524B2F603B8057
:106EC0001AAB6B6004232B810423AB81231C743326
:106ED0002B610D93337868819343043A9343337065
:106EE000231CA0886433311C2A1C0E93FFF746FE36
:106EF000002800D051E1A3790822BB70424B2F60DB
:106F00003B801BAB6B6001232B810123AB81231CD6
:106F100078332B61337868811343043A1343337019
:106F2000231CA0886C33311C2A1C0F93FFF726FE0C
:106F3000002800D031E1A3791DAFBB70334B22ADE7
:106F40003B801AAB6B6014232B81AB81231C002286
:106F50008A3327AE2B61109333786A8108329343CA
:106F6000043A93433370231CA0887A33311C2A1CC3
:106F700022971193FFF702FE002800D00DE1A379BC
:106F80000822BB70224B68813B801BAB6B600123E6
:106F90002B810123AB81231C9E332B613378311C61
:106FA0001343043A13433370231CA08882332A1CF2
:106FB00022971293FFF7E2FD002800D0EDE0A379BD
:106FC0000822BB70134B2F603B801AAB6B60082309
:106FD0002B810823AB81231CB0332B6113933378AF
:106FE0001AE0C046363302003311000034110000AD
:106FF000371100003811000041110000421100005B
:107000003911000049110000501100004311000027
:10701000441100004511000068819343043A9343F2
:107020003370231CA088A033311C2A1C1493FFF753
:10703000A5FD002800D0B0E0A3790822BB70584B12
:107040002F603B801BAB6B600C232B81AB81231C1F
:10705000BC332B61337868811343043A1343337094
:10706000231CA088A833311C2A1C1593FFF786FD2A
:10707000002800D091E0A3790822BB70494B2F6013
:107080003B801AAB6B6001232B810123AB81231C56
:10709000CE332B611693337868819343043A93433C
:1070A0003370231CA088BE33311C2A1C1793FFF7B2
:1070B00065FD002871D1A3790822BB703A4B2F607F
:1070C0003B801BAB6B6001232B810123AB81231C15
:1070D000271CCF332B61337868811343043A134361
:1070E0003370C637A088311C2A1C3B1CFFF746FDB5
:1070F000002852D12D4B029A02215A60039A18702F
:107100009A60019ADA6001221A745A1CD177059AA2
:1071100001315A62069A9A62049ADA621A1C303273
:1071200011700B9A01315A630C9A9A630A9ADA63C6
:107130001A1C40321170089A05215A64099A9A64FF
:10714000079ADA641A1C50321170119A01315A658B
:10715000129A9F679A65109ADA651A1C603211704C
:10716000149A01315A66159A9A66139ADA661A1CAD
:1071700070321170179A01315A67169ADA671A1C21
:10718000803211701A1C0E990832D1671A1C0F999F
:10719000883211600D9A8C331A602FB0F0BDC04652
:1071A000461100004711000048110000242B002068
:1071B000F0B50D1C041C002189B020480E01375C7D
:1071C00001909F4234D102ABDA800023934209DA66
:1071D000EF5C0198BC460F01C7196046FF68F85480
:1071E0000133F3E7019B00219819476802AB9A1D10
:1071F00038882B1CFFF7C4FC011E1DD12689104BBB
:1072000008309E4218D0A37A002B15D004AC201C65
:1072100010220AF07DFE3B88301C23800123A370DE
:1072200002AB0633211CA360E560FFF7ABFC03E073
:1072300001310A29C1D1052009B0F0BD242B00205D
:10724000FFFF000070B5244DA6B001AE14226B46BE
:10725000311C281C04F01DF9204906A80AF056FF2D
:10726000002006A903F0CEF90024009BA3420AD90E
:10727000325D1B4906A80AF01DFF002006A903F095
:10728000C1F90134F1E7174906A80AF03FFF06A942
:10729000002003F0B7F9009A134906A80AF00AFF84
:1072A00006A9002003F0AEF9104B311C1868142217
:1072B0000523FFF77DFF009B132B0BD80C4B1868A1
:1072C00005F0B8FE281C04F078FA002009490122D4
:1072D00004F020F826B070BD2C37002046330200A1
:1072E000C4320200263B02004D330200503700201A
:1072F00084330020273B020070B5061C1F48A0B055
:107300000578002D27D11E49012204F003F8041E40
:1073100068461BD11B490AF0F9FE6946201C03F0A0
:1073200071F901221848194904F01CF8021E05D011
:10733000684617490AF0EAFE201C19E0154B164969
:107340001E60164B186805F02DFE0CE014490AF07B
:10735000DDFE281C04E0684612490AF0D7FE002032
:10736000694603F04FF968460F490AF0CFFE002046
:10737000694603F047F9002020B070BDD8340020E2
:10738000273B0200993202002C3700208132020094
:10739000B43202005037002044040000843300203F
:1073A0005A330200DE3202006B3302007FB56B46B7
:1073B000041C0733101C0E22197001216A4411802D
:1073C00008285AD808F0F6FA05590A1B1428593625
:1073D00021001878611CC877A08A04E0211C187865
:1073E00036310870608D0021FFF7CAFB051C45E0AF
:1073F000211C18784C3108700234E08FF3E7211C0F
:10740000187862310870563404E0211C18787831FD
:1074100008706C342088E6E7211C18789E310870CB
:107420001C3908880021FFF7ABFB051C201CFFF767
:1074300063FF23E0211C1878CF31087009390888D0
:107440000D260021FFF79CFB00236E443370051CC2
:10745000FFF76CFB3070FFF76FFBC0B2002802D063
:107460003378803B3370201C311C01220723FFF747
:107470009FFE0020FFF772FB00E00025281C04B0EF
:1074800070BD08B5FFF770FB08BD0000F0B5A5B0F2
:10749000131C6A460824023214800027062B45D1AB
:1074A000031C0C78BC331C7000240D5D02ABE5544A
:1074B0000134082CF9D1251C0F5D01AE083D0134C3
:1074C00077550C2CF7D10C1C011CA831051C088821
:1074D0000021FFF755FB3278737812061B04D2188F
:1074E000B378F6781B02D3189E19321C1149071C79
:1074F00004A80AF0DFFD04A9002003F083F8301C83
:10750000FFF720FB0C4E306805F094FD0B4900227C
:10751000306805F047FD0020094A011C06F0D0FF45
:10752000281C211C08220623FFF742FE381C25B028
:10753000F0BDC04677330200DC330020AB2A0000E8
:10754000E9670100F0B5CA88838AA1B0041C0D1C4C
:107550008E1D9A4210D1338B012B0DD10368002B65
:107560000AD06B46002201911A70B17EFFF71EFF10
:10757000201C694623689847EA88638D9A4211D196
:10758000338B012B0ED12368002B0BD06B460222CC
:1075900001951A70B17E201CFFF708FF201C694678
:1075A00023689847A31CEA88DB8F9A4211D1338B5A
:1075B000012B0ED12368002B0BD06B4604220195C2
:1075C0001A70B17E201CFFF7F1FE201C694623686B
:1075D0009847231C5633EA881B889A4211D1338B73
:1075E000012B0ED12368002B0BD06B460322019593
:1075F0001A70B17E201CFFF7D9FE201C6946236853
:107600009847231C6C33EA881B889A4211D1338B2C
:10761000012B0ED12368002B0BD06B46082201955D
:107620001A70B17E201CFFF7C1FE201C694623683A
:107630009847231C8233EA881B889A4211D1338BE6
:10764000012B0ED12368002B0BD06B460522019530
:107650001A70B17E201CFFF7A9FE201C6946236822
:107660009847328B294968460AF024FD6946002074
:1076700002F0C8FF26490C2268460AF01BFD0020D4
:10768000694602F0BFFF0027328B97420CDA0137C0
:10769000EB19DB7F68461F493A1C0AF00BFD69466F
:1076A000002002F0AFFFEFE7231CA83331881B88CE
:1076B000994211D10C2A0FD12368002B0CD0291C20
:1076C0006B46063A2031201C1A700195FFF7DEFE4A
:1076D000201C694623689847231CC633EA881B8808
:1076E0009A4211D1338B012B0ED12368002B0BD082
:1076F0006B46072201951A70B17E201CFFF756FEDB
:107700002368201C6946984721B0F0BD8F330200E2
:10771000A5330200BF33020008B50B88112B05D03A
:10772000502B07D0102B07D18B8801E001235B423F
:10773000038101E0FFF706FF08BD73DF704740DFFC
:107740007047000070B5051C0C1C161CA2B0231C51
:107750002A1C02A80C490AF0ADFC02A9002002F084
:1077600051FF321C02A809490AF0A4FC02A900201A
:1077700002F048FF009602A805492A1C231C0AF0C3
:1077800099FC22B070BDC046CD3302001A3402000D
:10779000F433020000B5A1B0684609490AF0B6FC0E
:1077A0006946002002F02EFF064806F04FFEBFF3A8
:1077B0004F8F054A054BDA60BFF34F8FFEE7C04697
:1077C0001E340200881300000400FA0500ED00E0FA
:1077D000031C00B50A1CA1B0191C0B48FFF7B2FF2F
:1077E00068460A490AF092FC6946002002F00AFF46
:1077F000074806F02BFEBFF34F8F064A064BDA60B0
:10780000BFF34F8FFEE7C046EFBEADDE4834020047
:10781000881300000400FA0500ED00E008B54F21D0
:10782000014AFFF78FFF08BD8134020010B50478CC
:10783000A0B0002C07D1054968460AF067FC201C5F
:10784000694602F0DFFE20B010BDC0468B34020056
:1078500010B5A6B001ACFEF77DFE201C002114225D
:107860000AF056FBA023201C2382FFF766FF041EAC
:1078700004D07521094AFFF765FF0CE0084906A806
:107880000AF044FC06A9201C02F0BCFE1D200A21BF
:10789000FF2201F075FE26B010BDC0468134020003
:1078A000CC34020010B5041C0088A0B010380928A0
:1078B0003AD808F07FF8051731393939393939287C
:1078C0001A4968460AF022FC6946002002F09AFE36
:1078D0001D2001F03DFE1D2001F024FEA288144B66
:1078E0001A8021E0684613490AF010FC694600201E
:1078F00002F088FE1D2001F02BFE002001F0BCF9F3
:10790000FFF7A6FF10E0A479002C0DD168460A49C4
:107910000AF0FCFB201C04E0684608490AF0F6FB6C
:107920000020694602F06EFE20B010BDDD3402007A
:1079300004200020F6340200123502003735020020
:1079400008B5002A04D0101CFC21024AFFF7FAFEF9
:10795000002008BD8134020010B5041C06F096FA20
:10796000201CFFF79FFF201C04F0C6FF0248211CCB
:10797000FFF7D2FE10BDC046E033002008B505F089
:1079800049FD08BD10B50C1CA0B0444968460AF07A
:10799000BDFB0020694602F035FE2078082877D824
:1079A00008F008F805764D162B5F656B3C003C4BE4
:1079B0003C490133DA7F68460AF07CFB69460020C7
:1079C00002F020FE00F056FE3A21002860D00FE0C1
:1079D000334B354962331A7868460AF06BFB6946C7
:1079E000002002F00FFE00F0D5FE002850D0482104
:1079F000FF312E4AFFF7A6FE4AE0294B2C494C33B3
:107A00001A7868460AF056FB6946002002F0FAFD33
:107A100000F0C8FFA72100283AD020E0204B2549DC
:107A200078331A7868460AF045FB6946002002F070
:107A3000E9FD00F09BFD5621002829D0D8E7184B1E
:107A40001D4936331A7868460AF034FB694600202F
:107A500002F0D8FD00F026FF002819D0AE21490021
:107A6000C7E70F4B68469E331A7814490AE00C4B5F
:107A70006846BC331A78124904E06846084B11493D
:107A8000CF331A780AF016FB0020694602F0BAFDDF
:107A9000002001F0F1F820B010BDC0468C35020086
:107AA000E03300209D350200C83502008134020019
:107AB000F2350200203602004B3602007536020015
:107AC0009E360200C936020038B5214C2368251CB9
:107AD000002B0AD11F4B1B78002B34D100F012FE73
:107AE000002830D102232B602DE0012BFAD0022B8D
:107AF00009D1184B1B78002B25D100F093FE0323EE
:107B000000280BD01FE0032B0AD1124B1B78002B4F
:107B100019D100F00FFF002815D10423236012E0D3
:107B2000042B05D100F086FF05230028F6D00AE0DB
:107B3000052B08D100F062FD051E04D1064B186824
:107B400005F078FA2560002001F096F838BDC046AF
:107B5000C42B00208C330020D034002008B5074B04
:107B60000B211868002205F01DFA002804D0EB2133
:107B7000034A4900FFF7E6FD08BDC046D0340020A7
:107B800081340200C0230249024ADB00D150704711
:107B90003546526E0000014030B5A1B0FEF7D8FA6C
:107BA000674968460AF0B2FA6946002002F02AFDE9
:107BB000FEF7FEFA634968460AF0A8FA6946002013
:107BC00002F020FDFEF708FB5F4968460AF09EFAC6
:107BD0006946002002F016FDFEF7DCFD5B496846B1
:107BE0000AF094FA6946002002F00CFDFEF762FBF1
:107BF000574968460AF08AFA6946002002F002FDF9
:107C0000FEF794FB534968460AF080FA6946002063
:107C100002F0F8FCFEF7D6FB4F4968460AF076FA08
:107C20006946002002F0EEFCFEF7DEFB4B49684699
:107C30000AF06CFA6946002002F0E4FCFEF714FC3E
:107C4000474968460AF062FA6946002002F0DAFC09
:107C5000FEF738FC434968460AF058FA69460020A6
:107C600002F0D0FCFEF776FC3F4968460AF04EFA77
:107C70006946002002F0C6FCFEF792FC3B496846CC
:107C80000AF044FA6946002002F0BCFCFEF7B2FCA0
:107C9000374968460AF03AFA6946002002F0B2FC19
:107CA000FEF7F6FC334968460AF030FA69460020D0
:107CB00002F0A8FCA02280212F4BD2054905D1500B
:107CC00080218905D150002000F084FF2B4C2C48E6
:107CD000211C012203F01EFB051E07D1294968461D
:107CE0000AF014FA281C694602F08CFC211C0122BF
:107CF000002003F00FFBFFF7ABFD06F077FCFFF76A
:107D00001EFD002804D0F3211F4A4900FFF71AFD89
:107D100001F06EF9041E3C2CEFDD01F0D2F8682072
:107D200001F032F90F20FEF719FF68461749221CAF
:107D30000AF0C0F96946002002F064FCDDE7C046A5
:107D4000F536020006370200113702001E37020026
:107D5000323702003F3702004F370200643702001B
:107D6000753702008F3702009E370200B0370200DD
:107D7000C2370200D53702000C050000273B020085
:107D8000D83400209932020081340200E837020022
:107D90000123C046C046C046C046C046C046C04695
:107DA000C046C046C046C046C046C046C046013B6D
:107DB000002BEED170470000002008B5011C021C0A
:107DC00003F00AFF064BEC221860A0230321DB0519
:107DD000D20099508021A1224904D200995008BDB7
:107DE000C82B002080B5021C6846CB1DDB08DB00D9
:107DF000C31A00AF9D46044B89B218686B4603F066
:107E000047FFBD4680BDC046C82B0020B0B5031C4F
:107E10006846CA1DD208D200821A00AF95460C1CD3
:107E200068466C44A04203D0FF2505700130F9E795
:107E3000034889B2006803F02BFFBD46B0BDC046C1
:107E4000C82B002037B5094C6B46DD1D281C0121CD
:107E5000FFF7DCFF2B78FF2B04D0013CFFF798FFE6
:107E6000002CF1D1601E8441E0B23EBD20A107008C
:107E700007B5A1238021A0224904DB00D205D150FF
:107E80006B460121D81DFFF7C1FF07BD13B5A02226
:107E90008021094BD2054904D1506B460121D81DE0
:107EA000FFF7B4FFFFF7CEFF041E02D1FFF7E0FF9C
:107EB00000E00124201C16BD0C050000F7B5071CCE
:107EC0000E1C0F4D01AC201C0121FFF79FFF2378F2
:107ED000FF2B0DD023780020FE2B0FD1381C311C36
:107EE000FFF794FF201C0221FFF790FF012005E01F
:107EF000013DFFF74DFF002DE4D1EBE7FEBDC0468D
:107F0000A0860100F7B5071C0E1CFFF79BFF041E9F
:107F10001CD001AD281C01212E700124FFF762FF47
:107F2000FD2E13D08021381C8900FFF75BFF281C31
:107F30000221FFF76BFF211C281CFFF767FF1F239F
:107F40002C781C40053C63425C41E4B2201CFEBD21
:107F500030B543B285B0041C0D1C002B07DA372066
:107F60000021FFF7F5FF01283AD87F231C400C2C95
:107F70000ED1402302A8234303702B0E43702B0C19
:107F800083702B0AC37005719523002C0FD00AE073
:107F9000002CEED0FFF76CFFFFF778FF031CFF20EB
:107FA000002B1DD0E5E78723082C00D0863B062157
:107FB0004371FFF717FF6B46DD1D0C2C03D1281C06
:107FC0000121FFF723FF0A24281C0121FFF71EFFD0
:107FD000287843B2002B03DA013CE4B2002CF3D141
:107FE00005B030BD08B5044B1A78044B1A7003F085
:107FF00007FF012008BDC046082000208133002073
:10800000F0B5594C85B0A24201D0A34203D1002063
:108010000A9B1860A6E00E1C0390111C181C1C1C67
:10802000151C07F0D1FC0290301C09F0EDFC021C7D
:108030000B1C00204D4908F023FA00900191281CE8
:1080400009F0E2FC009A019B08F058FE07F09CFE44
:10805000061C201C09F0D8FC009A019B08F04EFE7B
:1080600007F092FE039B071C002B01D1360107018C
:10807000029809F0C9FC00223D4B041C0D1C07F0BE
:108080003BFE00281DD0301C09F0BEFC394A061CFE
:108090000F1C201C291C384B06F038FB374A009077
:1080A0000191374B301C391C08F028FE354A364BFD
:1080B000041C0D1C301C391C08F020FE009A019B8A
:1080C00043E0201C291C314A314B07F015FE0028E3
:1080D0000ED0301C09F098FC2E4A2F4B08F00EFEF3
:1080E000041C381C0D1C09F08FFC264A2B4B2CE07D
:1080F000201C291C2A4A2B4B07F0FEFD00280ED01D
:10810000301C09F081FC284A284B08F0F7FD041CBC
:10811000381C0D1C09F078FC254A264B15E0201C64
:10812000291C254A254B07F0E7FD002817D0301CF5
:1081300009F06AFC224A234B08F0E0FD041C381CBD
:108140000D1C09F061FC204A204B08F0D7FD021CF1
:108150000B1C201C291C09F06BF807F015FE0A9B6C
:108160001860012005B0F0BDFFFF0000002079403D
:108170000000E03F666666666666F63FC58F31774B
:108180002D219F3F5839B4C876BEAF3F85EB51B81B
:108190001E85E33FC7BAB88D06F0963F76BE9F3F77
:1081A0009A9999999999E93F2D431CEBE2368A3FB8
:1081B0004BC8073D9B558F3FCDCCCCCCCCCCF43FAE
:1081C000B2632310AFEB573FD2FBC6D79E59523F45
:1081D00037B56B460C1CD91D0F23012218400F4BDD
:1081E0000F4D9B78184308702878131C4000C0B2CC
:1081F00003F040FE002804D1FF220A4B00201A7031
:108200000AE001232878211C40001843C0B21A1C40
:1082100003F030FE0028EFD03EBDC046082000200D
:1082200081330020D434002008B5034B011CD878DA
:10823000FFF7CEFF08BDC046082000200F2210B572
:108240001040104AA2B0927801AB10430E4A187049
:10825000107859704000191CC0B20222012303F0AB
:1082600009FE041E0AD1FF22084B094902A81A7010
:1082700009F04CFF201C02A902F0C4F9201C22B016
:1082800010BDC0460820002081330020D4340020D7
:10829000F337020008B5034B03211878FFF7CEFF30
:1082A00008BDC046CC2B0020F7B56B460F4DDC1D3A
:1082B000071C0E1C2879211CFFF78AFF002814D008
:1082C00023781022002F01D0134300E093430322B0
:1082D00023702378164093431E430520267006F032
:1082E000B5F828792178FFF7A9FFFEBD0820002006
:1082F00008B56523012908D00E23002905D00229DD
:1083000002D1C9235B0000E000231360FFF7CCFF1C
:1083100008BD000070B50024234DA0B02C70FFF7FD
:1083200061FE052006F092F82048FFF77DFF061E4B
:10833000A64209D11E49684609F0E8FE301C69468C
:1083400002F060F91B482DE0052006F07FF8FFF7EA
:10835000A1FF061E09D11849684609F0D7FE301C56
:10836000694602F04FF915481CE0052006F06EF84A
:108370002878134A431E9841124BC0B259780832EC
:10838000FFF7B6FF051E09D10F49684609F0BEFE8A
:10839000281C694602F036F90C4803E0052006F077
:1083A00055F8201C20B070BD5737002055370020ED
:1083B00004380200222000001138020023200000AF
:1083C00008200020CC2B00201F38020024200000B1
:1083D00073B56B460D1CD91D0F230122114E184099
:1083E000B378184308703078131C4000C0B203F013
:1083F00041FD0D4C002803D1FF23002023700FE026
:1084000000231420237006F021F801233078291C62
:1084100040001843C0B2022203F02CFD0028EBD02C
:1084200076BDC04608200020D434002038B5031C97
:10843000064C0D1C607B191CFFF7CAFF002803D0F7
:10844000A07B291CFFF7C4FF38BDC04608200020D0
:10845000F0B50024A5B00390FFF75CFF114D124E5C
:10846000291C301C2C703470FFF7E0FF071EA74258
:1084700009D10E4904A809F049FE381C04A902F0EC
:10848000C1F80B480CE00B4B0399187832782B7825
:10849000009109498968FFF7B3FD084B9870201CCB
:1084A00025B0F0BD54370020563700202F38020089
:1084B000252000005737002008200020CC2B00206A
:1084C000002337B5051C01AC211C03206370237009
:1084D00000F030FC62782178074809F0BFFD617830
:1084E0000648297009F0BAFD052005F0AFFF00200D
:1084F0002856C043C00F3EBD3E3802006638020019
:1085000073B5002401AE051C311C02207470347058
:1085100000F010FC0F22717806480B0131781140F1
:108520001943298009B209F099FD052005F08EFF55
:10853000201C76BD7738020010B5A0B0041C094994
:10854000684609F0E3FD6946002002F05BF8002070
:1085500000210122044B186159611C601A7620B079
:1085600010BDC046893802009033002030B5A1B05C
:108570001B49684609F0CAFD0020694602F042F82E
:10858000184C00222368251C7833187800232261B8
:108590006361012303402376400903280FD807F0C5
:1085A00009FA02040A0C104800E01048FEF756F9D8
:1085B000A860E96008E00E48F8E70E48F6E70D48C5
:1085C000FEF74CF9A060E16068460B4909F09EFD9A
:1085D0006946002002F016F8002021B030BDC046E8
:1085E00098380200903300208096980040420F0097
:1085F000A086010010270000B73802007FB56B4647
:10860000D81DFFF75DFF0B49021C029003A809F07B
:1086100051FD03A80849FEF751FA084B02A90422AC
:1086200018680823FEF7C4FD0290FEF71FF900202A
:1086300007B000BDD538020081320200903300201F
:1086400010B5A0B0041C0949684609F05FFD6946F1
:10865000002001F0D7FF002000210122044B186107
:1086600059611C601A7620B010BDC046483902001E
:10867000B034002030B5A1B01B49684609F046FD72
:108680000020694601F0BEFF184C00222368251C1B
:108690000133D87F002322616361012303402376E5
:1086A000400903280FD807F085F902040A0C104886
:1086B00000E01048FEF7D2F8A860E96008E00E4834
:1086C000F8E70E48F6E70D48FEF7C8F8A060E1604D
:1086D00068460B4909F01AFD6946002001F092FF37
:1086E000002021B030BDC04657390200B034002010
:1086F0008096980040420F00A086010010270000DD
:108700008639020030B593B002A801F0DDFE041EE8
:108710001DD103AD291C0298FEF718F9FEF700FAE7
:1087200008A9FEF713F9022208AB0A4900950DA823
:1087300009F0C0FC08490DA8FEF7C0F9074B02A9D3
:1087400018680422231CFEF733FDFEF78FF8201C67
:1087500013B030BDA439020081320200B0340020D1
:1087600010B5A0B0041C0949684609F0CFFC694661
:10877000002001F047FF002000210122044B186176
:1087800059611C601A7620B010BDC0461E3A020026
:108790000837002030B5A1B01B49684609F0B6FC87
:1087A0000020694601F02EFF184C00222368251C8A
:1087B000623318780023226163610123034023762A
:1087C000400903280FD807F0F5F802040A0C1048F6
:1087D00000E01048FEF742F8A860E96008E00E48A3
:1087E000F8E70E48F6E70D48FEF738F8A060E160BC
:1087F00068460B4909F08AFC6946002001F002FF37
:10880000002021B030BDC0462C3A020008370020BD
:108810008096980040420F00A086010010270000BB
:10882000513A020010B58CB001A8FFF711FE041EEA
:1088300015D1019802A9FEF789F802AA094907A8EB
:1088400009F038FC084907A8FEF738F9074B01A9D9
:10885000186804220323FEF7ABFCFEF707F8201C80
:108860000CB010BDAB390200813202000837002085
:1088700010B5A0B0041C0949684609F047FC6946D8
:10888000002001F0BFFE002000210122044B1861EE
:1088900059611C601A7620B010BDC046DA3A020059
:1088A000B833002030B5A1B01B49684609F02EFC52
:1088B0000020694601F0A6FE184C00222368251C02
:1088C0003633187800232261636101230340237645
:1088D000400903280FD807F06DF802040A0C10486D
:1088E00000E01048FDF7BAFFA860E96008E00E4814
:1088F000F8E70E48F6E70D48FDF7B0FFA060E1602D
:1089000068460B4909F002FC6946002001F07AFE36
:10891000002021B030BDC046E83A0200B833002044
:108920008096980040420F00A086010010270000AA
:108930000B3B020010B58CB001A801F0E1FD041E54
:108940000FD1019802A9FEF701F8074902AA07A86A
:1089500009F0B0FB07A80549FEF7B0F8201CFDF7A9
:1089600085FF201C0CB010BDAB3902008132020023
:1089700010B5A0B0041C0949684609F0C7FB694658
:10898000002001F03FFE002000210122044B18616D
:1089900059611C601A7620B010BDC046943B02009D
:1089A0006033002030B5A1B01B49684609F0AEFB2A
:1089B0000020694601F026FE184C00222368251C81
:1089C0004C3318780023226163610123034023762E
:1089D000400903280FD806F0EDFF02040A0C1048E6
:1089E00000E01048FDF73AFFA860E96008E00E4893
:1089F000F8E70E48F6E70D48FDF730FFA060E160AC
:108A000068460B4909F082FB6946002001F0FAFD37
:108A1000002021B030BDC046A63B020060330020DC
:108A20008096980040420F00A086010010270000A9
:108A3000CE3B020010B58CB06B469C1D201CFFF78E
:108A40005FFD208802A9FDF781FF02AA07A805495A
:108A500009F030FB07A80449FEF730F800200CB0FD
:108A600010BDC046AB3902008132020000B5A1B092
:108A700068460A4909F04AFB6946002001F0C2FD38
:108A80000122074B03211A700022064B1D201A7089
:108A9000803200F091FD21B000BDC046673C02006D
:108AA000D02B0020D833002000B5A1B068460A4979
:108AB00009F02CFB6946002001F0A4FD0122074BC0
:108AC00003215A700022064B1D201A70803200F0DC
:108AD00073FD21B000BDC0467F3C0200D02B0020BA
:108AE000D833002000200122024B1870024B1A706C
:108AF0007047C046D8330020B033002010B5041CA6
:108B0000A0B0002802D0FFF7B1FF0CE0074968468B
:108B100009F0FCFA201C694601F074FD044B1D208D
:108B20001C7000F015FD20B010BDC046933C020043
:108B3000D02B002010B5041CA0B0002802D0FFF7F5
:108B4000B3FF0CE00749684609F0E0FA201C6946CB
:108B500001F058FD044B1D205C7000F0F9FC20B0C2
:108B600010BDC046AC3C0200D02B002070B5802563
:108B70002D01A0B0061C0C1C284202D00020FFF7DB
:108B8000BDFF2C4201D0FFF771FF8025AD032E42BF
:108B900002D00020FFF7CEFF2C4201D0FFF784FF68
:108BA000630610D50949684609F0B0FA0020694605
:108BB00001F028FD684600F0F7FA002803D04B21A9
:108BC000034AFEF7BFFD20B070BDC046C13C0200A5
:108BD000DA3C0200012070B5A026A225011CF60592
:108BE000ED00204C72592378D20AA2B091439942E9
:108BF00002D05840FFF782FF0120011C72596378B0
:108C0000520D9143994202D05840FFF793FF164B03
:108C10001D78002D23D1154902A809F077FA281CE8
:108C200002A901AD01F0EEFC281C00F0B1FA002809
:108C300011D12878FDF78CFF21782A7801230029AB
:108C400000D1637802A80A4909F034FA02A9002089
:108C500001F0D8FC03E06821064AFEF773FD22B05C
:108C600070BDC046D02B00208C330020193D02007F
:108C7000343D0200DA3C0200002809D08021A12303
:108C8000A022DB00D205C905D1500122014B1A7088
:108C90007047C046B033002008B5031C0A1C0649C3
:108CA0000878191C012303F0E5F8002801D0002002
:108CB00000E0024808BDC046D22B00200130000071
:108CC00010B5104B041C187801230A1C1843211CF2
:108CD00003F0D0F8002812D00423C046C046C04696
:108CE000C046C046C046C046C046C046C046C04654
:108CF000C046C046C046013B181EEED100E0024807
:108D000010BDC046D22B00200230000007B5074B33
:108D1000400018706B46D81D822301210370FFF7B5
:108D2000BBFF002800D002480EBDC046D22B002059
:108D30000330000013B50B2818D86A46031CD01D59
:108D40001F225B00524213439E320C1C1340012130
:108D50000370FFF7A1FF002801D0054807E0201CA1
:108D60000221FFF7ADFF0028F7D100E0014816BD52
:108D70000530000004300000F7B56B46141C0122DA
:108D8000184F0D1CD91D08703878131C4000C0B254
:108D900003F070F8061E01D13C210CE00123387865
:108DA000E2B240001843C0B2291C03F063F8042368
:108DB000061E04D142210C4AFEF7C4FC10E0C04656
:108DC000C046C046C046C046C046C046C046C04673
:108DD000C046C046C046C046C046013B002BEED14F
:108DE000301CFEBD583700205E3D020008B5012250
:108DF000FFF7C2FF08BD13B56B46DC1D0023211C25
:108E00002370FFF7F3FF0020205616BD98B5131C02
:108E10006C460833DB08DB00E31A00AF18709D4690
:108E20000020904204DA0130441E0C5D1C54F8E727
:108E3000094901320878D2B24000191CC0B201239E
:108E400003F018F8041E03D18621044AFEF77AFCC9
:108E5000BD46201C98BDC046583700205E3D02002C
:108E600007B56B46D9710733191C0122FFF7CEFFF6
:108E70000EBDF0B585B0019302ABDD1D00230C1CC7
:108E8000291C061C171C2B70FFF7B0FF002810D000
:108E90000121B940E41B019B01340139A340A140E9
:108EA0002F78DCB28F4321403943301C2970FFF703
:108EB000D7FF05B0F0BD08B5131C0122FFF7D9FF9D
:108EC00008BD08B56B2007210122FFF7F4FF08BD9C
:108ED00008B5021C04216B20FFF7EDFF08BD08B5A3
:108EE000021C05216B20FFF7E6FF08BD08B5002135
:108EF000031C04221E20FFF7BCFF08BD08B5021C9E
:108F000005216C20FFF7D7FF08BD08B5021C04211E
:108F10006C20FFF7D0FF08BD08B5021C03216C20B0
:108F2000FFF7C9FF08BD08B5021C02216C20FFF73E
:108F3000C2FF08BD08B5021C01216C20FFF7BBFF72
:108F400008BD08B5021C00216C20FFF7B4FF08BD66
:108F500008B50221031C03221D20FFF78AFF08BD6C
:108F600008B5021C03211D20FFF7A5FF08BD08B5A9
:108F700038204021FFF774FF08BD08B51F200F21DE
:108F8000FFF76EFF08BD000008B5184B1870FFF71B
:108F900098FF142005F05AFA0020FFF7A0FF0020E8
:108FA000FFF796FF0020FFF7A9FF0020FFF7ADFFB6
:108FB0000020FFF7B1FF0120FFF7B5FF0120FFF709
:108FC000B9FF0120FFF7BDFF0120FFF7C9FF012016
:108FD000FFF7BEFFFFF7CBFFFFF7CFFF0320FFF741
:108FE00085FF0120FFF77BFF08BDC04658370020F2
:108FF00008B53A20FFF7FFFEC0B208BDB0B5131C9C
:109000006C460833DB08DB00E31A00AF9D466C4674
:1090100000232070D8B2904204D2CD5CE018457095
:109020000133F7E7064B211C1878012302F022FFD9
:10903000002801D0002000E00248BD46B0BDC04677
:10904000D32B00200140000073B56B46141C012295
:10905000154ED9710733051C191C3078131C02F00A
:1090600009FF00281BD001233078291C1843221C3B
:1090700002F000FF002814D00423C046C046C046BA
:10908000C046C046C046C046C046C046C046C046B0
:10909000C046C046C046013B181EEED102E0034860
:1090A00000E0034876BDC046D32B002001400000FD
:1090B0000240000013B501AC201C0C210222FFF776
:1090C000C3FF002801D00B4813E0202263780C2056
:1090D0009343211C1E3A6370FFF790FF0028F2D1E2
:1090E00020706070211C1A300222FFF787FF0028D1
:1090F000E9D116BD0440000037B5234B400001AC58
:1091000018701821201C0222FFF79EFF002801D0B2
:109110001E4837E0201C08210222FFF795FF002897
:10912000F6D120706070211C06300222FFF766FF26
:109130000028EDD120706070211C0A300222FFF758
:109140005DFF0028E4D17C23FF251830211C02227A
:1091500023706570FFF752FF0028D9D197230C3098
:109160002370211C3B3B02226370FFF747FF00285E
:10917000CED12070211C143002226570FFF73EFF13
:109180000028C5D13EBDC046D32B002003400000BF
:1091900008B504210222FFF757FF002800D001483C
:1091A00008BDC0460540000037B501AD041C1A21BA
:1091B000281C0222FFF748FF00281CD101222B782F
:1091C000134201D0207013E002210B420AD1042285
:1091D000134201D021700BE0190701D5032306E0EB
:1091E000D90601D5227003E09B0601D50523237023
:1091F000FFF760FF00E001483EBDC04606400000AA
:109200000423C046C046C046C046C046C046C0460D
:10921000C046C046C046C046C046C046C046013BE8
:10922000002BEED17047000007B5094A01AB18705A
:1092300059701078191C0222012302F01BFE00282D
:1092400003D0FFF7DDFF002000E002480EBDC0465E
:10925000D42B00201640000010B50F4C6378002B73
:1092600017D1FF21400020700320A170FFF7DCFF21
:10927000011E01D009480DE00220FFF7D5FF011EB5
:10928000F8D10120FFF7D0FF0028F3D1012363704C
:1092900000E0034810BDC046D42B0020074000006A
:1092A00006400000002170B500781F4BCAB25C1860
:1092B00065781C1C854200D1101C01310429F4D1B1
:1092C000421CD100635C012B08D161184B78002B44
:1092D00001D1CB7800E000234B701EE0022B21D19E
:1092E00063189D785978002D06D0DE780431B1429C
:1092F00008DB5E70002103E0042903DC01215D70BE
:1093000099700AE0D300E31859780426002D00D1A3
:10931000F836D3007118E3185970D200A3185978A1
:1093200000F0C0FA70BDC0461C200020F8B5002334
:10933000234CDDB2E21852785F1C82423CD1061CFD
:10934000002000F0CBFAFB00E318586803F072FE2F
:10935000032D0DD0691C63185B7865196B704B1C6D
:10936000CA00DB00A218E31821CB21C2CDB2EFE77F
:10937000FF2300250121201C2371631CDD77A31C22
:10938000DD77E31CD977231DDD770E4A243003F007
:10939000E3FD2378201C013B237000F07FF92B1C98
:1093A000221C3832995CB14202D1FF21D15406E02F
:1093B0000133042BF4D102E03B1E042BB8D1F8BDDD
:1093C0001C200020A5920100F0B5051CA5B001915C
:1093D00003921E1CFFF7AAFF2B1CA0220321C133FE
:1093E000FF33D2059B0099500123AB400027394938
:1093F0005350394C7A1CE3195B780292FF2B62D1EF
:10940000012E04D13220019B4343019308E06420E4
:10941000019B5843039B9908490006F065FB0190A6
:10942000002000F05BFA6A46E7197D702378127B12
:1094300001332370029BDB00E654E318DA7000234B
:10944000221C3832995CDFB2FF2901D1D55403E0E8
:109450000133042BF4D11F1C201C00F01FF900283D
:1094600004D0281CFFF762FF1C4C30E0029B0199DE
:10947000DB00E318CA0302934B0C00211848383470
:1094800080185941174A002306F05EFC029B011C1C
:10949000E219586803F086FD041EE2D12B1C1C3B28
:1094A000012B02D80120FFF7E7FB012000F016FA9C
:1094B00004A80D492A1C331C08F0FCFD04A9002057
:1094C00001F0A0F803E0029F042F92D1074C201C6A
:1094D00025B0F0BD0C0500001C2000200560000038
:1094E000DC050000B80B0000AE3D02000360000088
:1094F00038B5094B1D1C2C331C1C0C35281C0121B4
:10950000064A03F029FD002803D10835A542F5D10C
:1095100000E0034838BDC0461C200020A592010091
:109520000460000010B5041CFFF700FF0120FFF7E6
:10953000A3FB231CA02203210120C133FF33D2054A
:109540009B009950A123A040DB00D050002010BD0B
:1095500010B5041CFFF7EAFE0020FFF78DFB012089
:10956000231CA0220321A040C133FF33D2059B005E
:109570009950024BD050002010BDC0460C05000091
:1095800070B5041C0E1C151CFFF7D0FE231CA02276
:109590000321C133FF33D2059B0099500123181CCE
:1095A000A04004495050311C2A1C201CFFF70CFF1E
:1095B00070BDC0460C05000070B5041C0E1C151CC7
:1095C000FFF7B4FE231CA0220321C133FF33D205D1
:1095D0009B0099500123A3400549201C53500A21A8
:1095E00071432A1CC9B20223FFF7EEFE70BDC046CC
:1095F0000C05000045DF704747DF70474EDF7047BE
:1096000050DF704710B50C4B041C1B6899420AD8F8
:1096100000208C420FD3094A1268D31A59188C4281
:109620008041404207E0CB1A01209C4203D3002333
:109630008C425B41D8B210BD58200020D82B0020AE
:1096400010B5041E0F2C06D8C0B2FFF7D5FF0120BD
:10965000A040FFF7CFFF10BD012230B5151CA1239C
:10966000A0248D40DB00E405E550094B8000C018C4
:10967000A223084CDB00C450C046C046C04602606E
:10968000054A09021143C150C046C046C04630BD1C
:1096900000600040031F010003001300F7B50378CA
:1096A000041C013B032B00D9D7E0031C343318788A
:1096B000052800D9D1E0A222694FD200694B06F0FB
:1096C00079F90305070C1012092107E009210BE0C5
:1096D0000621B950FA22920008E00321B950642211
:1096E00004E0012100E00021B950FF221A60A2220B
:1096F000D200BA585C49895C5C4A116022785A6091
:1097000000230192019A934217D2E118554D4A78ED
:10971000980008354251A0250326C132FF3292003D
:10972000ED05565100254F4A3031183285504D4ACB
:109730000978283299540133E4E7A1220023012556
:10974000D200FD60BB50474A802611680420D162D8
:10975000A922D200B9509446454AB600BB50454AAA
:10976000B8511365D36493645364019A022A13D9E0
:10977000414AD560A125ED005351654651513C4900
:1097800053503E4990510B65CB648B644B64A223CC
:109790003349DB00C958D150019B002B2ED0314DED
:1097A000374B28352E783749B600F618231C283356
:1097B0001878321CFFF744FF231C29331878321C19
:1097C0003149FFF73DFF0023264E30363370019BB1
:1097D000012B13D06D782A4BAD00ED18231C2A33D2
:1097E00018782A492A1CFFF72BFF231C2B331878E3
:1097F00025492A1CFFF724FF0023737002252C340F
:10980000019B9D4218D2174B20782833EE5C1C4BED
:10981000B600F6181E4B321CE9188900FFF710FF3E
:109820006078321C1B49FFF70BFF00220D4B0234FE
:109830003033EA540135E3E71748FFF7DFFE012331
:10984000164A00201360074A3B605268022A06D974
:10985000134A1360084A136001E001204042FEBD34
:1098600000A00040D82B0020CD3D02005820002051
:1098700004050000FCA0004000900040FC90004067
:109880000060004040A1004048A1004044A10040C9
:109890004E24001048910040719B01000CAC004028
:1098A0000C9C00401FB50B4B82009A18516301229B
:1098B00030331A5400236A4613701371FA2202924D
:1098C0006A465371044B68460393FFF799FE05B04F
:1098D00000BDC046D82B0020A086010070B51749F6
:1098E0000123174A002806D00B605268022A24D9A7
:1098F000144A136021E04B605068022801D91149D5
:109900004B600023834218D0111C2831595C0E4D46
:1099100045310E4CFF3189000D51111C9C0008315E
:1099200065580121A026A940094DF6057151111C69
:109930000025183165500133E4E770BD00A00040F8
:10994000D82B002000900040001F03000060004062
:109950000C050000A922F0B57E4C7F49E36AD200D5
:1099600023608B50606885B00291022801D97B4941
:109970008B5000236364666C63689E4200D3E6E00C
:10998000231C30339A5D002A00D1DDE00022B500AF
:1099900065199A556B6B0193934212D1231C28339E
:1099A0009B5D6F4945336F4AFF339B0099500123FC
:1099B000AA68A02193406C4AC9058B50019BAB61FA
:1099C000C2E0019B21688B4212D3231C28339B5D8C
:1099D000634845336349FF339B0058500123A9680E
:1099E000A0208B40A121C005C9004350AA61ABE073
:1099F000019BA364012E54D8331C5133FF33029AC8
:109A00009B00D358544F0393E364AB69002B18D1E8
:109A1000231C28339E5DA968301CFFF71DFE01231F
:109A2000524AAB61FB64BA5801998A4231D94D4A16
:109A3000B600B3502DE078590199FFF7E3FD0028F7
:109A40000CD10123029A494DD364029B03995859C2
:109A5000414FFFF7D7FD0028F3D0ECE77B59039A7D
:109A6000934203D37B59019A93420BD33F4A029B03
:109A70009B58039A93420CD2374A3C4BD358019AD5
:109A8000934206D3231C012128339B5D354A9B005A
:109A90009950636C029A5133FF33A16C9B00D150F3
:109AA00052E0331C4F332D4FFF339B00DB590393A0
:109AB000E364AB69002B19D1231C28339E5DA96890
:109AC000301CFFF7C9FD0123284AAB61FB64BA587B
:109AD00001998A4232D9234AB600B3502EE01F4B77
:109AE00001995859FFF78EFD00280BD101231B4A1D
:109AF0001E4DD364131C03995859FFF783FD0028AA
:109B0000F4D0ECE7154B039A5B59934204D3134B03
:109B1000019A5B5993420AD3144B039AFB58934220
:109B20000CD20E4A114BD358019A934206D3231CF0
:109B3000012128339B5D0B4A9B009950636CA26CFA
:109B40004F33FF339B00FA50636C013312E705B0CB
:109B5000F0BDC046D82B002000A00040009000407F
:109B6000001F0300006000400C0500004C050000D1
:109B7000064B02211A1C503210B511701C1C002813
:109B800001D1FFF7E7FE201C503010BDD82B00207C
:109B9000F0B585B000AF7A60F973002B0CD10122CB
:109BA0000F334000F918C0B2131C02F063F901230F
:109BB00058404042C0B224E069466C465B00B96040
:109BC000D91DC908C900611A8D460024FE7B9C423C
:109BD0000BDA6508AA190A550A1994467A680234FC
:109BE000555D6246E4B25570F1E74000DAB2C0B2AA
:109BF000012302F03FF901235840BB6840429D46D3
:109C0000C0B2BD4640B205B0F0BD08B504F01EFCC0
:109C100008BDF8B5161C00221D1C131C041CFFF700
:109C2000B7FF00281DD1012764003C433B1CE0B274
:109C3000311C2A1C02F01EF9042378404042C0B2B5
:109C4000C046C046C046C046C046C046C046C046E4
:109C5000C046C046C046C046C046C046013B002B79
:109C6000EED140B2F8BD0000002373B501AC237003
:109C70006370A3700C4B1A688123002A12D0131C46
:109C80002933051C566B1878221C0323FA21B04790
:109C900063781A0123781B031343A2781209134334
:109CA0002B60031C58B276BD302C002010B50D4B34
:109CB00002111968C0100C88121B6400001B0224DA
:109CC0000B5F5843131C534304240A5F1B13534375
:109CD000C0129B13C31805205843803000124B62FA
:109CE00010BDC046302C0020002373B501AC23709A
:109CF00063700B4B1A688123002A0ED0131C293382
:109D0000051C566B1878221C0223FD21B0472378CE
:109D100062781B0213432B60031C58B276BDC04609
:109D2000302C0020F0B51D4B1D4A1D6886036B6A60
:109D30001F219F181E23EA5E287F1205B41A2023D4
:109D4000EA5E80237A43DB01A21AD218EB1C595633
:109D5000802378431B02C012C018802379438912E4
:109D600041439B038912C9181A23EC5E8023614387
:109D70009B01CB189B13D2135A43D3135B43287E0A
:109D8000DB1143431B11D31AD843C822C017034029
:109D90005205934200DD131C1813F0BD302C002037
:109DA00000D4FEFFF0B589B001AC201C00211A22BE
:109DB00008F0AEF83F4D81202B68002B00D175E0F4
:109DC0001A1C29325E6B10788821221C1A23B04796
:109DD000627821782B6812020A431A800322A25665
:109DE000A17812020A435A800522A2562179120252
:109DF0000A439A80E279A17912020A43DA800922A1
:109E0000A256217A12020A431A810B22A256A17A83
:109E100012020A435A810D22A256217B12020A43E2
:109E20009A810F22A256A17B12020A43DA811122E3
:109E3000A256217C12020A431A821322A256A17C46
:109E400012020A435A821522A256217D12020A43A7
:109E50009A821722A256A17D12020A43DA82627EFA
:109E6000061C1A761A1C293210785F6BE121221C1D
:109E70000723B8470122A256217812020A43032180
:109E80002B6880195A83A278C0B21A77615622795A
:109E90000D010F2111402943D98305216156120973
:109EA00009010A431A84A2790333DA7740B209B070
:109EB000F0BDC046302C002073B56A46D51D002287
:109EC0002A70021C031C094E293230605C6BD021C1
:109ED000107801232A1CA04733682A7828331A7087
:109EE000041CFFF75FFF001940B276BD302C002044
:109EF00073B56B46DD1D00232B700A4B1A68812356
:109F0000002A0DD0131C2933041C566B18782A1C08
:109F10000123F421B04703232A7813402370031C44
:109F200058B276BD302C002013B56B46DA1DB6232F
:109F30001370074B81201B68002B06D0191C293198
:109F400008781C6BE0210123A04740B216BDC04633
:109F5000302C002038B5084B041C1D688120002DD2
:109F600007D0281C2930131C00780A1C211C2C6BDC
:109F7000A04740B238BDC046302C002038B5084B51
:109F8000041C1D688120002D07D0281C2930131CBB
:109F900000780A1C211C6C6BA04740B238BDC0463B
:109FA000302C00200023F0B5364C85B002AA571D96
:109FB0005371961D9371D371226803AD01902B707C
:109FC00081209A425BD0019B2E32590113781F22C7
:109FD0001A400B1C381C13432B70FFF789FF3B788A
:109FE000002B1ED0FFF7A0FF236803209B6B984730
:109FF000236802AA2F331B78D11DD371F5200122CB
:10A00000FFF7A8FF2368311C2D331B780122F220B3
:10A010003370FFF79FFF291C0122F420FFF79AFFFE
:10A0200008E02368F4211A1C293210781E6B2A1CC0
:10A030000123B0476A46236812792A331A70291C13
:10A040000122F420FFF79AFF23682A782E33061C9A
:10A050001A70291C0122F220FFF790FF23682A784A
:10A060002D3380191A70C6B20122F520291CFFF782
:10A0700085FF23682A7830182F331A70C0B240B297
:10A0800005B0F0BD302C00200023F0B5374C85B072
:10A0900002AA571D5371961D9371D371226803ADA7
:10A0A00001902B7081209A425CD0019B65389B0007
:10A0B0000340191C2E32137883430B43381C2B703A
:10A0C000FFF716FF3B78002B1ED0FFF72DFF23680C
:10A0D00003209B6B9847236802AA2F331B78D11D5E
:10A0E000D371F5200122FFF735FF2368311C2D3392
:10A0F0001B780122F2203370FFF72CFF291C01226C
:10A10000F420FFF727FF08E02368F4211A1C293206
:10A1100010781E6B2A1C0123B0476A462368127907
:10A120002B331A70291C0122F420FFF727FF236824
:10A130002A782E33061C1A70291C0122F220FFF700
:10A140001DFF23682A782D3380191A70C6B20122A8
:10A15000F520291CFFF712FF23682A7830182F33C7
:10A160001A70C0B240B205B0F0BDC046302C00201D
:10A170000023F0B5434C85B002AA551D9371D71D3D
:10A18000D371226803AE009033702B7081209A4205
:10A1900075D02D32137800997A38014083430B43F0
:10A1A000381C3370FFF7A4FE3B780190002B27D0BA
:10A1B000FFF7BAFE2368071C9B6B032098472368B0
:10A1C00002AA2F331B78911D9371F5200122FFF70E
:10A1D000C1FE019B311C3F180122F220FF18FFF73E
:10A1E000B9FE2368FFB22E331B783F18291CF420D8
:10A1F00001222B70FFF7AEFEFFB23F18FEB216E051
:10A200002368F2211A1C293210781F6B321C01239B
:10A21000B8472368061C2E331B78F420291C012222
:10A220002B70FFF797FE019B3618F618F6B26A46B8
:10A23000144C1278236803AD2C331A70291C0122A8
:10A24000F420FFF79BFE23682A782E331A708619B4
:10A25000291C0122F220FFF791FE23682A78F6B22A
:10A260002D3330181A70C6B20122F520291CFFF7D1
:10A2700085FE23682A7830182F331A70C0B240B296
:10A2800005B0F0BD302C0020F7B56B466A46DE1CE9
:10A290000023334C53719371D51D226801AF337085
:10A2A0003B702B708133002A57D07D33032854D85C
:10A2B0002E3213780322934318433070381CFFF773
:10A2C00017FE3B78002B1FD0FFF72EFE23680320DC
:10A2D0009B6B98476A462368911D2F331B78F520A6
:10A2E00093710122FFF736FE6A462368511D2D3314
:10A2F0001B78F22053710122FFF72CFE311C012242
:10A30000F420FFF727FE08E02368F4211A1C293205
:10A3100010781F6B321C0123B847291C0122F4203E
:10A32000FFF72CFE23682A782E331A70061C291C8E
:10A330000122F220FFF722FE23682A782D331A70BB
:10A340008619291C0122F520FFF718FE2268F6B2B3
:10A35000297833182F321170DBB258B2FEBDC046D7
:10A36000302C00200023F0B5394D85B002AA53717E
:10A370009371D371971DD61D2A6803AC2370813366
:10A38000002A62D01C212F32137880008B430840B2
:10A3900018432070381CFFF7ABFD3B780190002B71
:10A3A00027D0FFF7C1FD2B68071C9B6B0320984744
:10A3B000211C0122F520FFF7CDFD019B3F18FF185E
:10A3C0002B68311C2D331B780122F2203370FFF7EC
:10A3D000C1FD2B6802AA2E331B78FFB23F185371C0
:10A3E000511DF4200122FFF7B5FDFFB23F18FFB267
:10A3F00009E02B68F5211A1C293210781D6B221CEC
:10A400000123A847071C211C0122F420FFF7B6FDF9
:10A410000F4D22782B68C7192E331A70211C012288
:10A42000F220FFF7ABFD2B6822782D33FFB21A70B4
:10A430003F18211C0122F520FFF7A0FD2A68FFB27A
:10A4400021783B182F321170DBB258B205B0F0BD45
:10A45000302C002008B5174A174B1A63174A5A6365
:10A460001A1C29321070164A181C9A63FFF724FD33
:10A47000002801D013481BE00320FFF705FF002848
:10A48000F8D1FFF76FFF0028F4D10130FFF770FE1D
:10A490000028EFD10130FFF7F7FD0028EAD10130A5
:10A4A000FFF780FD0028E5D1FFF7EEFE0028E1D19F
:10A4B00008BDC046919B01005C370020139C010041
:10A4C0000B9C010003200000002313B5041C036053
:10A4D00001A80193FFF7C8FB00280AD10198FFF7F4
:10A4E000E5FB20600120FFF7CFFE002802D00248E4
:10A4F00000E0024816BDC046012000000220000016
:10A50000002313B5041C036001A80193FFF7ECFBC3
:10A5100000280AD10198FFF705FC20600120FFF711
:10A52000B3FE002802D0024800E0024816BDC04633
:10A530000120000002200000F0B5161C1822071CA4
:10A54000424303202E4B85B09A18D36A03911840DA
:10A5500002280DD0111C2031936A49685B1A013B17
:10A5600001D5126A9B189E4202DD002845D01E1CB0
:10A570000020864241D001901822101C7843204BC5
:10A580001818011C2031846A4968641A191C013C9E
:10A5900001D5036AE4187A438A18101C136A203024
:10A5A0000293536A029AD31A9C4201DB4468141B3B
:10A5B000B44200DD341C18231D1C781C43437D432A
:10A5C000CB184D196A6A586803998018221C07F045
:10A5D00096FC019B361B1B190193039B029A1B19C6
:10A5E00003936B6A20351C196C606B68934201D130
:10A5F00000236B60002EBFD1019805B0F0BDC046AE
:10A600005C20002010B50A1E06D00B1C1C785A1ABC
:10A61000002C01D00133F9E7FFF78EFF10BD0023B6
:10A6200010B5934203D0CC5CC4540133F9E710BD9C
:10A630008218904202D001700130FAE7704710B5DD
:10A6400003681A1E10D0117820290BD93A2901D09D
:10A650000132F8E7591C1C788A4205D1302C03D10D
:10A6600002330360002001E00120404210BD10B51C
:10A670000923002810D00268002A0DD01178002983
:10A680000AD0D48881888C4206D1507801F036F9FE
:10A690000323C007C0170340181C10BDCB7E021C4B
:10A6A000887E1B021843032A05D14B7D0A7D1B02BD
:10A6B00013431B0418437047F8B5071CC56A3037AD
:10A6C0000123041C391C40782A1C01F0D9F901230C
:10A6D000002814D1236AA2692071EB1A934201D396
:10A6E00000230CE0E678012EFAD9A3696078ED1812
:10A6F000391C2A1C012301F0C3F9013EF3E7181CA1
:10A70000F8BD08B5031C02790020824202D0181C53
:10A71000FFF7D2FF08BD0000F8B5041CFFF7F1FFFA
:10A72000051E53D12378032B48D16779012F45D1DA
:10A73000261C80223036301C291C9200FFF778FF3F
:10A740005522234B4121E254224B9218E254221C01
:10A75000DE3BFF3B313233701370231C61223233F6
:10A7600085201A7059707223800023541A4823548C
:10A770001A4BE1541A4BE2542369B832FF32A35406
:10A78000184A190AA154184A190CA154174A1B0E49
:10A79000A354E3680132A354154A190AA154154A77
:10A7A000190CA154144A1B0EA354E36960785A1C77
:10A7B000E262311C3B1C01F063F965710021607895
:10A7C0000A1C01F0A9F9431E9841C0B2F8BDC04669
:10A7D0002E0200002F0200001502000016020000E9
:10A7E00017020000190200001A0200001B020000FC
:10A7F0001D0200001E0200001F02000070B5C36AA7
:10A80000041C0E1C0025994210D0FFF77AFF051E8C
:10A810000CD1211C60783031321C012301F0F6F894
:10A82000002802D0012601357642E662281C70BD60
:10A83000002310B50371013BC362041CFFF7DEFF68
:10A84000011C0320002939D11D4B1E4AE35CA25C88
:10A850001B0213431C4A1BB2013893422ED1231C06
:10A8600069331B78081C1A06231C68331B781B04E9
:10A870001343221C663212781343221C673212786B
:10A8800012021343114A1B021B0A934216D0231CC7
:10A8900085331878013B1B7800061B041843231CE2
:10A8A00082331B788334184323781B021843000239
:10A8B000074B000AC018431E9841C0B210BDC046E5
:10A8C0002F0200002E02000055AAFFFF464154004F
:10A8D000BABEABFF0023F0B5036089B0071C081CAB
:10A8E000161CFFF7ACFE0B23051E00DA8FE1C94BE7
:10A8F0008200D4580C23002C00D188E13C602378DE
:10A90000002B0DD0607800F0F9FF0123034007D140
:10A91000002E00D17BE1420700D478E10A2376E1E2
:10A920000023E8B22370607000F0F2FF0323C20737
:10A9300000D56CE1002E01D04307EFD4201C00218C
:10A94000FFF776FF012828D1231C0020F333FF33C3
:10A9500000221978914209D0DA7911069A79120405
:10A960000A4319790A43597909020A43810004AD5F
:10A9700001304A5110330428EAD1002504AB5E5956
:10A980000220002E05D0201C311CFFF751FF0028AB
:10A990000CD00435102DF1D135E100260123032818
:10A9A00000D134E1B04201D00D2330E1231C221C40
:10A9B0003C331B783B3212781B02134380221BB2BC
:10A9C00092009342F0D1231C221C47331B7846325D
:10A9D00012781B02134311D1231C57331B781A061C
:10A9E000231C56331B781B041343221C5432127849
:10A9F0001343221C55321278120213430093009B1A
:10AA0000A361231C40331A78531EE270012BCBD86C
:10AA1000231C3D331978A1700029C5D04B1E194263
:10AA2000C2D1231C42331F78013B1B783F021F43D6
:10AA300027813B07B8D1231C44331878013B1B788E
:10AA40000002184310D1231C53331878013B1B78A4
:10AA500000061B041843231C50331B781843231C87
:10AA600051331B781B021843231C251C3F331B78D2
:10AA70003E352D781B021D43019595D0009B534315
:10AA80000393039A3B095B199B18029398428BD35B
:10AA9000C01A04F099FF002886D05F4B0125984228
:10AAA00004D95E4D8542AD416D420235019B029A4B
:10AAB0000230F31892196061E6612362A262032DED
:10AAC00017D1002F00D06FE7231C5F331B78800065
:10AAD0001A06231C5E331B781B041343221C5C32B2
:10AAE00012781343221C5D32127812021343636200
:10AAF0000FE0002F00D157E7039AD3186362022DAD
:10AB000001D1400005E003230122434310405B08CC
:10AB10001818434BC018009B400A834200D243E7F9
:10AB200001235B422361E36081336371032D61D1B3
:10AB3000231C221C61331B78603212781B021343E2
:10AB4000012B57D1711C201CFFF758FE002851D152
:10AB5000344B6071344AE35CA25C1B021343334AFA
:10AB60001BB2934246D1231C33331B781A06231C95
:10AB700032331B781B041343221C303212781343E8
:10AB8000221C3132127812021343294A934231D1E6
:10AB9000284BE35C1A06284BE35C1B041343852215
:10ABA0009200A25C1343254AA25C12021343244A7A
:10ABB00093421FD1234BE35C1A06234BE35C1B0437
:10ABC000134386229200A25C1343204AA25C120225
:10ABD000134323611E4BE35C1A061E4BE35C1B040C
:10ABE000134387229200A25C13431B4AA25C120209
:10ABF0001343E360074A2570938801339BB2938027
:10AC0000E380002303E00123032800D0CCE6181CD6
:10AC100009B0F0BD48300020F50F0000F5FF00003E
:10AC2000FF0100002F0200002E02000055AAFFFFC6
:10AC30005252614117020000160200001502000086
:10AC4000727241611B0200001A020000190200002A
:10AC50001F0200001E0200001D02000043690239AD
:10AC60009A1E0023914203D28378826A59438B183B
:10AC7000181C7047F7B50124A14265D94369994270
:10AC800062D203780E1C051C022B2DD0032B3FD063
:10AC9000A34259D14F087F18036A790AC918FFF7F0
:10ACA000ADFD002802D0012464424DE07B1CFF056D
:10ACB000590A0193FF0D2B6AEF193037C918281C68
:10ACC0003F78FFF79BFD0028EDD1019BD805C00D13
:10ACD0002D1830352B781B021F43264201D03C092A
:10ACE00032E03F053C0D2FE0036A090AC918FFF75F
:10ACF00085FD0028D7D1FF2376005B001E40AB19ED
:10AD00003036AD1930336C781B7824021C431BE0BD
:10AD1000036AC909C918FFF771FD0028C3D1FD30C6
:10AD2000B600FF300640321C3032AA189478D3782F
:10AD300024041B061C435378AE191B0230361C43F7
:10AD400033781C4324012409201CFEBDF8B5051CE2
:10AD5000E98084680E1C012C01D1022038E00368D0
:10AD60005A699442F9D2002C0BD11A78032A02D1E5
:10AD70005A6A002A04D11A899642EED2586A17E01C
:10AD8000141C211C9F783F01BE420DD32868FFF799
:10AD900071FF011C431C1AD00128DED92B685B69A6
:10ADA0009842DAD2F61BEFE728680C1CFFF756FF33
:10ADB000EC600028D1D00F21330931401818490127
:10ADC0002B683031591828616961002000E00120AA
:10ADD000F8BDF7B5041C0E1C151C022001297DD9F5
:10ADE000636999427AD22778874245D0032F57D09A
:10ADF000012F73D14B085B18590A0093236A201C5A
:10AE0000C918FFF7FBFC002868D1009B3E400133C6
:10AE10000193009BEAB2DB05DB0DE318002E08D09E
:10AE20001A1C303211780F220A40E9B209010A4394
:10AE3000D2B230331A7001232371019B201C590AAE
:10AE4000236AC918FFF7DAFC002847D1019BDB050C
:10AE5000DB0DE218002E02D02D09EDB208E0131C24
:10AE6000303319780F232D0A99432B4019430D1CB9
:10AE7000131C30331D702FE0236A090AC918201CE7
:10AE8000FFF7BCFC002829D1FF2376005B001E40A1
:10AE9000A319303330361D70A6192D0A75701BE0CA
:10AEA000236AC909C918201CFFF7A8FC002815D17E
:10AEB000FE23B6005B001E40331C3033E318DA7803
:10AEC000A6191209120715432A0A303635705A702E
:10AED0002A0C2D0E9A70DD7001232371FEBD000037
:10AEE000F8B5051C0E1E06D1C768002F13D04369A4
:10AEF0009F4211D30FE0FFF7BDFE0124A04242D9CB
:10AF0000431C02D1012464423DE06B69041C371CE0
:10AF1000984201D237E001273C1C6B6901349C4206
:10AF200004D3012F01D800242DE00224281C211C69
:10AF3000FFF7A0FE002808D0431C01D0012801D152
:10AF4000041C20E0BC42E8D1EDE7281C211C0F4A7C
:10AF5000FFF73FFF002813D1002E0AD12B69EC60C8
:10AF60005A1C10D00122013B2B616B7913436B718A
:10AF700009E0281C311C221CFFF72BFF0028EDD014
:10AF80000128BFD00124201CF8BDC046FFFFFF0FE1
:10AF9000F7B5C6880136B3B2002B01D104206AE0B0
:10AFA0000369002BFAD00F2232400F1C041C0192BF
:10AFB000002A58D1C168013303610068002903D118
:10AFC00003899E42EAD24EE082783309013A1A425E
:10AFD00049D1FFF74FFE051E012D01D802204AE09E
:10AFE000431C01D1012046E0206843699D4234D3CF
:10AFF000002FD3D0E168FFF773FF051C0720002D59
:10B0000039D0012DEAD06B1CECD02068FFF779FB1A
:10B010000090031EE6D180222068191C3030920077
:10B02000FFF706FB2768291C381CFFF717FEF8629C
:10B03000009F23689A7897420CD201221A712068E7
:10B04000FFF75FFB0028CDD122680137D36A0133B7
:10B05000D362EEE7DA6AD71BDF62E5602068291C5D
:10B06000FFF7FCFD20610020019B22685B0130336B
:10B07000D318E6806361FEBDF0B50B7885B0041C83
:10B080000D1C2F2B01D05C2B00D101350026A660B2
:10B090002B781F2B06D8201C311CFFF757FE66614A
:10B0A000D5E001352B782F2BFBD05C2BF9D0A6698E
:10B0B00020210B22301CFFF7BBFA002108230A1CB9
:10B0C00000910193009B01330293009BEB5C202BCA
:10B0D00043D92F2B41D05C2B3FD02E2B00D19BE0AE
:10B0E0000198814200D395E058B2002801DA03208C
:10B0F00002437F2084469C4460466F46F873F87B89
:10B100001E2807D9202084469C446046F873F87BAB
:10B110001C2819D800980230844602982F5C381CED
:10B1200040383E2803D94038C0B27C2872D80198F4
:10B13000013881426ED273546346481C3754023141
:10B140000293029B0093BDE700274248C05D0028A0
:10B150006BD001379842F8D15CE0029820272D1877
:10B1600000209F4240418300002953D03178E529D7
:10B1700001D1E03931700199082901D19200D2B290
:10B1800003211140012902D10F310B43DBB20C2105
:10B190000A40042A02D104321343DBB2F372201CAA
:10B1A0000021FFF7D3FD00281CD120682169FFF79B
:10B1B00025FB002816D161690B78002B11D00823DC
:10B1C000CA7A1A4008D1A6698B5CB05C0132181AA1
:10B1D00002D10B2AF8D105E0201C0021FFF7D8FE90
:10B1E000E1E70420A369DB7A002805D004282ED1EA
:10B1F00003422CD101302AE05B0728D46169CB7A65
:10B20000DB0605D523681878FFF748FAA06049E700
:10B2100005201CE006201AE0019B082BFAD10B2325
:10B2200092000199D2B201938BE71F1C413F192F65
:10B2300002D802273A4307E01F1C613F192F03D8A9
:10B240000127203B3A43DBB27354013179E705B063
:10B25000F0BDC046E03D020038B50021051CFFF7F7
:10B2600075FD041E10D128682969FFF7C7FA041E6E
:10B270000AD16B691B78E52B0AD0002B08D0281C5B
:10B280000121FFF785FEECE7042C14D1033412E012
:10B2900028682969FFF7B2FA041E0CD16869211CDD
:10B2A0002022FFF7C5F90B226869A969FFF7B7F9F2
:10B2B00001222B681A71201C38BD70B5041C0D1EAC
:10B2C000012D01D8022024E043699942FAD2636932
:10B2D0009D4205D2201C291CFFF7CCFC061E01D183
:10B2E000002016E00128EDD0431C11D0201C291CA1
:10B2F0000022FFF76EFD00280BD123695A1C05D0F0
:10B30000012201332361637913436371351CDEE746
:10B31000012070BD1FB5019003A8141C009103917A
:10B32000FFF78DF90B22002817DB0D4B8000C25868
:10B33000002A01D000211170019A002A01D00021B9
:10B340001170019919500A1E07D00022012C04D156
:10B3500001A86946FFF7BEFA021C101C04B010BD1C
:10B3600048300020F0B58FB0051C03910920002D56
:10B3700000D18CE0161C00231E222B60324007A84F
:10B3800003A9FFF7A7FA002800D080E004AB07A8C4
:10B3900003990D93FFF770FE0C9C002802D1002C3E
:10B3A00000D106301F271C2337401E4242D0002800
:10B3B0000AD0042802D107A8FFF74EFF08230C9CEF
:10B3C0001F43002807D062E01123E27A1A425DD1C0
:10B3D000082073075BD43B0736D54A230026237425
:10B3E000043B6374079BA673E673E6722677667761
:10B3F000A677E6771878211C0193FFF74FF9012310
:10B40000019AA676E6762675667502901371B042AB
:10B410001AD0101C0299D66AFFF74FFF002836D1C8
:10B42000029B0798013BC360311CFFF7E7F9002836
:10B430000AD02CE000282AD1E37A0420DA0626D4A8
:10B44000B20701D5DB0721D43B0701D520231F43D9
:10B45000079E211CF36AAF710027EB612C62EF712C
:10B460003078FFF71BF92861E37F381C1A06A37FA9
:10B470001B041343227F1343627FAF601202134306
:10B48000EB60AF612E60F388AB8000E007200FB067
:10B49000F0BDF0B51F1C002385B03B60051C00917A
:10B4A000161CFFF7E4F8002800D08BE0E8790028AC
:10B4B00000D087E0AB790730DB0700D482E0EB688F
:10B4C000AA68341C9B1A9E423BD91C1C39E0AA680E
:10B4D000D3055BD12868530A8678013E3340DBB23E
:10B4E0000193002B30D02B686969181C0293FFF779
:10B4F000B5FB002831D0019B660AC3180393002EC8
:10B5000042D0029B019A9B78B2189A4201D9019AC3
:10B510009E1A029B00995878039A331C00F076FA21
:10B5200000281ED129680B79002B1FD17602009BC1
:10B53000A41B9B190093AB689B19AB603B689B19DC
:10B540003B60002CC3D13CE0002A01D1286902E015
:10B550006969FFF78FFB012801D8022002E0431C34
:10B5600002D10120E8712DE06861BCE7CB6A039A43
:10B57000981AB042DAD28022009B4002181830316B
:10B580009200FFF74CF8D1E7039BAB618022AB68D8
:10B590009200DB05DB0DD31A261E9E4200D91E1C2D
:10B5A0002868A969FFF72AF90028DAD1AB68009862
:10B5B000D905C90D2B6830315918321CFFF72FF807
:10B5C000B5E7201C05B0F0BDF0B51F1C002385B009
:10B5D0003B60041C0191151CFFF749F8002800D0BE
:10B5E000B1E0E379181E00D0ADE0A2790720920700
:10B5F00000D4A8E0A268A91891425B415B421D40BB
:10B60000002D16D0A268D30570D12068530A817826
:10B6100001390B40DBB20293002B1FD1002A03D16A
:10B62000216900290CD100E06169FFF759FC011E76
:10B6300006D1A368E268934200D87FE0E3607DE032
:10B64000012901D1022002E04B1C02D10120E0714E
:10B6500079E023696161002B00D121612068A26932
:10B66000C36A934203D1FFF74CF80028EED1266855
:10B670006169301CFFF7F2FA0028E3D0029BC3187F
:10B6800003936B0A009323D0009A0299B37852185F
:10B690009A4201D95B1A009370780199039A009B32
:10B6A00000F0EEF9061ED1D12068039AC36A991AF8
:10B6B000009B994209D28022019B490259183030DF
:10B6C0009200FEF7ACFF23681E71009B5E022AE029
:10B6D000A368E268934207D3301CFFF712F80028F2
:10B6E000B4D12368039ADA62039BA3618022A36822
:10B6F0009200DB05DB0DD31A2E1E9E4200D91E1CC4
:10B700002068A169FFF77AF800289FD1A368321C4E
:10B71000D805C00D2368303018180199FEF77FFF57
:10B72000012322681371019BAD1B9B190193A36830
:10B730009B19A3603B689B193B6061E720220020B6
:10B74000A3791343A37105B0F0BD38B5041CFEF70F
:10B750008EFF002830D12025A3792B422CD02068E1
:10B76000E169FFF74BF8002826D1236ADA7A2A43E9
:10B77000DA72227B1A77627B5A77E268120C9A7728
:10B78000E268120EDA77226998759A76110A120C1D
:10B790001A75120A5A754A221A76043AD976D87559
:10B7A0005A769874D874A3792268AB43A3710123A5
:10B7B00013712068FEF7B0FF38BD10B5041CFFF709
:10B7C000C4FF002805D1201CFEF751FF002800D13E
:10B7D000206010BDF7B5041C0D1CFEF748FF0028C3
:10B7E00077D1E079002874D1E3689D4203D9A2792A
:10B7F000920700D41D1C0022A368A260954201D1CB
:10B80000002056E02768BE787602002B14D0013B5A
:10B81000311C681E009304F0D7F8311C0190009889
:10B8200004F0D2F8019B834206D3009A73421A4077
:10B83000A260AD1A616911E0216900290DD1381C9F
:10B84000FFF74EFB011E012901D1022002E0431C3B
:10B8500002D10120E0713CE0206161610029CFD07C
:10B86000B5421AD9A37920689B0704D5FFF738FBA6
:10B87000011E03D110E0FFF7FDF9011C4B1CE8D0BD
:10B880000129E2D923685B699942DED2A36861612C
:10B890009B19A360AD1BE3E7351CA3685B19A3608C
:10B8A000EB05ADD02068FFF7D9F90028CDD06D0A9F
:10B8B0004019A368DA0503D0A269904200D0A061C4
:10B8C000E2680020934204D92022E360A379134365
:10B8D000A371FEBDFA239B00C046C046C046C046C9
:10B8E000C046C046C046C046C046C046C046C04628
:10B8F000C046C046013B002BEED170470123002813
:10B9000001D1024B1B78181C7047C046D420002080
:10B9100073B50324002872D10A3002F097FDFCF7BA
:10B920004BFA073401AD013C281C0121E4B2FCF7BD
:10B930006DFA002CF6D1201C211CFCF709FB061E19
:10B94000012E01D0002446E0D52108204900FCF753
:10B95000FFFA012818D1281C0421FCF757FAAB780C
:10B96000012BEFD1EB78AA2BECD1FA24A400802193
:10B97000A920C905FCF7ECFA011E1ED0013CFFF717
:10B98000A9FF002CF3D1DDE7A920211CFCF7E0FA88
:10B99000012802D9351C341C01E0A9250224FA260D
:10B9A000B600281C0021FCF7D3FA00281DD0013E68
:10B9B000FFF790FF002EF4D1C4E73A20FCF7C8FA55
:10B9C0000028BFD1281C0421FCF720FA2B780C2476
:10B9D0005B0600D404240B4B1C70604244410A4BAC
:10B9E000E4B21C70FCF744FA09E0802110208900C1
:10B9F000FCF7AEFA4342584140420440EBE7201CBA
:10BA000076BDC0464E300020D420002070B51D1CED
:10BA100001230E1C191C002801D1174909780320A5
:10BA2000194228D1154B1B781B0700D45202012460
:10BA3000AC42A44164421134201C111CFCF788FA6A
:10BA4000002812D18021301C8900FCF737FA002829
:10BA500005D08023013D9B00F618002DF2D1122C59
:10BA600003D10C200021FCF773FAFCF701FA2B1C20
:10BA70005D1EAB41D8B270BDD42000204E300020F6
:10BA800070B51C1C0123161C0D1C1A1C002801D1AA
:10BA90001F4A127803201A4238D11E4B1B781A070E
:10BAA00000D47602012C0CD11820311CFCF750FA7E
:10BAB000002826D1281CFE21FCF724FA44424441E8
:10BAC0001FE00622134203D09720211CFCF740FA06
:10BAD0001920311CFCF73CFA002812D1281CFC214B
