:020000021000EC
:10600000004000201981020061810200F18001003E
:106010000000000000000000000000000000000080
:106020000000000000000000000000006581020088
:10603000000000000000000067810200698102008A
:106040006B8102006B8102006B8102006B81020098
:106050006B81020000000000397702006B810200B2
:106060006B8102006B810200C9B801006B810200E4
:106070006B8102006B8102006B8102006B81020068
:106080006B810200794802006B8102006B81020083
:10609000C54802006B810200ED2A02006B810200FC
:1060A0006B8102006B810200000000000000000014
:1060B00000000000000000000000000000000000E0
:1060C000164B002B00D1144B9D46402292029A1A87
:1060D000924600218B460F461348144A121A15F0B7
:1060E0003DFC0F4B002B00D098470E4B002B00D0EF
:1060F00098470020002104000D000D48002802D020
:106100000C4800E000BF15F0EBFB2000290002F076
:1061100093FC15F0CFFBC0460000080000400020B3
:10612000000000000000000040210020C4370020D3
:10613000000000000000000080B500AF024B1B68AB
:10614000181CBD4680BDC04604200020B0B582B0FA
:1061500000AF7860084B1B687868191C13F05AF977
:10616000031C1C1C00231D1C231C2C1C181C211C84
:10617000BD4602B0B0BDC0460420002090B5A3B01B
:1061800000AF78607B68154A93420ED10823FB1854
:10619000134A13CA13C313CA13C312881A800823DD
:1061A000FB180020191C07F061FF7B68002B11D041
:1061B0007B680C4A93420DD07B68084A934209D011
:1061C0007B68082B06D07A68074B101C33211A1CF9
:1061D00001F058FFBD4623B090BDC046043000001A
:1061E000B4CB020001340000D0CB020080B582B0F5
:1061F00000AF786039607B68092B08DC39683D4A5C
:106200007B68081C111C1A1C15F07AFC6EE07B6878
:10621000632B08DC3968384A7B68081C111C1A1C7F
:1062200015F06EFC62E07B68344A934208DC396802
:10623000334A7B68081C111C1A1C15F061FC55E0E0
:106240007B68304A934208DC39682F4A7B68081C17
:10625000111C1A1C15F054FC48E07B682B4A934231
:1062600008DC39682A4A7B68081C111C1A1C15F0C6
:1062700047FC3BE07B68274A934208DC3968264AA2
:106280007B68081C111C1A1C15F03AFC2EE07B6878
:10629000224A934208DC3968214A7B68081C111C99
:1062A0001A1C15F02DFC21E07B681E4A934208DC85
:1062B00039681D4A7B68081C111C1A1C15F020FC4B
:1062C00014E07B68194A934208DC3968184A7B68F5
:1062D000081C111C1A1C15F013FC07E03968154A3C
:1062E0007B68081C111C1A1C15F00AFCBD4602B084
:1062F00080BDC04608CC020020CC0200E7030000AD
:1063000038CC02000F2700004CCC02009F86010011
:1063100060CC02003F420F0074CC02007F969800D0
:1063200088CC0200FFE0F50598CC0200FFC99A3B3B
:10633000A8CC0200B8CC020080B582B000AF786073
:1063400039607B68092B08DC3968234A7B68081CA4
:10635000111C1A1C15F0D4FB3AE07B68632B08DC97
:1063600039681E4A7B68081C111C1A1C15F0C8FBF2
:106370002EE07B681A4A934208DC3968194A7B6828
:10638000081C111C1A1C15F0BBFB21E07B68164A87
:10639000934208DC3968154A7B68081C111C1A1CDA
:1063A00015F0AEFB14E07B68114A934208DC3968B3
:1063B000104A7B68081C111C1A1C15F0A1FB07E091
:1063C00039680D4A7B68081C111C1A1C15F098FBD3
:1063D000BD4602B080BDC046C8CC0200D0CC020091
:1063E000E7030000D8CC02000F270000E0CC020039
:1063F0009F860100E8CC0200ECCC020080B584B09E
:1064000000AF786039600023FB607B68002B04DA02
:106410000123FB607B685B427B60FB68002B3AD00A
:106420007B68092B08DC3968394A7B68081C111C19
:106430001A1C15F065FB68E07B68632B08DC396883
:10644000344A7B68081C111C1A1C15F059FB5CE0CF
:106450007B68314A934208DC3968304A7B68081C03
:10646000111C1A1C15F04CFB4FE07B682C4A934220
:1064700008DC39682B4A7B68081C111C1A1C15F0B3
:106480003FFB42E03968284A7B68081C111C1A1C33
:1064900015F036FB39E07B68092B08DC3968234AA4
:1064A0007B68081C111C1A1C15F02AFB2DE07B6868
:1064B000632B08DC39681E4A7B68081C111C1A1CF7
:1064C00015F01EFB21E07B68134A934208DC396813
:1064D000184A7B68081C111C1A1C15F011FB14E0EB
:1064E0007B680F4A934208DC3968134A7B68081CB2
:1064F000111C1A1C15F004FB07E039680A4A7B6876
:10650000081C111C1A1C15F0FBFABD4604B080BD16
:10651000F0CC0200F8CC0200E703000000CD02003E
:106520000F27000008CD0200ECCC0200D0CC020006
:10653000D8CC0200E0CC0200E8CC020090B5B7B0A5
:1065400000AFF860B9607A60B423FA18FB68101CD9
:10655000191C12220AF00EF9031E0CD0B423FA18EB
:10656000FB68101C191C02220AF004F9031E02D059
:1065700080235B0294E00023B022BA1813604A4BD8
:106580001A684A4B1B689A4202DB474B14221A6076
:10659000B423FB18181C00210AF0D0FD031E02D002
:1065A00080235B027CE0B423FB18DB681A1C942375
:1065B000FB18101C191CFFF719FE9423FB18181C5C
:1065C00015F0CAFA041CB423F9189423FA18B0235E
:1065D000FB18081C111C221C0AF072FB031E02D0BF
:1065E00080235B025CE0304B1B681A1CB423FB1851
:1065F000181C111C0AF0A2FD031E02D080235B02AE
:106600004EE0294B1A682A4B1A60FA68294B101C75
:10661000191C15F097FA031E32D17B68182B2FDC5A
:10662000BB68002B2CD0BB68181C15F095FA031E14
:10663000182B25D8BB681B78002B21D0B423F81861
:10664000B9687A68B023FB180AF03AFB031E02D03F
:1066500080235B0224E01423FB18174A03CA03C3F8
:106660001188198092789A701423FB180020191C45
:1066700007F0FCFC0C4B1A687B68D2180A4B1A60B6
:10668000094B1A680A4B1B68D31A282B03DD084BE9
:106690001A68054B1A60B423FB18181C0AF026FD73
:1066A000181CBD4637B090BD0820002000200020F7
:1066B00040210020A4CB02000CCD020090B5A3B075
:1066C00000AF786039600823FA187B68101C191C29
:1066D00015F016FA1D4B1B78002B1DD11B4A1C4BC5
:1066E000101C191C012209F0FBFF031E28D10823EE
:1066F000FB18181C15F030FA041C3A680823FB1824
:10670000101C191C221CFFF719FF114B0020191C2B
:10671000012209F0E5FF13E00823FB18181C15F00F
:106720001BFA041C3A680823FB18101C191C221CB5
:10673000FFF704FF064B0020191C012209F0D0FFCF
:106740000023181CBD4623B090BDC04678330020FE
:1067500018CD0200A0DF7047181CC046A2DF7047AA
:10676000181CC046A4DF7047181CC046A6DF70473F
:10677000181CC04663DF7047181CC04680B582B045
:1067800000AF786039603B689A887B681A81BD46A3
:1067900002B080BD80B582B000AF786039607B68A0
:1067A000012252421A8103F0C9F8031E012B0FD1B6
:1067B000094B00221A60002003F0EEF8074B181C6A
:1067C0000AF094FC064B0020191C012209F088FFF6
:1067D000BD4602B080BDC04644210020A83500203F
:1067E000D0CD020080B594B000AF786039603B68CE
:1067F0000633FB64FB6C1A887B689B8A9A421FD124
:10680000FB6C1B8B012B1BD17B681B68002B17D0EB
:106810004423FB1800221A704423FB183A685A607C
:10682000FB6C9B7E7A68101C191C002201F076FA22
:106830007B681B6879684422BA18081C111C9847A9
:10684000FB6C1A887B685B8D9A421FD1FB6C1B8B9B
:10685000012B1BD17B681B68002B17D03C23FB1836
:1068600002221A703C23FB183A685A60FB6C9B7E2C
:106870007A68101C191C022201F050FA7B681B6810
:1068800079683C22BA18081C111C9847FB6C1A88BE
:106890007B6840215B5A9A421FD1FB6C1B8B012BFA
:1068A0001BD17B681B68002B17D03423FB180422F4
:1068B0001A703423FB183A685A60FB6C9B7E7A6826
:1068C000101C191C042201F029FA7B681B687968E6
:1068D0003422BA18081C111C9847FB6C1A887B6874
:1068E00056215B5A9A421FD1FB6C1B8B012B1BD18B
:1068F0007B681B68002B17D02C23FB1803221A700F
:106900002C23FB183A685A60FB6C9B7E7A68101C3B
:10691000191C032201F002FA7B681B6879682C229B
:10692000BA18081C111C9847FB6C1A887B686C21EC
:106930005B5A9A421FD1FB6C1B8B012B1BD17B68CE
:106940001B68002B17D02423FB1808221A7024235D
:10695000FB183A685A60FB6C9B7E7A68101C191C05
:10696000082201F0DBF97B681B6879682422BA18D9
:10697000081C111C9847FB6C1A887B6882215B5AA3
:106980009A421FD1FB6C1B8B012B1BD17B681B68B0
:10699000002B17D01C23FB1805221A701C23FB1890
:1069A0003A685A60FB6C9B7E7A68101C191C0522A1
:1069B00001F0B4F97B681B6879681C22BA18081CBE
:1069C000111C9847FB6C1A887B68A8215B5A9A4275
:1069D0001FD1FB6C1B8B0C2B1BD17B681B68002B06
:1069E00017D01423FB1806221A701423FB183A68D8
:1069F0005A60FB6C1A337A68101C191C062201F0CD
:106A000061FA7B681B6879681422BA18081C111C8B
:106A10009847FB6C1A887B68C6215B5A9A421FD143
:106A2000FB6C1B8B012B1BD17B681B68002B17D0C9
:106A30000C23FB1807221A700C23FB183A685A60C3
:106A4000FB6C9B7E7A68101C191C072201F066F90A
:106A50007B681B6879680C22BA18081C111C9847BF
:106A6000BD4614B080BDC04680B582B000AF78602E
:106A700039603B681B88102B08D002DC012B1AD030
:106A80001CE0112B09D0502B0ED017E07A683B6820
:106A9000101C191CFFF772FE10E07A683B68101C8E
:106AA000191CFFF777FE09E07A683B68101C191C77
:106AB000FFF798FE02E000F0E5FFC046BD4602B0D9
:106AC00080BDC04680B594B000AF786039600023C7
:106AD000FB647B689B7A002B33D04823FB18181C7F
:106AE0000021032214F03AFF4823FB181A780F21E3
:106AF0008A43111C01220A431A704823FB181A7892
:106B00000F210A40111C10220A431A704823FB1857
:106B10005A780F218A43111C01220A435A704823D4
:106B2000FB185A780F210A40111C10220A435A7090
:106B30004823FB189A7806218A43111C02220A4333
:106B40009A702C23FB18181C00211C2214F006FF3D
:106B50002C23FB181A7802210A431A707B689B7A4F
:106B60001A1C01231340DAB22C23FB1801210A401E
:106B700010011A7810218A43111C021C0A431A7052
:106B80002C23FB181A7808218A431A702C23FB182F
:106B90001A7804218A431A702C23FB1800225A60A9
:106BA0002C23FB180022DA602C23FB1800221A6128
:106BB0007B689B7A002B02D04823FA1800E0002261
:106BC0002C23FB185A612C23FB1800229A612C23DA
:106BD000FB185A7802218A435A701423FB18181C98
:106BE0000021032214F0BAFE1423FB181A780F2197
:106BF0008A43111C01220A431A701423FB181A78C5
:106C00000F210A40111C10220A431A701423FB188A
:106C10005A780F218A435A701423FB185A780F218F
:106C20000A405A701423FB189A7806218A43111CD3
:106C300002220A439A701423FB189A7808218A4387
:106C40009A701423FB189A7810218A439A7014239F
:106C5000FB189A7801210A439A701023FB18181C1C
:106C60000021032214F07AFE1023FB181A780F215A
:106C70008A43111C01220A431A701023FB181A7848
:106C80000F210A40111C10220A431A701023FB180E
:106C90005A780F218A43111C01220A435A7010238B
:106CA000FB185A780F210A40111C10220A435A700F
:106CB0001023FB189A7806218A43111C02220A43EA
:106CC0009A701023FB189A7808218A439A7010232F
:106CD000FB189A7810218A439A701023FB189A782F
:106CE00001218A439A701823FB18181C00211422D2
:106CF00014F034FE7B689A790C23FB189A700C23ED
:106D0000FB18E54A1A801823FB180C22BA181A60DF
:106D10001823FB181422BA185A601823FB180422EF
:106D20001A811823FB1800225A811823FB18042209
:106D30009A817B681C331A1C1823FB181A612C23B8
:106D4000FB181A7808218A431A702C23FB181A782A
:106D500004218A431A707B6898887B680C332C2244
:106D6000B9181822BA18FFF7F9FC031CFB64FB6C76
:106D7000002B02D0FB6C00F09DFC7B689A790C2301
:106D8000FB189A700C23FB18C44A1A801823FB18AE
:106D90000C22BA181A601823FB181022BA185A606D
:106DA0001823FB1801221A811823FB1800225A818C
:106DB0001823FB1801229A817B6820331A1C1823A0
:106DC000FB181A612C23FB181A7808210A431A7041
:106DD0002C23FB181A7804210A431A707B689888C0
:106DE0007B6814332C22B9181822BA18FFF7B6FCA6
:106DF000031CFB64FB6C002B02D0FB6C00F05AFC04
:106E00007B689A790C23FB189A700C23FB18A44A10
:106E10001A801823FB180C22BA181A601823FB18C2
:106E20001422BA185A601823FB1804221A81182356
:106E3000FB1800225A811823FB1804229A817B68D0
:106E400032331A1C1823FB181A612C23FB181A78EA
:106E500008218A431A702C23FB181A7804218A43CC
:106E60001A707B6898887B6822332C22B918182204
:106E7000BA18FFF773FC031CFB64FB6C002B02D0F9
:106E8000FB6C00F017FC7B689A790C23FB189A7056
:106E90000C23FB18834A1A801823FB180C22BA18FB
:106EA0001A601823FB181022BA185A601823FB180E
:106EB00001221A811823FB1800225A811823FB187B
:106EC00001229A817B6836331A1C1823FB181A6139
:106ED0002C23FB181A7808210A431A702C23FB185C
:106EE0001A7804210A431A707B6898887B682A33D1
:106EF0002C22B9181822BA18FFF730FC031CFB64C7
:106F0000FB6C002B02D0FB6C00F0D4FB7B689A7901
:106F10000C23FB189A700C23FB18634A1A80182361
:106F2000FB180C22BA181A601823FB181422BA187E
:106F30005A601823FB1804221A811823FB18002218
:106F40005A811823FB1804229A817B6848331A1C43
:106F50001823FB181A612C23FB181A7808218A437E
:106F60001A702C23FB181A7804218A431A707B6844
:106F700098887B6838332C22B9181822BA18FFF782
:106F8000EDFB031CFB64FB6C002B01D0FB6C91E35D
:106F90007B689A790C23FB189A700C23FB18434AE0
:106FA0001A801823FB180C22BA181A601823FB1831
:106FB0001022BA185A601823FB1801221A811823CC
:106FC000FB1800225A811823FB1801229A817B6842
:106FD0004C331A1C1823FB181A612C23FB181A783F
:106FE00008210A431A702C23FB181A7804210A433B
:106FF0001A707B6898887B6840332C22B918182255
:10700000BA18FFF7ABFB031CFB64FB6C002B01D031
:10701000FB6C4FE37B689A790C23FB189A700C2366
:10702000FB18234A1A801823FB180C22BA181A607E
:107030001823FB181422BA185A601823FB180422CC
:107040001A811823FB1800225A811823FB180422E6
:107050009A817B685E331A1C1823FB181A612C2353
:10706000FB181A7808218A431A702C23FB181A7807
:1070700004218A431A707B6898887B684E332C22DF
:10708000B9181822BA18FFF769FB031CFB64FB6CE4
:10709000002B0FD0FB6C0DE3331100003411000006
:1070A00037110000381100004111000042110000AA
:1070B000391100007B689A790C23FB189A700C2315
:1070C000FB188A2252011A801823FB180C22BA18C6
:1070D0001A601823FB181022BA185A601823FB18DC
:1070E00001221A811823FB1800225A811823FB1849
:1070F00001229A817B6862331A1C1823FB181A61DB
:107100002C23FB181A7808210A431A702C23FB1829
:107110001A7804210A431A707B6898887B68563372
:107120002C22B9181822BA18FFF718FB031CFB64AD
:10713000FB6C002B01D0FB6CBCE27B689A790C23C2
:10714000FB189A700C23FB18E34A1A801823FB18CB
:107150000C22BA181A601823FB181422BA185A60A5
:107160001823FB1804221A811823FB1800225A81C5
:107170001823FB1804229A817B6874331A1C182385
:10718000FB181A612C23FB181A7808218A431A70FD
:107190002C23FB181A7804218A431A707B6898887C
:1071A0007B6864332C22B9181822BA18FFF7D6FA74
:1071B000031CFB64FB6C002B01D0FB6C7AE27B6848
:1071C0009A790C23FB189A700C23FB18C34A1A8077
:1071D0001823FB180C22BA181A601823FB18102267
:1071E000BA185A601823FB1801221A811823FB18B9
:1071F00000225A811823FB1801229A817B68783378
:107200001A1C1823FB181A612C23FB181A78082162
:107210000A431A702C23FB181A7804210A431A70A7
:107220007B6898887B686C332C22B9181822BA18AE
:10723000FFF794FA031CFB64FB6C002B01D0FB6C82
:1072400038E27B689A790C23FB189A700C23FB18A0
:10725000A34A1A801823FB180C22BA181A601823A4
:10726000FB181422BA185A601823FB1814221A812A
:107270001823FB1800225A811823FB1814229A8124
:107280007B688A331A1C1823FB181A612C23FB18FD
:107290001A7808218A431A702C23FB181A780421C3
:1072A0008A431A707B6898887B687A332C22B918D5
:1072B0001822BA18FFF752FA031CFB64FB6C002B70
:1072C00001D0FB6CF6E17B689A790C23FB189A706D
:1072D0000C23FB18834A1A801823FB180C22BA18B7
:1072E0001A601823FB181022BA185A601823FB18CA
:1072F00001221A811823FB1800225A811823FB1837
:1073000001229A817B689E331A1C1823FB181A618C
:107310002C23FB181A7808210A431A702C23FB1817
:107320001A7804210A431A707B6898887B68823334
:107330002C22B9181822BA18FFF710FA031CFB64A4
:10734000FB6C002B01D0FB6CB4E17B689A790C23B9
:10735000FB189A700C23FB18634A1A801823FB1839
:107360000C22BA181A601823FB181422BA185A6093
:107370001823FB1808221A811823FB1800225A81AF
:107380001823FB1808229A817B68B0331A1C182333
:10739000FB181A612C23FB181A7808218A431A70EB
:1073A0002C23FB181A7804218A431A707B6898886A
:1073B0007B68A0332C22B9181822BA18FFF7CEF92F
:1073C000031CFB64FB6C002B01D0FB6C72E17B683F
:1073D0009A790C23FB189A700C23FB18434A1A80E5
:1073E0001823FB180C22BA181A601823FB18102255
:1073F000BA185A601823FB180C221A811823FB189C
:1074000000225A811823FB180C229A817B68BC3316
:107410001A1C1823FB181A612C23FB181A78082150
:107420000A431A702C23FB181A7804210A431A7095
:107430007B6898887B68A8332C22B9181822BA1860
:10744000FFF78CF9031CFB64FB6C002B01D0FB6C79
:1074500030E17B689A790C23FB189A700C23FB1897
:10746000234A1A801823FB180C22BA181A60182312
:10747000FB181422BA185A601823FB1801221A812B
:107480001823FB1800225A811823FB1801229A8125
:107490007B68CE331A1C1823FB181A612C23FB18A7
:1074A0001A7808218A431A702C23FB181A780421B1
:1074B0008A431A707B6898887B68BE332C22B9187F
:1074C0001822BA18FFF74AF9031CFB64FB6C002B67
:1074D00010D0FB6CEEE0C0464911000050110000D6
:1074E0004311000044110000451100004611000046
:1074F000471100007B689A790C23FB189A700C23C3
:10750000FB186E4A1A801823FB180C22BA181A604E
:107510001823FB181022BA185A601823FB180122EE
:107520001A811823FB1800225A811823FB18012204
:107530009A817B68CF331A1C1823FB181A612C23FD
:10754000FB181A7808210A431A702C23FB181A78A2
:1075500004210A431A707B6898887B68C6332C2202
:10756000B9181822BA18FFF7F9F8031CFB64FB6C72
:10757000002B01D0FB6C9DE0514B00221A707B6800
:107580000C331A1C4E4B5A607B6814331A1C4C4B3C
:107590009A607B681C331A1C494BDA60484B012205
:1075A0001A74474B2022022199547B6822331A1CFB
:1075B000434B5A627B682A331A1C414B9A627B68A0
:1075C00032331A1C3E4BDA623D4B30220321995470
:1075D0007B684E331A1C3A4B5A637B6856331A1C2D
:1075E000374B9A637B685E331A1C354BDA63344B36
:1075F0004022042199547B6838331A1C304B5A645A
:107600007B6840331A1C2E4B9A647B6848331A1CE3
:107610002B4BDA642A4B5022052199547B687A332C
:107620001A1C274B5A657B6882331A1C244B9A65B7
:107630007B688A331A1C224BDA65214B60220621B3
:1076400099547B68A0331A1C1D4B5A667B68A8337B
:107650001A1C1B4B9A667B68B0331A1C184BDA66EF
:10766000174B7022072199547B68BE331A1C144BA8
:107670005A677B68C6331A1C114B9A677B68CE33F6
:107680001A1C0F4BDA670E4B8022082199547B6835
:1076900064331A1C0A4B84215A507B686C331A1CC1
:1076A000074B88215A507B6874331A1C044B8C2179
:1076B0005A50FB6C181CBD4614B080BD4811000028
:1076C0004821002090B58BB000AF786039603B68EE
:1076D0001A687B681A607B68012252421A813B68F3
:1076E0001A797B689A722723FB1800221A700DE022
:1076F0002723FB181B787A68D318FF221A772723D1
:10770000FB181A782723FB1801321A702723FB185D
:107710001B78032BECD93B6859797B68202299545C
:107720002623FB1800221A700FE02623FB181B7873
:107730007A683021D3185B18FF229A702623FB1831
:107740001A782623FB1801321A702623FB181B789F
:10775000032BEAD93B6899797B6836229954252313
:10776000FB1800221A700FE02523FB181B787A689B
:107770004821D3185B18FF221A702523FB181A78AA
:107780002523FB1801321A702523FB181B78032BC5
:10779000EAD93B68197A7B684C2299542423FB1858
:1077A00000221A700FE02423FB181B787A685821F6
:1077B000D3185B18FF229A712423FB181A7824230C
:1077C000FB1801321A702423FB181B78032BEAD90B
:1077D0003B68D9797B68622299542323FB180022E5
:1077E0001A700FE02323FB181B787A687021D318D6
:1077F0005B18FF221A712323FB181A782323FB1826
:1078000001321A702323FB181B78032BEAD93B683B
:10781000597A7B68782299542223FB1800221A7027
:107820000FE02223FB181B787A688821D3185B1895
:10783000FF229A702223FB181A782223FB180132A8
:107840001A702223FB181B78132BEAD93B68997A0C
:107850007B689E2299542123FB1800221A700FE0A6
:107860002123FB181B787A68B021D3185B18FF22FC
:107870001A702123FB181A782123FB1801321A7081
:107880002123FB181B780B2BEAD93B68D97A7B683C
:107890009E2299542023FB1800221A700FE0202307
:1078A000FB181B787A68C821D3185B18FF229A71DD
:1078B0002023FB181A782023FB1801321A7020238A
:1078C000FB181B78002BEAD03B68197B7B689E2253
:1078D00099540823FB18204A13CA13C312681A606C
:1078E0007B6806330822BA18101C191CFEF742FFE9
:1078F000031CFB61FB69002B01D0FB6927E07B685F
:107900009A791823FB189A701823FB1889225201C0
:107910001A807B6804331822BA180120111C1A1C23
:10792000FEF718FF031CFB61FB69002B01D0FB690C
:107930000DE07A683B68101C191CFFF7C3F8031CA4
:10794000FB61FB69002B01D0FB6900E00023181CE0
:10795000BD460BB090BDC046C0CD020080B58CB016
:1079600000AFF860B960191CFB1D1A70BB1D0A1C22
:107970001A700023FB620023BB6275E03F4BBA6ABA
:107980001201D35CBA1D12789A426AD1FB1D1B7892
:107990009AB22223FB181A8000237B620FE0374A39
:1079A000BB6A1B01D31808335A687B6AD3187A6AFA
:1079B000B9688A1812781A707B6A01337B62FB1DE2
:1079C0001A787B6A9A42EADC2C4ABB6A1B01D318FC
:1079D0005B6819882223FA18BB68081C0021FEF78F
:1079E000C1FE031CFB62FB6A002B01D0FB6A41E075
:1079F000FB681B89224A93422FD0FB689B7A002B9D
:107A00002BD01023FB18181C0021102213F0A6FF06
:107A10001A4ABB6A1B01D3185B681A881023FB182B
:107A20001A801023FB1801229A701023FB180022E1
:107A30009A801023FB182222BA189A601023FB1890
:107A4000BA68DA60FB681A891023FB18101C191C2D
:107A5000FEF78CFE031CFB6201E00823FB62FB6A5D
:107A600008E0BB6A0133BB62BB6A092B86DD0523D4
:107A7000FB62FB6A181CBD460CB080BD482100208B
:107A8000FFFF000090B5A9B000AF01F057FF031E43
:107A9000012B00D0A1E0524B1B681A1E514BDB6832
:107AA0009A421ED34E4B1B68391D4F4A081C111CAD
:107AB0001A1C14F025F83B1D0020191C06F0D6FAFC
:107AC000474B00221A60002001F066FF454B181C4E
:107AD00009F00CFB454B0020191C012208F000FEA8
:107AE0007BE000238422BA1813603E498823FA18E9
:107AF0008423FB18081C111C142208F0BBFF002370
:107B00009C22BA1813603B1D394A1168196091888C
:107B1000998092799A713B1D0020191C06F0A6FAF3
:107B20001AE08823FA189C23FB181B68D3181B78CB
:107B30001C1C3A1D2F4B101C191C221C13F0E0FFBB
:107B40003B1D0020191C06F091FA9C23FB181B68B2
:107B500001339C22BA1813609C23FB181A688423F3
:107B6000FB181B689A42DCD33B1D0A221A803B1D7E
:107B70000020191C06F07AFA8423FB181B68391DB3
:107B80001D4A081C111C1A1C13F0BAFF3B1D0020D3
:107B9000191C06F06BFA194B1A688823FB18101C85
:107BA000191C14220523FFF7D9FE0D4B1B681A1C64
:107BB0008423FB181B68D3181A1C094B1A60084B46
:107BC0001B68391D0E4A081C111C1A1C13F098FF63
:107BD0003B1D0020191C06F049FABD4629B090BD96
:107BE00044210020A8350020D4CD0200D0CD0200D1
:107BF000FCCD020004CE020008CE0200D0350020E9
:107C000018CE020090B5A5B000AF786000238C229A
:107C1000BA181360374B1B78002B4BD1354A364BC3
:107C2000101C191C012208F05BFD031E32D10C232D
:107C3000FB18324A13CA13C31168196092889A80DC
:107C40000C23FB180020191C06F010FA2C4A2D4BAF
:107C5000101C191C012208F08DFD031E0ED00C23F0
:107C6000FB18294A13CA13C312681A600C23FB18A5
:107C70000020191C06F0FAF9002336E0234B7A683D
:107C80001A6064200FF0A6FF012001F085FEFFF7C7
:107C9000F9FE1CE00C23FB181D4A13CA13C311681C
:107CA000196012791A710C23FB180020191C06F0B8
:107CB000DDF90CE00C23FB18164A13CA13C3126833
:107CC0001A600C23FB180020191C06F0CFF90C23B6
:107CD000FB18114A13CA13C30C23FB180020191CEC
:107CE00006F0C4F98C23FB181B68181CBD4625B090
:107CF00090BDC04678330020D0CD020028CE0200CF
:107D0000A83500203CCE02004CCE0200D035002029
:107D10005CCE020070CE020080CE020080B584B03E
:107D200000AF7860081C111CFB1C021C1A70BB1CE5
:107D30000A1C1A700A23FB1801221A800023FB6018
:107D4000BB1C1B78082B00D9A9E09A00574BD3180D
:107D50001B689F46FB1C19787B68202299547B681E
:107D6000998A0A23FA18FB1C081C0021FEF7FAFC6A
:107D7000031CFB6094E0FB1C19787B683622995445
:107D80007B68598D0A23FA18FB1C081C0021FEF79A
:107D9000E9FC031CFB6083E0FB1C19787B684C2228
:107DA00099547B684022995A0A23FA18FB1C081C34
:107DB0000021FEF7D7FC031CFB6071E0FB1C197867
:107DC0007B68622299547B685622995A0A23FA18D2
:107DD000FB1C081C0021FEF7C5FC031CFB605FE0D8
:107DE000FB1C19787B68782299547B686C22995A1D
:107DF0000A23FA18FB1C081C0021FEF7B3FC031C25
:107E0000FB604DE0FB1C19787B689E2299547B68CF
:107E10008222995A0A23FA18FB1C081C0021FEF73B
:107E2000A1FC031CFB607B68181CFFF7EBFE37E02E
:107E3000FB1C19787B68CF2299547B68C622995A1B
:107E40000A23FA18FB1C081C0021FEF78BFC031CFC
:107E5000FB600923FB1800221A7001F05BFD031C74
:107E6000DAB20923FB181A7001F05EFD031CDBB2C5
:107E7000002B07D00923FB181B78803BDAB20923BB
:107E8000FB181A707A680923FB18101C191C0122B0
:107E90000723FFF763FD002001F072FD00E0C046FC
:107EA000FB68181CBD4604B080BDC0468CCE0200E5
:107EB00080B582B000AF786001F07AFDBD4602B0B7
:107EC00080BDC04680B5ACB000AFF860B960FB1DA6
:107ED0001A70A223FB1808221A800023AC22BA18B9
:107EE00013600023A822BA181360FB1D1B78062B11
:107EF00000D090E0BB681978FB68BC22995414E06C
:107F0000A823FB181B68BA68D31819789823FA18A5
:107F1000A823FB181B68D3180A1C1A70A823FB1887
:107F20001B680133A822BA181360A823FB181B682A
:107F3000072BE5DD13E0A823FB181B68083BA822EC
:107F4000BA181268B9688A1811789422BA18D154EC
:107F5000A823FB181B680133A822BA181360A823B2
:107F6000FB181B680B2BE6DDFB68A822995AA2239D
:107F7000FA189823FB18081C0021FEF7F3FB031CDA
:107F8000AC22BA1813609423FB181B781A069423AA
:107F9000FB185B781B04D2189423FB189B781B02F8
:107FA000D3189422BA18D2789B18A422BA18136056
:107FB000A423FB181B681422B9181A4A081C111CA8
:107FC0001A1C13F09DFD1423FB180020191C06F049
:107FD0004DF8A423FB181B68181C01F0B9FC124BC8
:107FE0001B68181C0CF0F0FD0F4B1B680F4A181C87
:107FF000111C00220CF0A2FD0D4B002000211A1CC8
:108000000FF0CEFEFA68BB68101C191C082206236C
:10801000FFF7A4FCC046AC23FB181B68181CBD4628
:108020002CB080BDB0CE0200CC350020AB2A0000C1
:108030004197010080B500AFBFF34F8F024B034A59
:10804000DA60BFF34F8FFEE700ED00E00400FA05B1
:1080500080B582B000AF7860A023DB057A6801218B
:1080600091400A1C02495A50BD4602B080BDC0462C
:108070000C05000073DF7047181CC04640DF7047D6
:10808000181CC04690B5C7B002AFF860B9607A60FE
:108090001023F8181349FA68BB6813F031FD102358
:1080A000FB180020191C05F0E1FF1023F9180E4AF7
:1080B0007B68081C111C1A1C13F022FD1023FB18EE
:1080C0000020191C05F0D2FF9023F8180749FA6820
:1080D000BC687B680093231C13F012FDBD4645B0BD
:1080E00090BDC046D8CE020000CF020004CF0200EF
:1080F00090B5A1B000AF3B1C0C4A13CA13C313CAFE
:1081000013C313CA13C31168196092889A803B1C69
:108110000020191C05F0AAFF054B181C0FF05AFD92
:10812000FFF788FFBD4621B090BDC04630CF0200AA
:108130008813000080B5A2B000AF021C3960BB1DDF
:108140001A80BB1D1A8810493B68081C111C1A1C98
:10815000FFF798FF0823FA180C4B111C1A1C39233F
:10816000081C111C1A1C13F0F0FB0823FB1800203C
:10817000191C05F07BFF064B181C0FF02BFDFFF7B9
:1081800059FFBD4622B080BDEFBEADDE5CCF020020
:108190008813000080B582B000AF78607A68044B25
:1081A000101C4F211A1CFFF76DFFBD4602B080BDA9
:1081B00098CF020080B5A2B000AF78607B681B78D2
:1081C000002B10D10823FA18084B111C1A1C41234C
:1081D000081C111C1A1C13F0B8FB0823FB18002004
:1081E000191C05F043FFBD4622B080BDA4CF02009C
:1081F00090B5A9B000AF01F073F88423FB18181CE8
:108200000021142213F0AAFB8423FB1800221A7009
:108210008423FB1800225A608423FB1800221A7260
:108220008423FB18A0221A828423FB1800225A827E
:108230008423FB18181CFFF71DFF031C9C22BA188F
:1082400013609C23FB181B689822BA1813609823AC
:10825000FB181B68002B08D09823FB181A68104BDA
:10826000101C75211A1CFFF70DFF9C23FB181B68BF
:10827000002B11D13B1D0B4A13CA13C3116819609F
:1082800012791A713B1D0020191C05F0EFFE1D200C
:108290000A21FF2203F088FFBD4629B090BDC046E9
:1082A00098CF0200E8CF020090B5A3B000AF78608D
:1082B0007B681B88112B22D002DC102B05D05FE0DD
:1082C000122B4BD0192B32D05AE00823FB182E4A20
:1082D00013CA13C313CA13C312781A700823FB18E6
:1082E0000020191C05F0C2FE1D2003F0D9FD1D2041
:1082F00003F0B8FD7B689A88244B1A8040E008237D
:10830000FB18234A13CA13C313CA13C312681A6093
:108310000823FB180020191C05F0A8FE1D2003F0FF
:10832000BFFD002009F074FCFFF762FF28E07B68C6
:108330009B79002B11D10823FB18164A13CA13C3CB
:1083400013CA13C313CA13C312781A700823FB1875
:108350000020191C05F08AFE12E011E00823FB182A
:108360000D4A13CA13C313CA13C303CA03C3127833
:108370001A700823FB180020191C05F077FEC04670
:10838000BD4623B090BDC046FCCF02000C200020AB
:1083900018D0020034D002005CD0020080B586B054
:1083A00000AFF860B9607A607B687B617B69002B05
:1083B00006D07A69054B101CFC211A1CFFF762FEDF
:1083C000C0460023181CBD4606B080BD98CF0200F1
:1083D00080B582B000AF78607B68181C0EF008FD95
:1083E0007B68181CFFF760FF7B68181C0BF036FBDE
:1083F000044A7B68101C191CFEF736FBBD4602B010
:1084000080BDC0465C36002080B582B000AF786089
:10841000BD4602B080BDC04680B582B000AF786076
:108420007B68181C0CF07EFD7B68181CFFF7ECFFC6
:10843000BD4602B080BDC04690B5A9B000AF78601F
:1084400039600C23FB18964A13CA13C311681960CC
:1084500012791A710C23FB180020191C05F006FE76
:108460003B681B78082B00D912E19A008D4BD3187A
:108470001B689F468C4B20229B5C1C1C0C23FA180B
:108480008A4B101C191C221C13F03AFB0C23FB18FE
:108490000020191C05F0EAFD01F088FC031C9C2259
:1084A000BA1813609C23FB181B68002B0CD09C236C
:1084B000FB1819683A23FF331A1C7D4B081C111C4A
:1084C0001A1CFFF7DFFDE4E0E3E0774B62229B5CE0
:1084D0001C1C0C23FA18774B101C191C221C13F0BF
:1084E0000FFB0C23FB180020191C05F0BFFD01F049
:1084F00065FD031C9822BA1813609823FB181B68AB
:10850000002B0CD09823FB1819684823FF331A1C42
:10851000674B081C111C1A1CFFF7B4FDB9E0B8E04A
:10852000614B4C229B5C1C1C0C23FA18624B101CE8
:10853000191C221C13F0E4FA0C23FB180020191C50
:1085400005F094FD01F068FA031C9422BA18136038
:108550009423FB181B68002B0BD09423FB1819687D
:10856000A7235A00524B081C111C1A1CFFF78AFD46
:108570008FE08EE04C4B78229B5C1C1C0C23FA187D
:108580004E4B101C191C221C13F0BAFA0C23FB18BA
:108590000020191C05F06AFD01F01EFB031C90224F
:1085A000BA1813609023FB181B68002B0CD0902383
:1085B000FB1819685623FF331A1C3D4B081C111C6D
:1085C0001A1CFFF75FFD64E063E0374B36229B5CCB
:1085D0001C1C0C23FA183A4B101C191C221C13F0FB
:1085E0008FFA0C23FB180020191C05F03FFD02F048
:1085F00057FA031C8C22BA1813608C23FB181B68D3
:10860000002B0BD08C23FB181968AE235A00284B83
:10861000081C111C1A1CFFF735FD3AE039E0224B0B
:108620009E229B5C1C1C0C23FA18264B101C191C48
:10863000221C13F065FA0C23FB180020191C05F00E
:1086400015FD26E0184BBC229B5C1C1C0C23FA1861
:108650001D4B101C191C221C13F052FA0C23FB1882
:108660000020191C05F002FD13E00F4BCF229B5C8C
:108670001C1C0C23FA18154B101C191C221C13F07F
:108680003FFA0C23FB180020191C05F0EFFC00E05A
:10869000C046002009F0BCFABD4629B090BDC046D6
:1086A000B4D002002CD202005C360020C8D00200F8
:1086B00098CF0200F4D0020020D1020050D1020075
:1086C0007CD10200A8D10200D4D1020000D2020065
:1086D00080B582B000AF786001F030F9031E00D0A1
:1086E0005CE0304B1B68002B0ED12F4B1B78012216
:1086F0005340DBB2002B51D001F0E8FB031E4DD1FB
:10870000284B02221A6049E0264B1B68012B03D13B
:10871000244B02221A6041E0224B1B68022B0ED12F
:10872000214B1B7801225340DBB2002B36D001F0E5
:10873000D1FC031E32D11B4B03221A602EE0194BD1
:108740001B68032B0ED1184B1B7801225340DBB260
:10875000002B23D002F032FA031E1FD1114B04224A
:108760001A601BE00F4B1B68042B07D101F0E0F9E6
:10877000031E13D10B4B05221A600FE0094B1B6837
:10878000052B0BD101F0B6FA031E07D1074B1B686E
:10879000181C0CF019FA034B00221A60BD4602B0F7
:1087A00080BDC046E82100207433002050370020EF
:1087B00080B584B000AF78600B4B1B68181C0B2190
:1087C00000220CF0BBF9031CFB60FB68002B08D0F7
:1087D000F968EA235A00054B081C111C1A1CFFF704
:1087E00051FCBD4604B080BD5037002098CF020038
:1087F00080B582B000AF7860034AC023DB00034934
:10880000D150BD4602B080BD000001403546526ED9
:1088100080B582B000AFFFF731FC031C7B607B6842
:108820003B603B68002B08D03968F2235A00044BA8
:10883000081C111C1A1CFFF725FCBD4602B080BDA8
:1088400098CF020090B5A1B000AF00F011FA3B1C28
:108850006B4A13CA13C31168196012791A713B1C51
:108860000020191C05F002FC00F032FA3B1C654A9E
:1088700003CA03C31188198092789A703B1C0020A8
:10888000191C05F0F3FB00F033FA3B1C5E4A13CAD7
:1088900013C312781A703B1C0020191C05F0E6FB6C
:1088A00000F00EFF3B1C594A13CA13C303CA03C38B
:1088B0003B1C0020191C05F0D9FB00F0ADFA3B1C55
:1088C000534A13CA13C312781A703B1C0020191C98
:1088D00005F0CCFB00F0ECFA3B1C4E4A13CA13C364
:1088E00012681A603B1C0020191C05F0BFFB00F049
:1088F0006FFB3B1C484A13CA13C303CA03C3127855
:108900001A703B1C0020191C05F0B0FB00F07EFB28
:108910003B1C424A13CA13C31168196012791A71B9
:108920003B1C0020191C05F0A1FB00F0E9FB3B1CDF
:108930003B4A13CA13C313CA13C312881A803B1CC1
:108940000020191C05F092FB00F03EFC3B1C354A50
:1089500013CA13C31188198092789A703B1C0020A7
:10896000191C05F083FB00F0BBFC3B1C2E4A13CA0C
:1089700013C31168196092889A803B1C0020191C4F
:1089800005F074FB00F0EEFC3B1C284A13CA13C32D
:108990001168196092889A803B1C0020191C05F010
:1089A00065FB00F021FD3B1C214A13CA13C311686B
:1089B00019609188998092799A713B1C0020191C4A
:1089C00005F054FB00F09CFD3B1C1A4A13CA13C36C
:1089D000116819609188998092799A713B1C0020E6
:1089E000191C05F043FB1C20FFF732FB1D20FFF78D
:1089F0002FFB002009F064F8BD4621B090BDC046B1
:108A000050D2020064D2020070D2020080D2020072
:108A100094D20200A4D20200B4D20200CCD202004E
:108A2000E0D20200FCD202000CD3020020D30200EC
:108A300034D3020048D3020090B5A3B000AFFFF7D3
:108A400001FF224A224B101C191C012207F048FE8C
:108A5000031E0CD13B1D1F4A13CA13C311681960B2
:108A600092889A803B1D0020191C05F0FFFA184BD4
:108A70000020191C012207F033FEFFF7B9FB0FF0AD
:108A8000A9FAFFF7C5FE06F075F8031C8422BA1890
:108A900013608423FB181B683C2B16DD05F07AFF5E
:108AA000682005F035FD0F2000F06AFF391D0A4AE5
:108AB0008423FB181B68081C111C1A1C13F020F8D7
:108AC0003B1D0020191C05F0D1FAD8E778330020AF
:108AD0005CD3020060D3020074D30200B0B582B050
:108AE00000AF021C3960FB1D1A70FB1D1B787F2B29
:108AF0002FD92D4CFB1D1B781A1C0F231340083B4C
:108B00009908294AFB1D1B78181C0F230340083BBA
:108B10009B0806339B00D3185B68FA1D1278101C63
:108B200003220240D200101CFF228240D2431A408E
:108B30003B689B01FF200340F81D0078051C0320C3
:108B40002840C00083401A438B1D9B00E3185A60E5
:108B500026E0164CFB1D1B785BB29B081349FA1DDF
:108B6000127852B29208C03292005258F91D097818
:108B7000081C03210140C900081CFF218140C94392
:108B800011403A689201FF200240F81D0078051C50
:108B900003202840C00082400A43C0339B001A5182
:108BA000BD4602B0B0BDC04600ED00E000E100E00F
:108BB00080B582B000AF7860A023DB057A68C1324F
:108BC000FF3292000321D150BD4602B080BDC046A5
:108BD00080B582B000AF78600A1CFB1C1A70A0231D
:108BE000DB05FA1C12789200111C7A68C132FF3240
:108BF0009200D150BD4602B080BDC04680B582B063
:108C000000AF7860A023DA057B6801219940A12399
:108C1000DB00D150BD4602B080BDC04680B582B0F9
:108C200000AF7860A023DA05A223DB00D2587B686E
:108C3000DA40131C01221340181CBD4602B080BD4F
:108C400077DF7047181CC04678DF7047181CC04695
:108C50007ADF7047181CC0467CDF7047181CC0467E
:108C600060DF7047181CC04668DF7047181CC0469C
:108C700080B500AF1E20FFF79BFF1E20FFF7BEFF51
:108C800015200321FFF7A4FF09200121FFF7A0FF12
:108C90000B200321FFF79CFF0A20FFF789FF0A2022
:108CA000FFF7ACFF06200321FFF792FF022003210C
:108CB000FFF78EFF03200321FFF78AFF0420032123
:108CC000FFF786FF0720FFF773FFBD4680BDC04654
:108CD00080B500AF1C20FFF76BFF1D20FFF768FF7A
:108CE0001C20FFF78BFF1D20FFF788FFBD4680BDCE
:108CF00090B58BB002AF3C4C0023009302200A21B8
:108D00001522231C0BF0E4FD031CFB61FB69BB6116
:108D1000BB69002B06D0BA69344B101C3E211A1CCB
:108D2000FFF7B0F9324A334B101C01211A1C0BF02B
:108D30008DFE031C7B617B69002B06D07A692B4B6F
:108D4000101C41211A1CFFF79DF92B4A2B4B101CBC
:108D500001211A1C0BF07AFE031C3B613B69002BBE
:108D600006D03A69214B101C42211A1CFFF78AF9E0
:108D7000234A244B101C01211A1C0BF067FE031C14
:108D8000FB60FB68002B06D0FA68184B101C4321CF
:108D90001A1CFFF777F91C4A1C4B101C01211A1CE6
:108DA0000BF054FE031CBB60BB68002B06D0BA68F6
:108DB0000E4B101C44211A1CFFF764F9144A154B82
:108DC000101C01211A1C0BF041FE031C7B607B6808
:108DD000002B06D07A68054B101C45211A1CFFF7A2
:108DE00051F9BD4609B090BDF821002090D3020092
:108DF00078370020B187010050370020D18601006C
:108E0000D8350020C11A020004360020F187010085
:108E1000CC350020B17E010090B585B000AF1F4B6E
:108E20000420191C0EF05AFD031CFB60FB68BB609C
:108E3000BB68002B06D0BA68194B101C4E211A1CB7
:108E4000FFF720F906200321FFF748FE154A1649CF
:108E5000154C164B101C221C0EF094FD031C7B605D
:108E60007B68002B06D07A680D4B101C53211A1C0E
:108E7000FFF708F90B4B1B78181C0EF0E7FD031CDD
:108E80003B603B68002B06D03A68054B101C55210F
:108E90001A1CFFF7F7F8BD4605B090BDD029002099
:108EA00090D302000036002040082000151A02006E
:108EB00080B58CB000AF0123FB623B1D1A78012105
:108EC0008A431A703E4B0820191C5022002309F0D7
:108ED0009FFD031CBB62BB6A7B627B6A002B06D0D2
:108EE0007A6A384B101C64211A1CFFF7CBF83B1C24
:108EF000181C0021012212F031FD3B1C1A780121BF
:108F00008A431A703B1C181CFFF7AAFE031C3B6225
:108F10003B6AFB61FB69002B06D0FA69294B101CE8
:108F20006C211A1CFFF7AEF8274B181C09F0B6FD90
:108F3000031C3B623B6ABB61BB69002B06D0BA696C
:108F4000204B101C70211A1CFFF79CF81F4B181C9B
:108F500009F0B8FD031C3B623B6A7B617B69002B17
:108F600006D07A69174B101C73211A1CFFF78AF878
:108F70000420FFF765FE031C3B623B6A3B613B69D3
:108F8000002B06D03A690F4B101C76211A1CFFF7F4
:108F900079F8FA6A3B1D101C191CFFF765FE031CCB
:108FA0003B623B6AFB60FB68002B06D0FA68054B0E
:108FB000101C79211A1CFFF765F8BD460CB080BD66
:108FC000202A002090D30200D183010019840100DF
:108FD00080B582B000AF0B4B082014211A1C0EF094
:108FE00097FE031C7B607B683B603B68002B06D0D0
:108FF0003A68054B101C80211A1CFFF743F8BD4648
:1090000002B080BD702A002090D3020080B588B0E5
:1090100000AF0CF0E9FA031CFB61FB69BB61BB69A3
:10902000002B06D0BA69334B101C8D211A1CFFF798
:1090300029F80220FFF7F2FD031C5A425341DAB22D
:109040000C23FB181A700C23FB18181C0DF09CFC49
:10905000031CFB61FB697B617B69002B06D07A698D
:10906000244B101C93211A1CFFF70CF83B1C0633F1
:10907000181C0021062212F071FC3B1C1E22DA8013
:109080003B1C1A7A01210A431A723B1C1A7A0221EC
:109090008A431A723B1C1A7A1C218A43111C0C2227
:1090A0000A431A723B1C1A7A20218A431A723B1C0B
:1090B00007225A723B1C10229A723B1C0E4A1A60FD
:1090C0003B1C01221A710D4A3B1C101C191C0DF08F
:1090D00011FD031CFB61FB693B613B69002B06D062
:1090E0003A69044B101CA2211A1CFEF7CBFFBD46A7
:1090F00008B080BD90D302009D8301000836002097
:1091000080B588B000AF3B1D1A780F218A431A70D2
:109110003B1D1A780F210A401A703A1D284B101C6B
:10912000191C0522FFF798FD031CFB61FB69BB615D
:10913000BB69002B06D0BA69224B101CB3211A1C44
:10914000FEF7A0FF0020FFF77FFD031CFB61FB691A
:109150007B617B69002B06D07A691A4B101CB62103
:109160001A1CFEF78FFF0823FB18181C0021082289
:1091700012F0F4FB0823FB1850221A800823FB1876
:10918000A0225A800823FB1800229A800823FB188B
:10919000C822DA800823FB18181CFFF759FD031CAE
:1091A000FB61FB693B613B69002B06D03A69054BCB
:1091B000101CC0211A1CFEF765FFBD4608B080BD1B
:1091C0009CD3020090D3020080B598B000AF404B12
:1091D000181C0021D02212F0C1FB4423FB18181CDC
:1091E0000021102212F0BAFB4423FB18394A1A60FE
:1091F0004423FB1801221A714423FB18F1225A71EF
:109200004423FB18F122DA714423FB18F1229A71EE
:109210004423FB18F1221A724423FB18F1225A72DC
:109220004423FB18F0229A72294A4423FB18101C8D
:10923000191CFEF747FA031CFB65FB6DBB65BB6D94
:10924000002B06D0BA6D244B101CF1211A1CFEF71E
:1092500019FF3B1D181C0021402212F07FFB3A1D14
:109260001E4B101C191C09F003FB3B1D3C22995C92
:109270000F208143081C0121014399543B1D3C22CE
:10928000995C0F200140081C1021014399543B1D9B
:109290003D22995C0F20814399543B1D3D22995CEE
:1092A0000F20014099543B1D181C09F0ABF9031C19
:1092B000FB65FB6D7B657B6D002B06D07A6D064BE5
:1092C000101CFF211A1CFEF7DDFEBD4618B080BD44
:1092D0005C3600203984010090D30200A4D3020040
:1092E00080B5A0B000AFFB1D06221A704023FB180A
:1092F000181C0021382212F031FB4023FB180222F7
:109300001A704023FB1801229A704023FB18012297
:109310009A804023FB18FA1D9A600823FB18181C3A
:109320000021382212F01AFB4023FA180823FB18F8
:10933000101C191C0AF026F9031CFB67FB6FBB67A6
:10934000BB6F002B09D0B96F1A23FF331A1C044BD3
:10935000081C111C1A1CFEF795FEBD4620B080BDEE
:1093600090D3020080B58AB000AF3B1D181C0021CD
:109370001C2212F0F3FA3B1D00221A603B1D164A14
:109380005A603B1DA022D2029A603B1D05221A732F
:109390003B1D0022DA813B1D01221A743B1D0F4A3E
:1093A0005A613B1D0E4A9A613B1D181C0AF008FACF
:1093B000031C7B627B6A3B623B6A002B09D0396AE3
:1093C0003023FF331A1C074B081C111C1A1CFEF714
:1093D00059FEBD460AB080BD55D50000B5810100DB
:1093E0009581010090D3020080B588B000AF08F0ED
:1093F00079FA031CFB61FB69002B08D0F9699B23F8
:109400005A003D4B081C111C1A1CFEF73BFE02F0D3
:109410004FFC031CBB61BB69002B09D0B9693A231F
:10942000FF331A1C344B081C111C1A1CFEF72AFEB1
:1094300008F006FE031C1A1C01235340DBB2002B6C
:109440000ED02E4B7B617B69002B09D079693E23BE
:10945000FF331A1C284B081C111C1A1CFEF712FEA5
:10946000362004F03DFF031C3B613B69002B08D014
:109470003969A0235A00204B081C111C1A1CFEF746
:1094800001FE342004F056FC031CFB60FB68002B3B
:1094900009D0F9684423FF331A1C174B081C111C10
:1094A0001A1CFEF7EFFD732005F0DAFB031CBB600E
:1094B000BB68002B08D0B968A3235A000E4B081CC8
:1094C000111C1A1CFEF7DEFD762004F0D7F9031CF0
:1094D0007B607B68002B09D079684A23FF331A1C14
:1094E000054B081C111C1A1CFEF7CCFD682005F06A
:1094F0000FF8BD4608B080BD90D3020001100000F7
:1095000080B58CB000AFFA23DB00181C0EF062FBB4
:10951000674B181C00F022FC031CFB62FB6A002B4B
:1095200008D0F96AB0235A00624B081C111C1A1C9F
:10953000FEF7A8FD00F03AFC031CBB62BB6A002BDF
:1095400009D0B96A6223FF331A1C5A4B081C111C3C
:109550001A1CFEF797FD564B181C01F07BFA031CF2
:109560007B627B6A002B08D0796AB5235A00514B85
:10957000081C111C1A1CFEF785FD01F091FA031C52
:109580003B623B6A002B09D0396A6C23FF331A1CFB
:10959000484B081C111C1A1CFEF774FD444B181C88
:1095A00000F012FA031CFB61FB69002B09D0F9697A
:1095B0007023FF331A1C3F4B081C111C1A1CFEF7AA
:1095C00061FD00F029FA031CBB61BB69002B08D0C8
:1095D000B969B8235A00374B081C111C1A1CFEF736
:1095E00051FD334B181C00F0C1FC031C7B617B69EF
:1095F000002B08D07969BA235A002E4B081C111C85
:109600001A1CFEF73FFD00F0D9FC031C3B613B69CF
:10961000002B09D039697623FF331A1C254B081C0F
:10962000111C1A1CFEF72EFD214B181C00F0ACFA81
:10963000031CFB60FB68002B09D0F9687A23FF3319
:109640001A1C1C4B081C111C1A1CFEF71BFD00F0F9
:10965000C3FA031CBB60BB68002B08D0B968BD23EC
:109660005A00144B081C111C1A1CFEF70BFD124B60
:1096700000221A70002008F0CBFA104B1A68A023C1
:109680001B03101C191C00220BF058FA031C7B60F2
:109690007B68002B09D079688423FF331A1C054BA3
:1096A000081C111C1A1CFEF7EDFCBD460CB080BD59
:1096B0005C36002090D3020074330020D83500209F
:1096C00080B582B000AF184A184B0121D15016491D
:1096D000174AFA231B048B501349134AA123DB00BA
:1096E000D35801221A43A123DB00CA500E4B01229A
:1096F0001A60104B1B68104A181C111C00220BF03A
:109700001DFA031C7B607B68002B09D079688E23CF
:10971000FF331A1C094B081C111C1A1CFEF7B2FC63
:10972000BD4602B080BDC046000001400C050000EF
:10973000040500000436002055D5000090D3020037
:10974000F0B5A7B000AFF8600A1C0A23FB181A8016
:109750008F2308229446BC44634400221A708F234E
:1097600008229446BC4463441B785B4A127E1A4329
:109770008F2308218C46BC446344511E8A411A70D1
:109780008F2308229446BC4463441B78534A127EBC
:109790001A438F2308218C46BC446344511E8A41DE
:1097A0001A708F2308229446BC4463441B784C4AA9
:1097B000127E1A438F2308218C46BC446344511EF9
:1097C0008A411A708F2308229446BC4463441B7854
:1097D000444A127E1A438F2308218C46BC446344BA
:1097E000511E8A411A708F2308229446BC44634458
:1097F0001B783D4A127E1A438F2308218C46BC44B5
:109800006344511E8A411A708F2308229446BC4437
:1098100063441B78002B5CD0344B1E68FCF78CFC37
:10982000031C3B60DB177B6038687968031C5B0CAA
:109830000A1CD5031D43031CDC032D4A0023A41876
:109840005D41231C2C1C181C211C2A4A00230FF0EC
:10985000A1FF031C0C1C301C191C00220BF06EF91C
:10986000031C882208218C46BC4462441360882370
:1098700008229446BC4463441B68002B0ED0882306
:1098800008229446BC4463441968BA23FF331A1C67
:10989000194B081C111C1A1CFEF7F4FB08230822A4
:1098A0009446BC446344154A13CA13C313CA13C372
:1098B00013CA13C3116819609188998092799A71BB
:1098C000082308229446BC4463440020191C04F079
:1098D000CDFBBD4627B0F0BD303700203836002024
:1098E000E03500205837002010360020783700205F
:1098F000DC050000B80B000090D30200B0D30200DA
:1099000080B500AF024B1B68181CBD4680BDC04629
:10991000C02B002080B500AF024B1B68181CBD4651
:1099200080BDC046C42B002080B500AF024B1B6831
:10993000181CBD4680BDC046C82B002080B500AFB6
:10994000024B1B68181CBD4680BDC046CC2B0020B6
:1099500080B582B000AF7860024B7A681A60BD466D
:1099600002B080BDC02B002080B582B000AF78600F
:10997000024B7A681A60BD4602B080BDC42B00203D
:1099800080B582B000AF7860024B7A681A60BD463D
:1099900002B080BDC82B002080B582B000AF7860D7
:1099A0007A68024B1A60BD4602B080BDCC2B002005
:1099B00080B500AF034B1B685A1C024B1A60BD46B2
:1099C00080BDC046C02B002090B5A3B000AF78602A
:1099D0000823FB180E4A13CA13C311681960928832
:1099E0009A800823FB180020191C04F03FFB094A49
:1099F0000023002413615461064B7A681A60054BFA
:109A000001221A760023181CBD4623B090BDC04623
:109A100058D40200E035002090B5A3B000AF3B1D44
:109A20003C4A13CA13C313CA13C313CA13C312681D
:109A30001A603B1D0020191C04F018FB364B1A68F5
:109A40008723FB184C21525C1A70334A00230024F0
:109A5000136154618723FB181B78012213405A1E9F
:109A60009341DAB22C4B1A768723FB181B785B09DB
:109A7000DBB2012B12D002DC002B05D02CE0022B34
:109A800016D0032B1ED027E0244B181CFCF75EFBDE
:109A9000031C0C1C204A9360D46027E0204B181C48
:109AA000FCF754FB031C0C1C1B4A9360D4601DE0A4
:109AB0001C4B181CFCF74AFB031C0C1C164A936039
:109AC000D46013E0184B181CFCF740FB031C0C1C63
:109AD000114A9360D46009E0134B181CFCF736FB65
:109AE000031C0C1C0C4A9360D460C0463B1D0F4AFB
:109AF00013CA13C313CA13C303CA03C312781A7059
:109B00003B1D0020191C04F0B1FA0023181CBD46AF
:109B100023B090BD6CD40200E03500208096980000
:109B200040420F00A08601001027000094D40200DC
:109B300090B587B000AF1623FB18181C01F0B6F8DB
:109B40001623FB181B881A1C64235343181C0B494B
:109B50000FF0F0FC031C1C1C3A1C094B101C191CB8
:109B6000221C11F0CDFF3A1C064B101C191CFCF7EF
:109B7000A5FD0023181CBD4607B090BDFF0F0000D7
:109B8000B8D40200C0D4020090B5A3B000AF786092
:109B90000823FB180E4A13CA13C311881980927840
:109BA0009A700823FB180020191C04F05FFA094A78
:109BB0000023002413615461064B7A681A60054B38
:109BC00001221A760023181CBD4623B090BDC04662
:109BD0005CD502001036002090B5A3B000AF3B1D4D
:109BE0003D4A13CA13C313CA13C31168196091887D
:109BF000998092799A713B1D0020191C04F036FA65
:109C0000364B1A688723FB187821525C1A70334A46
:109C100000230024136154618723FB181B78012261
:109C200013405A1E9341DAB22C4B1A768723FB1845
:109C30001B785B09DBB2012B12D002DC002B05D0B4
:109C40002CE0022B16D0032B1ED027E0244B181C2F
:109C5000FCF77CFA031C0C1C204A9360D46027E0BC
:109C6000204B181CFCF772FA031C0C1C1B4A936057
:109C7000D4601DE01C4B181CFCF768FA031C0C1C7C
:109C8000164A9360D46013E0184B181CFCF75EFA78
:109C9000031C0C1C114A9360D46009E0134B181C80
:109CA000FCF754FA031C0C1C0C4A9360D460C046A9
:109CB0003B1D0F4A13CA13C313CA13C3116819609B
:109CC00092889A803B1D0020191C04F0CFF90023D4
:109CD000181CBD4623B090BD6CD502001036002084
:109CE0008096980040420F00A086010010270000D7
:109CF0008CD5020090B587B000AF1323FB18181C59
:109D000000F092FF031C7B617B691C1C3A1D104B09
:109D1000101C191C221C11F0F3FE3A1D0D4B101CD7
:109D2000191CFCF7CBFC0C4B1A681423FB18101CF5
:109D3000191C04220823FDF711FE031C7B617B69BB
:109D4000181CFCF71BFA0023181CBD4607B090BD79
:109D5000ACD50200B0D502001036002090B5A3B0FB
:109D600000AF78600823FB180E4A13CA13C311888A
:109D7000198092789A700823FB180020191C04F0AF
:109D800075F9094A0023002413615461064B7A686F
:109D90001A60054B01221A760023181CBD4623B019
:109DA00090BDC04640D602003037002090B5A3B029
:109DB00000AF3B1D3E4A13CA13C313CA13C313CAD1
:109DC00013C303CA03C31188198092789A703B1D8C
:109DD0000020191C04F04AF9364B1A688723FB1837
:109DE0002021525C1A70334A00230024136154610D
:109DF0008723FB181B78012213405A1E9341DAB2C5
:109E00002C4B1A768723FB181B785B09DBB2012BDE
:109E100012D002DC002B05D02CE0022B16D0032B35
:109E20001ED027E0244B181CFCF790F9031C0C1CD7
:109E3000204A9360D46027E0204B181CFCF786F979
:109E4000031C0C1C1B4A9360D4601DE01C4B181CA7
:109E5000FCF77CF9031C0C1C164A9360D46013E0D9
:109E6000184B181CFCF772F9031C0C1C114A936068
:109E7000D46009E0134B181CFCF768F9031C0C1C98
:109E80000C4A9360D460C0463B1D0F4A13CA13C3EB
:109E900013CA13C31168196092889A803B1D002071
:109EA000191C04F0E3F80023181CBD4623B090BD34
:109EB00050D60200303700208096980040420F00B4
:109EC000A08601001027000080D6020090B595B052
:109ED00002AF00237B644023FB18181C03F060FED4
:109EE000031C7B647B6C002B01D07B6C34E03A6CF0
:109EF0002C23FB18101C191CFCF780FAFFF700FD3F
:109F0000031C1A1C1823FB18101C191CFCF714FA4C
:109F1000391D134A1823FC182C23FB180093081C26
:109F2000111C0222231C11F0EBFD3A1D0D4B101CDD
:109F3000191CFCF7C3FB0C4B1A684023FB18101CC0
:109F4000191C04220023FDF709FD031C7B647B6CB4
:109F5000181CFCF713F90023181CBD4613B090BD64
:109F6000A0D60200ACD602003037002090B5A3B0D6
:109F700000AF78600823FB180E4A13CA13C3128877
:109F80001A800823FB180020191C04F06FF80A4AF5
:109F90000023002413615461074B7A681A60064B52
:109FA00001221A7600F0EEF8031C181CBD4623B0FF
:109FB00090BDC0463CD702005837002090B5A3B0F2
:109FC00000AF3B1D3C4A13CA13C313CA13C313CAC1
:109FD00013C312781A703B1D0020191C04F046F8B8
:109FE000364B1A688723FB186221525C1A70334A79
:109FF00000230024136154618723FB181B7801227E
:10A0000013405A1E9341DAB22C4B1A768723FB1861
:10A010001B785B09DBB2012B12D002DC002B05D0D0
:10A020002CE0022B16D0032B1ED027E0244B181C4B
:10A03000FCF78CF8031C0C1C204A9360D46027E0CA
:10A04000204B181CFCF782F8031C0C1C1B4A936065
:10A05000D4601DE01C4B181CFCF778F8031C0C1C8A
:10A06000164A9360D46013E0184B181CFCF76EF886
:10A07000031C0C1C114A9360D46009E0134B181C9C
:10A08000FCF764F8031C0C1C0C4A9360D460C046B7
:10A090003B1D0F4A13CA13C313CA13C311681960B7
:10A0A00012791A713B1D0020191C03F0DFFF0023F9
:10A0B000181CBD4623B090BD4CD702005837002075
:10A0C0008096980040420F00A086010010270000F3
:10A0D00074D7020080B58CB000AF0023FB62282348
:10A0E000FB18181C00F0CAF8031CFB62FB6A002B6B
:10A0F00001D0FB6A27E0BB6A1A1C1423FB18101C52
:10A10000191CFCF719F9391C114A1423FB18081CF7
:10A11000111C1A1C11F0F4FC3A1C0E4B101C191CDB
:10A12000FCF7CCFA0C4B1A682823FB18101C191CDE
:10A1300004220323FDF712FC031CFB62FB6A181CBC
:10A14000FCF71CF80023181CBD460CB080BDC046AF
:10A1500094D7020098D702005837002080B582B00B
:10A1600000AF021CFB1D1A70054BFA1D12781A7005
:10A1700007F066FF0123181CBD4602B080BDC04633
:10A180000136002090B5A1B000AF324B00221A700A
:10A1900000F0C6F805200DF01DFD2F4B181C00F037
:10A1A00043FB031C1A1C01235340DBB2002B0CD0D1
:10A1B0003B1C2A4A13CA13C312781A703B1C002096
:10A1C000191C03F053FF264B40E005200DF002FD63
:10A1D00000F0B4F8031C1A1C01235340DBB2002B1F
:10A1E0000CD03B1C1F4A13CA13C312881A803B1C95
:10A1F0000020191C03F03AFF1B4B27E005200DF04F
:10A20000E9FC144B1B785A1E9341D9B2174B1A78AC
:10A21000174B081C111C1A1C00F0F8F8031C1A1C20
:10A2200001235340DBB2002B0CD03B1C114A13CA54
:10A2300013C312681A603B1C0020191C03F016FFA0
:10A240000D4B03E005200DF0C5FC0023181CBD4696
:10A2500021B090BD7F3700207D37002028D8020034
:10A260002220000038D8020023200000D02B00203C
:10A270001020002048D8020024200000B0B5A4B06F
:10A2800002AF78601F4B00221A701E4B1A781E4BCB
:10A290001A701D4A1B4B101C191C00F0E7F8031C18
:10A2A0001A1C01235340DBB2002B10D00823FB18EB
:10A2B000164A13CA13C31188198092789A7008231A
:10A2C000FB180020191C03F0D1FE114B16E0114BB6
:10A2D0001978114B1A680C4B1B781D1C094B1B7805
:10A2E0001C1C7B680093081C111C2A1C231C00F0FA
:10A2F000EBF8031C1A1C094B1A700023181CBD46EE
:10A3000022B0B0BD7C3700207E37002058D8020034
:10A31000252000007F37002010200020D22B0020B5
:10A3200080B500AF044B1B78181CFFF717FF031C08
:10A33000181CBD4680BDC0461520002080B500AF6A
:10A34000044B1B78181C032100F0DAFA031C181CBC
:10A35000BD4680BDD32B002080B584B000AF021C69
:10A36000FB1D1A70BB1D0A1C1A70274B1A780F238D
:10A37000FB18101C191C00F06DFA031E3FD0FB1DCA
:10A380001B78002B09D00F23FB181B7810221343D6
:10A39000DAB20F23FB181A7008E00F23FB181B78A2
:10A3A00010229343DAB20F23FB181A700F23FB1805
:10A3B0001B7803229343DAB20F23FB181A70BB1DDC
:10A3C0001B781A1C03231340DAB20F23FB181B78E7
:10A3D000DBB21343DBB2DAB20F23FB181A7005208D
:10A3E0000DF0F8FB084B1A780F23FB181B78101C94
:10A3F000191C00F085FA031E01D0012300E00023A0
:10A40000181CBD4604B080BD1920002080B582B064
:10A4100000AF3A60FB1D021C1A70BB1D0A1C1A70AB
:10A42000BB1D1B78012B07D0022B09D0002B0CD1B0
:10A430003B680E221A600BE03B6865221A6007E059
:10A440003B68C92252001A6002E03B6800221A6091
:10A45000FB1D1A78BB1D1B78101C191CFFF77CFF15
:10A46000031C181CBD4602B080BDC04680B582B03A
:10A4700000AF78603960124B1A787B68101C191C89
:10A4800000F090FA031C1A1C01235340DBB2002B8E
:10A4900001D0002310E00B4B1A783B68101C191CEC
:10A4A00000F080FA031C1A1C01235340DBB2002B7E
:10A4B00001D0002300E00123181CBD4602B080BD7E
:10A4C0001E2000201F200020F0B58BB000AF3961A6
:10A4D000FA60BB600F2308229446BC446344021C0C
:10A4E0001A70FB68B64A934203D0BB68B44A9342E1
:10A4F00004D13B6C00221A6000235CE1FB687B62A4
:10A50000BB683B62386A796A0EF084FF031CFB610A
:10A51000786A10F09FFF051C0E1C386910F09AFF36
:10A52000031C0C1C0020A7491A1C231C0FF0CEFC96
:10A53000031C0C1C281C311C1A1C231C10F004F9D1
:10A54000031C0C1C181C211C0FF044F9031C7B621B
:10A55000386A10F07FFF051C0E1C386910F07AFF76
:10A56000031C0C1C002097491A1C231C0FF0AEFC86
:10A57000031C0C1C281C311C1A1C231C10F0E4F8B2
:10A58000031C0C1C181C211C0FF024F9031C3B623B
:10A590000F2308229446BC4463441B78002B05D14A
:10A5A0007B6A1B017B623B6A1B013B62F86910F00E
:10A5B00051FF031C0C1C181C211C0022824B0FF0A5
:10A5C000C1F8031E45D0786A10F044FF031C0C1C30
:10A5D000181C211C7D4A7E4B10F0B6F8031C0C1C85
:10A5E0001D1C261C786A10F035FF031C0C1C181C5F
:10A5F000211C784A784B10F0A7F8031C0C1C3B6018
:10A600007C60F86910F026FF0A1C011C734B744C27
:10A61000081C111C1A1C231C0DF0A8FD031C0C1C8B
:10A62000386879681A1C231C10F08EF8031C0C1C67
:10A63000281C311C1A1C231C10F020FB031C0C1CB2
:10A64000181C211C0FF0C6F8021C3B6C1A60012379
:10A65000B1E0F86910F0FEFE031C0C1C181C211C54
:10A66000604A614B0FF06EF8031E2CD0786A10F030
:10A67000F1FE031C0C1C181C211C5C4A5C4B10F0E6
:10A6800063F8031C0C1C1D1C261C386A10F0E2FE2B
:10A69000031C0C1C181C211C4E4A564B10F054F87D
:10A6A000031C0C1C281C311C1A1C231C10F0E6FA7D
:10A6B000031C0C1C181C211C0FF08CF8021C3B6C9A
:10A6C0001A60012377E0F86910F0C4FE031C0C1C2B
:10A6D000181C211C484A494B0FF034F8031E2CD09B
:10A6E000786A10F0B7FE031C0C1C181C211C444A8D
:10A6F000444B10F029F8031C0C1C1D1C261C386A46
:10A7000010F0A8FE031C0C1C181C211C3E4A3F4BD9
:10A7100010F01AF8031C0C1C281C311C1A1C231CDA
:10A7200010F0ACFA031C0C1C181C211C0FF052F882
:10A73000021C3B6C1A6001233DE0F86910F08AFEB0
:10A74000031C0C1C181C211C314A324B0EF0FAFF62
:10A75000031E2CD0786A10F07DFE031C0C1C181C04
:10A76000211C2D4A2D4B0FF0EFFF031C0C1C1D1C50
:10A77000261C386A10F06EFE031C0C1C181C211CD1
:10A78000274A284B0FF0E0FF031C0C1C281C311C2F
:10A790001A1C231C10F072FA031C0C1C181C211C20
:10A7A0000FF018F8021C3B6C1A60012303E03B6CAD
:10A7B00000221A600123181CBD460BB0F0BDC04634
:10A7C000FFFF0000002079400000E03FC58F317797
:10A7D0002D219F3F5839B4C876BEAF3F6666666686
:10A7E0006666F63F85EB51B81E85E33FC7BAB88D64
:10A7F00006F0963F76BE9F3F9A9999999999E93FBD
:10A800002D431CEBE2368A3F4BC8073D9B558F3FDB
:10A81000CDCCCCCCCCCCF43FB2632310AFEB573FC4
:10A82000D2FBC6D79E59523F80B582B000AF786048
:10A83000074B1A787B68101C191C00F00BF8031EDC
:10A8400001D0012300E00023181CBD4602B080BDEA
:10A850001D20002080B584B000AF021C3960FB1DB4
:10A860001A70FB1D1B781A1C0F231340DAB2214B00
:10A870001B78DBB21343DBB2DAB20F23FB181A707A
:10A880001D4B1B78DB18DAB20F23FB18101C191CA8
:10A890000122012307F024FC031C1A1C012353404E
:10A8A000DBB2002B04D0154BFF221A7000231CE0F2
:10A8B000114B1B785B00DBB21A1C01231343DBB284
:10A8C000DAB23B68101C191C0122012307F008FCB6
:10A8D000031C1A1C01235340DBB2002B04D0074B8E
:10A8E000FF221A70002300E00123181CBD4604B0AB
:10A8F00080BDC046172000200136002054370020BC
:10A9000090B5A5B000AF021CFB1D1A70BB1D0A1C40
:10A910001A70FB1D1B781A1C0F231340DAB21D4B53
:10A920001B78DBB21343DBB2DAB28C23FB181A704C
:10A930008C23FB18BA1D12785A70174B1B78DB1842
:10A94000DAB28C23FB18101C191C0222012307F019
:10A95000C7FB031C1A1C01235340DBB2002B13D08E
:10A960000E4BFF221A700C23FB180D4A13CA13C397
:10A970001168196012791A710C23FB180020191C38
:10A9800003F074FB002300E00123181CBD4625B032
:10A9900090BDC0461720002001360020543700200B
:10A9A00068D8020080B584B000AF021C3960FB1D7E
:10A9B0001A70FB1D1B781A1C0F231340DAB2224BAE
:10A9C0001B78DBB21343DBB2DAB20F23FB181A7029
:10A9D0001E4B1B78DB18DAB20F23FB18101C191C56
:10A9E0000122012307F07CFB031C1A1C01235340A6
:10A9F000DBB2002B04D0164BFF221A7000231FE09D
:10AA0000134B00221A70114B1B785B00DBB21A1C2F
:10AA100001231343DBB2DAB23B68101C191C02227B
:10AA2000012307F05DFB031C1A1C01235340DBB21A
:10AA3000002B04D0064BFF221A70002300E00123F4
:10AA4000181CBD4604B080BD172000201520002032
:10AA50005437002090B5A3B000AF78600823FB18EE
:10AA60000D4A13CA13C312881A800823FB1800204A
:10AA7000191C03F0FBFA094A0023002413615461F6
:10AA8000064B7A681A60054B01221A760023181CBF
:10AA9000BD4623B090BDC0468CD802003836002099
:10AAA00090B5A3B000AF3B1D3D4A13CA13C313CAF0
:10AAB00013C303CA03C31188198092789A703B1D8F
:10AAC0000020191C03F0D2FA364B1A688723FB18B2
:10AAD0003621525C1A70334A0023002413615461FA
:10AAE0008723FB181B78012213405A1E9341DAB2C8
:10AAF0002C4B1A768723FB181B785B09DBB2012BE2
:10AB000012D002DC002B05D02CE0022B16D0032B38
:10AB10001ED027E0244B181CFBF718FB031C0C1C51
:10AB2000204A9360D46027E0204B181CFBF70EFBF3
:10AB3000031C0C1C1B4A9360D4601DE01C4B181CAA
:10AB4000FBF704FB031C0C1C164A9360D46013E053
:10AB5000184B181CFBF7FAFA031C0C1C114A9360E3
:10AB6000D46009E0134B181CFBF7F0FA031C0C1C13
:10AB70000C4A9360D460C0463B1D0F4A13CA13C3EE
:10AB800013CA13C31168196012791A713B1D002092
:10AB9000191C03F06BFA0023181CBD4623B090BDAE
:10ABA0009CD80200383600208096980040420F0062
:10ABB000A086010010270000C0D8020090B589B01F
:10ABC00000AF0023FB611823FB18181C03F012F8D8
:10ABD000031CFB61FB69002B01D0FB691AE0BB6918
:10ABE00064225343181C0D490EF0A4FC031C1C1CCA
:10ABF0003A1D0B4B101C191C221C10F081FF3A1D32
:10AC0000084B101C191CFBF759FDFB69181CFBF7BE
:10AC1000B5FA0023181CBD4609B090BDFFFF000027
:10AC2000E0D80200E8D8020080B584B000AF7860B8
:10AC30000C23FB1800225A700C23FB185A780C23A3
:10AC4000FB181A700C23FB180320191C03F096F84C
:10AC50000C23FB181B78191C0C23FB185B781A1C9F
:10AC6000104B181C10F020FF0C23FB185A787B683F
:10AC70001A707B681B781A1C0B4B181C111C10F0E7
:10AC800013FF05200CF0A6FF7B681B78DBB25BB2DC
:10AC9000002B01DB012300E00023181CBD4604B09B
:10ACA00080BDC04668D9020090D9020080B584B04A
:10ACB00000AF78600C23FB1800225A700C23FB189D
:10ACC0005A780C23FB181A700C23FB180220191C4D
:10ACD00003F054F80C23FB185B781B019AB20C2389
:10ACE000FB181B789BB2191C0F230B409BB213431C
:10ACF0009BB29AB27B681A807B681B881A1C064B31
:10AD0000181C111C10F0D0FE05200CF063FF00236E
:10AD1000181CBD4604B080BDA4D9020080B582B025
:10AD200000AF7860C046C046C046C046C046C04678
:10AD3000C046C046C046C046C046C046C046C046E3
:10AD40007B68013B7B60002BECD1BD4602B080BD2F
:10AD500080B582B000AF7860A023DB057A68C1328D
:10AD6000FF3292000321D150BD4602B080BDC046E3
:10AD700080B582B000AF7860A023DA057B6801213E
:10AD80009940A123DB00D150BD4602B080BDC04632
:10AD900080B582B000AF7860A023DB057A6801211E
:10ADA00091400A1C02495A50BD4602B080BDC046BF
:10ADB0000C05000080B500AF00200021002201F04A
:10ADC000A9FB021C044B1A601820FFF7C1FF1820D2
:10ADD000FFF7CEFFBD4680BDD42B0020F0B58BB071
:10ADE00000AFF861B9616A467A60BA69111C01392D
:10ADF00079623A61002179613969490F7869C60041
:10AE00000E433969CD00BA600021F960BD68FE6863
:10AE1000291C490F301CC4000C43291CCB00D31D36
:10AE2000DB08DB006946CB1A9D466B4600333B626C
:10AE3000064B1868BB6999B23B6AFA6901F00CFCD1
:10AE40007B689D46BD460BB0F0BDC046D42B0020AC
:10AE5000F0B58DB000AFF861B9616A467A60BA6941
:10AE6000111C0139B9623A61002179613969490FD0
:10AE70007869C6000E433969CD00BA600021F960D7
:10AE8000BD68FE68291C490F301CC4000C43291CF6
:10AE9000CB00D31DDB08DB006A46D31A9D466B4608
:10AEA00000337B620023FB6207E07A6AFB6AD318F7
:10AEB000FF221A70FB6A0133FB62FA6ABB699A428D
:10AEC000F3D3064B1868BB6999B27A6AFB6901F043
:10AED000C3FB7B689D46BD460DB0F0BDD42B002062
:10AEE00080B582B000AF0F4B7B600FE0FB1C181CDD
:10AEF0000121FFF7ADFFFB1C1B78FF2B00D108E001
:10AF00000120FFF70BFF7B68013B7B607B68002B18
:10AF1000ECD17B685A1E9341DBB2181CBD4602B0CF
:10AF200080BDC04620A1070080B582B000AF1820C8
:10AF3000FFF72EFFFB1D181C0121FFF789FFFFF70C
:10AF4000CFFF031E01D0012302E000F005F800232B
:10AF5000181CBD4602B080BD80B582B000AF18207D
:10AF6000FFF706FFFB1D181C0121FFF771FFBD460F
:10AF700002B080BD80B584B000AF78603960184BF6
:10AF8000FB6011E00823FB18181C0121FFF760FF8C
:10AF90000823FB181B78FF2B00D008E00120FFF7E7
:10AFA000BDFEFB68013BFB60FB68002BEAD1082378
:10AFB000FB181B78FE2B01D000230CE07A683B685D
:10AFC000101C191CFFF744FF0823FB18181C022152
:10AFD000FFF73EFF0123181CBD4604B080BDC046EC
:10AFE000A086010080B584B000AF78603960FFF7BB
:10AFF00077FF031E01D100232BE03B68DAB20C235C
:10B00000FB181A700C23FB18181C0121FFF7E6FE31
:10B010003B68FD2B1CD07A6880239B00101C191CF8
:10B02000FFF7DCFE0C23FB18181C0221FFF710FFB2
:10B030000C23FB18181C0121FFF70AFF0C23FB1837
:10B040001B781A1C1F231340052B01D0002300E09E
:10B050000123181CBD4604B080BDC04690B585B024
:10B0600000AF021C3960FB1D1A70FB1D1B785BB220
:10B07000002B16DAFB1DFA1D12787F210A401A7088
:10B080000F23FC1837200021FFF7E8FF031C237073
:10B090000F23FB181B78012B03D90F23FB181B78F8
:10B0A00078E0FB1D1B780C2B0BD0FB1D1B78002BB5
:10B0B00007D0FFF751FFFFF737FF031E01D1FF2332
:10B0C00068E0FB1D1B7840221343DAB20823FB180B
:10B0D0001A703B681B0EDAB20823FB185A703B68E3
:10B0E0001B0CDAB20823FB189A703B681B0ADAB211
:10B0F0000823FB18DA703B68DAB20823FB181A71D0
:10B100000F23FB1801221A70FB1D1B78002B03D1A3
:10B110000F23FB1895221A70FB1D1B78082B03D1F7
:10B120000F23FB1887221A700823FB180F22BA1866
:10B1300012785A710823FB18181C0621FFF74EFEDF
:10B14000FB1D1B780C2B05D10E23FB18181C0121AD
:10B15000FFF77EFE0F23FB180A221A700E23FB183E
:10B16000181C0121FFF774FE0E23FB181B78DBB2BD
:10B170005BB2002B0BDA0F23FB180F22BA181278E0
:10B18000013A1A700F23FB181B78002BE6D10E230F
:10B19000FB181B78181CBD4605B090BD80B584B067
:10B1A00000AFF860B960191CFB1D1A70BB1D0A1CAA
:10B1B0001A70BB1D1B78002B10D1A023DB05BA68C9
:10B1C000012191400A1C111C1D4A99501D4AFB681F
:10B1D0004533FF339B001C49995010E0A023DA054A
:10B1E000BB68012199400B1C191CA123DB00D15025
:10B1F000144AFB684533FF339B0014499950C046FD
:10B20000C046C0460F4AFB689B00012199500D497A
:10B21000BB681A02FB1D1B781B041A43BB1D1B785D
:10B220001B05134303221A43FB684533FF339B007E
:10B230005A50C046C046C046BD4604B080BDC04658
:10B240000C05000000600040031F0200031F010006
:10B2500080B582B000AF7860044A7B684533FF3325
:10B260009B0003499950BD4602B080BD006000407C
:10B27000001F030080B582B000AF7860A023DB051B
:10B280007A68C132FF3292000321D150BD4602B02C
:10B2900080BDC04680B582B000AF7860A023DA05DB
:10B2A0007B6801219940A123DB00D150BD4602B04B
:10B2B00080BDC04680B582B000AF7860A023DB05BA
:10B2C0007A68012191400A1C02495A50BD4602B0D9
:10B2D00080BDC0460C05000080B582B000AF78602C
:10B2E00039603B68002B04D17B68181CFFF7E2FF34
:10B2F00003E07B68181CFFF7CDFFBD4602B080BDA0
:10B3000045DF7047181CC04647DF7047181CC04611
:10B310004EDF7047181CC04650DF7047181CC046EF
:10B3200080B582B000AF78600A1CFB1C1A707B6885
:10B330000D4A934204D10D4BFA1C12781A6010E0AA
:10B340007B680B4A934204D10A4BFA1C12781A60AC
:10B3500007E07B68084A934203D1084BFA1C127835
:10B360001A60BD4602B080BD008000400C8C0040D9
:10B37000009000400C9C004000A000400CAC00403D
:10B3800080B582B000AF78603960144B1B683A68B2
:10B390009A4211D87A683B689A420BD3104B1A68CC
:10B3A0003B68D2180D4B1B68D21A7B689A4201D9B0
:10B3B00001230FE000230DE0084B1B683A68D21A06
:10B3C0007B689A4203D87A683B689A4201D301238A
:10B3D00000E00023181CBD4602B080BD20200020E4
:10B3E000D82B002080B584B000AFF860B9607A60D7
:10B3F000FB680F2B00D90FE0FB68D9B2BA687B68F5
:10B40000081C111C1A1CFFF77FFFFB6801229A40E1
:10B41000131C181CFFF774FFBD4604B080BDC04666
:10B4200080B582B000AF021CFB1D1A700A4B0222CD
:10B430001A70FB1D1B78042B08D89A00074BD318F1
:10B440001B689F4600F040FA00E0C046024B181C03
:10B45000BD4602B080BDC0461C2C0020C4D90200ED
:10B46000B0B586B000AF78607B681B78002B03D046
:10B470007B681B78042B02D901235B4279E17B684E
:10B4800034229B5C052B3BD89A00BC4BD3181B681D
:10B490009F46BB4AA223DB000921D150B94B64224D
:10B4A0001A6030E0B64AA223DB000921D150B54B27
:10B4B000FF221A6027E0B24AA223DB000621D15006
:10B4C000B04BFA2292001A601DE0AD4AA223DB00C5
:10B4D0000321D150AB4B64221A6014E0A84AA22386
:10B4E000DB000121D150A74BFF221A600BE0A44AD8
:10B4F000A223DB000021D150A24BFF221A6002E000
:10B5000001235B4235E19E4AA223DB00D3589E4AC9
:10B51000D35C1A1C9D4B1A607B681B781A1C9C4BD1
:10B520001A6000237B6122E07A687B69D3185B781C
:10B53000191C984B7A699200D150964B7A69920007
:10B54000D358181CFFF796FE934B7A69920000219E
:10B55000D1507A6830217B69D3185B1819788F4AEB
:10B560007B69D3180A1C1A707B6901337B617A6985
:10B57000874B1B689A42D7D3814B0122DA60804AFD
:10B58000A123DB000021D1507D497E4B1A68844BFA
:10B590001A60834B1A68A923DB00CA50784A814B92
:10B5A0000021D150764A80239B000421D150744958
:10B5B0007348734C724D0023A6225200AB50A42254
:10B5C0005200A350A22252008350A02252008B505E
:10B5D0006F4B1B68022B33D9734B0122DA60724A1E
:10B5E000A123DB000021D1506F49664B1A686C4BD8
:10B5F0001A606B4B1A68A923DB00CA506A4A694B70
:10B600000021D150684A80239B000421D150664913
:10B610006548654C644D0023A6225200AB50A4221D
:10B620005200A350A22252008350A02252008B50FD
:10B630005D49534AA223DB00D258A223DB00CA5043
:10B6400000233B6135E03B695B007A682821D31811
:10B650005B181B78181C3B699B00544A99184F4A89
:10B660003B69D3181B789B00514A944663441A1CCB
:10B67000FFF7B8FE3B695B0001337A682821D318D5
:10B680005B181B78191C454A3B69D3181B789B0033
:10B69000474A94466344474A081C111C1A1CFFF78A
:10B6A000A1FE454A3B69D31800221A703B69013359
:10B6B0003B613A69364B1B689A4202D23B69012BC7
:10B6C000C1DD0223FB6036E0FB685B007A6828215D
:10B6D000D3185B181B78181CFB68023B9B00374A89
:10B6E00099182E4AFB68D3181B789B00304A944661
:10B6F00063441A1CFFF776FEFB685B0001337A682F
:10B700002821D3185B181B78191C244AFB68D3180E
:10B710001B789B00264A94466344294A081C111C46
:10B720001A1CFFF75FFE244AFB68D31800221A7028
:10B73000FB680133FB60FA68154B1B689A42C3D360
:10B74000204B181CFFF7E4FD0D4B181C0121FFF7DF
:10B75000E7FD0B4B01221A600D4B1B68022B07D92A
:10B76000114B181C0121FFF7DBFD0F4B01221A6062
:10B770000023181CBD4606B0B0BDC046D8D9020093
:10B7800000A00040D82B0020B8D9020020200020C3
:10B79000182C0020F02B0020002C0020142C00205E
:10B7A000EC2B0020040500000090004040A1004068
:10B7B0000060004048A10040102C00204091004053
:10B7C0004891004021B4010080B586B000AF786098
:10B7D0003960134B7A6892003968D150114A7B68FE
:10B7E000D31801221A700823FB1800221A700823AC
:10B7F000FB1800221A710823FB18FA229A6008230A
:10B80000FB1800225A710823FB18074ADA60082344
:10B81000FB18181CFFF780FDBD4606B080BDC04672
:10B82000DC2B0020102C0020A086010080B584B005
:10B8300000AF021CFB1D1A70FB1D1B78002B0AD0E9
:10B840001B4B01221A601B4B1B68022B2CD91A4B75
:10B8500001221A6028E0164B01225A60154B1B6822
:10B86000022B02D9144B01225A600023FB6016E020
:10B87000124AFB68D3181B78181CFFF7E9FC104B21
:10B88000FA689200D358181C0021FFF725FD0D4BD4
:10B89000FA6892000021D150FB680133FB60054B30
:10B8A0001B68FA689A42E3D3BD4604B080BDC04627
:10B8B00000A00040182C002000900040142C002014
:10B8C000F02B0020002C002080B500AFD049D14BD8
:10B8D0001A68D14B1A60D04B1A68A923DB00CA50F2
:10B8E000CE4B1B68022B05D9CD49CB4B1A68A92337
:10B8F000DB00CA50CB4B00221A607FE1C94B1B68AA
:10B90000C94AD35C002B00D173E1C64B1B68C64A01
:10B910000021D154C34B1A68C44B9200D358002B5A
:10B9200016D1C04B1B68C24AD35C181CFFF790FCB1
:10B93000BC4B1A68BF4B9200D358181C0021FFF76C
:10B94000CBFCB84B1A68BC4B92000021D15050E19F
:10B95000B44B1A68B54B9200D258AF4B1B689A4251
:10B9600016D3B04B1B68B24AD35C181CFFF770FCAF
:10B97000AC4B1A68AF4B9200D358181C0121FFF74B
:10B98000ABFCA84B1A68AC4B92000021D15030E1BF
:10B99000A44B1B68012B00D994E0A24B1A68A34B5F
:10B9A0009200D258A54B1A60994A9E4B1B6851339E
:10B9B000FF339B009A58A24B1A609A4B1A689E4B11
:10B9C0009200D358002B32D1964B1B68984AD35C17
:10B9D000191C944B1A68974B9200D358081C191CD9
:10B9E00003220123FFF7DAFB8E4B1A68924B920079
:10B9F0000121D150864B0122DA64854A914BD258FD
:10BA00008E4B1B689A4207D98F49864B1B68884A20
:10BA1000D35C9B0001225A507D48824B1968874BAA
:10BA20001A680B1C5133FF339B001A50E1E0784B2E
:10BA30000122DA64764A834BD258814B1B68101C72
:10BA4000191CFFF79DFC031E13D0714A7D4BD25881
:10BA50007A4B1B68101C191CFFF792FC031E08D0C0
:10BA6000C0466B4A774BD258754B1B689A4208D335
:10BA700000E0DCE7664A734BD258704B1B689A4271
:10BA80000DD3634A6F4BD2586D4B1B689A420ED24E
:10BA90005F4A6C4BD258694B1B689A4207D36A497C
:10BAA000604B1B68624AD35C9B0001225A50584885
:10BAB0005C4B1968614B1A680B1C5133FF339B00B8
:10BAC0001A5096E0574B1A68584B9200D2585B4B6D
:10BAD0001A60534A534B1B68023B5133FF339B00A0
