:020000021000EC
:1060000000400020D1E5010019E60100356F0100D4
:106010000000000000000000000000000000000080
:106020000000000000000000000000001DE601006C
:1060300000000000000000001FE6010021E6010052
:1060400023E6010023E6010023E6010023E6010028
:1060500023E601000000000085E1010023E60100C5
:1060600023E6010023E60100ED8B010023E6010099
:1060700023E6010023E6010023E6010023E60100F8
:1060800023E6010095C9010023E6010023E6010093
:1060900035CA010023E6010061C2010023E60100C8
:1060A00023E6010023E601000000000000000000DC
:1060B00000000000000000000000000000000000E0
:1060C000164B002B00D1144B9D46402292029A1A87
:1060D000924600218B460F461348144A121A08F0C4
:1060E000CFFE0F4B002B00D098470E4B002B00D05B
:1060F00098470020002104000D000D48002802D020
:106100000C4800E000BF08F07DFE2000290001F0EF
:106110000DF908F061FEC0460000080000400020B4
:10612000000000000000000028210020603700204F
:1061300000000000000000000021704700B50D4B7A
:10614000A1B0984208D168460B4908F097FF69460C
:10615000002003F0F1FE0AE00823021C9A4306D057
:10616000064B984203D01921054A00F0BBFE21B02E
:1061700000BDC04604300000D80002000134000019
:10618000F2000200021C08B5081C0F49092A17DD9D
:106190000E49632A14DD0E4B0E499A4210DD0E4B58
:1061A0000E499A420CDD0E4B0E499A4208DD0E4B09
:1061B0000E499A4204DD0E4B0E499A4200DD0E490B
:1061C00008F030FF08BDC046270102002801020088
:1061D000E7030000290102000F2700002A01020046
:1061E0009F8601002B0102003F420F002C0102009C
:1061F0007F9698002D010200D1090200F0B5444CB1
:10620000ADB0071C0E1C151C424922680CA808F0F2
:1062100009FF0CA9002003F08FFE9F223E49920047
:106220000CA808F0FFFE0CA9002003F085FE03A8CF
:10623000391C122204F0B6FF002809D003A8391C2B
:10624000022204F0AFFF002802D00CA833490FE06F
:106250000023334A21680293914200DD236003A8A2
:10626000216805F0D7F90190002805D02D490CA828
:1062700008F004FF002037E02368381C2A496360D7
:1062800008F0F2FE002807D028490CA808F0F6FE16
:1062900001980CA903F050FE321C25490CA808F007
:1062A000C1FE0CA9002003F047FE381C1E4908F06F
:1062B000DBFE071E21D1182D1FDC002E1DD0301C47
:1062C00008F0E4FE182818D83378002B15D003A85E
:1062D000311C2A1C02AB05F097F800280AD00CA844
:1062E000144908F0CBFE381C0CA903F025FE8020D1
:1062F00040020BE023685D192560626823689B1AE1
:10630000282B00DD226003A805F077F92DB0F0BD41
:1063100028210020310102003A010200450102005B
:106320007B0200004E0102005701020064010200DE
:106330007901020083010200031C70B5C0B00D1C7E
:106340006846191C08F06EFE15480378002B1CD116
:10635000144E0122311C04F0FDFE041E1DD120A8A4
:10636000114908F08BFE20A9201C03F0E5FD6846CA
:1063700008F08CFE6946021C281CFFF73FFF201C1A
:10638000311C012204F0E6FE07E0684608F07EFEBC
:106390006946021C281CFFF731FF002040B070BD89
:1063A0001C330020060D02008C010200A0DF7047A4
:1063B000A2DF7047A4DF7047A6DF704763DF704736
:1063C000F0B50B68041C036001235B4203810A796A
:1063D00003778272FF2283774277C3774879621C02
:1063E000D0773132137053709370D370887993756E
:1063F000D375137653761071C87916321071937570
:10640000D37513765376087A163210719375D37557
:1064100013765376487A163210719375D3751376C6
:106420005376231C8A7A8E331A70221CABB0123337
:10643000B432FF20187001339342FAD11026CA7A81
:106440001AA81A70EF49321C08F011FDA11D1AA8F4
:10645000FFF7B4FF002800D061E2A37918A98B7080
:106460008923221D5B0101300B80FFF79FFF031E74
:1064700000D054E2A57A002D07D0311C013315AAB3
:106480001943013311705170937023AE00211C2207
:10649000301C08F0F5FC012102222940681E8541CC
:1064A0000901114331706D4215A929407161002124
:1064B00014A801811023012014AD18432872032071
:1064C000A872023818432873012003436B73AA7320
:1064D0001EAD1232281C08F0D3FCA37919AFBB7093
:1064E000C94B311C3B8016AB6B6004232B8104230A
:1064F000AB81231C1C332B610093A088103B2A1C0A
:106500001E970193FFF754FF002800D007E2A379FC
:106510000822BB70BD4B68813B8017AB6B600123C9
:106520002B810123AB81231C20332B613378311C59
:106530001343043A13433370231CA08814332A1CDA
:106540001E970293FFF734FF002800D0E7E1A379FC
:106550000822BB70AE4B2F603B8016AB6B600423F0
:106560002B810423AB81231C32332B6103933378BB
:1065700068819343043A93433370231CA0882233E9
:10658000311C2A1C0493FFF713FF002800D0C6E13A
:10659000A3790822BB709F4B2F603B8017AB6B60C9
:1065A00001232B810123AB81231C36332B613378EC
:1065B00068811343043A13433370231CA0882A33A1
:1065C000311C2A1C0593FFF7F3FE002800D0A6E13A
:1065D000A3790822BB70904B2F603B8016AB6B6099
:1065E00004232B810423AB81231C48332B610693A6
:1065F000337868819343043A93433370231CA08813
:106600003833311C2A1C0793FFF7D2FE002800D034
:1066100085E1A3790822BB70804B2F603B8017ABCC
:106620006B6001232B810123AB81231C4C332B6135
:10663000337868811343043A13433370231CA088D2
:106640004033311C2A1C0893FFF7B2FE002800D00B
:1066500065E1A3790822BB70714B2F603B8016ABBC
:106660006B6004232B810423AB81231C5E332B61DD
:106670000993337868819343043A93433370231C1E
:10668000A0884E33311C2A1C0A93FFF791FE002884
:1066900000D044E1A3790822BB70624B2F603B809D
:1066A00017AB6B6001232B810123AB81231C623369
:1066B0002B61337868811343043A13433370231CEE
:1066C000A0885633311C2A1C0B93FFF771FE00285B
:1066D00000D024E1A3790822BB70534B2F603B808C
:1066E00016AB6B6004232B810423AB81231C743312
:1066F0002B610C93337868819343043A934333704E
:10670000231CA0886433311C2A1C0D93FFF750FE14
:10671000002800D003E1A3790822BB70434B2F600F
:106720003B8017AB6B6001232B810123AB81231CC2
:1067300078332B61337868811343043A1343337001
:10674000231CA0886C33311C2A1C0E93FFF730FEEB
:10675000002800D0E3E0A37919AFBB70344B1EAD25
:106760003B8016AB6B6004232B8100236B810433C9
:10677000AB81231C08228A3323AE2B610F9333781D
:10678000311C9343043A93433370231CA0887A331B
:106790002A1C1E971093FFF70BFE002800D0BEE0C6
:1067A000A3790822BB70234B68813B8017AB6B60D9
:1067B00001232B810123AB81231C8E332B61337882
:1067C000311C1343043A13433370231CA0888233D3
:1067D0002A1C1E971193FFF7EBFD002800D09EE0C6
:1067E000A3790822BB70144B2F603B8016AB6B6003
:1067F00014232B81AB81231CA0332B61129333789C
:1068000068811BE0290202003311000034110000EE
:10681000351100003611000037110000381100005A
:106820004111000042110000501100005111000000
:106830005211000053110000431100009343043A29
:1068400093433370231CA0889033311C2A1C13936C
:10685000FFF7AEFD002862D1A3790822BB70314B4F
:106860002F603B8017AB6B6001232B810123AB8131
:10687000231C271CB4332B61337868811343043AFB
:10688000134333709837A088311C2A1C3B1CFFF738
:106890008FFD002843D1244B019A02215A60029AAD
:1068A00018709A60009ADA6001221A74049A5A6188
:1068B000059A9A61039ADA615A1CD177079A0131D5
:1068C0005A62089A9A62069ADA621A1C3032117079
:1068D0001A1C0131403211700A9A06215A640B9A2F
:1068E0009A64099ADA641A1C503211700D9A0131B7
:1068F0005A650E9A9F679A650C9ADA651A1C60327F
:106900001170109A02395A66119A9A660F9ADA66CD
:106910001A1C70321170139A5A67129ADA672BB0E8
:10692000F0BDC0464411000030210020F0B50D1C20
:10693000041C002189B020480E01375C01909F4261
:1069400034D102ABDA800023934209DAEF5C01987C
:10695000BC460F01C7196046FF68F8540133F3E7DE
:10696000019B00219819476802AB9A1D38882B1C9F
:10697000FFF720FD011E1DD12689104B08309E42D5
:1069800018D0A37A002B15D004AC201C102208F0DC
:1069900077FA3B88301C23800123A37002AB0633B7
:1069A000211CA360E560FFF707FD03E00131082922
:1069B000C1D1052009B0F0BD30210020FFFF00004B
:1069C000F0B5B3B0019058480478002C00D097E09F
:1069D0005649012204F0BEFB051C12A8002D00D070
:1069E00089E0534908F04AFB12A9281C03F0A4FAD5
:1069F00009A85049012204F0D5FB041E05D012A8B5
:106A00004D4908F03BFB281C87E04C4E4C4932684E
:106A100012A808F007FB12A9201C03F08DFA04ADA0
:106A2000316809A804F0F6FD03AB291C142209A85B
:106A300004F04FFC4349039A12A808F0F3FA201C13
:106A400012A903F079FA039B371C0093132B22D869
:106A500034603D4E002B0BD0291C142205230198D5
:106A6000FFF764FF12A8311C08F008FB201C0EE0A1
:106A70003649281C08F002FB291C14220523019822
:106A8000FFF754FF12A8311C08F0F8FA009812A979
:106A900003F052FA26E02E4E12A8311C08F0EEFA4E
:106AA000201C12A903F048FA2A5D2A4912A808F00E
:106AB000B9FA002012A903F03FFA039B01349C426B
:106AC000F2D9311C12A808F0D9FA12A9002003F05B
:106AD00033FA3B68019814333B60291C14220523C8
:106AE000FFF724FF09A804F088FD104901220020C7
:106AF00004F030FB0CE0184908F0C0FA201C04E058
:106B000012A8164908F0BAFA002012A903F014FAE4
:106B100012A8134908F0B2FA002012A903F00CFAE7
:106B2000002033B0F0BDC0461C330020060D02002B
:106B30008C0102009E010200A7010200B02100208A
:106B40003902020042020200BA01020051020200B0
:106B5000050D0200B701020065020200D10102002A
:106B60007702020030B585B06B46041C0733101C59
:106B70000E22197001216A44118007283CD807F0C1
:106B800051FD04090F3B162D1C221878611CC87793
:106B9000A08A1EE0211C187836310870608D18E03C
:106BA000211C18784C3108700234E08F11E0211C50
:106BB00018786231087056340AE0211C1878783150
:106BC00008706C3404E0211C18788E31087082340F
:106BD00020880021FFF7EEFB051C0EE0211C187831
:106BE000B43108701C3908880021FFF7E3FB051C4D
:106BF000201CFFF7E5FE00E00025281C05B030BD95
:106C000073B50B88112B06D0502B08D0102B00D059
:106C1000A9E08B8801E001235B420381A3E0CA88DD
:106C2000838A0D1C041C8E1D9A4210D1338B012BBC
:106C30000DD10368002B0AD06B46002201911A7017
:106C4000B17EFFF78FFF201C694623689847EA88CA
:106C5000638D9A4210D1328B012A0DD12368002B0B
:106C60000AD06B4601951A70B17E201CFFF77AFF9F
:106C7000201C694623689847A31CEA88DB8F9A4248
:106C800011D1338B012B0ED12368002B0BD06B4617
:106C9000022201951A70B17E201CFFF763FF201CB1
:106CA000694623689847231C5633EA881B889A4212
:106CB00011D1338B012B0ED12368002B0BD06B46E7
:106CC000042201951A70B17E201CFFF74BFF201C97
:106CD000694623689847231C6C33EA881B889A42CC
:106CE00011D1338B012B0ED12368002B0BD06B46B7
:106CF000062201951A70B17E201CFFF733FF201C7D
:106D0000694623689847231C8233EA881B889A4285
:106D100011D1338B012B0ED12368002B0BD06B4686
:106D2000072201951A70B17E201CFFF71BFF201C63
:106D3000694623689847231C9833EA881B889A423F
:106D400011D1338B012B0ED12368002B0BD06B4656
:106D5000052201951A70B17E201CFFF703FF2368FE
:106D6000201C6946984773BD73DF704740DF70474A
:106D700000B5A1B000F026FB68464B4908F07EF94B
:106D80006946002003F0D8F800F04CFB68464749FC
:106D900008F074F96946002003F0CEF800F056FBC5
:106DA0006846434908F06AF96946002003F0C4F8D0
:106DB00000F02AFE68463F4908F060F96946002065
:106DC00003F0BAF800F092FB68463B4908F056F928
:106DD0006946002003F0B0F800F0C4FB684637496C
:106DE00008F04CF96946002003F0A6F800F006FC14
:106DF0006846334908F042F96946002003F09CF8E0
:106E000000F00EFC68462F4908F038F9694600206A
:106E100003F092F800F044FC68462B4908F02EF984
:106E20006946002003F088F800F068FC68462749AE
:106E300008F024F96946002003F07EF800F0A6FC73
:106E40006846234908F01AF96946002003F074F8EF
:106E500000F0C2FC68461F4908F010F9694600209E
:106E600003F06AF800F0E2FC68461B4908F006F9F6
:106E70006946002003F060F800F026FD68461749D7
:106E800008F0FCF86946002003F056F8A0228021A3
:106E9000134BD2054905D15080218905D1500020DE
:106EA00004F06EFE21B000BD8302020094020200D5
:106EB0009F020200AC020200C0020200CD020200EA
:106EC000DD020200F2020200030302001D030200C1
:106ED0002C0302003E030200500302006303020081
:106EE0000C05000070B5051C0C1C161CA2B0231C60
:106EF0002A1C02A80C4908F095F802A9002003F00A
:106F00001BF8321C02A8094908F08CF802A90020DD
:106F100003F012F8009602A805492A1C231C08F069
:106F200081F822B070BDC046760302007F010200E6
:106F30009D03020000B5A1B06846094908F09EF81B
:106F40006946002002F0F8FF064807F00BFABFF38D
:106F50004F8F054A054BDA60BFF34F8FFEE7C046FF
:106F6000C7030200881300000400FA0500ED00E0EA
:106F7000031C00B50A1CA1B0191C0B48FFF7B2FF97
:106F800068460A4908F07AF86946002002F0D4FF02
:106F9000074807F0E7F9BFF34F8F064A064BDA6060
:106FA000BFF34F8FFEE7C046EFBEADDEF103020038
:106FB000881300000400FA0500ED00E008B5522136
:106FC000014AFFF78FFF08BD2A04020010B50478BC
:106FD000A0B0002C07D10549684608F04FF8201CE6
:106FE000694602F0A9FF20B010BDC046340402007B
:106FF00010B5A6B001AC00F0C9FB201C0021142282
:1070000007F03EFFA023201C2382FFF7ADFE041EE5
:1070100004D07821094AFFF765FF0CE0084906A86B
:1070200008F02CF806A9201C02F086FF1D200A217A
:10703000FF2202F067F826B010BDC0462A04020005
:107040007504020010B5041C0088A0B0103809288F
:1070500041D807F0E7FA0517384040404040402F3C
:107060001E49684608F00AF86946002002F064FFED
:107070001D2002F02FF81D2002F016F8A288184BF0
:107080001A8028E00123164C5B426846154923808C
:1070900007F0F4FF6946002002F04EFF1D2002F0C9
:1070A00019F82288104B00201A8104F0B7FDFFF771
:1070B0009FFF10E0A479002C0DD168460B4907F022
:1070C000DDFF201C04E06846094907F0D7FF0020D7
:1070D000694602F031FF20B010BDC04686040200B0
:1070E000002000209F04020018360020BB0402008C
:1070F000E004020008B5002A05D08021101C4900D8
:10710000024AFFF7EFFE002008BDC0462A04020035
:1071100010B5041C06F046FE201CFFF793FF201C50
:1071200005F076FB0248211CFFF76AFD10BDC04642
:107130001836002008B506F0F9F808BD10B50C1C8B
:10714000A0B04949684607F099FF6946002002F05F
:10715000F3FE00F0C7FC207807287BD807F062FA1E
:1071600004155D7A2A6F3B4C404B41490133DA7F6D
:10717000684607F057FF6946002002F0DDFE01F087
:1071800079F89E21002865D057E0384B39493633CD
:107190001A78684607F046FF6946002002F0CCFEE8
:1071A00000F0C8FD002855D04421FF31324AFFF7D6
:1071B00099FE4FE02D4B314962331A78684607F04B
:1071C00031FF6946002002F0B7FE00F0CFFC5221EB
:1071D00000283FD0E9E7254B294978331A786846DB
:1071E00007F020FF6946002002F0A6FE00F062FFD3
:1071F000AC2100282ED020E01C4B22498E331A7877
:10720000684607F00FFF6946002002F095FE00F087
:1072100073FE602100281DD0C7E7144B1A494C3378
:107220001A78684607F0FEFE6946002002F084FEE8
:1072300001F020F900280DD0B3214900B6E70B4B2F
:107240001249B4331A78684607F0ECFE002069460C
:1072500002F072FE002004F0E1FC00200C4A011C48
:1072600007F0BAF820B010BD9505020018360020CE
:10727000A6050200D10502002A040200FA05020058
:1072800028060200530602007C060200A606020041
:107290005D7A010008B501F079F8002804D08C214E
:1072A0001A4AFF31FFF71EFE00F0CCFD002804D083
:1072B000C821164A4900FFF715FE01F05FF90028C2
:1072C00004D0CD21114A4900FFF70CFE00F0D6FC96
:1072D000002804D0A0210D4AFF31FFF703FE00F083
:1072E0006DFF002804D0D221084A4900FFF7FAFDBB
:1072F00000F086FE002804D0AA21044AFF31FFF7DF
:10730000F1FD002004F08AFC08BDC0462A040200FA
:10731000C0230249024ADB00D15070473546526E05
:107320000000014008B500F001FC08BD30B5A1B077
:10733000FFF71EFD164C1748211C012203F00AFF1F
:10734000051E07D11449684607F098FE281C6946B7
:1073500002F0F2FD211C0122002003F0FBFEFFF7EA
:1073600047FE00200D4A011C07F036F80C4B0D4972
:107370001868002205F0A2FD07F0C4F8FFF7F6FC3C
:107380000028F9D0C821084AFF31FFF7ABFDF3E729
:10739000060D02001C3300208C0102005D7A010002
:1073A00014360020AB2A00002A04020077DF704761
:1073B00078DF70477ADF70477CDF704760DF7047A7
:1073C00068DF7047A023EF220321DB05D20030B530
:1073D000A12099508022C000D2051A500C22042509
:1073E0000B4C1A510B4C1D510B4C1A51043C1951AA
:1073F0008024E4001C50E320C0001A5010381A50BA
:1074000006481A50E222D2009950054A995030BDE0
:1074100054070000240700002C0700000C070000A0
:107420001C070000A023EE210322DB05C9005A50EF
:1074300005495A50A1228021D20049059950802146
:10744000890599507047C04674070000002307B5AE
:10745000022000930A2115221A4B05F0A9FC0028EE
:1074600003D03D21184AFFF73DFD18480121184A75
:1074700005F0FEFC002803D04021134AFFF732FD3F
:1074800014480121144A05F0F3FC002803D04121DF
:107490000D4AFFF727FD11480121114A05F0E8FCCC
:1074A000002803D04221084AFFF71CFD0D480121A6
:1074B0000D4A05F0DDFC002803D04321024AFFF706
:1074C00011FD07BDB4210020CF06020018370020AF
:1074D000957201005035002081BB01007C350020F1
:1074E000117301001436002025730100164910B5F0
:1074F0000420583106F092FE002803D04B21134A95
:10750000FFF7F0FCC122124992008858114B124C2F
:107510000340C020000403438B501049201C0A1C68
:107520000F4B06F0AFFE002803D05021074AFFF7AB
:10753000D9FC207806F0CAFE002803D05221034A65
:10754000FFF7D0FC10BDC04634290020CF06020052
:1075500000E100E0FFFF00FF783500204008200038
:1075600019BB01001FB5012202AC23781F499343C8
:107570002370082028314F32002304F041FE0028F8
:1075800003D061211A4AFFF7ADFC002301A8037064
:10759000FFF714FF002803D06921154AFFF7A2FC6A
:1075A000144804F049FE002803D06D21104AFFF76B
:1075B00099FC114804F04AFE002803D070210C4ABF
:1075C000FFF790FC0420FFF7F1FE002803D07321A1
:1075D000074AFFF787FC0120211CFFF7F1FE002876
:1075E00003D07621024AFFF77DFC1FBDB42900209D
:1075F000CF0602001171010035710100064A08B57D
:1076000008201421783206F0D1FE002803D07D2115
:10761000024AFFF767FC08BDB4290020CF0602002C
:107620001FB505F0F9FE002803D08A21194AFFF79B
:1076300059FCA223A022DB00D205D25801239208D4
:1076400093436A466846137006F0EAFA002803D0AE
:107650009021104AFFF746FC0A20002168440622C8
:1076600007F00EFC1E2301ACE380113B2372063BA6
:1076700063720933A372084B084801930123211C4C
:10768000237106F03BFB002803D09F21014AFFF73E
:1076900029FC1FBDCF060200F570010080350020D7
:1076A0001FB5002301A8134905220370FFF784FECC
:1076B000002803D0B021104AFFF714FC0020FFF788
:1076C00077FE002803D0B3210B4AFFF70BFC002301
:1076D00002A8436050330380503343802833C38073
:1076E000FFF768FE002803D0BD21034AFFF7FAFB2D
:1076F00005B000BDD9060200CF06020030B51F4D0F
:1077000095B001AC0021B822281C07F0B9FB00217C
:10771000201C0C2207F0B4FB194B281C01930123F9
:107720002371F0336371A371E37123726372211CBF
:10773000013BE372FEF744FE002803D0EE21114A1C
:10774000FFF7D0FB4022002104A807F099FB04A812
:107750000D4904F0F1FC112213AB1A704D230022E5
:107760006B4404A81A7004F019FC002803D0FC2113
:10777000044AFFF7B7FB15B030BDC04618360020ED
:107780003D710100CF060200DF06020030B59FB058
:107790006B46DD1D062302AC00213822201C2B7015
:1077A00007F06EFB02230021237010A8013B382252
:1077B000A370A380A56007F063FB201C10A904F050
:1077C00053FF002804D08B21024A4900FFF78AFBAF
:1077D0001FB030BDCF06020010B588B001AC201C30
:1077E00000211C2207F04CFB0C4B201C6360A023E3
:1077F000DB02A36005232373043B2374084B6361FE
:10780000084BA36104F0D4FF002804D09621064A57
:107810004900FFF767FB08B010BDC04655D5000012
:10782000CD6F0100BD6F0100CF06020008B504F066
:107830002FF9002804D03421214AFF31FFF752FBF1
:1078400001F018FC002804D09B211D4A4900FFF7D5
:1078500049FB04F067FA002805D19D211948490029
:10786000174AFFF73FFB362002F0F2FB002804D056
:107870003E21134AFF31FFF735FB342002F0C0FAF6
:10788000002804D0A0210E4A4900FFF72BFB7320EB
:1078900002F0C0FD002804D04421094AFF31FFF75F
:1078A00021FB762002F0E4F9002804D0A321044A49
:1078B0004900FFF717FB682002F04CFD08BDC046E9
:1078C000CF06020001100000FA2010B5C00006F03B
:1078D00049FD494C201C00F0B3FC002804D05E2177
:1078E000464AFF31FFF7FEFA00F0C4FC002804D03E
:1078F000AF21424A4900FFF7F5FA201C00F000FAD8
:10790000002804D0B1213D4A4900FFF7EBFA00F00E
:1079100011FA002804D06421384AFF31FFF7E2FA57
:10792000201C00F08DFD002804D06821334AFF316F
:10793000FFF7D8FA00F09EFD002804D0B4212F4AAA
:107940004900FFF7CFFA201C00F0F8F8002804D017
:10795000B6212A4A4900FFF7C5FA00F007F90028C6
:1079600004D06E21254AFF31FFF7BCFA201C00F03D
:1079700089FB002804D0BB21204A4900FFF7B2FA56
:1079800000F098FB002804D078211C4AFF31FFF753
:10799000A9FA201C00F098FA002804D07C21174A8C
:1079A000FF31FFF79FFA00F0A7FA002804D0BE21AC
:1079B000124A4900FFF796FA201C00F029FD002822
:1079C00004D0C0210D4A4900FFF78CFA00240C4B6B
:1079D000201C1C7004F022F9A0210A4B090318682E
:1079E000221C05F06BFAA04204D0C521034A4900CD
:1079F000FFF778FA10BDC04618360020CF06020007
:107A000018330020503500200122A02008B50D4970
:107A10000D4BC0025A500D495850A120C0001958B2
:107A2000114319501A600A4B0A491868002205F0E0
:107A300045FA002804D0CA21074A4900FFF752FA44
:107A400008BDC0460C050000000001400405000010
:107A50007C35002055D50000CF06020000B5174B3D
:107A6000A1B01A7E164B1B7E1343164A127E134397
:107A7000154A127E1343154A127E1343144A127E8E
:107A8000134303D1134B1B7E002B14D0124B0B213D
:107A90001868002205F012FA002804D0E4210F4AE9
:107AA0004900FFF71FFA0E49684607F0E7FA002081
:107AB000694602F041FA21B000BDC046C835002039
:107AC000D0360020F03500205835002088350020C1
:107AD000F8360020A835002018370020CF06020015
:107AE000E906020000B50B4BA1B0186805F02EFAAC
:107AF000002804D0EA21084A4900FFF7F3F9684654
:107B0000064907F0BBFA6946002002F015FA21B0D9
:107B100000BDC04618370020CF060200140702003F
:107B2000014B18687047C046882B0020024A136832
:107B3000013313607047C046882B002010B5A0B0F9
:107B4000041C0849684607F099FA6946002002F0CB
:107B5000F3F900200021044B186159611C6018766C
:107B600020B010BD7E0702005835002030B5A1B00E
:107B70001B49684607F082FA0020694602F0DCF9EA
:107B8000184C00222368251C6233187800232261D8
:107B90006361012303402376400903280FD806F0D0
:107BA00041FD02040A0C104800E01048FEF7C4FA38
:107BB000A860E96009E00E48F8E70E48F6E7FA2009
:107BC000C000FEF7B9FAA060E16068460A4907F014
:107BD00055FA6946002002F0AFF9002021B030BD0F
:107BE00090070200583500208096980040420F0010
:107BF000A086010010270000B807020030B5ADB024
:107C00006B469D1D281C00F0FBFC041E09D0164984
:107C10000CA807F033FA00200CA902F08DF901201E
:107C20001FE0288802A9FEF7ADFA02AA0F4907A8AB
:107C300007F0F8F90E4907A8FEF77EFB2A880D49E0
:107C40000CA807F0EFF90CA9201C02F075F904222A
:107C5000094B291C1868131CFEF768FEFEF76EFA24
:107C6000201C2DB030BDC046D9070200B50B020064
:107C700057010200FD0702005835002030B51D4BAA
:107C8000A1B01A7E002A01D100242FE001201C6936
:107C90005D69002100196941DA68186159618A42F9
:107CA00007D802D19A68824203D8002000211861C7
:107CB00059611A69012AE7D15A69002AE4D10E49AB
:107CC0000C78002C0DD1FFF799FF051E0ED00B4943
:107CD000684607F0D3F9201C694602F02DF92C1CE8
:107CE00004E000200021141C18615961201C21B0FF
:107CF00030BDC0465835002018330020110802005E
:107D000010B5A0B0041C0949684607F0B7F96946E8
:107D1000002002F011F9002000210122044B18611B
:107D200059611C601A7620B010BDC0468908020057
:107D3000C835002030B5A1B01D49684607F09EF94E
:107D40000020694602F0F8F81A4C00222368251C2E
:107D500036331878002322616361012303402376C0
:107D60004009042813D806F05DFC03050B0D0F0035
:107D7000114800E01148FEF7DFF9A860E9600CE067
:107D80000F48F8E70F48F6E7FA208000F3E7FA20FB
:107D9000C000FEF7D1F9A060E16068460A4907F02B
:107DA0006DF96946002002F0C7F8002021B030BD0F
:107DB00096080200C83500208096980040420F00C7
:107DC000A086010010270000B908020010B5ACB071
:107DD00001A801F0A3FF041E08D00CA8144907F065
:107DE0004DF90CA9002002F0A7F81EE0019802A9A5
:107DF000FEF7C8F902AA0F4907A807F013F90E49C0
:107E000007A8FEF799FA019A0C490CA807F00AF99D
:107E10000CA9201C02F090F8094B01A91868042253
:107E20000123FEF783FDFEF789F9201C2CB010BD5D
:107E3000D5080200B50B020057010200FA08020043
:107E4000C835002030B51D4BA1B01A7E002A01D1E3
:107E500000242FE001201C695D690021001969419F
:107E6000DA68186159618A4207D802D19A68824259
:107E700003D800200021186159611A69012AE7D14D
:107E80005A69002AE4D10E490C78002C0DD1FFF775
:107E90009DFF051E0ED00B49684607F0EFF8201C29
:107EA000694602F049F82C1C04E000200021141C53
:107EB00018615961201C21B030BDC046C835002072
:107EC000183300200909020010B5A0B0041C0849AD
:107ED000684607F0D3F86946002002F02DF800202C
:107EE0000021044B186159611C60187620B010BD48
:107EF00072090200F836002030B5A1B01B4968466F
:107F000007F0BCF80020694602F016F8184C002271
:107F10002368251C8E3318780023226163610123B6
:107F200003402376400903280FD806F07BFB0204A8
:107F30000A0C104800E01048FEF7FEF8A860E9605F
:107F400009E00E48F8E70E48F6E7FA20C000FEF711
:107F5000F3F8A060E16068460A4907F08FF86946C7
:107F6000002001F0E9FF002021B030BD7F090200B0
:107F7000F83600208096980040420F00A08601004D
:107F8000102700009E09020030B5A5B06B469D1C6D
:107F9000281C00F035FB041E09D0144904A807F082
:107FA0006DF8002004A901F0C7FF01201BE02A881A
:107FB0000F4901A807F036F80E4901A8FEF7BCF9F1
:107FC0002A880D4904A807F02DF804A9201C01F007
:107FD000B3FF0A4B291C186804220723FEF7A6FCEE
:107FE000FEF7ACF8201C25B030BDC046BA0902002F
:107FF000D009020057010200D4090200F83600201F
:1080000030B51D4BA1B01A7E002A01D100242FE00B
:1080100001201C695D69002100196941DA68186155
:1080200059618A4207D802D19A68824203D8002057
:108030000021186159611A69012AE7D15A69002A99
:10804000E4D10E490C78002C0DD1FFF79DFF051EE1
:108050000ED00B49684607F011F8201C694601F064
:108060006BFF2C1C04E000200021141C18615961D6
:10807000201C21B030BDC046F83600201833002047
:10808000DD09020010B5A0B0041C0849684606F0DE
:10809000F5FF6946002001F04FFF00200021044B4E
:1080A000186159611C60187620B010BD460A0200A4
:1080B0008835002030B5A1B01B49684606F0DEFFC8
:1080C0000020694601F038FF184C00222368251C67
:1080D00078331878002322616361012303402376FB
:1080E000400903280FD806F09DFA02040A0C104834
:1080F00000E01048FEF720F8A860E96009E00E48AB
:10810000F8E70E48F6E7FA20C000FEF715F8A06081
:10811000E16068460A4906F0B1FF6946002001F0B7
:108120000BFF002021B030BD550A02008835002029
:108130008096980040420F00A086010010270000A2
:10814000760A020030B5A5B06B469D1C281C00F0D5
:1081500057FA041E09D0144904A806F08FFF002026
:1081600004A901F0E9FE01201BE02A880F4901A8BB
:1081700006F058FF0E4901A8FEF7DEF82A880D49DF
:1081800004A806F04FFF04A9201C01F0D5FE0A4BFD
:10819000291C186804220623FEF7C8FBFDF7CEFF52
:1081A000201C25B030BDC046940A0200D009020050
:1081B00057010200AE0A02008835002030B51D4B81
:1081C000A1B01A7E002A01D100242FE001201C69F1
:1081D0005D69002100196941DA68186159618A42B4
:1081E00007D802D19A68824203D800200021186182
:1081F00059611A69012AE7D15A69002AE4D10E4966
:108200000C78002C0DD1FFF79DFF051E0ED00B49F9
:10821000684606F033FF201C694601F08DFE2C1CD9
:1082200004E000200021141C18615961201C21B0B9
:1082300030BDC0468835002018330020B90A02003E
:1082400010B5A0B0041C0949684606F017FF69463E
:10825000002001F071FE002000210122044B186172
:1082600059611C601A7620B010BDC046280B020070
:10827000D036002030B5A1B01B49684606F0FEFE9E
:108280000020694601F058FE184C00222368251C86
:108290000133D87F002322616361012303402376E9
:1082A000400903280FD806F0BDF902040A0C104853
:1082B00000E01048FDF740FFA860E96009E00E48C3
:1082C000F8E70E48F6E7FA20C000FDF735FFA0609A
:1082D000E16068460A4906F0D1FE6946002001F0D7
:1082E0002BFE002021B030BD370B0200D03600201D
:1082F0008096980040420F00A086010010270000E1
:10830000660B020030B5B3B002A801F0EBFC041E0E
:1083100008D012A8184906F0B1FE12A9002001F0F9
:108320000BFE26E003AD291C0298FDF72BFFFFF79B
:10833000F7FB08A9FDF726FF08AB02220F490095BD
:108340000DA806F06FFE0E490DA8FDF7F5FF029A85
:108350000C4912A806F066FE12A9201C01F0ECFDE3
:10836000094B02A918680422231CFEF7DFFAFDF767
:10837000E5FE201C33B030BD840B0200AE0B0200C2
:1083800057010200B90B0200D036002030B51D4B5A
:10839000A1B01A7E002A01D100242FE001201C691F
:1083A0005D69002100196941DA68186159618A42E2
:1083B00007D802D19A68824203D8002000211861B0
:1083C00059611A69012AE7D15A69002AE4D10E4994
:1083D0000C78002C0DD1FFF795FF051E0ED00B4930
:1083E000684606F04BFE201C694601F0A5FD2C1CDA
:1083F00004E000200021141C18615961201C21B0E8
:1084000030BDC046D036002018330020CA0B020011
:1084100010B5A0B0041C0849684606F02FFE694656
:10842000002001F089FD00200021044B18615961F2
:108430001C60187620B010BD390C0200A835002051
:1084400010B5A0B0041C0949684606F017FE69463D
:10845000002001F071FD002000210122044B186171
:1084600059611C601A7620B010BDC046B90C0200DC
:10847000F035002030B5A1B01B49684606F0FEFD7E
:108480000020694601F058FD184C00222368251C85
:108490004C33187800232261636101230340237663
:1084A000400903280FD806F0BDF802040A0C104852
:1084B00000E01048FDF740FEA860E96009E00E48C2
:1084C000F8E70E48F6E7FA20C000FDF735FEA06099
:1084D000E16068460A4906F0D1FD6946002001F0D6
:1084E0002BFD002021B030BDC70C0200F03500206C
:1084F0008096980040420F00A086010010270000DF
:10850000EA0C020010B5ACB001A801F023FC041E77
:1085100008D00CA8144906F0B1FD0CA9002001F008
:108520000BFD1EE0019802A9FDF72CFE02AA0F49DF
:1085300007A806F077FD0E4907A8FDF7FDFE019A92
:108540000C490CA806F06EFD0CA9201C01F0F4FCEF
:10855000094B01A9186804220223FEF7E7F9FDF789
:10856000EDFD201C2CB010BD070D0200B50B020064
:10857000570102002D0D0200F035002030B51D4BD3
:10858000A1B01A7E002A01D100242FE001201C692D
:108590005D69002100196941DA68186159618A42F0
:1085A00007D802D19A68824203D8002000211861BE
:1085B00059611A69012AE7D15A69002AE4D10E49A2
:1085C0000C78002C0DD1FFF79DFF051E0ED00B4936
:1085D000684606F053FD201C694601F0ADFC2C1CDA
:1085E00004E000200021141C18615961201C21B0F6
:1085F00030BDC046F0350020183300203C0D02008D
:1086000073B5002401AE051C311C03207470347056
:1086100001F00AFC0F22717806480B0131781140F5
:108620001943298009B206F0D1FC052005F09AFE15
:10863000201C76BDA80D02000123C046C046C046DE
:10864000C046C046C046C046C046C046C046C046FA
:10865000C046C046C046013B002BEED1704700002B
:10866000002008B5011C021C00F086FD064BEC2220
:108670001860A0230321DB05D20099508021A1229C
:108680004904D200995008BD902B002080B5021CEF
:108690006846CB1DDB08DB00C31A00AF9D46044BC8
:1086A00089B218686B4600F0C3FDBD4680BDC04668
:1086B000902B0020B0B5031C6846CA1DD208D2001A
:1086C000821A00AF95460C1C68466C44A04203D049
:1086D000FF2505700130F9E7034889B2006800F012
:1086E000A7FDBD46B0BDC046902B002037B5094C54
:1086F0006B46DD1D281C0121FFF7DCFF2B78FF2BCB
:1087000004D0013CFFF798FF002CF1D1601E84419A
:10871000E0B23EBD20A1070007B5A1238021A02221
:108720004904DB00D205D1506B460121D81DFFF76B
:10873000C1FF07BD13B5A0228021094BD205490412
:10874000D1506B460121D81DFFF7B4FFFFF7CEFFD4
:10875000041E02D1FFF7E0FF00E00124201C16BD3B
:108760000C050000F7B5071C0E1C0F4D01AC201CBA
:108770000121FFF79FFF2378FF2B0DD023780020E6
:10878000FE2B0FD1381C311CFFF794FF201C022157
:10879000FFF790FF012005E0013DFFF74DFF002DA1
:1087A000E4D1EBE7FEBDC046A0860100F7B5071C8B
:1087B0000E1CFFF79BFF041E1CD001AD281C0121DD
:1087C0002E700124FFF762FFFD2E13D08021381C8C
:1087D0008900FFF75BFF281C0221FFF76BFF211CBC
:1087E000281CFFF767FF1F232C781C40053C6342C1
:1087F0005C41E4B2201CFEBD30B543B285B0041C20
:108800000D1C002B07DA37200021FFF7F5FF0128A8
:108810003AD87F231C400C2C0ED1402302A82343BE
:1088200003702B0E43702B0C83702B0AC3700571E1
:108830009523002C0FD00AE0002CEED0FFF76CFF40
:10884000FFF778FF031CFF20002B1DD0E5E78723EF
:10885000082C00D0863B06214371FFF717FF6B46BB
:10886000DD1D0C2C03D1281C0121FFF723FF0A2456
:10887000281C0121FFF71EFF287843B2002B03DAE2
:10888000013CE4B2002CF3D105B030BD45DF7047A8
:1088900047DF70474EDF704750DF704710B50C4B15
:1088A000041C1B6899420AD800208C420FD3094A45
:1088B0001268D31A59188C428041404207E0CB1A03
:1088C00001209C4203D300238C425B41D8B210BDEF
:1088D00004200020942B002010B5041E0F2C06D875
:1088E000C0B2FFF7D5FF0120A040FFF7CFFF10BDBA
:1088F000012230B5151CA123A0248D40DB00E40526
:10890000E550094B8000C018A223084CDB00C4507E
:10891000C046C046C0460260054A09021143C15024
:10892000C046C046C04630BD00600040031F010085
:1089300003001300F7B50378041C013B032B00D997
:10894000D7E0031C34331878052800D9D1E0A222DF
:10895000694FD200694B05F065FE0305070C101244
:10896000092107E009210BE00621B950FA22920003
:1089700008E00321B950642204E0012100E0002155
:10898000B950FF221A60A222D200BA585C49895C11
:108990005C4A116022785A6000230192019A934246
:1089A00017D2E118554D4A78980008354251A02554
:1089B0000326C132FF329200ED05565100254F4A81
:1089C0003031183285504D4A097828329954013394
:1089D000E4E7A12200230125D200FD60BB50474AF5
:1089E000802611680420D162A922D200B950944691
:1089F000454AB600BB50454AB8511365D3649364E9
:108A00005364019A022A13D9414AD560A125ED0089
:108A10005351654651513C4953503E4990510B6565
:108A2000CB648B644B64A2233349DB00C958D1501B
:108A3000019B002B2ED0314D374B28352E783749EE
:108A4000B600F618231C28331878321CFFF744FFB1
:108A5000231C29331878321C3149FFF73DFF0023CE
:108A6000264E30363370019B012B13D06D782A4B84
:108A7000AD00ED18231C2A3318782A492A1CFFF769
:108A80002BFF231C2B33187825492A1CFFF724FFC2
:108A90000023737002252C34019B9D4218D2174B82
:108AA00020782833EE5C1C4BB600F6181E4B321CA7
:108AB000E9188900FFF710FF6078321C1B49FFF7A7
:108AC0000BFF00220D4B02343033EA540135E3E74B
:108AD0001748FFF7DFFE0123164A00201360074AFC
:108AE0003B605268022A06D9134A1360084A136091
:108AF00001E001204042FEBD00A00040942B002078
:108B0000B90D02000420002004050000FCA0004074
:108B100000900040FC9000400060004040A10040F8
:108B200048A1004044A100404E240010489100405C
:108B3000098E01000CAC00400C9C00401FB50B4B93
:108B400082009A185163012230331A5400236A4676
:108B500013701371FA2202926A465371044B6846ED
:108B60000393FFF799FE05B000BDC046942B00208B
:108B7000A086010070B517490123174A002806D0C6
:108B80000B605268022A24D9144A136021E04B601A
:108B90005068022801D911494B600023834218D044
:108BA000111C2831595C0E4D45310E4CFF318900A6
:108BB0000D51111C9C00083165580121A026A940C7
:108BC000094DF6057151111C00251831655001330E
:108BD000E4E770BD00A00040942B0020009000400E
:108BE000001F0300006000400C050000A922F0B542
:108BF0007E4C7F49E36AD20023608B50606885B069
:108C00000291022801D97B498B5000236364666C72
:108C100063689E4200D3E6E0231C30339A5D002A4D
:108C200000D1DDE00022B50065199A556B6B019308
:108C3000934212D1231C28339B5D6F4945336F4A01
:108C4000FF339B0099500123AA68A02193406C4AEE
:108C5000C9058B50019BAB61C2E0019B21688B422F
:108C600012D3231C28339B5D634845336349FF338C
:108C70009B0058500123A968A0208B40A121C0056A
:108C8000C9004350AA61ABE0019BA364012E54D8F4
:108C9000331C5133FF33029A9B00D358544F039334
:108CA000E364AB69002B18D1231C28339E5DA968AF
:108CB000301CFFF71DFE0123524AAB61FB64BA581A
:108CC00001998A4231D94D4AB600B3502DE0785906
:108CD0000199FFF7E3FD00280CD10123029A494DC9
:108CE000D364029B03995859414FFFF7D7FD0028E1
:108CF000F3D0ECE77B59039A934203D37B59019A53
:108D000093420BD33F4A029B9B58039A93420CD247
:108D1000374A3C4BD358019A934206D3231C012176
:108D200028339B5D354A9B009950636C029A5133FE
:108D3000FF33A16C9B00D15052E0331C4F332D4FB9
:108D4000FF339B00DB590393E364AB69002B19D11C
:108D5000231C28339E5DA968301CFFF7C9FD012341
:108D6000284AAB61FB64BA5801998A4232D9234A36
:108D7000B600B3502EE01F4B01995859FFF78EFDF6
:108D800000280BD101231B4A1E4DD364131C0399E9
:108D90005859FFF783FD0028F4D0ECE7154B039AF0
:108DA0005B59934204D3134B019A5B5993420AD304
:108DB000144B039AFB5893420CD20E4A114BD358D2
:108DC000019A934206D3231C012128339B5D0B4A51
:108DD0009B009950636CA26C4F33FF339B00FA5099
:108DE000636C013312E705B0F0BDC046942B002040
:108DF00000A0004000900040001F03000060004001
:108E00000C0500004C050000064B02211A1C5032D4
:108E100010B511701C1C002801D1FFF7E7FE201CC3
:108E2000503010BD942B0020002170B500781F4BEE
:108E3000CAB25C1865781C1C854200D1101C013137
:108E40000429F4D1421CD100635C012B08D16118C4
:108E50004B78002B01D1CB7800E000234B701EE053
:108E6000022B21D163189D785978002D06D0DE7829
:108E70000431B14208DB5E70002103E0042903DC09
:108E800001215D7099700AE0D300E3185978042637
:108E9000002D00D1F836D3007118E3185970D200B4
:108EA000A3185978FFF74AFE70BDC046082000207D
:108EB000F8B50023234CDDB2E21852785F1C8242E1
:108EC0003CD1061C0020FFF755FEFB00E318586854
:108ED00004F03CF8032D0DD0691C63185B7865190C
:108EE0006B704B1CCA00DB00A218E31821CB21C217
:108EF000CDB2EFE7FF2300250121201C2371631C65
:108F0000DD77A31CDD77E31CD977231DDD770E4ABF
:108F1000243003F0ADFF2378201C013B2370FFF7C2
:108F200009FD2B1C221C3832995CB14202D1FF2171
:108F3000D15406E00133042BF4D102E03B1E042B94
:108F4000B8D1F8BD08200020298E0100F0B5051C1D
:108F5000A5B0019103921E1CFFF7AAFF2B1CA022B3
:108F60000321C133FF33D2059B0099500123AB404D
:108F7000002739495350394C7A1CE3195B78029227
:108F8000FF2B62D1012E04D13220019B4343019378
:108F900008E06420019B5843039B9908490005F0B1
:108FA000DBFB01900020FFF7E5FD6A46E7197D70C5
:108FB0002378127B01332370029BDB00E654E31815
:108FC000DA700023221C3832995CDFB2FF2901D10C
:108FD000D55403E00133042BF4D11F1C201CFFF7F0
:108FE000A9FC002804D0281CFFF762FF1C4C30E0CD
:108FF000029B0199DB00E318CA0302934B0C00218A
:109000001848383480185941174A002305F096FC57
:10901000029B011CE219586803F050FF041EE2D1C4
:109020002B1C1C3B012B02D8012002F0F7FD012074
:10903000FFF7A0FD04A80D492A1C331C05F0F2FF20
:1090400004A9002000F078FF03E0029F042F92D1D2
:10905000074C201C25B0F0BD0C05000008200020A6
:1090600005600000DC050000B80B0000C30D020025
:109070000360000038B5094B1D1C2C331C1C0C353B
:10908000281C0121064A03F0F3FE002803D108350D
:10909000A542F5D100E0034838BDC04608200020B5
:1090A000298E01000460000010B5041CFFF700FFCA
:1090B000012002F0B3FD231CA02203210120C133B3
:1090C000FF33D2059B009950A123A040DB00D05074
:1090D000002010BD10B5041CFFF7EAFE002002F0CE
:1090E0009DFD0120231CA0220321A040C133FF339A
:1090F000D2059B009950024BD050002010BDC046B5
:109100000C05000070B5041C0E1C151CFFF7D0FEEA
:10911000231CA0220321C133FF33D2059B009950A9
:109120000123181CA04004495050311C2A1C201C4B
:10913000FFF70CFF70BDC0460C05000070B5041CA5
:109140000E1C151CFFF7B4FE231CA0220321C13303
:10915000FF33D2059B0099500123A3400549201CF1
:1091600053500A2171432A1CC9B20223FFF7EEFEB5
:1091700070BDC0460C050000A02370B5DB050324BC
:10918000234D002830D1234E9C510C3E9C51224E41
:109190009851EC20C0001C50A12419261F48E4005F
:1091A0000651033E4651A2250136ED004651802569
:1091B0006D041D5180241A4B0139E405C9B2C45015
:1091C0000023022901D8174B5B5C1749002A01D004
:1091D000012213434350031C0022FC33DA60A02316
:1091E0000132DB00C25070BDEF200026C0001C50D1
:1091F0001C501E50A1261C501E240C48F600845101
:109200004451A225ED0044518024E4059C51D1E74E
:109210000C050000640700005C07000000300040FF
:1092200024050000E20D020054050000004000404B
:10923000F7B51D4C009101931821A04200D00631D2
:109240000125A0248D401949E405655000210E1C1C
:10925000009B8CB29C4220D2575C154C0751071CD6
:10926000FC37FC68002C0BD0C02300249B019E42DD
:109270000BD1A123A022DB00D205D550201C12E087
:109280000C4CA642F0D80136E9E7FC60A324E400C8
:109290000459019B5C540131DAE7A123A02201208B
:1092A000DB00D205D550FEBD003000400C050000AB
:1092B0001C050000FF2F0000F0B585B000AF7A60FC
:1092C000F973002B0CD101220F334000F918C0B202
:1092D000131C02F061FD012358404042C0B224E05B
:1092E00069466C465B00B960D91DC908C900611A9E
:1092F0008D460024FE7B9C420BDA6508AA190A55AC
:109300000A1994467A680234555D6246E4B2557093
:10931000F1E74000DAB2C0B2012302F03DFD0123C3
:109320005840BB6840429D46C0B2BD4640B205B001
:10933000F0BD08B505F016F808BDF8B5161C0022FA
:109340001D1C131C041CFFF7B7FF00281DD10127AB
:1093500064003C433B1CE0B2311C2A1C02F01CFDA3
:10936000042378404042C0B2C046C046C046C04612
:10937000C046C046C046C046C046C046C046C046BD
:10938000C046C046013B002BEED140B2F8BD000004
:10939000002373B501AC23706370A3700C4B1A6883
:1093A0008123002A12D0131C2933051C566B187810
:1093B000221C0323FA21B04763781A0123781B0388
:1093C0001343A278120913432B60031C58B276BDD5
:1093D000EC2B002010B50D4B02111968C0100C8841
:1093E000121B6400001B02240B5F5843131C5343E1
:1093F00004240A5F1B135343C0129B13C318052098
:109400005843803000124B6210BDC046EC2B002048
:10941000002373B501AC23706370A3700C4B1A6802
:109420008123002A12D0131C2933051C566B18788F
:10943000221C0323F721B04763781A0123781B030A
:109440001343A278120913432B60031C58B276BD54
:10945000EC2B002070B5274B274A1C684042636AFA
:109460005B109B18991049431025625FCE1256433A
:109470000E25625F49135A43550072190A26A55FEB
:10948000921069430826A55FC9106B435B10CB1887
:1094900080219B1409025B18E18859430C25635F06
:1094A000C9131B04D2181213144B801A5843144BBF
:1094B0000025C01805D4A9421AD0400005F0BCF818
:1094C00004E0A94214D005F0B7F84000C3085B439C
:1094D0001621625E5B0B53431421625E850855437F
:1094E0001B136D131221625E5B199B181B11C518AB
:1094F000281C70BDEC2B00200006FFFF350C00007F
:10950000000050C3002373B501AC237063700B4B94
:109510001A688123002A0ED0131C2933051C566BB0
:109520001878221C0223FD21B047237862781B02A1
:1095300013432B60031C58B276BDC046EC2B0020B1
:10954000F0B51D4B1D4A1D6886036B6A1F219F18CD
:109550001E23EA5E287F1205B41A2023EA5E8023C8
:109560007A43DB01A21AD218EB1C595680237843A8
:109570001B02C012C01880237943891241439B0308
:109580008912C9181A23EC5E802361439B01CB1812
:109590009B13D2135A43D3135B43287EDB114343FF
:1095A0001B11D31AD843C822C01703405205934257
:1095B00000DD131C1813F0BDEC2B002000D4FEFFBF
:1095C000F0B589B001AC201C00211A2205F058FC2E
:1095D0003F4D81202B68002B00D175E01A1C2932E9
:1095E0005E6B10788821221C1A23B047627821789C
:1095F0002B6812020A431A800322A256A178120293
:109600000A435A800522A256217912020A439A80FF
:10961000E279A17912020A43DA800922A256217A5C
:1096200012020A431A810B22A256A17A12020A439D
:109630005A810D22A256217B12020A439A810F22DF
:10964000A256A17B12020A43DA811122A256217C82
:1096500012020A431A821322A256A17C12020A4362
:109660005A821522A256217D12020A439A8217229B
:10967000A256A17D12020A43DA82627E061C1A7685
:109680001A1C293210785F6BE121221C0723B8478E
:109690000122A256217812020A4303212B68801965
:1096A0005A83A278C0B21A77615622790D010F2130
:1096B00011402943D98305216156120909010A4342
:1096C0001A84A2790333DA7740B209B0F0BDC046FC
:1096D000EC2B002073B56A46D51D00222A70021CAF
:1096E000031C094E293230605C6BD02110780123B5
:1096F0002A1CA04733682A7828331A70041CFFF705
:109700005FFF001940B276BDEC2B002073B56B46AD
:10971000DD1D00232B700A4B1A688123002A0DD00F
:10972000131C2933041C566B18782A1C0123F421BE
:10973000B04703232A7813402370031C58B276BD28
:10974000EC2B002013B56B46DA1DB6231370074BC4
:1097500081201B68002B06D0191C293108781C6B4E
:10976000E0210123A04740B216BDC046EC2B0020EB
:1097700038B5084B041C1D688120002D07D0281C1B
:109780002930131C00780A1C211C2C6BA04740B206
:1097900038BDC046EC2B002038B5084B041C1D68B2
:1097A0008120002D07D0281C2930131C00780A1CAA
:1097B000211C6C6BA04740B238BDC046EC2B00208A
:1097C0000023F0B5364C85B002AA571D5371961D83
:1097D0009371D371226803AD01902B7081209A425E
:1097E0005BD0019B2E32590113781F221A400B1CAB
:1097F000381C13432B70FFF789FF3B78002B1ED0DA
:10980000FFF7A0FF236803209B6B9847236802AAF9
:109810002F331B78D11DD371F5200122FFF7A8FF4C
:109820002368311C2D331B780122F2203370FFF79F
:109830009FFF291C0122F420FFF79AFF08E023680C
:10984000F4211A1C293210781E6B2A1C0123B04700
:109850006A46236812792A331A70291C0122F420DF
:10986000FFF79AFF23682A782E33061C1A70291CEA
:109870000122F220FFF790FF23682A782D33801908
:109880001A70C6B20122F520291CFFF785FF236854
:109890002A7830182F331A70C0B240B205B0F0BD2C
:1098A000EC2B00200023F0B5374C85B002AA571DE1
:1098B0005371961D9371D371226803AD01902B7083
:1098C00081209A425CD0019B65389B000340191CA3
:1098D0002E32137883430B43381C2B70FFF716FF8F
:1098E0003B78002B1ED0FFF72DFF236803209B6BD6
:1098F0009847236802AA2F331B78D11DD371F52016
:109900000122FFF735FF2368311C2D331B7801221C
:10991000F2203370FFF72CFF291C0122F420FFF7FF
:1099200027FF08E02368F4211A1C293210781E6BE7
:109930002A1C0123B0476A46236812792B331A7018
:10994000291C0122F420FFF727FF23682A782E33F1
:10995000061C1A70291C0122F220FFF71DFF236844
:109960002A782D3380191A70C6B20122F520291CDD
:10997000FFF712FF23682A7830182F331A70C0B20D
:1099800040B205B0F0BDC046EC2B00200023F0B57E
:10999000434C85B002AA551D9371D71DD37122681F
:1099A00003AE009033702B7081209A4275D02D3217
:1099B000137800997A38014083430B43381C337085
:1099C000FFF7A4FE3B780190002B27D0FFF7BAFEEB
:1099D0002368071C9B6B03209847236802AA2F3338
:1099E0001B78911D9371F5200122FFF7C1FE019BA9
:1099F000311C3F180122F220FF18FFF7B9FE23683F
:109A0000FFB22E331B783F18291CF42001222B7043
:109A1000FFF7AEFEFFB23F18FEB216E02368F22158
:109A20001A1C293210781F6B321C0123B847236897
:109A3000061C2E331B78F420291C01222B70FFF703
:109A400097FE019B3618F618F6B26A46144C127847
:109A5000236803AD2C331A70291C0122F420FFF770
:109A60009BFE23682A782E331A708619291C01223E
:109A7000F220FFF791FE23682A78F6B22D333018D2
:109A80001A70C6B20122F520291CFFF785FE236853
:109A90002A7830182F331A70C0B240B205B0F0BD2A
:109AA000EC2B0020F7B56B466A46DE1C0023334CD6
:109AB00053719371D51D226801AF33703B702B70C9
:109AC0008133002A57D07D33032854D82E3213789F
:109AD0000322934318433070381CFFF717FE3B787E
:109AE000002B1FD0FFF72EFE236803209B6B9847A7
:109AF0006A462368911D2F331B78F520937101224C
:109B0000FFF736FE6A462368511D2D331B78F2207D
:109B100053710122FFF72CFE311C0122F420FFF7C4
:109B200027FE08E02368F4211A1C293210781F6BE5
:109B3000321C0123B847291C0122F420FFF72CFE18
:109B400023682A782E331A70061C291C0122F22061
:109B5000FFF722FE23682A782D331A708619291CF4
:109B60000122F520FFF718FE2268F6B22978331893
:109B70002F321170DBB258B2FEBDC046EC2B002074
:109B80000023F0B5394D85B002AA53719371D3719A
:109B9000971DD61D2A6803AC23708133002A62D03A
:109BA0001C212F32137880008B430840184320700B
:109BB000381CFFF7ABFD3B780190002B27D0FFF757
:109BC000C1FD2B68071C9B6B03209847211C0122B9
:109BD000F520FFF7CDFD019B3F18FF182B68311CC6
:109BE0002D331B780122F2203370FFF7C1FD2B6863
:109BF00002AA2E331B78FFB23F185371511DF42077
:109C00000122FFF7B5FDFFB23F18FFB209E02B6854
:109C1000F5211A1C293210781D6B221C0123A8473C
:109C2000071C211C0122F420FFF7B6FD0F4D2278FE
:109C30002B68C7192E331A70211C0122F220FFF75E
:109C4000ABFD2B6822782D33FFB21A703F18211C10
:109C50000122F520FFF7A0FD2A68FFB221783B180A
:109C60002F321170DBB258B205B0F0BDEC2B0020E2
:109C700008B5174A174B1A63174A5A631A1C293238
:109C80001070164A181C9A63FFF724FD002801D0B3
:109C900013481BE00320FFF705FF0028F8D1FFF76A
:109CA0006FFF0028F4D10130FFF770FE0028EFD1DC
:109CB0000130FFF7F7FD0028EAD10130FFF780FD02
:109CC0000028E5D1FFF7EEFE0028E1D108BDC0462F
:109CD000B99201001C3700203B930100339301002F
:109CE00003200000002313B5041C036001A80193A6
:109CF000FFF74EFB00280AD10198FFF76BFB2060AD
:109D00000120FFF7CFFE002802D0024800E0024801
:109D100016BDC0460120000002200000002313B53C
:109D2000041C036001A80193FFF772FB00280AD10D
:109D30000198FFF78FFB20600120FFF7B3FE00289A
:109D400002D0024800E0024816BDC04601200000D3
:109D500002200000002313B5041C036001A8019336
:109D6000FFF7D0FB00280AD10198FFF7E9FB20603C
:109D70000120FFF797FE002802D0024800E00248C9
:109D800016BDC046012000000220000008B5031CDB
:109D90000A1C06490878191C012301F0FDFF002860
:109DA00001D0002000E0024808BDC046F02B002092
:109DB0000130000010B5104B041C187801230A1C58
:109DC0001843211C01F0E8FF002812D00423C046EC
:109DD000C046C046C046C046C046C046C046C04653
:109DE000C046C046C046C046C046013B181EEED124
:109DF00000E0024810BDC046F02B002002300000F9
:109E000007B5074B400018706B46D81D822301210F
:109E10000370FFF7BBFF002800D002480EBDC0460C
:109E2000F02B00200330000013B50B2818D86A4629
:109E3000031CD01D1F225B00524213439E320C1C98
:109E4000134001210370FFF7A1FF002801D005484E
:109E500007E0201C0221FFF7ADFF0028F7D100E04A
:109E6000014816BD0530000004300000F0B5161C96
:109E70001822071C424303202E4B85B09A18D36A40
:109E80000391184002280DD0111C2031936A4968B3
:109E90005B1A013B01D5126A9B189E4202DD002825
:109EA00045D01E1C0020864241D001901822101C73
:109EB0007843204B1818011C2031846A4968641AC1
:109EC000191C013C01D5036AE4187A438A18101C56
:109ED000136A20300293536A029AD31A9C4201DB20
:109EE0004468141BB44200DD341C18231D1C781C6C
:109EF00043437D43CB184D196A6A5868039980180B
:109F0000221C04F0B4FF019B361B1B190193039B19
:109F1000029A1B1903936B6A20351C196C606B68DD
:109F2000934201D100236B60002EBFD1019805B090
:109F3000F0BDC0464420002010B50A1E06D00B1C00
:109F40001C785A1A002C01D00133F9E7FFF78EFF75
:109F500010BD0000B0B5131C6C460833DB08DB00F5
:109F6000E31A00AF9D466C4600232070D8B29042A1
:109F700004D2CD5CE01845700133F7E7064B211C95
:109F80001878012301F008FF002801D0002000E02C
:109F90000248BD46B0BDC04602300020014000006E
:109FA00073B56B46141C0122154ED9710733051C7D
:109FB000191C3078131C01F0EFFE00281BD0012380
:109FC0003078291C1843221C01F0E6FE002814D02A
:109FD0000423C046C046C046C046C046C046C04630
:109FE000C046C046C046C046C046C046C046013B0B
:109FF000181EEED102E0034800E0034876BDC046DB
:10A0000002300020014000000240000013B501AC06
:10A01000201C0C210222FFF7C3FF002801D00B48AF
:10A0200013E0202263780C209343211C1E3A6370B6
:10A03000FFF790FF0028F2D120706070211C1A30C9
:10A040000222FFF787FF0028E9D116BD0440000077
:10A0500037B5234B400001AC18701821201C022298
:10A06000FFF79EFF002801D01E4837E0201C082182
:10A070000222FFF795FF0028F6D120706070211CA6
:10A0800006300222FFF766FF0028EDD120706070D5
:10A09000211C0A300222FFF75DFF0028E4D17C2357
:10A0A000FF251830211C022223706570FFF752FF34
:10A0B0000028D9D197230C302370211C3B3B02226E
:10A0C0006370FFF747FF0028CED12070211C1430A9
:10A0D00002226570FFF73EFF0028C5D13EBDC04695
:10A0E000023000200340000008B504210222FFF7DF
:10A0F00057FF002800D0014808BDC04605400000B9
:10A1000037B501AD041C1A21281C0222FFF748FFB5
:10A1100000281CD101222B78134201D0207013E0BB
:10A1200002210B420AD10422134201D021700BE01C
:10A13000190701D5032306E0D90601D5227003E0F3
:10A140009B0601D505232370FFF760FF00E001485F
:10A150003EBDC04606400000F7B56B46141C012208
:10A16000184F0D1CD91D08703878131C4000C0B260
:10A1700001F012FE061E01D13C210CE001233878CB
:10A18000E2B240001843C0B2291C01F005FE0423CE
:10A19000061E04D142210C4AFCF7A4FE10E0C04682
:10A1A000C046C046C046C046C046C046C046C0467F
:10A1B000C046C046C046C046C046013B002BEED15B
:10A1C000301CFEBD58370020EE0D020008B50122FC
:10A1D000FFF7C2FF08BD000098B5131C6C4608339A
:10A1E000DB08DB00E31A00AF18709D4600209042A8
:10A1F00004DA0130441E0C5D1C54F8E709490132B1
:10A200000878D2B24000191CC0B2012301F0C4FD8D
:10A21000041E03D18621044AFCF764FEBD46201CBF
:10A2200098BDC04658370020EE0D020007B56B46BA
:10A23000D9710733191C0122FFF7CEFF0EBDF0B50F
:10A2400085B0019302ABDD1D00230C1C291C061CEC
:10A25000171C2B70FFF7BAFF002810D00121B9405E
:10A26000E41B019B01340139A340A1402F78DCB2EB
:10A270008F4321403943301C2970FFF7D7FF05B0C9
:10A28000F0BD08B5131C0122FFF7D9FF08BD08B5C2
:10A290006B2007210122FFF7F4FF08BD08B5021C5F
:10A2A00004216B20FFF7EDFF08BD08B5021C052156
:10A2B0006B20FFF7E6FF08BD08B50021031C042250
:10A2C0001E20FFF7BCFF08BD08B5021C05216C204D
:10A2D000FFF7D7FF08BD08B5021C04216C20FFF76B
:10A2E000D0FF08BD08B5021C03216C20FFF7C9FF91
:10A2F00008BD08B5021C02216C20FFF7C2FF08BD93
:10A3000008B5021C01216C20FFF7BBFF08BD08B592
:10A31000021C00216C20FFF7B4FF08BD08B5022124
:10A32000031C03221D20FFF78AFF08BD08B5021C8D
:10A3300003211D20FFF7A5FF08BD08B538204021E7
:10A34000FFF774FF08BD08B51F200F21FFF76EFF50
:10A3500008BD000008B5184B1870FFF798FF1420CF
:10A3600004F000F80020FFF7A0FF0020FFF796FFA1
:10A370000020FFF7A9FF0020FFF7ADFF0020FFF747
:10A38000B1FF0120FFF7B5FF0120FFF7B9FF012062
:10A39000FFF7BDFF0120FFF7C9FF0120FFF7BEFF58
:10A3A000FFF7CBFFFFF7CFFF0320FFF785FF01206B
:10A3B000FFF77BFF08BDC046583700200423C04686
:10A3C000C046C046C046C046C046C046C046C0465D
:10A3D000C046C046C046C046C046013B002BEED139
:10A3E0007047000007B5094A01AB18705970107822
:10A3F000191C0222012301F0CFFC002803D0FFF733
:10A40000DDFF002000E002480EBDC0460330002002
:10A410001640000010B50F4C6378002B17D1FF21B8
:10A42000400020700320A170FFF7DCFF011E01D067
:10A4300009480DE00220FFF7D5FF011EF8D10120E9
:10A44000FFF7D0FF0028F3D10123637000E0034839
:10A4500010BDC04603300020074000000640000049
:10A46000002310B5934203D0CC5CC4540133F9E708
:10A4700010BD8218904202D001700130FAE7704797
:10A4800010B503681A1E10D0117820290BD93A296B
:10A4900001D00132F8E7591C1C788A4205D1302CD2
:10A4A00003D102330360002001E00120404210BDCF
:10A4B00010B50923002810D00268002A0DD01178A9
:10A4C00000290AD0D48881888C4206D1507801F0C6
:10A4D00035F90323C007C0170340181C10BDCB7EFD
:10A4E000021C887E1B021843032A05D14B7D0A7D7E
:10A4F0001B0213431B0418437047F8B5071CC56AB9
:10A5000030370123041C391C40782A1C01F0D8F98B
:10A510000123002814D1236AA2692071EB1A934207
:10A5200001D300230CE0E678012EFAD9A369607804
:10A53000ED18391C2A1C012301F0C2F9013EF3E792
:10A54000181CF8BD08B5031C02790020824202D015
:10A55000181CFFF7D2FF08BDF8B5041CFFF7F2FF87
:10A56000051E53D12378032B48D16779012F45D19C
:10A57000261C80223036301C291C9200FFF779FF00
:10A580005522234B4121E254224B9218E254221CC3
:10A59000DE3BFF3B313233701370231C61223233B8
:10A5A00085201A7059707223800023541A4823544E
:10A5B0001A4BE1541A4BE2542369B832FF32A354C8
:10A5C000184A190AA154184A190CA154174A1B0E0B
:10A5D000A354E3680132A354154A190AA154154A39
:10A5E000190CA154144A1B0EA354E36960785A1C39
:10A5F000E262311C3B1C01F063F965710021607857
:10A600000A1C01F0A9F9431E9841C0B2F8BDC0462A
:10A610002E0200002F0200001502000016020000AA
:10A6200017020000190200001A0200001B020000BD
:10A630001D0200001E0200001F02000070B5C36A68
:10A64000041C0E1C0025994210D0FFF77BFF051E4D
:10A650000CD1211C60783031321C012301F0F6F856
:10A66000002802D0012601357642E662281C70BD22
:10A67000002310B50371013BC362041CFFF7DEFF2A
:10A68000011C0320002939D11D4B1E4AE35CA25C4A
:10A690001B0213431C4A1BB2013893422ED1231CC8
:10A6A00069331B78081C1A06231C68331B781B04AB
:10A6B0001343221C663212781343221C673212782D
:10A6C00012021343114A1B021B0A934216D0231C89
:10A6D00085331878013B1B7800061B041843231CA4
:10A6E00082331B788334184323781B0218430002FB
:10A6F000074B000AC018431E9841C0B210BDC046A7
:10A700002F0200002E02000055AAFFFF4641540010
:10A71000BABEABFF0023F0B5036089B0071C081C6C
:10A72000161CFFF7ADFE0B23051E00DA8FE1C94BA7
:10A730008200D4580C23002C00D188E13C6023789F
:10A74000002B0DD0607800F0F9FF0123034007D102
:10A75000002E00D17BE1420700D478E10A2376E1A4
:10A760000023E8B22370607000F0F2FF0323C207F9
:10A7700000D56CE1002E01D04307EFD4201C00214E
:10A78000FFF776FF012828D1231C0020F333FF3385
:10A7900000221978914209D0DA7911069A791204C7
:10A7A0000A4319790A43597909020A43810004AD21
:10A7B00001304A5110330428EAD1002504AB5E5918
:10A7C0000220002E05D0201C311CFFF751FF00286D
:10A7D0000CD00435102DF1D135E1002601230328DA
:10A7E00000D134E1B04201D00D2330E1231C221C02
:10A7F0003C331B783B3212781B02134380221BB27E
:10A8000092009342F0D1231C221C47331B7846321E
:10A8100012781B02134311D1231C57331B781A06DD
:10A82000231C56331B781B041343221C543212780A
:10A830001343221C55321278120213430093009BDB
:10A84000A361231C40331A78531EE270012BCBD82E
:10A85000231C3D331978A1700029C5D04B1E194225
:10A86000C2D1231C42331F78013B1B783F021F4398
:10A8700027813B07B8D1231C44331878013B1B7850
:10A880000002184310D1231C53331878013B1B7866
:10A8900000061B041843231C50331B781843231C49
:10A8A00051331B781B021843231C251C3F331B7894
:10A8B0003E352D781B021D43019595D0009B5343D7
:10A8C0000393039A3B095B199B18029398428BD31D
:10A8D000C01A03F0B1FE002886D05F4B01259842D4
:10A8E00004D95E4D8542AD416D420235019B029A0D
:10A8F0000230F31892196061E6612362A262032DAF
:10A9000017D1002F00D06FE7231C5F331B78800026
:10A910001A06231C5E331B781B041343221C5C3273
:10A9200012781343221C5D321278120213436362C1
:10A930000FE0002F00D157E7039AD3186362022D6E
:10A9400001D1400005E003230122434310405B088E
:10A950001818434BC018009B400A834200D243E7BB
:10A9600001235B422361E36081336371032D61D175
:10A97000231C221C61331B78603212781B021343A4
:10A98000012B57D1711C201CFFF758FE002851D114
:10A99000344B6071344AE35CA25C1B021343334ABC
:10A9A0001BB2934246D1231C33331B781A06231C57
:10A9B00032331B781B041343221C303212781343AA
:10A9C000221C3132127812021343294A934231D1A8
:10A9D000284BE35C1A06284BE35C1B0413438522D7
:10A9E0009200A25C1343254AA25C12021343244A3C
:10A9F00093421FD1234BE35C1A06234BE35C1B04F9
:10AA0000134386229200A25C1343204AA25C1202E6
:10AA1000134323611E4BE35C1A061E4BE35C1B04CD
:10AA2000134387229200A25C13431B4AA25C1202CA
:10AA30001343E360074A2570938801339BB29380E8
:10AA4000E380002303E00123032800D0CCE6181C98
:10AA500009B0F0BD08300020F50F0000F5FF000040
:10AA6000FF0100002F0200002E02000055AAFFFF88
:10AA70005252614117020000160200001502000048
:10AA8000727241611B0200001A02000019020000EC
:10AA90001F0200001E0200001D020000436902396F
:10AAA0009A1E0023914203D28378826A59438B18FD
:10AAB000181C7047F7B50124A14265D94369994232
:10AAC00062D203780E1C051C022B2DD0032B3FD025
:10AAD000A34259D14F087F18036A790AC918FFF7B2
:10AAE000ADFD002802D0012464424DE07B1CFF052F
:10AAF000590A0193FF0D2B6AEF193037C918281C2A
:10AB00003F78FFF79BFD0028EDD1019BD805C00DD4
:10AB10002D1830352B781B021F43264201D03C09EB
:10AB200032E03F053C0D2FE0036A090AC918FFF720
:10AB300085FD0028D7D1FF2376005B001E40AB19AE
:10AB40003036AD1930336C781B7824021C431BE07F
:10AB5000036AC909C918FFF771FD0028C3D1FD3088
:10AB6000B600FF300640321C3032AA189478D378F1
:10AB700024041B061C435378AE191B0230361C43B9
:10AB800033781C4324012409201CFEBDF8B5051CA4
:10AB9000E98084680E1C012C01D1022038E0036892
:10ABA0005A699442F9D2002C0BD11A78032A02D1A7
:10ABB0005A6A002A04D11A899642EED2586A17E0DE
:10ABC000141C211C9F783F01BE420DD32868FFF75B
:10ABD00071FF011C431C1AD00128DED92B685B6968
:10ABE0009842DAD2F61BEFE728680C1CFFF756FFF5
:10ABF000EC600028D1D00F213309314018184901E9
:10AC00002B683031591828616961002000E001206B
:10AC1000F8BDF7B5041C0E1C151C022001297DD9B6
:10AC2000636999427AD22778874245D0032F57D05B
:10AC3000012F73D14B085B18590A0093236A201C1B
:10AC4000C918FFF7FBFC002868D1009B3E40013388
:10AC50000193009BEAB2DB05DB0DE318002E08D060
:10AC60001A1C303211780F220A40E9B209010A4356
:10AC7000D2B230331A7001232371019B201C590A70
:10AC8000236AC918FFF7DAFC002847D1019BDB05CE
:10AC9000DB0DE218002E02D02D09EDB208E0131CE6
:10ACA000303319780F232D0A99432B4019430D1C7B
:10ACB000131C30331D702FE0236A090AC918201CA9
:10ACC000FFF7BCFC002829D1FF2376005B001E4063
:10ACD000A319303330361D70A6192D0A75701BE08C
:10ACE000236AC909C918201CFFF7A8FC002815D140
:10ACF000FE23B6005B001E40331C3033E318DA78C5
:10AD0000A6191209120715432A0A303635705A70EF
:10AD10002A0C2D0E9A70DD7001232371FEBD0000F8
:10AD2000F8B5051C0E1E06D1C768002F13D0436965
:10AD30009F4211D30FE0FFF7BDFE0124A04242D98C
:10AD4000431C02D1012464423DE06B69041C371CA2
:10AD5000984201D237E001273C1C6B6901349C42C8
:10AD600004D3012F01D800242DE00224281C211C2B
:10AD7000FFF7A0FE002808D0431C01D0012801D114
:10AD8000041C20E0BC42E8D1EDE7281C211C0F4A3E
:10AD9000FFF73FFF002813D1002E0AD12B69EC608A
:10ADA0005A1C10D00122013B2B616B7913436B714C
:10ADB00009E0281C311C221CFFF72BFF0028EDD0D6
:10ADC0000128BFD00124201CF8BDC046FFFFFF0FA3
:10ADD000F7B5C6880136B3B2002B01D104206AE072
:10ADE0000369002BFAD00F2232400F1C041C019281
:10ADF000002A58D1C168013303610068002903D1DA
:10AE000003899E42EAD24EE082783309013A1A421F
:10AE100049D1FFF74FFE051E012D01D802204AE05F
:10AE2000431C01D1012046E0206843699D4234D390
:10AE3000002FD3D0E168FFF773FF051C0720002D1A
:10AE400039D0012DEAD06B1CECD02068FFF77AFBDB
:10AE50000090031EE6D180222068191C3030920039
:10AE6000FFF707FB2768291C381CFFF717FEF8625D
:10AE7000009F23689A7897420CD201221A712068A9
:10AE8000FFF760FB0028CDD122680137D36A013378
:10AE9000D362EEE7DA6AD71BDF62E5602068291C1F
:10AEA000FFF7FCFD20610020019B22685B0130332D
:10AEB000D318E6806361FEBDF0B50B7885B0041C45
:10AEC0000D1C2F2B01D05C2B00D101350026A66074
:10AED0002B781F2B06D8201C311CFFF757FE66610C
:10AEE000D5E001352B782F2BFBD05C2BF9D0A66950
:10AEF00020210B22301CFFF7BCFA002108230A1C7A
:10AF000000910193009B01330293009BEB5C202B8B
:10AF100043D92F2B41D05C2B3FD02E2B00D19BE06F
:10AF20000198814200D395E058B2002801DA03204D
:10AF300002437F2084469C4460466F46F873F87B4A
:10AF40001E2807D9202084469C446046F873F87B6D
:10AF50001C2819D800980230844602982F5C381CAF
:10AF600040383E2803D94038C0B27C2872D80198B6
:10AF7000013881426ED273546346481C3754023103
:10AF80000293029B0093BDE700274248C05D002862
:10AF90006BD001379842F8D15CE0029820272D1839
:10AFA00000209F4240418300002953D03178E52999
:10AFB00001D1E03931700199082901D19200D2B252
:10AFC00003211140012902D10F310B43DBB20C21C7
:10AFD0000A40042A02D104321343DBB2F372201C6C
:10AFE0000021FFF7D3FD00281CD120682169FFF75D
:10AFF00025FB002816D161690B78002B11D008239E
:10B00000CA7A1A4008D1A6698B5CB05C0132181A62
:10B0100002D10B2AF8D105E0201C0021FFF7D8FE51
:10B02000E1E70420A369DB7A002805D004282ED1AB
:10B0300003422CD101302AE05B0728D46169CB7A26
:10B04000DB0605D523681878FFF749FAA06049E7C1
:10B0500005201CE006201AE0019B082BFAD10B23E7
:10B0600092000199D2B201938BE71F1C413F192F27
:10B0700002D802273A4307E01F1C613F192F03D86B
:10B080000127203B3A43DBB27354013179E705B025
:10B09000F0BDC046390E020038B50021051CFFF78F
:10B0A00075FD041E10D128682969FFF7C7FA041E30
:10B0B0000AD16B691B78E52B0AD0002B08D0281C1D
:10B0C0000121FFF785FEECE7042C14D1033412E0D4
:10B0D00028682969FFF7B2FA041E0CD16869211C9F
:10B0E0002022FFF7C6F90B226869A969FFF7B8F9B2
:10B0F00001222B681A71201C38BD70B5041C0D1E6E
:10B10000012D01D8022024E043699942FAD26369F3
:10B110009D4205D2201C291CFFF7CCFC061E01D144
:10B12000002016E00128EDD0431C11D0201C291C62
:10B130000022FFF76EFD00280BD123695A1C05D0B1
:10B14000012201332361637913436371351CDEE708
:10B15000012070BD1FB5019003A8141C009103913C
:10B16000FFF78EF90B22002817DB0D4B8000C25829
:10B17000002A01D000211170019A002A01D000217B
:10B180001170019919500A1E07D00022012C04D118
:10B1900001A86946FFF7BEFA021C101C04B010BDDE
:10B1A00008300020F0B58FB0051C03910920002D58
:10B1B00000D18CE0161C00231E222B60324007A811
:10B1C00003A9FFF7A7FA002800D080E004AB07A886
:10B1D00003990D93FFF770FE0C9C002802D1002C00
:10B1E00000D106301F271C2337401E4242D00028C2
:10B1F0000AD0042802D107A8FFF74EFF08230C9CB1
:10B200001F43002807D062E01123E27A1A425DD181
:10B21000082073075BD43B0736D54A2300262374E6
:10B22000043B6374079BA673E673E6722677667722
:10B23000A677E6771878211C0193FFF750F90123D0
:10B24000019AA676E6762675667502901371B0426D
:10B250001AD0101C0299D66AFFF74FFF002836D18A
:10B26000029B0798013BC360311CFFF7E7F90028F8
:10B270000AD02CE000282AD1E37A0420DA0626D46A
:10B28000B20701D5DB0721D43B0701D520231F439B
:10B29000079E211CF36AAF710027EB612C62EF71EE
:10B2A0003078FFF71CF92861E37F381C1A06A37F6A
:10B2B0001B041343227F1343627FAF6012021343C8
:10B2C000EB60AF612E60F388AB8000E007200FB029
:10B2D000F0BDF0B51F1C002385B03B60051C00913C
:10B2E000161CFFF7E5F8002800D08BE0E87900286D
:10B2F00000D087E0AB790730DB0700D482E0EB6851
:10B30000AA68341C9B1A9E423BD91C1C39E0AA68CF
:10B31000D3055BD12868530A8678013E3340DBB2FF
:10B320000193002B30D02B686969181C0293FFF73A
:10B33000B5FB002831D0019B660AC3180393002E89
:10B3400042D0029B019A9B78B2189A4201D9019A85
:10B350009E1A029B00995878039A331C00F076FAE3
:10B3600000281ED129680B79002B1FD17602009B83
:10B37000A41B9B190093AB689B19AB603B689B199E
:10B380003B60002CC3D13CE0002A01D1286902E0D7
:10B390006969FFF78FFB012801D8022002E0431CF6
:10B3A00002D10120E8712DE06861BCE7CB6A039A05
:10B3B000981AB042DAD28022009B4002181830312D
:10B3C0009200FFF74DF8D1E7039BAB618022AB6899
:10B3D0009200DB05DB0DD31A261E9E4200D91E1CEF
:10B3E0002868A969FFF72AF90028DAD1AB68009824
:10B3F000D905C90D2B6830315918321CFFF730F8C8
:10B40000B5E7201C05B0F0BDF0B51F1C002385B0CA
:10B410003B60041C0191151CFFF74AF8002800D07E
:10B42000B1E0E379181E00D0ADE0A27907209207C1
:10B4300000D4A8E0A268A91891425B415B421D407C
:10B44000002D16D0A268D30570D12068530A8178E8
:10B4500001390B40DBB20293002B1FD1002A03D12C
:10B46000216900290CD100E06169FFF759FC011E38
:10B4700006D1A368E268934200D87FE0E3607DE0F4
:10B48000012901D1022002E04B1C02D10120E07110
:10B4900079E023696161002B00D121612068A269F4
:10B4A000C36A934203D1FFF74DF80028EED1266816
:10B4B0006169301CFFF7F2FA0028E3D0029BC31841
:10B4C00003936B0A009323D0009A0299B378521821
:10B4D0009A4201D95B1A009370780199039A009BF4
:10B4E00000F0EEF9061ED1D12068039AC36A991ABA
:10B4F000009B994209D28022019B490259183030A1
:10B500009200FEF7ADFF23681E71009B5E022AE0E9
:10B51000A368E268934207D3301CFFF713F80028B2
:10B52000B4D12368039ADA62039BA3618022A368E3
:10B530009200DB05DB0DD31A2E1E9E4200D91E1C85
:10B540002068A169FFF77AF800289FD1A368321C10
:10B55000D805C00D2368303018180199FEF780FF18
:10B56000012322681371019BAD1B9B190193A368F2
:10B570009B19A3603B689B193B6061E72022002078
:10B58000A3791343A37105B0F0BD38B5041CFEF7D1
:10B590008FFF002830D12025A3792B422CD02068A2
:10B5A000E169FFF74BF8002826D1236ADA7A2A43AB
:10B5B000DA72227B1A77627B5A77E268120C9A77EA
:10B5C000E268120EDA77226998759A76110A120CDF
:10B5D0001A75120A5A754A221A76043AD976D8751B
:10B5E0005A769874D874A3792268AB43A371012367
:10B5F00013712068FEF7B0FF38BD10B5041CFFF7CB
:10B60000C4FF002805D1201CFEF752FF002800D1FE
:10B61000206010BDF7B5041C0D1CFEF749FF002883
:10B6200077D1E079002874D1E3689D4203D9A279EB
:10B63000920700D41D1C0022A368A260954201D18C
:10B64000002056E02768BE787602002B14D0013B1C
:10B65000311C681E009302F0EFFF311C019000982E
:10B6600002F0EAFF019B834206D3009A73421A401C
:10B67000A260AD1A616911E0216900290DD1381C61
:10B68000FFF74EFB011E012901D1022002E0431CFD
:10B6900002D10120E0713CE0206161610029CFD03E
:10B6A000B5421AD9A37920689B0704D5FFF738FB68
:10B6B000011E03D110E0FFF7FDF9011C4B1CE8D07F
:10B6C0000129E2D923685B699942DED2A3686161EE
:10B6D0009B19A360AD1BE3E7351CA3685B19A3604E
:10B6E000EB05ADD02068FFF7D9F90028CDD06D0A61
:10B6F0004019A368DA0503D0A269904200D0A06186
:10B70000E2680020934204D92022E360A379134326
:10B71000A371FEBDFA239B00C046C046C046C0468A
:10B72000C046C046C046C046C046C046C046C046E9
:10B73000C046C046013B002BEED1704701230028D4
:10B7400001D1024B1B78181C7047C046BC2000205A
:10B7500073B50324002872D10A3002F003FEFCF70F
:10B760007FFF073401AD013C281C0121E4B2FCF746
:10B77000A1FF002CF6D1201C211CFDF73DF8061E70
:10B78000012E01D0002446E0D52108204900FDF714
:10B7900033F8012818D1281C0421FCF78BFFAB7863
:10B7A000012BEFD1EB78AA2BECD1FA24A400802155
:10B7B000A920C905FDF720F8011E1ED0013CFFF7A6
:10B7C000A9FF002CF3D1DDE7A920211CFDF714F817
:10B7D000012802D9351C341C01E0A9250224FA26CF
:10B7E000B600281C0021FDF707F800281DD0013EF7
:10B7F000FFF790FF002EF4D1C4E73A20FCF7FCFFDE
:10B800000028BFD1281C0421FCF754FF2B780C24FE
:10B810005B0600D404240B4B1C70604244410A4B6D
:10B82000E4B21C70FCF778FF09E080211020890049
:10B83000FCF7E2FF4342584140420440EBE7201C42
:10B8400076BDC0460E300020BC20002070B51D1C07
:10B8500001230E1C191C002801D117490978032067
:10B86000194228D1154B1B781B0700D45202012422
:10B87000AC42A44164421134201C111CFCF7BCFFF3
:10B88000002812D18021301C8900FCF76BFF0028B2
:10B8900005D08023013D9B00F618002DF2D1122C1B
:10B8A00003D10C200021FCF7A7FFFCF735FF2B1C70
:10B8B0005D1EAB41D8B270BDBC2000200E30002010
:10B8C00070B51C1C0123161C0D1C1A1C002801D16C
:10B8D0001F4A127803201A4238D11E4B1B781A07D0
:10B8E00000D47602012C0CD11820311CFCF784FF07
:10B8F000002826D1281CFE21FCF758FF4442444171
:10B900001FE00622134203D09720211CFCF774FF8E
:10B910001920311CFCF770FF002812D1281CFC21D3
:10B92000FCF744FF002805D08023013C9B00ED1864
:10B93000002CF3D10020FD21FCF738FF002800D1B6
:10B940000124601E8441FCF7E7FEE0B270BDC046F2
:10B95000BC2000200E3000200123F0B51C1C85B057
:10B96000002801D12B4804781C400326002C4ED11E
:10B97000151C01290CD0002904D0B14243D18023E9
:10B98000136041E0FCF7D6FE44424441E4B23BE0A0
:10B99000211C0920FCF730FF041E01D0012433E0F4
:10B9A00068461021FCF7DEFE0028F7D06B466A4699
:10B9B0001878517A8009DB79127A012808D13E3053
:10B9C00003401E04120201368A18B118890218E0D9
:10B9D0009B009209D2186B469B79314033409B0201
:10B9E000D3186A4657790F2217406A46927A4E005A
:10B9F000D0093A1802329119C9B2093901338B4082
:10BA0000191C296000E00424FCF786FE261C301C6B
:10BA100005B0F0BDBC20002000B5A1B068460A49C1
:10BA200003F02CFB69460020FEF786FA0122074B43
:10BA300003211A700022064B1D201A708032FDF778
:10BA40007DFB21B000BDC0467C0E02000F300020FF
:10BA50001036002000B5A1B068460A4903F00EFB7D
:10BA600069460020FEF768FA0122074B03215A704D
:10BA70000022064B1D201A708032FDF75FFB21B0BB
:10BA800000BDC046940E02000F300020103600208A
:10BA900000200122024B1870024B1A707047C046FA
:10BAA00010360020E835002010B5041CA0B0002896
:10BAB00002D0FFF7B1FF0CE00749684603F0DEFA59
:10BAC000201C6946FEF738FA044B1D201C70FDF758
:10BAD00001FB20B010BDC046A80E02000F300020B0
