:020000021000EC
:106000000040002085820200CD820200FD8E01004A
:106010000000000000000000000000000000000080
:10602000000000000000000000000000D18202001B
:106030000000000000000000D3820200D5820200B0
:10604000D7820200D7820200D7820200D7820200E4
:10605000D782020000000000A5780200D78202006B
:10606000D7820200D782020029D10100D782020024
:10607000D7820200D7820200D7820200D7820200B4
:10608000D7820200E5490200D7820200D7820200CF
:10609000314A0200D7820200592C0200D782020046
:1060A000D7820200D782020000000000000000003A
:1060B00000000000000000000000000000000000E0
:1060C000164B002B00D1144B9D46402292029A1A87
:1060D000924600218B460F461348144A121A15F0B7
:1060E000F3FC0F4B002B00D098470E4B002B00D039
:1060F00098470020002104000D000D48002802D020
:106100000C4800E000BF15F0A1FC2000290003F0BE
:106110009BFB15F085FCC0460000080000400020F5
:10612000000000000000000040210020BC370020DB
:106130000000000000000000B0B582B000AF021CFB
:106140003960FB1D1A70FB1D1B787F2B2FD92D4C3E
:10615000FB1D1B781A1C0F231340083B9908294A82
:10616000FB1D1B78181C0F230340083B9B080633BC
:106170009B00D3185B68FA1D1278101C03220240A2
:10618000D200101CFF228240D2431A403B689B0180
:10619000FF200340F81D0078051C03202840C000A4
:1061A00083401A438B1D9B00E3185A6026E0164C6F
:1061B000FB1D1B785BB29B081349FA1D127852B283
:1061C0009208C03292005258F91D0978081C032128
:1061D0000140C900081CFF218140C94311403A68B1
:1061E0009201FF200240F81D0078051C0320284082
:1061F000C00082400A43C0339B001A51BD4602B022
:10620000B0BDC04600ED00E000E100E080B582B026
:1062100000AF7860A023DB057A68C132FF329200BC
:106220000321D150BD4602B080BDC04680B582B0CA
:1062300000AF78600A1CFB1C1A70A023DB05FA1C57
:1062400012789200111C7A68C132FF329200D1504C
:10625000BD4602B080BDC04680B582B000AF786058
:10626000A023DA057B6801219940A123DB00D150EE
:10627000BD4602B080BDC04680B582B000AF786038
:10628000A023DA05A223DB00D2587B68DA40131C76
:1062900001221340181CBD4602B080BD77DF704755
:1062A000181CC04678DF7047181CC0467ADF70475C
:1062B000181CC0467CDF7047181CC04660DF704762
:1062C000181CC04668DF7047181CC04680B500AF78
:1062D0001E20FFF79BFF1E20FFF7BEFF15200321A6
:1062E000FFF7A4FF09200121FFF7A0FF0B200321E6
:1062F000FFF79CFF0A20FFF789FF0A20FFF7ACFF9A
:1063000006200321FFF792FF02200321FFF78EFFF3
:1063100003200321FFF78AFF04200321FFF786FFF4
:106320000720FFF773FFBD4680BDC04680B500AFB4
:106330001C20FFF76BFF1D20FFF768FF1C20FFF7F5
:106340008BFF1D20FFF788FFBD4680BD90B58BB049
:1063500002AF3C4C0023009302200A211522231C8B
:106360000EF06CFB031CFB61FB69BB61BB69002B7E
:1063700006D0BA69344B101C3E211A1C02F088FD6D
:10638000324A334B101C01211A1C0EF015FC031C61
:106390007B617B69002B06D07A692B4B101C412155
:1063A0001A1C02F075FD2B4A2B4B101C01211A1CE4
:1063B0000EF002FC031C3B613B69002B06D03A69DE
:1063C000214B101C42211A1C02F062FD234A244B6F
:1063D000101C01211A1C0EF0EFFB031CFB60FB6874
:1063E000002B06D0FA68184B101C43211A1C02F02F
:1063F0004FFD1C4A1C4B101C01211A1C0EF0DCFB2B
:10640000031CBB60BB68002B06D0BA680E4B101C87
:1064100044211A1C02F03CFD144A154B101C0121AA
:106420001A1C0EF0C9FB031C7B607B68002B06D096
:106430007A68054B101C45211A1C02F029FDBD4647
:1064400009B090BD4C21002020CD0200483700202B
:10645000BD950100F0340020DD9401007833002068
:106460008DB20100A433002001960100FC3300200E
:10647000B98C010090B585B000AF1F4B0420191CEA
:1064800011F0E2FA031CFB60FB68BB60BB68002BE9
:1064900006D0BA68194B101C4E211A1C02F0F8FCE9
:1064A00006200321FFF748FE154A1649154C164BE6
:1064B000101C221C11F01CFB031C7B607B68002B52
:1064C00006D07A680D4B101C53211A1C02F0E0FC18
:1064D0000B4B1B78181C11F06FFB031C3B603B68D7
:1064E000002B06D03A68054B101C55211A1C02F0EF
:1064F000CFFCBD4605B090BD2429002020CD020070
:10650000A033002040082000E1B1010080B58CB02C
:1065100000AF0123FB623B1D1A7801218A431A70E8
:106520003E4B0820191C502200230CF027FB031CB3
:10653000BB62BB6A7B627B6A002B06D07A6A384BEF
:10654000101C64211A1C02F0A3FC3B1C181C002127
:10655000012215F0B9FA3B1C1A7801218A431A70FE
:106560003B1C181CFFF7AAFE031C3B623B6AFB6145
:10657000FB69002B06D0FA69294B101C6C211A1CF0
:1065800002F086FC274B181C0CF03EFB031C3B6200
:106590003B6ABB61BB69002B06D0BA69204B101C5B
:1065A00070211A1C02F074FC1F4B181C0CF040FBED
:1065B000031C3B623B6A7B617B69002B06D07A69D6
:1065C000174B101C73211A1C02F062FC0420FFF709
:1065D00065FE031C3B623B6A3B613B69002B06D0B6
:1065E0003A690F4B101C76211A1C02F051FCFA6A12
:1065F0003B1D101C191CFFF765FE031C3B623B6A28
:10660000FB60FB68002B06D0FA68054B101C792153
:106610001A1C02F03DFCBD460CB080BD7429002060
:1066200020CD0200DD9101002592010080B582B0ED
:1066300000AF0B4B082014211A1C11F01FFC031C87
:106640007B607B683B603B68002B06D03A68054B5B
:10665000101C80211A1C02F01BFCBD4602B080BD3C
:10666000C429002020CD020080B588B000AF0FF013
:1066700071F8031CFB61FB69BB61BB69002B06D091
:10668000BA69334B101C8D211A1C02F001FC022048
:10669000FFF7F2FD031C5A425341DAB20C23FB18F8
:1066A0001A700C23FB18181C10F024FA031CFB6151
:1066B000FB697B617B69002B06D07A69244B101C37
:1066C00093211A1C02F0E4FB3B1C0633181C00212A
:1066D000062215F0F9F93B1C1E22DA803B1C1A7ABF
:1066E00001210A431A723B1C1A7A02218A431A7248
:1066F0003B1C1A7A1C218A43111C0C220A431A7271
:106700003B1C1A7A20218A431A723B1C07225A72B8
:106710003B1C10229A723B1C0E4A1A603B1C012241
:106720001A710D4A3B1C101C191C10F099FA031C1D
:10673000FB61FB693B613B69002B06D03A69044B66
:10674000101CA2211A1C02F0A3FBBD4608B080BD9C
:1067500020CD0200A9910100A933002080B588B0A6
:1067600000AF3B1D1A780F218A431A703B1D1A781F
:106770000F210A401A703A1D284B101C191C0522C3
:10678000FFF798FD031CFB61FB69BB61BB69002B34
:1067900006D0BA69224B101CB3211A1C02F078FBF8
:1067A0000020FFF77FFD031CFB61FB697B617B69B8
:1067B000002B06D07A691A4B101CB6211A1C02F065
:1067C00067FB0823FB18181C0021082215F07CF930
:1067D0000823FB1850221A800823FB18A0225A8095
:1067E0000823FB1800229A800823FB18C822DA80AD
:1067F0000823FB18181CFFF759FD031CFB61FB69FC
:106800003B613B69002B06D03A69054B101CC02147
:106810001A1C02F03DFBBD4608B080BD2CCD020025
:1068200020CD020080B598B000AF404B181C00216D
:10683000D02215F049F94423FB18181C002110221E
:1068400015F042F94423FB18394A1A604423FB1817
:1068500001221A714423FB18F1225A714423FB18B8
:10686000F122DA714423FB18F1229A714423FB18B8
:10687000F1221A724423FB18F1225A724423FB18A6
:10688000F0229A72294A4423FB18101C191C01F0AB
:106890001DFE031CFB65FB6DBB65BB6D002B06D0AD
:1068A000BA6D244B101CF1211A1C02F0F1FA3B1DA9
:1068B000181C0021402215F007F93A1D1E4B101C30
:1068C000191C0CF08BF83B1D3C22995C0F20814376
:1068D000081C0121014399543B1D3C22995C0F2067
:1068E0000140081C1021014399543B1D3D22995C35
:1068F0000F20814399543B1D3D22995C0F2001409C
:1069000099543B1D181C0BF033FF031CFB65FB6DFA
:106910007B657B6D002B06D07A6D064B101CFF212A
:106920001A1C02F0B5FABD4618B080BD0034002034
:106930004592010020CD020034CD020080B5A0B008
:1069400000AFFB1D06221A704023FB18181C002103
:10695000382215F0B9F84023FB1802221A704023A0
:10696000FB1801229A704023FB1801229A804023D1
:10697000FB18FA1D9A600823FB18181C0021382206
:1069800015F0A2F84023FA180823FB18101C191C54
:106990000CF0AEFE031CFB67FB6FBB67BB6F002BED
:1069A00009D0B96F1A23FF331A1C044B081C111CA1
:1069B0001A1C02F06DFABD4620B080BD20CD020049
:1069C00080B58AB000AF3B1D181C00211C2215F0B9
:1069D0007BF83B1D00221A603B1D164A5A603B1D86
:1069E000A022D2029A603B1D05221A733B1D002291
:1069F000DA813B1D01221A743B1D0F4A5A613B1D6F
:106A00000E4A9A613B1D181C0CF090FF031C7B6220
:106A10007B6A3B623B6A002B09D0396A3023FF3323
:106A20001A1C074B081C111C1A1C02F031FABD4637
:106A30000AB080BD55D50000C18F0100A18F0100B3
:106A400020CD020080B588B000AF04F031FB031CFC
:106A5000FB61FB69002B08D0F9699B235A003D4B71
:106A6000081C111C1A1C02F013FA05F0DDFB031CB4
:106A7000BB61BB69002B09D0B9693A23FF331A1CEB
:106A8000344B081C111C1A1C02F002FA0BF088FB94
:106A9000031C1A1C01235340DBB2002B0ED02E4BDB
:106AA0007B617B69002B09D079693E23FF331A1C77
:106AB000284B081C111C1A1C02F0EAF9362005F0BC
:106AC000F5F9031C3B613B69002B08D03969A02311
:106AD0005A00204B081C111C1A1C02F0D9F9342052
:106AE00004F00AFD031CFB60FB68002B09D0F96869
:106AF0004423FF331A1C174B081C111C1A1C02F0EC
:106B0000C7F9732005F01CFB031CBB60BB68002B9E
:106B100008D0B968A3235A000E4B081C111C1A1C7C
:106B200002F0B6F9762007F061FD031C7B607B68FC
:106B3000002B09D079684A23FF331A1C054B081C27
:106B4000111C1A1C02F0A4F9682004F057FDBD4680
:106B500008B080BD20CD02000110000080B58CB0CF
:106B600000AFFA23DB00181C11F0EAF8674B181C81
:106B700003F0A6FE031CFB62FB6A002B08D0F96A37
:106B8000B0235A00624B081C111C1A1C02F080F939
:106B900003F0BEFE031CBB62BB6A002B09D0B96ABE
:106BA0006223FF331A1C5A4B081C111C1A1C02F0DA
:106BB0006FF9564B181C04F081F8031C7B627B6A4A
:106BC000002B08D0796AB5235A00514B081C111CC0
:106BD0001A1C02F05DF904F097F8031C3B623B6A53
:106BE000002B09D0396A6C23FF331A1C484B081C50
:106BF000111C1A1C02F04CF9444B181C04F046F905
:106C0000031CFB61FB69002B09D0F9697023FF337A
:106C10001A1C3F4B081C111C1A1C02F039F904F015
:106C20005DF9031CBB61BB69002B08D0B969B823AF
:106C30005A00374B081C111C1A1C02F029F9334B5F
:106C4000181C03F045FF031C7B617B69002B08D0F7
:106C50007969BA235A002E4B081C111C1A1C02F029
:106C600017F903F05BFF031C3B613B69002B09D064
:106C700039697623FF331A1C254B081C111C1A1C7A
:106C800002F006F9214B181C03F030FD031CFB60D9
:106C9000FB68002B09D0F9687A23FF331A1C1C4BC0
:106CA000081C111C1A1C02F0F3F803F047FD031C2A
:106CB000BB60BB68002B08D0B968BD235A00144BD9
:106CC000081C111C1A1C02F0E3F8124B00221A7067
:106CD000002004F083FB104B1A68A0231B03101C38
:106CE000191C00220DF0E0FF031C7B607B68002B69
:106CF00009D079688423FF331A1C054B081C111C2A
:106D00001A1C02F0C5F8BD460CB080BD003400204E
:106D100020CD0200A83300207833002080B582B057
:106D200000AF184A184B0121D1501649174AFA23CF
:106D30001B048B501349134AA123DB00D3580122B3
:106D40001A43A123DB00CA500E4B01221A60104BDC
:106D50001B68104A181C111C00220DF0A5FF031C13
:106D60007B607B68002B09D079688E23FF331A1C67
:106D7000094B081C111C1A1C02F08AF8BD4602B00F
:106D800080BDC046000001400C0500000405000065
:106D9000A433002055D5000020CD0200F0B5A7B0E7
:106DA00000AFF8600A1C0A23FB181A808F23082200
:106DB0009446BC44634400221A708F2308229446F0
:106DC000BC4463441B785B4A127E1A438F2308211C
:106DD0008C46BC446344511E8A411A708F2308229A
:106DE0009446BC4463441B78534A127E1A438F2353
:106DF00008218C46BC446344511E8A411A708F237B
:106E000008229446BC4463441B784C4A127E1A43C1
:106E10008F2308218C46BC446344511E8A411A705A
:106E20008F2308229446BC4463441B78444A127E54
:106E30001A438F2308218C46BC446344511E8A4167
:106E40001A708F2308229446BC4463441B783D4A41
:106E5000127E1A438F2308218C46BC446344511E82
:106E60008A411A708F2308229446BC4463441B78DD
:106E7000002B5CD0344B1E6800F070F8031C3B60A4
:106E8000DB177B6038687968031C5B0C0A1CD50330
:106E90001D43031CDC032D4A0023A4185D41231C61
:106EA0002C1C181C211C2A4A002312F029FD031C4B
:106EB0000C1C301C191C00220DF0F6FE031C88224D
:106EC00008218C46BC4462441360882308229446FF
:106ED000BC4463441B68002B0ED0882308229446D0
:106EE000BC4463441968BA23FF331A1C194B081CAD
:106EF000111C1A1C01F0CCFF082308229446BC4444
:106F00006344154A13CA13C313CA13C313CA13C362
:106F1000116819609188998092799A7108230822E2
:106F20009446BC4463440020191C07F087FEBD460C
:106F300027B0F0BDD0340020D833002080330020AB
:106F400028370020B033002048370020DC0500003F
:106F5000B80B000020CD020040CD020080B500AF8C
:106F6000024B1B68181CBD4680BDC0460420002093
:106F700080B500AF034B181C0AF068FA181CBD4618
:106F800080BDC046D8CD0200B0B582B000AF7860F9
:106F9000084B1B687868191C12F0F2FA031C1C1CC1
:106FA00000231D1C231C2C1C181C211CBD4602B0D8
:106FB000B0BDC0460420002090B5A3B000AF7860FB
:106FC0007B68154A93420ED10823FB18134A13CA53
:106FD00013C313CA13C312881A800823FB18002096
:106FE000191C07F02BFE7B68002B11D07B680C4A24
:106FF00093420DD07B68084A934209D07B68082BE6
:1070000006D07A68074B101C32211A1C01F040FF91
:10701000BD4623B090BDC04604300000E8CD02005C
:107020000134000004CE020080B582B000AF786069
:1070300039607B68092B08DC39683D4A7B68081C8D
:10704000111C1A1C14F012FE6EE07B68632B08DC26
:107050003968384A7B68081C111C1A1C14F006FE9B
:1070600062E07B68344A934208DC3968334A7B68C3
:10707000081C111C1A1C14F0F9FD55E07B68304AFD
:10708000934208DC39682F4A7B68081C111C1A1CC3
:1070900014F0ECFD48E07B682B4A934208DC396829
:1070A0002A4A7B68081C111C1A1C14F0DFFD3BE007
:1070B0007B68274A934208DC3968264A7B68081CAB
:1070C000111C1A1C14F0D2FD2EE07B68224A934258
:1070D00008DC3968214A7B68081C111C1A1C14F052
:1070E000C5FD21E07B681E4A934208DC39681D4AD1
:1070F0007B68081C111C1A1C14F0B8FD14E07B6896
:10710000194A934208DC3968184A7B68081C111C2C
:107110001A1C14F0ABFD07E03968154A7B68081C9F
:10712000111C1A1C14F0A2FDBD4602B080BDC04661
:1071300044CE02005CCE0200E703000074CE0200E1
:107140000F27000088CE02009F8601009CCE02001F
:107150003F420F00B0CE02007F969800C4CE0200DE
:10716000FFE0F505D4CE0200FFC99A3BE4CE020051
:10717000F4CE020080B582B000AF786039607B68E1
:10718000092B08DC3968304A7B68081C111C1A1C62
:1071900014F06CFD54E07B68632B08DC39682B4AE3
:1071A0007B68081C111C1A1C14F060FD48E07B6809
:1071B000274A934208DC3968264A7B68081C111C60
:1071C0001A1C14F053FD3BE07B68234A934208DC11
:1071D0003968224A7B68081C111C1A1C14F046FDF1
:1071E0002EE07B681E4A934208DC39681D4A7B68A2
:1071F000081C111C1A1C14F039FD21E07B681A4A86
:10720000934208DC3968194A7B68081C111C1A1C57
:1072100014F02CFD14E07B68154A934208DC3968B1
:10722000144A7B68081C111C1A1C14F01FFD07E08F
:107230003968114A7B68081C111C1A1C14F016FDD1
:10724000BD4602B080BDC04604CF020010CF020090
:10725000E70300001CCF02000F27000024CF02002C
:107260009F8601002CCF02003F420F0034CF020066
:107270007F9698003CCF020040CF020090B5B7B097
:1072800000AFF860B9607A60B423FA18FB68101C8C
:10729000191C122209F0E4FA031E0CD0B423FA18C8
:1072A000FB68101C191C022209F0DAFA031E02D036
:1072B00080235B0294E00023B022BA1813604A4B8B
:1072C0001A684A4B1B689A4202DB474B14221A6029
:1072D000B423FB18181C002109F0A6FF031E02D0DE
:1072E00080235B027CE0B423FB18DB681A1C942328
:1072F000FB18101C191CFFF797FE9423FB18181C91
:1073000014F0E0FC041CB423F9189423FA18B023F9
:10731000FB18081C111C221C09F048FD031E02D09A
:1073200080235B025CE0304B1B681A1CB423FB1803
:10733000181C111C09F078FF031E02D080235B0289
:107340004EE0294B1A682A4B1A60FA68294B101C28
:10735000191C14F0ADFC031E32D17B68182B2FDCF6
:10736000BB68002B2CD0BB68181C14F0ABFC031EB0
:10737000182B25D8BB681B78002B21D0B423F81814
:10738000B9687A68B023FB1809F010FD031E02D01B
:1073900080235B0224E01423FB18174A03CA03C3AB
:1073A0001188198092789A701423FB180020191CF8
:1073B00007F044FC0C4B1A687B68D2180A4B1A6021
:1073C000094B1A680A4B1B68D31A282B03DD084B9C
:1073D0001A68054B1A60B423FB18181C09F0FCFE50
:1073E000181CBD4637B090BD0820002000200020AA
:1073F000142B0020D8CD020044CF020090B5A3B0DA
:1074000000AF786039600823FA187B68101C191CDB
:1074100014F02CFC1D4B1B78002B1DD11B4A1C4B60
:10742000101C191C012209F0D1F9031E28D10823D0
:10743000FB18181C14F046FC041C3A680823FB18BF
:10744000101C191C221CFFF719FF114B0020191CDE
:10745000012209F0BBF913E00823FB18181C14F0F3
:1074600031FC041C3A680823FB18101C191C221C50
:10747000FFF704FF064B0020191C012209F0A6F9B2
:107480000023181CBD4623B090BDC046F834002030
:1074900050CF020080B500AF024B1B68181CBD46E0
:1074A00080BDC046182B002080B500AF024B1B6882
:1074B000181CBD4680BDC0461C2B002080B500AF07
:1074C000024B1B68181CBD4680BDC046202B002007
:1074D00080B500AF024B1B68181CBD4680BDC0467E
:1074E000242B002080B582B000AF7860024B7A6810
:1074F0001A60BD4602B080BD182B002080B582B056
:1075000000AF7860024B7A681A60BD4602B080BD59
:107510001C2B002080B582B000AF7860024B7A68E7
:107520001A60BD4602B080BD202B002080B582B01D
:1075300000AF78607A68024B1A60BD4602B080BD29
:10754000242B002080B500AF034B1B685A1C024B54
:107550001A60BD4680BDC046182B0020A0DF7047D2
:10756000181CC046A2DF7047181CC046A4DF704735
:10757000181CC046A6DF7047181CC04663DF704762
:10758000181CC04680B582B000AF786039603B6897
:107590009A887B681A81BD4602B080BD80B582B0F2
:1075A00000AF786039607B68012252421A81FFF790
:1075B0008FFF031E012B0FD1094B00221A60002000
:1075C000FFF7B4FF074B181C09F006FE064B00201E
:1075D000191C012209F0FAF8BD4602B080BDC04670
:1075E000282B00204C37002008D0020080B594B032
:1075F00000AF786039603B680633FB64FB6C1A8827
:107600007B689B8A9A421FD1FB6C1B8B012B1BD181
:107610007B681B68002B17D04423FB1800221A70CC
:107620004423FB183A685A60FB6C9B7E7A68101CF6
:10763000191C002201F076FA7B681B6879684422E5
:10764000BA18081C111C9847FB6C1A887B685B8D64
:107650009A421FD1FB6C1B8B012B1BD17B681B68D3
:10766000002B17D03C23FB1802221A703C23FB1876
:107670003A685A60FB6C9B7E7A68101C191C0222C7
:1076800001F050FA7B681B6879683C22BA18081C24
:10769000111C9847FB6C1A887B6840215B5A9A4200
:1076A0001FD1FB6C1B8B012B1BD17B681B68002B34
:1076B00017D03423FB1804221A703423FB183A68BD
:1076C0005A60FB6C9B7E7A68101C191C042201F026
:1076D00029FA7B681B6879683422BA18081C111CC7
:1076E0009847FB6C1A887B6856215B5A9A421FD1D7
:1076F000FB6C1B8B012B1BD17B681B68002B17D0ED
:107700002C23FB1803221A702C23FB183A685A60AA
:10771000FB6C9B7E7A68101C191C032201F002FA94
:107720007B681B6879682C22BA18081C111C9847C2
:10773000FB6C1A887B686C215B5A9A421FD1FB6CE8
:107740001B8B012B1BD17B681B68002B17D02423BC
:10775000FB1808221A702423FB183A685A60FB6C45
:107760009B7E7A68101C191C082201F0DBF97B68EB
:107770001B6879682422BA18081C111C9847FB6CF6
:107780001A887B6882215B5A9A421FD1FB6C1B8B43
:10779000012B1BD17B681B68002B17D01C23FB1807
:1077A00005221A701C23FB183A685A60FB6C9B7EFA
:1077B0007A68101C191C052201F0B4F97B681B685B
:1077C00079681C22BA18081C111C9847FB6C1A888F
:1077D0007B68A8215B5A9A421FD1FB6C1B8B0C2B38
:1077E0001BD17B681B68002B17D01423FB180622C3
:1077F0001A701423FB183A685A60FB6C1A337A68C3
:10780000101C191C062201F061FA7B681B6879685C
:107810001422BA18081C111C9847FB6C1A887B6844
:10782000C6215B5A9A421FD1FB6C1B8B012B1BD1CB
:107830007B681B68002B17D00C23FB1807221A70DB
:107840000C23FB183A685A60FB6C9B7E7A68101C0C
:10785000191C072201F066F97B681B6879680C2205
:10786000BA18081C111C9847BD4614B080BDC0460C
:1078700080B582B000AF786039603B681B88102B00
:1078800008D002DC012B1AD01CE0112B09D0502BA0
:107890000ED017E07A683B68101C191CFFF772FEC7
:1078A00010E07A683B68101C191CFFF777FE09E0AE
:1078B0007A683B68101C191CFFF798FE02E000F084
:1078C000E5FFC046BD4602B080BDC04680B594B05D
:1078D00000AF786039600023FB647B689B7A002BE3
:1078E00033D04823FB18181C0021032214F0ECF8B5
:1078F0004823FB181A780F218A43111C01220A43DE
:107900001A704823FB181A780F210A40111C102204
:107910000A431A704823FB185A780F218A43111C16
:1079200001220A435A704823FB185A780F210A4053
:10793000111C10220A435A704823FB189A7806211A
:107940008A43111C02220A439A702C23FB18181C2C
:1079500000211C2214F0B8F82C23FB181A780221FD
:107960000A431A707B689B7A1A1C01231340DAB20F
:107970002C23FB1801210A4010011A7810218A4398
:10798000111C021C0A431A702C23FB181A780821B8
:107990008A431A702C23FB181A7804218A431A7020
:1079A0002C23FB1800225A602C23FB180022DA60DB
:1079B0002C23FB1800221A617B689B7A002B02D0D3
:1079C0004823FA1800E000222C23FB185A612C23CC
:1079D000FB1800229A612C23FB185A7802218A4353
:1079E0005A701423FB18181C0021032214F06CF8A1
:1079F0001423FB181A780F218A43111C01220A4311
:107A00001A701423FB181A780F210A40111C102237
:107A10000A431A701423FB185A780F218A435A70AC
:107A20001423FB185A780F210A405A701423FB18AC
:107A30009A7806218A43111C02220A439A70142361
:107A4000FB189A7808218A439A701423FB189A78B5
:107A500010218A439A701423FB189A7801210A4353
:107A60009A701023FB18181C0021032214F02CF824
:107A70001023FB181A780F218A43111C01220A4394
:107A80001A701023FB181A780F210A40111C1022BB
:107A90000A431A701023FB185A780F218A43111CCD
:107AA00001220A435A701023FB185A780F210A400A
:107AB000111C10220A435A701023FB189A780621D1
:107AC0008A43111C02220A439A701023FB189A78E9
:107AD00008218A439A701023FB189A7810218A4350
:107AE0009A701023FB189A7801218A439A70182300
:107AF000FB18181C0021142213F0E6FF7B689A790A
:107B00000C23FB189A700C23FB18E54A1A801823E3
:107B1000FB180C22BA181A601823FB181422BA1882
:107B20005A601823FB1804221A811823FB1800221C
:107B30005A811823FB1804229A817B681C331A1C73
:107B40001823FB181A612C23FB181A7808218A4382
:107B50001A702C23FB181A7804218A431A707B6848
:107B600098887B680C332C22B9181822BA18FFF7B2
:107B7000F9FC031CFB64FB6C002B02D0FB6C00F0D7
:107B80009DFC7B689A790C23FB189A700C23FB18D8
:107B9000C44A1A801823FB180C22BA181A6018233A
:107BA000FB181022BA185A601823FB1801221A81F8
:107BB0001823FB1800225A811823FB1801229A81EE
:107BC0007B6820331A1C1823FB181A612C23FB181E
:107BD0001A7808210A431A702C23FB181A780421FA
:107BE0000A431A707B6898887B6814332C22B91872
:107BF0001822BA18FFF7B6FC031CFB64FB6C002BC1
:107C000002D0FB6C00F05AFC7B689A790C23FB18BD
:107C10009A700C23FB18A44A1A801823FB180C2214
:107C2000BA181A601823FB181422BA185A601823BD
:107C3000FB1804221A811823FB1800225A811823EA
:107C4000FB1804229A817B6832331A1C1823FB1814
:107C50001A612C23FB181A7808218A431A702C23E6
:107C6000FB181A7804218A431A707B6898887B680D
:107C700022332C22B9181822BA18FFF773FC031C00
:107C8000FB64FB6C002B02D0FB6C00F017FC7B68E4
:107C90009A790C23FB189A700C23FB18834A1A80DC
:107CA0001823FB180C22BA181A601823FB1810228C
:107CB000BA185A601823FB1801221A811823FB18DE
:107CC00000225A811823FB1801229A817B683633DF
:107CD0001A1C1823FB181A612C23FB181A78082188
:107CE0000A431A702C23FB181A7804210A431A70CD
:107CF0007B6898887B682A332C22B9181822BA1816
:107D0000FFF730FC031CFB64FB6C002B02D0FB6C08
:107D100000F0D4FB7B689A790C23FB189A700C2333
:107D2000FB18634A1A801823FB180C22BA181A6031
:107D30001823FB181422BA185A601823FB180422BF
:107D40001A811823FB1800225A811823FB180422D9
:107D50009A817B6848331A1C1823FB181A612C235C
:107D6000FB181A7808218A431A702C23FB181A78FA
:107D700004218A431A707B6898887B6838332C22E8
:107D8000B9181822BA18FFF7EDFB031CFB64FB6C53
:107D9000002B01D0FB6C91E37B689A790C23FB18D4
:107DA0009A700C23FB18434A1A801823FB180C22E4
:107DB000BA181A601823FB181022BA185A60182330
:107DC000FB1801221A811823FB1800225A8118235C
:107DD000FB1801229A817B684C331A1C1823FB186C
:107DE0001A612C23FB181A7808210A431A702C23D5
:107DF000FB181A7804210A431A707B6898887B68FC
:107E000040332C22B9181822BA18FFF7ABFB031C19
:107E1000FB64FB6C002B01D0FB6C4FE37B689A7911
:107E20000C23FB189A700C23FB18234A1A80182382
:107E3000FB180C22BA181A601823FB181422BA185F
:107E40005A601823FB1804221A811823FB180022F9
:107E50005A811823FB1804229A817B685E331A1C0E
:107E60001823FB181A612C23FB181A7808218A435F
:107E70001A702C23FB181A7804218A431A707B6825
:107E800098887B684E332C22B9181822BA18FFF74D
:107E900069FB031CFB64FB6C002B0FD0FB6C0DE338
:107EA00033110000341100003711000038110000B8
:107EB0004111000042110000391100007B689A79DD
:107EC0000C23FB189A700C23FB188A2252011A808B
:107ED0001823FB180C22BA181A601823FB1810225A
:107EE000BA185A601823FB1801221A811823FB18AC
:107EF00000225A811823FB1801229A817B68623381
:107F00001A1C1823FB181A612C23FB181A78082155
:107F10000A431A702C23FB181A7804210A431A709A
:107F20007B6898887B6856332C22B9181822BA18B7
:107F3000FFF718FB031CFB64FB6C002B01D0FB6CF0
:107F4000BCE27B689A790C23FB189A700C23FB180F
:107F5000E34A1A801823FB180C22BA181A60182357
:107F6000FB181422BA185A601823FB1804221A812D
:107F70001823FB1800225A811823FB1804229A8127
:107F80007B6874331A1C1823FB181A612C23FB1806
:107F90001A7808218A431A702C23FB181A780421B6
:107FA0008A431A707B6898887B6864332C22B918DE
:107FB0001822BA18FFF7D6FA031CFB64FB6C002BDF
:107FC00001D0FB6C7AE27B689A790C23FB189A70DB
:107FD0000C23FB18C34A1A801823FB180C22BA186A
:107FE0001A601823FB181022BA185A601823FB18BD
:107FF00001221A811823FB1800225A811823FB182A
:1080000001229A817B6878331A1C1823FB181A61A5
:108010002C23FB181A7808210A431A702C23FB180A
:108020001A7804210A431A707B6898887B686C333D
:108030002C22B9181822BA18FFF794FA031CFB6413
:10804000FB6C002B01D0FB6C38E27B689A790C2327
:10805000FB189A700C23FB18A34A1A801823FB18EC
:108060000C22BA181A601823FB181422BA185A6086
:108070001823FB1814221A811823FB1800225A8196
:108080001823FB1814229A817B688A331A1C182340
:10809000FB181A612C23FB181A7808218A431A70DE
:1080A0002C23FB181A7804218A431A707B6898885D
:1080B0007B687A332C22B9181822BA18FFF752FAC3
:1080C000031CFB64FB6C002B01D0FB6CF6E17B68AE
:1080D0009A790C23FB189A700C23FB18834A1A8098
:1080E0001823FB180C22BA181A601823FB18102248
:1080F000BA185A601823FB1801221A811823FB189A
:1081000000225A811823FB1801229A817B689E3332
:108110001A1C1823FB181A612C23FB181A78082143
:108120000A431A702C23FB181A7804210A431A7088
:108130007B6898887B6882332C22B9181822BA1879
:10814000FFF710FA031CFB64FB6C002B01D0FB6CE7
:10815000B4E17B689A790C23FB189A700C23FB1806
:10816000634A1A801823FB180C22BA181A601823C5
:10817000FB181422BA185A601823FB1808221A8117
:108180001823FB1800225A811823FB1808229A8111
:108190007B68B0331A1C1823FB181A612C23FB18B8
:1081A0001A7808218A431A702C23FB181A780421A4
:1081B0008A431A707B6898887B68A0332C22B91890
:1081C0001822BA18FFF7CEF9031CFB64FB6C002BD6
:1081D00001D0FB6C72E17B689A790C23FB189A70D2
:1081E0000C23FB18434A1A801823FB180C22BA18D8
:1081F0001A601823FB181022BA185A601823FB18AB
:108200000C221A811823FB1800225A811823FB180C
:108210000C229A817B68BC331A1C1823FB181A6144
:108220002C23FB181A7808210A431A702C23FB18F8
:108230001A7804210A431A707B6898887B68A833EF
:108240002C22B9181822BA18FFF78CF9031CFB640A
:10825000FB6C002B01D0FB6C30E17B689A790C231E
:10826000FB189A700C23FB18234A1A801823FB185A
:108270000C22BA181A601823FB181422BA185A6074
:108280001823FB1801221A811823FB1800225A8197
:108290001823FB1801229A817B68CE331A1C1823FD
:1082A000FB181A612C23FB181A7808218A431A70CC
:1082B0002C23FB181A7804218A431A707B6898884B
:1082C0007B68BE332C22B9181822BA18FFF74AF976
:1082D000031CFB64FB6C002B10D0FB6CEEE0C04673
:1082E000491100005011000043110000441100002A
:1082F0004511000046110000471100007B689A7983
:108300000C23FB189A700C23FB186E4A1A80182352
:10831000FB180C22BA181A601823FB181022BA187E
:108320005A601823FB1801221A811823FB18002217
:108330005A811823FB1801229A817B68CF331A1CBB
:108340001823FB181A612C23FB181A7808210A43FA
:108350001A702C23FB181A7804210A431A707B68C0
:1083600098887B68C6332C22B9181822BA18FFF7F0
:10837000F9F8031CFB64FB6C002B01D0FB6C9DE047
:10838000514B00221A707B680C331A1C4E4B5A60FA
:108390007B6814331A1C4C4B9A607B681C331A1C84
:1083A000494BDA60484B01221A74474B20220221C4
:1083B00099547B6822331A1C434B5A627B682A33D8
:1083C0001A1C414B9A627B6832331A1C3E4BDA62AC
:1083D0003D4B3022032199547B684E331A1C3A4B93
:1083E0005A637B6856331A1C374B9A637B685E333B
:1083F0001A1C354BDA63344B4022042199547B68B4
:1084000038331A1C304B5A647B6840331A1C2E4B8D
:108410009A647B6848331A1C2B4BDA642A4B50222F
:10842000052199547B687A331A1C274B5A657B685F
:1084300082331A1C244B9A657B688A331A1C224BA0
:10844000DA65214B6022062199547B68A0331A1CFF
:108450001D4B5A667B68A8331A1C1B4B9A667B68B7
:10846000B0331A1C184BDA66174B70220721995447
:108470007B68BE331A1C144B5A677B68C6331A1CC0
:10848000114B9A677B68CE331A1C0F4BDA670E4B81
:108490008022082199547B6864331A1C0A4B84217A
:1084A0005A507B686C331A1C074B88215A507B68E2
:1084B00074331A1C044B8C215A50FB6C181CBD469B
:1084C00014B080BD481100002C2B002090B58BB05B
:1084D00000AF786039603B681A687B681A607B6817
:1084E000012252421A813B681A797B689A722723CB
:1084F000FB1800221A700DE02723FB181B787A68FE
:10850000D318FF221A772723FB181A782723FB1882
:1085100001321A702723FB181B78032BECD93B6818
:1085200059797B68202299542623FB1800221A705F
:108530000FE02623FB181B787A683021D3185B18CC
:10854000FF229A702623FB181A782623FB18013283
:108550001A702623FB181B78032BEAD93B689979FC
:108560007B68362299542523FB1800221A700FE0ED
:108570002523FB181B787A684821D3185B18FF2243
:108580001A702523FB181A782523FB1801321A705C
:108590002523FB181B78032BEAD93B68197A7B68E3
:1085A0004C2299542423FB1800221A700FE0242334
:1085B000FB181B787A685821D3185B18FF229A7130
:1085C0002423FB181A782423FB1801321A70242361
:1085D000FB181B78032BEAD93B68D9797B686222A8
:1085E00099542323FB1800221A700FE02323FB1851
:1085F0001B787A687021D3185B18FF221A71232325
:10860000FB181A782323FB1801321A702323FB1856
:108610001B78032BEAD93B68597A7B6878229954F6
:108620002223FB1800221A700FE02223FB181B786C
:108630007A688821D3185B18FF229A702223FB18CE
:108640001A782223FB1801321A702223FB181B7898
:10865000132BEAD93B68997A7B689E22995421238F
:10866000FB1800221A700FE02123FB181B787A6890
:10867000B021D3185B18FF221A702123FB181A7837
:108680002123FB1801321A702123FB181B780B2BB6
:10869000EAD93B68D97A7B689E2299542023FB183B
:1086A00000221A700FE02023FB181B787A68C8217B
:1086B000D3185B18FF229A712023FB181A78202305
:1086C000FB1801321A702023FB181B78002BEAD00C
:1086D0003B68197B7B689E2299540823FB18204A2B
:1086E00013CA13C312681A607B6806330822BA18CB
:1086F000101C191CFEF742FF031CFB61FB69002BD9
:1087000001D0FB6927E07B689A791823FB189A70DF
:108710001823FB18892252011A807B68043318221F
:10872000BA180120111C1A1CFEF718FF031CFB616C
:10873000FB69002B01D0FB690DE07A683B68101CD7
:10874000191CFFF7C3F8031CFB61FB69002B01D068
:10875000FB6900E00023181CBD460BB090BDC0466D
:10876000F8CF020080B58CB000AFF860B960191C7A
:10877000FB1D1A70BB1D0A1C1A700023FB6200232C
:10878000BB6275E03F4BBA6A1201D35CBA1D127826
:108790009A426AD1FB1D1B789AB22223FB181A80D9
:1087A00000237B620FE0374ABB6A1B01D3180833F2
:1087B0005A687B6AD3187A6AB9688A1812781A706C
:1087C0007B6A01337B62FB1D1A787B6A9A42EADC82
:1087D0002C4ABB6A1B01D3185B6819882223FA183C
:1087E000BB68081C0021FEF7C1FE031CFB62FB6A8C
:1087F000002B01D0FB6A41E0FB681B89224A9342AF
:108800002FD0FB689B7A002B2BD01023FB18181C51
:108810000021102213F058F91A4ABB6A1B01D31821
:108820005B681A881023FB181A801023FB1801229A
:108830009A701023FB1800229A801023FB18222222
:10884000BA189A601023FB18BA68DA60FB681A89B4
:108850001023FB18101C191CFEF78CFE031CFB6276
:1088600001E00823FB62FB6A08E0BB6A0133BB62DC
:10887000BB6A092B86DD0523FB62FB6A181CBD461B
:108880000CB080BD2C2B0020FFFF000090B5A9B0DC
:1088900000AFFEF71DFE031E012B00D0A1E0524BDE
:1088A0001B681A1E514BDB689A421ED34E4B1B6845
:1088B000391D4F4A081C111C1A1C13F0D7F93B1D17
:1088C0000020191C06F0BAF9474B00221A6000205C
:1088D000FEF72CFE454B181C08F07EFC454B002093
:1088E000191C012207F072FF7BE000238422BA18D2
:1088F00013603E498823FA188423FB18081C111CB6
:10890000142208F02DF900239C22BA1813603B1D95
:10891000394A116819609188998092799A713B1D42
:108920000020191C06F08AF91AE08823FA189C2303
:10893000FB181B68D3181B781C1C3A1D2F4B101CEE
:10894000191C221C13F092F93B1D0020191C06F083
:1089500075F99C23FB181B6801339C22BA1813601D
:108960009C23FB181A688423FB181B689A42DCD3EB
:108970003B1D0A221A803B1D0020191C06F05EF9DF
:108980008423FB181B68391D1D4A081C111C1A1C66
:1089900013F06CF93B1D0020191C06F04FF9194B20
:1089A0001A688823FB18101C191C14220523FFF7D2
:1089B000D9FE0D4B1B681A1C8423FB181B68D318A7
:1089C0001A1C094B1A60084B1B68391D0E4A081CFB
:1089D000111C1A1C13F04AF93B1D0020191C06F04B
:1089E0002DF9BD4629B090BD282B00204C37002022
:1089F0000CD0020008D0020034D002003CD00200AB
:108A000040D002007037002050D0020090B5A5B0D1
:108A100000AF786000238C22BA181360374B1B78A4
:108A2000002B4BD1354A364B101C191C012207F084
:108A3000CDFE031E32D10C23FB18324A13CA13C3D6
:108A40001168196092889A800C23FB180020191C69
:108A500006F0F4F82C4A2D4B101C191C012207F0CB
:108A6000FFFE031E0ED00C23FB18294A13CA13C3A2
:108A700012681A600C23FB180020191C06F0DEF89F
:108A8000002336E0234B7A681A6064200FF058F90F
:108A90000120FEF74BFDFFF7F9FE1CE00C23FB184D
:108AA0001D4A13CA13C31168196012791A710C2375
:108AB000FB180020191C06F0C1F80CE00C23FB1871
:108AC000164A13CA13C312681A600C23FB1800203D
:108AD000191C06F0B3F80C23FB18114A13CA13C370
:108AE0000C23FB180020191C06F0A8F88C23FB1897
:108AF0001B68181CBD4625B090BDC046F834002048
:108B000008D0020060D002004C37002074D0020070
:108B100084D002007037002094D00200A8D0020058
:108B2000B8D0020080B584B000AF7860081C111C7A
:108B3000FB1C021C1A70BB1C0A1C1A700A23FB18AF
:108B400001221A800023FB60BB1C1B78082B00D974
:108B5000A9E09A00574BD3181B689F46FB1C197855
:108B60007B68202299547B68998A0A23FA18FB1C97
:108B7000081C0021FEF7FAFC031CFB6094E0FB1CC0
:108B800019787B68362299547B68598D0A23FA1824
:108B9000FB1C081C0021FEF7E9FC031CFB6083E0C2
:108BA000FB1C19787B684C2299547B684022995AA7
:108BB0000A23FA18FB1C081C0021FEF7D7FC031C33
:108BC000FB6071E0FB1C19787B68622299547B681A
:108BD0005622995A0A23FA18FB1C081C0021FEF79A
:108BE000C5FC031CFB605FE0FB1C19787B687822E6
:108BF00099547B686C22995A0A23FA18FB1C081CAA
:108C00000021FEF7B3FC031CFB604DE0FB1C197850
:108C10007B689E2299547B688222995A0A23FA180B
:108C2000FB1C081C0021FEF7A1FC031CFB607B68F9
:108C3000181CFFF7EBFE37E0FB1C19787B68CF228E
:108C400099547B68C622995A0A23FA18FB1C081CFF
:108C50000021FEF78BFC031CFB600923FB1800229C
:108C60001A70FEF721FC031CDAB20923FB181A70F4
:108C7000FEF724FC031CDBB2002B07D00923FB18F2
:108C80001B78803BDAB20923FB181A707A68092333
:108C9000FB18101C191C01220723FFF763FD00209D
:108CA000FEF738FC00E0C046FB68181CBD4604B067
:108CB00080BDC046C4D0020080B582B000AF7860ED
:108CC000FEF740FCBD4602B080BDC04680B5ACB0EA
:108CD00000AFF860B960FB1D1A70A223FB180822D0
:108CE0001A800023AC22BA1813600023A822BA18F5
:108CF0001360FB1D1B78062B00D092E0BB6819782F
:108D0000FB68BC22995414E0A823FB181B68BA68BE
:108D1000D31819789823FA18A823FB181B68D318BE
:108D20000A1C1A70A823FB181B680133A822BA1862
:108D30001360A823FB181B68072BE5DD13E0A823AD
:108D4000FB181B68083BA822BA181268B9688A1871
:108D500011789422BA18D154A823FB181B68013348
:108D6000A822BA181360A823FB181B680B2BE6DD9A
:108D7000FB68A822995AA223FA189823FB18081C0A
:108D80000021FEF7F3FB031CAC22BA1813609423F6
:108D9000FB181B781A069423FB185B781B04D21867
:108DA0009423FB189B781B02D3189422BA18D2780C
:108DB0009B18A422BA181360FEF7DAF8A423FB1854
:108DC0001B681422B9181A4A081C111C1A1C12F02C
:108DD0004DFF1423FB180020191C05F02FFFA423BE
:108DE000FB181B68181CFEF77DFB124B1B68181C38
:108DF0000BF0A0FF0F4B1B680F4A181C111C002220
:108E00000BF052FF0D4B002000211A1C0FF07EF8D2
:108E1000FA68BB68101C191C08220623FFF7A2FC85
:108E2000C046AC23FB181B68181CBD462CB080BD87
:108E3000E8D00200FC330020AB2A00009D6D010049
:108E400080B500AFBFF34F8F024B034ADA60BFF328
:108E50004F8FFEE700ED00E00400FA0580B582B018
:108E600000AF7860A023DB057A68012191400A1CDD
:108E700002495A50BD4602B080BDC0460C050000F4
:108E800073DF7047181CC04640DF7047181CC0468F
:108E900090B5C7B002AFF860B9607A601023F818D7
:108EA0001349FA68BB6812F0E1FE1023FB1800209A
:108EB000191C05F0C3FE1023F9180E4A7B68081C24
:108EC000111C1A1C12F0D2FE1023FB180020191CD2
:108ED00005F0B4FE9023F8180749FA68BC687B686F
:108EE0000093231C12F0C2FEBD4645B090BDC046A3
:108EF00010D1020038D102003CD1020090B5A1B0DF
:108F000000AF3B1C0C4A13CA13C313CA13C313CAC2
:108F100013C31168196092889A803B1C0020191CA9
:108F200005F08CFE054B181C0EF00AFFFFF788FFBA
:108F3000BD4621B090BDC04668D102008813000034
:108F400080B5A2B000AF021C3960BB1D1A80BB1DEA
:108F50001A8810493B68081C111C1A1CFFF798FF5F
:108F60000823FA180C4B111C1A1C3923081C111C5D
:108F70001A1C12F0A0FD0823FB180020191C05F094
:108F80005DFE064B181C0EF0DBFEFFF759FFBD46D9
:108F900022B080BDEFBEADDE94D102008813000088
:108FA00080B582B000AF78607A68044B101C4F2106
:108FB0001A1CFFF76DFFBD4602B080BDD0D1020084
:108FC00080B5A2B000AF78607B681B78002B10D111
:108FD0000823FA18084B111C1A1C4123081C111CE9
:108FE0001A1C12F068FD0823FB180020191C05F05C
:108FF00025FEBD4622B080BDDCD1020090B5A9B0EF
:1090000000AFFDF79BFC8423FB18181C00211422E1
:1090100012F05AFD8423FB1800221A708423FB18D7
:1090200000225A608423FB1800221A728423FB1842
:10903000A0221A828423FB1800225A828423FB1860
:10904000181CFFF71DFF031C9C22BA1813609C23F9
:10905000FB181B689822BA1813609823FB181B682A
:10906000002B08D09823FB181A68104B101C752190
:109070001A1CFFF70DFF9C23FB181B68002B11D156
:109080003B1D0B4A13CA13C31168196012791A7178
:109090003B1D0020191C05F0D1FD1D200A21FF22D7
:1090A00003F03EFBBD4629B090BDC046D0D10200C2
:1090B00020D2020090B5A3B000AF78607B681B8817
:1090C000112B22D002DC102B05D05FE0122B4BD0ED
:1090D000192B32D05AE00823FB182E4A13CA13C3A7
:1090E00013CA13C312781A700823FB180020191C26
:1090F00005F0A4FD1D2003F08FF91D2003F06EF98B
:109100007B689A88244B1A8040E00823FB18234A86
:1091100013CA13C313CA13C312681A600823FB18B7
:109120000020191C05F08AFD1D2003F075F90020B0
:1091300002F054F9FFF762FF28E07B689B79002B6F
:1091400011D10823FB18164A13CA13C313CA13C339
:1091500013CA13C312781A700823FB180020191CB5
:1091600005F06CFD12E011E00823FB180D4A13CA4C
:1091700013C313CA13C303CA03C312781A70082394
:10918000FB180020191C05F059FDC046BD4623B050
:1091900090BDC04634D202000C20002050D2020004
:1091A0006CD2020094D2020080B586B000AFF860A5
:1091B000B9607A607B687B617B69002B06D07A6935
:1091C000054B101CFC211A1CFFF762FEC046002351
:1091D000181CBD4606B080BDD0D1020080B582B05B
:1091E00000AF78607B68181C0DF0B8FE7B68181C17
:1091F000FFF760FF7B68181C0AF0E6FC044A7B68F6
:10920000101C191CFEF734FBBD4602B080BDC046E1
:109210000034002080B582B000AF7860BD4602B057
:1092200080BDC04680B582B000AF78607B68181CF6
:109230000BF02EFF7B68181CFFF7ECFFBD4602B059
:1092400080BDC04690B5A9B000AF786039600C23EE
:10925000FB18964A13CA13C31168196012791A7160
:109260000C23FB180020191C05F0E8FC3B681B7858
:10927000082B00D912E19A008D4BD3181B689F462A
:109280008C4B20229B5C1C1C0C23FA188A4B101C54
:10929000191C221C12F0EAFC0C23FB180020191CDC
:1092A00005F0CCFC01F034FB031C9C22BA181360BF
:1092B0009C23FB181B68002B0CD09C23FB181968FF
:1092C0003A23FF331A1C7D4B081C111C1A1CFFF794
:1092D000DFFDE4E0E3E0774B62229B5C1C1C0C2387
:1092E000FA18774B101C191C221C12F0BFFC0C231F
:1092F000FB180020191C05F0A1FC01F00FFC031C59
:109300009822BA1813609823FB181B68002B0CD006
:109310009823FB1819684823FF331A1C674B081C55
:10932000111C1A1CFFF7B4FDB9E0B8E0614B4C22E8
:109330009B5C1C1C0C23FA18624B101C191C221C71
:1093400012F094FC0C23FB180020191C05F076FC8D
:1093500001F0C4FD031C9422BA1813609423FB1877
:109360001B68002B0BD09423FB181968A7235A0005
:10937000524B081C111C1A1CFFF78AFD8FE08EE06F
:109380004C4B78229B5C1C1C0C23FA184E4B101C77
:10939000191C221C12F06AFC0C23FB180020191C5B
:1093A00005F04CFC01F0CAF9031C9022BA181360B6
:1093B0009023FB181B68002B0CD09023FB18196816
:1093C0005623FF331A1C3D4B081C111C1A1CFFF7B7
:1093D0005FFD64E063E0374B36229B5C1C1C0C2372
:1093E000FA183A4B101C191C221C12F03FFC0C23DB
:1093F000FB180020191C05F021FC01F085FC031C62
:109400008C22BA1813608C23FB181B68002B0BD01E
:109410008C23FB181968AE235A00284B081C111C1A
:109420001A1CFFF735FD3AE039E0224B9E229B5C87
:109430001C1C0C23FA18264B101C191C221C12F0A1
:1094400015FC0C23FB180020191C05F0F7FB26E087
:10945000184BBC229B5C1C1C0C23FA181D4B101CC7
:10946000191C221C12F002FC0C23FB180020191CF2
:1094700005F0E4FB13E00F4BCF229B5C1C1C0C237C
:10948000FA18154B101C191C221C12F0EFFB0C23B0
:10949000FB180020191C05F0D1FB00E0C04600209D
:1094A00001F09CFFBD4629B090BDC046ECD2020041
:1094B00064D402000034002000D30200D0D10200A6
:1094C0002CD3020058D3020088D30200B4D3020088
:1094D000E0D302000CD4020038D4020080B582B080
:1094E00000AF7860FDF7F4FF031E00D05CE0304B66
:1094F0001B68002B0ED12F4B1B7801225340DBB28F
:10950000002B51D001F094FA031E4DD1284B0222BA
:109510001A6049E0264B1B68012B03D1244B022221
:109520001A6041E0224B1B68022B0ED1214B1B78A5
:1095300001225340DBB2002B36D001F07BFB031E2F
:1095400032D11B4B03221A602EE0194B1B68032BF0
:109550000ED1184B1B7801225340DBB2002B23D0D5
:1095600001F060FC031E1FD1114B04221A601BE0A6
:109570000F4B1B68042B07D101F03CFD031E13D1D8
:109580000B4B05221A600FE0094B1B68052B0BD112
:1095900001F062F9031E07D1074B1B68181C0BF082
:1095A000C9FB034B00221A60BD4602B080BDC04615
:1095B000CC2B0020A8330020F034002080B584B0EC
:1095C00000AF78600C4B1A68B623FF33101C191CCF
:1095D00000220BF069FB031CFB60FB68002B08D02A
:1095E000F968EA235A00054B081C111C1A1CFFF7E6
:1095F0004FFCBD4604B080BDF0340020D0D1020045
:1096000080B582B000AF7860034AC023DB00034915
:10961000D150BD4602B080BD000001403546526EBB
:1096200080B582B000AFFFF72FFC031C7B607B6826
:109630003B603B68002B08D03968F2235A00044B8A
:10964000081C111C1A1CFFF723FCBD4602B080BD8C
:10965000D0D1020090B5A1B000AFFCF737FE3B1CA3
:109660006B4A13CA13C31168196012791A713B1C33
:109670000020191C05F0E2FAFCF758FE3B1C654A75
:1096800003CA03C31188198092789A703B1C00208A
:10969000191C05F0D3FAFCF759FE3B1C5E4A13CAAD
:1096A00013C312781A703B1C0020191C05F0C6FA6F
:1096B000FDF734FB3B1C594A13CA13C303CA03C347
:1096C0003B1C0020191C05F0B9FAFCF7D3FE3B1C2B
:1096D000534A13CA13C312781A703B1C0020191C7A
:1096E00005F0ACFAFCF712FF3B1C4E4A13CA13C339
:1096F00012681A603B1C0020191C05F09FFAFCF749
:1097000095FF3B1C484A13CA13C303CA03C312780C
:109710001A703B1C0020191C05F090FAFCF7A4FFFE
:109720003B1C424A13CA13C31168196012791A719B
:109730003B1C0020191C05F081FAFDF70FF83B1CBB
:109740003B4A13CA13C313CA13C312881A803B1CA3
:109750000020191C05F072FAFDF764F83B1C354A2D
:1097600013CA13C31188198092789A703B1C002089
:10977000191C05F063FAFDF7E1F83B1C2E4A13CAE9
:1097800013C31168196092889A803B1C0020191C31
:1097900005F054FAFDF714F93B1C284A13CA13C309
:1097A0001168196092889A803B1C0020191C05F0F2
:1097B00045FAFDF747F93B1C214A13CA13C3116848
:1097C00019609188998092799A713B1C0020191C2C
:1097D00005F034FAFDF7C2F93B1C1A4A13CA13C349
:1097E000116819609188998092799A713B1C0020C8
:1097F000191C05F023FA1C20FFF730FB1D20FFF792
:109800002DFB002001F042FDBD4621B090BDC046B9
:1098100088D402009CD40200A8D40200B8D402006C
:10982000CCD40200DCD40200ECD4020004D5020047
:1098300018D5020034D5020044D5020058D50200E4
:109840006CD5020080D5020090B5A1B000AFFFF743
:1098500001FF114A114B101C191C012206F0B6FF22
:10986000031E0CD13B1C0E4A13CA13C311681960A6
:1098700092889A803B1C0020191C05F0DFF9074BE9
:109880000020191C012206F0A1FFFFF7B7FB0EF024
:1098900057FCFFF7C5FEFAE7F834002094D5020024
:1098A00098D5020080B582B000AF7860C046C0464F
:1098B000C046C046C046C046C046C046C046C04678
:1098C000C046C046C046C0467B68013B7B60002B5B
:1098D000ECD1BD4602B080BD80B582B000AF7860EB
:1098E000A023DB057A68C132FF3292000321D150F8
:1098F000BD4602B080BDC04680B582B000AF786082
:10990000A023DA057B6801219940A123DB00D15017
:10991000BD4602B080BDC04680B582B000AF786061
:10992000A023DB057A68012191400A1C02495A50A4
:10993000BD4602B080BDC0460C05000080B500AF3A
:1099400000200021002208F025F9021C044B1A60B7
:109950001820FFF7C1FF1820FFF7CEFFBD4680BDDE
:10996000D02B0020F0B58BB000AFF861B9616A462A
:109970007A60BA69111C013979623A610021796112
:109980003969490F7869C6000E433969CD00BA605C
:109990000021F960BD68FE68291C490F301CC40015
:1099A0000C43291CCB00D31DDB08DB006946CB1A16
:1099B0009D466B4600333B62064B1868BB6999B203
:1099C0003B6AFA6908F088F97B689D46BD460BB092
:1099D000F0BDC046D02B0020F0B58DB000AFF861CF
:1099E000B9616A467A60BA69111C0139B9623A6193
:1099F000002179613969490F7869C6000E433969D8
:109A0000CD00BA600021F960BD68FE68291C490FCD
:109A1000301CC4000C43291CCB00D31DDB08DB0029
:109A20006A46D31A9D466B4600337B620023FB6275
:109A300007E07A6AFB6AD318FF221A70FB6A0133C7
:109A4000FB62FA6ABB699A42F3D3064B1868BB699A
:109A500099B27A6AFB6908F03FF97B689D46BD467A
:109A60000DB0F0BDD02B002080B582B000AF0F4B01
:109A70007B600FE0FB1C181C0121FFF7ADFFFB1CF6
:109A80001B78FF2B00D108E00120FFF70BFF7B685C
:109A9000013B7B607B68002BECD17B685A1E9341B5
:109AA000DBB2181CBD4602B080BDC04620A1070035
:109AB00080B582B000AF1820FFF72EFFFB1D181CE9
:109AC0000121FFF789FFFFF7CFFF031E01D001231C
:109AD00002E000F005F80023181CBD4602B080BD6E
:109AE00080B582B000AF1820FFF706FFFB1D181CE1
:109AF0000121FFF771FFBD4602B080BD80B584B083
:109B000000AF78603960184BFB6011E00823FB1848
:109B1000181C0121FFF760FF0823FB181B78FF2B9F
:109B200000D008E00120FFF7BDFEFB68013BFB60B1
:109B3000FB68002BEAD10823FB181B78FE2B01D011
:109B400000230CE07A683B68101C191CFFF744FFE7
:109B50000823FB18181C0221FFF73EFF0123181CE5
:109B6000BD4604B080BDC046A086010080B584B06B
:109B700000AF78603960FFF777FF031E01D1002343
:109B80002BE03B68DAB20C23FB181A700C23FB188D
:109B9000181C0121FFF7E6FE3B68FD2B1CD07A68FC
:109BA00080239B00101C191CFFF7DCFE0C23FB1804
:109BB000181C0221FFF710FF0C23FB18181C0121B1
:109BC000FFF70AFF0C23FB181B781A1C1F231340F6
:109BD000052B01D0002300E00123181CBD4604B072
:109BE00080BDC04690B585B000AF021C3960FB1D3A
:109BF0001A70FB1D1B785BB2002B16DAFB1DFA1DD9
:109C000012787F210A401A700F23FC183720002198
:109C1000FFF7E8FF031C23700F23FB181B78012BB1
:109C200003D90F23FB181B7878E0FB1D1B780C2B46
:109C30000BD0FB1D1B78002B07D0FFF751FFFFF760
:109C400037FF031E01D1FF2368E0FB1D1B78402274
:109C50001343DAB20823FB181A703B681B0EDAB202
:109C60000823FB185A703B681B0CDAB20823FB1858
:109C70009A703B681B0ADAB20823FB18DA703B685B
:109C8000DAB20823FB181A710F23FB1801221A708D
:109C9000FB1D1B78002B03D10F23FB1895221A7094
:109CA000FB1D1B78082B03D10F23FB1887221A708A
:109CB0000823FB180F22BA1812785A710823FB18D0
:109CC000181C0621FFF74EFEFB1D1B780C2B05D13F
:109CD0000E23FB18181C0121FFF77EFE0F23FB1833
:109CE0000A221A700E23FB18181C0121FFF774FEBC
:109CF0000E23FB181B78DBB25BB2002B0BDA0F23B1
:109D0000FB180F22BA181278013A1A700F23FB18A9
:109D10001B78002BE6D10E23FB181B78181CBD46C0
:109D200005B090BD80B582B000AF021CFB1D1A705B
:109D3000054BFA1D12781A7008F032FA0123181C2C
:109D4000BD4602B080BDC046A133002090B5A1B091
:109D500000AF2D4B00221A7000F0B0F805200DF076
:109D6000EFFF2A4B181C00F02DFB031C1A1C0123CB
:109D70005340DBB2002B01D0254B40E005200DF015
:109D8000DFFF00F0A9F8031C1A1C01235340DBB2CB
:109D9000002B0CD03B1C1F4A13CA13C312881A8015
:109DA0003B1C0020191C04F049FF1B4B27E0052039
:109DB0000DF0C6FF144B1B785A1E9341D9B2174BB6
:109DC0001A78174B081C111C1A1C00F0EDF8031C24
:109DD0001A1C01235340DBB2002B0CD03B1C114A50
:109DE00013CA13C312681A603B1C0020191C04F02C
:109DF00025FF0D4B03E005200DF0A2FF0023181CEA
:109E0000BD4621B090BDC046773700207537002091
:109E100022200000BCD5020023200000D42B00200B
:109E200010200020CCD5020024200000B0B584B062
:109E300002AF7860FFF78AFF031E01D0194B2CE0B8
:109E4000194B00221A70184B1A78184B1A70174ABF
:109E5000154B101C191C00F0D7F8031C1A1C012309
:109E60005340DBB2002B01D00E4B16E0104B19789B
:109E7000104B1A680D4B1B781D1C0B4B1B781C1CC0
:109E80007B680093081C111C2A1C231C00F0EAF8B4
:109E9000031C1A1C084B1A700023181CBD4602B084
:109EA000B0BDC04625200000743700207637002062
:109EB0007737002010200020D62B002080B500AF7F
:109EC000044B1B78181CFFF72DFF031C181CBD4604
:109ED00080BDC0461520002080B500AF044B1B7824
:109EE000181C032100F0DAFA031C181CBD4680BDC3
:109EF000D72B002080B584B000AF021CFB1D1A7068
:109F0000BB1D0A1C1A70274B1A780F23FB18101C54
:109F1000191C00F06DFA031E3FD0FB1D1B78002BAF
:109F200009D00F23FB181B7810221343DAB20F233A
:109F3000FB181A7008E00F23FB181B7810229343BC
:109F4000DAB20F23FB181A700F23FB181B780322B9
:109F50009343DAB20F23FB181A70BB1D1B781A1C2F
:109F600003231340DAB20F23FB181B78DBB2134331
:109F7000DBB2DAB20F23FB181A7005200DF0E0FEF9
:109F8000084B1A780F23FB181B78101C191C00F0C3
:109F900085FA031E01D0012300E00023181CBD46F2
:109FA00004B080BD1920002080B582B000AF3A60B7
:109FB000FB1D021C1A70BB1D0A1C1A70BB1D1B78EE
:109FC000012B07D0022B09D0002B0CD13B680E22AD
:109FD0001A600BE03B6865221A6007E03B68C92203
:109FE00052001A6002E03B6800221A60FB1D1A78DA
:109FF000BB1D1B78101C191CFFF77CFF031C181CD1
:10A00000BD4602B080BDC04680B582B000AF78606A
:10A010003960124B1A787B68101C191C00F090FAFA
:10A02000031C1A1C01235340DBB2002B01D0002378
:10A0300010E00B4B1A783B68101C191C00F080FADA
:10A04000031C1A1C01235340DBB2002B01D0002358
:10A0500000E00123181CBD4602B080BD1E20002078
:10A060001F200020F0B58BB000AF3961FA60BB60F3
:10A070000F2308229446BC446344021C1A70FB68F8
:10A08000B64A934203D0BB68B44A934204D13B6CB6
:10A0900000221A6000235CE1FB687B62BB683B62C4
:10A0A000386A796A0FF06CFA031CFB61786A11F068
:10A0B00087FA051C0E1C386911F082FA031C0C1C6F
:10A0C0000020A7491A1C231C0FF0B6FF031C0C1C10
:10A0D000281C311C1A1C231C10F0ECFB031C0C1C4C
:10A0E000181C211C0FF02CFC031C7B62386A11F039
:10A0F00067FA051C0E1C386911F062FA031C0C1C6F
:10A10000002097491A1C231C0FF096FF031C0C1CFF
:10A11000281C311C1A1C231C10F0CCFB031C0C1C2B
:10A12000181C211C0FF00CFC031C3B620F2308229F
:10A130009446BC4463441B78002B05D17B6A1B0109
:10A140007B623B6A1B013B62F86911F039FA031C20
:10A150000C1C181C211C0022824B0FF0A9FB031EB3
:10A1600045D0786A11F02CFA031C0C1C181C211C19
:10A170007D4A7E4B10F09EFB031C0C1C1D1C261CF4
:10A18000786A11F01DFA031C0C1C181C211C784A5B
:10A19000784B10F08FFB031C0C1C3B607C60F86953
:10A1A00011F00EFA0A1C011C734B744C081C111C94
:10A1B0001A1C231C0EF090F8031C0C1C38687968DC
:10A1C0001A1C231C10F076FB031C0C1C281C311CD1
:10A1D0001A1C231C10F008FE031C0C1C181C211C4C
:10A1E0000FF0AEFB021C3B6C1A600123B1E0F86972
:10A1F00011F0E6F9031C0C1C181C211C604A614B71
:10A200000FF056FB031E2CD0786A11F0D9F9031C0D
:10A210000C1C181C211C5C4A5C4B10F04BFB031CF3
:10A220000C1C1D1C261C386A11F0CAF9031C0C1CDE
:10A23000181C211C4E4A564B10F03CFB031C0C1CF6
:10A24000281C311C1A1C231C10F0CEFD031C0C1CF6
:10A25000181C211C0FF074FB021C3B6C1A600123BC
:10A2600077E0F86911F0ACF9031C0C1C181C211CD8
:10A27000484A494B0FF01CFB031E2CD0786A11F0A2
:10A280009FF9031C0C1C181C211C444A444B10F061
:10A2900011FB031C0C1C1D1C261C386A11F090F9C4
:10A2A000031C0C1C181C211C3E4A3F4B10F002FBE7
:10A2B000031C0C1C281C311C1A1C231C10F094FDC0
:10A2C000031C0C1C181C211C0FF03AFB021C3B6CDD
:10A2D0001A6001233DE0F86911F072F9031C0C1CAF
:10A2E000181C211C314A324B0FF0E2FA031E2CD00D
:10A2F000786A11F065F9031C0C1C181C211C2D4AEE
:10A300002D4B10F0D7FA031C0C1C1D1C261C386AA0
:10A3100011F056F9031C0C1C181C211C274A284B51
:10A3200010F0C8FA031C0C1C281C311C1A1C231C1E
:10A3300010F05AFD031C0C1C181C211C0FF000FB14
:10A34000021C3B6C1A60012303E03B6C00221A6084
:10A350000123181CBD460BB0F0BDC046FFFF000036
:10A36000002079400000E03FC58F31772D219F3FCD
:10A370005839B4C876BEAF3F666666666666F63F15
:10A3800085EB51B81E85E33FC7BAB88D06F0963FFE
:10A3900076BE9F3F9A9999999999E93F2D431CEB75
:10A3A000E2368A3F4BC8073D9B558F3FCDCCCCCC86
:10A3B000CCCCF43FB2632310AFEB573FD2FBC6D7F0
:10A3C0009E59523F80B582B000AF7860074B1A7833
:10A3D0007B68101C191C00F00BF8031E01D0012330
:10A3E00000E00023181CBD4602B080BD1D200020E7
:10A3F00080B584B000AF021C3960FB1D1A70FB1DD4
:10A400001B781A1C0F231340DAB2214B1B78DBB2E6
:10A410001343DBB2DAB20F23FB181A701D4B1B7803
:10A42000DB18DAB20F23FB18101C191C01220123C0
:10A4300007F006FF031C1A1C01235340DBB2002B5C
:10A4400004D0154BFF221A7000231CE0114B1B781F
:10A450005B00DBB21A1C01231343DBB2DAB23B68A8
:10A46000101C191C0122012307F0EAFE031C1A1C10
:10A4700001235340DBB2002B04D0074BFF221A709C
:10A48000002300E00123181CBD4604B080BDC04677
:10A4900017200020A1330020F434002090B5A5B08F
:10A4A00000AF021CFB1D1A70BB1D0A1C1A70FB1D9D
:10A4B0001B781A1C0F231340DAB21D4B1B78DBB23A
:10A4C0001343DBB2DAB28C23FB181A708C23FB180F
:10A4D000BA1D12785A70174B1B78DB18DAB28C232E
:10A4E000FB18101C191C0222012307F0A9FE031CF3
:10A4F0001A1C01235340DBB2002B13D00E4BFF225A
:10A500001A700C23FB180D4A13CA13C31168196083
:10A5100012791A710C23FB180020191C04F08EFB11
:10A52000002300E00123181CBD4625B090BDC046A5
:10A5300017200020A1330020F4340020DCD50200D5
:10A5400080B584B000AF021C3960FB1D1A70FB1D82
:10A550001B781A1C0F231340DAB2244B1B78DBB292
:10A560001343DBB2DAB20F23FB181A70204B1B78AF
:10A57000DB18DAB20F23FB18101C191C012201236F
:10A5800007F05EFE031C1A1C01235340DBB2002BB4
:10A5900004D0184BFF221A70002322E0154B002232
:10A5A0001A7014200DF0CCFB114B1B785B00DBB252
:10A5B0001A1C01231343DBB2DAB23B68101C191CCE
:10A5C0000222012307F03CFE031C1A1C0123534006
:10A5D000DBB2002B04D0074BFF221A70002300E0EF
:10A5E0000123181CBD4604B080BDC04617200020C2
:10A5F00015200020F434002080B584B000AF7860CE
:10A600000C23FB1800225A700C23FB185A780C23D9
:10A61000FB181A700C23FB180320191C00F090FF84
:10A620000C23FB181B78191C0C23FB185B781A1CD5
:10A63000104B181C11F0EEFA0C23FB185A787B68AB
:10A640001A707B681B781A1C0B4B181C111C11F01C
:10A65000E1FA05200DF074FB7B681B78DBB25BB27E
:10A66000002B01DB012300E00023181CBD4604B0D1
:10A6700080BDC046F0D5020018D6020080B584B077
:10A6800000AF78600C23FB1800225A700C23FB18D3
:10A690005A780C23FB181A700C23FB180220191C83
:10A6A00000F04EFF0C23FB185B781B019AB20C23C1
:10A6B000FB181B789BB2191C0F230B409BB2134352
:10A6C0009BB29AB27B681A807B681B881A1C064B67
:10A6D000181C111C11F09EFA05200DF031FB00230F
:10A6E000181CBD4604B080BD2CD6020090B5A3B0A6
:10A6F00000AF78600823FB180E4A13CA13C31188F1
:10A70000198092789A700823FB180020191C04F015
:10A7100095FA094A0023002413615461064B7A68B4
:10A720001A60054B01221A760023181CBD4623B07F
:10A7300090BDC04650D60200B033002090B5A3B003
:10A7400000AF3B1D3D4A13CA13C313CA13C311689C
:10A7500019609188998092799A713B1D0020191C8B
:10A7600004F06CFA364B1A688723FB187821525C88
:10A770001A70334A00230024136154618723FB18A5
:10A780001B78012213405A1E9341DAB22C4B1A76E1
:10A790008723FB181B785B09DBB2012B12D002DC8C
:10A7A000002B05D02CE0022B16D0032B1ED027E067
:10A7B000244B181CFCF7E8FB031C0C1C204A93607C
:10A7C000D46027E0204B181CFCF7DEFB031C0C1C9C
:10A7D0001B4A9360D4601DE01C4B181CFCF7D4FB93
:10A7E000031C0C1C164A9360D46013E0184B181C11
:10A7F000FCF7CAFB031C0C1C114A9360D46009E0EF
:10A80000134B181CFCF7C0FB031C0C1C0C4A936078
:10A81000D460C0463B1D0F4A13CA13C313CA13C3E7
:10A820001168196092889A803B1D0020191C04F061
:10A8300005FA0023181CBD4623B090BD60D6020067
:10A84000B03300208096980040420F00A08601009F
:10A850001027000080D6020090B587B000AF132308
:10A86000FB18181CFFF7C8FE031C7B617B691C1CCE
:10A870003A1D104B101C191C221C11F0F7F93A1D3F
:10A880000D4B101C191CFCF7B9FD0C4B1A68142356
:10A89000FB18101C191C04220823FDF763FF031C7E
:10A8A0007B617B69181CFCF787FB0023181CBD46E5
:10A8B00007B090BDA0D60200A4D60200B03300209D
:10A8C00090B5A3B000AF78600823FB180E4A13CAF6
:10A8D00013C31188198092789A700823FB180020FE
:10A8E000191C04F0ABF9094A0023002413615461D8
:10A8F000064B7A681A60054B01221A760023181C51
:10A90000BD4623B090BDC04634D70200D0340020ED
:10A9100090B5A3B000AF3B1D3E4A13CA13C313CA80
:10A9200013C313CA13C303CA03C3118819809278CF
:10A930009A703B1D0020191C04F080F9364B1A68F0
:10A940008723FB182021525C1A70334A002300240D
:10A95000136154618723FB181B78012213405A1E90
:10A960009341DAB22C4B1A768723FB181B785B09CC
:10A97000DBB2012B12D002DC002B05D02CE0022B25
:10A9800016D0032B1ED027E0244B181CFCF7FCFA32
:10A99000031C0C1C204A9360D46027E0204B181C39
:10A9A000FCF7F2FA031C0C1C1B4A9360D4601DE0F8
:10A9B0001C4B181CFCF7E8FA031C0C1C164A93608D
:10A9C000D46013E0184B181CFCF7DEFA031C0C1CB7
:10A9D000114A9360D46009E0134B181CFCF7D4FAB9
:10A9E000031C0C1C0C4A9360D460C0463B1D0F4AEC
:10A9F00013CA13C313CA13C31168196092889A80CB
:10AA00003B1D0020191C04F019F90023181CBD4639
:10AA100023B090BD44D70200D03400208096980027
:10AA200040420F00A08601001027000074D70200EA
:10AA300090B595B002AF00237B644023FB18181C2F
:10AA400003F066FF031C7B647B6C002B01D07B6CE6
:10AA500034E03A6C2C23FB18101C191CFCF78AFB01
:10AA6000FCF718FD031C1A1C1823FB18101C191CDA
:10AA7000FCF780FB391D134A1823FC182C23FB1804
:10AA80000093081C111C0222231C11F0EFF83A1D40
:10AA90000D4B101C191CFCF7B1FC0C4B1A68402321
:10AAA000FB18101C191C04220023FDF75BFE031C7D
:10AAB0007B647B6C181CFCF77FFA0023181CBD46D6
:10AAC00013B090BD94D70200A0D70200D03400206C
:10AAD00090B5A3B000AF78600823FB180D4A13CAE5
:10AAE00013C312881A800823FB180020191C04F0D5
:10AAF000A5F8094A0023002413615461064B7A68C3
:10AB00001A60054B01221A760023181CBD4623B09B
:10AB100090BDC04630D802002837002090B5A3B0C1
:10AB200000AF3B1D3C4A13CA13C313CA13C313CA55
:10AB300013C312781A703B1D0020191C04F07EF814
:10AB4000364B1A688723FB186221525C1A70334A0D
:10AB500000230024136154618723FB181B78012212
:10AB600013405A1E9341DAB22C4B1A768723FB18F6
:10AB70001B785B09DBB2012B12D002DC002B05D065
:10AB80002CE0022B16D0032B1ED027E0244B181CE0
:10AB9000FCF7FAF9031C0C1C204A9360D46027E0F0
:10ABA000204B181CFCF7F0F9031C0C1C1B4A93608B
:10ABB000D4601DE01C4B181CFCF7E6F9031C0C1CB0
:10ABC000164A9360D46013E0184B181CFCF7DCF9AC
:10ABD000031C0C1C114A9360D46009E0134B181C31
:10ABE000FCF7D2F9031C0C1C0C4A9360D460C046DD
:10ABF0003B1D0F4A13CA13C313CA13C3116819604C
:10AC000012791A713B1D0020191C04F017F800235B
:10AC1000181CBD4623B090BD40D802002837002044
:10AC20008096980040420F00A08601001027000087
:10AC300068D8020080B58CB000AF0023FB622823E7
:10AC4000FB18181CFFF7F2F8031CFB62FB6A002BD1
:10AC500001D0FB6A27E0BB6A1A1C1423FB18101CE6
:10AC6000191CFCF787FA391C114A1423FB18081C1D
:10AC7000111C1A1C10F0FAFF3A1C0E4B101C191C68
:10AC8000FCF7BCFB0C4B1A682823FB18101C191C82
:10AC900004220323FDF766FD031CFB62FB6A181CFC
:10ACA000FCF78AF90023181CBD460CB080BDC046D5
:10ACB00088D802008CD802002837002090B5A3B0B5
:10ACC00000AF78600823FB180D4A13CA13C312881B
:10ACD0001A800823FB180020191C03F0AFFF094A53
:10ACE0000023002413615461064B7A681A60054BF7
:10ACF00001221A760023181CBD4623B090BDC04621
:10AD00001CD90200D833002090B5A3B000AF3B1D82
:10AD10003D4A13CA13C313CA13C303CA03C311881A
:10AD2000198092789A703B1D0020191C03F086FF51
:10AD3000364B1A688723FB183621525C1A70334A47
:10AD400000230024136154618723FB181B78012220
:10AD500013405A1E9341DAB22C4B1A768723FB1804
:10AD60001B785B09DBB2012B12D002DC002B05D073
:10AD70002CE0022B16D0032B1ED027E0244B181CEE
:10AD8000FCF702F9031C0C1C204A9360D46027E0F6
:10AD9000204B181CFCF7F8F8031C0C1C1B4A936092
:10ADA000D4601DE01C4B181CFCF7EEF8031C0C1CB7
:10ADB000164A9360D46013E0184B181CFCF7E4F8B3
:10ADC000031C0C1C114A9360D46009E0134B181C3F
:10ADD000FCF7DAF8031C0C1C0C4A9360D460C046E4
:10ADE0003B1D0F4A13CA13C313CA13C3116819605A
:10ADF00012791A713B1D0020191C03F01FFF00235C
:10AE0000181CBD4623B090BD2CD90200D8330020B9
:10AE10008096980040420F00A08601001027000095
:10AE200050D9020080B58CB000AF0023FB6228230C
:10AE3000FB18181C03F096FD031CFB62FB6A002B39
:10AE400001D0FB6A1AE0BA6A1423FB18101C191C03
:10AE5000FCF790F9391C0B4A1423FB18081C111C31
:10AE60001A1C10F003FF3A1C074B101C191CFCF7AE
:10AE7000C5FAFB6A181CFCF79FF80023181CBD4696
:10AE80000CB080BD70D9020074D9020090B5A3B097
:10AE900000AF78600823FB180E4A13CA13C3116869
:10AEA000196092889A800823FB180020191C03F06F
:10AEB000C5FE094A0023002413615461064B7A68D9
:10AEC0001A60054B01221A760023181CBD4623B0D8
:10AED00090BDC04604DA02008033002090B5A3B0D4
:10AEE00000AF3B1D3C4A13CA13C313CA13C313CA92
:10AEF00013C312681A603B1D0020191C03F09EFE4C
:10AF0000364B1A688723FB184C21525C1A70334A5F
:10AF100000230024136154618723FB181B7801224E
:10AF200013405A1E9341DAB22C4B1A768723FB1832
:10AF30001B785B09DBB2012B12D002DC002B05D0A1
:10AF40002CE0022B16D0032B1ED027E0244B181C1C
:10AF5000FCF71AF8031C0C1C204A9360D46027E00D
:10AF6000204B181CFCF710F8031C0C1C1B4A9360A8
:10AF7000D4601DE01C4B181CFCF706F8031C0C1CCD
:10AF8000164A9360D46013E0184B181CFBF7FCFFC3
:10AF9000031C0C1C114A9360D46009E0134B181C6D
:10AFA000FBF7F2FF031C0C1C0C4A9360D460C046F4
:10AFB0003B1D0F4A13CA13C313CA13C303CA03C3E7
:10AFC00012781A703B1D0020191C03F037FE002375
:10AFD000181CBD4623B090BD18DA02008033002053
:10AFE0008096980040420F00A086010010270000C4
:10AFF00040DA020080B58CB000AF2E23FB18181C7D
:10B00000FFF73CFB2E23FB181B881A1C1823FB1888
:10B01000101C191CFCF7AEF8391D094A1823FB183F
:10B02000081C111C1A1C10F021FE3A1D054B101CA7
:10B03000191CFCF7E3F90023181CBD460CB080BDB9
:10B0400064DA020068DA020080B582B000AF78608E
:10B05000A023DA057B6801219940A123DB00D150B0
:10B06000BD4602B080BDC04680B582B000AF7860FA
:10B07000A023DB057A68012191400A1C02495A503D
:10B08000BD4602B080BDC0460C05000080B582B050
:10B0900000AF7860A023DA05A223DB00D2587B68DA
:10B0A000DA40131C01221340181CBD4602B080BDBB
:10B0B00080B500AF044B00221A70044B01221A70B5
:10B0C0000023181CBD4680BDF8330020D03300207B
:10B0D00090B5A3B000AF021CFB1D1A70FB1D1B78BE
:10B0E000002B18D00823FB18174A13CA13C313CA1E
:10B0F00013C30823FB180020191C03F09FFD134BFA
:10B1000001221A70124B00221A701D200321802286
:10B1100001F036FB14E00823FB180E4A13CA13C3D0
:10B1200013CA13C312781A700823FB180020191CC5
:10B1300003F084FD054B00221A701D2001F06CF90C
:10B14000BD4623B090BDC046F4DA0200D82B0020E3
:10B15000F83300200CDB020090B5A3B000AF021C56
:10B16000FB1D1A70FB1D1B78002B18D00823FB1841
:10B17000174A13CA13C303CA03C30823FB180020CA
:10B18000191C03F05BFD134B01221A70124B0022B5
:10B190001A701D200321802201F0F2FA14E0082326
:10B1A000FB180E4A13CA13C303CA03C312781A70DA
:10B1B0000823FB180020191C03F040FD054B00225A
:10B1C0001A701D2001F028F9BD4623B090BDC0467D
:10B1D00028DB0200D92B0020F83300203CDB0200E2
:10B1E00090B5A5B000AF786039607A6880231B0104
:10B1F000134002D00020FFF76BFF3A6880231B0149
:10B20000134002D00120FFF763FF7A6880239B037D
:10B21000134002D00020FFF79FFF3A6880239B0372
:10B22000134002D00120FFF797FF3B6840221340F4
:10B2300025D00823FB18134A13CA13C313CA13C318
:10B2400012781A700823FB180020191C03F0F6FC72
:10B250008B23FB18181C00F0C9FE031C8C22BA18A3
:10B2600013608C23FB181B68002B08D08C23FB1861
:10B270001A68054B101C4B211A1CFDF709FEBD4630
:10B2800025B090BD54DB020070DB020090B5A7B082
:10B2900000AF78600B20FFF7F9FE031C5A425341C0
:10B2A000DBB21A1C474B1B789A420ED0454B1B78D9
:10B2B0005A1E9341DBB201225340DBB21A1C012318
:10B2C0001340DBB2181CFFF703FF1520FFF7DEFE6B
:10B2D000031C5A425341DBB21A1C3B4B1B789A4267
:10B2E0000ED0394B1B785A1E9341DBB201225340DA
:10B2F000DBB21A1C01231340DBB2181CFFF72CFF32
:10B30000324B1B7801225340DBB2002B56D00C236A
:10B31000FB182F4A13CA13C313CA13C31188198009
:10B3200092789A700C23FB180020191C03F086FCFD
:10B330008C23FB18181C00F043FE031C9422BA183F
:10B3400013609423FB181B68002B23D18C23FB185C
:10B350001B78181CFCF7D2F88C23FB181B781C1CDC
:10B36000184B1B78002B03D1174B1B78002B01D0F7
:10B37000012300E000230C22B918164A081C111CF6
:10B38000221C10F073FC0C23FB180020191C03F086
:10B3900055FC13E09423FB181B689022BA18136025
:10B3A0009023FB181B68002B08D09023FB181A6809
:10B3B000094B101C68211A1CFDF76AFDBD4627B019
:10B3C00090BDC046D82B0020D92B0020A8330020E8
:10B3D000B4DB0200D0DB020070DB020080B584B079
:10B3E00000AF021CFB1D1A70FB1D1B78002B06D042
:10B3F0001E20FFF729FE0B4B01221A700EE00F23CF
:10B40000FB1800221A700F23FB181B78002B05D0A5
:10B410001E20FFF729FE034B00221A70BD4604B020
:10B4200080BDC046D033002080B582B000AF7860C8
:10B43000C046C046C046C046C046C046C046C046DC
:10B44000C046C046C046C046C046C0467B68013BB9
:10B450007B60002BECD1BD4602B080BD80B582B0D0
:10B4600000AF78600A1CFB1C1A700C4B19787A68C4
:10B47000FB1C1B78081C111C1A1C012306F0E0FEA3
:10B48000031C1A1C01235340DBB2002B01D0044BD8
:10B4900000E00023181CBD4602B080BDDA2B00205E
:10B4A0000130000080B582B000AF78600A1CFB1C40
:10B4B0001A700F4B1B7801221343D9B27A68FB1C18
:10B4C0001B78081C111C1A1C012306F0B9FE031C72
:10B4D0001A1C01235340DBB2002B01D0054B03E0C3
:10B4E0000420FFF7A1FF0023181CBD4602B080BD59
:10B4F000DA2B00200230000080B584B000AF021CBF
:10B50000FB1D1A70FB1D1B78DB18DAB20A4B1A7090
:10B510000F23FB1882221A700F23FB18181C01211D
:10B52000FFF79CFF031E01D0044B00E00023181C12
:10B53000BD4604B080BDC046DA2B002003300000B9
:10B5400080B584B000AF021C3960FB1D1A70FB1D72
:10B550001B780B2B01D91A4B2EE00E23FB187F22F0
:10B560001A70FB1D1B785B00DBB21A1C1F235B42A9
:10B570001343DAB20F23FB181A700E23FB181B7843
:10B580000F22BA1812781340DAB20E23FB181A7081
:10B590000E23FB18181C0121FFF760FF031E01D0CA
:10B5A000084B09E03B68181C0221FFF77BFF031ED4
:10B5B00001D0044B00E00023181CBD4604B080BD40
:10B5C000043000000530000080B582B000AF786024
:10B5D000C046C046C046C046C046C046C046C0463B
:10B5E000C046C046C046C046C046C0467B68013B18
:10B5F0007B60002BECD1BD4602B080BD80B582B02F
:10B6000000AF021CFB1D1A701B4BFA1D12781A703A
:10B6100000F01AFA14200CF093FB002000F02EFA30
:10B62000002000F041FA002000F018FA002000F09D
:10B630005BFA002000F068FA002000F075FA0120A3
:10B6400000F082FA012000F08FFA012000F09CFA4D
:10B65000012000F0B9FA012000F0A6FA00F0D4FAB7
:10B6600000F0DAFA032000F02FFA012000F01CFAB3
:10B67000BD4602B080BDC0467837002080B586B098
:10B6800000AFB9607A600F23FB18021C1A702E4BB2
:10B690001B78DB18DAB20F23FB18101C191C0122CF
:10B6A000012306F0CDFD031C1A1C01235340DBB21D
:10B6B000002B13D01723FB1800221A701723FB1836
:10B6C0001B7801225340DBB2002B05D01F4B00201A
:10B6D0003C211A1CFDF7DCFB002330E01A4B1B78E1
:10B6E0005B00DBB21A1C01231343DBB2D9B27B68C7
:10B6F000DBB2BA68081C111C1A1C012306F0A0FD5D
:10B70000031C1A1C01235340DBB2002B13D0162359
:10B71000FB1800221A701623FB181B7801225340D5
:10B72000DBB2002B05D0094B002042211A1CFDF78B
:10B73000AFFB002303E00420FFF746FF0123181CA2
:10B74000BD4606B080BDC046783700201CE502002B
:10B7500080B582B000AF021C3960FB1D1A70FB1D62
:10B760001A783B68101C191C0122FFF787FF031C85
:10B77000181CBD4602B080BDF0B58DB000AFB961F8
:10B780007A610F2210218C46BC446244011C117066
:10B790006A463A617A690132511EB962111CB96078
:10B7A0000021F960B968490FF868C6000E43B9680E
:10B7B000CD00111C3960002179603D687E68291C2C
:10B7C000490F301CC4000C43291CCB00131C073349
:10B7D000DB08DB006A46D31A9D466B4600337B626A
:10B7E0007B6A0F2210218C46BC44624412781A7086
:10B7F0000023FB620AE0FB6A0133FA6AB9698A181E
:10B8000011787A6AD154FB6A0133FB62FA6A7B6968
:10B810009A42F0DB1B4B1B78DB18D9B27A6A7B6942
:10B82000DBB20133DBB2081C111C1A1C012306F029
:10B8300007FD031C1A1C01235340DBB2002B19D057
:10B84000132310229446BC44634400221A7013232D
:10B8500010229446BC4463441B7801225340DBB25F
:10B86000002B05D0084B002086211A1CFDF710FB89
:10B87000002300E001233A699546181CBD460DB02F
:10B88000F0BDC046783700201CE5020080B582B0CC
:10B8900000AF021CFB1D1A70BB1D0A1C1A70FB1D99
:10B8A0001A78BB1D101C191C0122FFF765FF031C31
:10B8B000181CBD4602B080BDB0B584B000AF051CF9
:10B8C0000C1C101C191CFB1D2A1C1A70BB1D221CF1
:10B8D0001A707B1D021C1A703B1D0A1C1A700E2365
:10B8E000FB1800221A70FB1D1A780E23FB18101C7F
:10B8F000191CFFF72DFF031C1A1C01235340DBB258
:10B90000002B01D0002346E07B1D1B7801229A40CA
:10B91000131C5A1EBB1D19787B1D1B78CB1A0133D3
:10B920009A400F23FB181A703B1D1A78BB1D19781B
:10B930007B1D1B78CB1A01339A403B1D1A703B1DAF
:10B940003A1D0F217918127809780A401A700F23CE
:10B95000FB181B78DB43D9B20E23FB181B78DAB235
:10B960000B1C1340DBB2DAB20E23FB181A700E2345
:10B97000FB181A783B1D1B781343DAB20E23FB1811
:10B980001A700E23FB181A78FB1D1B78181C111C4B
:10B99000FFF77CFF031C181CBD4604B0B0BDC046B9
:10B9A00090B583B000AF041C081C111CFB1D221CA9
:10B9B0001A70BB1D021C1A707B1D0A1C1A707B1D9D
:10B9C0001C78FB1D1A78BB1D1B78101C191C01224A
:10B9D000231CFFF771FF031C181CBD4603B090BD6C
:10B9E00080B500AF144B1B7801225340DBB2002B13
:10B9F00020D0124B1B781A1C114B1B781343114A91
:10BA0000127813435A1E9341DBB2181C00F0ECF875
:10BA1000012000F019F9094B1B781A1C084B1B7800
:10BA20001343084A127813435A1E9341DBB2181C81
:10BA300000F0FAF8BD4680BDED2B0020EA2B002077
:10BA4000EB2B0020EC2B002080B500AF6B200721F2
:10BA50000122FFF7A5FFBD4680BDC04680B582B07C
:10BA600000AF021CFB1D1A70FB1D1B786B2004210C
:10BA70001A1CFFF795FFBD4602B080BD80B582B0AD
:10BA800000AF021CFB1D1A70FB1D1B78002B08D099
:10BA9000FFF7A6FFFB1D1B786B2006211A1CFFF782
:10BAA0007FFFBD4602B080BD80B582B000AF021CF2
:10BAB000FB1D1A70FB1D1B786B2005211A1CFFF75C
:10BAC0006FFFBD4602B080BD80B582B000AF021CE2
:10BAD000FB1D1A70FB1D1B781E2000210422FFF79E
