:020000021000EC
:1060000000400020C1EC010009ED0100C1BC01000D
:106010000000000000000000000000000000000080
:106020000000000000000000000000000DED010075
:1060300000000000000000000FED010011ED010064
:1060400013ED010013ED010013ED010013ED01004C
:1060500013ED01000000000075E8010013ED0100E0
:1060600013ED010013ED0100BD9E010013ED0100D1
:1060700013ED010013ED010013ED010013ED01001C
:1060800013ED010085D0010013ED010013ED0100B7
:1060900025D1010013ED010051C9010013ED0100EC
:1060A00013ED010013ED01000000000000000000EE
:1060B00000000000000000000000000000000000E0
:1060C000164B002B00D1144B9D46402292029A1A87
:1060D000924600218B460F461348144A121A0CF0C0
:1060E0001BFA0F4B002B00D098470E4B002B00D013
:1060F00098470020002104000D000D48002802D020
:106100000C4800E000BF0CF0C9F92000290005F0A0
:10611000F5FF0CF0ADF9C04600000800004000207B
:10612000000000000000000038210020943700200B
:10613000000000000000000077DF704778DF704744
:106140007ADF70477CDF704760DF704768DF704739
:10615000A023EF220321DB05D20030B5A120995006
:106160008022C000D2051A500C2204250B4C1A5173
:106170000B4C1D510B4C1A51043C19518024E40066
:106180001C50E320C0001A5010381A5006481A500C
:10619000E222D2009950054A995030BD54070000C0
:1061A000240700002C0700000C0700001C0700005B
:1061B000A023EE210322DB05C9005A5005495A509D
:1061C000A1228021D200490599508021890599504A
:1061D0007047C04674070000002307B502200093F3
:1061E0000A2115221A4B07F05BF9002803D03D2144
:1061F000184A05F017FD18480121184A07F0B0F9B0
:10620000002803D04021134A05F00CFD1448012159
:10621000144A07F0A5F9002803D041210D4A05F0E2
:1062200001FD11480121114A07F09AF9002803D015
:106230004221084A05F0F6FC0D4801210D4A07F0FD
:106240008FF9002803D04321024A05F0EBFC07BD7B
:10625000382100205C370200483700205DC0010073
:1062600028330020297D010054330020D9C00100CB
:10627000CC330020EDC00100164910B50420583180
:1062800008F044FB002803D04B21134A05F0CAFC58
:10629000C122124992008858114B124C0340C02071
:1062A000000403438B501049201C0A1C0F4B08F0BC
:1062B00061FB002803D05021074A05F0B3FC207889
:1062C00008F07CFB002803D05221034A05F0AAFC09
:1062D00010BDC046B82800205C37020000E100E095
:1062E000FFFF00FF5033002040082000C17C010068
:1062F0001FB5012202AC23781F4993432370082065
:1063000028314F32002306F0F3FA002803D0612130
:106310001A4A05F087FC002301A80370FFF714FF59
:10632000002803D06921154A05F07CFC144806F0CA
:10633000FBFA002803D06D21104A05F073FC1148C8
:1063400006F0FCFA002803D070210C4A05F06AFC24
:106350000420FFF7F1FE002803D07321074A05F05F
:1063600061FC0120211CFFF7F1FE002803D07621FB
:10637000024A05F057FC1FBD382900205C37020097
:1063800005BF010029BF0100064A08B508201421F5
:10639000783208F083FB002803D07D21024A05F003
:1063A00041FC08BD382900205C3702001FB507F00A
:1063B000ABFB002803D08A21194A05F033FCA22345
:1063C000A022DB00D205D2580123920893436A46EB
:1063D0006846137007F09CFF002803D09021104AF4
:1063E00005F020FC0A200021684406220CF094F8F5
:1063F0001E2301ACE380113B2372063B6372093319
:10640000A372084B084801930123211C237107F054
:10641000EDFF002803D09F21014A05F003FC1FBDBA
:106420005C370200E9BE0100593300201FB500238C
:1064300001A8134905220370FFF784FE002803D04A
:10644000B021104A05F0EEFB0020FFF777FE002890
:1064500003D0B3210B4A05F0E5FB002302A84360FB
:1064600050330380503343802833C380FFF768FEE6
:10647000002803D0BD21034A05F0D4FB05B000BDC0
:10648000663702005C37020030B51F4D95B001AC95
:106490000021FC22281C0CF03FF800210C22201CBB
:1064A0000CF03AF8194BF12201930123281C2371B7
:1064B000211CEF336371A3712372E3716372A272C3
:1064C000E37204F025FF002803D0EC21104A05F008
:1064D000A9FB4022002104A80CF01EF804A80D49D5
:1064E00006F0A2F9112213AB1A704D2300226B445F
:1064F00004A81A7006F0CAF8002803D0FA21044A4A
:1065000005F090FB15B030BDD033002031BF010045
:106510005C3702006C37020030B59FB06B46DD1D62
:10652000062302AC00213822201C2B700BF0F4FF54
:1065300002230021237010A8013B3822A370A380FE
:10654000A5600BF0E9FF201C10A906F005FC00284F
:1065500004D08A21024A490005F064FB1FB030BD17
:106560005C37020010B588B001AC201C00211C2251
:106570000BF0D2FF0C4B201C6360A023DB02A36056
:1065800005232373043B2374084B6361084BA36109
:1065900006F086FC002804D09521064A490005F043
:1065A00041FB08B010BDC04655D5000059BD0100E3
:1065B00049BD01005C37020008B501F03DFB002831
:1065C00004D03221214AFF3105F02CFB03F044FABC
:1065D000002804D09A211D4A490005F023FB05F04C
:1065E00019FF002805D19C2119484900174A05F0D8
:1065F00019FB362001F074FC002804D03C21134A1A
:10660000FF3105F00FFB342003F056F8002804D0CA
:106610009F210E4A490005F005FB732001F010FD93
:10662000002804D04221094AFF3105F0FBFA762008
:1066300004F036FD002804D0A221044A490005F0E8
:10664000F1FA682003F0C2FF08BDC0465C370200C3
:1066500001100000FA2010B5C00008F0FBF9444C0E
:10666000201C00F035FF002804D0AC21414A49002D
:1066700005F0D8FA00F046FF002804D05A213D4A20
:10668000FF3105F0CFFA201C00F0FCF8002804D000
:106690005E21384AFF3105F0C5FA00F00DF90028F7
:1066A00004D0AF21334A490005F0BCFA201C01F0A8
:1066B00029F8002804D0B1212E4A490005F0B2FA89
:1066C00001F03AF8002804D064212A4AFF3105F08D
:1066D000A9FA201C00F024FC002804D06821254AD7
:1066E000FF3105F09FFA00F033FC002804D0B421FC
:1066F000204A490005F096FA201C00F0FBFA002819
:1067000004D0B6211B4A490005F08CFA00F00AFBC0
:10671000002804D06E21174AFF3105F083FA201CAF
:1067200000F0CCF9002804D07221124AFF3105F0A4
:1067300079FA00F0DDF9002804D0B9210D4A4900AA
:1067400005F070FA00240C4B201C1C7001F03AFB81
:10675000A0210A4B09031868221C06F027FFA0425B
:1067600004D0C021034A490005F05CFA10BDC046C0
:10677000D03300205C37020058330020283300203B
:106780000122A02008B50D490D4BC0025A500D49F9
:106790005850A120C0001958114319501A600A4BD3
:1067A0000A491868002206F001FF002804D0C5211C
:1067B000074A490005F036FA08BDC0460C0500003E
:1067C00000000140040500005433002055D50000AE
:1067D0005C37020000B5144BA1B01A7E134B1B7E30
:1067E0001343134A127E1343124A127E134303D1FA
:1067F000114B1B7E002B14D0104B0B21186800226C
:1068000006F0D4FE002804D0D9210D4A490005F035
:1068100009FA0C4968460BF073FF0020694602F044
:10682000E7FF21B000BDC04680330020D0340020F7
:10683000A8330020303300202837002048370020BC
:106840005C3702007637020000B50B4BA1B0186828
:1068500006F0F4FE002804D0DF21084A490005F0C4
:10686000E1F9684606490BF04BFF6946002002F04B
:10687000BFFF21B000BDC046483700205C37020092
:10688000A137020010B5A0B0041C094968460BF0FE
:1068900037FF6946002002F0ABFF002000210122F3
:1068A000044B186159611C601A7620B010BDC046B7
:1068B0000B3802008033002030B5A1B01D49684676
:1068C0000BF01EFF0020694602F092FF1A4C0022D6
:1068D0002368251C36331878002322616361012365
:1068E000034023764009042813D809F067FB030509
:1068F0000B0D0F00114800E0114805F023FCA860C3
:10690000E9600CE00F48F8E70F48F6E7FA2080004E
:10691000F3E7FA20800005F015FCA060E16068460E
:106920000A490BF0EDFE6946002002F061FF0020ED
:1069300021B030BD183802008033002080969800C6
:1069400040420F00A0860100102700003B380200E3
:1069500010B5A6B002A804F0F9FB041E08D006A8E2
:1069600014490BF0CDFE06A9002002F041FF1EE005
:10697000029B01220093019002230F4903A80BF010
:106980009DFE0E4903A805F02FFC029A0C4906A8AB
:106990000BF094FE06A9201C02F02AFF094B02A965
:1069A00018680422012304F05BFF05F0CDFB201CD6
:1069B00026B010BD573802007C3802008A38020029
:1069C000933802008033002030B51D4BA1B01A7EF1
:1069D000002A01D100242FE001201C695D690021FB
:1069E00000196941DA68186159618A4207D802D1F1
:1069F0009A68824203D800200021186159611A69FF
:106A0000012AE7D15A69002AE4D10E490C78002CFA
:106A10000DD1FFF79DFF051E0ED00B4968460BF008
:106A20006FFE201C694602F0E3FE2C1C04E00020EF
:106A30000021141C18615961201C21B030BDC046D2
:106A40008033002058330020A238020070B5184E61
:106A5000A0B03068F021012204F04CFF051E09D0DF
:106A6000144968460BF04CFE0020694602F0C0FE57
:106A7000281C1BE0FFF720FF041E0ED16A46FF23EF
:106A80006946137053709370D37030680422FE3BD4
:106A900004F0E6FE05F058FB07E0074968460BF0F6
:106AA0002FFE281C694602F0A3FE201C20B070BDFA
:106AB00080330020C0380200ED38020010B5A0B0CD
:106AC000041C094968460BF01BFE6946002002F0D1
:106AD0008FFE002000210122044B186159611C60C7
:106AE0001A7620B010BDC0460B390200603300207A
:106AF00030B5A1B01B4968460BF002FE0020694684
:106B000002F076FE184C00222368251CE933187821
:106B10000023226163610123034023764009032897
:106B20000FD809F04BFA02040A0C104800E0104894
:106B300005F008FBA860E96009E00E48F8E70E4898
:106B4000F6E7FA20C00005F0FDFAA060E1606846B3
:106B50000A490BF0D5FD6946002002F049FE0020ED
:106B600021B030BD1C3902006033002080969800AF
:106B700040420F00A0860100102700004B390200A0
:106B800010B5A6B002A804F0C5FA041E08D006A8E5
:106B900015490BF0B5FD06A9002002F029FE20E002
:106BA0000122029B019000931049131C03A80BF0D3
:106BB00085FD0F4903A805F017FB05F04FFB029A6E
:106BC0000C4906A80BF07AFD06A9201C02F010FE65
:106BD000094B02A918685F22052304F041FE05F065
:106BE000B3FA201C26B010BD6B3902007C380200BD
:106BF0008A380200973902006033002030B51D4BFF
:106C0000A1B01A7E002A01D100242FE001201C69C6
:106C10005D69002100196941DA68186159618A4289
:106C200007D802D19A68824203D800200021186157
:106C300059611A69012AE7D15A69002AE4D10E493B
:106C40000C78002C0DD1FFF79BFF051E0ED00B49D1
:106C500068460BF055FD201C694602F0C9FD2C1C4E
:106C600004E000200021141C18615961201C21B08F
:106C700030BDC0466033002058330020A8390200E0
:106C800070B5194CA0B02068F121052204F032FE45
:106C9000261C051E09D0154968460BF031FD002061
:106CA000694602F0A5FD281C1BE0FFF721FF2A1C06
:106CB000041E09D00E4968460BF022FD281C6946C7
:106CC00002F096FD201C0CE0FF2369468B54013234
:106CD0005F2AF9D1FA3B306804F0C2FD05F034FABE
:106CE000002020B070BDC04660330020CA390200C9
:106CF000F739020010B5A0B0041C084968460BF033
:106D0000FFFC6946002002F073FD00200021044BC7
:106D1000186159611C60187620B010BD193A020044
:106D20002837002030B5A1B01B4968460BF0E8FCBD
:106D30000020694602F05CFD184C00222368251CE7
:106D4000783318780023226163610123034023769E
:106D5000400903280FD809F031F902040A0C104841
:106D600000E0104805F0EEF9A860E96009E00E487F
:106D7000F8E70E48F6E7FA20C00005F0E3F9A06056
:106D8000E16068460A490BF0BBFC6946002002F04E
:106D90002FFD002021B030BD273A02002837002007
:106DA0008096980040420F00A08601001027000046
:106DB0004C3A020010B5A6B002A800F049FB041E30
:106DC00008D006A814490BF09BFC06A9002002F08D
:106DD0000FFD1EE0029B01220093019005230F4945
:106DE00003A80BF06BFC0E4903A805F0FDF9029A0D
:106DF0000C4906A80BF062FC06A9201C02F0F8FC66
:106E0000094B02A918680422032304F029FD05F0A8
:106E10009BF9201C26B010BD693A02007C380200A4
:106E20008A380200983A02002837002030B51D4BFE
:106E3000A1B01A7E002A01D100242FE001201C6994
:106E40005D69002100196941DA68186159618A4257
:106E500007D802D19A68824203D800200021186125
:106E600059611A69012AE7D15A69002AE4D10E4909
:106E70000C78002C0DD1FFF79DFF051E0ED00B499D
:106E800068460BF03DFC201C694602F0B1FC2C1C4E
:106E900004E000200021141C18615961201C21B05D
:106EA00030BDC0462837002058330020A93A0200E0
:106EB00070B5184EA0B03068F021032204F01AFD1E
:106EC000051E09D0144968460BF01AFC00206946DB
:106ED00002F08EFC281C1BE0FFF724FF041E0ED1DD
:106EE0006A46FF236946137053709370D3703068FD
:106EF0000422FC3B04F0B4FC05F026F907E0074946
:106F000068460BF0FDFB281C694602F071FC201C52
:106F100020B070BD28370020C83A0200F63A0200BF
:106F200010B5A0B0041C084968460BF0E9FB69469F
:106F3000002002F05DFC00200021044B1861596123
:106F40001C60187620B010BD153B020030330020C5
:106F500030B5A1B01B4968460BF0D2FB0020694652
:106F600002F046FC184C00222368251C6233187876
:106F70000023226163610123034023764009032833
:106F80000FD809F01BF802040A0C104800E0104862
:106F900005F0D8F8A860E96009E00E48F8E70E4867
:106FA000F6E7FA20C00005F0CDF8A060E160684681
:106FB0000A490BF0A5FB6946002002F019FC0020ED
:106FC00021B030BD273B020030330020809698006E
:106FD00040420F00A0860100102700004F3B020036
:106FE00030B50A25A7B06D44281C00F0A3FC041E90
:106FF00009D0164906A80BF083FB002006A902F071
:10700000F7FB01201FE02B8801220093019004234D
:107010000F4903A80BF052FB0E4903A805F0E4F852
:107020002A880D4906A80BF049FB06A9201C02F08E
:10703000DFFB0422094B291C1868131C04F010FC08
:1070400005F082F8201C27B030BDC046703B02001E
:107050007C3802008A380200943B02003033002062
:1070600030B51D4BA1B01A7E002A01D100242FE0BB
:1070700001201C695D69002100196941DA68186105
:1070800059618A4207D802D19A68824203D8002007
:107090000021186159611A69012AE7D15A69002A49
:1070A000E4D10E490C78002C0DD1FFF799FF051E95
:1070B0000ED00B4968460BF023FB201C694602F0FA
:1070C00097FB2C1C04E000200021141C186159615E
:1070D000201C21B030BDC046303300205833002082
:1070E000A83B020070B5184EA0B03068F021042211
:1070F00004F000FC051E09D0144968460BF000FBA3
:107100000020694602F074FB281C1BE0FFF720FFFB
:10711000041E0ED16A46FF23137053709370D37010
:1071200004226946131C306804F09AFB05F00CF841
:1071300007E0074968460BF0E3FA281C694602F0AD
:1071400057FB201C20B070BD30330020CB3B020029
:10715000FD3B0200F0B5A5B00F1C0390111C181CDC
:107160001C1C151C08F034FF0290381C0AF050FF5C
:10717000021C0B1C0020704909F086FC061C0F1C29
:10718000281C0AF045FF321C3B1C0AF0BBF809F032
:10719000FFF80090201C0AF03BFF3B1C321C0AF059
:1071A000B1F809F0F5F8039B041C002B03D1009BF8
:1071B00004011B01009302980AF02AFF00225F4B92
:1071C000061C0F1C09F09CF8051E2ED000980AF032
:1071D0001FFF5B4A041C0D1C301C391C594B07F067
:1071E00099FD594A00900191584B201C291C0AF026
:1071F00089F8574A061C0F1C564B201C291C0AF004
:1072000081F8009A019B0AF07DF8021C0B1C301CCF
:10721000391C0AF011FB09F0BBF82A9B4E49186093
:1072200004A80BF06DFA002027E0301C391C4B4AF3
:107230004B4B09F065F80290002822D000980AF024
:10724000E7FE484A484B0AF05DF8061C201C0F1C5C
:107250000AF0DEFE3E4A454B0AF054F80B1C021CB5
:10726000391C301C0AF0E8FA09F092F82A9B4049D0
:10727000186004A80BF044FA281C04A902F0B8FA1C
:1072800056E0301C391C3B4A3B4B09F039F8051ECF
:107290001FD000980AF0BCFE384A394B0AF032F889
:1072A000061C201C0F1C0AF0B3FE364A364B0AF0AF
:1072B00029F8021C0B1C301C391C0AF0BDFA09F01D
:1072C00067F82A9B3149186004A80BF019FA029854
:1072D000D3E7391C301C2E4A2E4B09F011F8071E3B
:1072E0001CD000980AF094FE2B4A2C4B0AF00AF8A6
:1072F000061C201C0F1C0AF08BFE294A294B0AF0A1
:1073000001F80B1C021C391C301C0AF095FA09F01C
:107310003FF82A9B2449186004A8ABE7234904A836
:107320000BF0EEF9381C04A902F062FA2A9B1F60E8
:10733000012025B0F0BDC046002079400000E03FAC
:10734000666666666666F63FC58F31772D219F3F7C
:107350005839B4C876BEAF3F203C020085EB51B827
:107360001E85E33FC7BAB88D06F0963F76BE9F3FB5
:107370002B3C02009A9999999999E93F2D431CEB6E
:10738000E2368A3F4BC8073D9B558F3F373C020092
:10739000CDCCCCCCCCCCF43FB2632310AFEB573F79
:1073A000D2FBC6D79E59523F423C02004D3C0200E0
:1073B00037B5064D069CAA4201D0AB4202D100204F
:1073C000206002E00094FFF7C5FE3EBDFFFF000015
:1073D00073B56B460D1CD91D0F230122114E1840A9
:1073E000B378184308703078131C4000C0B205F021
:1073F0004BF80D4C002803D1FF23002023700FE031
:1074000000231420237007F025FB01233078291C6A
:1074100040001843C0B2022205F036F80028EBD035
:1074200076BDC04600200020F034002038B5031C93
:10743000064C0D1C607B191CFFF7CAFF002803D007
:10744000A07B291CFFF7C4FF38BDC04600200020E8
:10745000F0B50024A5B0164D164E0390164904A8A9
:107460002C7034700BF04CF904A9201C02F0C0F908
:10747000301C291CFFF7DAFF071EA74209D10F496C
:1074800004A80BF03DF9381C04A902F0B1F90C482E
:107490000CE00C4B0399187832782B7800910A494C
:1074A0008968FFF785FF094B9870201C25B0F0BD57
:1074B0004C3700204E370020AA3C0200CB3C020093
:1074C000252000004F370020002000200C2B00203A
:1074D00010B5A0B0041C094968460BF011F96946C3
:1074E000002002F085F9002000210122044B1861E0
:1074F00059611C601A7620B010BDC046DA3C02000B
:10750000D034002030B5A1B01B4968460BF0F8F824
:107510000020694602F06CF9184C00222368251CF3
:107520000133D87F00232261636101230340237666
:10753000400903280FD808F041FD02040A0C104846
:1075400000E0104804F0FEFDA860E96009E00E4884
:10755000F8E70E48F6E7FA20C00004F0F3FDA0605B
:10756000E16068460A490BF0CBF86946002002F05A
:107570003FF9002021B030BD1C390200D03400207A
:107580008096980040420F00A0860100102700005E
:10759000E93C020010B5A6B002A803F0BBFD041E32
:1075A00008D006A815490BF0ABF806A9002002F098
:1075B0001FF920E00122029B019000931049131C47
:1075C00003A80BF07BF80F4903A804F00DFE04F0AC
:1075D00045FE029A0C4906A80BF070F806A9201C7B
:1075E00002F006F9094B02A918680422231C04F0D2
:1075F00037F904F0A9FD201C26B010BD073D02009C
:107600007C3802008A38020097390200D03400200A
:1076100030B51D4BA1B01A7E002A01D100242FE005
:1076200001201C695D69002100196941DA6818614F
:1076300059618A4207D802D19A68824203D8002051
:107640000021186159611A69012AE7D15A69002A93
:10765000E4D10E490C78002C0DD1FFF79BFF051EDD
:107660000ED00B4968460BF04BF8201C694602F01F
:10767000BFF82C1C04E000200021141C1861596183
:10768000201C21B030BDC046D0340020583300202B
:10769000313D020070B5184EA0B03068F0210022D4
:1076A00004F028F9051E09D0144968460BF028F8A3
:1076B0000020694602F09CF8281C1BE0FFF722FF1F
:1076C000041E0ED16A46FF236946137053709370EF
:1076D000D37030680422231C04F0C2F804F034FD97
:1076E00007E0074968460BF00BF8281C694602F0D2
:1076F0007FF8201C20B070BDD0340020513D020026
:10770000803D020010B5A0B0041C094968460AF08B
:10771000F7FF6946002002F06BF8002000210122EB
:10772000044B186159611C601A7620B010BDC04628
:10773000A03D0200A833002030B5A1B01B49684627
:107740000AF0DEFF0020694602F052F8184C0022D1
:107750002368251C4C3318780023226163610123C0
:1077600003402376400903280FD808F027FC0204C1
:107770000A0C104800E0104804F0E4FCA860E9603E
:1077800009E00E48F8E70E48F6E7FA20C00004F0DA
:10779000D9FCA060E16068460A490AF0B1FF694679
:1077A000002002F025F8002021B030BDAE3D0200DF
:1077B000A83300208096980040420F00A086010068
:1077C00010270000D13D020010B5A6B002A803F0BA
:1077D000D9FC041E08D006A814490AF091FF06A996
:1077E000002002F005F81EE0029B012200930190A8
:1077F00003230F4903A80AF061FF0E4903A804F010
:10780000F3FC029A0C4906A80AF058FF06A9201CAE
:1078100001F0EEFF094B02A918680422022304F0CC
:107820001FF804F091FC201C26B010BDEE3D0200B4
:107830007C3802008A380200143E0200A83300207F
:1078400030B51D4BA1B01A7E002A01D100242FE0D3
:1078500001201C695D69002100196941DA6818611D
:1078600059618A4207D802D19A68824203D800201F
:107870000021186159611A69012AE7D15A69002A61
:10788000E4D10E490C78002C0DD1FFF79DFF051EA9
:107890000ED00B4968460AF033FF201C694601F000
:1078A000A7FF2C1C04E000200021141C1861596162
:1078B000201C21B030BDC046A83300205833002022
:1078C000233E020070B5184EA0B03068F0210222AD
:1078D00004F010F8051E09D0144968460AF010FF9C
:1078E0000020694601F084FF281C1BE0FFF724FFFD
:1078F000041E0ED16A46FF236946137053709370BD
:10790000D37030680422FD3B03F0AAFF04F01CFC96
:1079100007E0074968460AF0F3FE281C694601F0B3
:1079200067FF201C20B070BDA8330020423E02003B
:10793000703E020073B5002401AE051C311C03200B
:107940007470347001F0CCFE0F22717806480B0180
:10795000317811401943298009B20AF083FE0520CD
:1079600007F078F8201C76BD8F3E02000123C04648
:10797000C046C046C046C046C046C046C046C046D7
:10798000C046C046C046C046C046013B002BEED1B3
:1079900070470000002008B5011C021C03F00EFC1B
:1079A000064BEC221860A0230321DB05D20099507E
:1079B0008021A1224904D200995008BD102B00203B
:1079C00080B5021C6846CB1DDB08DB00C31A00AF84
:1079D0009D46044B89B218686B4603F04BFCBD46CC
:1079E00080BDC046102B0020B0B5031C6846CA1DE0
:1079F000D208D200821A00AF95460C1C68466C442F
:107A0000A04203D0FF2505700130F9E7034889B291
:107A1000006803F02FFCBD46B0BDC046102B00200F
:107A200037B5094C6B46DD1D281C0121FFF7DCFF33
:107A30002B78FF2B04D0013CFFF798FF002CF1D1ED
:107A4000601E8441E0B23EBD20A1070007B5A1231E
:107A50008021A0224904DB00D205D1506B460121D0
:107A6000D81DFFF7C1FF07BD13B5A0228021094B28
:107A7000D2054904D1506B460121D81DFFF7B4FF50
:107A8000FFF7CEFF041E02D1FFF7E0FF00E0012464
:107A9000201C16BD0C050000F7B5071C0E1C0F4D71
:107AA00001AC201C0121FFF79FFF2378FF2B0DD095
:107AB00023780020FE2B0FD1381C311CFFF794FFD8
:107AC000201C0221FFF790FF012005E0013DFFF798
:107AD0004DFF002DE4D1EBE7FEBDC046A0860100BE
:107AE000F7B5071C0E1CFFF79BFF041E1CD001AD51
:107AF000281C01212E700124FFF762FFFD2E13D0F8
:107B00008021381C8900FFF75BFF281C0221FFF74A
:107B10006BFF211C281CFFF767FF1F232C781C40DC
:107B2000053C63425C41E4B2201CFEBD30B543B26B
:107B300085B0041C0D1C002B07DA37200021FFF74D
:107B4000F5FF01283AD87F231C400C2C0ED140238E
:107B500002A8234303702B0E43702B0C83702B0A57
:107B6000C37005719523002C0FD00AE0002CEED0D5
:107B7000FFF76CFFFFF778FF031CFF20002B1DD0E1
:107B8000E5E78723082C00D0863B06214371FFF7E9
:107B900017FF6B46DD1D0C2C03D1281C0121FFF7BC
:107BA00023FF0A24281C0121FFF71EFF287843B277
:107BB000002B03DA013CE4B2002CF3D105B030BD58
:107BC00000B5A1B068460A490AF09AFD694600204E
:107BD00001F00EFE0122074B03211A700022064B12
:107BE0001D201A70803201F09BFF21B000BDC046FD
:107BF000A03E0200142B0020C833002000B5A1B025
:107C000068460A490AF07CFD6946002001F0F0FD53
:107C10000122074B03215A700022064B1D201A70C7
:107C2000803201F07DFF21B000BDC046B83E0200A9
:107C3000142B0020C833002000200122024B1870B2
:107C4000024B1A707047C046C8330020A033002092
:107C500010B5041CA0B0002802D0FFF7B1FF0CE063
:107C6000074968460AF04CFD201C694601F0C0FD3A
:107C7000044B1D201C7001F01FFF20B010BDC0463A
:107C8000CC3E0200142B002010B5041CA0B000282C
:107C900002D0FFF7B3FF0CE0074968460AF030FD59
:107CA000201C694601F0A4FD044B1D205C7001F00E
:107CB00003FF20B010BDC046E53E0200142B00209B
:107CC00070B580252D01A0B0061C0C1C284202D0E6
:107CD0000020FFF7BDFF2C4201D0FFF771FF802588
:107CE000AD032E4202D00020FFF7CEFF2C4201D080
:107CF000FFF784FF630610D5094968460AF000FDC6
:107D00000020694601F074FD684600F041F9002842
:107D100003D04A21034A03F085FF20B070BDC0465E
:107D2000FA3E0200133F0200012070B5A026A225F2
:107D3000011CF605ED001E4C72592378D20AA2B040
:107D40009143994202D05840FFF782FF0120011C65
:107D500072596378520D9143994202D05840FFF70F
:107D600093FF144B1D78002D20D1134902A80AF06F
:107D7000C7FC281C02A901AD01F03AFD281C00F047
:107D8000FBF800280ED121786A780123002900D160
:107D9000637802A809490AF091FC02A9002001F0C9
:107DA00027FD03E06421064A03F03CFF22B070BDCA
:107DB000142B0020583300204F3F02006A3F02007E
:107DC000133F0200002809D08021A123A022DB005C
:107DD000D205C905D1500122014B1A707047C04627
:107DE000A0330020B0B5131C6C460833DB08DB0061
:107DF000E31A00AF9D466C4600232070D8B2904233
:107E000004D2CD5CE01845700133F7E7064B211C26
:107E10001878012304F038FB002801D0002000E08E
:107E20000248BD46B0BDC046162B002001400000F0
:107E300073B56B46141C0122154ED9710733051C0E
:107E4000191C3078131C04F01FFB00281BD00123E1
:107E50003078291C1843221C04F016FB002814D08B
:107E60000423C046C046C046C046C046C046C046C1
:107E7000C046C046C046C046C046C046C046013B9C
:107E8000181EEED102E0034800E0034876BDC0466C
:107E9000162B0020014000000240000013B501AC89
:107EA000201C0C210222FFF7C3FF002801D00B4841
:107EB00013E0202263780C209343211C1E3A637048
:107EC000FFF790FF0028F2D120706070211C1A305B
:107ED0000222FFF787FF0028E9D116BD0440000009
:107EE00037B5234B400001AC18701821201C02222A
:107EF000FFF79EFF002801D01E4837E0201C082114
:107F00000222FFF795FF0028F6D120706070211C37
:107F100006300222FFF766FF0028EDD12070607066
:107F2000211C0A300222FFF75DFF0028E4D17C23E8
:107F3000FF251830211C022223706570FFF752FFC5
:107F40000028D9D197230C302370211C3B3B0222FF
:107F50006370FFF747FF0028CED12070211C14303A
:107F600002226570FFF73EFF0028C5D13EBDC04626
:107F7000162B00200340000008B504210222FFF761
:107F800057FF002800D0014808BDC046054000004A
:107F900037B501AD041C1A21281C0222FFF748FF47
:107FA00000281CD101222B78134201D0207013E04D
:107FB00002210B420AD10422134201D021700BE0AE
:107FC000190701D5032306E0D90601D5227003E085
:107FD0009B0601D505232370FFF760FF00E00148F1
:107FE0003EBDC046064000000423C046C046C04611
:107FF000C046C046C046C046C046C046C046C04651
:10800000C046C046C046013B002BEED17047000081
:1080100007B5094A01AB187059701078191C022273
:10802000012304F031FA002803D0FFF7DDFF002020
:1080300000E002480EBDC046172B0020164000008D
:1080400010B50F4C6378002B17D1FF214000207032
:108050000320A170FFF7DCFF011E01D009480DE0ED
:108060000220FFF7D5FF011EF8D10120FFF7D0FF56
:108070000028F3D10123637000E0034810BDC0461F
:10808000172B00200740000006400000002310B519
:10809000934203D0CC5CC4540133F9E710BD82187D
:1080A000904202D001700130FAE7704710B50368C2
:1080B0001A1E10D0117820290BD93A2901D001328B
:1080C000F8E7591C1C788A4205D1302C03D10233C1
:1080D0000360002001E00120404210BD10B50923DB
:1080E000002810D00268002A0DD0117800290AD08B
:1080F000D48881888C4206D1507801F035F9032369
:10810000C007C0170340181C10BDCB7E021C887E20
:108110001B021843032A05D14B7D0A7D1B02134322
:108120001B0418437047F8B5071CC56A3037012394
:10813000041C391C40782A1C01F0D8F901230028BE
:1081400014D1236AA2692071EB1A934201D3002350
:108150000CE0E678012EFAD9A3696078ED18391C95
:108160002A1C012301F0C2F9013EF3E7181CF8BDF7
:1081700008B5031C02790020824202D0181CFFF7C8
:10818000D2FF08BDF8B5041CFFF7F2FF051E53D15E
:108190002378032B48D16779012F45D1261C8022F3
:1081A0003036301C291C9200FFF779FF5522234BF3
:1081B0004121E254224B9218E254221CDE3BFF3B49
:1081C000313233701370231C6122323385201A70D0
:1081D00059707223800023541A4823541A4BE154D7
:1081E0001A4BE2542369B832FF32A354184A190AD1
:1081F000A154184A190CA154174A1B0EA354E36842
:108200000132A354154A190AA154154A190CA15454
:10821000144A1B0EA354E36960785A1CE262311CB5
:108220003B1C01F063F96571002160780A1C01F0C4
:10823000A9F9431E9841C0B2F8BDC0462E02000005
:108240002F020000150200001602000017020000B5
:10825000190200001A0200001B0200001D020000AB
:108260001E0200001F02000070B5C36A041C0E1C31
:108270000025994210D0FFF77BFF051E0CD1211C71
:1082800060783031321C012301F0F6F8002802D06A
:10829000012601357642E662281C70BD002310B528
:1082A0000371013BC362041CFFF7DEFF011C0320C6
:1082B000002939D11D4B1E4AE35CA25C1B0213430B
:1082C0001C4A1BB2013893422ED1231C69331B7800
:1082D000081C1A06231C68331B781B041343221C3A
:1082E000663212781343221C67321278120213434B
:1082F000114A1B021B0A934216D0231C853318789F
:10830000013B1B7800061B041843231C82331B7897
:108310008334184323781B0218430002074B000ADA
:10832000C018431E9841C0B210BDC0462F020000C5
:108330002E02000055AAFFFF46415400BABEABFF13
:108340000023F0B5036089B0071C081C161CFFF75A
:10835000ADFE0B23051E00DA8FE1C94B8200D45815
:108360000C23002C00D188E13C602378002B0DD039
:10837000607800F0F9FF0123034007D1002E00D1FF
:108380007BE1420700D478E10A2376E10023E8B2DA
:108390002370607000F0F2FF0323C20700D56CE188
:1083A000002E01D04307EFD4201C0021FFF776FFF9
:1083B000012828D1231C0020F333FF330022197831
:1083C000914209D0DA7911069A7912040A4319798F
:1083D0000A43597909020A43810004AD01304A5128
:1083E00010330428EAD1002504AB5E590220002E88
:1083F00005D0201C311CFFF751FF00280CD004359C
:10840000102DF1D135E100260123032800D134E1FC
:10841000B04201D00D2330E1231C221C3C331B78D9
:108420003B3212781B02134380221BB2920093420C
:10843000F0D1231C221C47331B78463212781B02D2
:10844000134311D1231C57331B781A06231C5633B0
:108450001B781B041343221C543212781343221C32
:1084600055321278120213430093009BA361231C20
:1084700040331A78531EE270012BCBD8231C3D33B6
:108480001978A1700029C5D04B1E1942C2D1231CF6
:1084900042331F78013B1B783F021F4327813B0774
:1084A000B8D1231C44331878013B1B7800021843D1
:1084B00010D1231C53331878013B1B7800061B0492
:1084C0001843231C50331B781843231C51331B784B
:1084D0001B021843231C251C3F331B783E352D7887
:1084E0001B021D43019595D0009B53430393039AB0
:1084F0003B095B199B18029398428BD3C01A07F073
:1085000067FD002886D05F4B0125984204D95E4D57
:108510008542AD416D420235019B029A0230F3184B
:1085200092196061E6612362A262032D17D1002FC8
:1085300000D06FE7231C5F331B7880001A06231CD2
:108540005E331B781B041343221C5C3212781343E6
:10855000221C5D3212781202134363620FE0002F77
:1085600000D157E7039AD3186362022D01D140006E
:1085700005E003230122434310405B081818434BD6
:10858000C018009B400A834200D243E701235B42AC
:108590002361E36081336371032D61D1231C221CAD
:1085A00061331B78603212781B021343012B57D1C1
:1085B000711C201CFFF758FE002851D1344B60710C
:1085C000344AE35CA25C1B021343334A1BB293425E
:1085D00046D1231C33331B781A06231C32331B78F5
:1085E0001B041343221C303212781343221C3132F5
:1085F000127812021343294A934231D1284BE35C8B
:108600001A06284BE35C1B04134385229200A25CEC
:108610001343254AA25C12021343244A93421FD1FA
:10862000234BE35C1A06234BE35C1B0413438622B3
:108630009200A25C1343204AA25C120213432361FE
:108640001E4BE35C1A061E4BE35C1B04134387229C
:108650009200A25C13431B4AA25C12021343E36024
:10866000074A2570938801339BB29380E3800023EF
:1086700003E00123032800D0CCE6181C09B0F0BDAC
:108680001C2B0020F50F0000F5FF0000FF0100008B
:108690002F0200002E02000055AAFFFF5252614136
:1086A00017020000160200001502000072724161FC
:1086B0001B0200001A020000190200001F02000045
:1086C0001E0200001D020000436902399A1E0023A9
:1086D000914203D28378826A59438B18181C7047E1
:1086E000F7B50124A14265D94369994262D2037862
:1086F0000E1C051C022B2DD0032B3FD0A34259D1B9
:108700004F087F18036A790AC918FFF7ADFD0028E2
:1087100002D0012464424DE07B1CFF05590A0193FD
:10872000FF0D2B6AEF193037C918281C3F78FFF767
:108730009BFD0028EDD1019BD805C00D2D183035CB
:108740002B781B021F43264201D03C0932E03F0533
:108750003C0D2FE0036A090AC918FFF785FD0028C0
:10876000D7D1FF2376005B001E40AB193036AD1920
:1087700030336C781B7824021C431BE0036AC90960
:10878000C918FFF771FD0028C3D1FD30B600FF30D6
:108790000640321C3032AA189478D37824041B0681
:1087A0001C435378AE191B0230361C4333781C43EC
:1087B00024012409201CFEBDF8B5051CE98084684D
:1087C0000E1C012C01D1022038E003685A69944242
:1087D000F9D2002C0BD11A78032A02D15A6A002A46
:1087E00004D11A899642EED2586A17E0141C211C53
:1087F0009F783F01BE420DD32868FFF771FF011C2F
:10880000431C1AD00128DED92B685B699842DAD262
:10881000F61BEFE728680C1CFFF756FFEC600028FA
:10882000D1D00F2133093140181849012B6830315C
:10883000591828616961002000E00120F8BDF7B5F2
:10884000041C0E1C151C022001297DD96369994264
:108850007AD22778874245D0032F57D0012F73D182
:108860004B085B18590A0093236A201CC918FFF7AC
:10887000FBFC002868D1009B3E4001330193009B24
:10888000EAB2DB05DB0DE318002E08D01A1C3032EB
:1088900011780F220A40E9B209010A43D2B23033FB
:1088A0001A7001232371019B201C590A236AC918DD
:1088B000FFF7DAFC002847D1019BDB05DB0DE2184E
:1088C000002E02D02D09EDB208E0131C30331978C8
:1088D0000F232D0A99432B4019430D1C131C3033D1
:1088E0001D702FE0236A090AC918201CFFF7BCFC81
:1088F000002829D1FF2376005B001E40A3193033E6
:1089000030361D70A6192D0A75701BE0236AC9093F
:10891000C918201CFFF7A8FC002815D1FE23B600BB
:108920005B001E40331C3033E318DA78A6191209B5
:10893000120715432A0A303635705A702A0C2D0E4C
:108940009A70DD7001232371FEBD0000F8B5051C8F
:108950000E1E06D1C768002F13D043699F4211D362
:108960000FE0FFF7BDFE0124A04242D9431C02D113
:10897000012464423DE06B69041C371C984201D21B
:1089800037E001273C1C6B6901349C4204D3012F62
:1089900001D800242DE00224281C211CFFF7A0FE92
:1089A000002808D0431C01D0012801D1041C20E07C
:1089B000BC42E8D1EDE7281C211C0F4AFFF73FFF1E
:1089C000002813D1002E0AD12B69EC605A1C10D05C
:1089D0000122013B2B616B7913436B7109E0281C69
:1089E000311C221CFFF72BFF0028EDD00128BFD03F
:1089F0000124201CF8BDC046FFFFFF0FF7B5C68855
:108A00000136B3B2002B01D104206AE00369002BC8
:108A1000FAD00F2232400F1C041C0192002A58D1B8
:108A2000C168013303610068002903D103899E42B4
:108A3000EAD24EE082783309013A1A4249D1FFF76F
:108A40004FFE051E012D01D802204AE0431C01D132
:108A5000012046E0206843699D4234D3002FD3D0E3
:108A6000E168FFF773FF051C0720002D39D0012DA9
:108A7000EAD06B1CECD02068FFF77AFB0090031E55
:108A8000E6D180222068191C30309200FFF707FBE6
:108A90002768291C381CFFF717FEF862009F23681F
:108AA0009A7897420CD201221A712068FFF760FB76
:108AB0000028CDD122680137D36A0133D362EEE7B3
:108AC000DA6AD71BDF62E5602068291CFFF7FCFD2E
:108AD00020610020019B22685B013033D318E680BF
:108AE0006361FEBDF0B50B7885B0041C0D1C2F2B07
:108AF00001D05C2B00D101350026A6602B781F2BFE
:108B000006D8201C311CFFF757FE6661D5E0013501
:108B10002B782F2BFBD05C2BF9D0A66920210B22C0
:108B2000301CFFF7BCFA002108230A1C00910193B6
:108B3000009B01330293009BEB5C202B43D92F2B2E
:108B400041D05C2B3FD02E2B00D19BE0019881427D
:108B500000D395E058B2002801DA032002437F20B9
:108B600084469C4460466F46F873F87B1E2807D9FC
:108B7000202084469C446046F873F87B1C2819D852
:108B800000980230844602982F5C381C40383E28FA
:108B900003D94038C0B27C2872D80198013881428C
:108BA0006ED273546346481C375402310293029BC1
:108BB0000093BDE700274248C05D00286BD0013715
:108BC0009842F8D15CE0029820272D1800209F429F
:108BD00040418300002953D03178E52901D1E039A3
:108BE00031700199082901D19200D2B203211140BC
:108BF000012902D10F310B43DBB20C210A40042AB8
:108C000002D104321343DBB2F372201C0021FFF7C0
:108C1000D3FD00281CD120682169FFF725FB00281F
:108C200016D161690B78002B11D00823CA7A1A403B
:108C300008D1A6698B5CB05C0132181A02D10B2AEC
:108C4000F8D105E0201C0021FFF7D8FEE1E7042061
:108C5000A369DB7A002805D004282ED103422CD149
:108C600001302AE05B0728D46169CB7ADB0605D5A1
:108C700023681878FFF749FAA06049E705201CE04F
:108C800006201AE0019B082BFAD10B2392000199D0
:108C9000D2B201938BE71F1C413F192F02D8022744
:108CA0003A4307E01F1C613F192F03D80127203BDF
:108CB0003A43DBB27354013179E705B0F0BDC046E9
:108CC000943F020038B50021051CFFF775FD041E16
:108CD00010D128682969FFF7C7FA041E0AD16B6909
:108CE0001B78E52B0AD0002B08D0281C0121FFF7A8
:108CF00085FEECE7042C14D1033412E028682969BE
:108D0000FFF7B2FA041E0CD16869211C2022FFF77C
:108D1000C6F90B226869A969FFF7B8F901222B6827
:108D20001A71201C38BD70B5041C0D1E012D01D810
:108D3000022024E043699942FAD263699D4205D238
:108D4000201C291CFFF7CCFC061E01D1002016E0D8
:108D50000128EDD0431C11D0201C291C0022FFF754
:108D60006EFD00280BD123695A1C05D00122013366
:108D70002361637913436371351CDEE7012070BD05
:108D80001FB5019003A8141C00910391FFF78EF901
:108D90000B22002817DB0D4B8000C258002A01D09F
:108DA00000211170019A002A01D00021117001994F
:108DB00019500A1E07D00022012C04D101A86946CF
:108DC000FFF7BEFA021C101C04B010BD1C2B0020C3
:108DD000F0B58FB0051C03910920002D00D18CE067
:108DE000161C00231E222B60324007A803A9FFF7A0
:108DF000A7FA002800D080E004AB07A803990D93E0
:108E0000FFF770FE0C9C002802D1002C00D1063028
:108E10001F271C2337401E4242D000280AD00428B6
:108E200002D107A8FFF74EFF08230C9C1F43002820
:108E300007D062E01123E27A1A425DD1082073075D
:108E40005BD43B0736D54A2300262374043B637466
:108E5000079BA673E673E67226776677A677E677B2
:108E60001878211C0193FFF750F90123019AA67687
:108E7000E6762675667502901371B0421AD0101C02
:108E80000299D66AFFF74FFF002836D1029B079858
:108E9000013BC360311CFFF7E7F900280AD02CE042
:108EA00000282AD1E37A0420DA0626D4B20701D5B5
:108EB000DB0721D43B0701D520231F43079E211C3C
:108EC000F36AAF710027EB612C62EF713078FFF726
:108ED0001CF92861E37F381C1A06A37F1B04134387
:108EE000227F1343627FAF6012021343EB60AF61D6
:108EF0002E60F388AB8000E007200FB0F0BDF0B526
:108F00001F1C002385B03B60051C0091161CFFF759
:108F1000E5F8002800D08BE0E879002800D087E051
:108F2000AB790730DB0700D482E0EB68AA68341C19
:108F30009B1A9E423BD91C1C39E0AA68D3055BD121
:108F40002868530A8678013E3340DBB20193002B38
:108F500030D02B686969181C0293FFF7B5FB002815
:108F600031D0019B660AC3180393002E42D0029BA6
:108F7000019A9B78B2189A4201D9019A9E1A029BD3
:108F800000995878039A331C00F076FA00281ED115
:108F900029680B79002B1FD17602009BA41B9B191B
:108FA0000093AB689B19AB603B689B193B60002C3E
:108FB000C3D13CE0002A01D1286902E06969FFF7CA
:108FC0008FFB012801D8022002E0431C02D10120BE
:108FD000E8712DE06861BCE7CB6A039A981AB04249
:108FE000DAD28022009B4002181830319200FFF73D
:108FF0004DF8D1E7039BAB618022AB689200DB05A3
:10900000DB0DD31A261E9E4200D91E1C2868A969B2
:10901000FFF72AF90028DAD1AB680098D905C90D05
:109020002B6830315918321CFFF730F8B5E7201C97
:1090300005B0F0BDF0B51F1C002385B03B60041CDB
:109040000191151CFFF74AF8002800D0B1E0E37940
:10905000181E00D0ADE0A2790720920700D4A8E046
:10906000A268A91891425B415B421D40002D16D0B9
:10907000A268D30570D12068530A817801390B406A
:10908000DBB20293002B1FD1002A03D121690029F2
:109090000CD100E06169FFF759FC011E06D1A368FD
:1090A000E268934200D87FE0E3607DE0012901D1CE
:1090B000022002E04B1C02D10120E07179E023691B
:1090C0006161002B00D121612068A269C36A9342CB
:1090D00003D1FFF74DF80028EED126686169301CF6
:1090E000FFF7F2FA0028E3D0029BC31803936B0A40
:1090F000009323D0009A0299B37852189A4201D96A
:109100005B1A009370780199039A009B00F0EEF9C6
:10911000061ED1D12068039AC36A991A009B99420E
:1091200009D28022019B4902591830309200FEF783
:10913000ADFF23681E71009B5E022AE0A368E2680F
:10914000934207D3301CFFF713F80028B4D12368EB
:10915000039ADA62039BA3618022A3689200DB0575
:10916000DB0DD31A2E1E9E4200D91E1C2068A16959
:10917000FFF77AF800289FD1A368321CD805C00DEC
:109180002368303018180199FEF780FF0123226808
:109190001371019BAD1B9B190193A3689B19A360DD
:1091A0003B689B193B6061E720220020A3791343B1
:1091B000A37105B0F0BD38B5041CFEF78FFF002881
:1091C00030D12025A3792B422CD02068E169FFF70C
:1091D0004BF8002826D1236ADA7A2A43DA72227BF6
:1091E0001A77627B5A77E268120C9A77E268120E5D
:1091F000DA77226998759A76110A120C1A75120A92
:109200005A754A221A76043AD976D8755A769874DD
:10921000D874A3792268AB43A3710123137120682A
:10922000FEF7B0FF38BD10B5041CFFF7C4FF0028DF
:1092300005D1201CFEF752FF002800D1206010BD90
:10924000F7B5041C0D1CFEF749FF002877D1E07923
:10925000002874D1E3689D4203D9A279920700D413
:109260001D1C0022A368A260954201D1002056E097
:109270002768BE787602002B14D0013B311C681E93
:10928000009306F0A5FE311C0190009806F0A0FEA8
:10929000019B834206D3009A73421A40A260AD1A22
:1092A000616911E0216900290DD1381CFFF74EFBDF
:1092B000011E012901D1022002E0431C02D101203C
:1092C000E0713CE0206161610029CFD0B5421AD93C
:1092D000A37920689B0704D5FFF738FB011E03D153
:1092E00010E0FFF7FDF9011C4B1CE8D00129E2D981
:1092F00023685B699942DED2A36861619B19A36010
:10930000AD1BE3E7351CA3685B19A360EB05ADD08B
:109310002068FFF7D9F90028CDD06D0A4019A3685D
:10932000DA0503D0A269904200D0A061E268002073
:10933000934204D92022E360A3791343A371FEBDB5
:10934000FA239B00C046C046C046C046C046C04641
:10935000C046C046C046C046C046C046C046C046DD
:10936000013B002BEED170470123002801D1024BB5
:109370001B78181C7047C0461320002073B50324C7
:10938000002872D10A3005F065FBFEF703FB0734B5
:1093900001AD013C281C0121E4B2FEF725FB002CA5
:1093A000F6D1201C211CFEF7C1FB061E012E01D0A8
:1093B000002446E0D52108204900FEF7B7FB01282C
:1093C00018D1281C0421FEF70FFBAB78012BEFD13D
:1093D000EB78AA2BECD1FA24A4008021A920C9059E
:1093E000FEF7A4FB011E1ED0013CFFF7A9FF002CD5
:1093F000F3D1DDE7A920211CFEF798FB012802D953
:10940000351C341C01E0A9250224FA26B600281CCC
:109410000021FEF78BFB00281DD0013EFFF790FFD7
:10942000002EF4D1C4E73A20FEF780FB0028BFD11C
:10943000281C0421FEF7D8FA2B780C245B0600D4F4
:1094400004240B4B1C70604244410A4BE4B21C7074
:10945000FEF7FCFA09E0802110208900FEF766FB88
:109460004342584140420440EBE7201C76BDC046D1
:10947000222B00201320002070B51D1C01230E1C80
:10948000191C002801D1174909780320194228D155
:10949000154B1B781B0700D452020124AC42A44197
:1094A00064421134201C111CFEF740FB002812D12D
:1094B0008021301C8900FEF7EFFA002805D08023B8
:1094C000013D9B00F618002DF2D1122C03D10C2087
:1094D0000021FEF72BFBFEF7B9FA2B1C5D1EAB41FA
:1094E000D8B270BD13200020222B002070B51C1CA8
:1094F0000123161C0D1C1A1C002801D11F4A1278CA
:1095000003201A4238D11E4B1B781A0700D476026A
:10951000012C0CD11820311CFEF708FB002826D1A5
:10952000281CFE21FEF7DCFA444244411FE00622DB
:10953000134203D09720211CFEF7F8FA1920311CA2
:10954000FEF7F4FA002812D1281CFC21FEF7C8FA15
:10955000002805D08023013C9B00ED18002CF3D19E
:109560000020FD21FEF7BCFA002800D10124601E76
:109570008441FEF76BFAE0B270BDC04613200020B4
:10958000222B00200123F0B51C1C85B0002801D13E
:109590002B4804781C400326002C4ED1151C0129B1
:1095A0000CD0002904D0B14243D18023136041E0A4
:1095B000FEF75AFA44424441E4B23BE0211C092040
:1095C000FEF7B4FA041E01D0012433E068461021EE
:1095D000FEF762FA0028F7D06B466A461878517A8F
:1095E0008009DB79127A012808D13E3003401E043D
:1095F000120201368A18B118890218E09B009209FC
:10960000D2186B469B79314033409B02D3186A468F
:1096100057790F2217406A46927A4E00D0093A18BD
:1096200002329119C9B2093901338B40191C2960E2
:1096300000E00424FEF70AFA261C301C05B0F0BD39
:109640001320002008B5031C0A1C06490878191CC1
:10965000012302F019FF002801D0002000E0024899
:1096600008BDC046232B00200130000010B5104B70
:10967000041C187801230A1C1843211C02F004FF63
:10968000002812D00423C046C046C046C046C0468B
:10969000C046C046C046C046C046C046C046C0469A
:1096A000C046013B181EEED100E0024810BDC04686
:1096B000232B00200230000007B5074B4000187034
:1096C0006B46D81D822301210370FFF7BBFF0028E2
:1096D00000D002480EBDC046232B002003300000FE
:1096E00013B50B2818D86A46031CD01D1F225B0037
:1096F000524213439E320C1C134001210370FFF7AA
:10970000A1FF002801D0054807E0201C0221FFF737
:10971000ADFF0028F7D100E0014816BD053000007C
:1097200004300000F0B5161C1822071C4243032029
:109730002E4B85B09A18D36A0391184002280DD099
:10974000111C2031936A49685B1A013B01D5126AEA
:109750009B189E4202DD002845D01E1C0020864238
:1097600041D001901822101C7843204B1818011C7E
:109770002031846A4968641A191C013C01D5036AC6
:10978000E4187A438A18101C136A20300293536A33
:10979000029AD31A9C4201DB4468141BB44200DDD8
:1097A000341C18231D1C781C43437D43CB184D19D2
:1097B0006A6A586803998018221C08F0A4FE019B6D
:1097C000361B1B190193039B029A1B1903936B6AA7
:1097D00020351C196C606B68934201D100236B60CB
:1097E000002EBFD1019805B0F0BDC0461420002066
:1097F00010B50A1E06D00B1C1C785A1A002C01D07A
:109800000133F9E7FFF78EFF10BD0000002170B5AE
:1098100000781F4BCAB25C1865781C1C854200D1C9
:10982000101C01310429F4D1421CD100635C012BCE
:1098300008D161184B78002B01D1CB7800E00023D0
:109840004B701EE0022B21D163189D785978002DB2
:1098500006D0DE780431B14208DB5E70002103E0FF
:10986000042903DC01215D7099700AE0D300E3183C
:1098700059780426002D00D1F836D3007118E3186A
:109880005970D200A318597800F0C0FA70BDC046D4
:109890008C200020F8B50023234CDDB2E21852786A
:1098A0005F1C82423CD1061C002000F0CBFAFB007A
:1098B000E318586803F0C2FE032D0DD0691C63182D
:1098C0005B7865196B704B1CCA00DB00A218E318AB
:1098D00021CB21C2CDB2EFE7FF2300250121201CBF
:1098E0002371631CDD77A31CDD77E31CD977231D6F
:1098F000DD770E4A243003F033FE2378201C013B31
:10990000237000F07FF92B1C221C3832995CB14285
:1099100002D1FF21D15406E00133042BF4D102E03F
:109920003B1E042BB8D1F8BD8C2000200D980100FF
:10993000F0B5051CA5B0019103921E1CFFF7AAFF0C
:109940002B1CA0220321C133FF33D2059B00995069
:109950000123AB40002739495350394C7A1CE31995
:109960005B780292FF2B62D1012E04D13220019B41
:109970004343019308E06420019B5843039B9908EB
:10998000490006F0B5FB0190002000F05BFA6A4642
:10999000E7197D702378127B01332370029BDB0073
:1099A000E654E318DA700023221C3832995CDFB2E7
:1099B000FF2901D1D55403E00133042BF4D11F1C3E
:1099C000201C00F01FF9002804D0281CFFF762FFBC
:1099D0001C4C30E0029B0199DB00E318CA030293A0
:1099E0004B0C00211848383480185941174A00237D
:1099F00006F0AEFC029B011CE219586803F0D6FD8C
:109A0000041EE2D12B1C1C3B012B02D80120FEF7C7
:109A1000D9F9012000F016FA04A80D492A1C331CBC
:109A200008F04CFE04A90020FFF7E2FE03E0029FCD
:109A3000042F92D1074C201C25B0F0BD0C0500006E
:109A40008C20002005600000DC050000B80B000041
:109A5000E03F02000360000038B5094B1D1C2C33A9
:109A60001C1C0C35281C0121064A03F079FD002836
:109A700003D10835A542F5D100E0034838BDC04602
:109A80008C2000200D9801000460000010B5041C1B
:109A9000FFF700FF0120FEF795F9231CA022032108
:109AA0000120C133FF33D2059B009950A123A04070
:109AB000DB00D050002010BD10B5041CFFF7EAFEFB
:109AC0000020FEF77FF90120231CA0220321A040E3
:109AD000C133FF33D2059B009950024BD050002078
:109AE00010BDC0460C05000070B5041C0E1C151CF2
:109AF000FFF7D0FE231CA0220321C133FF33D20580
:109B00009B0099500123181CA04004495050311C5F
:109B10002A1C201CFFF70CFF70BDC0460C0500007E
:109B200070B5041C0E1C151CFFF7B4FE231CA022EC
:109B30000321C133FF33D2059B0099500123A34079
:109B40000549201C53500A2171432A1CC9B2022323
:109B5000FFF7EEFE70BDC0460C05000045DF704704
:109B600047DF70474EDF704750DF704710B50C4B32
:109B7000041C1B6899420AD800208C420FD3094A62
:109B80001268D31A59188C428041404207E0CB1A20
:109B900001209C4203D300238C425B41D8B210BD0C
:109BA000C8200020382F002010B5041E0F2C06D826
:109BB000C0B2FFF7D5FF0120A040FFF7CFFF10BDD7
:109BC000012230B5151CA123A0248D40DB00E40543
:109BD000E550094B8000C018A223084CDB00C4509C
:109BE000C046C046C0460260054A09021143C15042
:109BF000C046C046C04630BD00600040031F0100A3
:109C000003001300F7B50378041C013B032B00D9B4
:109C1000D7E0031C34331878052800D9D1E0A222FC
:109C2000694FD200694B06F0C9F90305070C101201
:109C3000092107E009210BE00621B950FA22920020
:109C400008E00321B950642204E0012100E0002172
:109C5000B950FF221A60A222D200BA585C49895C2E
:109C60005C4A116022785A6000230192019A934263
:109C700017D2E118554D4A78980008354251A02571
:109C80000326C132FF329200ED05565100254F4A9E
:109C90003031183285504D4A0978283299540133B1
:109CA000E4E7A12200230125D200FD60BB50474A12
:109CB000802611680420D162A922D200B9509446AE
:109CC000454AB600BB50454AB8511365D364936406
:109CD0005364019A022A13D9414AD560A125ED00A7
:109CE0005351654651513C4953503E4990510B6583
:109CF000CB648B644B64A2233349DB00C958D15039
:109D0000019B002B2ED0314D374B28352E7837490B
:109D1000B600F618231C28331878321CFFF744FFCE
:109D2000231C29331878321C3149FFF73DFF0023EB
:109D3000264E30363370019B012B13D06D782A4BA1
:109D4000AD00ED18231C2A3318782A492A1CFFF786
:109D50002BFF231C2B33187825492A1CFFF724FFDF
:109D60000023737002252C34019B9D4218D2174B9F
:109D700020782833EE5C1C4BB600F6181E4B321CC4
:109D8000E9188900FFF710FF6078321C1B49FFF7C4
:109D90000BFF00220D4B02343033EA540135E3E768
:109DA0001748FFF7DFFE0123164A00201360074A19
:109DB0003B605268022A06D9134A1360084A1360AE
:109DC00001E001204042FEBD00A00040382F0020ED
:109DD000FF3F0200C820002004050000FCA0004056
:109DE00000900040FC9000400060004040A1004016
:109DF00048A1004044A100404E240010489100407A
:109E0000D9A001000CAC00400C9C00401FB50B4BCE
:109E100082009A185163012230331A5400236A4693
:109E200013701371FA2202926A465371044B68460A
:109E30000393FFF799FE05B000BDC046382F002000
:109E4000A086010070B517490123174A002806D0E3
:109E50000B605268022A24D9144A136021E04B6037
:109E60005068022801D911494B600023834218D061
:109E7000111C2831595C0E4D45310E4CFF318900C3
:109E80000D51111C9C00083165580121A026A940E4
:109E9000094DF6057151111C00251831655001332B
:109EA000E4E770BD00A00040382F00200090004083
:109EB000001F0300006000400C050000A922F0B55F
:109EC0007E4C7F49E36AD20023608B50606885B086
:109ED0000291022801D97B498B5000236364666C90
:109EE00063689E4200D3E6E0231C30339A5D002A6B
:109EF00000D1DDE00022B50065199A556B6B019326
:109F0000934212D1231C28339B5D6F4945336F4A1E
:109F1000FF339B0099500123AA68A02193406C4A0B
:109F2000C9058B50019BAB61C2E0019B21688B424C
:109F300012D3231C28339B5D634845336349FF33A9
:109F40009B0058500123A968A0208B40A121C00587
:109F5000C9004350AA61ABE0019BA364012E54D811
:109F6000331C5133FF33029A9B00D358544F039351
:109F7000E364AB69002B18D1231C28339E5DA968CC
:109F8000301CFFF71DFE0123524AAB61FB64BA5837
:109F900001998A4231D94D4AB600B3502DE0785923
:109FA0000199FFF7E3FD00280CD10123029A494DE6
:109FB000D364029B03995859414FFFF7D7FD0028FE
:109FC000F3D0ECE77B59039A934203D37B59019A70
:109FD00093420BD33F4A029B9B58039A93420CD265
:109FE000374A3C4BD358019A934206D3231C012194
:109FF00028339B5D354A9B009950636C029A51331C
:10A00000FF33A16C9B00D15052E0331C4F332D4FD6
:10A01000FF339B00DB590393E364AB69002B19D139
:10A02000231C28339E5DA968301CFFF7C9FD01235E
:10A03000284AAB61FB64BA5801998A4232D9234A53
:10A04000B600B3502EE01F4B01995859FFF78EFD13
:10A0500000280BD101231B4A1E4DD364131C039906
:10A060005859FFF783FD0028F4D0ECE7154B039A0D
:10A070005B59934204D3134B019A5B5993420AD321
:10A08000144B039AFB5893420CD20E4A114BD358EF
:10A09000019A934206D3231C012128339B5D0B4A6E
:10A0A0009B009950636CA26C4F33FF339B00FA50B6
:10A0B000636C013312E705B0F0BDC046382F0020B5
:10A0C00000A0004000900040001F0300006000401E
:10A0D0000C0500004C050000064B02211A1C5032F2
:10A0E00010B511701C1C002801D1FFF7E7FE201CE1
:10A0F000503010BD382F0020F7B56B46141C0122DC
:10A10000184F0D1CD91D08703878131C4000C0B2C0
:10A1100002F0BAF9061E01D115210CE001233878AE
:10A12000E2B240001843C0B2291C02F0ADF904238A
:10A13000061E04D11B210C4A01F074FD10E0C0463C
:10A14000C046C046C046C046C046C046C046C046DF
:10A15000C046C046C046C046C046013B002BEED1BB
:10A16000301CFEBD503700200940020008B5012216
:10A17000FFF7C2FF08BD002313B501AC211C02226A
:10A1800023706370FFF7B8FF207863780002181817
:10A1900000B216BD98B5131C6C460833DB08DB0013
:10A1A000E31A00AF18709D460020904204DA013097
:10A1B000441E0C5D1C54F8E7094901320878D2B2FC
:10A1C0004000191CC0B2012302F05EF9041E03D145
:10A1D0005F21044A01F026FDBD46201C98BDC04603
:10A1E000503700200940020007B56B46D97107338C
:10A1F000191C0122FFF7CEFF0EBDF0B585B001930B
:10A2000002ABDD1D00230C1C291C061C171C2B7027
:10A21000FFF7ACFF002810D00121B940E41B019BDF
:10A2200001340139A340A1402F78DCB28F43214093
:10A230003943301C2970FFF7D7FF05B0F0BD03226A
:10A24000504308B525300B1CC0B206210432FFF77D
:10A25000D4FF08BD08B50B1C032148432730C0B20A
:10A260000422FFF7CAFF08BD08B5131C0122FFF73F
:10A27000C4FF08BD07B50A0A01AB1A705970022263
:10A28000191CFFF787FF07BD08B56B2007210122C6
:10A29000FFF7EAFF08BD08B5021C03216B20FFF79A
:10A2A000E3FF08BD08B50221031C03226B20FFF762
:10A2B000A4FF08BD08B5021C05216C20FFF7D4FFE0
:10A2C00008BD08B5021C04216C20FFF7CDFF08BDB6
:10A2D00008B5021C03216C20FFF7C6FF08BD08B5B6
:10A2E000021C02216C20FFF7BFFF08BD08B5021C4D
:10A2F00001216C20FFF7B8FF08BD08B5021C002142
:10A300006C20FFF7B1FF08BD08B5011C1920FFF74D
:10A310006BFF08BD08B50221031C03221A20FFF7BA
:10A320006CFF08BD08B50221031C03221D20FFF7A6
:10A3300064FF08BD08B50421031C02221B20FFF79F
:10A340005CFF08BD08B50421031C02221C20FFF796
:10A3500054FF08BD08B5011C1320FFF78BFF08BD93
:10A3600008B5011C1520FFF785FF08BD08B5011CC5
:10A370001720FFF77FFF08BD70B50D1C141C061CCD
:10A38000FFF7E8FF281CFFF7EBFF201CFFF7EEFFAD
:10A39000024B5E809D80DC8070BDC046902F002007
:10A3A00010B5041C7720FFF7E6FE0123011C1940BD
:10A3B0006300002C02DA044A1A43131C0B4319B23F
:10A3C0007720FFF757FF10BD0080FFFF10B5041C7A
:10A3D0007A20FFF7D0FE0123011C19406300002CF6
:10A3E00002DA044A1A43131C0B4319B27A20FFF70E
:10A3F00041FF10BD0080FFFF10B5041C7D20FFF75A
:10A40000BAFE0123011C19406300002C02DA044A41
:10A410001A43131C0B4319B27D20FFF72BFF10BD0D
:10A420000080FFFF70B50D1C141C061CFFF7B8FF61
:10A43000281CFFF7CBFF201CFFF7DEFF024B1E811D
:10A440005D819C8170BDC046902F002010B5041C1A
:10A450000621221C2320FFF707FF221C05212320B1
:10A46000FFF702FF0421221C2320FFF7FDFE10BD91
:10A4700008B5021C03212320FFF7F6FE08BD08B52E
:10A480004A1E9141031CCAB26720191CFFF7ECFE5B
:10A4900008BD08B50421031C05223420FFF7ADFEDA
:10A4A00008BD000008B5012207212520FFF7DCFECA
:10A4B00000200C21FFF7C3FE03212620FFF794FEA6
:10A4C000012207212720FFF7CFFE00200621FFF7FA
:10A4D000C1FE01200C21FFF7B2FE0A212920FFF75F
:10A4E00083FE0120011CFFF7B5FE012207212A206F
:10A4F000FFF7BAFE11216420FFF776FE064B1878AD
:10A50000FFF7C7FF00200121FFF7B9FF0120011C61
:10A51000FFF7B5FF08BDC046902F002008B5021C0C
:10A5200000213820FFF7A0FE08BD08B5021C062157
:10A530006A20FFF799FE08BD08B5021C02216A20B7
:10A54000FFF792FE08BD000010B5094CE37BA07B2D
:10A550001843237C1843FFF7E1FF0120FFF7ECFFCE
:10A56000E37BA07B1843237C1843FFF7DEFF10BD7D
:10A57000902F002038B5051E01D000F075F8114B62
:10A580001878FFF7C1FE104C2078FFF782FF0020FB
:10A59000FFF7C4FF0020FFF7C8FF0120FFF7CCFF43
:10A5A000E57301246C40201CFFF784FE201CFFF79C
:10A5B00088FE201CFFF78CFE281CFFF759FFFFF7D1
:10A5C000C3FF38BDCC200020902F0020234B10B5B6
:10A5D0001870FFF759FE142004F03CFA0120FFF731
:10A5E00061FE0120FFF7A6FE0120FFF7ABFE1C4C29
:10A5F0000823E05E0A23E15E0C23E25EFFF712FF10
:10A600000423E15E0623E25E0223E05EFFF7B4FE70
:10A610000320FFF77FFE0320FFF784FE114B18781D
:10A62000FFF772FEFFF73EFF0120FFF734FE002028
:10A63000FFF7A0FF002000F02BF80020FFF76EFFCF
:10A640000020FFF772FF0120FFF776FFFFF77CFF86
:10A65000062101226B20FFF707FE10BD50370020B6
:10A66000902F0020CC20002008B5074BDA7B002A71
:10A6700009D19A7B002A06D11B7C002B03D1034B06
:10A680001878FFF7A3FF08BD902F00205037002057
:10A6900038B5051E01D0FFF7E7FF114B1878FFF71B
:10A6A00033FE104C2078FFF7F4FE0020FFF736FF52
:10A6B0000020FFF73AFF0120FFF73EFFA5730124BA
:10A6C0006C40201CFFF70BFE201CFFF70FFE201C28
:10A6D000FFF713FE281CFFF7B9FEFFF735FF38BD63
:10A6E000CC200020902F0020F0B585B000AF7A601C
:10A6F000F973002B0CD101220F334000F918C0B2BE
:10A70000131C01F0C1FE012358404042C0B224E0B6
:10A7100069466C465B00B960D91DC908C900611A59
:10A720008D460024FE7B9C420BDA6508AA190A5567
:10A730000A1994467A680234555D6246E4B255704F
:10A74000F1E74000DAB2C0B2012301F09DFE01231F
:10A750005840BB6840429D46C0B2BD4640B205B0BD
:10A76000F0BD08B504F076F908BDF8B5161C002256
:10A770001D1C131C041CFFF7B7FF00281DD1012767
:10A7800064003C433B1CE0B2311C2A1C01F07CFEFF
:10A79000042378404042C0B2C046C046C046C046CE
:10A7A000C046C046C046C046C046C046C046C04679
:10A7B000C046C046013B002BEED140B2F8BD0000C0
:10A7C000002373B501AC23706370A3700C4B1A683F
:10A7D0008123002A12D0131C2933051C566B1878CC
:10A7E000221C0323FA21B04763781A0123781B0344
:10A7F0001343A278120913432B60031C58B276BD91
:10A80000A42F002010B50D4B02111968C0100C8840
:10A81000121B6400001B02240B5F5843131C53439C
:10A8200004240A5F1B135343C0129B13C318052053
:10A830005843803000124B6210BDC046A42F002048
:10A84000002373B501AC23706370A3700C4B1A68BE
:10A850008123002A12D0131C2933051C566B18784B
:10A86000221C0323F721B04763781A0123781B03C6
:10A870001343A278120913432B60031C58B276BD10
:10A88000A42F002070B5274B274A1C684042636AFA
:10A890005B109B18991049431025625FCE125643F6
:10A8A0000E25625F49135A43550072190A26A55FA7
:10A8B000921069430826A55FC9106B435B10CB1843
:10A8C00080219B1409025B18E18859430C25635FC2
:10A8D000C9131B04D2181213144B801A5843144B7B
:10A8E0000025C01805D4A9421AD0400005F070FB1D
:10A8F00004E0A94214D005F06BFB4000C3085B43A1
:10A900001621625E5B0B53431421625E850855433A
:10A910001B136D131221625E5B199B181B11C51866
:10A92000281C70BDA42F00200006FFFF350C00007E
:10A93000000050C3002373B501AC237063700B4B50
:10A940001A688123002A0ED0131C2933051C566B6C
:10A950001878221C0223FD21B047237862781B025D
:10A9600013432B60031C58B276BDC046A42F0020B1
:10A97000F0B51D4B1D4A1D6886036B6A1F219F1889
:10A980001E23EA5E287F1205B41A2023EA5E802384
:10A990007A43DB01A21AD218EB1C59568023784364
:10A9A0001B02C012C01880237943891241439B03C4
:10A9B0008912C9181A23EC5E802361439B01CB18CE
:10A9C0009B13D2135A43D3135B43287EDB114343BB
:10A9D0001B11D31AD843C822C01703405205934213
:10A9E00000DD131C1813F0BDA42F002000D4FEFFBF
:10A9F000F0B589B001AC201C00211A2207F08CFDB3
:10AA00003F4D81202B68002B00D175E01A1C2932A4
:10AA10005E6B10788821221C1A23B0476278217857
:10AA20002B6812020A431A800322A256A17812024E
:10AA30000A435A800522A256217912020A439A80BB
:10AA4000E279A17912020A43DA800922A256217A18
:10AA500012020A431A810B22A256A17A12020A4359
:10AA60005A810D22A256217B12020A439A810F229B
:10AA7000A256A17B12020A43DA811122A256217C3E
:10AA800012020A431A821322A256A17C12020A431E
:10AA90005A821522A256217D12020A439A82172257
:10AAA000A256A17D12020A43DA82627E061C1A7641
:10AAB0001A1C293210785F6BE121221C0723B8474A
:10AAC0000122A256217812020A4303212B68801921
:10AAD0005A83A278C0B21A77615622790D010F21EC
:10AAE00011402943D98305216156120909010A43FE
:10AAF0001A84A2790333DA7740B209B0F0BDC046B8
:10AB0000A42F002073B56A46D51D00222A70021CAE
:10AB1000031C094E293230605C6BD0211078012370
:10AB20002A1CA04733682A7828331A70041CFFF7C0
:10AB30005FFF001940B276BDA42F002073B56B46AD
:10AB4000DD1D00232B700A4B1A688123002A0DD0CB
:10AB5000131C2933041C566B18782A1C0123F4217A
:10AB6000B04703232A7813402370031C58B276BDE4
:10AB7000A42F002013B56B46DA1DB6231370074BC4
:10AB800081201B68002B06D0191C293108781C6B0A
:10AB9000E0210123A04740B216BDC046A42F0020EB
:10ABA00038B5084B041C1D688120002D07D0281CD7
:10ABB0002930131C00780A1C211C2C6BA04740B2C2
:10ABC00038BDC046A42F002038B5084B041C1D68B2
:10ABD0008120002D07D0281C2930131C00780A1C66
:10ABE000211C6C6BA04740B238BDC046A42F00208A
:10ABF0000023F0B5364C85B002AA571D5371961D3F
:10AC00009371D371226803AD01902B7081209A4219
:10AC10005BD0019B2E32590113781F221A400B1C66
:10AC2000381C13432B70FFF789FF3B78002B1ED095
:10AC3000FFF7A0FF236803209B6B9847236802AAB5
:10AC40002F331B78D11DD371F5200122FFF7A8FF08
:10AC50002368311C2D331B780122F2203370FFF75B
:10AC60009FFF291C0122F420FFF79AFF08E02368C8
:10AC7000F4211A1C293210781E6B2A1C0123B047BC
:10AC80006A46236812792A331A70291C0122F4209B
:10AC9000FFF79AFF23682A782E33061C1A70291CA6
:10ACA0000122F220FFF790FF23682A782D338019C4
:10ACB0001A70C6B20122F520291CFFF785FF236810
:10ACC0002A7830182F331A70C0B240B205B0F0BDE8
:10ACD000A42F00200023F0B5374C85B002AA571DE1
:10ACE0005371961D9371D371226803AD01902B703F
:10ACF00081209A425CD0019B65389B000340191C5F
:10AD00002E32137883430B43381C2B70FFF716FF4A
:10AD10003B78002B1ED0FFF72DFF236803209B6B91
:10AD20009847236802AA2F331B78D11DD371F520D1
:10AD30000122FFF735FF2368311C2D331B780122D8
:10AD4000F2203370FFF72CFF291C0122F420FFF7BB
:10AD500027FF08E02368F4211A1C293210781E6BA3
:10AD60002A1C0123B0476A46236812792B331A70D4
:10AD7000291C0122F420FFF727FF23682A782E33AD
:10AD8000061C1A70291C0122F220FFF71DFF236800
:10AD90002A782D3380191A70C6B20122F520291C99
:10ADA000FFF712FF23682A7830182F331A70C0B2C9
:10ADB00040B205B0F0BDC046A42F00200023F0B57E
:10ADC000434C85B002AA551D9371D71DD3712268DB
:10ADD00003AE009033702B7081209A4275D02D32D3
:10ADE000137800997A38014083430B43381C337041
:10ADF000FFF7A4FE3B780190002B27D0FFF7BAFEA7
:10AE00002368071C9B6B03209847236802AA2F33F3
:10AE10001B78911D9371F5200122FFF7C1FE019B64
:10AE2000311C3F180122F220FF18FFF7B9FE2368FA
:10AE3000FFB22E331B783F18291CF42001222B70FF
:10AE4000FFF7AEFEFFB23F18FEB216E02368F22114
:10AE50001A1C293210781F6B321C0123B847236853
:10AE6000061C2E331B78F420291C01222B70FFF7BF
:10AE700097FE019B3618F618F6B26A46144C127803
:10AE8000236803AD2C331A70291C0122F420FFF72C
:10AE90009BFE23682A782E331A708619291C0122FA
:10AEA000F220FFF791FE23682A78F6B22D3330188E
:10AEB0001A70C6B20122F520291CFFF785FE23680F
:10AEC0002A7830182F331A70C0B240B205B0F0BDE6
:10AED000A42F0020F7B56B466A46DE1C0023334CD6
:10AEE00053719371D51D226801AF33703B702B7085
:10AEF0008133002A57D07D33032854D82E3213785B
:10AF00000322934318433070381CFFF717FE3B7839
:10AF1000002B1FD0FFF72EFE236803209B6B984762
:10AF20006A462368911D2F331B78F5209371012207
:10AF3000FFF736FE6A462368511D2D331B78F22039
:10AF400053710122FFF72CFE311C0122F420FFF780
:10AF500027FE08E02368F4211A1C293210781F6BA1
:10AF6000321C0123B847291C0122F420FFF72CFED4
:10AF700023682A782E331A70061C291C0122F2201D
:10AF8000FFF722FE23682A782D331A708619291CB0
:10AF90000122F520FFF718FE2268F6B2297833184F
:10AFA0002F321170DBB258B2FEBDC046A42F002074
:10AFB0000023F0B5394D85B002AA53719371D37156
:10AFC000971DD61D2A6803AC23708133002A62D0F6
:10AFD0001C212F32137880008B43084018432070C7
:10AFE000381CFFF7ABFD3B780190002B27D0FFF713
:10AFF000C1FD2B68071C9B6B03209847211C012275
:10B00000F520FFF7CDFD019B3F18FF182B68311C81
:10B010002D331B780122F2203370FFF7C1FD2B681E
:10B0200002AA2E331B78FFB23F185371511DF42032
:10B030000122FFF7B5FDFFB23F18FFB209E02B6810
:10B04000F5211A1C293210781D6B221C0123A847F8
:10B05000071C211C0122F420FFF7B6FD0F4D2278BA
:10B060002B68C7192E331A70211C0122F220FFF71A
:10B07000ABFD2B6822782D33FFB21A703F18211CCC
:10B080000122F520FFF7A0FD2A68FFB221783B18C6
:10B090002F321170DBB258B205B0F0BDA42F0020E2
:10B0A00008B5174A174B1A63174A5A631A1C2932F4
:10B0B0001070164A181C9A63FFF724FD002801D06F
:10B0C00013481BE00320FFF705FF0028F8D1FFF726
:10B0D0006FFF0028F4D10130FFF770FE0028EFD198
:10B0E0000130FFF7F7FD0028EAD10130FFF780FDBE
:10B0F0000028E5D1FFF7EEFE0028E1D108BDC046EB
:10B10000E9A60100543700206BA7010063A70100E6
:10B1100003200000002313B5041C036001A8019361
:10B12000FFF74EFB00280AD10198FFF76BFB206068
:10B130000120FFF7CFFE002802D0024800E00248BD
:10B1400016BDC0460120000002200000002313B5F8
:10B15000041C036001A80193FFF772FB00280AD1C9
:10B160000198FFF78FFB20600120FFF7B3FE002856
:10B1700002D0024800E0024816BDC046012000008F
:10B1800002200000002313B5041C036001A80193F2
:10B19000FFF7D0FB00280AD10198FFF7E9FB2060F8
:10B1A0000120FFF797FE002802D0024800E0024885
:10B1B00016BDC0460120000002200000A02370B58B
:10B1C000DB050324234D002830D1234E9C510C3E37
:10B1D0009C51224E9851EC20C0001C50A1241926ED
:10B1E0001F48E4000651033E4651A2250136ED00FA
:10B1F000465180256D041D5180241A4B0139E40508
:10B20000C9B2C4500023022901D8174B5B5C17490F
:10B21000002A01D0012213434350031C0022FC33B7
:10B22000DA60A0230132DB00C25070BDEF2000269F
:10B23000C0001C501C501E50A1261C501E240C483F
:10B24000F60084514451A225ED0044518024E405C8
:10B250009C51D1E70C050000640700005C0700006A
:10B260000030004024050000564002005405000054
:10B2700000400040F7B51D4C009101931821A042F9
:10B2800000D006310125A0248D401949E405655000
:10B2900000210E1C009B8CB29C4220D2575C154CA6
:10B2A0000751071CFC37FC68002C0BD0C02300247E
:10B2B0009B019E420BD1A123A022DB00D205D550D9
:10B2C000201C12E00C4CA642F0D80136E9E7FC60E5
:10B2D000A324E4000459019B5C540131DAE7A12363
:10B2E000A0220120DB00D205D550FEBD0030004079
:10B2F0000C0500001C050000FF2F0000A0DF7047B8
:10B30000A2DF7047A4DF7047A6DF704763DF704796
:10B31000F0B50B68041C036001235B4203810A79CA
:10B3200003778272FF2283774277C3774879621C62
:10B33000D0773132137053709370D37088799375CE
:10B34000D375137653761071C879163210719375D0
:10B35000D37513765376487A163210719375D37578
:10B3600013765376231C201C0A7A78331A70A9B0FE
:10B370001233E930FF221A7001338342FAD1887AFE
:10B3800010261870231CFA331A70CA7A18A85A703B
:10B39000EE49321C07F0B7F8A11D18A8FFF7B6FF59
:10B3A000002800D055E2A37916A98B708923221DAD
:10B3B0005B0101300B80FFF7A1FF031E00D048E2C4
:10B3C000A57A002D07D0311C013313AA194301338C
:10B3D00011705170937021AE00211C22301C07F0B7
:10B3E0009BF8012102222940681E85410901114371
:10B3F00031706D4213A929407161002112A80181A9
:10B400001023012012AD184328720320A8720238BD
:10B4100018432873012003436B73AA731CAD1232C7
:10B42000281C07F079F8A37917AFBB70C84B311C03
:10B430003B8014AB6B6004232B810423AB81231C62
:10B440001C332B610093A088103B2A1C1C9701938E
:10B45000FFF756FF002800D0FBE1A3790822BB705C
:10B46000BC4B68813B8015AB6B6001232B810123B2
:10B47000AB81231C20332B613378311C1343043AF6
:10B4800013433370231CA08814332A1C1C97029387
:10B49000FFF736FF002800D0DBE1A3790822BB705C
:10B4A000AD4B2F603B8014AB6B6004232B810423D6
:10B4B000AB81231C32332B61039333786881934330
:10B4C000043A93433370231CA0882233311C2A1C76
:10B4D0000493FFF715FF002800D0BAE1A3790822F2
:10B4E000BB709E4B2F603B8015AB6B6001232B81A3
:10B4F0000123AB81231C36332B61337868811343DE
:10B50000043A13433370231CA0882A33311C2A1CAD
:10B510000593FFF7F5FE002800D09AE1A3790822F1
:10B52000BB708F4B2F603B8014AB6B6004232B816F
:10B530000423AB81231C48332B6106933378688145
:10B540009343043A93433370231CA0883833311C4F
:10B550002A1C0793FFF7D4FE002800D079E1A379D5
:10B560000822BB707F4B2F603B8015AB6B600123C3
:10B570002B810123AB81231C4C332B6133786881F1
:10B580001343043A13433370231CA0884033311C07
:10B590002A1C0893FFF7B4FE002800D059E1A379D4
:10B5A0000822BB70704B2F603B8014AB6B60042390
:10B5B0002B810423AB81231C5E332B6109933378E9
:10B5C00068819343043A93433370231CA0884E331D
:10B5D000311C2A1C0A93FFF793FE634B0F9300283C
:10B5E00000D036E1A3790822BB70604B2F603B800E
:10B5F00015AB6B6001232B810123AB81231C6233CC
:10B600002B61337868811343043A13433370231C4E
:10B61000A0885633311C2A1C0B93FFF771FE534B45
:10B620001193002800D014E1A3790822BB70504B7D
:10B630002F603B8014AB6B6004232B810423AB8110
:10B64000231C74332B610C93337868819343043A41
:10B6500093433370231CA0886433311C2A1C0D9340
:10B66000FFF74EFE002800D0F3E0A3790822BB705C
:10B670008A235B013B8015AB6B6001232B81012387
:10B68000AB81231C78332B6133782F601343043A4A
:10B6900013433370231C68816C33A088311C2A1C2F
:10B6A0000E93FFF72DFE002800D0D2E0A37917AF4C
:10B6B000BB706B469B8F1CAD3B8014AB6B605F23F4
:10B6C0002B81AB81231C00228A3321AE2B610F9387
:10B6D00033786A8108329343043A93433370231CCE
:10B6E000A0887A33311C2A1C1C971093FFF708FEA0
:10B6F000002800D0ADE0A3794422BB706B469B18B4
:10B700001B883C3A3B8015AB6B6001232B810123E6
:10B71000AB81231CE9332B61337868811343043AEE
:10B7200013433370231CA0888233311C2A1C1C97BE
:10B730001193FFF7E5FD002800D08AE0A3790822E5
:10B74000BB70094B2F603B8014AB13E059400200E3
:10B7500033110000341100003511000036110000D3
:10B7600037110000381100004111000042110000A3
:10B77000391100006B6001232B810123AB81231C55
:10B78000FA332B61337868819343043A93433370DF
:10B79000231CA088311C2A1CEA33FFF7B1FD0028C6
:10B7A00057D1A3790822BB702B4B2F603B8015AB80
:10B7B0006B6001232B810123AB81231CFB332B61A5
:10B7C000337868811343043A13433370231CA088F1
:10B7D000F233311C2A1CFFF793FD002839D11F4B8F
:10B7E000019A02215A60029A18709A60009ADA60EF
:10B7F00001221A74049A5A61059A9A61039ADA61CD
:10B800005A1CD177079A01315A62089A9A62069AAD
:10B81000DA621A1C303211700D9A01315A630E9A95
:10B820009A630C9ADA631A1C403211700A9A052145
:10B830005A640B9A9A64099ADA641A1C503211708D
:10B84000109A5A65119A9A650F9ADA650622603342
:10B850001A7029B0F0BDC04642110000A82F002088
:10B86000F0B50D1C041C002189B020480E01375C86
:10B8700001909F4234D102ABDA800023934209DA6F
:10B88000EF5C0198BC460F01C7196046FF68F85489
:10B890000133F3E7019B00219819476802AB9A1D19
:10B8A00038882B1CFFF72EFD011E1DD12689104B59
:10B8B00008309E4218D0A37A002B15D004AC201C6F
:10B8C000102206F029FE3B88301C23800123A37040
:10B8D00002AB0633211CA360E560FFF715FD03E012
:10B8E00001310729C1D1052009B0F0BDA82F0020E2
:10B8F000FFFF000030B585B06B46151C07330E22E4
:10B90000197001216A44041C11800020062D33D8CF
:10B91000281C04F053FB04090F1C16222800187879
:10B92000611CC877A08A24E0211C18783631087081
:10B93000608D1EE0211C18784C3108700234E08FB5
:10B9400017E0211C187862310870563410E0211C71
:10B950001878783108706C340AE0211C1878E931C5
:10B960000870823404E0211C1878FB310870F2342E
:10B9700020880021FFF7C6FC05B030BD73B50B88E9
:10B98000112B06D0502B08D0102B00D08BE08B88C9
:10B9900001E001235B42038185E0CA88838A0D1C94
:10B9A000041C8E1D9A4210D1338B012B0DD10368DC
:10B9B000002B0AD06B46002201911A70B17EFFF76E
:10B9C00099FF201C694623689847EA88638D9A424C
:10B9D00010D1328B012A0DD12368002B0AD06B467F
:10B9E00001951A70B17E201CFFF784FF201C694668
:10B9F00023689847A31CEA88DB8F9A4211D1338BC6
:10BA0000012B0ED12368002B0BD06B46022201952F
:10BA10001A70B17E201CFFF76DFF201C6946236859
:10BA20009847231C5633EA881B889A4211D1338BDE
:10BA3000012B0ED12368002B0BD06B4604220195FD
:10BA40001A70B17E201CFFF755FF201C6946236841
:10BA50009847231C6C33EA881B889A4211D1338B98
:10BA6000012B0ED12368002B0BD06B4603220195CE
:10BA70001A70B17E201CFFF73DFF201C6946236829
:10BA80009847338B012B0ED12368002B0BD06B46CC
:10BA9000052201951A70B17E201CFFF72BFF236849
:10BAA000201C6946984773BD73DF704740DF7047BD
:10BAB00000B5A1B0FAF74CFB68464B4906F020FEF2
:10BAC00069460020FDF794FEFAF772FB6846474985
:10BAD00006F016FE69460020FDF78AFEFAF77CFBA9
