:020000021000EC
:10600000004000208DDA0100D5DA010051AC01001A
:106010000000000000000000000000000000000080
:10602000000000000000000000000000D9DA0100BC
:106030000000000000000000DBDA0100DDDA0100F2
:10604000DFDA0100DFDA0100DFDA0100DFDA010068
:10605000DFDA01000000000041D60100DFDA0100B4
:10606000DFDA0100DFDA010081920100DFDA0100EE
:10607000DFDA0100DFDA0100DFDA0100DFDA010038
:10608000DFDA010051BE0100DFDA0100DFDA0100D2
:10609000F1BE0100DFDA01001DB70100DFDA010007
:1060A000DFDA0100DFDA010000000000000000007C
:1060B00000000000000000000000000000000000E0
:1060C000164B002B00D1144B9D46402292029A1A87
:1060D000924600218B460F461348144A121A08F0C4
:1060E0002DF90F4B002B00D098470E4B002B00D002
:1060F00098470020002104000D000D48002802D020
:106100000C4800E000BF08F0DBF82000290004F094
:1061100043FF08F0BFF8C046000008000040002020
:106120000000000000000000282100208C36002024
:10613000000000000000000077DF704778DF704744
:106140007ADF70477CDF704760DF704768DF704739
:10615000A023EF220321DB05D20030B5A120995006
:106160008022C000D2051A500C2204250B4C1A5173
:106170000B4C1D510B4C1A51043C19518024E40066
:106180001C50E320C0001A5010381A5006481A500C
:10619000E222D2009950054A995030BD54070000C0
:1061A000240700002C0700000C0700001C0700005B
:1061B000A023EE210322DB05C9005A5005495A509D
:1061C000A1228021D200490599508021890599504A
:1061D0007047C04674070000002307B502200093F3
:1061E0000A2115221A4B06F041F8002803D03D2160
:1061F000184A04F0DFFC18480121184A06F096F806
:10620000002803D04021134A04F0D4FC1448012193
:10621000144A06F08BF8002803D041210D4A04F0FF
:10622000C9FC11480121114A06F080F8002803D06A
:106230004221084A04F0BEFC0D4801210D4A06F037
:1062400075F8002803D04321024A04F0B3FC07BDCF
:1062500028210020A0EB01004436002039AF0100C6
:10626000F83200207D710100003300207DAF010075
:106270007433002091AF0100164910B50420583145
:1062800007F02AFA002803D04B21134A04F092FCAD
:10629000C122124992008858114B124C0340C02071
:1062A000000403438B501049201C0A1C0F4B07F0BD
:1062B00047FA002803D05021074A04F07BFC2078DD
:1062C00007F062FA002803D05221034A04F072FC5E
:1062D00010BDC046A8280020A0EB010000E100E0AE
:1062E000FFFF00FFFC320020400820001571010074
:1062F0001FB5012202AC23781F4993432370082065
:1063000028314F32002305F0D9F9002803D061214C
:106310001A4A04F04FFC002301A80370FFF714FF92
:10632000002803D06921154A04F044FC144805F004
:10633000E1F9002803D06D21104A04F03BFC11481C
:1063400005F0E2F9002803D070210C4A04F032FC79
:106350000420FFF7F1FE002803D07321074A04F060
:1063600029FC0120211CFFF7F1FE002803D0762133
:10637000024A04F01FFC1FBD28290020A0EB0100E9
:1063800029AE01004DAE0100064A08B508201421CF
:10639000783207F069FA002803D07D21024A04F020
:1063A00009FC08BD28290020A0EB01001FB506F05C
:1063B00091FA002803D08A21194A04F0FBFBA2239A
:1063C000A022DB00D205D2580123920893436A46EB
:1063D0006846137006F082FE002803D09021104A10
:1063E00004F0E8FB0A2000216844062207F0A6FF1B
:1063F0001E2301ACE380113B2372063B6372093319
:10640000A372084B084801930123211C237106F055
:10641000D3FE002803D09F21014A04F0CBFB1FBD0F
:10642000A0EB010011AE0100053300201FB50023D1
:1064300001A8134905220370FFF784FE002803D04A
:10644000B021104A04F0B6FB0020FFF777FE0028C9
:1064500003D0B3210B4A04F0ADFB002302A8436034
:1064600050330380503343802833C380FFF768FEE6
:10647000002803D0BD21034A04F09CFB05B000BDF9
:10648000AAEB0100A0EB010030B51E4D95B001ACA8
:1064900000217422281C07F051FF0021201C0C222F
:1064A00007F04CFF184B281C019301232371F03394
:1064B0006371A371E371211C013B237203F044FF5C
:1064C000002803D0EA21114A04F074FB4022002185
:1064D00004A807F033FF04A80D4905F08BF811223A
:1064E00013AB1A704D2300226B4404A81A7004F0F9
:1064F000B3FF002803D0F821044A04F05BFB15B079
:1065000030BDC0467833002055AE0100A0EB01003D
:10651000B0EB010030B59FB06B46DD1D062302AC29
:1065200000213822201C2B7007F008FF02230021D5
:10653000237010A8013B3822A370A380A56007F048
:10654000FDFE201C10A905F0EDFA002804D08921D9
:10655000024A490004F02EFB1FB030BDA0EB010041
:1065600010B588B001AC201C00211C2207F0E6FE0B
:106570000C4B201C6360A023DB02A3600523237364
:10658000043B2374084B6361084BA36105F06EFB69
:10659000002804D09421064A490004F00BFB08B0FF
:1065A00010BDC04655D50000E9AC0100D9AC0100D2
:1065B000A0EB010008B500F069FD002804D03021EF
:1065C000214AFF3104F0F6FA02F028FC002804D03A
:1065D00099211D4A490004F0EDFA04F001FE00285B
:1065E00005D19B2119484900174A04F0E3FA3620E7
:1065F00000F0A0FE002804D03A21134AFF3104F035
:10660000D9FA342002F05CFA002804D09E210E4A08
:10661000490004F0CFFA732000F03CFF002804D0BA
:106620004021094AFF3104F0C5FA762003F054FDF9
:10663000002804D0A121044A490004F0BBFA6820D4
:1066400003F03AF808BDC046A0EB010001100000BD
:10665000FA2010B5C00007F0E3F82C4C201C00F025
:10666000E7F9002804D05A21294AFF3104F0A2FAA0
:1066700000F0F8F9002804D0AD21254A490004F0C3
:1066800099FA201C00F0D4F8002804D0AF21204A49
:10669000490004F08FFA00F0E5F8002804D06021EA
:1066A0001B4AFF3104F086FA201C00F0A5FA0028EE
:1066B00004D06421164AFF3104F07CFA00F0B6FAE7
:1066C000002804D0B221124A490004F073FA201CB9
:1066D00000F096F9002804D0B9210D4A490004F0D1
:1066E00069FA00240B4B201C1C7000F095FDA021C2
:1066F000094B09031868221C05F03EFEA04204D095
:10670000BE21034A490004F055FA10BD7833002039
:10671000A0EB010004330020F83200200122A02069
:1067200008B50D490D4BC0025A500D495850A120D3
:10673000C0001958114319501A600A4B0A491868C9
:10674000002205F019FE002804D0C321074A4900A1
:1067500004F030FA08BDC0460C05000000000140FE
:10676000040500000033002055D50000A0EB010017
:1067700000B5124BA1B01A7E114B1B7E1343114A78
:10678000127E134303D1104B1B7E002B14D00F4BF2
:106790000B211868002205F0EFFD002804D0D92154
:1067A0000B4A490004F006FA0A49684607F0A0FEC1
:1067B0000020694602F0FEF921B000BD2833002018
:1067C000F0330020503300200833002044360020EE
:1067D000A0EB0100BAEB010000B50B4BA1B01868AB
:1067E00005F012FE002804D0DF21084A490004F019
:1067F000E1F96846064907F07BFE6946002002F091
:10680000D9F921B000BDC04644360020A0EB0100FC
:10681000E5EB0100014B18687047C046FC2A0020D8
:10682000024A1368013313607047C046FC2A0020F7
:1068300010B5A0B0041C0949684607F059FE694626
:10684000002002F0B7F9002000210122044B18615A
:1068500059611C601A7620B010BDC0464FEC010093
:106860002833002030B5A1B01D49684607F040FE2E
:106870000020694602F09EF91A4C00222368251C6C
:1068800036331878002322616361012303402376A5
:106890004009042813D807F023F903050B0D0F0056
:1068A000114800E0114804F09BFBA860E9600BE090
:1068B0000F48F8E70F48F6E7FA208000F3E70E48A4
:1068C00004F08EFBA060E16068460C4907F010FE02
:1068D0006946002002F06EF9002021B030BDC046AC
:1068E0005CEC0100283300208096980040420F00A5
:1068F000A086010010270000C0D401007FEC010039
:1069000030B5A9B002A803F03DFC041E08D008A8C9
:10691000154907F0EDFD08A9002002F04BF920E031
:10692000029DFFF777FF0223012201900F49009596
:1069300003A807F0BBFD0E4903A804F0A3FB029ACD
:106940000C4908A807F0B2FD08A9201C02F032F992
:10695000094B02A918680422012303F0ABFE04F0DE
:1069600041FB201C29B030BD9BEC0100C0EC0100B4
:10697000CEEC0100D7EC01002833002030B51D4BD0
:10698000A1B01A7E002A01D100242FE001201C6949
:106990005D69002100196941DA68186159618A420C
:1069A00007D802D19A68824203D8002000211861DA
:1069B00059611A69012AE7D15A69002AE4D10E49BE
:1069C0000C78002C0DD1FFF79BFF051E0ED00B4954
:1069D000684607F08DFD201C694602F0EBF82C1C80
:1069E00004E000200021141C18615961201C21B012
:1069F00030BDC0462833002004330020E6EC0100FF
:106A000010B5A0B0041C0849684607F071FD69463E
:106A1000002002F0CFF800200021044B18615961DA
:106A20001C60187620B010BD4FED01000833002027
:106A300010B5A0B0041C0949684607F059FD694625
:106A4000002002F0B7F8002000210122044B186159
:106A500059611C601A7620B010BDC046FEED0100E1
:106A6000F033002030B5A1B01B49684607F040FD67
:106A70000020694602F09EF8184C00222368251C6D
:106A80000133D87F00232261636101230340237611
:106A9000400903280FD807F023F802040A0C104815
:106AA00000E0104804F09CFAA860E96008E00E4895
:106AB000F8E70E48F6E70E4804F092FAA060E160AD
:106AC00068460C4907F014FD6946002002F072F890
:106AD000002021B030BDC04660ED0100F033002041
:106AE0008096980040420F00A08601001027000009
:106AF000C0D401000DEE010030B5A9B002A803F02A
:106B000025FB041E08D008A8154907F0F1FC08A9C8
:106B1000002002F04FF820E0029DFFF77BFE0122EB
:106B20000190131C0F49009503A807F0BFFC0E4904
:106B300003A804F0A7FA029A0C4908A807F0B6FCCB
:106B400008A9201C02F036F8094B02A91868042293
:106B5000231C03F0AFFD04F045FA201C29B030BD22
:106B60002BEE0100C0EC0100CEEC010055EE01005F
:106B7000F033002030B51D4BA1B01A7E002A01D1A0
:106B800000242FE001201C695D6900210019694182
:106B9000DA68186159618A4207D802D19A6882423C
:106BA00003D800200021186159611A69012AE7D130
:106BB0005A69002AE4D10E490C78002C0DD1FFF758
:106BC0009BFF051E0ED00B49684607F091FC201C68
:106BD000694601F0EFFF2C1C04E000200021141C8A
:106BE00018615961201C21B030BDC046F03300202F
:106BF0000433002066EE010010B5A0B0041C094962
:106C0000684607F075FC6946002001F0D3FF0020BC
:106C100000210122044B186159611C601A7620B0D2
:106C200010BDC046D5EE01005033002030B5A1B0F4
:106C30001B49684607F05CFC0020694601F0BAFF7A
:106C4000184C00222368251C4C331878002322613D
:106C50006361012303402376400903280FD806F01F
:106C60003FFF02040A0C104800E0104804F0B8F995
:106C7000A860E96008E00E48F8E70E48F6E70E481D
:106C800004F0AEF9A060E16068460C4907F030FC02
:106C90006946002001F08EFF002021B030BDC046C3
:106CA000E3EE0100503300208096980040420F0030
:106CB000A086010010270000C0D4010006EF0100EB
:106CC00030B5A9B002A803F079FA041E08D008A8CC
:106CD000154907F00DFC08A9002001F06BFF20E02A
:106CE000029DFFF797FD0323012201900F490095B4
:106CF00003A807F0DBFB0E4903A804F0C3F9029ACE
:106D00000C4908A807F0D2FB08A9201C01F052FF8B
:106D1000094B02A918680422022303F0CBFC04F0FB
:106D200061F9201C29B030BD23EF0100C0EC010047
:106D3000CEEC010049EF01005033002030B51D4B6F
:106D4000A1B01A7E002A01D100242FE001201C6985
:106D50005D69002100196941DA68186159618A4248
:106D600007D802D19A68824203D800200021186116
:106D700059611A69012AE7D15A69002AE4D10E49FA
:106D80000C78002C0DD1FFF79BFF051E0ED00B4990
:106D9000684607F0ADFB201C694601F00BFF2C1C78
:106DA00004E000200021141C18615961201C21B04E
:106DB00030BDC046503300200433002058EF01009E
:106DC0000123C046C046C046C046C046C046C04675
:106DD000C046C046C046C046C046C046C046013B4D
:106DE000002BEED170470000002008B5011C021CEA
:106DF00003F000FA064BEC221860A0230321DB0508
:106E0000D20099508021A1224904D200995008BD96
:106E1000042B002080B5021C6846CB1DDB08DB007C
:106E2000C31A00AF9D46044B89B218686B4603F045
:106E30003DFABD4680BDC046042B0020B0B5031C02
:106E40006846CA1DD208D200821A00AF95460C1CB3
:106E500068466C44A04203D0FF2505700130F9E775
:106E6000034889B2006803F021FABD46B0BDC046B0
:106E7000042B002037B5094C6B46DD1D281C012171
:106E8000FFF7DCFF2B78FF2B04D0013CFFF798FFC6
:106E9000002CF1D1601E8441E0B23EBD20A107006C
:106EA00007B5A1238021A0224904DB00D205D150DF
:106EB0006B460121D81DFFF7C1FF07BD13B5A02206
:106EC0008021094BD2054904D1506B460121D81DC0
:106ED000FFF7B4FFFFF7CEFF041E02D1FFF7E0FF7C
:106EE00000E00124201C16BD0C050000F7B5071CAE
:106EF0000E1C0F4D01AC201C0121FFF79FFF2378D2
:106F0000FF2B0DD023780020FE2B0FD1381C311C15
:106F1000FFF794FF201C0221FFF790FF012005E0FE
:106F2000013DFFF74DFF002DE4D1EBE7FEBDC0466C
:106F3000A0860100F7B5071C0E1CFFF79BFF041E7F
:106F40001CD001AD281C01212E700124FFF762FF27
:106F5000FD2E13D08021381C8900FFF75BFF281C11
:106F60000221FFF76BFF211C281CFFF767FF1F237F
:106F70002C781C40053C63425C41E4B2201CFEBD01
:106F800030B543B285B0041C0D1C002B07DA372046
:106F90000021FFF7F5FF01283AD87F231C400C2C75
:106FA0000ED1402302A8234303702B0E43702B0CF9
:106FB00083702B0AC37005719523002C0FD00AE053
:106FC000002CEED0FFF76CFFFFF778FF031CFF20CB
:106FD000002B1DD0E5E78723082C00D0863B062137
:106FE0004371FFF717FF6B46DD1D0C2C03D1281CE6
:106FF0000121FFF723FF0A24281C0121FFF71EFFB0
:10700000287843B2002B03DA013CE4B2002CF3D120
:1070100005B030BD00B5A1B068460A4907F068FA6E
:107020006946002001F0C6FD0122074B03211A70BA
:107030000022064B1D201A70803201F053FF21B050
:1070400000BDC046C4EF0100082B002070330020B3
:1070500000B5A1B068460A4907F04AFA694600201F
:1070600001F0A8FD0122074B03215A700022064BB4
:107070001D201A70803201F035FF21B000BDC046DE
:10708000DCEF0100082B00207033002000200122DB
:10709000024B1870024B1A707047C04670330020C4
:1070A0004833002010B5041CA0B0002802D0FFF720
:1070B000B1FF0CE00749684607F01AFA201C694640
:1070C00001F078FD044B1D201C7001F0D7FE20B0AC
:1070D00010BDC046F0EF0100082B002010B5041CC5
:1070E000A0B0002802D0FFF7B3FF0CE007496846C4
:1070F00007F0FEF9201C694601F05CFD044B1D20E1
:107100005C7001F0BBFE20B010BDC04609F001006C
:10711000082B002070B580252D01A0B0061C0C1C8A
:10712000284202D00020FFF7BDFF2C4201D0FFF71C
:1071300071FF8025AD032E4202D00020FFF7CEFF65
:107140002C4201D0FFF784FF630610D50949684639
:1071500007F0CEF90020694601F02CFD684600F0EA
:1071600041F9002803D04A21034A03F023FD20B04F
:1071700070BDC0461EF0010037F00100012070B55F
:10718000A026A225011CF605ED001E4C725923789D
:10719000D20AA2B09143994202D05840FFF782FF31
:1071A0000120011C72596378520D9143994202D01B
:1071B0005840FFF793FF144B1D78002D20D1134941
:1071C00002A807F095F9281C02A901AD01F0F2FC14
:1071D000281C00F0FBF800280ED121786A780123E2
:1071E000002900D1637802A8094907F05FF902A9D4
:1071F000002001F0DFFC03E06421064A03F0DAFC22
:1072000022B070BD082B0020043300207AF001006A
:1072100095F0010037F00100002809D08021A1235A
:10722000A022DB00D205C905D1500122014B1A7002
:107230007047C04648330020B0B5131C6C46083375
:10724000DB08DB00E31A00AF9D466C46002320708C
:10725000D8B2904204D2CD5CE01845700133F7E714
:10726000064B211C1878012303F0F4FF002801D0FD
:10727000002000E00248BD46B0BDC0460A2B0020F9
:107280000140000073B56B46141C0122154ED971E4
:107290000733051C191C3078131C03F0DBFF002892
:1072A0001BD001233078291C1843221C03F0D2FF85
:1072B000002814D00423C046C046C046C046C0467D
:1072C000C046C046C046C046C046C046C046C0468E
:1072D000C046013B181EEED102E0034800E003481F
:1072E00076BDC0460A2B002001400000024000008D
:1072F00013B501AC201C0C210222FFF7C3FF0028AC
:1073000001D00B4813E0202263780C209343211C0A
:107310001E3A6370FFF790FF0028F2D12070607072
:10732000211C1A300222FFF787FF0028E9D116BD81
:107330000440000037B5234B400001AC1870182101
:10734000201C0222FFF79EFF002801D01E4837E0D4
:10735000201C08210222FFF795FF0028F6D120709B
:107360006070211C06300222FFF766FF0028EDD175
:1073700020706070211C0A300222FFF75DFF002898
:10738000E4D17C23FF251830211C02222370657074
:10739000FFF752FF0028D9D197230C302370211C0E
:1073A0003B3B02226370FFF747FF0028CED12070DD
:1073B000211C143002226570FFF73EFF0028C5D162
:1073C0003EBDC0460A2B00200340000008B5042142
:1073D0000222FFF757FF002800D0014808BDC04631
:1073E0000540000037B501AD041C1A21281C0222FB
:1073F000FFF748FF00281CD101222B78134201D04F
:10740000207013E002210B420AD10422134201D062
:1074100021700BE0190701D5032306E0D90601D539
:10742000227003E09B0601D505232370FFF760FF60
:1074300000E001483EBDC046064000000423C046AF
:10744000C046C046C046C046C046C046C046C0460C
:10745000C046C046C046C046C046013B002BEED1E8
:107460007047000007B5094A01AB187059701078D1
:10747000191C0222012303F0EDFE002803D0FFF7C0
:10748000DDFF002000E002480EBDC0460B2B0020AF
:107490001640000010B50F4C6378002B17D1FF2168
:1074A000400020700320A170FFF7DCFF011E01D017
:1074B00009480DE00220FFF7D5FF011EF8D1012099
:1074C000FFF7D0FF0028F3D10123637000E00348E9
:1074D00010BDC0460B2B00200740000006400000F6
:1074E000002310B5934203D0CC5CC4540133F9E7B8
:1074F00010BD8218904202D001700130FAE7704747
:1075000010B503681A1E10D0117820290BD93A291A
:1075100001D00132F8E7591C1C788A4205D1302C81
:1075200003D102330360002001E00120404210BD7E
:1075300010B50923002810D00268002A0DD0117858
:1075400000290AD0D48881888C4206D1507801F075
:1075500035F90323C007C0170340181C10BDCB7EAC
:10756000021C887E1B021843032A05D14B7D0A7D2D
:107570001B0213431B0418437047F8B5071CC56A68
:1075800030370123041C391C40782A1C01F0D8F93B
:107590000123002814D1236AA2692071EB1A9342B7
:1075A00001D300230CE0E678012EFAD9A3696078B4
:1075B000ED18391C2A1C012301F0C2F9013EF3E742
:1075C000181CF8BD08B5031C02790020824202D0C5
:1075D000181CFFF7D2FF08BDF8B5041CFFF7F2FF37
:1075E000051E53D12378032B48D16779012F45D14C
:1075F000261C80223036301C291C9200FFF779FFB0
:107600005522234B4121E254224B9218E254221C72
:10761000DE3BFF3B313233701370231C6122323367
:1076200085201A7059707223800023541A482354FD
:107630001A4BE1541A4BE2542369B832FF32A35477
:10764000184A190AA154184A190CA154174A1B0EBA
:10765000A354E3680132A354154A190AA154154AE8
:10766000190CA154144A1B0EA354E36960785A1CE8
:10767000E262311C3B1C01F063F965710021607806
:107680000A1C01F0A9F9431E9841C0B2F8BDC046DA
:107690002E0200002F02000015020000160200005A
:1076A00017020000190200001A0200001B0200006D
:1076B0001D0200001E0200001F02000070B5C36A18
:1076C000041C0E1C0025994210D0FFF77BFF051EFD
:1076D0000CD1211C60783031321C012301F0F6F806
:1076E000002802D0012601357642E662281C70BDD2
:1076F000002310B50371013BC362041CFFF7DEFFDA
:10770000011C0320002939D11D4B1E4AE35CA25CF9
:107710001B0213431C4A1BB2013893422ED1231C77
:1077200069331B78081C1A06231C68331B781B045A
:107730001343221C663212781343221C67321278DC
:1077400012021343114A1B021B0A934216D0231C38
:1077500085331878013B1B7800061B041843231C53
:1077600082331B788334184323781B0218430002AA
:10777000074B000AC018431E9841C0B210BDC04656
:107780002F0200002E02000055AAFFFF46415400C0
:10779000BABEABFF0023F0B5036089B0071C081C1C
:1077A000161CFFF7ADFE0B23051E00DA8FE1C94B57
:1077B0008200D4580C23002C00D188E13C6023784F
:1077C000002B0DD0607800F0F9FF0123034007D1B2
:1077D000002E00D17BE1420700D478E10A2376E154
:1077E0000023E8B22370607000F0F2FF0323C207A9
:1077F00000D56CE1002E01D04307EFD4201C0021FE
:10780000FFF776FF012828D1231C0020F333FF3334
:1078100000221978914209D0DA7911069A79120476
:107820000A4319790A43597909020A43810004ADD0
:1078300001304A5110330428EAD1002504AB5E59C7
:107840000220002E05D0201C311CFFF751FF00281C
:107850000CD00435102DF1D135E100260123032889
:1078600000D134E1B04201D00D2330E1231C221CB1
:107870003C331B783B3212781B02134380221BB22D
:1078800092009342F0D1231C221C47331B784632CE
:1078900012781B02134311D1231C57331B781A068D
:1078A000231C56331B781B041343221C54321278BA
:1078B0001343221C55321278120213430093009B8B
:1078C000A361231C40331A78531EE270012BCBD8DE
:1078D000231C3D331978A1700029C5D04B1E1942D5
:1078E000C2D1231C42331F78013B1B783F021F4348
:1078F00027813B07B8D1231C44331878013B1B7800
:107900000002184310D1231C53331878013B1B7815
:1079100000061B041843231C50331B781843231CF8
:1079200051331B781B021843231C251C3F331B7843
:107930003E352D781B021D43019595D0009B534386
:107940000393039A3B095B199B18029398428BD3CC
:10795000C01A06F0CFF8002886D05F4B0125984268
:1079600004D95E4D8542AD416D420235019B029ABC
:107970000230F31892196061E6612362A262032D5E
:1079800017D1002F00D06FE7231C5F331B788000D6
:107990001A06231C5E331B781B041343221C5C3223
:1079A00012781343221C5D32127812021343636271
:1079B0000FE0002F00D157E7039AD3186362022D1E
:1079C00001D1400005E003230122434310405B083E
:1079D0001818434BC018009B400A834200D243E76B
:1079E00001235B422361E36081336371032D61D125
:1079F000231C221C61331B78603212781B02134354
:107A0000012B57D1711C201CFFF758FE002851D1C3
:107A1000344B6071344AE35CA25C1B021343334A6B
:107A20001BB2934246D1231C33331B781A06231C06
:107A300032331B781B041343221C30321278134359
:107A4000221C3132127812021343294A934231D157
:107A5000284BE35C1A06284BE35C1B041343852286
:107A60009200A25C1343254AA25C12021343244AEB
:107A700093421FD1234BE35C1A06234BE35C1B04A8
:107A8000134386229200A25C1343204AA25C120296
:107A9000134323611E4BE35C1A061E4BE35C1B047D
:107AA000134387229200A25C13431B4AA25C12027A
:107AB0001343E360074A2570938801339BB2938098
:107AC000E380002303E00123032800D0CCE6181C48
:107AD00009B0F0BD102B0020F50F0000F5FF0000ED
:107AE000FF0100002F0200002E02000055AAFFFF38
:107AF00052526141170200001602000015020000F8
:107B0000727241611B0200001A020000190200009B
:107B10001F0200001E0200001D020000436902391E
:107B20009A1E0023914203D28378826A59438B18AC
:107B3000181C7047F7B50124A14265D943699942E1
:107B400062D203780E1C051C022B2DD0032B3FD0D4
:107B5000A34259D14F087F18036A790AC918FFF761
:107B6000ADFD002802D0012464424DE07B1CFF05DE
:107B7000590A0193FF0D2B6AEF193037C918281CD9
:107B80003F78FFF79BFD0028EDD1019BD805C00D84
:107B90002D1830352B781B021F43264201D03C099B
:107BA00032E03F053C0D2FE0036A090AC918FFF7D0
:107BB00085FD0028D7D1FF2376005B001E40AB195E
:107BC0003036AD1930336C781B7824021C431BE02F
:107BD000036AC909C918FFF771FD0028C3D1FD3038
:107BE000B600FF300640321C3032AA189478D378A1
:107BF00024041B061C435378AE191B0230361C4369
:107C000033781C4324012409201CFEBDF8B5051C53
:107C1000E98084680E1C012C01D1022038E0036841
:107C20005A699442F9D2002C0BD11A78032A02D156
:107C30005A6A002A04D11A899642EED2586A17E08D
:107C4000141C211C9F783F01BE420DD32868FFF70A
:107C500071FF011C431C1AD00128DED92B685B6917
:107C60009842DAD2F61BEFE728680C1CFFF756FFA4
:107C7000EC600028D1D00F21330931401818490198
:107C80002B683031591828616961002000E001201B
:107C9000F8BDF7B5041C0E1C151C022001297DD966
:107CA000636999427AD22778874245D0032F57D00B
:107CB000012F73D14B085B18590A0093236A201CCB
:107CC000C918FFF7FBFC002868D1009B3E40013338
:107CD0000193009BEAB2DB05DB0DE318002E08D010
:107CE0001A1C303211780F220A40E9B209010A4306
:107CF000D2B230331A7001232371019B201C590A20
:107D0000236AC918FFF7DAFC002847D1019BDB057D
:107D1000DB0DE218002E02D02D09EDB208E0131C95
:107D2000303319780F232D0A99432B4019430D1C2A
:107D3000131C30331D702FE0236A090AC918201C58
:107D4000FFF7BCFC002829D1FF2376005B001E4012
:107D5000A319303330361D70A6192D0A75701BE03B
:107D6000236AC909C918201CFFF7A8FC002815D1EF
:107D7000FE23B6005B001E40331C3033E318DA7874
:107D8000A6191209120715432A0A303635705A709F
:107D90002A0C2D0E9A70DD7001232371FEBD0000A8
:107DA000F8B5051C0E1E06D1C768002F13D0436915
:107DB0009F4211D30FE0FFF7BDFE0124A04242D93C
:107DC000431C02D1012464423DE06B69041C371C52
:107DD000984201D237E001273C1C6B6901349C4278
:107DE00004D3012F01D800242DE00224281C211CDB
:107DF000FFF7A0FE002808D0431C01D0012801D1C4
:107E0000041C20E0BC42E8D1EDE7281C211C0F4AED
:107E1000FFF73FFF002813D1002E0AD12B69EC6039
:107E20005A1C10D00122013B2B616B7913436B71FB
:107E300009E0281C311C221CFFF72BFF0028EDD085
:107E40000128BFD00124201CF8BDC046FFFFFF0F52
:107E5000F7B5C6880136B3B2002B01D104206AE021
:107E60000369002BFAD00F2232400F1C041C019230
:107E7000002A58D1C168013303610068002903D189
:107E800003899E42EAD24EE082783309013A1A42CF
:107E900049D1FFF74FFE051E012D01D802204AE00F
:107EA000431C01D1012046E0206843699D4234D340
:107EB000002FD3D0E168FFF773FF051C0720002DCA
:107EC00039D0012DEAD06B1CECD02068FFF77AFB8B
:107ED0000090031EE6D180222068191C30309200E9
:107EE000FFF707FB2768291C381CFFF717FEF8620D
:107EF000009F23689A7897420CD201221A71206859
:107F0000FFF760FB0028CDD122680137D36A013327
:107F1000D362EEE7DA6AD71BDF62E5602068291CCE
:107F2000FFF7FCFD20610020019B22685B013033DC
:107F3000D318E6806361FEBDF0B50B7885B0041CF4
:107F40000D1C2F2B01D05C2B00D101350026A66023
:107F50002B781F2B06D8201C311CFFF757FE6661BB
:107F6000D5E001352B782F2BFBD05C2BF9D0A669FF
:107F700020210B22301CFFF7BCFA002108230A1C29
:107F800000910193009B01330293009BEB5C202B3B
:107F900043D92F2B41D05C2B3FD02E2B00D19BE01F
:107FA0000198814200D395E058B2002801DA0320FD
:107FB00002437F2084469C4460466F46F873F87BFA
:107FC0001E2807D9202084469C446046F873F87B1D
:107FD0001C2819D800980230844602982F5C381C5F
:107FE00040383E2803D94038C0B27C2872D8019866
:107FF000013881426ED273546346481C37540231B3
:108000000293029B0093BDE700274248C05D002811
:108010006BD001379842F8D15CE0029820272D18E8
:1080200000209F4240418300002953D03178E52948
:1080300001D1E03931700199082901D19200D2B201
:1080400003211140012902D10F310B43DBB20C2176
:108050000A40042A02D104321343DBB2F372201C1B
:108060000021FFF7D3FD00281CD120682169FFF70C
:1080700025FB002816D161690B78002B11D008234D
:10808000CA7A1A4008D1A6698B5CB05C0132181A12
:1080900002D10B2AF8D105E0201C0021FFF7D8FE01
:1080A000E1E70420A369DB7A002805D004282ED15B
:1080B00003422CD101302AE05B0728D46169CB7AD6
:1080C000DB0605D523681878FFF749FAA06049E771
:1080D00005201CE006201AE0019B082BFAD10B2397
:1080E00092000199D2B201938BE71F1C413F192FD7
:1080F00002D802273A4307E01F1C613F192F03D81B
:108100000127203B3A43DBB27354013179E705B0D4
:10811000F0BDC046BFF0010038B50021051CFFF7D7
:1081200075FD041E10D128682969FFF7C7FA041EDF
:108130000AD16B691B78E52B0AD0002B08D0281CCC
:108140000121FFF785FEECE7042C14D1033412E083
:1081500028682969FFF7B2FA041E0CD16869211C4E
:108160002022FFF7C6F90B226869A969FFF7B8F961
:1081700001222B681A71201C38BD70B5041C0D1E1D
:10818000012D01D8022024E043699942FAD26369A3
:108190009D4205D2201C291CFFF7CCFC061E01D1F4
:1081A000002016E00128EDD0431C11D0201C291C12
:1081B0000022FFF76EFD00280BD123695A1C05D061
:1081C000012201332361637913436371351CDEE7B8
:1081D000012070BD1FB5019003A8141C00910391EC
:1081E000FFF78EF90B22002817DB0D4B8000C258D9
:1081F000002A01D000211170019A002A01D000212B
:108200001170019919500A1E07D00022012C04D1C7
:1082100001A86946FFF7BEFA021C101C04B010BD8D
:10822000102B0020F0B58FB0051C03910920002D04
:1082300000D18CE0161C00231E222B60324007A8C0
:1082400003A9FFF7A7FA002800D080E004AB07A835
:1082500003990D93FFF770FE0C9C002802D1002CAF
:1082600000D106301F271C2337401E4242D0002871
:108270000AD0042802D107A8FFF74EFF08230C9C60
:108280001F43002807D062E01123E27A1A425DD131
:10829000082073075BD43B0736D54A230026237496
:1082A000043B6374079BA673E673E67226776677D2
:1082B000A677E6771878211C0193FFF750F9012380
:1082C000019AA676E6762675667502901371B0421D
:1082D0001AD0101C0299D66AFFF74FFF002836D13A
:1082E000029B0798013BC360311CFFF7E7F90028A8
:1082F0000AD02CE000282AD1E37A0420DA0626D41A
:10830000B20701D5DB0721D43B0701D520231F434A
:10831000079E211CF36AAF710027EB612C62EF719D
:108320003078FFF71CF92861E37F381C1A06A37F19
:108330001B041343227F1343627FAF601202134377
:10834000EB60AF612E60F388AB8000E007200FB0D8
:10835000F0BDF0B51F1C002385B03B60051C0091EB
:10836000161CFFF7E5F8002800D08BE0E87900281C
:1083700000D087E0AB790730DB0700D482E0EB6800
:10838000AA68341C9B1A9E423BD91C1C39E0AA687F
:10839000D3055BD12868530A8678013E3340DBB2AF
:1083A0000193002B30D02B686969181C0293FFF7EA
:1083B000B5FB002831D0019B660AC3180393002E39
:1083C00042D0029B019A9B78B2189A4201D9019A35
:1083D0009E1A029B00995878039A331C00F076FA93
:1083E00000281ED129680B79002B1FD17602009B33
:1083F000A41B9B190093AB689B19AB603B689B194E
:108400003B60002CC3D13CE0002A01D1286902E086
:108410006969FFF78FFB012801D8022002E0431CA5
:1084200002D10120E8712DE06861BCE7CB6A039AB4
:10843000981AB042DAD28022009B400218183031DC
:108440009200FFF74DF8D1E7039BAB618022AB6848
:108450009200DB05DB0DD31A261E9E4200D91E1C9E
:108460002868A969FFF72AF90028DAD1AB680098D3
:10847000D905C90D2B6830315918321CFFF730F877
:10848000B5E7201C05B0F0BDF0B51F1C002385B07A
:108490003B60041C0191151CFFF74AF8002800D02E
:1084A000B1E0E379181E00D0ADE0A2790720920771
:1084B00000D4A8E0A268A91891425B415B421D402C
:1084C000002D16D0A268D30570D12068530A817898
:1084D00001390B40DBB20293002B1FD1002A03D1DC
:1084E000216900290CD100E06169FFF759FC011EE8
:1084F00006D1A368E268934200D87FE0E3607DE0A4
:10850000012901D1022002E04B1C02D10120E071BF
:1085100079E023696161002B00D121612068A269A3
:10852000C36A934203D1FFF74DF80028EED12668C5
:108530006169301CFFF7F2FA0028E3D0029BC318F0
:1085400003936B0A009323D0009A0299B3785218D0
:108550009A4201D95B1A009370780199039A009BA3
:1085600000F0EEF9061ED1D12068039AC36A991A69
:10857000009B994209D28022019B49025918303050
:108580009200FEF7ADFF23681E71009B5E022AE099
:10859000A368E268934207D3301CFFF713F8002862
:1085A000B4D12368039ADA62039BA3618022A36893
:1085B0009200DB05DB0DD31A2E1E9E4200D91E1C35
:1085C0002068A169FFF77AF800289FD1A368321CC0
:1085D000D805C00D2368303018180199FEF780FFC8
:1085E000012322681371019BAD1B9B190193A368A2
:1085F0009B19A3603B689B193B6061E72022002028
:10860000A3791343A37105B0F0BD38B5041CFEF780
:108610008FFF002830D12025A3792B422CD0206851
:10862000E169FFF74BF8002826D1236ADA7A2A435A
:10863000DA72227B1A77627B5A77E268120C9A7799
:10864000E268120EDA77226998759A76110A120C8E
:108650001A75120A5A754A221A76043AD976D875CA
:108660005A769874D874A3792268AB43A371012316
:1086700013712068FEF7B0FF38BD10B5041CFFF77A
:10868000C4FF002805D1201CFEF752FF002800D1AE
:10869000206010BDF7B5041C0D1CFEF749FF002833
:1086A00077D1E079002874D1E3689D4203D9A2799B
:1086B000920700D41D1C0022A368A260954201D13C
:1086C000002056E02768BE787602002B14D0013BCC
:1086D000311C681E009305F00DFA311C01900098C2
:1086E00005F008FA019B834206D3009A73421A40B0
:1086F000A260AD1A616911E0216900290DD1381C11
:10870000FFF74EFB011E012901D1022002E0431CAC
:1087100002D10120E0713CE0206161610029CFD0ED
:10872000B5421AD9A37920689B0704D5FFF738FB17
:10873000011E03D110E0FFF7FDF9011C4B1CE8D02E
:108740000129E2D923685B699942DED2A36861619D
:108750009B19A360AD1BE3E7351CA3685B19A360FD
:10876000EB05ADD02068FFF7D9F90028CDD06D0A10
:108770004019A368DA0503D0A269904200D0A06135
:10878000E2680020934204D92022E360A3791343D6
:10879000A371FEBDFA239B00C046C046C046C0463A
:1087A000C046C046C046C046C046C046C046C04699
:1087B000C046C046013B002BEED170470123002884
:1087C00001D1024B1B78181C7047C04600200020C6
:1087D00073B50324002872D10A3005F021F8FEF7A2
:1087E00003FB073401AD013C281C0121E4B2FEF774
:1087F00025FB002CF6D1201C211CFEF7C1FB061E18
:10880000012E01D0002446E0D52108204900FEF7C2
:10881000B7FB012818D1281C0421FEF70FFBAB7809
:10882000012BEFD1EB78AA2BECD1FA24A400802104
:10883000A920C905FEF7A4FB011E1ED0013CFFF7CD
:10884000A9FF002CF3D1DDE7A920211CFEF798FB3E
:10885000012802D9351C341C01E0A9250224FA267E
:10886000B600281C0021FEF78BFB00281DD0013E1E
:10887000FFF790FF002EF4D1C4E73A20FEF780FB0B
:108880000028BFD1281C0421FEF7D8FA2B780C242D
:108890005B0600D404240B4B1C70604244410A4B1D
:1088A000E4B21C70FEF7FCFA09E080211020890078
:1088B000FEF766FB4342584140420440EBE7201C70
:1088C00076BDC046162B00200020002070B51D1C70
:1088D00001230E1C191C002801D117490978032017
:1088E000194228D1154B1B781B0700D452020124D2
:1088F000AC42A44164421134201C111CFEF740FB21
:10890000002812D18021301C8900FEF7EFFA0028E0
:1089100005D08023013D9B00F618002DF2D1122CCA
:1089200003D10C200021FEF72BFBFEF7B9FA2B1C1C
:108930005D1EAB41D8B270BD00200020162B002078
:1089400070B51C1C0123161C0D1C1A1C002801D11B
:108950001F4A127803201A4238D11E4B1B781A077F
:1089600000D47602012C0CD11820311CFEF708FB34
:10897000002826D1281CFE21FEF7DCFA444244419F
:108980001FE00622134203D09720211CFEF7F8FABD
:108990001920311CFEF7F4FA002812D1281CFC2102
:1089A000FEF7C8FA002805D08023013C9B00ED1893
:1089B000002CF3D10020FD21FEF7BCFA002800D1E5
:1089C0000124601E8441FEF76BFAE0B270BDC04620
:1089D00000200020162B00200123F0B51C1C85B0C0
:1089E000002801D12B4804781C400326002C4ED1CE
:1089F000151C01290CD0002904D0B14243D1802399
:108A0000136041E0FEF75AFA44424441E4B23BE0CD
:108A1000211C0920FEF7B4FA041E01D0012433E022
:108A200068461021FEF762FA0028F7D06B466A46C6
:108A30001878517A8009DB79127A012808D13E3002
:108A400003401E04120201368A18B118890218E088
:108A50009B009209D2186B469B79314033409B02B0
:108A6000D3186A4657790F2217406A46927A4E0009
:108A7000D0093A1802329119C9B2093901338B4031
:108A8000191C296000E00424FEF70AFA261C301C99
:108A900005B0F0BD0020002008B5031C0A1C0649E3
:108AA0000878191C012302F0D5FB002801D0002012
:108AB00000E0024808BDC046172B0020013000002E
:108AC00007B5074B400018706B46D81D8223012163
:108AD0000370FFF7E1FF002800D002480EBDC0463A
:108AE000172B002003300000F0B5161C1822071CBD
:108AF000424303202E4B85B09A18D36A0391184045
:108B000002280DD0111C2031936A49685B1A013B81
:108B100001D5126A9B189E4202DD002845D01E1C1A
:108B20000020864241D001901822101C7843204B2F
:108B30001818011C2031846A4968641A191C013C08
:108B400001D5036AE4187A438A18101C136A20308E
:108B50000293536A029AD31A9C4201DB4468141BA5
:108B6000B44200DD341C18231D1C781C43437D4394
:108B7000CB184D196A6A586803998018221C05F0B1
:108B8000D4FB019B361B1B190193039B029A1B19F3
:108B900003936B6A20351C196C606B68934201D19A
:108BA00000236B60002EBFD1019805B0F0BDC04618
:108BB0000420002010B50A1E06D00B1C1C785A1A7F
:108BC000002C01D00133F9E7FFF78EFF10BD000044
:108BD000002170B500781F4BCAB25C1865781C1C68
:108BE000854200D1101C01310429F4D1421CD1006E
:108BF000635C012B08D161184B78002B01D1CB7835
:108C000000E000234B701EE0022B21D163189D78F9
:108C10005978002D06D0DE780431B14208DB5E7051
:108C2000002103E0042903DC01215D7099700AE052
:108C3000D300E31859780426002D00D1F836D3006C
:108C40007118E3185970D200A318597800F0C0FACF
:108C500070BDC0467C200020F8B50023234CDDB257
:108C6000E21852785F1C82423CD1061C002000F0C2
:108C7000CBFAFB00E318586803F0C6FB032D0DD0B8
:108C8000691C63185B7865196B704B1CCA00DB00AC
:108C9000A218E31821CB21C2CDB2EFE7FF230025B4
:108CA0000121201C2371631CDD77A31CDD77E31CED
:108CB000D977231DDD770E4A243003F037FB237864
:108CC000201C013B237000F07FF92B1C221C383242
:108CD000995CB14202D1FF21D15406E00133042B4B
:108CE000F4D102E03B1E042BB8D1F8BD7C2000205B
:108CF000D18B0100F0B5051CA5B0019103921E1C9B
:108D0000FFF7AAFF2B1CA0220321C133FF33D2059A
:108D10009B0099500123AB40002739495350394CEF
:108D20007A1CE3195B780292FF2B62D1012E04D1E9
:108D30003220019B4343019308E06420019B584388
:108D4000039B9908490004F065FF0190002000F0A2
:108D50005BFA6A46E7197D702378127B0133237032
:108D6000029BDB00E654E318DA700023221C383241
:108D7000995CDFB2FF2901D1D55403E00133042B04
:108D8000F4D11F1C201C00F01FF9002804D0281C5F
:108D9000FFF762FF1C4C30E0029B0199DB00E318F7
:108DA000CA0302934B0C00211848383480185941EB
:108DB000174A002305F020F8029B011CE2195868AD
:108DC00003F0DAFA041EE2D12B1C1C3B012B02D863
:108DD0000120FEF721FA012000F016FA04A80D493F
:108DE0002A1C331C05F062FB04A90020FFF7E2FEF9
:108DF00003E0029F042F92D1074C201C25B0F0BD48
:108E00000C0500007C20002005600000DC0500004F
:108E1000B80B00000BF101000360000038B5094BEE
:108E20001D1C2C331C1C0C35281C0121064A03F088
:108E30007DFA002803D10835A542F5D100E00348AA
:108E400038BDC0467C200020D18B010004600000AA
:108E500010B5041CFFF700FF0120FEF7DDF9231C0D
:108E6000A02203210120C133FF33D2059B0099507A
:108E7000A123A040DB00D050002010BD10B5041C81
:108E8000FFF7EAFE0020FEF7C7F90120231CA0220D
:108E90000321A040C133FF33D2059B009950024B00
:108EA000D050002010BDC0460C05000070B5041C59
:108EB0000E1C151CFFF7D0FE231CA0220321C1337A
:108EC000FF33D2059B0099500123181CA040044990
:108ED0005050311C2A1C201CFFF70CFF70BDC046EF
:108EE0000C05000070B5041C0E1C151CFFF7B4FE29
:108EF000231CA0220321C133FF33D2059B009950CC
:108F00000123A3400549201C53500A2171432A1C08
:108F1000C9B20223FFF7EEFE70BDC0460C0500008B
:108F200045DF704747DF70474EDF704750DF7047BF
:108F300010B50C4B041C1B6899420AD800208C42C7
:108F40000FD3094A1268D31A59188C428041404203
:108F500007E0CB1A01209C4203D300238C425B41E3
:108F6000D8B210BDB82000202C2F002010B5041E50
:108F70000F2C06D8C0B2FFF7D5FF0120A040FFF7A5
:108F8000CFFF10BD012230B5151CA123A0248D40B8
:108F9000DB00E405E550094B8000C018A223084C13
:108FA000DB00C450C046C046C0460260054A090204
:108FB0001143C150C046C046C04630BD00600040AD
:108FC000031F010003001300F7B50378041C013BE5
:108FD000032B00D9D7E0031C34331878052800D9B7
:108FE000D1E0A222694FD200694B04F079FD03055C
:108FF000070C1012092107E009210BE00621B950E6
:10900000FA22920008E00321B950642204E0012111
:1090100000E00021B950FF221A60A222D200BA5803
:109020005C49895C5C4A116022785A600023019295
:10903000019A934217D2E118554D4A7898000835A5
:109040004251A0250326C132FF329200ED05565150
:1090500000254F4A3031183285504D4A0978283260
:1090600099540133E4E7A12200230125D200FD60D9
:10907000BB50474A802611680420D162A922D20041
:10908000B9509446454AB600BB50454AB85113659D
:10909000D36493645364019A022A13D9414AD56078
:1090A000A125ED005351654651513C4953503E496D
:1090B00090510B65CB648B644B64A2233349DB0076
:1090C000C958D150019B002B2ED0314D374B28353C
:1090D0002E783749B600F618231C28331878321C2E
:1090E000FFF744FF231C29331878321C3149FFF75E
:1090F0003DFF0023264E30363370019B012B13D0E9
:109100006D782A4BAD00ED18231C2A3318782A49B4
:109110002A1CFFF72BFF231C2B33187825492A1C08
:10912000FFF724FF0023737002252C34019B9D421E
:1091300018D2174B20782833EE5C1C4BB600F6187B
:109140001E4B321CE9188900FFF710FF6078321CB3
:109150001B49FFF70BFF00220D4B02343033EA545A
:109160000135E3E71748FFF7DFFE0123164A002029
:109170001360074A3B605268022A06D9134A1360FB
:10918000084A136001E001204042FEBD00A00040FB
:109190002C2F00202AF10100B82000200405000037
:1091A000FCA0004000900040FC90004000600040A7
:1091B00040A1004048A1004044A100404E240010BE
:1091C000489100409D9401000CAC00400C9C004074
:1091D0001FB50B4B82009A185163012230331A5489
:1091E00000236A4613701371FA2202926A46537181
:1091F000044B68460393FFF799FE05B000BDC046D7
:109200002C2F0020A086010070B517490123174AB2
:10921000002806D00B605268022A24D9144A136031
:1092200021E04B605068022801D911494B600023AE
:10923000834218D0111C2831595C0E4D45310E4C1B
:10924000FF3189000D51111C9C0008316558012126
:10925000A026A940094DF6057151111C00251831B1
:1092600065500133E4E770BD00A000402C2F0020C2
:1092700000900040001F0300006000400C0500004B
:10928000A922F0B57E4C7F49E36AD20023608B505F
:10929000606885B00291022801D97B498B50002378
:1092A0006364666C63689E4200D3E6E0231C30333F
:1092B0009A5D002A00D1DDE00022B50065199A55BB
:1092C0006B6B0193934212D1231C28339B5D6F4932
:1092D00045336F4AFF339B0099500123AA68A021B0
:1092E00093406C4AC9058B50019BAB61C2E0019B66
:1092F00021688B4212D3231C28339B5D634845337E
:109300006349FF339B0058500123A968A0208B407C
:10931000A121C005C9004350AA61ABE0019BA36431
:10932000012E54D8331C5133FF33029A9B00D3587B
:10933000544F0393E364AB69002B18D1231C2833EB
:109340009E5DA968301CFFF71DFE0123524AAB61E8
:10935000FB64BA5801998A4231D94D4AB600B350DC
:109360002DE078590199FFF7E3FD00280CD1012386
:10937000029A494DD364029B03995859414FFFF714
:10938000D7FD0028F3D0ECE77B59039A934203D32F
:109390007B59019A93420BD33F4A029B9B58039AF5
:1093A00093420CD2374A3C4BD358019A934206D38E
:1093B000231C012128339B5D354A9B009950636C27
:1093C000029A5133FF33A16C9B00D15052E0331C01
:1093D0004F332D4FFF339B00DB590393E364AB699D
:1093E000002B19D1231C28339E5DA968301CFFF780
:1093F000C9FD0123284AAB61FB64BA5801998A422E
:1094000032D9234AB600B3502EE01F4B0199585968
:10941000FFF78EFD00280BD101231B4A1E4DD3649C
:10942000131C03995859FFF783FD0028F4D0ECE78B
:10943000154B039A5B59934204D3134B019A5B5922
:1094400093420AD3144B039AFB5893420CD20E4A10
:10945000114BD358019A934206D3231C0121283380
:109460009B5D0B4A9B009950636CA26C4F33FF339A
:109470009B00FA50636C013312E705B0F0BDC046A3
:109480002C2F002000A0004000900040001F03008F
:10949000006000400C0500004C050000064B022156
:1094A0001A1C503210B511701C1C002801D1FFF796
:1094B000E7FE201C503010BD2C2F0020F7B56B4666
:1094C000141C0122184F0D1CD91D08703878131C6C
:1094D0004000C0B201F0BEFE061E01D13C210CE0EE
:1094E00001233878E2B240001843C0B2291C01F0D1
:1094F000B1FE0423061E04D142210C4A01F05AFB9E
:1095000010E0C046C046C046C046C046C046C04641
:10951000C046C046C046C046C046C046C046013BE5
:10952000002BEED1301CFEBD4836002034F1010086
:1095300008B50122FFF7C2FF08BD000098B5131C53
:109540006C460833DB08DB00E31A00AF18709D4659
:109550000020904204DA0130441E0C5D1C54F8E7F0
:10956000094901320878D2B24000191CC0B2012367
:1095700001F070FE041E03D18621044A01F01AFB9B
:10958000BD46201C98BDC0464836002034F101007D
:1095900007B56B46D9710733191C0122FFF7CEFFBF
:1095A0000EBDF0B585B0019302ABDD1D00230C1C90
:1095B000291C061C171C2B70FFF7BAFF002810D0BF
:1095C0000121B940E41B019B01340139A340A140B2
:1095D0002F78DCB28F4321403943301C2970FFF7CC
:1095E000D7FF05B0F0BD08B5131C0122FFF7D9FF66
:1095F00008BD08B56B2007210122FFF7F4FF08BD65
:1096000008B5021C04216B20FFF7EDFF08BD08B56B
:10961000021C05216B20FFF7E6FF08BD08B50021FD
:10962000031C04221E20FFF7BCFF08BD08B5021C66
:1096300005216C20FFF7D7FF08BD08B5021C0421E7
:109640006C20FFF7D0FF08BD08B5021C03216C2079
:10965000FFF7C9FF08BD08B5021C02216C20FFF707
:10966000C2FF08BD08B5021C01216C20FFF7BBFF3B
:1096700008BD08B5021C00216C20FFF7B4FF08BD2F
:1096800008B50221031C03221D20FFF78AFF08BD35
:1096900008B5021C03211D20FFF7A5FF08BD08B572
:1096A00038204021FFF774FF08BD08B51F200F21A7
:1096B000FFF76EFF08BD000008B5184B1870FFF7E4
:1096C00098FF142004F0ACF80020FFF7A0FF002062
:1096D000FFF796FF0020FFF7A9FF0020FFF7ADFF7F
:1096E0000020FFF7B1FF0120FFF7B5FF0120FFF7D2
:1096F000B9FF0120FFF7BDFF0120FFF7C9FF0120DF
:10970000FFF7BEFFFFF7CBFFFFF7CFFF0320FFF709
:1097100085FF0120FFF77BFF08BDC04648360020CB
:10972000F0B585B000AF7A60F973002B0CD101223F
:109730000F334000F918C0B2131C01F08BFD012358
:1097400058404042C0B224E069466C465B00B960B4
:10975000D91DC908C900611A8D460024FE7B9C42B0
:109760000BDA6508AA190A550A1994467A68023470
:10977000555D6246E4B25570F1E74000DAB2C0B21E
:10978000012301F067FD01235840BB6840429D461C
:10979000C0B2BD4640B205B0F0BD08B504F040F817
:1097A00008BDF8B5161C00221D1C131C041CFFF775
:1097B000B7FF00281DD1012764003C433B1CE0B2E9
:1097C000311C2A1C01F046FD042378404042C0B2FF
:1097D000C046C046C046C046C046C046C046C04659
:1097E000C046C046C046C046C046C046013B002BEE
:1097F000EED140B2F8BD0000002373B501AC237078
:109800006370A3700C4B1A688123002A12D0131CBA
:109810002933051C566B1878221C0323FA21B04704
:1098200063781A0123781B031343A27812091343A8
:109830002B60031C58B276BD842F002010B50D4B51
:1098400002111968C0100C88121B6400001B02244E
:109850000B5F5843131C534304240A5F1B135343E9
:10986000C0129B13C31805205843803000124B626E
:1098700010BDC046842F0020002373B501AC2370B7
:109880006370A3700C4B1A688123002A12D0131C3A
:109890002933051C566B1878221C0323F721B04787
:1098A00063781A0123781B031343A2781209134328
:1098B0002B60031C58B276BD842F002070B5274B57
:1098C000274A1C684042636A5B109B189910494301
:1098D0001025625FCE1256430E25625F49135A432C
:1098E000550072190A26A55F921069430826A55FE4
:1098F000C9106B435B10CB1880219B1409025B18C5
:10990000E18859430C25635FC9131B04D218121355
:10991000144B801A5843144B0025C01805D4A94293
:109920001AD0400004F0E6F804E0A94214D004F094
:10993000E1F84000C3085B431621625E5B0B5343B2
:109940001421625E850855431B136D131221625E5C
:109950005B199B181B11C518281C70BD842F002093
:109960000006FFFF350C0000000050C3002373B554
:1099700001AC237063700B4B1A688123002A0ED050
:10998000131C2933051C566B1878221C0223FD2159
:10999000B047237862781B0213432B60031C58B234
:1099A00076BDC046842F0020F0B51D4B1D4A1D68B2
:1099B00086036B6A1F219F181E23EA5E287F12050B
:1099C000B41A2023EA5E80237A43DB01A21AD2185C
:1099D000EB1C5956802378431B02C012C018802309
:1099E0007943891241439B038912C9181A23EC5EFB
:1099F000802361439B01CB189B13D2135A43D3138B
:109A00005B43287EDB1143431B11D31AD843C82282
:109A1000C01703405205934200DD131C1813F0BD1C
:109A2000842F002000D4FEFFF0B589B001AC201CCB
:109A300000211A2204F082FC3F4D81202B68002B6C
:109A400000D175E01A1C29325E6B10788821221C27
:109A50001A23B047627821782B6812020A431A80D1
:109A60000322A256A17812020A435A800522A25666
:109A7000217912020A439A80E279A17912020A43FB
:109A8000DA800922A256217A12020A431A810B2295
:109A9000A256A17A12020A435A810D22A256217BB4
:109AA00012020A439A810F22A256A17B12020A4394
:109AB000DA811122A256217C12020A431A82132251
:109AC000A256A17C12020A435A821522A256217D77
:109AD00012020A439A821722A256A17D12020A4359
:109AE000DA82627E061C1A761A1C293210785F6BA5
:109AF000E121221C0723B8470122A2562178120235
:109B00000A4303212B6880195A83A278C0B21A77BE
:109B1000615622790D010F2111402943D983052176
:109B20006156120909010A431A84A2790333DA77CC
:109B300040B209B0F0BDC046842F002073B56A461C
:109B4000D51D00222A70021C031C094E29323060E8
:109B50005C6BD021107801232A1CA04733682A7837
:109B600028331A70041CFFF75FFF001940B276BD5E
:109B7000842F002073B56B46DD1D00232B700A4B2C
:109B80001A688123002A0DD0131C2933041C566B3C
:109B900018782A1C0123F421B04703232A781340A4
:109BA0002370031C58B276BD842F002013B56B467A
:109BB000DA1DB6231370074B81201B68002B06D0DB
:109BC000191C293108781C6BE0210123A04740B201
:109BD00016BDC046842F002038B5084B041C1D68F4
:109BE0008120002D07D0281C2930131C00780A1C66
:109BF000211C2C6BA04740B238BDC046842F0020EA
:109C000038B5084B041C1D688120002D07D0281C86
:109C10002930131C00780A1C211C6C6BA04740B231
:109C200038BDC046842F00200023F0B5364C85B0E7
:109C300002AA571D5371961D9371D371226803AD0B
:109C400001902B7081209A425BD0019B2E325901EA
:109C500013781F221A400B1C381C13432B70FFF77C
:109C600089FF3B78002B1ED0FFF7A0FF236803205D
:109C70009B6B9847236802AA2F331B78D11DD371A1
:109C8000F5200122FFF7A8FF2368311C2D331B7834
:109C90000122F2203370FFF79FFF291C0122F420DC
:109CA000FFF79AFF08E02368F4211A1C2932107884
:109CB0001E6B2A1C0123B0476A46236812792A3397
:109CC0001A70291C0122F420FFF79AFF23682A78D2
:109CD0002E33061C1A70291C0122F220FFF790FF78
:109CE00023682A782D3380191A70C6B20122F52014
:109CF000291CFFF785FF23682A7830182F331A7044
:109D0000C0B240B205B0F0BD842F00200023F0B5F2
:109D1000374C85B002AA571D5371961D9371D371AC
:109D2000226803AD01902B7081209A425CD0019B88
:109D300065389B000340191C2E32137883430B4374
:109D4000381C2B70FFF716FF3B78002B1ED0FFF757
:109D50002DFF236803209B6B9847236802AA2F33AB
:109D60001B78D11DD371F5200122FFF735FF236841
:109D7000311C2D331B780122F2203370FFF72CFFAA
:109D8000291C0122F420FFF727FF08E02368F421B3
:109D90001A1C293210781E6B2A1C0123B0476A4610
:109DA000236812792B331A70291C0122F420FFF743
:109DB00027FF23682A782E33061C1A70291C0122DB
:109DC000F220FFF71DFF23682A782D3380191A70BF
:109DD000C6B20122F520291CFFF712FF23682A785A
:109DE00030182F331A70C0B240B205B0F0BDC04673
:109DF000842F00200023F0B5434C85B002AA551DE6
:109E00009371D71DD371226803AE009033702B700D
:109E100081209A4275D02D32137800997A3801400A
:109E200083430B43381C3370FFF7A4FE3B7801904B
:109E3000002B27D0FFF7BAFE2368071C9B6B03207B
:109E40009847236802AA2F331B78911D9371F52040
:109E50000122FFF7C1FE019B311C3F180122F220B5
:109E6000FF18FFF7B9FE2368FFB22E331B783F18A7
:109E7000291CF42001222B70FFF7AEFEFFB23F1821
:109E8000FEB216E02368F2211A1C293210781F6BEB
:109E9000321C0123B8472368061C2E331B78F4209C
:109EA000291C01222B70FFF797FE019B3618F6182C
:109EB000F6B26A46144C1278236803AD2C331A703C
:109EC000291C0122F420FFF79BFE23682A782E33F9
:109ED0001A708619291C0122F220FFF791FE2368CF
:109EE0002A78F6B22D3330181A70C6B20122F52046
:109EF000291CFFF785FE23682A7830182F331A7043
:109F0000C0B240B205B0F0BD842F0020F7B56B465B
:109F10006A46DE1C0023334C53719371D51D2268B1
:109F200001AF33703B702B708133002A57D07D33E3
:109F3000032854D82E3213780322934318433070E9
:109F4000381CFFF717FE3B78002B1FD0FFF72EFEC3
:109F5000236803209B6B98476A462368911D2F3323
:109F60001B78F52093710122FFF736FE6A462368BD
:109F7000511D2D331B78F22053710122FFF72CFE67
:109F8000311C0122F420FFF727FE08E02368F421AA
:109F90001A1C293210781F6B321C0123B847291C68
:109FA0000122F420FFF72CFE23682A782E331A7042
:109FB000061C291C0122F220FFF722FE23682A78C2
:109FC0002D331A708619291C0122F520FFF718FE7F
:109FD0002268F6B2297833182F321170DBB258B2EA
:109FE000FEBDC046842F00200023F0B5394D85B05A
:109FF00002AA53719371D371971DD61D2A6803ACC1
:10A0000023708133002A62D01C212F321378800004
:10A010008B43084018432070381CFFF7ABFD3B789A
:10A020000190002B27D0FFF7C1FD2B68071C9B6B0D
:10A0300003209847211C0122F520FFF7CDFD019B4D
:10A040003F18FF182B68311C2D331B780122F2209A
:10A050003370FFF7C1FD2B6802AA2E331B78FFB2C5
:10A060003F185371511DF4200122FFF7B5FDFFB2D7
:10A070003F18FFB209E02B68F5211A1C293210782D
:10A080001D6B221C0123A847071C211C0122F42060
:10A09000FFF7B6FD0F4D22782B68C7192E331A70C3
:10A0A000211C0122F220FFF7ABFD2B6822782D3313
:10A0B000FFB21A703F18211C0122F520FFF7A0FD06
:10A0C0002A68FFB221783B182F321170DBB258B2E8
:10A0D00005B0F0BD842F002008B5174A174B1A634E
:10A0E000174A5A631A1C29321070164A181C9A63B0
:10A0F000FFF724FD002801D013481BE00320FFF7E1
:10A1000005FF0028F8D1FFF76FFF0028F4D10130D8
:10A11000FFF770FE0028EFD10130FFF7F7FD0028B0
:10A12000EAD10130FFF780FD0028E5D1FFF7EEFE10
:10A130000028E1D108BDC046219701004C3600201F
:10A14000A39701009B97010003200000002313B593
:10A15000041C036001A80193FFF74EFB00280AD1FD
:10A160000198FFF76BFB20600120FFF7CFFE00286E
:10A1700002D0024800E0024816BDC046012000009F
:10A1800002200000002313B5041C036001A8019302
:10A19000FFF772FB00280AD10198FFF78FFB2060C0
:10A1A0000120FFF7B3FE002802D0024800E0024879
:10A1B00016BDC0460120000002200000002313B598
:10A1C000041C036001A80193FFF7D0FB00280AD10B
:10A1D0000198FFF7E9FB20600120FFF797FE0028B8
:10A1E00002D0024800E0024816BDC046012000002F
:10A1F00002200000A02370B5DB050324234D0028B6
:10A2000030D1234E9C510C3E9C51224E9851EC2053
:10A21000C0001C50A12419261F48E4000651033E2B
:10A220004651A2250136ED00465180256D041D5191
:10A2300080241A4B0139E405C9B2C4500023022915
:10A2400001D8174B5B5C1749002A01D00122134348
:10A250004350031C0022FC33DA60A0230132DB00F0
:10A26000C25070BDEF200026C0001C501C501E5074
:10A27000A1261C501E240C48F60084514451A225EE
:10A28000ED0044518024E4059C51D1E70C05000009
:10A29000640700005C070000003000402405000057
:10A2A00088F101005405000000400040F7B51D4C46
:10A2B000009101931821A04200D006310125A0246D
:10A2C0008D401949E405655000210E1C009B8CB29D
:10A2D0009C4220D2575C154C0751071CFC37FC6888
:10A2E000002C0BD0C02300249B019E420BD1A12344
:10A2F000A022DB00D205D550201C12E00C4CA64257
:10A30000F0D80136E9E7FC60A324E4000459019B7E
:10A310005C540131DAE7A123A0220120DB00D20541
:10A32000D550FEBD003000400C0500001C050000AB
:10A33000FF2F0000A0DF7047A2DF7047A4DF704747
:10A34000A6DF704763DF7047F0B50B68041C03603D
:10A3500001235B4203810A7903778272FF228377AC
:10A360004277C3774879621CD077313213705370CB
:10A370009370D37088799375D37513765376231CB5
:10A380001071CA794C331A70221CA3B01233723286
:10A39000FF20187001339342FAD110260A7A12A8CE
:10A3A0001A70BA49321C03F0C0FFA11D12A8FFF7B2
:10A3B000C9FF002800D066E1A37910A98B7089231A
:10A3C000221D5B0101300B80FFF7B4FF031E00D09C
:10A3D00059E1A57A002D07D0311C01330DAA19438C
:10A3E00001331170517093701BAE00211C22301C80
:10A3F00003F0A4FF012202212A4012010A43691E30
:10A400008D4100216D4232700DAA2A4072610CAA62
:10A410001181102301220CA81A430272021C03208E
:10A42000907201220CA81A430273012213430222E4
:10A4300016AD437382731422281C03F07FFFA379A7
:10A4400011AFBB70924B311C3B800EAB6B60042391
:10A450002B810423AB81231C1C332B610193A08827
:10A46000103B2A1C16970293FFF766FF002800D0C6
:10A4700009E1A3790822BB70864B68813B800FAB52
:10A480006B6001232B810123AB81231C20332B61C3
:10A490003378311C1343043A13433370231CA088D0
:10A4A00014332A1C16970393FFF746FF002800D0A9
:10A4B000E9E0A3790822BB70774B2F603B800EAB9D
:10A4C0006B6004232B810423AB81231C32332B616B
:10A4D0000493337868819343043A93433370231C85
:10A4E000A0882233311C2A1C0593FFF725FF002882
:10A4F00000D0C8E0A3790822BB70684B2F603B8076
:10A500000FAB6B6001232B810123AB81231C3633FE
:10A510002B61337868811343043A13433370231C4F
:10A52000A0882A33311C2A1C0693FFF705FF002858
:10A5300000D0A8E0A3790822BB70594B2F603B8064
:10A540000EAB6B6004232B810423AB81231C4833A7
:10A550002B610793337868819343043A93433370B4
:10A56000231CA0883833311C2A1C0893FFF7E4FE13
:10A57000002800D087E0A3790822BB70494B2F60E8
:10A580003B800FAB6B6001232B810123AB81231C2C
:10A590004C332B61337868811343043A134333708F
:10A5A000231CA0884033311C2A1C0993FFF7C4FEEA
:10A5B000002868D1A3790822BB703B4B2F603B80F9
:10A5C0000EAB6B6014232B811423AB81231C5E33F1
:10A5D0002B610A93337868819343043A9343337031
:10A5E000231CA0884E33311C2A1C0B93FFF7A4FEBA
:10A5F000002848D1A3790822BB702C4B2F603B80E8
:10A600000FAB6B6001232B810123AB81231C271C23
:10A6100072332B61337868811343043A13433370E8
:10A620005637A088311C2A1C3B1CFFF785FE0028EA
:10A6300029D11F4B029A02215A60039A18709A601E
:10A64000019A9F65DA6001221A74059A5A61069A86
:10A650009A61049ADA615A1CD177089A03215A62E6
:10A66000099A9A62079ADA621A1C303211701A1C1F
:10A670000421403211701A1C0521503211700B9ABE
:10A680005A650A9ADA6523B0F0BDC0468BF1010025
:10A6900033110000341100003511000036110000A4
:10A6A0003711000038110000431100004411000070
:10A6B000882F0020F0B50D1C041C002189B0204813
:10A6C0000E01375C01909F4234D102ABDA80002347
:10A6D000934209DAEF5C0198BC460F01C719604646
:10A6E000FF68F8540133F3E7019B0021981947688C
:10A6F00002AB9A1D38882B1CFFF720FE011E1DD1CE
:10A700002689104B08309E4218D0A37A002B15D012
:10A7100004AC201C102203F011FE3B88301C238067
:10A720000123A37002AB0633211CA360E560FFF791
:10A7300007FE03E001310629C1D1052009B0F0BDB3
:10A74000882F0020FFFF0000F0B5B3B001905848FB
:10A750000478002C00D097E056490122FDF73AFD1D
:10A76000051C12A8002D00D089E0534903F0C0FE5B
:10A7700012A9281CFEF71EFA09A850490122FDF76C
:10A7800051FD041E05D012A84D4903F0B1FE281C4E
:10A7900087E04C4E4C49326E12A803F087FE12A996
:10A7A000201CFEF707FA04AD316E09A8FDF772FF11
:10A7B00003AB291C142209A8FDF7CBFD4349039ADA
:10A7C00012A803F073FE201C12A9FEF7F3F9039BF5
:10A7D000371C0093132B22D834663D4E002B0BD030
:10A7E000291C142205230198FFF764FF12A8311CCD
:10A7F00003F07EFE201C0EE03649281C03F078FE94
:10A80000291C142205230198FFF754FF12A8311CBC
:10A8100003F06EFE009812A9FEF7CCF926E02E4E4A
:10A8200012A8311C03F064FE201C12A9FEF7C2F925
:10A830002A5D2A4912A803F039FE002012A9FEF76A
:10A84000B9F9039B01349C42F2D9311C12A803F0E0
:10A850004FFE12A90020FEF7ADF93B6E01981433AC
:10A860003B66291C14220523FFF724FF09A8FDF7E6
:10A8700004FF104901220020FDF7ACFC0CE0184950
:10A8800003F036FE201C04E012A8164903F030FE47
:10A89000002012A9FEF78EF912A8134903F028FE32
:10A8A000002012A9FEF786F9002033B0F0BDC046A3
:10A8B0001434002022EF01009BF10100ADF10100F2
:10A8C000B6F10100882F0020C6F10100CFF1010090
:10A8D000DEF10100F5F1010021EF010009F20100B4
:10A8E0000CF201001EF201002EF2010030B585B01D
:10A8F0006B46041C0733101C0E22197001216A4498
:10A900001180052828D803F0EBF803080E27271933
:10A910001878611CC877A08A0BE0211C18783631A2
:10A920000870608D05E0211C18784C3108700234E5
:10A93000E08F0021FFF702FD051C0EE0211C1878B6
:10A94000723108701C3908880021FFF7F7FC051CDC
:10A95000201CFFF7F9FE00E00025281C05B030BDE3
:10A9600073B50B88112B05D0502B07D0102B61D15C
:10A970008B8801E001235B4203815BE0CA88838A04
:10A980000D1C041C8E1D9A4210D1338B012B0DD14E
:10A990000368002B0AD06B46002201911A70B17E29
:10A9A000FFF7A4FF201C694623689847EA88638D57
:10A9B0009A4210D1328B012A0DD12368002B0AD084
:10A9C0006B4601951A70B17E201CFFF78FFF201C8B
:10A9D000694623689847A31CEA88DB8F9A4211D105
:10A9E000338B012B0ED12368002B0BD06B46022238
:10A9F00001951A70B17E201CFFF778FF201C694674
:10AA000023689847231C5633EA881B889A4211D141
:10AA1000338B012B0ED12368002B0BD06B46052204
:10AA200001951A70B17E201CFFF760FF2368201C7F
:10AA30006946984773BD73DF704740DF7047000079
:10AA400000B5A1B0FBF784FB68464B4903F050FD0D
:10AA500069460020FEF7AEF8FBF7AAFB68464749B7
:10AA600003F046FD69460020FEF7A4F8FBF7B4FBAF
:10AA70006846434903F03CFD69460020FEF79AF81A
:10AA8000FBF74CFE68463F4903F032FD6946002063
:10AA9000FEF790F8FBF7F0FB68463B4903F028FD12
:10AAA00069460020FEF786F8FBF722FC6846374926
:10AAB00003F01EFD69460020FEF77CF8FBF764FCFE
:10AAC0006846334903F014FD69460020FEF772F82A
:10AAD000FBF76CFC68462F4903F00AFD694600202D
:10AAE000FEF768F8FBF7A2FC68462B4903F000FD6F
:10AAF00069460020FEF75EF8FBF7C6FC684627496A
:10AB000003F0F6FC69460020FEF754F8FBF702FD5F
:10AB10006846234903F0ECFC69460020FEF74AF83A
:10AB2000FBF71EFD68461F4903F0E2FC6946002062
:10AB3000FEF740F8FBF73EFD68461B4903F0D8FCE2
:10AB400069460020FEF736F8FBF782FD6846174994
:10AB500003F0CEFC69460020FEF72CF8A0228021ED
:10AB6000134BD2054905D15080218905D1500020D1
:10AB7000FCF704FB21B000BD3AF201004BF20100EA
:10AB800056F2010063F2010077F2010084F2010045
:10AB900094F20100A9F20100BAF20100D4F201001E
:10ABA000E3F20100F5F2010007F301001AF30100DE
:10ABB0000C05000070B5051C0C1C161CA2B0231C53
:10ABC0002A1C1D4902A803F071FC02A90020FDF710
:10ABD000F1FF321C194902A803F068FC02A9002009
:10ABE000FDF7E8FF231C009602A815492A1C03F074
:10ABF0005DFC14480378002B14D1134C0122211C56
:10AC0000FDF7E8FA051E15D102A803F079FC02A9A8
:10AC1000021C0E4800F00AFA281C211C0122FDF734
:10AC2000D9FA07E002A803F06BFC02A9021C07484E
:10AC300000F0FCF922B070BD2DF301007AF30100A1
:10AC400054F301001434002022EF01007EF30100D0
:10AC500000B5A1B06846094903F04AFC69460020E6
:10AC6000FDF7A8FF064802F0DBFDBFF34F8F054A52
:10AC7000054BDA60BFF34F8FFEE7C0468AF3010051
:10AC8000881300000400FA0500ED00E0031C00B585
:10AC90000A1CA1B0191C0B48FFF78CFF68460A4933
:10ACA00003F026FC69460020FDF784FF074802F008
:10ACB000B7FDBFF34F8F064A064BDA60BFF34F8FE5
:10ACC000FEE7C046EFBEADDEB4F30100881300001E
:10ACD0000400FA0500ED00E008B55221014AFFF733
:10ACE00069FF08BDEDF3010010B50478A0B0002C99
:10ACF00007D10549684603F0FBFB201C6946FDF7B8
:10AD000059FF20B010BDC046F7F3010010B5A6B042
:10AD100001ACFBF7FFFB201C0021142203F00EFB0B
:10AD2000A023201C2382FFF786FE041E04D0782176
:10AD3000094AFFF73FFF0CE0084906A803F0D8FBDB
:10AD400006A9201CFDF736FF1D200A21FF22FEF771
:10AD5000ADF826B010BDC046EDF3010038F4010097
:10AD600010B5041C0088A0B01038092841D802F0A2
:10AD7000B7FE0517384040404040402F1E49684606
:10AD800003F0B6FB69460020FDF714FF1D20FEF717
:10AD900075F81D20FEF75CF8A288184B1A8028E091
:10ADA0000123164C5B4268461549238003F0A0FB43
:10ADB00069460020FDF7FEFE1D20FEF75FF82288A1
:10ADC000104B00201A81FCF727FAFFF79FFF10E0D5
:10ADD000A479002C0DD168460B4903F089FB201C97
:10ADE00004E06846094903F083FB00206946FDF74B
:10ADF000E1FE20B010BDC04649F40100BC20002097
:10AE000062F40100783300207EF40100A3F4010015
:10AE100008B5002A04D0101CF821024AFFF7CAFE28
:10AE2000002008BDEDF3010010B5041C02F018FA73
:10AE3000201CFFF795FF201C00F048FF0248211C52
:10AE4000FFF78EFD10BDC0467833002008B501F035
:10AE5000CBFC08BD10B50C1CA0B02F49684603F010
:10AE600047FB69460020FDF7A5FEFBF7B5FC2078FF
:10AE7000052847D802F034FE03142946463B274BE9
:10AE800027490133DA7F684603F010FB694600204A
:10AE9000FDF790FEFBF7E6FD9A21002832D024E072
:10AEA0001E4B204936331A78684603F0FFFA69468C
:10AEB0000020FDF77FFEFBF7D5FC002822D03C21C7
:10AEC000FF31194AFFF776FE1CE0144B17494C334B
:10AED0001A78684603F0EAFA69460020FDF76AFE30
:10AEE000FBF7A4FE00280DD0A8214900E9E70B4B91
:10AEF0000F4972331A78684603F0D8FA0020694681
:10AF0000FDF758FE0020FCF787F90020094A011CD4
:10AF100002F0C0FC20B010BD58F5010078330020CD
:10AF200069F5010094F50100EDF30100BDF50100A4
:10AF3000E7F501007167010008B5FBF71BFE00286B
:10AF400004D076210C4AFF31FFF734FEFBF716FDE3
:10AF5000002804D0BD21084A4900FFF72BFEFBF76B
:10AF6000EDFE002804D0C221034A4900FFF722FE6B
:10AF70000020FCF751F908BDEDF30100C0230249A0
:10AF8000024ADB00D15070473546526E0000014046
:10AF900008B5FBF745FC08BD08B5FFF751FDFFF705
:10AFA000B5FE00200A4A011C02F074FC094B0A4954
:10AFB0001868002201F0E0F902F002FDFFF73DFD04
:10AFC0000028F9D0A821054AFF31FFF7F3FDF3E788
:10AFD0007167010074330020AB2A0000EDF301001B
:10AFE0000021704700B50D4BA1B0984208D16846CA
:10AFF0000B4903F07DFA69460020FDF7DBFD0AE00E
:10B000000823021C9A4306D0064B984203D0142111
:10B01000054AFFF7CFFD21B000BDC0460430000057
:10B0200010F60100013400002AF6010070B5041C7E
:10B030008AB00E1C151C01A8211C1222FDF7F2F883
:10B04000002806D101A80499FDF724FB002815D19A
:10B0500007E001A8211C0222FDF7E4F80028F1D046
:10B060000CE00090311C01A82A1C6B46FDF70CFA7D
:10B07000002803D101A8FDF700FB01E08020400279
:10B080000AB070BD031C70B5C0B00D1C6846191C19
:10B0900003F00CFA15480378002B1CD1144E012242
:10B0A000311CFDF797F8041E1DD120A8114903F0AB
:10B0B0001FFA20A9201CFDF77DFD684603F020FA49
:10B0C0006946021C281CFFF7B1FF201C311C01221D
:10B0D000FDF780F807E0684603F012FA6946021CA3
:10B0E000281CFFF7A3FF002040B070BD14340020DF
:10B0F00022EF01009BF1010082B00190C046C046E2
:10B10000C046C046C046C046C046C046C046C0460F
:10B11000C046C046C046C046019B013B0193002B80
:10B12000ECD102B070470000A023F0B5284FDB003F
:10B13000FA5885B00092A0240022264EFA50E40569
:10B14000A359254A0193E023A251DB00E1580125D0
:10B150000291E2500222F93BFF3BE5500420E2500D
:10B16000FFF7CAFFA223DB00E2580397371C2A42ED
:10B1700006D0E3581324EB402B4202D0012018E004
:10B180001324013C002C13D0A0250226134BED05FF
:10B19000EE500420FFF7B0FFA123DB00EE500420A7
:10B1A000FFF7AAFFA223DB00EB58DB07E9D5E5E7B1
:10B1B000201CA023019ADB05DA51E0220299D2007B
:10B1C0009950A023039A0099DB00D15005B0F0BD3F
:10B1D00000400040040700000D0600000C050000C0
:10B1E00038B5A023124A1349DB055A5004395A5086
:10B1F000114B0022191CFC31CA600A62A1210120F6
:10B200000E4CC90058501A51CC240D4A64049C506D
:10B21000A2240C4A0C4DE40015510C4D0C4C155158
:10B220005050A0220521D2009950FFF77DFF38BD74
:10B230000C06000004070000004000400C05000060
:10B240002405000000F00140384100401C4000404F
:10B2500014050000F0B585B0071C0E1C0192029386
:10B26000002A01D1002099E0FFF75EFF0028F9D005
:10B27000B1234B4C7A08DB00E2500122494D1742C2
:10B280004BD0019B484F934201D1484B00E0484BC3
:10B29000484ABB500123484ABB500022EA60236061
:10B2A000464B0293EB68002B08D13E4B9B6A002B68
:10B2B00004D1029B013B0293002BF3D10023EB60EE
:10B2C000029B002B41D0374B9B6A002B3DD1731C56
:10B2D0000393A323324ADB00D3583370019B013B15
:10B2E000DBB20193012B03D1304B324ABB5002E059
:10B2F000019B002B06D01420FFF7FEFE01232362E2
:10B30000039ECFE7AB68002BFCD00022254B012029
:10B310009A60A123DB00F85040E03078284B711C84
:10B32000E050A260254A286A002807D11D48806A9B
:10B33000002803D1013A002AF5D106E0002A04D002
:10B34000AF6A1748174E002F10D00026AE62A02516
:10B350001C4FED0066510520E651FFF7CDFE01239D
:10B36000E35104336351FFF73BFF7BE73762019FF3
:10B37000013FFFB20197002F03D00E780131C65074
:10B38000D1E7029B002B01D1012007E0019BB360B4
:10B3900001234361AB68002BFCD0F5E705B0F0BD9D
:10B3A00000400040FC40004000F0014014400040DC
:10B3B0001C4000401405000004050000204E000061
:10B3C0001C050000FC0F0000A0DF7047A2DF7047E3
:10B3D000F0B591B001900F1C151C1C1C002904D164
:10B3E000081C1B4A6D21FFF7E5FB002D04D1281C2A
:10B3F0006E21174AFFF7DEFB09AE301C00211C222C
:10B4000002F09CFF012202A98A710A1C69460223EC
:10B41000898833709180227802A90A70627804AC1E
:10B420004A708B70201C0021142202F087FF03ABAE
:10B43000049302AB6360074B311C1888221C169BD7
:10B440002581A5812761FFF7C1FF11B0F0BDC0467E
:10B45000B0F60100EC2F002030B5041C01205A4D3D
:10B4600087B05A4B03A92A1C88700B80FFF7ACFFEA
:10B47000002800D0A5E02288002A03D12289002AD2
:10B4800017D00AE0AB1C0093231C514861683C3381
:10B49000FFF79EFF0028F1D093E02B1C0A330093A6
:10B4A000231C4C48E1683C33FFF792FF002800D092
:10B4B00087E0228A002A0AD02B1C12330093231C17
:10B4C000454861693C33FFF783FF002879D1228B1F
:10B4D000002A0AD02B1C1A330093231C3F48E16931
:10B4E0003C33FFF775FF00286BD1228C002A0AD06D
:10B4F0002B1C22330093231C3948616A3C33FFF72D
:10B5000067FF00285DD1228D002A0AD02B1C2A3328
:10B510000093231C3348E16A3C33FFF759FF0028AE
:10B520004FD1236B002B1CD01A7804A90A705A78CB
:10B530002D484A709A788A701A68120ECA701A7961
:10B540000A719B681A0A4B711B0CCB712B1C32338E
:10B550008A710093231C08223C33FFF739FF00282F
:10B560002FD1636B002B03D1A06B00280DD128E0F5
:10B57000291C3A311A7900911968231C1B483C3365
:10B58000FFF726FF0028EFD01BE0037804A90B701B
:10B59000438842354B701B0A8B7083880722CB701F
:10B5A0001B0A0B71C38812484B711B0A8B71231C39
:10B5B00000953C33FFF70CFF031C0020834200D0B2
:10B5C000181C07B030BDC046EC2F00200A18000040
:10B5D000292A0000242A0000252A0000272A00002A
:10B5E000262A0000282A0000232A00002A2A000018
:10B5F000502A000038B5041C081C0D1C02F080FF06
:10B600006560208038BD26DF704751DF704710DF4E
:10B61000704761DF704708B5081C111CFFF736FB47
:10B6200008BD0000F0B5234D85B02B78002B3ED02F
:10B630006E68AC6873425E4163425C41F6B2E4B24C
:10B64000002E32D103A8FFF7E0FF05280AD000281A
:10B6500004D06921184AFFF7ADFA04E003986B683B
:10B66000984700E00126002C1CD1AB8903A90B8070
:10B670002B690124181C0193FFF7CBFF071E052F30
:10B680000BD0002805D080210B4AFFF793FA002445
:10B6900003E00198AB6898473C1C002ED0D0002CEA
:10B6A000CED004E0002E02D1CAE7002CDDD005B0D8
:10B6B000F0BDC04638300020FEF6010038B5051C4C
:10B6C0000720002910D08C070ED1084C281C2161BE
:10B6D0000749A2816361FFF79AFF002804D1012383
:10B6E00016302370FFF78FFF38BDC046383000207A
:10B6F00017B601000E23002802D0024B98600023E9
:10B70000181C7047383000200E23002802D0024B4E
:10B7100058600023181C70473830002008B5084BCB
:10B720005B69002B08D09847002807D09921054A6B
:10B730004900FFF73FFA01E0FFF774FF08BDC0467C
:10B7400038300020FEF6010072DF704779DF704765
:10B750007DDF704765DF7047F0B50024061C251CAF
:10B7600087B00C9F00933B7803910292019333883A
:10B770009D423ADA7368A9005918042205A802F01C
:10B78000D4FD04AB05A8D91C0022FFF7E3FF002875
:10B7900035D104ABDB78029A934222D162426241F6
:10B7A00002993B78520059188A181F2A1BDC002C7A
:10B7B00007D169469A1C3A700133009A097BDBB2C3
:10B7C000D15404ABDC1C3A78009B05A89A18211CC4
:10B7D000FFF7C0FF002812D1237801243A78D3184C
:10B7E0003B700135C3E70C2009E00020844206D0FD
:10B7F0003B78019A013B9B1A0199009A535407B078
:10B80000F0BDF7B5089E171C00960222051C1C1CF3
:10B81000FFF7A2FF002806D10096281C391C102231
:10B82000231CFFF799FFFEBD0023F0B513700378CA
:10B8300089B0061C0D1C141C002B03D1B378002BFF
:10B840004BD029E043780C201D2B00DD61E10E2751
:10B8500004ABFF181D23881C391C3B80FFF778FFC1
:10B86000002800D055E13378022B03D13B88092210
:10B870001D2B08D97378002B03D09BB208221D2BF7
:10B8800001D908223B88DBB2591C29706A702278E2
:10B8900002329B182370D1E723780C201B2B00DD8C
:10B8A00037E10E2704ABFF18381CFFF74FFF0028C5
:10B8B00000D02EE123785A1C22700322EA54237808
:10B8C0005A1C22701922EA5423783A88EB181A700D
:10B8D000120A5A70237802332370B388002B1FD0CA
:10B8E000B2680720002A00D113E122780530911CAC
:10B8F000CB181F2B00DD0CE1531C2370B3880133E0
:10B90000AB5423785A1C22700122EA542078B28862
:10B910002818B16802F009FDB2882378D318237083
:10B92000F368002B12D01A7823780C201C2B00DD32
:10B93000EFE0591C21700221E9542378591C217031
:10B940000A21E9542378591C2170EA54338A002BC8
:10B9500003D1338B002B16D00AE0301C009410303A
:10B96000022106222B1CFFF74CFF0028F1D0D0E06B
:10B97000301C00941830032107222B1CFFF741FFD5
:10B98000002800D0C5E0338C002B0AD0301C009476
:10B990002030142115222B1CFFF733FF002800D084
:10B9A000B7E0B36A002B49D022780C20049206320B
:10B9B0001F2A00D9ADE019880538052900D8A8E06C
:10B9C000554A564F8A1892B2BA4200D8A1E05A8816
:10B9D0000392052A00D89CE04F4FBC46944467462A
:10B9E00002AA97819789BC464C4FBC4500D890E08D
:10B9F0004B4FB94205D0039ABA4202D0914200D9C6
:10BA000087E0049A04990132227005226A54227850
:10BA1000511C21701221A95422781988AA1811707A
:10BA2000090A517022780232D2B222705988AB18BA
:10BA30001970090A5970237802332370F76A002FAE
:10BA400029D03A792178931C881CDBB2C3180C20CA
:10BA50001F2B5EDC4B1C033223706A5423785A1C64
:10BA60002270FF22EA5423783A88EB181A70120ADF
:10BA70005A7023780233DBB22370BA88002A0AD0C6
:10BA8000B9680538002944D0E81802F04EFCBA889D
:10BA90002378D3182370331C343305931B78002B81
:10BAA00001D1002035E0336B002B31D0002304930B
:10BAB000059B049A1B789342F3D90C27049B2278A8
:10BAC0005F43336B511CDF193B7921700333AB5457
:10BAD00023785A1C22701622EA5423783A88EB18ED
