:020000021000EC
:10600000004000200D68020055680200E1710100A7
:106010000000000000000000000000000000000080
:1060200000000000000000000000000059680200AD
:1060300000000000000000005B6802005D680200D4
:106040005F6802005F6802005F6802005F6802002C
:106050005F680200000000002D5E02005F68020021
:106060005F6802005F680200519C01005F680200E7
:106070005F6802005F6802005F6802005F680200FC
:106080005F6802006D2F02005F6802005F68020017
:10609000B92F02005F680200E11102005F68020090
:1060A0005F6802005F68020000000000000000005E
:1060B00000000000000000000000000000000000E0
:1060C000164B002B00D1144B9D46402292029A1A87
:1060D000924600218B460F461348144A121A10F0BC
:1060E000E3FF0F4B002B00D098470E4B002B00D046
:1060F00098470020002104000D000D48002802D020
:106100000C4800E000BF10F091FF2000290001F0D2
:1061100059FC10F075FFC046000008000040002048
:10612000000000000000000028210020B4360020FC
:106130000000000000000000A0DF7047181CC046EF
:10614000A2DF7047181CC046A4DF7047181CC04669
:10615000A6DF7047181CC04663DF7047181CC04696
:1061600080B582B000AF786039603B689A887B6800
:106170001A81BD4602B080BD80B582B000AF7860A4
:1061800039607B68012252421A81BD4602B080BD4F
:1061900080B58CB000AF786039603B680633FB6235
:1061A000FB6A1A887B689B8A9A421FD1FB6A1B8B09
:1061B000012B1BD17B681B68002B17D02423FB18F5
:1061C00000221A702423FB183A685A60FB6A9B7EEF
:1061D0007A68101C191C002200F000FF7B681B6805
:1061E00079682422BA18081C111C9847FB6A1A887F
:1061F0007B685B8D9A421FD1FB6A1B8B012B1BD1E5
:106200007B681B68002B17D01C23FB1801221A7017
:106210001C23FB183A685A60FB6A9B7E7A68101C44
:10622000191C012200F0DAFE7B681B6879681C22C9
:10623000BA18081C111C9847FB6A1A887B68402111
:106240005B5A9A421FD1FB6A1B8B012B1BD17B68C7
:106250001B68002B17D01423FB1802221A7014237A
:10626000FB183A685A60FB6A9B7E7A68101C191CFE
:10627000022200F0B3FE7B681B6879681422BA180A
:10628000081C111C9847FB6A1A887B6856215B5AC8
:106290009A421FD1FB6A1B8B012B1BD17B681B68A9
:1062A000002B17D00C23FB1805221A700C23FB18A7
:1062B0003A685A60FB6A9B7E7A68101C191C05229A
:1062C00000F08CFE7B681B6879680C22BA18081CE9
:1062D000111C9847BD460CB080BDC04680B582B049
:1062E00000AF786039603B681B88112B0BD0502BB6
:1062F00010D0102B00D014E07A683B68101C191CD9
:10630000FFF72EFF0DE07A683B68101C191CFFF7A1
:1063100033FF06E07A683B68101C191CFFF738FF52
:10632000C046BD4602B080BD80B594B000AF786075
:1063300039600023FB647B689B7A002B33D04823B1
:10634000FB18181C0021032210F0AEFE4823FB1896
:106350001A780F218A43111C01220A431A7048231C
:10636000FB181A780F210A40111C10220A431A70D8
:106370004823FB185A780F218A43111C01220A4333
:106380005A704823FB185A780F210A40111C10221A
:106390000A435A704823FB189A7806218A43111C35
:1063A00002220A439A702C23FB18181C00211C227D
:1063B00010F07AFE2C23FB181A7802210A431A7077
:1063C0007B689B7A1A1C01231340DAB22C23FB183A
:1063D00001210A4010011A7810218A43111C021C65
:1063E0000A431A702C23FB181A7808218A431A7062
:1063F0002C23FB181A7804218A431A702C23FB18CB
:1064000000225A602C23FB180022DA602C23FB1890
:1064100000221A617B689B7A002B02D04823FA186D
:1064200000E000222C23FB185A612C23FB180022C9
:106430009A612C23FB185A7802218A435A7014233C
:10644000FB18181C0021032210F02EFE1423FB1849
:106450001A780F218A43111C01220A431A7014234F
:10646000FB181A780F210A40111C10220A431A70D7
:106470001423FB185A780F218A435A701423FB18EF
:106480005A780F210A405A701423FB189A78062173
:106490008A43111C02220A439A701423FB189A782B
:1064A00008218A439A701423FB189A7810218A4392
:1064B0009A701423FB189A7801210A439A701023CA
:1064C000FB18181C0021032210F0EEFD1023FB180E
:1064D0001A780F218A43111C01220A431A701023D3
:1064E000FB181A780F210A40111C10220A431A7057
:1064F0001023FB185A780F218A43111C01220A43EA
:106500005A701023FB185A780F210A40111C1022D0
:106510000A435A701023FB189A7806218A43111CEB
:1065200002220A439A701023FB189A7808218A43A2
:106530009A701023FB189A7810218A439A701023BE
:10654000FB189A7801218A439A701823FB18181CAB
:106550000021142210F0A8FD7B689A790C23FB1807
:106560009A700C23FB18E34A1A801823FB180C229C
:10657000BA181A601823FB181422BA185A60182384
:10658000FB1804221A811823FB1800225A811823B1
:10659000FB1804229A817B681C331A1C1823FB18F1
:1065A0001A612C23FB181A7808218A431A702C23AD
:1065B000FB181A7804218A431A707B6898887B68D4
:1065C0000C332C22B9181822BA18FFF7B9FD031C96
:1065D000FB64FB6C002B01D0FB6C2EE27B689A798C
:1065E0000C23FB189A700C23FB18C34A1A8018233B
:1065F000FB180C22BA181A601823FB181022BA18BC
:106600005A601823FB1801221A811823FB18002254
:106610005A811823FB1801229A817B6820331A1CA7
:106620001823FB181A612C23FB181A7808210A4337
:106630001A702C23FB181A7804210A431A707B68FD
:1066400098887B6814332C22B9181822BA18FFF7DF
:1066500077FD031CFB64FB6C002B01D0FB6CECE1B1
:106660007B689A790C23FB189A700C23FB18A34AB9
:106670001A801823FB180C22BA181A601823FB186A
:106680001422BA185A601823FB1804221A811823FE
:10669000FB1800225A811823FB1804229A817B6878
:1066A00032331A1C1823FB181A612C23FB181A7892
:1066B00008218A431A702C23FB181A7804218A4374
:1066C0001A707B6898887B6822332C22B9181822AC
:1066D000BA18FFF735FD031CFB64FB6C002B01D0DF
:1066E000FB6CAAE17B689A790C23FB189A700C2347
:1066F000FB18834A1A801823FB180C22BA181A6058
:106700001823FB181022BA185A601823FB1801220C
:106710001A811823FB1800225A811823FB18012222
:106720009A817B6836331A1C1823FB181A612C23B4
:10673000FB181A7808210A431A702C23FB181A78C0
:1067400004210A431A707B6898887B682A332C22BC
:10675000B9181822BA18FFF7F3FC031CFB64FB6C92
:10676000002B01D0FB6C68E17B689A790C23FB1845
:106770009A700C23FB18634A1A801823FB180C220A
:10678000BA181A601823FB181422BA185A60182372
:10679000FB1804221A811823FB1800225A8118239F
:1067A000FB1804229A817B6848331A1C1823FB18B3
:1067B0001A612C23FB181A7808218A431A702C239B
:1067C000FB181A7804218A431A707B6898887B68C2
:1067D00038332C22B9181822BA18FFF7B1FC031C61
:1067E000FB64FB6C002B01D0FB6C26E17B689A7983
:1067F0000C23FB189A700C23FB18434A1A801823A9
:10680000FB180C22BA181A601823FB181022BA18A9
:106810005A601823FB1801221A811823FB18002242
:106820005A811823FB1801229A817B684C331A1C69
:106830001823FB181A612C23FB181A7808210A4325
:106840001A702C23FB181A7804210A431A707B68EB
:1068500098887B6840332C22B9181822BA18FFF7A1
:106860006FFC031CFB64FB6C002B01D0FB6CE4E0B1
:106870007B689A790C23FB189A700C23FB18234A27
:106880001A801823FB180C22BA181A601823FB1858
:106890001422BA185A601823FB1814221A811823DC
:1068A000FB1800225A811823FB1814229A817B6856
:1068B0005E331A1C1823FB181A612C23FB181A7854
:1068C00008218A431A702C23FB181A7804218A4362
:1068D0001A707B6898887B684E332C22B91818226E
:1068E000BA18FFF72DFC031CFB64FB6C002B0FD0C8
:1068F000FB6CA2E0331100003411000035110000E0
:10690000361100003711000038110000431100005B
:106910007B689A790C23FB189A700C23FB18494A60
:106920001A801823FB180C22BA181A601823FB18B7
:106930001022BA185A601823FB1801221A81182352
:10694000FB1800225A811823FB1801229A817B68C8
:1069500072331A1C1823FB181A612C23FB181A789F
:1069600008210A431A702C23FB181A7804210A43C1
:106970001A707B6898887B6856332C22B9181822C5
:10698000BA18FFF7DDFB031CFB64FB6C002B01D086
:10699000FB6C52E02C4B00221A707B680C331A1CE3
:1069A000294B5A607B6814331A1C274B9A607B680A
:1069B0001C331A1C244BDA60234B01221A747B68A7
:1069C00022331A1C204B5A617B682A331A1C1E4B37
:1069D0009A617B6832331A1C1B4BDA611A4B2022F6
:1069E000022199547B6838331A1C174B5A627B6812
:1069F00040331A1C144B9A627B6848331A1C124BA2
:106A0000DA62114B3022032199540F4B40220421AA
:106A100099540D4B5022052199547B684E331A1C12
:106A2000094B5A657B6856331A1C074B9A657B687D
:106A30005E331A1C044BDA65FB6C181CBD4614B09F
:106A400080BDC046441100002821002090B58BB0C5
:106A500000AF786039603B681A687B681A607B68B1
:106A6000012252421A813B681A797B689A72272365
:106A7000FB1800221A700DE02723FB181B787A6898
:106A8000D318FF221A772723FB181A782723FB181D
:106A900001321A702723FB181B78032BECD93B68B3
:106AA00059797B68202299542623FB1800221A70FA
:106AB0000FE02623FB181B787A683021D3185B1867
:106AC000FF229A702623FB181A782623FB1801321E
:106AD0001A702623FB181B78032BEAD93B68997997
:106AE0007B68362299542523FB1800221A700FE088
:106AF0002523FB181B787A684821D3185B18FF22DE
:106B00001A702523FB181A782523FB1801321A70F6
:106B10002523FB181B78032BEAD93B68D9797B68BE
:106B20004C2299542423FB1800221A700FE02423CE
:106B3000FB181B787A685821D3185B18FF229A71CA
:106B40002423FB181A782423FB1801321A702423FB
:106B5000FB181B78132BEAD93B68197A7B687222E1
:106B600099540C23FB18204A13CA13C312681A60E5
:106B70007B6806330C22BA18101C191CFFF7ECFABC
:106B8000031C3B623B6A002B01D03B6A27E07B6819
:106B90009A791C23FB189A701C23FB188922520136
:106BA0001A807B6804331C22BA180120111C1A1C9D
:106BB000FFF7C2FA031C3B623B6A002B01D03B6A21
:106BC0000DE07A683B68101C191CFFF7ADFB031C35
:106BD0003B623B6A002B01D03B6A00E00023181C9B
:106BE000BD460BB090BDC046FC78020080B58CB0AD
:106BF00000AFF860B960191CFB1D1A70BB1D0A1CA0
:106C00001A700023FB620023BB6275E03F4BBA6A37
:106C10001201D35CBA1D12789A426AD1FB1D1B780F
:106C20009AB22223FB181A8000237B620FE0374AB6
:106C3000BB6A1B01D31808335A687B6AD3187A6A77
:106C4000B9688A1812781A707B6A01337B62FB1D5F
:106C50001A787B6A9A42EADC2C4ABB6A1B01D31879
:106C60005B6819882223FA18BB68081C0021FFF70B
:106C70006BFA031CFB62FB6A002B01D0FB6A41E04C
:106C8000FB681B89224A93422FD0FB689B7A002B1A
:106C90002BD01023FB18181C0021102210F004FA2E
:106CA0001A4ABB6A1B01D3185B681A881023FB18A9
:106CB0001A801023FB1801229A701023FB1800225F
:106CC0009A801023FB182222BA189A601023FB180E
:106CD000BA68DA60FB681A891023FB18101C191CAB
:106CE000FFF736FA031CFB6201E00823FB62FB6A34
:106CF00008E0BB6A0133BB62BB6A062B86DD052355
:106D0000FB62FB6A181CBD460CB080BD2821002028
:106D1000FFFF000090B5B5B000AF78600023C82237
:106D2000BA1813609F4B1B78002B00D01BE19D4AC3
:106D30009D4B101C191C012207F0A0F9031E00D066
:106D400001E10C23FB18994A13CA13C31168196097
:106D500092889A800C23FB180020191C08F090FBE5
:106D6000A423FA18924B101C191C012207F0D0F929
:106D7000031E0ED00C23FB188E4A13CA13C31268CD
:106D80001A600C23FB180020191C08F079FB002363
:106D900004E1894B1B681C1C0C23FA18874B101C40
:106DA000191C221C10F038FA0C23FB180020191CA7
:106DB00008F066FB804B1B68A422BA18101C191C33
:106DC00007F08AFEA423F9189023FA188C23FB18E5
:106DD000081C111C142207F01BFB8C23FB181B68DA
:106DE0000C22B918764A081C111C1A1C10F014FA4F
:106DF0000C23FB180020191C08F042FB8C23FB1805
:106E00001B68132B44D86C4B00221A608C23FB1890
:106E10001B68002B1AD07A689023FB18101C191CD1
:106E200014220523FFF7E2FE0C23FB18654A13CA60
:106E300013C303CA03C31188198092789A700C2374
:106E4000FB180020191C08F01BFB70E09023FB18B6
:106E50005D4A13CA13C303CA03C37A689023FB189D
:106E6000101C191C14220523FFF7C0FE0C23FB186D
:106E7000544A13CA13C303CA03C3118819809278F2
:106E80009A700C23FB180020191C08F0F9FA4EE048
:106E90000023CC22BA1813600C23FB180A221A8094
:106EA0000C23FB180020191C08F0EAFA9023FA18AA
:106EB000CC23FB181B68D3181B781C1C0C23FA1856
:106EC000424B101C191C221C10F0A6F90C23FB18B5
:106ED0000020191C08F0D4FACC23FB181B680133DE
:106EE000CC22BA181360CC23FB181A688C23FB1829
:106EF0001B689A421AD9C0460C23FB180A221A8032
:106F00000C23FB180020191C08F0BAFA2A4B1B6846
:106F100014331A1C284B1A607A689023FB18101C33
:106F2000191C14220523FFF761FE00E0BEE7A4232D
:106F3000FB18181C07F0A8FD1B4B0020191C012290
:106F400007F09CF81CE00C23FB18214A13CA13C35A
:106F50001168196092889A800C23FB180020191C74
:106F600008F08EFA0CE00C23FB181A4A13CA13C35C
:106F700012681A600C23FB180020191C08F080FA14
:106F80000C23FB18144A13CA13C30C23FB1800204C
:106F9000191C08F075FAC823FB181B68181CBD469D
:106FA00035B090BD203300200C790200107902002A
:106FB00024790200307902009821002040790200F3
:106FC0004C7902005C790200A87902007479020011
:106FD000787902008C7902009C79020080B584B037
:106FE00000AF7860081C111CFB1C021C1A70BB1C33
:106FF0000A1C1A700A23FB1801221A800023FB6066
:10700000BB1C1B78012B19D002DC002B05D04EE0F5
:10701000022B24D0052B34D049E0FB1C19787B6867
:10702000202299547B68998A0A23FA18FB1C081CB1
:107030000021FFF789F8031CFB6038E0FB1C19787E
:107040007B68362299547B68598D0A23FA18FB1CF9
:10705000081C0021FFF778F8031CFB6027E0FB1CED
:1070600019787B684C2299547B684022995A0A23EC
:10707000FA18FB1C081C0021FFF766F8031CFB60D4
:1070800015E0FB1C19787B68722299547B685622A4
:10709000995A0A23FA18FB1C081C0021FFF754F820
:1070A000031CFB607B68181CFFF734FEC046FB68BE
:1070B000181CBD4604B080BD80B500AFBFF34F8F34
:1070C000024B034ADA60BFF34F8FFEE700ED00E0AA
:1070D0000400FA0580B582B000AF7860A023DB051C
:1070E0007A68012191400A1C02495A50BD4602B0FB
:1070F00080BDC0460C05000073DF7047181CC046F9
:1071000040DF7047181CC04690B5C7B002AFF860AA
:10711000B9607A601023F8182B49FA68BB6810F040
:107120007BF81023FB180020191C08F0A9F9102384
:10713000F918264A7B68081C111C1A1C10F06CF800
:107140001023FB180020191C08F09AF99023F81856
:107150001F49FA68BC687B680093231C10F05CF838
:107160001C4B1B78002B1DD11A4A1B4B101C191CE1
:10717000012206F083FF031E22D19023FB18181C66
:1071800010F06CF8041C154A9023FB18101C191CF5
:10719000221C01F011FB104B0020191C012206F0EB
:1071A0006DFF0DE09023FB18181C10F057F8041C1D
:1071B0000A4A9023FB18101C191C221C01F0FCFA2F
:1071C000BD4645B090BDC046CC790200F4790200BE
:1071D000F879020020330020247A0200287A020085
:1071E00090B5A1B000AF3B1C0C4A13CA13C313CA1D
:1071F00013C313CA13C31168196092889A803B1C89
:107200000020191C08F03CF9054B181C0FF05CF825
:10721000FFF752FFBD4621B090BDC046347A020050
:107220008813000080B5A2B000AF021C3960BB1DFE
:107230001A80BB1D1A8810493B68081C111C1A1CB7
:10724000FFF762FF0823FA180C4B111C1A1C392394
:10725000081C111C1A1C0FF01EFF0823FB1800202D
:10726000191C08F00DF9064B181C0FF02DF8FFF74C
:1072700023FFBD4622B080BDEFBEADDE607A0200C6
:107280008813000080B582B000AF78607A68044B44
:10729000101C52211A1CFFF737FFBD4602B080BDFB
:1072A0009C7A020080B5A2B000AF78607B681B7842
:1072B000002B10D10823FA18084B111C1A1C41236B
:1072C000081C111C1A1C0FF0E6FE0823FB180020F6
:1072D000191C08F0D5F8BD4622B080BDA87A02007E
:1072E00090B5A9B000AF00F06FFF8423FB18181C05
:1072F000002114220FF0D8FE8423FB1800221A70FC
:107300008423FB1800225A608423FB1800221A727F
:107310008423FB18A0221A828423FB1800225A829D
:107320008423FB18181CFFF7E7FE031C9C22BA18E5
:1073300013609C23FB181B689822BA1813609823CB
:10734000FB181B68002B08D09823FB181A68104BF9
:10735000101C78211A1CFFF7D7FE9C23FB181B6812
:10736000002B11D13B1D0B4A13CA13C311681960BE
:1073700012791A713B1D0020191C08F081F81D209C
:107380000A21FF2201F060FFBD4629B090BDC04632
:107390009C7A0200EC7A020090B5A3B000AF78604E
:1073A0007B681B88112B22D002DC102B05D067E0F4
:1073B000122B53D0192B3AD062E00823FB18324A23
:1073C00013CA13C313CA13C312781A700823FB1805
:1073D0000020191C08F054F81D2001F0B1FD1D20FB
:1073E00001F090FD7B689A88284B1A8048E0274B73
:1073F000012252421A800823FB18254A13CA13C3DC
:1074000013CA13C312681A600823FB180020191C42
:1074100008F036F81D2001F093FD1C4B1A881D4B17
:107420001A81002001F03CFCFFF75AFF28E07B683E
:107430009B79002B11D10823FB18174A13CA13C3D9
:1074400013CA13C313CA13C312781A700823FB1884
:107450000020191C08F014F812E011E00823FB18B2
:107460000E4A13CA13C313CA13C303CA03C3127841
:107470001A700823FB180020191C08F001F8C046F8
:10748000BD4623B090BDC046007B02000020002016
:107490001C7B0200D0350020387B0200607B02009C
:1074A00080B586B000AFF860B9607A607B687B61B8
:1074B0007B69002B08D0796980235A00054B081C92
:1074C000111C1A1CFFF720FEC0460023181CBD46E5
:1074D00006B080BD9C7A020080B582B000AF7860B3
:1074E0007B68181C0DF0FEFF7B68181CFFF754FF2B
:1074F0007B68181C0AF02CFE044A7B68101C191CBF
:10750000FEF7ECFEBD4602B080BDC046D03500207F
:1075100080B582B000AF7860BD4602B080BDC04685
:1075200080B582B000AF78607B68181C0CF074F8EE
:107530007B68181CFFF7ECFFBD4602B080BDC0465B
:1075400090B5A7B000AF786039600C23FB185E4A95
:1075500013CA13C31168196012791A710C23FB182E
:107560000020191C07F08CFF01F0AAF83B681B787B
:10757000012B33D002DC002B06D098E0022B58D030
:10758000052B00D180E092E0504B20229B5C1C1C1C
:107590000C23FA184E4B101C191C221C0FF03CFE39
:1075A0000C23FB180020191C07F06AFF08F0EEFA04
:1075B000031C9422BA1813609423FB181B68002B39
:1075C0000BD09423FB1819689E235A00414B081CCA
:1075D000111C1A1CFFF798FD69E068E03B4B36224E
:1075E0009B5C1C1C0C23FA183B4B101C191C221C06
:1075F0000FF012FE0C23FB180020191C07F040FFAF
:1076000008F01CF9031C9022BA1813609023FB1891
:107610001B68002B0CD09023FB1819684423FF3300
:107620001A1C2C4B081C111C1A1CFFF76DFD3EE0A8
:107630003DE0264B4C229B5C1C1C0C23FA18274B6C
:10764000101C191C221C0FF0E7FD0C23FB18002056
:10765000191C07F015FF07F051FF031C8C22BA1804
:1076600013608C23FB181B68002B0CD08C23FB1899
:1076700019686023FF331A1C164B081C111C1A1CB6
:10768000FFF742FD13E012E0104B72229B5C1C1CC2
:107690000C23FA18124B101C191C221C0FF0BCFDF5
:1076A0000C23FB180020191C07F0EAFEC04600203E
:1076B00001F0F6FA0B4B002000211A1C0EF0EAFE36
:1076C000BD4627B090BDC0461C7C0200D0350020CE
:1076D000307C02009C7A02005C7C0200887C020004
:1076E000B47C0200C585010080B586B000AF78602B
:1076F00008F054FB031C7B617B69002B08D079697F
:10770000C2235A00164B081C111C1A1CFFF7FCFC64
:1077100008F0A0F9031C3B613B69002B09D03969D3
:107720008A23FF331A1C0E4B081C111C1A1CFFF76E
:10773000EBFC07F0E7FF031CFB60FB68002B09D0A4
:10774000F9689423FF331A1C054B081C111C1A1CE2
:10775000FFF7DAFC002001F0A3FABD4606B080BDB9
:107760009C7A020080B582B000AF7860034AC023E3
:10777000DB000349D150BD4602B080BD000001408E
:107780003546526E80B582B000AF786001F0B8F82F
:10779000BD4602B080BDC04680B582B000AFFFF7E5
:1077A000AFFC031C7B607B683B603B68002B09D00F
:1077B0003968BC23FF331A1C044B081C111C1A1C0B
:1077C000FFF7A2FCBD4602B080BDC0469C7A020015
:1077D00090B5A1B000AF00F0DFF93B1C6B4A13CAB3
:1077E00013C31168196012791A713B1C0020191C0F
:1077F00007F046FE00F0FEF93B1C654A03CA03C3CE
:107800001188198092789A703B1C0020191C07F08F
:1078100037FE00F0FFF93B1C5E4A13CA13C312780F
:107820001A703B1C0020191C07F02AFE00F08AFE8B
:107830003B1C594A13CA13C303CA03C33B1C002091
:10784000191C07F01DFE00F063FA3B1C534A13CAD3
:1078500013C312781A703B1C0020191C07F010FE8D
:1078600000F0A2FA3B1C4E4A13CA13C312681A60F6
:107870003B1C0020191C07F003FE00F025FB3B1CFD
:10788000484A13CA13C303CA03C312781A703B1CB5
:107890000020191C07F0F4FD00F034FB3B1C424AA9
:1078A00013CA13C31168196012791A713B1C0020A6
:1078B000191C07F0E5FD00F09FFB3B1C3B4A13CA77
:1078C00013C313CA13C312881A803B1C0020191C4F
:1078D00007F0D6FD00F0F4FB3B1C354A13CA13C376
:1078E0001188198092789A703B1C0020191C07F0AF
:1078F000C7FD00F069FC3B1C2E4A13CA13C3116874
:10790000196092889A803B1C0020191C07F0B8FD72
:1079100000F09CFC3B1C284A13CA13C31168196071
:1079200092889A803B1C0020191C07F0A9FD00F0EA
:10793000CFFC3B1C214A13CA13C3116819609188FC
:10794000998092799A713B1C0020191C07F098FDD0
:1079500000F04AFD3B1C1A4A13CA13C31168196090
:107960009188998092799A713B1C0020191C07F02C
:1079700087FD1C20FFF7AEFB1D20FFF7ABFB0020AF
:1079800001F0ECF8BD4621B090BDC046F07C02008D
:10799000047D0200107D0200207D0200347D020083
:1079A000447D0200547D02006C7D0200807D020057
:1079B0009C7D0200AC7D0200C07D0200D47D0200EF
:1079C000E87D020080B500AFFFF702FFFFF788FCFB
:1079D000094B002000211A1C0EF05CFD074B1B68B0
:1079E000074A181C111C00220BF022FC0EF06CFE42
:1079F000FFF7D2FEFAE7C046C5850100CC3500206E
:107A0000AB2A0000B0B582B000AF021C3960FB1D8C
:107A10001A70FB1D1B787F2B2FD92D4CFB1D1B785B
:107A20001A1C0F231340083B9908294AFB1D1B7899
:107A3000181C0F230340083B9B0806339B00D318F8
:107A40005B68FA1D1278101C03220240D200101C41
:107A5000FF228240D2431A403B689B01FF20034033
:107A6000F81D0078051C03202840C00083401A43FD
:107A70008B1D9B00E3185A6026E0164CFB1D1B78FB
:107A80005BB29B081349FA1D127852B29208C032B9
:107A900092005258F91D0978081C03210140C900C1
:107AA000081CFF218140C94311403A689201FF2020
:107AB0000240F81D0078051C03202840C0008240C9
:107AC0000A43C0339B001A51BD4602B0B0BDC04648
:107AD00000ED00E000E100E080B582B000AF78602A
:107AE000A023DB057A68C132FF3292000321D15016
:107AF000BD4602B080BDC04680B582B000AF7860A0
:107B00000A1CFB1C1A70A023DB05FA1C12789200D9
:107B1000111C7A68C132FF329200D150BD4602B0CA
:107B200080BDC04680B582B000AF7860A023DA0582
:107B30007B6801219940A123DB00D150BD4602B0F2
:107B400080BDC04680B582B000AF7860A023DA0562
:107B5000A223DB00D2587B68DA40131C01221340B9
:107B6000181CBD4602B080BD77DF7047181CC046A8
:107B700078DF7047181CC0467ADF7047181CC04673
:107B80007CDF7047181CC04660DF7047181CC04679
:107B900068DF7047181CC04680B500AF1E20FFF795
:107BA0009BFF1E20FFF7BEFF15200321FFF7A4FF58
:107BB00009200121FFF7A0FF0B200321FFF79CFF05
:107BC0000A20FFF789FF0A20FFF7ACFF06200321F8
:107BD000FFF792FF02200321FFF78EFF032003210E
:107BE000FFF78AFF0420FFF777FF0720FFF774FFF6
:107BF000BD4680BD80B500AF1C20FFF76DFF1D2086
:107C0000FFF76AFF1C20FFF78DFF1D20FFF78AFF9B
:107C1000BD4680BD90B589B002AF334C00230093C0
:107C200002200A211522231C0BF0CCF9031C7B61D6
:107C30007B693B613B69002B06D03A692B4B101CDA
:107C40003D211A1CFFF760FA294A2A4B101C01211A
:107C50001A1C0BF075FA031CFB60FB68002B06D0A6
:107C6000FA68224B101C40211A1CFFF74DFA224AD9
:107C7000224B101C01211A1C0BF062FA031CBB6082
:107C8000BB68002B06D0BA68184B101C41211A1C87
:107C9000FFF73AFA1A4A1B4B101C01211A1C0BF071
:107CA0004FFA031C7B607B68002B06D07A680F4B71
:107CB000101C42211A1CFFF727FA134A134B101C01
:107CC00001211A1C0BF03CFA031C3B603B68002BA3
:107CD00006D03A68054B101C43211A1CFFF714FA12
:107CE000BD4607B090BDC046A82100200C7E020012
:107CF0006C360020E9760100503500205D8B0100D4
:107D00005835002065770100CC35002085770100CB
:107D100090B585B000AF1F4B0420191C0EF058F928
:107D2000031CFB60FB68BB60BB68002B06D0BA6815
:107D3000194B101C4B211A1CFFF7E6F906200321F2
:107D4000FFF760FE154A1649154C164B101C221CF5
:107D50000EF092F9031C7B607B68002B06D07A68DA
:107D60000D4B101C50211A1CFFF7CEF90B4B1B7842
:107D7000181C0EF0E5F9031C3B603B68002B06D095
:107D80003A68054B101C52211A1CFFF7BDF9BD467D
:107D900005B090BD802900200C7E020054350020E3
:107DA00040082000B18A010080B58CB000AF0123EB
:107DB000FB623B1D1A7801218A431A703E4B082052
:107DC000191C5022002309F09DF9031CBB62BB6AF9
:107DD0007B627B6A002B06D07A6A384B101C6121CB
:107DE0001A1CFFF791F93B1C181C002101220FF00F
:107DF0005BF93B1C1A7801218A431A703B1C181C42
:107E0000FFF7C2FE031C3B623B6AFB61FB69002B70
:107E100006D0FA69294B101C69211A1CFFF774F966
:107E2000274B181C09F0B4F9031C3B623B6ABB6189
:107E3000BB69002B06D0BA69204B101C6D211A1C9F
:107E4000FFF762F91F4B181C09F0B6F9031C3B62DF
:107E50003B6A7B617B69002B06D07A69174B101C4B
:107E600070211A1CFFF750F90420FFF77DFE031C58
:107E70003B623B6A3B613B69002B06D03A690F4B82
:107E8000101C73211A1CFFF73FF9FA6A3B1D101CE6
:107E9000191CFFF77DFE031C3B623B6AFB60FB681D
:107EA000002B06D0FA68054B101C76211A1CFFF730
:107EB0002BF9BD460CB080BDD02900200C7E0200FD
:107EC000D97401002175010080B582B000AF0B4B61
:107ED000082014211A1C0EF095FA031C7B607B68A5
:107EE0003B603B68002B06D03A68054B101C7D2197
:107EF0001A1CFFF709F9BD4602B080BD202A0020F8
:107F00000C7E020080B588B000AF0BF0E7FE031CCA
:107F1000FB61FB69BB61BB69002B06D0BA69334BBF
:107F2000101C8A211A1CFFF7EFF80220FFF70AFE47
:107F3000031C5A425341DAB20C23FB181A700C236B
:107F4000FB18181C0DF09AF8031CFB61FB697B61A0
:107F50007B69002B06D07A69244B101C90211A1CD7
:107F6000FFF7D2F83B1C0633181C002106220FF045
:107F70009BF83B1C1E22DA803B1C1A7A01210A4323
:107F80001A723B1C1A7A02218A431A723B1C1A7A13
:107F90001C218A43111C0C220A431A723B1C1A7AB8
:107FA00020218A431A723B1C07225A723B1C102262
:107FB0009A723B1C0E4A1A603B1C01221A710D4A30
:107FC0003B1C101C191C0DF00FF9031CFB61FB6915
:107FD0003B613B69002B06D03A69044B101C9F2182
:107FE0001A1CFFF791F8BD4608B080BD0C7E020058
:107FF000A17401005C35002080B588B000AF3B1D46
:108000001A780F218A431A703B1D1A780F210A40F3
:108010001A703A1D284B101C191C0522FFF7B0FDE1
:10802000031CFB61FB69BB61BB69002B06D0BA690D
:10803000224B101CB0211A1CFFF766F80020FFF736
:1080400097FD031CFB61FB697B617B69002B06D0FC
:108050007A691A4B101CB3211A1CFFF755F8082334
:10806000FB18181C002108220FF01EF80823FB182B
:1080700050221A800823FB18A0225A800823FB18DC
:1080800000229A800823FB18C822DA800823FB18F4
:10809000181CFFF771FD031CFB61FB693B613B6929
:1080A000002B06D03A69054B101CBD211A1CFFF7A6
:1080B0002BF8BD4608B080BD187E02000C7E020081
:1080C00080B596B000AF3C4B181C002174220EF016
:1080D000EBFF4023FB18181C00210C220EF0E4FFDC
:1080E0004023FB18354A1A604023FB1801221A71FD
:1080F0004023FB18F1225A714023FB18F1229A7198
:108100004023FB18F122DA714023FB18F0221A7287
:10811000294A4023FB18101C191CFEF797FC031C6E
:108120007B657B6D3B653B6D002B06D03A6D244B28
:10813000101CEE211A1CFEF7E7FF3B1C181C002147
:1081400040220EF0B1FF3A1C1E4B101C191C08F007
:1081500009FF3B1C3C22995C0F208143081C012134
:10816000014399543B1C3C22995C0F200140081CA0
:108170001021014399543B1C3D22995C0F208143FF
:1081800099543B1C3D22995C0F20014099543B1CA3
:10819000181C08F0B1FD031C7B657B6DFB64FB6C58
:1081A000002B06D0FA6C064B101CFC211A1CFEF7A3
:1081B000ABFFBD4616B080BDD03500204175010033
:1081C0000C7E0200207E020080B5A0B000AFFB1D37
:1081D00006221A704023FB18181C002138220EF0CA
:1081E00063FF4023FB1802221A704023FB18012270
:1081F0009A704023FB1801229A804023FB18FA1D35
:108200009A600823FB18181C002138220EF04CFF3E
:108210004023FA180823FB18101C191C09F02CFD28
:10822000031CFB67FB6FBB67BB6F002B08D0B96FEC
:108230008B235A00044B081C111C1A1CFEF764FF08
:10824000BD4620B080BDC0460C7E020080B58AB01D
:1082500000AF3B1D181C00211C220EF025FF3B1D0A
:1082600000221A603B1D164A5A603B1DA022D20212
:108270009A603B1D05221A733B1D0022DA813B1DCB
:1082800001221A743B1D0F4A5A613B1D0E4A9A6126
:108290003B1D181C09F00EFE031C7B627B6A3B62CF
:1082A0003B6A002B08D0396A96235A00074B081CFA
:1082B000111C1A1CFEF728FFBD460AB080BDC0463F
:1082C00055D50000A5720100857201000C7E0200E8
:1082D00080B588B000AF00F053FB031CFB61FB6965
:1082E000002B09D0F9693423FF331A1C3C4B081CBE
:1082F000111C1A1CFEF708FF00F02AFD031CBB61CD
:10830000BB69002B08D0B9699B235A00344B081C69
:10831000111C1A1CFEF7F8FE08F00CFA031C1A1CBC
:1083200001235340DBB2002B0DD02E4B7B617B69C8
:10833000002B08D079699D235A00294B081C111C79
:108340001A1CFEF7E1FE362004F09CF8031C3B618A
:108350003B69002B09D039693E23FF331A1C204B9F
:10836000081C111C1A1CFEF7CFFE342001F056FE2B
:10837000031CFB60FB68002B08D0F968A0235A009F
:10838000174B081C111C1A1CFEF7BEFE732001F0CF
:10839000B5FE031CBB60BB68002B09D0B968442341
:1083A000FF331A1C0E4B081C111C1A1CFEF7ACFEE6
:1083B000762003F027FD031C7B607B68002B08D030
:1083C0007968A3235A00064B081C111C1A1CFEF7DF
:1083D0009BFE682001F0EEFEBD4608B080BDC046A1
:1083E0000C7E02000110000080B588B000AFFA23B7
:1083F000DB00181C0DF068FF4E4B181C07F09EFBAD
:10840000031CFB61FB69002B09D0F9695E23FF3374
:108410001A1C494B081C111C1A1CFEF775FE07F0AC
:10842000B5FB031CBB61BB69002B08D0B969AF2346
:108430005A00414B081C111C1A1CFEF765FE3D4BEF
:10844000181C07F0D5F9031C7B617B69002B08D051
:108450007969B1235A00384B081C111C1A1CFEF70D
:1084600053FE07F0EBF9031C3B613B69002B09D07D
:1084700039696423FF331A1C2F4B081C111C1A1C6A
:10848000FEF742FE2B4B181C07F012F8031CFB6092
:10849000FB68002B09D0F9686823FF331A1C264BB0
:1084A000081C111C1A1CFEF72FFE07F027F8031CEE
:1084B000BB60BB68002B08D0B968B4235A001E4BC0
:1084C000081C111C1A1CFEF71FFE1A4B181C07F083
:1084D000D7FC031C7B607B68002B09D079687C2368
:1084E000FF331A1C144B081C111C1A1CFEF70CFE3F
:1084F000124B00221A70002000F0D2FB104B1A68B9
:10850000A0231B03101C191C00220AF091FE031C5F
:108510003B603B68002B09D039688623FF331A1C67
:10852000054B081C111C1A1CFEF7EEFDBD4608B0D9
:1085300080BDC046D03500200C7E02001C330020D8
:108540005035002080B582B000AF184A184B012189
:10855000D1501649174AA023DB028B501349134A06
:10856000A123DB00D35801221A43A123DB00CA5008
:108570000E4B01221A60104B1B68104A181C111C6C
:1085800000220AF055FE031C7B607B68002B09D09B
:1085900079689023FF331A1C094B081C111C1A1C04
:1085A000FEF7B2FDBD4602B080BDC04600000140EE
:1085B0000C050000040500005835002055D50000CA
:1085C0000C7E020090B5A5B000AF78600A1CBB1C01
:1085D0001A808F23FB1800221A708F23FB181B7838
:1085E000304A127E1A438F23FB18511E8A411A709B
:1085F0008F23FB181B782C4A127E1A438F23FB18FB
:10860000511E8A411A708F23FB181B78274A127E4D
:108610001A438F23FB18511E8A411A708F23FB18AF
:108620001B78234A127E1A438F23FB18511E8A415E
:108630001A708F23FB181B78002B30D01D4B1B6842
:10864000181C0B2100220AF0F3FD031C8822BA1823
:1086500013608823FB181B68002B0BD08823FB18A2
:108660001968C023FF331A1C134B081C111C1A1C59
:10867000FEF74AFD0823FB18104A13CA13C313CA96
:1086800013C313CA13C31168196091889980927932
:108690009A710823FB180020191C06F0F1FEBD4654
:1086A00025B090BD4836002080350020A835002038
:1086B000603500206C3600200C7E02002C7E02000B
:1086C00090B5A3B000AF154B1B68181C0AF0F6FD5F
:1086D000031C8422BA1813608423FB181B68002B28
:1086E0000BD08423FB181968CC23FF331A1C0C4BC6
:1086F000081C111C1A1CFEF707FD3B1D094A13CA72
:1087000013C313CA13C313CA13C33B1D0020191C80
:1087100006F0B6FEBD4623B090BDC0466C360020C4
:108720000C7E0200587E020090B583B000AF7860E6
:108730007B68191C00231A1C0B1C141C181C211C00
:10874000BD4603B090BDC04690B5A3B000AF786001
:108750007B68154A93420ED10823FB18134A13CAAB
:1087600013C313CA13C312881A800823FB180020EE
:10877000191C06F085FE7B68002B11D07B680C4A23
:1087800093420DD07B68084A934209D07B68082B3E
:1087900006D07A68074B101C14211A1CFEF7B4FC93
:1087A000BD4623B090BDC04604300000C47E020028
:1087B00001340000E07E020080B58EB000AFF860AA
:1087C000B9607A601423FA18FB68101C191C122275
:1087D00005F09EFC031E0CD01423FA18FB68101C35
:1087E000191C022205F094FC031E02D080235B02B8
:1087F00021E01423FB18DB681422BA18101C191C82
:1088000006F06AF9031E02D080235B0213E0002306
:108810003B611423F818B9687A681023FB1805F037
:108820001DFF031E02D080235B0204E01423FB180B
:10883000181C06F029F9181CBD460EB080BDC046B4
:1088400090B5C3B000AF786039608823FA187B68B0
:10885000101C191C0EF0E0FC214B1B78002B2CD1B6
:108860001F4A204B101C191C012205F007FC031E97
:1088700031D10823FB181C4A13CA13C311681960AD
:1088800092889A800823FB180020191C06F0F8FD36
:108890008823FB18181C0EF0E1FC041C3A6888239E
:1088A000FB18101C191C221CFFF786FF0D4B002023
:1088B000191C012205F0E2FB0DE08823FB18181CAF
:1088C0000EF0CCFC041C3A688823FB18101C191C01
:1088D000221CFFF771FF0023181CBD4643B090BD5A
:1088E00020330020147F0200187F020080B500AF03
:1088F000024B1B68181CBD4680BDC046702B002073
:1089000080B500AF034B1B685A1C024B1A60BD4672
:1089100080BDC046702B002080B582B000AF78606B
:10892000A023DA057B6801219940A123DB00D15007
:10893000BD4602B080BDC04680B582B000AF786051
:10894000A023DB057A68012191400A1C02495A5094
:10895000BD4602B080BDC0460C05000080B582B0A7
:1089600000AF7860A023DA05A223DB00D2587B6831
:10897000DA40131C01221340181CBD4602B080BD12
:1089800080B500AF044B00221A70044B01221A700C
:108990000023181CBD4680BDC8350020A03500202E
:1089A00090B5A3B000AF021CFB1D1A70FB1D1B7815
:1089B000002B18D00823FB18174A13CA13C313CA75
:1089C00013C30823FB180020191C06F059FD134B94
:1089D00001221A70124B00221A701D2003218022DE
:1089E00000F062FC14E00823FB180E4A13CA13C3FC
:1089F00013CA13C312781A700823FB180020191C1D
:108A000006F03EFD054B00221A701D2000F098FA7A
:108A1000BD4623B090BDC046BC7F0200782B00202D
:108A2000C8350020D47F020090B5A3B000AF021C6F
:108A3000FB1D1A70FB1D1B78002B18D00823FB1898
:108A4000174A13CA13C303CA03C30823FB18002021
:108A5000191C06F015FD134B01221A70124B00224F
:108A60001A701D200321802200F01EFC14E0082350
:108A7000FB180E4A13CA13C303CA03C312781A7031
:108A80000823FB180020191C06F0FAFC054B0022F5
:108A90001A701D2000F054FABD4623B090BDC046A8
:108AA000F07F0200792B0020C835002004800200EE
:108AB00090B5A5B000AF786039607A6880231B015B
:108AC000134002D00020FFF76BFF3A6880231B01A0
:108AD000134002D00120FFF763FF7A6880239B03D5
:108AE000134002D00020FFF79FFF3A6880239B03CA
:108AF000134002D00120FFF797FF3B68402213404C
:108B000025D00823FB18134A13CA13C313CA13C36F
:108B100012781A700823FB180020191C06F0B0FC0C
:108B20008B23FB18181C03F04DFD031C8C22BA1874
:108B300013608C23FB181B68002B08D08C23FB18B8
:108B40001A68054B101C4A211A1CFEF7DDFABD46B7
:108B500025B090BD1C8002003880020090B5A7B0FF
:108B600000AF78600B20FFF7F9FE031C5A42534117
:108B7000DBB21A1C444B1B789A420ED0424B1B7836
:108B80005A1E9341DBB201225340DBB21A1C01236F
:108B90001340DBB2181CFFF703FF1520FFF7DEFEC2
:108BA000031C5A425341DBB21A1C384B1B789A42C1
:108BB0000ED0364B1B785A1E9341DBB20122534034
:108BC000DBB21A1C01231340DBB2181CFFF72CFF89
:108BD0002F4B1B7801225340DBB2002B50D00C23CB
:108BE000FB182C4A13CA13C313CA13C31188198064
:108BF00092789A700C23FB180020191C06F040FC98
:108C00008C23FB18181C03F0C7FC031C9422BA1811
:108C100013609423FB181B68002B1DD18C23FB18B9
:108C20005B781C1C184B1B78002B03D1174B1B784F
:108C3000002B01D0012300E000230C22B918164AB2
:108C4000081C111C221C0EF0E7FA0C23FB18002054
:108C5000191C06F015FC13E09423FB181B689022E6
:108C6000BA1813609023FB181B68002B08D09023C0
:108C7000FB181A68094B101C64211A1CFEF744FAF1
:108C8000BD4627B090BDC046782B0020792B002030
:108C90001C330020708002008C80020038800200AB
:108CA00080B584B000AF021CFB1D1A70FB1D1B7841
:108CB000002B06D01E20FFF72FFE0B4B01221A704F
:108CC0000EE00F23FB1800221A700F23FB181B78ED
:108CD000002B05D01E20FFF72FFE034B00221A7039
:108CE000BD4604B080BDC046A035002080B582B02E
:108CF00000AF7860A023DB057A68C132FF329200B2
:108D00000321D150BD4602B080BDC04680B582B0BF
:108D100000AF7860A023DA057B6801219940A12388
:108D2000DB00D150BD4602B080BDC04680B582B0E8
:108D300000AF7860A023DB057A68012191400A1C0E
:108D400002495A50BD4602B080BDC0460C05000025
:108D500080B582B000AFFB1D00221A7015E0FB1D2C
:108D60001B780133DA000D4BD3181A1D0C4B101C65
:108D700001211A1C0AF0E4F9031E01D0094B09E095
:108D8000FB1D1A78FB1D01321A70FB1D1B78032B8B
:108D9000E5D90023181CBD4602B080BD0420002088
:108DA000119301000460000080B584B000AF021C84
:108DB000FB1D1A700F23FB1800221A7091E00F237D
:108DC000FB181B784B4AD3185B78FA1D12789A422D
:108DD00000D07FE0002000F0EDFE0F23FB181B7891
:108DE000444A0133DB00D3185B68181C0AF066FAAA
:108DF00025E00F23FB181B780F22BA1812780132D6
:108E00003C498A1851783B4AD3180A1C5A700F23E0
:108E1000FB181B780F22BA1812780132354801333B
:108E2000DB0034490132D200C3188A1803CA03C3D5
:108E30000F23FB181A780F23FB1801321A700F2327
:108E4000FB181B78022BD4D92A4BFF221A71294B0D
:108E5000202200219954274B212200219954254B8F
:108E6000222201219954234B232200219954224A82
:108E7000224B101C01211A1C0AF062F91D4B1B78B1
:108E8000013BDAB21B4B1A701A4B181C00F0ACFCF9
:108E90000E23FB1800221A7016E00E23FB181B7815
:108EA000174AD35CFA1D12789A4206D10E23FB189A
:108EB0001B78134AFF21D1540BE00E23FB181A78BC
:108EC0000E23FB1801321A700E23FB181B78032B9C
:108ED000E3D90CE00F23FB181A780F23FB1801329B
:108EE0001A700F23FB181B78032B00D867E7BD46C9
:108EF00004B080BD04200020282000201193010030
:108F00003C20002080B582B000AF021CFB1D1A700F
:108F1000FB1D1B78181CFFF747FF0120FFF7C0FE61
:108F2000FB1D1B78181CFFF7E1FEFB1D1B78181CAE
:108F3000FFF7ECFE0023181CBD4602B080BDC04602
:108F400080B582B000AF021CFB1D1A70FB1D1B78A0
:108F5000181CFFF729FF0020FFF7A2FEFB1D1B785E
:108F6000181CFFF7C3FEFB1D1B78181CFFF7DEFE65
:108F70000023181CBD4602B080BDC046F0B5A7B0A6
:108F800000AFB8600E1C101C191C0F23FB183A7A96
:108F90001A700E23FB18321C1A700D23FB18021CCA
:108FA0001A700C23FB180A1C1A700F23FB181B786D
:108FB000181CFFF7F9FE0F23FB181B78181CFFF78E
:108FC00095FE0F23FB181B78181CFFF7AFFE8F23AD
:108FD00008229446BC44634400221A7018E18F238F
:108FE00008229446BC4463441B78904AD3185B78AB
:108FF000FF2B00D0FFE08E2308229446BC4463443C
:1090000000221A700C23FB181B78012B09D10E23A8
:10901000FB181B7864225343002B00DA01335B10EA
:109020000FE00E23FB181B7864225A430D23FB1814
:109030001B789B08DBB25B00101C191C0DF0A0FC18
:10904000031C882208218C46BC4462441360002023
:1090500000F0B0FD8F2308229446BC4463441B7883
:1090600072490F22BA18CB1812785A706F4B1B78BE
:109070000133DAB26D4B1A708F2308229446BC4438
:1090800063441A78694B0132D2000C2179180978AF
:10909000D1548F2308229446BC4463441B7863490F
:1090A0000133DB000D22BA18CB181278DA7022E0F7
:1090B0008E2308229446BC4463441B785C4AD35CEC
:1090C000FF2B0BD18E2308229446BC4463441B78AB
:1090D000574A0F2179180978D15414E08E230822B9
:1090E0009446BC4463441A788E2308218C46BC44C1
:1090F000634401321A708E2308229446BC446344B0
:109100001B78032BD4D9494B181C00F06DFB031EB0
:1091100007D00F23FB181B78181CFFF745FE454BA3
:1091200080E08F2308229446BC4463441B783F4A66
:109130000133DB00D3185E68882308229446BC44C0
:1091400063441B683B6000237B6038687968031CBC
:109150005B0C0A1CD5031D43031CDC03364A0023A9
:10916000A4185D41231C2C1C181C211C334A00230D
:109170000DF0F8FC031C0C1C191C8E2308229446CD
:10918000BC4463441A782A4BD318301C1A1C0AF0CA
:109190004FF8031E07D00F23FB181B78181CFFF78E
:1091A00003FE244B3EE00F23FB181B781D2B04D03D
:1091B0000F23FB181B781C2B02D10120FFF770FD39
:1091C000012000F0F7FC0F23FB181A780C23FB1882
:1091D0001B78082108203818401819490EF01CF88F
:1091E000082308229446BC4463440020191C06F05E
:1091F00047F9002316E08F2308229446BC446344B9
:109200001A788F2308218C46BC44634401321A70BB
:109210008F2308229446BC4463441B78032B00D858
:10922000DDE6084B181CBD4627B0F0BD0420002029
:109230003C20002005600000DC050000B80B0000A9
:10924000B88002000360000090B583B000AF041C3A
:10925000081C111CFB1D221C1A70BB1D021C1A705D
:109260007B1D0A1C1A70FB1D1B78181CFFF79CFD48
:10927000FB1D1B78181CFFF739FDFB1D1B78181C04
:10928000FFF754FDFB1D1978BB1D1A787B1D1B7859
:10929000081C111C1A1C0123FFF770FE031C181C6C
:1092A000BD4603B090BDC04690B583B000AF041C6E
:1092B000081C111CFB1D221C1A70BB1D021C1A70FD
:1092C0007B1D0A1C1A70FB1D1B78181CFFF76CFD18
:1092D000FB1D1B78181CFFF709FDFB1D1B78181CD4
:1092E000FFF724FDBB1D1B781A1C9200D318DB1856
:1092F000DAB2FB1D19787B1D1B78081C111C1A1C87
:109300000223FFF73BFE031C181CBD4603B090BDB3
:1093100080B584B000AF78600F23FB187A681278AC
:109320001A700E23FB1800221A7017E00E23FB1888
:109330001B787B4AD3185B780F22BA1812789A42AE
:1093400005D10F23FB180E22BA1812781A700E23BB
:10935000FB181A780E23FB1801321A700E23FB1823
:109360001B78032BE2D90F23FB181A786C4B0132C0
:10937000D200D35C012B34D10F23FB181B78684A31
:109380000133DB00D3185B78002B11D10F23FB18BE
:109390001B780F22BA18127861490132D2008A185C
:1093A000D1785F4A0133DB00D3180A1C5A7008E0F9
:1093B0000F23FB181B785A4A0133DB00D318002215
:1093C0005A700F23FB1819780F23FB181B78544A87
:1093D0000133DB00D3185B78081C191C00F0B8FBC4
:1093E0009BE00F23FB181A784D4B0132D200D35C5F
:1093F000022B00D091E00F23FB181B78484A013361
:10940000DB00D3189B78002B2DD00F23FB181B7883
:10941000434A0133DB00D3185B7804330F22BA18B8
:1094200012783F490132D2008A18D27893421ADB6F
:109430000F23FB181B780F22BA1812783849013213
:10944000D2008A18D178364A0133DB00D3180A1CBF
:109450005A700F23FB181B78314A0133DB00D318F5
:1094600000229A704AE00F23FB181B782C4A013324
:10947000DB00D3189B7801225340DBB2002B1DD0B8
:109480000F23FB181B78264A0133DB00D3185B78C7
:10949000043B002B12DC0F23FB181B78204A0133FE
:1094A000DB00D31800225A700F23FB181B781C4ACC
:1094B0000133DB00D31801229A701FE00F23FB1841
:1094C00019780F23FB181B78154A0133DB00D318DA
:1094D0005A780F23FB181B7811480133DB00C3189F
:1094E0009B78002B01D0042300E0FC23D318D8B2D2
:1094F0000B4A4B1CDB00D318021C5A700F23FB18BD
:1095000019780F23FB181B78054A0133DB00D318A9
:109510005B78081C191C00F01BFBBD4604B080BD25
:109520000420002080B584B000AFF860B960191C39
:10953000FB1D1A70BB1D0A1C1A70BB1D1B78002B6B
:1095400010D1A023DB05BA68012191400A1C111C2F
:109550001D4A99501D4AFB684533FF339B001C4947
:10956000995010E0A023DA05BB68012199400B1C3B
:10957000191CA123DB00D150144AFB684533FF338B
:109580009B0014499950C046C046C0460F4AFB682C
:109590009B00012199500D49BB681A02FB1D1B78E5
:1095A0001B041A43BB1D1B781B05134303221A43DC
:1095B000FB684533FF339B005A50C046C046C04647
:1095C000BD4604B080BDC0460C05000000600040F0
:1095D000031F0200031F010080B582B000AF786056
:1095E000044A7B684533FF339B0003499950BD46CD
:1095F00002B080BD00600040001F030080B582B053
:1096000000AF7860A023DB057A68C132FF32920098
:109610000321D150BD4602B080BDC04680B582B0A6
:1096200000AF7860A023DA057B6801219940A1236F
:10963000DB00D150BD4602B080BDC04680B582B0CF
:1096400000AF7860A023DB057A68012191400A1CF5
:1096500002495A50BD4602B080BDC0460C0500000C
:1096600080B582B000AF786039603B68002B04D1D0
:109670007B68181CFFF7E2FF03E07B68181CFFF70C
:10968000CDFFBD4602B080BD45DF7047181CC04607
:1096900047DF7047181CC0464EDF7047181CC04695
:1096A00050DF7047181CC04680B582B000AF7860AC
:1096B0000A1CFB1C1A707B680D4A934204D10D4BA7
:1096C000FA1C12781A6010E07B680B4A934204D1AE
:1096D0000A4BFA1C12781A6007E07B68084A93422A
:1096E00003D1084BFA1C12781A60BD4602B080BD47
:1096F000008000400C8C0040009000400C9C00401A
:1097000000A000400CAC004080B582B000AF786093
:109710003960144B1B683A689A4211D87A683B68E2
:109720009A420BD3104B1A683B68D2180D4B1B683A
:10973000D21A7B689A4201D901230FE000230DE081
:10974000084B1B683A68D21A7B689A4203D87A6839
:109750003B689A4201D3012300E00023181CBD4658
:1097600002B080BD402000207C2B002080B584B05A
:1097700000AFF860B9607A60FB680F2B00D90FE08A
:10978000FB68D9B2BA687B68081C111C1A1CFFF769
:109790007FFFFB6801229A40131C181CFFF774FF1F
:1097A000BD4604B080BDC04680B582B000AF021C8B
:1097B000FB1D1A700A4B02221A70FB1D1B78042B2A
:1097C00008D89A00074BD3181B689F4600F040FA50
:1097D00000E0C046024B181CBD4602B080BDC0462A
:1097E000C02B0020E4800200B0B586B000AF7860E6
:1097F0007B681B78002B03D07B681B78042B02D975
:1098000001235B4279E17B6834229B5C052B3BD8CA
:109810009A00BC4BD3181B689F46BB4AA223DB00AF
:109820000921D150B94B64221A6030E0B64AA22314
:10983000DB000921D150B54BFF221A6027E0B24A64
:10984000A223DB000621D150B04BFA2292001A600D
:109850001DE0AD4AA223DB000321D150AB4B6422B3
:109860001A6014E0A84AA223DB000121D150A74BC3
:10987000FF221A600BE0A44AA223DB000021D15092
:10988000A24BFF221A6002E001235B4235E19E4AAF
:10989000A223DB00D3589E4AD35C1A1C9D4B1A604E
:1098A0007B681B781A1C9C4B1A6000237B6122E0AA
:1098B0007A687B69D3185B78191C984B7A69920097
:1098C000D150964B7A699200D358181CFFF796FE38
:1098D000934B7A6992000021D1507A6830217B69DC
:1098E000D3185B1819788F4A7B69D3180A1C1A7031
:1098F0007B6901337B617A69874B1B689A42D7D3B6
:10990000814B0122DA60804AA123DB000021D15083
:109910007D497E4B1A68844B1A60834B1A68A923D1
:10992000DB00CA50784A814B0021D150764A80230F
:109930009B000421D15074497348734C724D00232D
:10994000A6225200AB50A4225200A350A2225200E1
:109950008350A02252008B506F4B1B68022B33D9CF
:10996000734B0122DA60724AA123DB000021D1503F
:109970006F49664B1A686C4B1A606B4B1A68A923C7
:10998000DB00CA506A4A694B0021D150684A8023E3
:109990009B000421D15066496548654C644D002305
:1099A000A6225200AB50A4225200A350A222520081
:1099B0008350A02252008B505D49534AA223DB0002
:1099C000D258A223DB00CA5000233B6135E03B693B
:1099D0005B007A682821D3185B181B78181C3B6938
:1099E0009B00544A99184F4A3B69D3181B789B0037
:1099F000514A944663441A1CFFF7B8FE3B695B006A
:109A000001337A682821D3185B181B78191C454A42
:109A10003B69D3181B789B00474A94466344474AE6
:109A2000081C111C1A1CFFF7A1FE454A3B69D318FC
:109A300000221A703B6901333B613A69364B1B685F
:109A40009A4202D23B69012BC1DD0223FB6036E062
:109A5000FB685B007A682821D3185B181B78181CF8
:109A6000FB68023B9B00374A99182E4AFB68D318C3
:109A70001B789B00304A944663441A1CFFF776FE1D
:109A8000FB685B0001337A682821D3185B181B78C8
:109A9000191C244AFB68D3181B789B00264A94465D
:109AA0006344294A081C111C1A1CFFF75FFE244A54
:109AB000FB68D31800221A70FB680133FB60FA6858
:109AC000154B1B689A42C3D3204B181CFFF7E4FDCB
:109AD0000D4B181C0121FFF7E7FD0B4B01221A600B
:109AE0000D4B1B68022B07D9114B181C0121FFF7E6
:109AF000DBFD0F4B01221A600023181CBD4606B087
:109B0000B0BDC046F880020000A000407C2B0020C1
:109B1000D880020040200020BC2B0020942B002085
:109B2000A42B0020B82B0020902B0020040500005F
:109B30000090004040A100400060004048A100406B
:109B4000B42B00204091004048910040A9970100AB
:109B500080B586B000AF78603960134B7A689200A8
:109B60003968D150114A7B68D31801221A70082332
:109B7000FB1800221A700823FB1800221A71082310
:109B8000FB18FA229A600823FB1800225A71082356
:109B9000FB18074ADA600823FB18181CFFF780FD42
:109BA000BD4606B080BDC046802B0020B42B0020EF
:109BB000A086010080B584B000AF021CFB1D1A70A6
:109BC000FB1D1B78002B0AD01B4B01221A601B4B7C
:109BD0001B68022B2CD91A4B01221A6028E0164B65
:109BE00001225A60154B1B68022B02D9144B01222B
:109BF0005A600023FB6016E0124AFB68D3181B78FA
:109C0000181CFFF7E9FC104BFA689200D358181C97
:109C10000021FFF725FD0D4BFA6892000021D1507D
:109C2000FB680133FB60054B1B68FA689A42E3D37B
:109C3000BD4604B080BDC04600A00040BC2B002043
:109C400000900040B82B0020942B0020A42B002073
:109C500080B500AFD049D14B1A68D14B1A60D04BB8
:109C60001A68A923DB00CA50CE4B1B68022B05D90A
:109C7000CD49CB4B1A68A923DB00CA50CB4B00223D
:109C80001A607FE1C94B1B68C94AD35C002B00D125
:109C900073E1C64B1B68C64A0021D154C34B1A68F6
:109CA000C44B9200D358002B16D1C04B1B68C24A3C
:109CB000D35C181CFFF790FCBC4B1A68BF4B92009A
:109CC000D358181C0021FFF7CBFCB84B1A68BC4BCB
:109CD00092000021D15050E1B44B1A68B54B92006C
:109CE000D258AF4B1B689A4216D3B04B1B68B24A8E
:109CF000D35C181CFFF770FCAC4B1A68AF4B92009A
:109D0000D358181C0121FFF7ABFCA84B1A68AC4BC9
:109D100092000021D15030E1A44B1B68012B00D9E7
:109D200094E0A24B1A68A34B9200D258A54B1A603C
:109D3000994A9E4B1B685133FF339B009A58A24BA4
:109D40001A609A4B1A689E4B9200D358002B32D15E
:109D5000964B1B68984AD35C191C944B1A68974B16
:109D60009200D358081C191C03220123FFF7DAFBC9
:109D70008E4B1A68924B92000121D150864B0122E2
:109D8000DA64854A914BD2588E4B1B689A4207D9A8
:109D90008F49864B1B68884AD35C9B0001225A502E
:109DA0007D48824B1968874B1A680B1C5133FF336F
:109DB0009B001A50E1E0784B0122DA64764A834B2B
:109DC000D258814B1B68101C191CFFF79DFC031E09
:109DD00013D0714A7D4BD2587A4B1B68101C191C4A
:109DE000FFF792FC031E08D0C0466B4A774BD2584F
:109DF000754B1B689A4208D300E0DCE7664A734B58
:109E0000D258704B1B689A420DD3634A6F4BD2589D
:109E10006D4B1B689A420ED25F4A6C4BD258694B0D
:109E20001B689A4207D36A49604B1B68624AD35C3D
:109E30009B0001225A5058485C4B1968614B1A68C4
:109E40000B1C5133FF339B001A5096E0574B1A6896
:109E5000584B9200D2585B4B1A60534A534B1B68C5
:109E6000023B5133FF339B009A58574B1A604F4BBC
:109E70001A68534B9200D358002B33D14B4B1B68BD
:109E80004D4AD35C191C494B1A684C4B9200D3586D
:109E9000081C191C03220123FFF744FB434B1A68DB
:109EA000474B92000121D1503F4B0122DA643E4AD8
:109EB000464BD258434B1B689A4207D944493B4B07
:109EC0001B683D4AD35C9B0001225A503648374BF1
:109ED0001B68991E3B4B1A680B1C5133FF339B00C8
:109EE0001A504AE0304B0122DA642F4A374BD258DD
:109EF000354B1B68101C191CFFF706FC031E13D002
:109F0000294A324BD2582F4B1B68101C191CFFF7E3
:109F1000FBFB031E08D0C046234A2C4BD2582A4BC9
:109F20001B689A4208D300E0DCE71F4A274BD2584F
:109F3000244B1B689A420DD31B4A244BD258224B08
:109F40001B689A420ED2184A204BD2581D4B1B68F0
:109F50009A4207D31E49154B1B68174AD35C9B00D6
:109F600001225A501048114B1B68991E154B1A6854
:109F70000B1C5133FF339B001A500C4B1B685A1CAF
:109F80000A4B1A60094B1A68064B1B689A4200D2AA
:109F900078E6BD4680BDC04600A00040902B002062
:109FA0007C2B0020BC2B002000900040C82B002000
:109FB000B42B0020802B0020B82B0020942B0020F5
:109FC000A42B0020CC2B0020D02B00204C0500001F
:109FD0000060004080B582B000AF78600A1CFB1CB6
:109FE0001A700C4B19787A68FB1C1B78081C111C22
:109FF0001A1C012306F0EEFB031C1A1C012353401C
:10A00000DBB2002B01D0044B00E00023181CBD463E
:10A0100002B080BDD42B00200130000080B584B098
:10A0200000AF021CFB1D1A70FB1D1B78DB18DAB297
:10A030000A4B1A700F23FB1882221A700F23FB1889
:10A04000181C0121FFF7C6FF031E01D0044B00E0DE
:10A050000023181CBD4604B080BDC046D42B002090
:10A060000330000080B582B000AF7860C046C046C3
:10A07000C046C046C046C046C046C046C046C046B0
:10A08000C046C046C046C0467B68013B7B60002B93
:10A09000ECD1BD4602B080BD80B584B000AF021CDB
:10A0A000FB1D1A70BB1D0A1C1A700C23FB18FA1D2D
:10A0B00012781A700C23FB18BA1D12785A700D4BC7
:10A0C0001A780C23FB18101C191C0222012306F01D
:10A0D00081FB031C1A1C01235340DBB2002B01D06F
:10A0E000054B03E00420FFF7BDFF0023181CBD460D
:10A0F00004B080BDD52B00201640000080B582B092
:10A1000000AF021CFB1D1A70184B1B78002B01D0EE
:10A11000174B26E0FB1D1B78DB18DAB2154B1A70C3
:10A12000154BFF221A70144B1B780320191CFFF7E4
:10A13000B3FF031E01D0114B13E002200021FFF7F3
:10A14000ABFF031E01D00D4B0BE001200021FFF7F8
:10A15000A3FF031E01D0094B03E0044B01221A7038
:10A160000023181CBD4602B080BDC046D72B00207E
:10A1700006400000D52B0020D62B00200740000011
:10A1800080B582B000AF7860C046C046C046C046C9
:10A19000C046C046C046C046C046C046C046C0468F
:10A1A000C046C0467B68013B7B60002BECD1BD46BE
:10A1B00002B080BD80B582B000AF021CFB1D1A70DA
:10A1C0001B4BFA1D12781A7000F01AFA14200CF0CA
:10A1D0007BF8002000F02EFA002000F041FA002069
:10A1E00000F018FA002000F05BFA002000F068FA96
:10A1F000002000F075FA012000F082FA012000F042
:10A200008FFA012000F09CFA012000F0B9FA012039
:10A2100000F0A6FA00F0D4FA00F0DAFA032000F019
:10A220002FFA012000F01CFABD4602B080BDC046E6
:10A230007036002080B586B000AFB9607A600F2319
:10A24000FB18021C1A702E4B1B78DB18DAB20F2396
:10A25000FB18101C191C0122012306F0BBFA031C79
:10A260001A1C01235340DBB2002B13D01723FB1819
:10A2700000221A701723FB181B7801225340DBB20F
:10A28000002B05D01F4B00203C211A1CFCF73CFF83
:10A29000002330E01A4B1B785B00DBB21A1C012351
:10A2A0001343DBB2D9B27B68DBB2BA68081C111C5D
:10A2B0001A1C012306F08EFA031C1A1C01235340BA
:10A2C000DBB2002B13D01623FB1800221A701623C2
:10A2D000FB181B7801225340DBB2002B05D0094B41
:10A2E000002042211A1CFCF70FFF002303E004208A
:10A2F000FFF746FF0123181CBD4606B080BDC046CF
:10A3000070360020308A020080B582B000AF021C97
:10A310003960FB1D1A70FB1D1A783B68101C191C54
:10A320000122FFF787FF031C181CBD4602B080BD49
:10A33000F0B58DB000AFB9617A610F2210218C4663
:10A34000BC446244011C11706A463A617A69013268
:10A35000511EB962111CB9600021F960B968490F3A
:10A36000F868C6000E43B968CD00111C39600021A1
:10A3700079603D687E68291C490F301CC4000C437D
:10A38000291CCB00131C0733DB08DB006A46D31AF9
:10A390009D466B4600337B627B6A0F2210218C4600
:10A3A000BC44624412781A700023FB620AE0FB6A24
:10A3B0000133FA6AB9698A1811787A6AD154FB6A4A
:10A3C0000133FB62FA6A7B699A42F0DB1B4B1B7814
:10A3D000DB18D9B27A6A7B69DBB20133DBB2081CC5
:10A3E000111C1A1C012306F0F5F9031C1A1C012389
:10A3F0005340DBB2002B19D0132310229446BC44E7
:10A40000634400221A70132310229446BC44634410
:10A410001B7801225340DBB2002B05D0084B0020F3
:10A4200086211A1CFCF770FE002300E001233A6924
:10A430009546181CBD460DB0F0BDC04670360020D4
:10A44000308A020080B582B000AF021CFB1D1A707A
:10A45000BB1D0A1C1A70FB1D1A78BB1D101C191C91
:10A460000122FFF765FF031C181CBD4602B080BD2A
:10A47000B0B584B000AF051C0C1C101C191CFB1DD2
:10A480002A1C1A70BB1D221C1A707B1D021C1A701C
:10A490003B1D0A1C1A700E23FB1800221A70FB1DAC
:10A4A0001A780E23FB18101C191CFFF72DFF031C34
:10A4B0001A1C01235340DBB2002B01D0002346E0DD
:10A4C0007B1D1B7801229A40131C5A1EBB1D197854
:10A4D0007B1D1B78CB1A01339A400F23FB181A708F
:10A4E0003B1D1A78BB1D19787B1D1B78CB1A0133D5
:10A4F0009A403B1D1A703B1D3A1D0F2179181278A6
:10A5000009780A401A700F23FB181B78DB43D9B275
:10A510000E23FB181B78DAB20B1C1340DBB2DAB245
:10A520000E23FB181A700E23FB181A783B1D1B789C
:10A530001343DAB20E23FB181A700E23FB181A7895
:10A54000FB1D1B78181C111CFFF77CFF031C181C3B
:10A55000BD4604B0B0BDC04690B583B000AF041C8A
:10A56000081C111CFB1D221C1A70BB1D021C1A703A
:10A570007B1D0A1C1A707B1D1C78FB1D1A78BB1DE5
:10A580001B78101C191C0122231CFFF771FF031CF0
:10A59000181CBD4603B090BD80B500AF144B1B78AE
:10A5A00001225340DBB2002B20D0124B1B781A1C27
:10A5B000114B1B781343114A127813435A1E9341CF
:10A5C000DBB2181C00F0ECF8012000F019F9094B7F
:10A5D0001B781A1C084B1B781343084A1278134344
:10A5E0005A1E9341DBB2181C00F0FAF8BD4680BD3C
:10A5F000E92B0020E62B0020E72B0020E82B002091
:10A6000080B500AF6B2007210122FFF7A5FFBD46F3
:10A6100080BDC04680B582B000AF021CFB1D1A7021
:10A62000FB1D1B786B2004211A1CFFF795FFBD460C
:10A6300002B080BD80B582B000AF021CFB1D1A7055
:10A64000FB1D1B78002B08D0FFF7A6FFFB1D1B7816
:10A650006B2006211A1CFFF77FFFBD4602B080BDAC
:10A6600080B582B000AF021CFB1D1A70FB1D1B7869
:10A670006B2005211A1CFFF76FFFBD4602B080BD9D
:10A6800080B582B000AF021CFB1D1A70FB1D1B7849
:10A690001E2000210422FFF7EBFEBD4602B080BD64
:10A6A00080B582B000AF021CFB1D1A70FB1D1B7829
:10A6B0006C2005211A1CFFF74FFFBD4602B080BD7C
:10A6C00080B582B000AF021CFB1D1A70FB1D1B7809
:10A6D0006C2004211A1CFFF73FFFBD4602B080BD6D
:10A6E00080B582B000AF021CFB1D1A70FB1D1B78E9
:10A6F0006C2003211A1CFFF72FFFBD4602B080BD5E
:10A7000080B582B000AF021CFB1D1A70FB1D1B78C8
:10A710006C2002211A1CFFF71FFFBD4602B080BD4E
:10A7200080B582B000AF021CFB1D1A70FB1D1B78A8
:10A730006C2001211A1CFFF70FFFBD4602B080BD3F
:10A7400080B582B000AF021CFB1D1A70FB1D1B7888
:10A750006C2000211A1CFFF7FFFEBD4602B080BD31
:10A7600080B582B000AF021CFB1D1A70FB1D1B7868
:10A770001D2002210322FFF77BFEBD4602B080BDF3
:10A7800080B582B000AF021CFB1D1A70FB1D1B7848
:10A790001D2003211A1CFFF7DFFEBD4602B080BD5D
:10A7A00080B582B000AF021CFB1D1A70FB1D1B7828
:10A7B000382000211A1CFFF7CFFEBD4602B080BD35
:10A7C00080B500AF38204021FFF73CFEBD4680BD7C
:10A7D00080B500AF1F200F21FFF734FEBD4680BDBE
:10A7E00080B582B000AF021CFB1D1A70FB1D1B78E8
:10A7F0006A2006211A1CFFF7AFFEBD4602B080BDDD
:10A8000080B582B000AF021CFB1D1A70FB1D1B78C7
:10A810006A2002211A1CFFF79FFEBD4602B080BDD0
:10A8200080B582B000AF7860A023DB057A68C132C2
:10A83000FF3292000321D150BD4602B080BDC04618
:10A8400080B582B000AF78600A1CFB1C1A70A02390
:10A85000DB05FA1C12789200111C7A68C132FF32B3
:10A860009200D150BD4602B080BDC04680B582B0D6
:10A8700000AF7860A023DA057B6801219940A1230D
:10A88000DB00D150BD4602B080BDC04680B582B06D
:10A8900000AF7860A023DB057A68012191400A1C93
:10A8A00002495A50BD4602B080BDC0460C050000AA
:10A8B00090B585B000AF041C081C111CFB1D221CA8
:10A8C0001A70BB1D021C1A707B1D0A1C1A70FB1D1E
:10A8D0001B78002B01D1424B00E0424BBB60FB1DBB
:10A8E0001B78002B1ED11920FFF79AFF1620FFF7C7
:10A8F00097FF17200021FFF7A3FF1820FFF790FF15
:10A90000BA68A123DB001921D150BB68364A162151
:10A910009950BA68A223DB001721D1501820FFF705
:10A92000A5FF1DE01E20FFF77BFF1E20FFF778FF2D
:10A930001E200021FFF784FF1E20FFF771FFBA6879
:10A94000A123DB001E21D150BB68274A1E2199504C
:10A95000BA68A223DB001E21D1501E20FFF786FF1C
:10A96000BB6822498022D2055A50BB1D1B78012B9F
:10A970000BD002DC002B05D010E0022B08D0032BFB
:10A9800009D00BE00023FB600BE00223FB6008E032
:10A990000423FB6005E00623FB6002E00023FB606C
:10A9A000C0467B1D1B78002B06D0FB6801221A4392
:10A9B000BB680F495A5003E0BB680D49FA685A500A
:10A9C000BA6884235B000021D150BA68A023DB0061
:10A9D0000121D150BB68181CBD4605B090BDC046D2
:10A9E00000300040004000400C050000240500003D
:10A9F0005405000080B588B000AFF8607A603B6015
:10AA00000A23FB180A1C1A800023FB611A23FB1877
:10AA100000221A80FB683B61FB682C4A934202D1FA
:10AA200018237B6101E01E237B617B69181CFFF703
:10AA30002DFF39E01A23FB181B887A68D3181B787E
:10AA4000191C3B69224A995002E0FB690133FB6102
:10AA50003A6984235B00D358002B03D1FB691D4A5C
:10AA60009342F2D9FA69C0239B019A4205D17B69CE
:10AA7000181CFFF7FBFE002323E03A6984235B00E8
:10AA80000021D1501A23FB181B883A68D318396962
:10AA9000A322D2008A58D2B21A701A23FB181A883D
:10AAA0001A23FB1801321A801A23FA180A23FB18FA
:10AAB00012881B889A42BDD37B69181CFFF7D6FE0B
:10AAC0000123181CBD4608B080BDC04600300040C0
:10AAD0001C050000FF2F000080B582B000AF786039
:10AAE000C046C046C046C046C046C046C046C04636
:10AAF000C046C046C046C046C046C0467B68013B13
:10AB00007B60002BECD1BD4602B080BDB0B584B0F7
:10AB100000AF78600F23FB18FF221A700E23FB187A
:10AB200000221A70174B7A681A60164B1B685D6B0F
:10AB3000144B1B6829229A5C0F23FC180E23FB1868
:10AB4000101CD0211A1C0123A847031C23700D4B95
:10AB50001B680E22BA1811782822995400F03EFA88
:10AB6000031CDAB20F23FB181B78D318DAB20F23B9
:10AB7000FB181A700F23FB181B785BB2181CBD461C
:10AB800004B0B0BDEC2B0020B0B584B000AF78604D
:10AB90000F23FB18FF221A700C23FB1800221A70D7
:10ABA0000C23FB1800225A700C23FB1800229A7009
:10ABB000184B1B68002B01D1812326E0154B1B6825
:10ABC0005D6B144B1B6829229A5C0F23FC180C2325
:10ABD000FB18101CFA211A1C0323A847031C23701E
:10ABE0000C23FB181B781A030C23FB185B781B0142
:10ABF00013430C22BA1892781209D2B213431A1CCA
:10AC00007B681A600F23FB181B785BB2181CBD46CB
:10AC100004B0B0BDEC2B002080B586B000AF7860EA
:10AC200000237B6100233B610023FB607B68DA101B
:10AC30001A4B1B681B885B00D21A184B1B685B8879
:10AC40001BB25343DB127B617B681A11134B1B68E9
:10AC50001B88D21A7B681911104B1B681B88CB1AF2
:10AC600053431A130D4B1B689B881BB253439B1312
:10AC70003B610A4B1B6879693A698A185A62074B2B
:10AC80001B685A6A131C9B009B1880331B12FB60C5
:10AC9000FB68181CBD4606B080BDC046EC2B0020EA
:10ACA000B0B584B000AF78600F23FB18FF221A7094
:10ACB0000C23FB1800221A700C23FB1800225A7078
:10ACC0000C23FB1800229A70184B1B68002B01D133
:10ACD000812326E0154B1B685D6B144B1B682922F2
:10ACE0009A5C0F23FC180C23FB18101CF7211A1C6C
:10ACF0000323A847031C23700C23FB181B781A039B
:10AD00000C23FB185B781B0113430C22BA189278B2
:10AD10001209D2B213431A1C7B681A600F23FB1866
:10AD20001B785BB2181CBD4604B0B0BDEC2B0020F4
:10AD300080B586B000AF786000233B610023FB60E4
:10AD400000237B614D4B1B685B6A5B104C4A944649
:10AD500063443B613B699B103A6992105343DA129A
:10AD6000464B1B681B8A1BB25343FB60434B1B685B
:10AD7000DB891BB23A6953435B00FA68D318FB6066
:10AD8000FB689A103D4B1B689B891BB21B04D318B0
:10AD9000FB603A4B1B685B891BB23A6992103969B8
:10ADA00089104A4352135343DA10344B1B681B89F2
:10ADB0001BB239694B435B10D3189B143B613B6951
:10ADC000802212029A182D4B1B68DB885343DB1339
:10ADD0003B617B685B421A1CFB681B13D31A294A30
:10ADE0005343294A944663447B617B69002B0EDB05
:10ADF0003B69002B09D07B695A003B69101C191C68
:10AE00000BF02EFD031C7B610FE0002331E03B695A
:10AE1000002B08D03B697869191C0BF021FD031C3D
:10AE20005B007B6101E0002323E0144B1B68DB8A9D
:10AE30001BB27A69D2087969C9084A43520B534355
:10AE40001B133B617B699B081A1C0C4B1B689B8A7C
:10AE50001BB253435B13FB603A69FB68D218074B84
:10AE60001B685B8A1BB2D3181A117B69D3187B61EC
:10AE70007B69181CBD4606B080BDC046EC2B002087
:10AE80000006FFFF350C0000000050C3B0B584B0D1
:10AE900000AF78600F23FB18FF221A700C23FB18F9
:10AEA00000221A700C23FB1800225A70154B1B68E5
:10AEB000002B01D181231FE0124B1B685D6B114BEE
:10AEC0001B6829229A5C0F23FC180C23FB18101C0A
:10AED000FD211A1C0223A847031C23700C23FB1816
:10AEE0001B781B020C22BA18527813431A1C7B6879
:10AEF0001A600F23FB181B785BB2181CBD4604B008
:10AF0000B0BDC046EC2B002080B584B000AF7860A7
:10AF10000023FB602F4B1B685B6A2F4A94466344F7
:10AF2000FB607B689A032B4B1B68DB8B1BB21B05FA
:10AF3000D21A284B1B681B8C1BB2F9684B43D31ADF
:10AF40008022D20194466344DA13224B1B682221EB
:10AF50005B5C5BB2F9684B4399121E4B1B681B7F0D
:10AF6000181CFB684343DB128020000284466344C4
:10AF70004B439B12802189035918164B1B685B8B2E
:10AF80001BB24B43802189018C4663449B1353437E
:10AF9000FB60FB68DB13FA68D2135343DA110D4BE5
:10AFA0001B681B7E53431B11FA68D31AFB60FB68B6
:10AFB000002B00DA0023FB60FB68C8225205934295
:10AFC00001DDC8235B05FB60FB681B13181CBD4635
:10AFD00004B080BDEC2B002000D4FEFFB0B588B0DB
:10AFE00000AF1F23FB18FF221A703B1D00221A60BE
:10AFF00000225A6000229A600022DA6000221A6160
:10B0000000225A6100221A838E4B1B68002B01D14B
:10B01000812311E18B4B1B685D6B8A4B1B682922D6
:10B020009A5C1F23FC183B1D101C88211A1C1A2334
:10B03000A847031C2370834B1B683A1D52781202E9
:10B0400091B23A1D127892B20A4392B292B21A8029
:10B050007C4B1B683A1DD278D2B252B2120291B226
:10B060003A1D927892B20A4392B25A80754B1B688D
:10B070003A1D5279D2B252B2120291B23A1D1279ED
:10B0800092B20A4392B29A806E4B1B683A1DD279F3
:10B09000120291B23A1D927992B20A4392B292B2DE
:10B0A000DA80684B1B683A1D527AD2B252B2120251
:10B0B00091B23A1D127A92B20A4392B21A81614B4E
:10B0C0001B683A1DD27AD2B252B2120291B23A1D24
:10B0D000927A92B20A4392B25A815A4B1B683A1D35
:10B0E000527BD2B252B2120291B23A1D127B92B28C
:10B0F0000A4392B29A81534B1B683A1DD27BD2B25B
:10B1000052B2120291B23A1D927B92B20A4392B2AB
:10B11000DA814C4B1B683A1D527CD2B252B21202F9
:10B1200091B23A1D127C92B20A4392B21A82454BF6
:10B130001B683A1DD27CD2B252B2120291B23A1DB1
:10B14000927C92B20A4392B25A823E4B1B683A1DDD
:10B15000527DD2B252B2120291B23A1D127D92B217
:10B160000A4392B29A82374B1B683A1DD27DD2B203
:10B1700052B2120291B23A1D927D92B20A4392B239
:10B18000DA82304B1B683A1D527E1A762D4B1B68B3
:10B190005C6B2C4B1B6829229A5C3B1D101CE12127
:10B1A0001A1C0723A047031CDAB21F23FB181B78C5
:10B1B000D318DAB21F23FB181A70224B1B683A1DF2
:10B1C0005278D2B252B2120291B23A1D127892B2B1
:10B1D0000A4392B25A831B4B1B683A1D92781A7726
:10B1E000184B1B683A1DD278D2B252B2120191B2FA
:10B1F0003A1D127992B2101C0F22024092B20A43F9
:10B2000092B2DA830F4B1B683A1D5279D2B252B216
:10B21000120191B23A1D12791209D2B292B20A43C6
:10B2200092B21A84074B1B683A1D9279D1B222223E
:10B2300099541F23FB181B785BB2181CBD4608B03D
:10B24000B0BDC046EC2B0020B0B584B000AF021CEE
:10B25000FB1D1A700F23FB18FF221A700E23FB1818
:10B2600000221A700D23FB1800221A700C23FB1801
:10B2700000221A700B23FB1800221A70704B1B68F7
:10B28000002B01D18123D6E06D4B1B682E229A5CE6
:10B290000E23FB181A700E23FB181B78DBB21A1C46
:10B2A0001F231340DAB2FB1D1B785B01DBB2134393
:10B2B000DBB2DAB20E23FB181A700F23FC180D2331
:10B2C000FB18181C00F0D8FA031C23700D23FB1880
:10B2D0001B78002B52D000F009FC031CDAB20F23BC
:10B2E000FB181B78D318DAB20F23FB181A70544BD3
:10B2F0001B689B6B03209847514B1B682F229A5C5D
:10B300000B23FB181A700B23FB18F520191C0122C4
:10B3100000F018FD031CDAB20F23FB181B78D318BA
:10B32000DAB20F23FB181A70454B1B682D229A5C6A
:10B330000C23FB181A700C23FB18F220191C012295
:10B3400000F000FD031CDAB20F23FB181B78D318A2
:10B35000DAB20F23FB181A700E23FB18F420191C05
:10B36000012200F0EFFC031CDAB20F23FB181B785C
:10B37000D318DAB20F23FB181A7011E0304B1B6898
:10B380001D6B2F4B1B6829229A5C0F23FC180E2380
:10B39000FB18101CF4211A1C0123A847031C23705E
:10B3A000274B1B68FA1D2A2112785A540F23FC18C8
:10B3B0000E23FB18F420191C012200F0F3FC031CDF
:10B3C00023701F4B1B680E22BA1811782E22995435
:10B3D0000E23FB18F220191C012200F0E3FC031CD1
:10B3E000DAB20F23FB181B78D318DAB20F23FB183D
:10B3F0001A70134B1B680E22BA1811782D2299541B
:10B400000E23FB18F520191C012200F0CBFC031CB5
:10B41000DAB20F23FB181B78D318DAB20F23FB180C
:10B420001A70074B1B680E22BA1811782F229954F4
:10B430000F23FB181B785BB2181CBD4604B0B0BDCF
:10B44000EC2B0020B0B584B000AF021CFB1D1A70BD
:10B450000F23FB18FF221A700E23FB1800221A700C
:10B460000D23FB1800221A700C23FB1800221A70FF
:10B470000B23FB1800221A706B4B1B68002B01D1A9
:10B480008123CBE0684B1B682E229A5C0E23FB18AD
:10B490001A700E23FB181B78DBB21A1C1C239A436C
:10B4A000131CDAB2FB1D1B789B00DBB2191C1C239A
:10B4B0000B40DBB21343DBB2DAB20E23FB181A7077
:10B4C0000F23FC180D23FB18181C00F0D5F9031CE2
:10B4D00023700D23FB181B78002B42D000F006FBD5
:10B4E000031CDAB20F23FB181B78D318DAB20F2330
:10B4F000FB181A704C4B1B689B6B032098474A4BF8
:10B500001B682F229A5C0B23FB181A700F23FC1860
:10B510000B23FB18F520191C012200F013FC031C5F
:10B520002370414B1B682D229A5C0C23FB181A7068
:10B530000C23FB18F220191C012200F003FC031C51
:10B54000DAB20F23FB181B78D318DAB20F23FB18DB
:10B550001A700E23FB18F420191C012200F0F2FBD4
:10B5600011E0314B1B681D6B2F4B1B6829229A5C25
:10B570000F23FC180E23FB18101CF4211A1C0123A6
:10B58000A847031C2370284B1B68FA1D2B21127837
:10B590005A540F23FC180E23FB18F420191C012207
:10B5A00000F000FC031C23701F4B1B680E22BA180E
:10B5B00011782E2299540E23FB18F220191C012217
:10B5C00000F0F0FB031CDAB20F23FB181B78D31832
:10B5D000DAB20F23FB181A70134B1B680E22BA182D
:10B5E00011782D2299540E23FB18F520191C0122E5
:10B5F00000F0D8FB031CDAB20F23FB181B78D3181A
:10B60000DAB20F23FB181A70074B1B680E22BA1808
:10B6100011782F2299540F23FB181B785BB2181C4A
:10B62000BD4604B0B0BDC046EC2B002090B585B03F
:10B6300000AF021CFB1D1A700F23FB18FF221A70AB
:10B640000E23FB1800221A700D23FB1800221A701B
:10B650000C23FB1800221A700B23FB1800221A700F
:10B66000844B1B68002B01D18123FDE0814B1B68BB
:10B670002D229A5C0E23FB181A700E23FB181B78E0
:10B68000DBB21A1C07239A43131CDAB2FB1D1B788A
:10B69000191C07230B40DBB21343DBB2DAB20E23D3
:10B6A000FB181A700F23FC180B23FB18181C00F052
:10B6B000E3F8031C23700B23FB181B78002B52D0DC
:10B6C00000F014FA031CDAB20F23FB181B78D3180E
:10B6D000DAB20F23FB181A70664B1B689B6B0320B2
:10B6E0009847644B1B682F229A5C0C23FB181A7036
:10B6F0000C23FB18F520191C012200F023FB031C6E
:10B70000DAB20F23FB181B78D318DAB20F23FB1819
:10B710001A700E23FB18F220191C012200F012FBF4
:10B72000031CDAB20F23FB181B78D318DAB20F23ED
:10B73000FB181A704F4B1B682E229A5C0D23FB18C6
:10B740001A700D23FB18F420191C012200F0FAFADC
:10B75000031CDAB20F23FB181B78D318DAB20F23BD
:10B76000FB181A702FE0434B1B681C6B414B1B6886
:10B7700029229A5C0E23FB18101CF2211A1C0123AB
:10B78000A047031CDAB20F23FB181B78D318DAB2D8
:10B790000F23FB181A70374B1B682E229A5C0D235F
:10B7A000FB181A700D23FB18F420191C012200F05D
:10B7B000C9FA031CDAB20F23FB181B78D318DAB2CC
:10B7C0000F23FB181A702B4B1B68FA1D2C211278C3
:10B7D0005A540E23FB18F420191C012200F0E2FA3F
:10B7E000031CDAB20F23FB181B78D318DAB20F232D
:10B7F000FB181A701F4B1B680E22BA1811782E22E4
:10B8000099540E23FB18F220191C012200F0CAFAE9
:10B81000031CDAB20F23FB181B78D318DAB20F23FC
:10B82000FB181A70134B1B680E22BA1811782D22C0
:10B8300099540E23FB18F520191C012200F0B2FACE
:10B84000031CDAB20F23FB181B78D318DAB20F23CC
:10B85000FB181A70074B1B680E22BA1811782F229A
:10B8600099540F23FB181B785BB2181CBD4605B01A
:10B8700090BDC046EC2B0020B0B584B000AF78601E
:10B880000F23FB18FF221A700E23FB1800221A70D8
:10B89000134B1B68002B01D181231CE0104B1B684C
:10B8A0005D6B0F4B1B6829229A5C0F23FC180E233B
:10B8B000FB18101CF4211A1C0123A847031C237039
:10B8C0000E23FB181B7803221340DAB27B681A7030
:10B8D0000F23FB181B785BB2181CBD4604B0B0BD2B
:10B8E000EC2B0020B0B584B000AF021CFB1D1A7019
:10B8F0000F23FB18FF221A700E23FB1800221A7068
:10B900000D23FB1800221A700C23FB1800221A705A
:10B910000B23FB1800221A700A23FB1800221A704E
:10B92000714B1B68002B01D18123D7E0FB1D1B78D5
:10B93000032B00D9CBE06C4B1B682E229A5C0E23A4
:10B94000FB181A700E23FB181B78DBB21A1C03239A
:10B950009A43131CDAB2FB1D1B78191C03230B40FE
:10B96000DBB21343DBB2DAB20E23FB181A700F23DB
:10B97000FC180D23FB18181CFFF77EFF031C237017
:10B980000D23FB181B78002B4CD000F0AFF8031CE4
:10B99000DAB20F23FB181B78D318DAB20F23FB1887
:10B9A0001A70514B1B689B6B032098474E4B1B68CA
:10B9B0002F229A5C0B23FB181A700F23FC180B2301
:10B9C000FB18F520191C012200F0BCF9031C2370A0
:10B9D000454B1B682D229A5C0C23FB181A700C2314
:10B9E000FB18F220191C012200F0ACF9031CDAB29A
:10B9F0000F23FB181B78D318DAB20F23FB181A7029
:10BA00000E23FB18F420191C012200F09BF9031CE3
:10BA1000DAB20F23FB181B78D318DAB20F23FB1806
:10BA20001A7011E0304B1B681D6B2F4B1B682922CD
:10BA30009A5C0F23FC180E23FB18101CF4211A1C0F
:10BA40000123A847031C23700F23FC180A23FB18AB
:10BA5000F420191C012200F0A5F9031C2370224BCD
:10BA60001B680A22BA1811782E2299540A23FB184F
:10BA7000F220191C012200F095F9031CDAB20F2301
:10BA8000FB181B78D318DAB20F23FB181A70164B69
:10BA90001B680A22BA1811782D2299540A23FB1820
:10BAA000F520191C012200F07DF9031CDAB20F23E6
:10BAB000FB181B78D318DAB20F23FB181A700A4B45
:10BAC0001B680A22BA1811782F22995403E00F2319
:10BAD000FB18FE221A700F23FB181B785BB2181C90
