:020000021000EC
:106000000040002075CA0100BDCA0100CD94010006
:106010000000000000000000000000000000000080
:10602000000000000000000000000000C1CA0100E4
:106030000000000000000000C3CA0100C5CA010042
:10604000C7CA0100C7CA0100959C0100C7CA010068
:10605000C7CA01000000000089C50100C7CA0100CD
:10606000C7CA0100C7CA0100C57C0100C7CA010038
:10607000C7CA0100C7CA0100C7CA0100C7CA0100D8
:10608000C7CA010099AD0100C7CA0100C7CA010013
:1060900039AE0100C7CA010065A60100C7CA0100E8
:1060A000C7CA0100C7CA01000000000000000000CC
:1060B00000000000000000000000000000000000E0
:1060C000164B002B00D1144B9D46402292029A1A87
:1060D000924600218B460F461348144A121A07F0C5
:1060E00021F90F4B002B00D098470E4B002B00D00E
:1060F00098470020002104000D000D48002802D020
:106100000C4800E000BF07F0CFF82000290003F0A2
:10611000C7FB07F0B3F8C0460000080000400020AD
:106120000000000000000000282100209034002022
:10613000000000000000000077DF704778DF704744
:106140007ADF70477CDF704760DF704768DF704739
:10615000A023EF210322DB05C90030B5A1205A504E
:106160008021C000C90519500C2104250B4C195180
:106170000B4C1D510B4C1951043C1A518024E40066
:106180001C50E320C00019501038195006495A50CD
:1061900049195A5005495A5030BDC04654070000AD
:1061A000240700002C0700000C0700001C0700005B
:1061B000A023EE210322DB05C9005A5005495A509D
:1061C000A1228021D200490599508021890599504A
:1061D0007047C04674070000002307B502200093F3
:1061E0000A211522154B04F0E5FF002803D03C21BD
:1061F000134A03F04DF913480121134A05F03AF808
:10620000002803D03F210E4A03F042F90F48012134
:106210000F4A05F02FF8002803D04021084A03F068
:1062200037F90C4801210C4A05F024F8002803D066
:106230004121034A03F02CF907BDC0462821002064
:1062400088DB010048340020D99701007833002012
:1062500029710100803300201D980100164910B5F6
:106260000520583106F0DCF9002803D04921134AF3
:1062700003F00EF9C122124992008858114B124CBA
:106280000340C020000403438B501049201C0A1C0B
:106290000F4B06F0F9F9002803D04E21074A03F00E
:1062A000F7F8207806F014FA002803D05021034AAA
:1062B00003F0EEF810BDC046A828002088DB0100DE
:1062C00000E100E0FFFF00FF7C33002040082000D9
:1062D000C17001001FB5012202AC23781F4993430E
:1062E000237008203C314F32002304F08BF9002842
:1062F00003D05F211A4A03F0CBF8002301A80370F2
:10630000FFF722FF002803D06721154A03F0C0F8E9
:10631000144804F093F9002803D06B21104A03F0CD
:10632000B7F8114804F094F9002803D06E210C4A04
:1063300003F0AEF80420FFF7FFFE002803D0712120
:10634000074A03F0A5F80120211CFFF7FFFE0028F3
:1063500003D07421024A03F09BF81FBD28290020B6
:1063600088DB0100E596010009970100064A08B59F
:10637000082014210C3206F035FA002803D07B21C6
:10638000024A03F085F808BDA829002088DB010037
:106390001FB505F043FA002803D08821194A03F0FD
:1063A00077F8A223A022DB00D205D258012392085D
:1063B00093436A466846137005F034FE002803D004
:1063C0008E21104A03F064F80A2000216844062256
:1063D00006F0A8FF1E2301ACE380113B2372063BAD
:1063E00063720933A372084B084801930123211CEF
:1063F000237105F085FE002803D09D21014A03F09A
:1064000047F81FBD88DB0100C996010085330020D5
:106410001FB5002301A814490B220370FFF792FE59
:10642000002803D0AE21114A03F032F80020FFF714
:1064300085FE002803D0B1210C4A03F029F850232F
:1064400002A80380DB1843809B3B83808C33FF339F
:10645000C380FFF775FE002803D0BB21034A03F079
:1064600017F805B000BDC04692DB010088DB0100D3
:1064700010B51A4C92B000215022201C06F052FF99
:10648000174B6A4600930123201C13716946EF33B2
:1064900053719371D37102F09FFD002803D0DC216A
:1064A000104A02F0F5FF4022002102A806F03AFF50
:1064B00002A80D4904F042F8112211AB1A704523CD
:1064C00000226B4402A81A7003F06AFF002803D070
:1064D000EA21044A02F0DCFF12B010BDD4330020E0
:1064E0001197010088DB01009EDB010030B59FB0F1
:1064F0006B46DD1D062302AC00213822201C2B70C8
:1065000006F010FF02230021237010A8013B38225F
:10651000A370A380A56006F005FF201C10A904F05D
:10652000A5FA002804D08221024A490002F0B0FFF7
:106530001FB030BD88DB010010B588B001AC201C55
:1065400000211C2206F0EEFE0C4B201C6360A023F1
:10655000DB02A36003232373023B2374084B6361B4
:10656000084BA36104F026FB002804D08D21064AC5
:10657000490002F08DFF08B010BDC04655D500009F
:10658000659501005595010088DB010008B500F014
:1065900053FD002804D02221214AFF3102F078FF68
:1065A00001F04EF9002804D092211D4A490002F062
:1065B0006FFF03F0B9FD002805D194211948490067
:1065C000174A02F065FF362000F0A2FE002804D032
:1065D0002C21134AFF3102F05BFF342000F082FFD0
:1065E000002804D097210E4A490002F051FF732081
:1065F00000F03EFF002804D03221094AFF3102F0AA
:1066000047FF762002F050FC002804D09A21044A6B
:10661000490002F03DFF682001F0DCFE08BDC046E5
:1066200088DB010001100000FA2010B5C00006F060
:10663000B5F8274C201C00F0B7FA002804D0A3219D
:10664000244A490002F024FF00F0C6FA002804D0D2
:106650004821204AFF3102F01BFF201C00F09AF96C
:10666000002804D04C211B4AFF3102F011FF00F03A
:10667000A9F9002804D0A621164A490002F008FF13
:10668000201C00F097FB002804D0A821114A4900E3
:1066900002F0FEFE00F0A6FB002804D052210D4AB5
:1066A000FF3102F0F5FE00240B4B201C1C7000F0A3
:1066B00089FDA021094B09031868221C04F000FE83
:1066C000A04204D0AD21034A490002F0E1FE10BD12
:1066D000D433002088DB010084330020783300208D
:1066E0000122A02008B50D490D4BC0025A500D499A
:1066F0005850A120C0001958114319501A600A4B74
:106700000A491868002204F0DBFD002804D0B221F9
:10671000074A490002F0BCFE08BDC0460C05000057
:1067200000000140040500008033002055D5000022
:1067300088DB010000B5114BA1B01A7E104B1B7E07
:10674000134303D10F4B1B7E002B14D00E4B0B2198
:106750001868002204F0B4FD002804D0C2210B4ABE
:10676000490002F095FE0A49684606F0B5FE002091
:10677000694600F031FF21B000BDC04688330020DB
:1067800028340020B03300204834002088DB01008A
:10679000A8DB010000B50B4BA1B0186804F0D8FDD0
:1067A000002804D0C821084A490002F071FE68465A
:1067B000064906F091FE6946002000F00DFF21B069
:1067C00000BDC0464834002088DB0100D3DB010057
:1067D000A0DF7047A2DF7047A6DF704763DF704716
:1067E000F0B595B0051C0E1C04A85349102206F004
:1067F00090FD0E24002D00D19AE0002E00D197E0EC
:1068000001235B42AB82336804A8AB610023291CDF
:10681000AB75FFF7E3FF041E00D089E02B7802A9D7
:106820008B700123AA1C01200B80FFF7D1FF041EEF
:1068300000D07DE00122102313436A461370012229
:10684000102313436A4653706B4602220DAF9A70B1
:10685000211C1C22381C06F065FD10223B7808AE76
:1068600013433B706B466A467B612B78211C937304
:106870006B4603229A810122102313436A46137147
:106880000122102313436A4653716B460322301CC6
:106890009A71142206F046FD03AB089301AB7360B6
:1068A000012333811423B3812B1C6888391C321CCB
:1068B0000C33FFF78FFF041E3AD1211C1C22381C19
:1068C00006F030FD0C233A780F2113436A463B70E3
:1068D0002B78301C93736B4602229A81E3B28B4370
:1068E0000E390B430E310B4001310B4369460B71DE
:1068F0000F23A2B2120A9A430E3B1A430E331A40D8
:1069000001331A434A7103228A71211C142206F0B2
:1069100009FD03AB089301AB73600123338114239A
:10692000B38168882B1D391C321CFFF753FF041CF0
:10693000201C15B0F0BDC0463DDC0100F0B587B0AD
:106940006B46051C00919E1DDA800E20002D1CD088
:10695000AF8A0F4B06389F4217D0AB7D002B14D067
:1069600093B20138142B10D802AC0021201C102245
:1069700006F0D8FCAB89381C2380009B211CE36007
:106980000123A660A370FFF727FF07B0F0BDC04644
:10699000FFFF000010B5A0B0041C0849684606F0CF
:1069A0009BFD6946002000F017FE00200021044BEB
:1069B000186159611C60187620B010BD4DDC0100D3
:1069C0008833002030B5A1B01D49684606F084FD2B
:1069D0000020694600F000FE1A4C00222368251CA6
:1069E0003633187800232261636101230340237644
:1069F0004009042813D806F067F803050B0D0F00B3
:106A0000114800E0114803F0F5FAA860E9600CE0D5
:106A10000F48F8E70F48F6E7FA208000F3E7FA207E
:106A2000800003F0E7FAA060E16068460A4906F0DA
:106A300053FD6946002000F0CFFD002021B030BD9D
:106A40005ADC0100883300208096980040420F00F5
:106A5000A0860100102700007DDC010010B5A2B067
:106A600001A802F077FA041C02A8002C07D00E49F6
:106A700006F032FD02A9002000F0AEFD10E0019A00
:106A80000A4906F007FD02A9201C00F0A5FD084BED
:106A900001A918680422012302F0F0FB03F0ACFA0C
:106AA000201C22B010BDC04699DC0100BEDC0100F4
:106AB0008833002030B51D4BA1B01A7E002A01D1C9
:106AC00000242FE001201C695D6900210019694143
:106AD000DA68186159618A4207D802D19A688242FD
:106AE00003D800200021186159611A69012AE7D1F1
:106AF0005A69002AE4D10E490C78002C0DD1FFF719
:106B0000ADFF051E0ED00B49684606F0E5FC201CC3
:106B1000694600F061FD2C1C04E000200021141CDB
:106B200018615961201C21B030BDC0468833002057
:106B300084330020CDDC010070B5184EA0B0306861
:106B4000F021012202F0E6FB051E09D01449684637
:106B500006F0C2FC0020694600F03EFD281C1BE048
:106B6000FFF730FF041E0ED16A46FF2369461370FB
:106B700053709370D37030680422FE3B02F07EFBAA
:106B800003F03AFA07E00749684606F0A5FC281C1E
:106B9000694600F021FD201C20B070BD8833002024
:106BA000EBDC010018DD010010B5A0B0041C0849A1
:106BB000684606F091FC6946002000F00DFD0020BB
:106BC0000021044B186159611C60187620B010BD7B
:106BD00036DD01002834002030B5A1B01B496846DD
:106BE00006F07AFC0020694600F0F6FC184C002202
:106BF0002368251C0133D87F0023226163610123B0
:106C000003402376400903280FD805F05DFF0204F6
:106C10000A0C104800E0104803F0ECF9A860E960A5
:106C200009E00E48F8E70E48F6E7FA20C00003F046
:106C3000E1F9A060E16068460A4906F04DFC69464A
:106C4000002000F0C9FC002021B030BD45DD01006E
:106C5000283400208096980040420F00A086010052
:106C60001027000074DD010010B5A2B001A802F0E9
:106C700055F9041C02A8002C07D00E4906F02CFC84
:106C800002A9002000F0A8FC10E0019A0A4906F0D1
:106C900001FC02A9201C00F09FFC084B01A9186808
:106CA0000422231C02F0EAFA03F0A6F9201C22B009
:106CB00010BDC04692DD0100BCDD0100283400207B
:106CC00030B51D4BA1B01A7E002A01D100242FE05F
:106CD00001201C695D69002100196941DA681861A9
:106CE00059618A4207D802D19A68824203D80020AB
:106CF0000021186159611A69012AE7D15A69002AED
:106D0000E4D10E490C78002C0DD1FFF7ADFF051E24
:106D10000ED00B49684606F0DFFB201C694600F0E8
:106D20005BFC2C1C04E000200021141C186159613C
:106D3000201C21B030BDC046283400208433002000
:106D4000CDDD010070B5184EA0B03068F0210022F2
:106D500002F0E0FA051E09D01449684606F0BCFBB3
:106D60000020694600F038FC281C1BE0FFF734FFC8
:106D7000041E0ED16A46FF23694613705370937048
:106D8000D37030680422231C02F078FA03F034F93F
:106D900007E00749684606F09FFB281C694600F09B
:106DA0001BFC201C20B070BD28340020EDDD01004C
:106DB0001CDE010010B5A0B0041C0849684606F0AE
:106DC0008BFB6946002000F007FC00200021044BEB
:106DD000186159611C60187620B010BD3CDE0100BE
:106DE000B033002030B5A1B01B49684606F074FBF3
:106DF0000020694600F0F0FB184C00222368251C97
:106E00004C33187800232261636101230340237609
:106E1000400903280FD805F057FE02040A0C104859
:106E200000E0104803F0E6F8A860E96009E00E48C9
:106E3000F8E70E48F6E7FA20C00003F0DBF8A060A0
:106E4000E16068460A4906F047FB6946002000F009
:106E5000C3FB002021B030BD4ADE0100B03300206A
:106E60008096980040420F00A08601001027000085
:106E70006DDE010010B5A2B001A802F087F8041C75
:106E800002A8002C07D00E4906F026FB02A900201C
:106E900000F0A2FB10E0019A0A4906F0FBFA02A9F1
:106EA000201C00F099FB084B01A91868042202235A
:106EB00002F0E4F903F0A0F8201C22B010BDC04697
:106EC0008ADE0100B0DE0100B033002030B51D4B7A
:106ED000A1B01A7E002A01D100242FE001201C69F4
:106EE0005D69002100196941DA68186159618A42B7
:106EF00007D802D19A68824203D800200021186185
:106F000059611A69012AE7D15A69002AE4D10E4968
:106F10000C78002C0DD1FFF7ADFF051E0ED00B49EC
:106F2000684606F0D9FA201C694600F055FB2C1C77
:106F300004E000200021141C18615961201C21B0BC
:106F400030BDC046B033002084330020BFDE0100D6
:106F500070B5184EA0B03068F021022202F0DAF9C4
:106F6000051E09D01449684606F0B6FA00206946A5
:106F700000F032FB281C1BE0FFF734FF041E0ED18B
:106F80006A46FF236946137053709370D37030685C
:106F90000422FD3B02F072F903F02EF807E00749E6
:106FA000684606F099FA281C694600F015FB201C7B
:106FB00020B070BDB0330020DEDE01000CDF010028
:106FC00000B5A1B068460A4906F086FA6946002075
:106FD00000F002FB0122074B03211A700022064B2E
:106FE0001D201A70803200F08FFC21B000BDC04619
:106FF0002BDF0100102B0020D033002000B5A1B002
:1070000068460A4906F068FA6946002000F0E4FA8A
:107010000122074B03215A700022064B1D201A70D3
:10702000803200F071FC21B000BDC04643DF01009A
:10703000102B0020D033002000200122024B1870BA
:10704000024B1A707047C046D0330020A83300208E
:1070500010B5041CA0B0002802D0FFF7B1FF0CE06F
:107060000749684606F038FA201C694600F0B4FA71
:10707000044B1D201C7000F013FC20B010BDC04656
:1070800057DF0100102B002010B5041CA0B0002811
:1070900002D0FFF7B3FF0CE00749684606F01CFA80
:1070A000201C694600F098FA044B1D205C7000F02B
:1070B000F7FB20B010BDC04670DF0100102B002090
:1070C00070B580252D01A0B0061C0C1C284202D0F2
:1070D0000020FFF7BDFF2C4201D0FFF771FF802594
:1070E000AD032E4202D00020FFF7CEFF2C4201D08C
:1070F000FFF784FF630610D50949684606F0ECF9EE
:107100000020694600F068FA684600F059F9002846
:1071100003D04A21034A02F0BBF920B070BDC0463B
:1071200085DF01009EDF0100012070B5A026A225A9
:10713000011CF605ED001E4C72592378D20AA2B04C
:107140009143994202D05840FFF782FF0120011C71
:1071500072596378520D9143994202D05840FFF71B
:1071600093FF144B1D78002D20D1134902A806F07F
:10717000B3F9281C02A901AD00F02EFA281C00F07A
:1071800013F900280ED121786A780123002900D153
:10719000637802A8094906F07DF902A9002000F0F1
:1071A0001BFA03E06421064A02F072F922B070BDB6
:1071B000102B002084330020DADF0100F5DF01000E
:1071C0009EDF010038B5051E0AD08021A123A02230
:1071D000DB00D205C905D15001220B4B1A7012E019
:1071E00001240A4A53781278634054401C4000F04E
:1071F000A9FBA04207D28021A022054BC905D205D8
:10720000D150014B1D7038BDA8330020102B002039
:107210000C050000B0B5131C6C460833DB08DB001E
:10722000E31A00AF9D466C4600232070D8B290420E
:1072300004D2CD5CE01845700133F7E7064B211C02
:107240001878012302F0AAFF002801D0002000E0F6
:107250000248BD46B0BDC046122B002001400000D0
:1072600073B56B46141C0122154ED9710733051CEA
:10727000191C3078131C02F091FF00281BD0012349
:107280003078291C1843221C02F088FF002814D0F3
:107290000423C046C046C046C046C046C046C0469D
:1072A000C046C046C046C046C046C046C046013B78
:1072B000181EEED102E0034800E0034876BDC04648
:1072C000122B0020014000000240000013B501AC69
:1072D000201C0C210222FFF7C3FF002801D00B481D
:1072E00013E0202263780C209343211C1E3A637024
:1072F000FFF790FF0028F2D120706070211C1A3037
:107300000222FFF787FF0028E9D116BD04400000E4
:1073100037B5234B400001AC18701821201C022205
:10732000FFF79EFF002801D01E4837E0201C0821EF
:107330000222FFF795FF0028F6D120706070211C13
:1073400006300222FFF766FF0028EDD12070607042
:10735000211C0A300222FFF75DFF0028E4D17C23C4
:10736000FF251830211C022223706570FFF752FFA1
:107370000028D9D197230C302370211C3B3B0222DB
:107380006370FFF747FF0028CED12070211C143016
:1073900002226570FFF73EFF0028C5D13EBDC04602
:1073A000122B00200340000008B504210222FFF741
:1073B00057FF002800D0014808BDC0460540000026
:1073C00037B501AD041C1A21281C0222FFF748FF23
:1073D00000281CD101222B78134201D0207013E029
:1073E00002210B420AD10422134201D021700BE08A
:1073F000190701D5032306E0D90601D5227003E061
:107400009B0601D505232370FFF760FF00E00148CC
:107410003EBDC046064000000423C046C046C046EC
:10742000C046C046C046C046C046C046C046C0462C
:10743000C046C046C046013B002BEED1704700005D
:1074400007B5094A01AB187059701078191C02224F
:10745000012302F0A3FE002803D0FFF7DDFF002088
:1074600000E002480EBDC046132B0020164000006D
:1074700010B50F4C6378002B17D1FF21400020700E
:107480000320A170FFF7DCFF011E01D009480DE0C9
:107490000220FFF7D5FF011EF8D10120FFF7D0FF32
:1074A0000028F3D10123637000E0034810BDC046FB
:1074B000132B0020074000000640000008B5031C05
:1074C0000A1C06490878191C012302F067FE0028EF
:1074D00001D0002000E0024808BDC046162B002065
:1074E0000130000007B5074B400018706B46D81DEF
:1074F000822301210370FFF7E1FF002800D002483A
:107500000EBDC046162B002003300000F0B5161C3F
:107510001822071C424303202E4B85B09A18D36AC9
:107520000391184002280DD0111C2031936A49683C
:107530005B1A013B01D5126A9B189E4202DD0028AE
:1075400045D01E1C0020864241D001901822101CFC
:107550007843204B1818011C2031846A4968641A4A
:10756000191C013C01D5036AE4187A438A18101CDF
:10757000136A20300293536A029AD31A9C4201DBA9
:107580004468141BB44200DD341C18231D1C781CF5
:1075900043437D43CB184D196A6A58680399801894
:1075A000221C05F0B6FE019B361B1B190193039BA1
:1075B000029A1B1903936B6A20351C196C606B6867
:1075C000934201D100236B60002EBFD1019805B01A
:1075D000F0BDC0460020002010B50A1E06D00B1CCE
:1075E0001C785A1A002C01D00133F9E7FFF78EFFFF
:1075F00010BD0000002170B500781F4BCAB25C18A6
:1076000065781C1C854200D1101C01310429F4D17D
:10761000421CD100635C012B08D161184B78002B10
:1076200001D1CB7800E000234B701EE0022B21D16A
:1076300063189D785978002D06D0DE780431B14268
:1076400008DB5E70002103E0042903DC01215D708A
:1076500099700AE0D300E31859780426002D00D170
:10766000F836D3007118E3185970D200A31859786E
:1076700000F0D0FA70BDC04678200020F8B5002395
:10768000234CDDB2E21852785F1C82423CD1061CCA
:10769000002000F0DBFAFB00E318586803F058FE06
:1076A000032D0DD0691C63185B7865196B704B1C3A
:1076B000CA00DB00A218E31821CB21C2CDB2EFE74C
:1076C000FF2300250121201C2371631CDD77A31CEF
:1076D000DD77E31CD977231DDD770E4A243003F0D4
:1076E000C9FD2378201C013B237000F08FF92B1C6F
:1076F000221C3832995CB14202D1FF21D15406E0FC
:107700000133042BF4D102E03B1E042BB8D1F8BDA9
:1077100078200020F5750100F0B5051CA5B0019199
:1077200003921E1CFFF7AAFF2B1CA0220321C133CA
:10773000FF33D2059B0099500123AB400027394904
:107740005350394C7A1CE3195B780292FF2B62D1BB
:10775000012E04D13220019B4343019308E06420B1
:10776000019B5843039B9908490005F047FA019093
:10777000002000F06BFA6A46E7197D702378127BCF
:1077800001332370029BDB00E654E318DA70002318
:10779000221C3832995CDFB2FF2901D1D55403E0B5
:1077A0000133042BF4D11F1C201C00F02FF90028FA
:1077B00004D0281CFFF762FF1C4C30E0029B0199AB
:1077C000DB00E318CA0302934B0C0021184838343D
:1077D00080185941174A002305F002FB029B011C47
:1077E000E219586803F06CFD041EE2D12B1C1C3B0F
:1077F000012B02D80120FFF7E5FC012000F026FA5A
:1078000004A80D492A1C331C05F044FE04A90020DD
:10781000FFF7E2FE03E0029F042F92D1074C201CE9
:1078200025B0F0BD0C0500007820002005600000A8
:10783000DC050000B80B000028E001000360000038
:1078400038B5094B1D1C2C331C1C0C35281C012180
:10785000064A03F00FFD002803D10835A542F5D1F3
:1078600000E0034838BDC04678200020F5750100CF
:107870000460000010B5041CFFF700FF0120FFF7B3
:10788000A1FC231CA02203210120C133FF33D20518
:107890009B009950A123A040DB00D050002010BDD8
:1078A00010B5041CFFF7EAFE0020FFF78BFC012057
:1078B000231CA0220321A040C133FF33D2059B002B
:1078C0009950024BD050002010BDC0460C0500005E
:1078D00070B5041C0E1C151CFFF7D0FE231CA02243
:1078E0000321C133FF33D2059B0099500123181C9B
:1078F000A04004495050311C2A1C201CFFF70CFFEB
:1079000070BDC0460C05000070B5041C0E1C151C93
:10791000FFF7B4FE231CA0220321C133FF33D2059D
:107920009B0099500123A3400549201C53500A2174
:1079300071432A1CC9B20223FFF7EEFE70BDC04698
:107940000C0500000023064AD21852781C3A012A7E
:1079500004D90133042BF6D1002000E00120704748
:107960007820002045DF704747DF70474EDF7047C3
:1079700050DF704710B50C4B041C1B6899420AD8A5
:1079800000208C420FD3094A1268D31A59188C422E
:107990008041404207E0CB1A01209C4203D30023E0
:1079A0008C425B41D8B210BDB4200020282F0020AB
:1079B00010B5041E0F2C06D8C0B2FFF7D5FF01206A
:1079C000A040FFF7CFFF10BD012230B5151CA12349
:1079D000A0248D40DB00E405E550094B8000C01871
:1079E000A223084CDB00C450C046C046C04602601B
:1079F000054A09021143C150C046C046C04630BDC9
:107A000000600040031F010003001300F7B5037876
:107A1000041C013B032B00D9D7E0031C3433187836
:107A2000052800D9D1E0A222694FD200694B05F0A8
:107A30004BF80305070C1012092107E009210BE0A0
:107A40000621B950FA22920008E00321B9506422BD
:107A500004E0012100E00021B950FF221A60A222B7
:107A6000D200BA585C49895C5C4A116022785A603D
:107A700000230192019A934217D2E118554D4A789A
:107A8000980008354251A0250326C132FF329200EA
:107A9000ED05565100254F4A3031183285504D4A78
:107AA0000978283299540133E4E7A1220023012503
:107AB000D200FD60BB50474A802611680420D16285
:107AC000A922D200B9509446454AB600BB50454A57
:107AD000B8511365D36493645364019A022A13D98D
:107AE000414AD560A125ED005351654651513C49AD
:107AF00053503E4990510B65CB648B644B64A22379
:107B00003349DB00C958D150019B002B2ED0314D99
:107B1000374B28352E783749B600F618231C283302
:107B20001878321CFFF744FF231C29331878321CC5
:107B30003149FFF73DFF0023264E30363370019B5D
:107B4000012B13D06D782A4BAD00ED18231C2A337E
:107B500018782A492A1CFFF72BFF231C2B3318788F
:107B600025492A1CFFF724FF0023737002252C34BB
:107B7000019B9D4218D2174B20782833EE5C1C4B9A
:107B8000B600F6181E4B321CE9188900FFF710FFEB
:107B90006078321C1B49FFF70BFF00220D4B0234AB
:107BA0003033EA540135E3E71748FFF7DFFE0123DE
:107BB000164A00201360074A3B605268022A06D921
:107BC000134A1360084A136001E001204042FEBDE1
:107BD00000A00040282F002047E00100B420002032
:107BE00004050000FCA0004000900040FC90004014
:107BF0000060004040A1004048A1004044A1004076
:107C00004E24001048910040E17E01000CAC004081
:107C10000C9C00401FB50B4B82009A185163012247
:107C200030331A5400236A4613701371FA220292F9
:107C30006A465371044B68460393FFF799FE05B0FB
:107C400000BDC046282F0020A086010070B517494E
:107C50000123174A002806D00B605268022A24D953
:107C6000144A136021E04B605068022801D9114981
:107C70004B600023834218D0111C2831595C0E4DF3
:107C800045310E4CFF3189000D51111C9C0008310B
:107C900065580121A026A940094DF6057151111C16
:107CA0000025183165500133E4E770BD00A00040A5
:107CB000282F002000900040001F030000600040BB
:107CC0000C050000A922F0B57E4C7F49E36AD20082
:107CD00023608B50606885B00291022801D97B49EE
:107CE0008B5000236364666C63689E4200D3E6E0B9
:107CF000231C30339A5D002A00D1DDE00022B5005C
:107D000065199A556B6B0193934212D1231C28334A
:107D10009B5D6F4945336F4AFF339B0099500123A8
:107D2000AA68A02193406C4AC9058B50019BAB61A6
:107D3000C2E0019B21688B4212D3231C28339B5D38
:107D4000634845336349FF339B0058500123A968BA
:107D5000A0208B40A121C005C9004350AA61ABE01F
:107D6000019BA364012E54D8331C5133FF33029A74
:107D70009B00D358544F0393E364AB69002B18D195
:107D8000231C28339E5DA968301CFFF71DFE0123CC
:107D9000524AAB61FB64BA5801998A4231D94D4AC3
:107DA000B600B3502DE078590199FFF7E3FD0028A4
:107DB0000CD10123029A494DD364029B039958596F
:107DC000414FFFF7D7FD0028F3D0ECE77B59039A2A
:107DD000934203D37B59019A93420BD33F4A029BB0
:107DE0009B58039A93420CD2374A3C4BD358019A82
:107DF000934206D3231C012128339B5D354A9B0007
:107E00009950636C029A5133FF33A16C9B00D1509F
:107E100052E0331C4F332D4FFF339B00DB5903934C
:107E2000E364AB69002B19D1231C28339E5DA9683C
:107E3000301CFFF7C9FD0123284AAB61FB64BA5827
:107E400001998A4232D9234AB600B3502EE01F4B23
:107E500001995859FFF78EFD00280BD101231B4AC9
:107E60001E4DD364131C03995859FFF783FD002856
:107E7000F4D0ECE7154B039A5B59934204D3134BB0
:107E8000019A5B5993420AD3144B039AFB589342CD
:107E90000CD20E4A114BD358019A934206D3231C9D
:107EA000012128339B5D0B4A9B009950636CA26CA7
:107EB0004F33FF339B00FA50636C013312E705B078
:107EC000F0BDC046282F002000A0004000900040D8
:107ED000001F0300006000400C0500004C0500007E
:107EE000064B02211A1C503210B511701C1C0028C0
:107EF00001D1FFF7E7FE201C503010BD282F0020D5
:107F0000F7B56B46141C0122184F0D1CD91D0870C3
:107F10003878131C4000C0B202F040F9061E01D1AF
:107F200015210CE001233878E2B240001843C0B2BA
:107F3000291C02F033F90423061E04D11B210C4A2C
:107F400001F0A6FA10E0C046C046C046C046C04692
:107F5000C046C046C046C046C046C046C046C046F1
:107F6000C046013B002BEED1301CFEBD4C3400203E
:107F700051E0010008B50122FFF7C2FF08BD002350
:107F800013B501AC211C022223706370FFF7B8FF08
:107F9000207863780002181800B216BD98B5131C3B
:107FA0006C460833DB08DB00E31A00AF18709D460F
:107FB0000020904204DA0130441E0C5D1C54F8E7A6
:107FC000094901320878D2B24000191CC0B201231D
:107FD00002F0E4F8041E03D15F21044A01F058FACC
:107FE000BD46201C98BDC0464C34002051E0010025
:107FF00007B56B46D9710733191C0122FFF7CEFF75
:108000000EBDF0B585B0019302ABDD1D00230C1C45
:10801000291C061C171C2B70FFF7ACFF002810D082
:108020000121B940E41B019B01340139A340A14067
:108030002F78DCB28F4321403943301C2970FFF781
:10804000D7FF05B0F0BD0322504308B525300B1C07
:10805000C0B206210432FFF7D4FF08BD08B50B1CDF
:10806000032148432730C0B20422FFF7CAFF08BDEE
:1080700008B5131C0122FFF7C4FF08BD07B50A0AA3
:1080800001AB1A7059700222191CFFF787FF07BD58
:1080900008B56B2007210122FFF7EAFF08BD08B5EC
:1080A000021C03216B20FFF7E3FF08BD08B5022186
:1080B000031C03226B20FFF7A4FF08BD08B5021CB8
:1080C00005216C20FFF7D4FF08BD08B5021C042170
:1080D0006C20FFF7CDFF08BD08B5021C03216C2002
:1080E000FFF7C6FF08BD08B5021C02216C20FFF790
:1080F000BFFF08BD08B5021C01216C20FFF7B8FFC7
:1081000008BD08B5021C00216C20FFF7B1FF08BDB7
:1081100008B5011C1920FFF76BFF08BD08B5022147
:10812000031C03221A20FFF76CFF08BD08B50221CB
:10813000031C03221D20FFF764FF08BD08B50421BE
:10814000031C02221B20FFF75CFF08BD08B50421B9
:10815000031C02221C20FFF754FF08BD08B5011CB8
:108160001320FFF78BFF08BD08B5011C1520FFF792
:1081700085FF08BD08B5011C1720FFF77FFF08BD6C
:1081800070B50D1C141C061CFFF7E8FF281CFFF738
:10819000EBFF201CFFF7EEFF024B5E809D80DC8032
:1081A00070BDC046802F002010B5041C7720FFF75B
:1081B000E6FE0123011C19406300002C02DA044A88
:1081C0001A43131C0B4319B27720FFF757FF10BD5A
:1081D0000080FFFF10B5041C7A20FFF7D0FE0123BA
:1081E000011C19406300002C02DA044A1A43131CD4
:1081F0000B4319B27A20FFF741FF10BD0080FFFF4B
:1082000010B5041C7D20FFF7BAFE0123011C1940A4
:108210006300002C02DA044A1A43131C0B4319B200
:108220007D20FFF72BFF10BD0080FFFF70B50D1CF8
:10823000141C061CFFF7B8FF281CFFF7CBFF201CFF
:10824000FFF7DEFF024B1E815D819C8170BDC04641
:10825000802F002010B5041C0621221C2320FFF7CC
:1082600007FF221C05212320FFF702FF0421221C07
:108270002320FFF7FDFE10BD08B5021C03212320BB
:10828000FFF7F6FE08BD08B54A1E9141031CCAB2AD
:108290006720191CFFF7ECFE08BD08B50421031C7C
:1082A00005223420FFF7ADFE08BD000008B501220D
:1082B00007212520FFF7DCFE00200C21FFF7C3FE7D
:1082C00003212620FFF794FE012207212720FFF734
:1082D000CFFE00200621FFF7C1FE01200C21FFF791
:1082E000B2FE0A212920FFF783FE0120011CFFF7BF
:1082F000B5FE012207212A20FFF7BAFE11216420D2
:10830000FFF776FE064B1878FFF7C7FF0020012124
:10831000FFF7B9FF0120011CFFF7B5FF08BDC046FC
:10832000802F002008B5021C00213820FFF7A0FE96
:1083300008BD08B5021C06216A20FFF799FE08BD9A
:1083400008B5021C02216A20FFF792FE08BD00005A
:1083500010B5094CE37BA07B1843237C1843FFF73F
:10836000E1FF0120FFF7ECFFE37BA07B1843237CB8
:108370001843FFF7DEFF10BD802F002038B5051E23
:1083800001D000F075F8114B1878FFF7C1FE104CC2
:108390002078FFF782FF0020FFF7C4FF0020FFF7DF
:1083A000C8FF0120FFF7CCFFE57301246C40201CBF
:1083B000FFF784FE201CFFF788FE201CFFF78CFED1
:1083C000281CFFF759FFFFF7C3FF38BDB820002076
:1083D000802F0020234B10B51870FFF759FE142092
:1083E00004F0DCF90120FFF761FE0120FFF7A6FE93
:1083F0000120FFF7ABFE1C4C0823E05E0A23E15E80
:108400000C23E25EFFF712FF0423E15E0623E25E27
:108410000223E05EFFF7B4FE0320FFF77FFE032098
:10842000FFF784FE114B1878FFF772FEFFF73EFF4F
:108430000120FFF734FE0020FFF7A0FF002000F02E
:108440002BF80020FFF76EFF0020FFF772FF0120DE
:10845000FFF776FFFFF77CFF062101226B20FFF775
:1084600007FE10BD4C340020802F0020B8200020D3
:1084700008B5074BDA7B002A09D19A7B002A06D17E
:108480001B7C002B03D1034B1878FFF7A3FF08BD1B
:10849000802F00204C34002038B5051E01D0FFF796
:1084A000E7FF114B1878FFF733FE104C2078FFF7E9
:1084B000F4FE0020FFF736FF0020FFF73AFF01200F
:1084C000FFF73EFFA57301246C40201CFFF70BFE55
:1084D000201CFFF70FFE201CFFF713FE281CFFF7E0
:1084E000B9FEFFF735FF38BDB8200020802F0020EF
:1084F000F0B585B000AF7A60F973002B0CD1012282
:108500000F334000F918C0B2131C01F047FE0123DD
:1085100058404042C0B224E069466C465B00B960F6
:10852000D91DC908C900611A8D460024FE7B9C42F2
:108530000BDA6508AA190A550A1994467A680234B2
:10854000555D6246E4B25570F1E74000DAB2C0B260
:10855000012301F023FE01235840BB6840429D46A1
:10856000C0B2BD4640B205B0F0BD08B504F016F982
:1085700008BDF8B5161C00221D1C131C041CFFF7B7
:10858000B7FF00281DD1012764003C433B1CE0B22B
:10859000311C2A1C01F002FE042378404042C0B284
:1085A000C046C046C046C046C046C046C046C0469B
:1085B000C046C046C046C046C046C046013B002B30
:1085C000EED140B2F8BD0000002373B501AC2370BA
:1085D0006370A3700C4B1A688123002A12D0131CFD
:1085E0002933051C566B1878221C0323FA21B04747
:1085F00063781A0123781B031343A27812091343EB
:108600002B60031C58B276BD942F002010B50D4B83
:1086100002111968C0100C88121B6400001B022490
:108620000B5F5843131C534304240A5F1B1353432B
:10863000C0129B13C31805205843803000124B62B0
:1086400010BDC046942F0020002373B501AC2370E9
:108650006370A3700C4B1A688123002A12D0131C7C
:108660002933051C566B1878221C0323F721B047C9
:1086700063781A0123781B031343A278120913436A
:108680002B60031C58B276BD942F002070B5274B89
:10869000274A1C684042636A5B109B189910494343
:1086A0001025625FCE1256430E25625F49135A436E
:1086B000550072190A26A55F921069430826A55F26
:1086C000C9106B435B10CB1880219B1409025B1807
:1086D000E18859430C25635FC9131B04D218121398
:1086E000144B801A5843144B0025C01805D4A942D6
:1086F0001AD0400004F0F2F904E0A94214D004F0CA
:10870000EDF94000C3085B431621625E5B0B5343E7
:108710001421625E850855431B136D131221625E9E
:108720005B199B181B11C518281C70BD942F0020C5
:108730000006FFFF350C0000000050C3002373B596
:1087400001AC237063700B4B1A688123002A0ED092
:10875000131C2933051C566B1878221C0223FD219B
:10876000B047237862781B0213432B60031C58B276
:1087700076BDC046942F0020F0B51D4B1D4A1D68E4
:1087800086036B6A1F219F181E23EA5E287F12054D
:10879000B41A2023EA5E80237A43DB01A21AD2189E
:1087A000EB1C5956802378431B02C012C01880234B
:1087B0007943891241439B038912C9181A23EC5E3D
:1087C000802361439B01CB189B13D2135A43D313CD
:1087D0005B43287EDB1143431B11D31AD843C822C5
:1087E000C01703405205934200DD131C1813F0BD5F
:1087F000942F002000D4FEFFF0B589B001AC201CFE
:1088000000211A2204F08EFD3F4D81202B68002BA1
:1088100000D175E01A1C29325E6B10788821221C69
:108820001A23B047627821782B6812020A431A8013
:108830000322A256A17812020A435A800522A256A8
:10884000217912020A439A80E279A17912020A433D
:10885000DA800922A256217A12020A431A810B22D7
:10886000A256A17A12020A435A810D22A256217BF6
:1088700012020A439A810F22A256A17B12020A43D6
:10888000DA811122A256217C12020A431A82132293
:10889000A256A17C12020A435A821522A256217DB9
:1088A00012020A439A821722A256A17D12020A439B
:1088B000DA82627E061C1A761A1C293210785F6BE7
:1088C000E121221C0723B8470122A2562178120277
:1088D0000A4303212B6880195A83A278C0B21A7701
:1088E000615622790D010F2111402943D9830521B9
:1088F0006156120909010A431A84A2790333DA770F
:1089000040B209B0F0BDC046942F002073B56A464E
:10891000D51D00222A70021C031C094E293230602A
:108920005C6BD021107801232A1CA04733682A7879
:1089300028331A70041CFFF75FFF001940B276BDA0
:10894000942F002073B56B46DD1D00232B700A4B5E
:108950001A688123002A0DD0131C2933041C566B7E
:1089600018782A1C0123F421B04703232A781340E6
:108970002370031C58B276BD942F002013B56B46AC
:10898000DA1DB6231370074B81201B68002B06D01D
:10899000191C293108781C6BE0210123A04740B243
:1089A00016BDC046942F002038B5084B041C1D6826
:1089B0008120002D07D0281C2930131C00780A1CA8
:1089C000211C2C6BA04740B238BDC046942F00201C
:1089D00038B5084B041C1D688120002D07D0281CC9
:1089E0002930131C00780A1C211C6C6BA04740B274
:1089F00038BDC046942F00200023F0B5364C85B01A
:108A000002AA571D5371961D9371D371226803AD4D
:108A100001902B7081209A425BD0019B2E3259012C
:108A200013781F221A400B1C381C13432B70FFF7BE
:108A300089FF3B78002B1ED0FFF7A0FF236803209F
:108A40009B6B9847236802AA2F331B78D11DD371E3
:108A5000F5200122FFF7A8FF2368311C2D331B7876
:108A60000122F2203370FFF79FFF291C0122F4201E
:108A7000FFF79AFF08E02368F4211A1C29321078C6
:108A80001E6B2A1C0123B0476A46236812792A33D9
:108A90001A70291C0122F420FFF79AFF23682A7814
:108AA0002E33061C1A70291C0122F220FFF790FFBA
:108AB00023682A782D3380191A70C6B20122F52056
:108AC000291CFFF785FF23682A7830182F331A7086
:108AD000C0B240B205B0F0BD942F00200023F0B525
:108AE000374C85B002AA571D5371961D9371D371EF
:108AF000226803AD01902B7081209A425CD0019BCB
:108B000065389B000340191C2E32137883430B43B6
:108B1000381C2B70FFF716FF3B78002B1ED0FFF799
:108B20002DFF236803209B6B9847236802AA2F33ED
:108B30001B78D11DD371F5200122FFF735FF236883
:108B4000311C2D331B780122F2203370FFF72CFFEC
:108B5000291C0122F420FFF727FF08E02368F421F5
:108B60001A1C293210781E6B2A1C0123B0476A4652
:108B7000236812792B331A70291C0122F420FFF785
:108B800027FF23682A782E33061C1A70291C01221D
:108B9000F220FFF71DFF23682A782D3380191A7001
:108BA000C6B20122F520291CFFF712FF23682A789C
:108BB00030182F331A70C0B240B205B0F0BDC046B5
:108BC000942F00200023F0B5434C85B002AA551D18
:108BD0009371D71DD371226803AE009033702B7050
:108BE00081209A4275D02D32137800997A3801404D
:108BF00083430B43381C3370FFF7A4FE3B7801908E
:108C0000002B27D0FFF7BAFE2368071C9B6B0320BD
:108C10009847236802AA2F331B78911D9371F52082
:108C20000122FFF7C1FE019B311C3F180122F220F7
:108C3000FF18FFF7B9FE2368FFB22E331B783F18E9
:108C4000291CF42001222B70FFF7AEFEFFB23F1863
:108C5000FEB216E02368F2211A1C293210781F6B2D
:108C6000321C0123B8472368061C2E331B78F420DE
:108C7000291C01222B70FFF797FE019B3618F6186E
:108C8000F6B26A46144C1278236803AD2C331A707E
:108C9000291C0122F420FFF79BFE23682A782E333B
:108CA0001A708619291C0122F220FFF791FE236811
:108CB0002A78F6B22D3330181A70C6B20122F52088
:108CC000291CFFF785FE23682A7830182F331A7085
:108CD000C0B240B205B0F0BD942F0020F7B56B468E
:108CE0006A46DE1C0023334C53719371D51D2268F4
:108CF00001AF33703B702B708133002A57D07D3326
:108D0000032854D82E32137803229343184330702B
:108D1000381CFFF717FE3B78002B1FD0FFF72EFE05
:108D2000236803209B6B98476A462368911D2F3365
:108D30001B78F52093710122FFF736FE6A462368FF
:108D4000511D2D331B78F22053710122FFF72CFEA9
:108D5000311C0122F420FFF727FE08E02368F421EC
:108D60001A1C293210781F6B321C0123B847291CAA
:108D70000122F420FFF72CFE23682A782E331A7084
:108D8000061C291C0122F220FFF722FE23682A7804
:108D90002D331A708619291C0122F520FFF718FEC1
:108DA0002268F6B2297833182F321170DBB258B22C
:108DB000FEBDC046942F00200023F0B5394D85B08C
:108DC00002AA53719371D371971DD61D2A6803AC03
:108DD00023708133002A62D01C212F321378800047
:108DE0008B43084018432070381CFFF7ABFD3B78DD
:108DF0000190002B27D0FFF7C1FD2B68071C9B6B50
:108E000003209847211C0122F520FFF7CDFD019B8F
:108E10003F18FF182B68311C2D331B780122F220DC
:108E20003370FFF7C1FD2B6802AA2E331B78FFB207
:108E30003F185371511DF4200122FFF7B5FDFFB219
:108E40003F18FFB209E02B68F5211A1C293210786F
:108E50001D6B221C0123A847071C211C0122F420A2
:108E6000FFF7B6FD0F4D22782B68C7192E331A7005
:108E7000211C0122F220FFF7ABFD2B6822782D3355
:108E8000FFB21A703F18211C0122F520FFF7A0FD48
:108E90002A68FFB221783B182F321170DBB258B22A
:108EA00005B0F0BD942F002008B5174A174B1A6380
:108EB000174A5A631A1C29321070164A181C9A63F2
:108EC000FFF724FD002801D013481BE00320FFF723
:108ED00005FF0028F8D1FFF76FFF0028F4D101301B
:108EE000FFF770FE0028EFD10130FFF7F7FD0028F3
:108EF000EAD10130FFF780FD0028E5D1FFF7EEFE53
:108F00000028E1D108BDC046F184010050340020A2
:108F1000738501006B85010003200000002313B559
:108F2000041C036001A80193FFF74EFB00280AD13F
:108F30000198FFF76BFB20600120FFF7CFFE0028B0
:108F400002D0024800E0024816BDC04601200000E1
:108F500002200000002313B5041C036001A8019344
:108F6000FFF772FB00280AD10198FFF78FFB206002
:108F70000120FFF7B3FE002802D0024800E00248BB
:108F800016BDC0460120000002200000002313B5DA
:108F9000041C036001A80193FFF7D0FB00280AD14D
:108FA0000198FFF7E9FB20600120FFF797FE0028FA
:108FB00002D0024800E0024816BDC0460120000071
:108FC00002200000A0DF7047A2DF7047A4DF7047D7
:108FD000A6DF704763DF7047F0B50B68041C0360C1
:108FE00001235B4203810A7903778272FF22837730
:108FF0004277C3774879621CD0773132137053704F
:109000009370D37088799375D37513765376231C38
:1090100010261071CA799FB04C331A708F490EA870
:10902000321C04F076F9A11D0EA8FFF7D3FF00282B
:1090300000D010E1A3790CA98B708923221D5B015C
:1090400001300B80FFF7BEFF031E00D003E1A57ABD
:10905000002D07D0311C013309AA194301331170C7
:109060005170937017AE00211C22301C04F05AF985
:10907000012202212A4012010A43691E8D4100216A
:109080006D42327009AA2A40726108AA1181102328
:10909000012208A81A43027203228272023A1A437A
:1090A000027301221343022212AD4373827314220E
:1090B000281C04F037F9A3790DAFBB70684B311C45
:1090C0003B800AAB6B6004232B810423AB81231C00
:1090D0001C332B610093A088103B2A1C129701932C
:1090E000FFF772FF002800D0B5E0A3790822BB701B
:1090F0005C4B68813B800BAB6B6001232B810123B0
:10910000AB81231C20332B613378311C1343043A89
:1091100013433370231CA08814332A1C1297029324
:10912000FFF752FF002800D095E0A3790822BB701A
:109130004D4B2F603B800AAB6B6004232B810423D3
:10914000AB81231C32332B610393337868819343C3
:10915000043A93433370231CA0882233311C2A1C09
:109160000493FFF731FF002875D1A3790822BB7063
:109170003E4B2F603B800BAB6B6001232B810123A7
:10918000AB81231C36332B61337868811343043A57
:1091900013433370231CA0882A33311C2A1C0593E7
:1091A000FFF712FF002856D1A3790822BB70304B7D
:1091B0002F603B800AAB6B6004232B810423AB81BF
:1091C000231C48332B610693337868819343043A18
:1091D00093433370231CA0883833311C2A1C079317
:1091E000FFF7F2FE002836D1A3790822BB70214B8D
:1091F0002F603B800BAB6B6001232B810123AB8184
:10920000231C271C4C332B61337868811343043AA9
:10921000134333704037A088311C2A1C3B1CFFF7D6
:10922000D3FE002817D1144B019A02215A60029AEA
:1092300018709A60009A9F62DA6001221A74049A88
:109240005A61059A9A61039ADA615A1CD177079A92
:109250005A62069ADA621FB0F0BDC0469EE0010075
:1092600033110000341100003511000036110000E8
:109270003711000038110000982F0020F0B50D1CA8
:109280002249041C087887B0984209D0087C98428B
:1092900008D0481CC67F05209E4234D1022602E039
:1092A000002600E001266B460020DA803301904260
:1092B00005DACB182F5CDB681F540130F6E7C918BC
:1092C0006B464F689A1D002138882B1CFFF77EFEE5
:1092D000011E18D126890E4B08309E4213D0A37A66
:1092E000002B10D002AC201C102204F01BF83B888D
:1092F000301C23800123A3706B46211C0633A3601E
:10930000E560FFF765FE07B0F0BDC046982F00206E
:10931000FFFF000030B585B06B460C1C0733111CF5
:109320000E221C7001246A441480A1420FD000292F
:1093300008D0022914D1011C1C784C310C70023069
:10934000C08F09E01D78441CE577808A05E0011C88
:109350001C7836310C70408D0021FFF737FE00E09D
:10936000002005B030BD73B50B88112B05D0502BF4
:1093700007D0102B49D18B8801E001235B42038188
:1093800043E0CA88838A0D1C041C8E1D9A4210D1AA
:10939000338B012B0DD10368002B0AD06B460022C2
:1093A00001911A70B17EFFF7B5FF201C6946236852
:1093B0009847EA88638D9A4210D1328B012A0DD1E9
:1093C0002368002B0AD06B4601951A70B17E201CD1
:1093D000FFF7A0FF201C694623689847A31CEA8872
:1093E000DB8F9A4211D1338B012B0ED12368002BD6
:1093F0000BD06B46022201951A70B17E201CFFF73C
:1094000089FF2368201C6946984773BD73DF704746
:1094100040DF704770B50D1C161C0C1C631BB3425B
:1094200004DA207800F0D4FD0134F7E70A2000F0D8
:10943000CFFD70BD10B5041CA0B01149684604F002
:109440004BF800206946FEF7C7F82478032C0CD0AF
:10945000042C07D0002C10D168460A4904F03CF8CF
:10946000201C07E06846084901E06846074904F007
:1094700033F800206946FEF7AFF820B010BDC046B3
:10948000BCE00100EBE00100D8E001000CE10100CC
:1094900030B5051C141CA1B00B1C2A1C68460949D8
:1094A00003F0F8FF69460020FEF796F8221C684694
:1094B000054903F0EFFF69460020FEF78DF821B063
:1094C00030BDC04632E1010059E1010000B5A1B054
:1094D0006846094904F000F869460020FEF77CF868
:1094E000064803F05BF9BFF34F8F054A054BDA607E
:1094F000BFF34F8FFEE7C0465DE101008813000017
:109500000400FA0500ED00E0031C00B50A1CA1B040
:10951000191C0B48FFF7BCFF68460A4903F0DCFF43
:1095200069460020FEF758F8074803F037F9BFF303
:109530004F8F064A064BDA60BFF34F8FFEE7C046F7
:10954000EFBEADDE87E10100881300000400FA05DC
:1095500000ED00E008B58B21014AFFF799FF08BD37
:10956000C0E1010010B50478A0B0002C07D1054976
:10957000684603F0B1FF201C6946FEF72DF820B0C5
:1095800010BDC046CAE1010010B5A6B001ACFCF7A1
:10959000ADFF201C0021142203F0C4FE4023201C38
:1095A000238274336382FFF731FF041E04D0B1219C
:1095B000094AFFF76DFF0CE0084906A803F08CFF8D
:1095C00006A9201CFEF708F81D200A21FF22FEF73D
:1095D0007FF926B010BDC046C0E101000BE20100DA
:1095E00010B5041C0088A0B0103809285BD803F01F
:1095F0006BFA0517525A5A5A5A5A5A492B49684611
:1096000003F06AFF69460020FDF7E6FF1D20FEF724
:1096100047F91D20FEF72EF9A288254B1A8042E05B
:10962000FDF7B8F80123224C5B42224968462380AB
:1096300003F052FF69460020FDF7CEFF1D20FEF724
:109640002FF922881C4B1A81FDF77CFB002803D0E0
:10965000DB211A4AFFF71CFFFDF76EFA002803D042
:10966000DF21164AFFF714FFFDF772FC002803D034
:10967000E321124AFFF70CFF0020FDF7A3FDFFF7DF
:1096800083FF10E0A479002C0DD168460C4903F04B
:1096900023FF201C04E068460A4903F01DFF002058
:1096A0006946FDF799FF20B010BDC0461CE20100DD
:1096B000BA20002035E20100D4330020C0E10100CF
:1096C00051E2010076E2010008B5002A05D022210E
:1096D000101CFF31024AFFF7DBFE002008BDC04628
:1096E000C0E1010010B5041C02F05EFD201CFFF774
:1096F00077FF201C01F08EFA0248211CFFF733FE91
:1097000010BDC046D433002008B502F011F808BDE2
:1097100010B50C1CA0B02949684603F0DDFE69466F
:109720000020FDF759FFFDF735F82478012C15D0FE
:10973000002C02D0022C23D036E0214B21490133EA
:10974000DA7F684603F0A6FE6946201CFDF744FF59
:10975000FDF742FA5E21002826D021E0184B1A4975
:1097600036331A78684603F095FE69460020FDF707
:1097700033FFFDF727F9002816D0B221490010E089
:109780000F4B12494C331A78684603F083FE694642
:109790000020FDF721FFFDF725FB002804D06C21F8
:1097A000FF310B4AFFF774FE0020FDF70BFD002090
:1097B000084A011C03F02CF820B010BD2BE3010077
:1097C000D43300203CE3010067E3010090E3010093
:1097D000C0E101003567010008B5FDF771FA002806
:1097E00004D08A210C4AFF31FFF752FEFDF762F9DF
:1097F000002804D0C721084A4900FFF749FEFDF7B9
:1098000065FB002804D09421034AFF31FFF740FE96
:109810000020FDF7D7FC08BDC0E10100C0230249CC
:10982000024ADB00D15070473546526E00000140BD
:1098300070B5061C03F058FE341CC5B2A31BDBB286
:10984000AB420BD2207800F0C3FB002804D0E82103
:10985000034AFF31FFF71CFE0134EFE770BDC0463D
:10986000C0E10100031C10B58AB20948191CFDF7BC
:1098700065F8084B0024984208D00823021C0134E4
:109880009A4303D00449054AFFF702FE201C10BD8D
:10989000C82F00200430000036020000C0E10100A3
:1098A000F0B5A7B0FCF754FC954906A803F014FEE8
:1098B00006A90020FDF790FEFCF77AFC914906A866
:1098C00003F00AFE06A90020FDF786FEFCF784FCE3
:1098D0008D4906A803F000FE06A90020FDF77CFED6
:1098E000FCF7FEFE894906A803F0F6FD06A9002054
:1098F000FDF772FEFCF7B2FC854906A803F0ECFD0B
:1099000006A90020FDF768FEFCF7E4FC814906A8E3
:1099100003F0E2FD06A90020FDF75EFEFCF726FD40
:109920007D4906A803F0D8FD06A90020FDF754FEE6
:10993000FCF72EFD794906A803F0CEFD06A900200C
:10994000FDF74AFEFCF764FD754906A803F0C4FD67
:1099500006A90020FDF740FEFCF78AFD714906A824
:1099600003F0BAFD06A90020FDF736FEFCF7BEFDA8
:109970006D4906A803F0B0FD06A90020FDF72CFEF6
:10998000FCF7DAFD694906A803F0A6FD06A9002048
:10999000FDF722FEFCF7FAFD654906A803F09CFDE1
:1099A00006A90020FDF718FEFCF73EFE614906A857
:1099B00003F092FD06A90020FDF70EFEA0248022F0
:1099C0005D4BE4055205E25080229205E2500020F2
:1099D000FDF7AAFBE823594ADB00E25003AC221C46
:1099E000574B23CB23C20A230022564D6B441A80C7
:1099F0002A1C291C1C32069220223C310792089115
:109A000009920093201C06A94F4A032300F0A4F9F1
:109A1000002803D04D494E4AFFF73AFD4D4B281C14
:109A200006A90693FCF7DCFE002804D0C621484AAC
:109A3000FF31FFF72DFD291C1E2301225C315E350D
:109A40000B802B7844481343E0321340D53A13433C
:109A5000143293432B700723CB7009330B71FFF73C
:109A6000E7FEFFF791FD02F069FF3C4B9B78002B6E
:109A700020D0201C00F084FA071E1BD1314D38493C
:109A80002E1C6236337863355A1C3270227806A851
:109A9000EA5403F021FD06A9381CFDF79DFD31783D
:109AA000132907D9281CFFF7DDFE2C4B98700028DE
:109AB00000D03770234D2B1C77331A78002A14D02E
:109AC0000026284906A81E7003F006FD06A9301CD2
:109AD000FDF782FD281C623563302978FFF7C2FE4E
:109AE0001E4B9870B04200D02E70FFF791FC0028FA
:109AF000B9D0D421164A4900FFF7CAFCB3E7C046E3
:109B0000BAE30100CBE30100D6E30100E3E3010087
:109B1000F7E3010004E4010014E4010029E401007A
:109B20003AE4010054E4010063E4010075E401003B
:109B300087E401009AE401000C0500000C0003001A
:109B4000B0E00100C82F002035940100270200007A
:109B5000C0E1010015940100ADE40100BA2000202D
:109B6000B7E40100D0E4010000220121044B1A7087
:109B7000044BD9605960A021C9005A507047C046B3
:109B8000403000200020004008B5064A1378DBB2C0
:109B9000012B04D0022B04D10323137001E0FFF743
:109BA000E3FF08BD4030002007B501226946054BA0
:109BB0006846DA60044B1A7002320A705B68984794
:109BC00007BDC046002000404030002037B5104C93
:109BD0002378022B02D001220E4B9A606B46201C88
:109BE000DD1D0830291C02F0ECFE002802D0FFF732
:109BF000DBFF0CE0C2218022064B89005A502878F6
:109C00000549585002212170C12189005A5037BDA1
:109C100040300020002000401C05000008B50C4B1F
:109C20001A78D2B2002A03D0032A10D102220DE002
:109C3000A02204200749D200885001220A605869F6
:109C40001969884202D0FFF7C1FF00E01A7008BD11
:109C5000403000200020004073B50D4C051CA36966
:109C60000E1C0340194208D0207F01A902F07CFDA0
:109C700000280CD1019B1D409E43A369334202D0B2
:109C8000FFF7CCFF03E02B4201D0FFF77DFF73BD50
:109C90004030002037B52D4DEB68002B26D0002337
:109CA0002B4CEB60E36AA26A9B1AA28C93421AD2F5
:109CB000A323201C274ADB00D1582030C9B202F070
:109CC0006EFE002804D001236A460190137006E05E
:109CD000E36AA26A9B1A012B08D16B46187063686D
:109CE0006846984702E00123303423702B6A002B2A
:109CF00017D00022154B1A62154A1378DBB2002BDD
:109D00000FD0022B04D9032B0BD1FFF72DFF08E056
:109D100051691369994202D0FFF758FF01E0FFF73C
:109D200043FFAB6A0B49002B0ED00022074B68465D
:109D30009A629022D2008B588B500222694601937E
:109D4000034B0A705B68984737BDC046FC20004053
:109D50004030002000200040F0B500247C4E85B04B
:109D60000A9F34707260A14201D10720EEE0051C09
:109D7000301C0C1C8A8820300968019302F0FEFD1B
:109D8000002800D0E2E0301CA2890830A16802F06F
:109D9000F5FD021E00D0D9E0A02103206B78C90593
:109DA000C133FF339B0058502B786A4CC133FF33CB
:109DB0009B005A506A78684BE2502A78674BE25011
:109DC000AA68674BE2506A79002A00D00E22654BE0
:109DD000E2502879022851D1AA780130C132FF32ED
:109DE000920088500122131CA8788340181C5E4BF7
:109DF000C8500123A2205B42C0002350AB78083832
:109E00002350584BE0581043E050101CEB7898401A
:109E1000B061C020C133FF339B008002C8503B8833
:109E2000E978002B0FD18A40301C111C1C304F4B9D
:109E300002F02AFC002800D088E0FF22337F1B02BA
:109E400013433B8003E0FE2B8FD91B0A3377307F0F
:109E500003A902F089FC002878D1307F02F038FC99
:109E6000002873D10123EA789340039A1A4202D161
:109E7000FFF7D4FE4DE0FFF787FE4AE03A883C4901
:109E8000012829D1002A04D13A480278531C0370D2
:109E90003A80A0230320AA78DB05C132FF3292006A
:109EA000D05001229C46131CA878A1278340181C7F
:109EB0006346FF00D851A0200423C0002350002097
:109EC000284BC8600862E1581143E150E9785C3BD7
:109ED000E150AB78E35119E0002A04D1254802781B
:109EE000551C05703A80A0220420D200A050002208
:109EF0001C4BCA600A62E15801329143E1500123D0
:109F0000A1215B42C900635008316350A260226006
:109F100032700122C22352429B00E250A122043B34
:109F20009200E2500424C025FF211348853BFF3BEB
:109F3000C450019AAD009201435911400F4A0904DF
:109F40001A400B1C134343510460002005B0F0BDC0
:109F500040300020002000400C05000014050000E7
:109F6000240500006C05000004050000599C010058
:109F7000FC200040BD20002000E100E0FFFF00FFCA
:109F800070B50F4C0422251C0E4B2035011CDA67DE
:109F9000281C02F016FD30342378061C002B09D053
:109FA000A323094ADB00D158281CC9B202F0F7FCF0
:109FB000002323700422054B301C1A6070BDC0467C
:109FC0004030002004E100E00020004000E100E01B
:109FD00038B5074C011C201C083002F0E0FC237847
:109FE000051C012B01D1FFF7F1FD281C38BDC0462F
:109FF000403000200021704700B50D4BA1B09842C1
:10A0000008D168460B4903F067FA69460020FDF75E
:10A01000E3FA0AE00823021C9A4306D0064B984252
:10A0200003D01421054AFFF733FA21B000BDC04622
:10A0300004300000EFE401000134000009E50100F4
:10A0400082B00190C046C046C046C046C046C04629
:10A05000C046C046C046C046C046C046C046C046D0
:10A06000019B013B0193002BECD102B07047000033
:10A07000A023F0B5284FDB00FA5885B00092A02449
:10A080000022264EFA50E405A359254A0193E02305
:10A09000A251DB00E15801250291E2500222F93B76
:10A0A000FF3BE5500420E250FFF7CAFFA223DB008C
:10A0B000E2580397371C2A4206D0E3581324EB409A
:10A0C0002B4202D0012018E01324013C002C13D0B5
:10A0D000A0250226134BED05EE500420FFF7B0FF3C
:10A0E000A123DB00EE500420FFF7AAFFA223DB0030
:10A0F000EB58DB07E9D5E5E7201CA023019ADB0537
:10A10000DA51E0220299D2009950A023039A0099D3
:10A11000DB00D15005B0F0BD004000400407000056
:10A120000D0600000C05000038B5A023124A1349A3
:10A13000DB055A5004395A50114B0022191CFC31CE
:10A14000CA600A62A12101200E4CC90058501A5160
:10A15000CC240D4A64049C50A2240C4A0C4DE4000B
:10A1600015510C4D0C4C15515050A0220521D20018
:10A170009950FFF77DFF38BD0C0600000407000072
:10A18000004000400C0500002405000000F00140E4
:10A19000384100401C40004014050000F0B585B077
:10A1A000071C0E1C01920293002A01D1002099E0A5
:10A1B000FFF75EFF0028F9D0B1234B4C7A08DB0093
:10A1C000E2500122494D17424BD0019B484F934228
:10A1D00001D1484B00E0484B484ABB500123484A54
:10A1E000BB500022EA602360464B0293EB68002BD1
:10A1F00008D13E4B9B6A002B04D1029B013B02938A
:10A20000002BF3D10023EB60029B002B41D0374B96
:10A210009B6A002B3DD1731C0393A323324ADB00BE
:10A22000D3583370019B013BDBB20193012B03D167
:10A23000304B324ABB5002E0019B002B06D0142069
:10A24000FFF7FEFE01232362039ECFE7AB68002BDE
:10A25000FCD00022254B01209A60A123DB00F8509E
:10A2600040E03078284B711CE050A260254A286AF3
:10A27000002807D11D48806A002803D1013A002A2E
:10A28000F5D106E0002A04D0AF6A1748174E002F18
:10A2900010D00026AE62A0251C4FED0066510520AF
:10A2A000E651FFF7CDFE0123E35104336351FFF77D
:10A2B0003BFF7BE73762019F013FFFB20197002F11
:10A2C00003D00E780131C650D1E7029B002B01D19B
:10A2D000012007E0019BB36001234361AB68002BC1
:10A2E000FCD0F5E705B0F0BD00400040FC40004068
:10A2F00000F00140144000401C40004014050000E4
:10A3000004050000204E00001C050000FC0F0000AA
:10A31000A0DF7047A2DF7047F0B591B001900F1C2D
:10A32000151C1C1C002904D1081C1B4A6D21FFF7B9
:10A33000AFF8002D04D1281C6E21174AFFF7A8F8AA
:10A3400009AE301C00211C2202F0ECFF012202A900
:10A350008A710A1C694602238988337091802278A9
:10A3600002A90A70627804AC4A708B70201C00212C
:10A37000142202F0D7FF03AB049302AB6360074BD8
:10A38000311C1888221C169B2581A5812761FFF7A7
:10A39000C1FF11B0F0BDC04688E501007230002059
:10A3A00030B5041C01205A4D87B05A4B03A92A1C12
:10A3B00088700B80FFF7ACFF002800D0A5E0228852
:10A3C000002A03D12289002A17D00AE0AB1C00938F
:10A3D000231C514861683C33FFF79EFF0028F1D0F1
:10A3E00093E02B1C0A330093231C4C48E1683C3358
:10A3F000FFF792FF002800D087E0228A002A0AD0C7
:10A400002B1C12330093231C454861693C33FFF732
:10A4100083FF002879D1228B002A0AD02B1C1A3303
:10A420000093231C3F48E1693C33FFF775FF002888
:10A430006BD1228C002A0AD02B1C22330093231CC0
:10A440003948616A3C33FFF767FF00285DD1228DF0
:10A45000002A0AD02B1C2A330093231C3348E16ABC
:10A460003C33FFF759FF00284FD1236B002B1CD042
:10A470001A7804A90A705A782D484A709A788A7016
:10A480001A68120ECA701A790A719B681A0A4B71FF
:10A490001B0CCB712B1C32338A710093231C0822B6
:10A4A0003C33FFF739FF00282FD1636B002B03D11A
:10A4B000A06B00280DD128E0291C3A311A790091AF
:10A4C0001968231C1B483C33FFF726FF0028EFD0F8
:10A4D0001BE0037804A90B70438842354B701B0ABC
:10A4E0008B7083880722CB701B0A0B71C3881248BC
:10A4F0004B711B0A8B71231C00953C33FFF70CFF3B
:10A50000031C0020834200D0181C07B030BDC04699
:10A51000723000200A180000292A0000242A0000B6
:10A52000252A0000272A0000262A0000282A0000E9
:10A53000232A00002A2A0000502A000038B5041CF3
:10A54000081C0D1C02F0D0FF6560208038BD26DF9E
:10A55000704751DF704710DF704761DF704708B503
:10A56000081C111CFEF7D0FF08BD0000F0B5234DFC
:10A5700085B02B78002B3ED06E68AC6873425E418C
:10A5800063425C41F6B2E4B2002E32D103A8FFF779
:10A59000E0FF05280AD0002804D06921184AFEF7F8
:10A5A00077FF04E003986B68984700E00126002CD1
:10A5B0001CD1AB8903A90B802B690124181C0193C2
:10A5C000FFF7CBFF071E052F0BD0002805D08021F9
:10A5D0000B4AFEF75DFF002403E00198AB68984743
:10A5E0003C1C002ED0D0002CCED004E0002E02D196
:10A5F000CAE7002CDDD005B0F0BDC046BC3000205D
:10A60000D6E5010038B5051C0720002910D08C07BD
:10A610000ED1084C281C21610749A2816361FFF714
:10A620009AFF002804D1012316302370FFF78FFF13
:10A6300038BDC046BC3000205FA501000E230028B5
:10A6400002D0024B98600023181C7047BC300020D9
:10A650000E23002802D0024B58600023181C7047BC
:10A66000BC30002008B5084B5B69002B08D0984728
:10A67000002807D09921054A4900FEF709FF01E0AB
:10A68000FFF774FF08BDC046BC300020D6E50100CE
:10A6900072DF704779DF70477DDF704765DF704795
:10A6A000F0B50024061C251C87B00C9F00933B7856
:10A6B00003910292019333889D423ADA7368A900AC
:10A6C0005918042205A802F024FE04AB05A8D91CE1
:10A6D0000022FFF7E3FF002835D104ABDB78029AB4
:10A6E000934222D16242624102993B78520059184A
:10A6F0008A181F2A1BDC002C07D169469A1C3A7065
:10A700000133009A097BDBB2D15404ABDC1C3A78EC
:10A71000009B05A89A18211CFFF7C0FF002812D142
:10A72000237801243A78D3183B700135C3E70C2015
:10A7300009E00020844206D03B78019A013B9B1A35
:10A740000199009A535407B0F0BDF7B5089E171C45
:10A7500000960222051C1C1CFFF7A2FF002806D150
:10A760000096281C391C1022231CFFF799FFFEBD00
:10A770000023F0B51370037889B0061C0D1C141C5F
:10A78000002B03D1B378002B4BD029E043780C2069
:10A790001D2B00DD61E10E2704ABFF181D23881C73
:10A7A000391C3B80FFF778FF002800D055E1337853
:10A7B000022B03D13B8809221D2B08D97378002B6B
:10A7C00003D09BB208221D2B01D908223B88DBB2A3
:10A7D000591C29706A70227802329B182370D1E7C5
:10A7E00023780C201B2B00DD37E10E2704ABFF186C
:10A7F000381CFFF74FFF002800D02EE123785A1CA9
:10A8000022700322EA5423785A1C22701922EA5437
:10A8100023783A88EB181A70120A5A702378023398
:10A820002370B388002B1FD0B2680720002A00D104
:10A8300013E122780530911CCB181F2B00DD0CE1B1
:10A84000531C2370B3880133AB5423785A1C2270F5
:10A850000122EA542078B2882818B16802F059FD24
:10A86000B2882378D3182370F368002B12D01A789B
:10A8700023780C201C2B00DDEFE0591C21700221F5
:10A88000E9542378591C21700A21E9542378591C72
:10A890002170EA54338A002B03D1338B002B16D05E
:10A8A0000AE0301C00941030022106222B1CFFF716
:10A8B0004CFF0028F1D0D0E0301C00941830032168
:10A8C00007222B1CFFF741FF002800D0C5E0338C86
:10A8D000002B0AD0301C00942030142115222B1C90
:10A8E000FFF733FF002800D0B7E0B36A002B49D050
:10A8F00022780C20049206321F2A00D9ADE0198874
:10A900000538052900D8A8E0554A564F8A1892B252
:10A91000BA4200D8A1E05A880392052A00D89CE0E8
:10A920004F4FBC469444674602AA97819789BC461C
:10A930004C4FBC4500D890E04B4FB94205D0039A2C
:10A94000BA4202D0914200D987E0049A04990132B8
:10A95000227005226A542278511C21701221A954B8
:10A9600022781988AA181170090A517022780232C7
:10A97000D2B222705988AB181970090A597023781D
:10A9800002332370F76A002F29D03A792178931C7B
:10A99000881CDBB2C3180C201F2B5EDC4B1C03325F
:10A9A00023706A5423785A1C2270FF22EA542378B9
:10A9B0003A88EB181A70120A5A7023780233DBB205
:10A9C0002370BA88002A0AD0B9680538002944D013
:10A9D000E81802F09EFCBA882378D3182370331C41
:10A9E000343305931B78002B01D1002035E0336B05
:10A9F000002B31D000230493059B049A1B789342CB
:10AA0000F3D90C27049B22785F43336B511CDF1969
:10AA10003B7921700333AB5423785A1C22701622E1
:10AA2000EA5423783A88EB181A70120A5A70207880
:10AA30000230C0B22070BA88002A09D0B968002953
:10AA40000AD0281802F065FCBA882378D31823703E
:10AA5000049B0133DBB2CEE7072009B0F0BDC0464E
:10AA60007FF3FFFF7DF30000FFFF0000F0B593B020
:10AA70006B466A469E1D0023D71D0D1C33703B702C
:10AA800098420BD08388002B01D1072024E08368F3
:10AA9000002BFAD01B785B07F7D50DE0041C002DC6
:10AAA00003D0AB88002BF0D10EE02A1C31783B7824
:10AAB000201CFFF7EDFD0FE002A9321CFFF758FE46
:10AAC00002AC0028EBD007E03A1C281C0AA9FFF7CB
:10AAD0004FFE0AAA0028E9D013B0F0BD75DF704719
:10AAE00076DF70477ADF70477BDF704737B5164CEB
:10AAF000164B2088251C984225D0A378227C013350
:10AB0000DBB2A3709A4209D3211C2031FFF7E6FF84
:10AB1000002818D0E369002B14D114E00023A3709F
:10AB2000237D002B08D03B21FFF7DAFF002803D05C
:10AB3000E369002B00D09847AB69002B03D00022BB
:10AB400001A80270984737BDD4300020FFFF0000F5
:10AB500013B5174C638D228C9A420DD8628C9A42A1
:10AB60000AD3A369002B03D0012201A802709847E1
:10AB700000233434237013BD231C34331B78002B83
:10AB800005D0A369002BF3D001A80022EEE7A3783B
:10AB9000002B01D1A16800E0E168206B002200F0E9
:10ABA0008FFB0028E4D0E369002BE0D1E0E7C0464A
:10ABB000D4300020021C70B5144C231D62CA62C33D
:10ABC00062CA62C31268251C1A60231C0022016835
:10ABD000343320351A70281C914212D0083202F00A
:10ABE00098FB281CFFF77EFF00280DD1201C0123B5
:10ABF00000215B42064A30302380A17000F03AFB0E
:10AC000002E0FFF771FFEFE770BDC046D4300020CF
:10AC1000EDAA010010B50388112B18D002D8102B13
:10AC200005D039E0122B2FD0502B17D034E01B4C1D
:10AC30008388011C201C0E3128300822238002F05A
:10AC400068FB0023A370638A002B25D122E0012337
:10AC5000124C5B4223800023A3700BE00F4CC18891
:10AC6000628A914218D1C38B022B15D10130C37F68
:10AC7000DB070FD4206B00F06BFB00280CD0E369DE
:10AC8000002B09D0984707E0811D0448082228308E
:10AC900002F03FFBFFF75CFF10BDC046D430002040
:10ACA00010B54378827801339A1A041C501E8241F1
:10ACB0005242134022780020934205D00B601823A3
:10ACC000607843436068C01810BD0000154B022037
:10ACD0005968C905C90D24D01039CBB25AB2002A1F
:10ACE0000BDA0F221A40083AC24082400E4952182D
:10ACF00003210B4052688B4007E092080B4BC03297
:10AD00009200D25803230B40DB00DA40D3B29B09F8
:10AD1000DBB20020012B04D0033B5A425A410230DF
:10AD2000801A704700ED00E018ED00E000E100E05F
:10AD30002F23C046C046C046C046C046C046C04697
:10AD4000C046C046C046C046C046C046C046013B9D
:10AD5000002BEED170470000802238B50B4B9202D9
:10AD6000DA678023D2220125094C5B029200A350AE
:10AD7000403AA3506560FFF7DBFFA5600025054C56
:10AD80002560FFF7D5FF257138BDC04604E100E01E
:10AD9000001001400C310020F8B50025204B214C5B
:10ADA0005D649D64DD641D655D609D60A7687B1CBE
:10ADB00035D01D4B1D4AD6582368F61A3602360A7E
:10ADC00024235F43E368DB195A68964215D3B61A09
:10ADD000AD1822691F6A002A0AD09869D96990477C
:10ADE000002808D06421124AFF31FEF751FB02E02F
:10ADF0009A69D86990477B1CE2D1227D637D93429A
:10AE000005D10133DBB2022B00D100236375802210
:10AE1000637D52039B00E418064BA5615A60F8BDA0
:10AE2000FC1001400C31002004050000001001401E
:10AE300027E60100FCE100E0F0B5AE4B89B01A68EE
:10AE4000597D04921A7D914211D00132D2B2022A68
:10AE500000D100221A751A7D049992009A189269FD
:10AE6000009252181202120A1A60012201E0002216
:10AE7000009205929A680133DB7F06920193013BB1
:10AE8000DBB20393039B9B4AFF2B61D0039B526A67
:10AE9000DB00D3181C780293029B5B78A34255D049
:10AEA0001822029B62435B68013407939A18029B45
:10AEB000E4B29B781B1B591E8B415B421C401378EC
:10AEC000022B05D0032BE7D18A4BD9689A6831E071
:10AED00024255268874B5543DF6894467D192A7DA7
:10AEE000002AD9D09868011C061C4B1C1FD02423B3
:10AEF000614504D04B43FA180E1C116AF5E78E42E7
:10AF000008D14343FB181B6A7A4A9360013301D18D
:10AF1000FFF722FF24235E43296ABE196A68316263
:10AF2000481C04D04B43FF187B689B187B600023B0
:10AF30002B75B1E7531C06D0242353430022CB18B2
:10AF40001A751A6AF6E76B4B9A60A5E7039B96E7BA
:10AF500005999368002909D1069A9B1A5A1E9341B4
:10AF6000DBB2029301235B429C462DE0D5680122AF
:10AF70005242944600205A1C22D024225A43AA1836
:10AF80005168009C8C4205D25A48091B836051606D
:10AF9000012318E0009C4018641A002100941469F1
:10AFA00051601175166A8C4208D00499D46041181A
:10AFB0000902090A916061469C461162331CDAE776
:10AFC0004C4A9360023302934A4B9A6803925A6A3E
:10AFD0000692DA681B6800920593039B019A013A76
:10AFE000D2B20192FF2A00D188E0019A0699D200DC
:10AFF0008A186146013108D06046242141430098F7
:10B0000064464118086A844624E0117850788842E2
:10B01000E4D0182048435468013120189478C9B20C
:10B0200011708C4201D100211170017844681D1CFF
:10B0300001295DD123316143009D69180E7D1D1CDE
:10B04000002E55D185688D60C568CD6005690D619C
:10B050004069C8618868059D274F451B2D022D0A50
:10B06000CE68BD4202D8AD194D600AE0059D281A90
:10B070000002000A864202D9361A4E6001E0002022
:10B08000486000208860C860013008750238086296
:10B090002530061C66430099251C8E19591C27D0A3
:10B0A0005843009D716828184568A94204D8691A58
:10B0B0004160251C33621BE01D1C0493242068435F
:10B0C000009F38184768B94206D9006AC91B049521
:10B0D000471C05D0051CF1E77F1A4760281C049D1A
:10B0E000716024214D43009930624D192C621D1C62
:10B0F0002B1C7EE70C310020FEFF7F00284D039AB9
:10B10000AB60934202D1029A002A46D05A1C42D028
:10B1100024225343EA68234CD3185B68224A0093E5
:10B12000A6582B6803920193F31A1B021B0A0333E0
:10B1300002932B79002B12D18023C13A5B02FF3A94
:10B14000A350403AA350C02180220127174B9202FE
:10B1500049005A501A602760FFF7EAFD2F71029BE1
:10B16000009A934200D2131C019A9B18A8221B023A
:10B170001B0AD200A350039AA258921B1202120A71
:10B180009E1B36020332360AB24206D98022084B91
:10B1900092025A6001E0FFF7DFFD09B0F0BDC04642
:10B1A0000C310020001001400405000000E100E027
:10B1B000FCE100E0F8B51E1C051C0F1C141C072048
:10B1C000B3074BD1002E49D0FFF7C6FD244A069B9A
:10B1D00024211361131C28331F704F43F1190F1CD6
:10B1E000331CD660994204D000201870187524339F
:10B1F000F8E70320531CD8771823516218310E1C2E
:10B2000063430020796038707870BC700837C918C3
:10B21000B742F6D101238024C021C526FF275B4217
:10B220009360104B6403490010755075B6005C5074
:10B230009959B9433F3F39439951A1211C600A4CA8
:10B24000C9006550C425AD005E5908493140C0268B
:10B25000360231435951064BE3581360F8BDC046DE
:10B260000C31002000E100E000100140FF00FFFF72
:10B2700004050000F0B5114B061CDC680820002C0A
:10B280001AD00138002A17D0002E15D000252833F7
:10B290001F78BD420FDA201C2434231C243B1B786A
:10B2A000002B06D101244170047082613560181CA6
:10B2B00002E00135EDE70420F0BDC0460C3100206E
:10B2C000F0B51F4C061CE56885B00820002D34D071
:10B2D000231C28331B7801389E422ED204292CD9F6
:10B2E00024237343EB181D780130012D25D15B78A1
:10B2F0000027012B00D10F1C01920D1CFFF7E6FC6B
:10B30000646AC0002418201C03A9FFF7C9FC031CB1
:10B310000420002B11D001220A491A700A4A5E60EB
:10B320008A5800209A60019ADD605A6180221F616C
:10B33000039B52036370054B5A6005B0F0BDC046D5
:10B340000C3100200010014004050000FCE100E089
:10B3500073B5154E0823F268002A22D0331C283317
:10B360001978072388421CD21D3343439A5C082373
:10B37000012A16D1051CFFF7A9FC746AC000241825
:10B38000201C01A9FFF78CFC0423002809D080228F
:10B39000023B0370019B45606370044B52035A608B
:10B3A0000023181C76BDC0460C310020FCE100E0F3
:10B3B00021DF704720DF7047142337B50849021C8E
:10B3C0000878084D58430C18201CE36821791B01AC
:10B3D000EB18E5880C300095DD6C6369A84737BD34
:10B3E00038310020B8310020F7B56C4C071C201C08
:10B3F0006C301D1C0378002B06D1131C2B4301D18C
:10B40000023300E001230370231C6C331B780320FC
:10B41000013B052B00D9BFE0181C00950E1C151C24
:10B4200001F052FB03243576629C80235C4A5B0565
:10B430005169013105D05069196989B201F04EFB9B
:10B4400000E05869802252051369116912690138B8
:10B450009BB289B292B2584371439208FFF7A8FF9A
:10B46000002800D098E06C34022394E0081CFFF719
:10B47000A1FF002800D08FE0002D30D1009B002BD1
:10B4800028D13B78042B22D16C34072324E080237D
:10B490005B051969424A89B24E435169013121D095
:10B4A0005069196989B201F019FB80235B0519699C
:10B4B000013889B241432A1C301CFFF779FF00286C
:10B4C0006AD1009B002B05D13B78042B1DD06C3436
:10B4D000052301E004236C34237000205CE06C340D
:10B4E000032358E05869E0E780235B051869910061
:10B4F00080B246437A88881992083969FFF758FF65
:10B50000002849D1009B1D43BED06C340623E3E7DD
:10B5100080235B051969950089B24E437A880192B0
:10B52000B6181F4A76195169013106D05069196958
:10B5300089B201F0D3FA411E01E059690139802333
:10B540005B051B69019A9BB24B43AD18E918301C8F
:10B55000009AFFF72DFF0028B6D01DE08023104A87
:10B560005B055169013105D05069196989B201F053
:10B57000B5FA00E0586980225205136911699BB23F
:10B580000138584389B201F0A9FAFFF713FF0028E8
:10B5900002D107236C342370FEBDC046B8310020B1
:10B5A00000100010F0B51424414A85B013785C43B4
:10B5B0001419211C019323790831271D8D680292EB
:10B5C000042B19D0052B52D00F20022B6ED1394BF2
:10B5D00020896E331E886369B602E2889919364B5A
:10B5E0004019921B80199A4201D8920801E08022EA
:10B5F0005200FFF7DDFE54E048682E4903010A1CA3
:10B600004C32D2181689CB18B44680261B6D52894D
:10B6100076050391AB4204D163465A43E3889A42CC
:10B6200001D003280BD13169281C89B201F056FAE8
:10B63000039B6E331B88C018FFF7BCFE31E03169F5
:10B64000281C89B201F04AFA32693469431CA4B259
:10B650005C43142392B24243011C0198AA1A43434B
:10B6600002989208C318DB88EB18E31A15E08026CD
:10B6700076053169281C89B201F030FA011C326963
:10B680002389306992B25D194A434B1C86B25E43EE
:10B69000E388AA1A5B199208F31A9B08381CFFF773
:10B6A000A3FE002802D10122014B9A7005B0F0BD23
:10B6B00038310020B8310020FF030000F8B5134DE9
:10B6C000061C6C7806A8078804200A2C1DD0287850
:10B6D0002418E4B2092C01D90A3CE4B214204443F2
:10B6E0002C196261221C26710C3241C941C2E380CF
:10B6F0002781AB78002B01D0002003E0FFF752FF39
:10B700001128F9D06B7801336B70F8BD3831002007
:10B7100008B5064B5B78002B01D1002005E0FFF750
:10B7200041FF0028F9D01128F7D008BD383100209A
:10B73000F8B5384B9A781C1C002A6AD00021997001
:10B74000354B1A1C6C3216781D1C082E06D10228A7
:10B7500001D1117047E07033197044E0022803D022
:10B76000032856D10D2042E01A1C6E32138820782F
:10B7700001339BB2138014224243A218107902288D
:10B7800004D1D2889B0293420EDA2CE0052839D0EE
:10B79000042828D1F01F47427841D7889B020A1C11
:10B7A000BB4227DA00282AD000262B1C301C6C3321
:10B7B0001E70FFF701FE1423022022786E355343DA
:10B7C000E3181E71DE80D8601E615E611E812E80CE
:10B7D0006378013B6370531CDBB2092B01D82370E3
:10B7E00001E0093A2270FFF793FF002811D0FFF71C
:10B7F000E3FD0EE00122002ED4D00A1CD2E7002A7D
:10B80000F1D0D1E7F21F53425A41081C002AC9D097
:10B81000CAE7F8BD38310020B831002070B52D4C92
:10B820002D4D221C0023291C6E3213802B706B704F
:10B83000AB70CC312B1D002202201A705A80986008
:10B84000DA601A619A8014338B42F4D1231C72336C
:10B850001A808023214E5B057269013205D0706920
:10B86000196989B201F03AF900E058698021490567
:10B870000B6903389BB2221C584300234C321381BE
:10B8800093815381138393835383E364E365231C80
:10B8900008226C3360671A707369013306D00F4B4E
:10B8A0005869096989B201F019F900E048698022F4
:10B8B0005205136911699BB20138584389B201F0EE
:10B8C0000DF9FFF777FD002803D101237034AB7029
:10B8D000237070BDB83100203831002000100010F6
:10B8E000F0B5444D85B02B1C70331B780824002B19
:10B8F00000D17BE00634002878D0002976D0036898
:10B90000002B73D080235B051A69878892B2073CAD
:10B9100097426BD80B2F69D9C288002A66D07A4328
:10B920000291696F019200910A1C0199061C8C46D4
:10B9300062440392304A5169013105D05069196956
:10B9400089B201F0CBF800E05869802252051369F2
:10B9500001389BB25843039B0724834246D813699E
:10B9600001999BB2994207DD1069391C80B201F040
:10B970003BF989B2002939D1032307241F4035D16F
:10B980001C48033C031C72331A88022A2ED0029BE7
:10B990000099009C596011011A6043181C653468B5
:10B9A000DC64041CB3884C3464182381F688734328
:10B9B0006681446F8020400506690137B6B2BFB288
:10B9C000B34203D90669B6B29B1B00E000230669A7
:10B9D0000069B6B280B2A4198342EBD26C6700242E
:10B9E0006B185433723501329F802A80201C05B0B9
:10B9F000F0BDC046B831002000100010F7B5154C5E
:10BA00000191231C70331D780823002D20D00633AC
:10BA100000281DD0002A1BD00568073B012D17D830
:10BA20002F01E619B4466146C96C4C3600290FD087
:10BA30004C34E419278901994068794309186089D1
:10BA4000474370683F18B94202D200231560516025
:10BA5000181CFEBDB8310020F0B5204D071C281C75
:10BA60007030047885B003930820002C34D0063061
:10BA7000002931D0002F2FD03E680738012E2BD857
:10BA80004C239C463601AC19A444E46C002C23D012
:10BA9000ED1863465B68AD199C462E896D897C68FC
:10BAA00075436544AC4217D2002A15D0B24213D870
:10BAB000039BD518B5420FDC0325093029420BD171
:10BAC0002B4209D12C4207D11C1C0E38131C0094A8
:10BAD0000A1C391CFFF7F2FD05B0F0BDB83100209B
